:100000006F10F04713000000130000001300000001
:100010001300000013000000130000001300000094
:100020001300000013000000130000001300000084
:08003000130000007300100032
:100038000000000000000000A6240000A824000022
:1000480000000000161C0000000000000000000076
:10005800181C00001A1C000000000000000000002E
:1000680084090000000000000002000000000000F9
:10007800201C0000221C0000241C0000261C00007C
:10008800281C00002A1C00002C1C00002E1C00004C
:10009800301C0000321C0000341C0000361C00001C
:1000A800381C00003A1C00003C1C00003E1C0000EC
:1000B800401C0000421C0000441C0000461C0000BC
:1000C800481C00004A1C00004C1C00004E1C00008C
:1000D800501C0000521C0000541C0000561C00005C
:1000E800581C00005A1C00005C1C00005E1C00002C
:1000F800601C0000621C0000641C0000661C0000FC
:10010800681C00006A1C00006C1C00006E1C0000CB
:10011800701C0000721C0000741C0000761C00009B
:10012800781C00007A1C00007C1C00000000000005
:080138000000000000000000BF
:10020000130181F806C216C41AC61EC822CA26CC1B
:100210002ACE2ED032D236D43AD63ED842DA46DC76
:100220004ADECEC0D2C2D6C4DAC6DEC8E2CAE6CC46
:10023000EACEEED0F2D2F6D4FAD6FED8F3220030CF
:1002400096DA9702002083A2E2E723A02200F3259A
:1002500010342EC003A18181EF1000341703002059
:10026000032343E603210300824273901234D652E3
:10027000739002309240A2423243C2435244E2445D
:10028000724582551256A2563257C2575258E258FA
:1002900072598649164AA64A364BC64B564CE64C0E
:1002A000764D865D165EA65E365FC65F13018107DA
:1002B0007300203013000000130000001300000042
:1002C00013000000130000001300000013000000E2
:1002D00013000000130000001300000013000000D2
:1002E00013000000130000001300000013000000C2
:1002F00013000000130000001300000013000000B2
:1003000083A28181938202E073900234170100205E
:10031000032141DB024182403243C2435244E24462
:10032000724582551256A2563257C2575258E25859
:1003300072598649164AA64A364BC64B564CE64C6D
:10034000764D865D165EA65E365FC65FD652A1020A
:1003500073900230A24213018107828013000000D3
:100360001300000013000000130000001300000041
:100370001300000013000000130000001300000031
:100380001300000013000000130000001300000021
:100390001300000013000000130000001300000011
:1003A0001300000013000000130000001300000001
:1003B00013000000130000001300000013000000F1
:1003C00013000000130000001300000013000000E1
:1003D00013000000130000001300000013000000D1
:1003E00013000000130000001300000013000000C1
:1003F00013000000130000001300000013000000B1
:10040000F322003093F272FF130380181203B3E259
:100410006200711523205500130585FA10C12115BE
:10042000232005009302000063870200711523203A
:100430000500FD12D5BF71150CC1828000000000BF
:1004400000000000000000000000000000000000AC
:10045000000000000000000000000000000000009C
:10046000000000000000000000000000000000008C
:10047000000000000000000000000000000000007C
:10048000000000000000000000000000000000006C
:10049000000000000000000000000000000000005C
:1004A000000000000000000000000000000000004C
:1004B000000000000000000000000000000000003C
:1004C000000000000000000000000000000000002C
:1004D000000000000000000000000000000000001C
:1004E0000000000000000000000000000000397162
:1004F00001436EC619A0397141536AC866CA62CCFD
:100500005ECE19A0397101535AD056D252D44ED66C
:100510004AD826DA22DC06DE3301614082824111AC
:100520004AC026C222C406C68282B24D4101024D93
:10053000924C224CB24B4101024B924A224AB249A0
:100540004101024992442244B240410182803D432C
:100550002A876373C3029377F700BDEFADE5937607
:1005600006FF3D8ABA960CC34CC30CC74CC7410763
:10057000E36BD7FE11E28280B306C3408A0697027E
:10058000000096966780A6002307B700A306B70071
:100590002306B700A305B7002305B700A304B700DF
:1005A0002304B700A303B7002303B700A302B700D7
:1005B0002302B700A301B7002301B700A300B700CF
:1005C0002300B700828093F5F50F93968500D58DB3
:1005D00093960501D58D61B7939627009702000089
:1005E00096968682E78086FA9680C1171D8F3E9682
:1005F000E374C3F8A5B7EFF29FF241113AC68547FD
:1006000019C9854789C901CA19C736877C0081463F
:10061000EF00101A81473E85410125B7EFF23FF008
:10062000EF00F03B39BF01CD854799C911CAEFF200
:100630001FEF0146E52B933715003E8519B7854717
:100640003E858280B70700209387870B9843636FAE
:10065000A702D043B386C7006316D50054413E8538
:10066000B296D4C35041B306C500631CD700B70689
:10067000002083A6060A6306D70054431843B296A7
:1006800054C118C16303F50088C38280BA877DBF57
:10069000EFF25FE741112AC6EF00703DB706002078
:1006A00083A7060A370600209386060A1306460A21
:1006B0003245A1EF370700209307071493F5F700A1
:1006C0001307071481C51387F700419BB705002066
:1006D0009385850B23A2050098C18D65C115AE9742
:1006E000C19B23A2070023A00700B385E7409CC25B
:1006F0001CC3B707002023A6B70AB707002023A40E
:10070000B70AB70700804CC31CC2032A0600B377A0
:10071000AA0085E39307F5FF3957636CF700930749
:10072000050113F7F70041C313F707FF410763EB18
:10073000E706814489A022872E8461A058C15CC04D
:1007400011375840B70600209386C60A9042B30777
:10075000E94023A0F90063F3C7009CC2B70700205B
:100760003367EA009387070B58C09843C1042320DE
:100770000400050798C3EF00D04B93F7F400D1CBEA
:1007800089679387078073900730374600003745A5
:1007900000001306C68F9305001113050593EF1093
:1007A000706C01A0BA87370700200329870A9309D4
:1007B000870AE360F9F8370700200324870B130743
:1007C000870B50406374F6000C40B5F59442E38209
:1007D00086F61440044314C33307F6409306000220
:1007E000E3F1E6F63305F4009376F500A1DA8967C4
:1007F0009387078073900730374600003745000025
:100800001306C68F9305F00C13050593EF10906542
:1008100001A0268541010DB34DC1EFF25FD0B707AE
:100820000020032745FF83A7470A2A84B376F700F1
:100830009DE28967938707807390073037460000F1
:10084000374500001306C68F930540121305059324
:10085000EF10506101A0832605FF9DC28967938731
:1008600007807390073037460000374500001306B5
:10087000C68F9305501213050593EF10B05E01A0CB
:1008800093C7F7FFF98F232AF5FEEF00501EB70735
:1008900000209387870A9443032744FF130504FF2E
:1008A000369798C34533B70700209387470B984383
:1008B000050798C3EF00F03769B18280B7E700E021
:1008C00041572387E7402386E740B7F700E023A09E
:1008D000070023A20700814694C70147D8C783A514
:1008E00001811307401F814633D6E5023D4790CB77
:1008F000D4CB98C38280EFF29FC2411102C6F32786
:1009000050303EC6B2470D478D8B6384E70289673E
:100910009387078073900730374600003745000003
:10092000130646959305600B13050593EF1090533E
:1009300001A0B757002093870700BD8B9DC389672F
:1009400093870780739007303746000037450000D3
:10095000130646959305B00B13050593EF109050C1
:1009600001A0A93FB7E700E0116723A0E7100567E2
:1009700023A0E710B707002023A007085132014544
:100980004101C1B6397106DE16DC1ADA1ED82AD644
:100990002ED432D236D03ACE3ECC42CA46C872C6E7
:1009A00076C47AC27EC07311013489679387078049
:1009B00073900730B7F700E023A20700EF00D00CD8
:1009C00011C5B7E700E0116723A0E7208967938787
:1009D00087887390073073110134F250E2525253FA
:1009E000C2533255A255125682567247E2475248B8
:1009F000C248324EA24E124F824F21617300203006
:100A000089679387078073900730B7070020938723
:100A100007089843050798C382803707002013070B
:100A200007081C438DE7EFF29FAF89679387078024
:100A3000739007303746000037450000130646958F
:100A40009305301013050593EF10D04101A0FD1759
:100A50001CC391E7896793878788739007308280EA
:100A6000930785007D575CC118C55CC51CC9232050
:100A7000050082802328050082809841FD56930757
:100A80008500631ED7001C49D843D8C10CC79CC53C
:100A9000CCC31C4188C985071CC18280B687D4435A
:100AA0009042E37DC7FECDB7544118451C4998C616
:100AB00054C3D4436393A600D8C3984323280500A6
:100AC0007D1798C388438280EFF27FA541112AC623
:100AD000053F3245005D913713351400410195B44F
:100AE00030410DC2EFF2BFA358451445AA87329793
:100AF00058C56364D700184158C52E85CC47EF1000
:100B0000102B81B48280EFF29FA12A84D53D8344CB
:100B1000540413094402E204E18463449002FD5743
:100B2000A302F404DD3DE93D8344440413090401B8
:100B3000E204E18463439002FD572302F404F13D93
:100B400009B45C50E9DF4A85EF00903A19C1EF0023
:100B5000D056FD14E204E184C9B71C48F1DF4A8590
:100B6000EF00103919C1EF005055FD14E204E18483
:100B7000D1B7EFF2DF9A41111DE1896793870780B2
:100B800073900730374600003745000013068698FB
:100B90009305001113050593EF10D02C01A05C5DA7
:100BA0002EC62A84B5C33841B3B7E702B1EF893DF9
:100BB0003040585C1440232C0402B307E602B245CF
:100BC00054C03387F600918FB6975CC4FD5723025B
:100BD000F40418C4A302F4048DE11C4899CB130556
:100BE0000401EF00F03011C5B7E700E0116723A062
:100BF000E720253505454101A9B2130504018D35CE
:100C000013054402B13DF5B7896793870780739058
:100C100007303746000037450000130686989305D5
:100C2000501413050593EF10F02301A0EFF23F8F4E
:100C3000411121C1B3B7A502AA8485EF3305B502DE
:100C4000930770FB63E7A702130585042EC689345A
:100C50002A8401CDB245AA8799C1930785042CC087
:100C60001CC044DC854522852937228541016FF06F
:100C70005F8D896793870780739007303746000040
:100C800037450000130686989305601C13050593ED
:100C9000EF10501D01A0EFF21F86011132C61DE1B9
:100CA0008967938707807390073037460000374580
:100CB0000000130686989305105513050593EF1051
:100CC000701A01A02A84AE898DE53C419DC38967D5
:100CD0009387078073900730374600003745000040
:100CE000130686989305505513050593EF1090173A
:100CF00001A0EF00503D15E5B247014985C789675E
:100D0000938707807390073037460000374500000F
:100D1000130686989305A05513050593EF109014BC
:100D200001A001497D5A930A440237EB00E0916B20
:100D30009DA0B24781E7D531014561A06315090047
:100D40002808EF00B029D1391D235D3983474404B9
:100D5000E207E187639447012302040483475404B4
:100D6000E207E18763944701A30204047D316C002C
:100D70002808EF00102829ED2285B93331C5B24586
:100D80005685EF00100B2285BD3BEF00806A19E10C
:100D900023207B210549AD31045CC1DCCE85228551
:100DA000FD143D3B04DC1C4899CB13050401EF0006
:100DB000301411C5B7E700E0116723A0E720B1396F
:100DC000054505616FF0AFF62285353B9D25D9B706
:100DD0002285153BB92D2285C5394DDDB1BF15E5FD
:100DE000EFF2EFF3896793870780739007303746F8
:100DF000000085653745000013068698938585AC0D
:100E000013050593EF10100601A09DCD3736002085
:100E1000930606148147014713060614214883A848
:100E200046006398A80093173700B2978CC3C8C3D5
:100E300021A891E783A8060063930800B6870507F9
:100E4000A106E31E07FDFDF38280EFF24FED411195
:100E50002A842EC632C46D36834744047D57224609
:100E6000E207E187B2456394E70023020404834765
:100E700054047D57E207E1876394E700A30204046A
:100E800032C62EC4593E1C5CA245324689E7130582
:100E90004402EF00807E2285BD3141016FF06FEA90
:100EA000370700201307470C1C439443B707002063
:100EB0009387470E81E67D5798C382801843584731
:100EC0001843DDBFEFF20FE437090020B707002019
:100ED0009304090C83A9470F2A849C408840411140
:100EE000A380070611052EC6C1367D579307090C4E
:100EF000B245631CE40295C9B73700209387872465
:100F00009440D84398C610479440D0C694401047A8
:100F1000910654C29440910614C798405CCB984304
:100F2000050798C341016FF02FE198434E9440C3E9
:100F3000637A3401370700200325870C8C43910521
:100F40002D3ECDB7370700200325470C8C43910574
:100F50002D36B70700209387470E9843E374E4FCCF
:100F600080C3C9B7EFF20FDA37340020B709002089
:100F70001304C425370A00209384090D9C40EDDF3B
:100F800041345C4403A9C70013054900313E1307EF
:100F9000CA0C1C43FD171CC39C40FD179CC0B53CEC
:100FA00003250903EFF05F874A85EFF0FF86E9B775
:100FB000EFF26FD413192600AA8A4A85AE89368BC0
:100FC000BA8B3E8AEFF0CFEC05C5AA841305400624
:100FD000EFF00FEC2A8411C904D98147930600026F
:100FE000639A0900230A050225A02685EFF0DF8217
:100FF0007D55C1AA3387F900030707003306F400C3
:10100000230AE60201C78507E396D7FEA309040475
:10101000994763F477038967938707807390073054
:1010200037460000374500001306C69A930570390D
:1010300013050593EF10006301A0930944004E854A
:1010400023267403232A7405232C04042534130552
:1010500084010D341D471305C9FF330777412695D9
:1010600000C818CC40D0230E0404A30E0404230FA0
:101070000404A30F040423000406A30004065A86F4
:10108000D6854199EFF0CFB708C063040A0023204A
:101090008A00EFF0FF96B70700209387C70C9843AC
:1010A0003709002037350020050798C31307090CBE
:1010B0001843370A00201309090C93040518130A72
:1010C0000A0F63120710232089009843854763188D
:1010D000F70813050518EFF0BF9813854401EFF0EA
:1010E0003F9813858402EFF0BF971385C403EFF098
:1010F0003F9713850405EFF0BF9613854406EFF084
:101100003F9613858407EFF0BF9537350020130B0A
:10111000C5201305C520EFF0BF9437350020930A92
:10112000052213050522EFF0BF9337350020130584
:101130004523EFF0FF92373500201305C525EFF06A
:101140003F923735002013058524EFF07F91B707D4
:10115000002023A2670DB707002023A4570DB7076F
:1011600000209387870D9843050798C33707002011
:101170001307C70D5C54144363F3F6001CC35147B7
:10118000B387E702BE94DC4098471CC458C4984714
:101190002322370123A437019C4044C885079CC003
:1011A000EFF0BF8783270A00054581CF8327090019
:1011B000D8575C546377F700B7E700E0116723A0C6
:1011C000E7206FF0CFB683270A00D1FB8327090001
:1011D000D8575C54E3E5E7F82320890049B7EFF2DC
:1011E0000FB4B7070020B7450000371500009387FC
:1011F000070E01478146130600109385059D1305D0
:1012000045F67D330544631E8502EF00B01A631A6C
:10121000850289679387078073900730B70700209E
:101220007D5723A2E70EB707002023A8A70EB70714
:10123000002023AA070EEFF00FEC83A741806FF088
:101240004FB0FD57E31BF5FE8967938707807390C6
:101250000730374600008565374500001306C69AFB
:101260009385058413050593EF10C03F01A0B707D0
:1012700000209387470D9843050798C38280B707DE
:10128000002003A5470F8280B707002083A7470DE2
:1012900063980718EFF2AFA8B70700209387470FAE
:1012A0008043050480C339E8B70700209387470CC3
:1012B0009843184305C78967938707807390073061
:1012C000374600008565374500001306C69A9385AA
:1012D00075AC13050593EF10E03801A03707002027
:1012E0001307870C9443104390C3B707002014C31F
:1012F0009387870E9843050798C35D36370600200D
:101300009307460E9C4337370020B705002013068D
:10131000460E130707189385050C01456375F40203
:101320009C41D146DC57B387D7023E971843854787
:1013300063F3E7000545B707002083A7870F91C334
:1013400005456FF00FA0370E0020B70E0020514F5B
:1013500093074E0C9443944281E6FD571CC2C9B7D3
:101360009C43DC47DC47D4436374D40014C24DBFB4
:1013700083A8870003A8C700D44B1383470023A486
:1013800008012322180183A846006394680023A261
:10139000060103A8060023AA07007D1823A0060162
:1013A000945795CA03A8C70183A8070283AF4600D4
:1013B0002324180183A8070223A2080113888701A8
:1013C00063940F0123A2160103A8060023A40702B9
:1013D0007D1823A006019386CE0D03A8C70283A81B
:1013E000060063F4080123A00601B306E803BA96D9
:1013F00083A8460083AF880023A4170123A6F70122
:1014000083AF880023A26F0023A46800D4CB9C4242
:1014100085079CC29C41DC57E36CF8F205450DBF83
:10142000B70700209387C70E98430145050798C367
:101430008280EFF22F8D370400201304440D1C40EE
:10144000411185E789679387078073900730374696
:1014500000008565374500001306C69A9385358BD5
:1014600013050593EF10002001A0EFF06FD91C4089
:10147000FD171CC01C4089CB01452AC6EFF0EFD9EF
:10148000324541016FF04F8BB707002083A7C70C8F
:10149000E5D7B736002037350020814793864623AD
:1014A000370F002013050518D14837030020370EE9
:1014B0000020854E59A8DC46DC47CC4F9053985706
:1014C00090C503A807022322B8000328470093858C
:1014D00087016313B80050C3104323A407027D168D
:1014E00010C38C47D047D84B1388470090C54CC2D7
:1014F0004C436393050150C3104323AA07007D1694
:1015000010C31307CF0DD0570C4363F3C50010C3AE
:10151000330716032A974C4383AF85008CC723A655
:10152000F70183AF850023A20F0123A405010C431B
:10153000D8CB85050CC31307030C184358576366B3
:10154000E60013078E0F2320D70198422DF799C389
:10155000EFF01F95B70700201387C70E04431384CD
:10156000C70E91CC370900208549393B09C593073F
:10157000890F23A03701FD14EDF823200400B707DD
:10158000002083A7870FE38907EEB7E700E0116724
:1015900023A0E7200545D5B5B707002003A7470DD1
:1015A000B70700209387870F01C7054798C382803C
:1015B00023A00700B70700201387C70D1843138621
:1015C000C70DB7370020938707185148B3060703A4
:1015D000B385D700884115C5C841A106BE964841CC
:1015E000C8C16314D5005441D4C1D146B306D70253
:1015F000B697DC43D447B707002023A0D70C18C206
:10160000828015E7EFE2BFF18967938707807390C7
:101610000730374600008565374500001306C69A37
:10162000938525C013050593EF10C00301A07D1716
:1016300071BFEFE2DFEE05E589679387078073905E
:101640000730374600008565374500001306C69A07
:101650009385C5C113050593EF10C00001A0B7071E
:1016600000202E8483A5070CE105EFF00FC185450E
:101670002285EFF03F856FE0DFECEFE25FEA2A873B
:1016800005E5896793870780739007303746000028
:101690008565374500001306C69A938525C5130551
:1016A0000593EF00307C01A0B70700209387070C5B
:1016B00054432E858C4303A88600D4CD8C4323A0AD
:1016C000050303A807008C46610823A2050103A8AF
:1016D00007009C43610823A4060198D71C43850793
:1016E0001CC311C27D55B285EFF0CFFD6FE07FE5E1
:1016F0005C45DC4795E7EFE29FE2896793870780C7
:1017000073900730374600008565374500001306A3
:10171000C69A938525C813050593EF00B07401A000
:10172000D04F945398579385870114C6D0C2504325
:101730006313B60054C3144323A40702FD1614C355
:10174000370700200327470DD45725EF8C47D04794
:10175000D84B90C5D04748434CC29385470063138C
:10176000B50050C3104323AA07007D1610C33707E6
:1017700000201307C70D10436373D60014C35147ED
:101780003386E60237370020130707183297504395
:10179000084690C7C8C708464CC10CC6D8CB1C43E6
:1017A000014585071CC3B707002083A7070CDC573A
:1017B00063F8D700B7070020054723ACE70E0545BF
:1017C0008280373700201307472350430846D0CF85
:1017D00088D308464CC10CC698D7D1B7B7070020AC
:1017E00083A7870E1CC1B707002083A7470F5CC1E2
:1017F0008280EFE2DFD2411105E589679387078098
:1018000073900730374600008565374500001306A2
:10181000C69A9385D5CF13050593EF00B06401A058
:1018200085E5896793870780739007303746000006
:101830008565374500001306C69A9385E5CF1305E5
:101840000593EF00306201A02EC62AC4EFF04F9B33
:1018500037070020B70700201307070C83A6470FA0
:101860001C432245B24583C7170699CB1C43A3806E
:1018700007060544EFF06F9A228541016FE07FCCA7
:101880009C417D570144E387E7FE3706002003268D
:10189000860E0328050058416307C80063E5E6008B
:1018A00023A00500F9B73386E640E37BF6FE958F6B
:1018B000BA979CC12537014475BFB707002005477B
:1018C00023ACE70E8280B707002083A7070F0545EA
:1018D00081CBB707002003A5470D1335150006057A
:1018E0008280EFE2DFC337040020EFF06F91130432
:1018F00084101C40B1E73735002013090527130574
:101900000527EFF0EF9537350020930445281305A0
:101910004528EFF0EF94B707002023AE270F0146CC
:10192000B7070020C145114523A09710EFF00FB075
:1019300008C019C5B74500009385C59FEFF02FCAB1
:10194000EFF0AF8D6FE0FFBFEFE27FBD4CC108C984
:10195000AA876362B602184D158E0545637BE600C3
:1019600093854700B707002003A50710EFF0EF901D
:1019700001456FE01FBD6375D6000545E3FBD5FE4D
:1019800093854700B707002003A5C70FC5B7EFE24F
:101990001FB92A84AE8432890C4CA6864A86A69545
:1019A00022855D3719E16FE0DFB91C4C2285BE94BA
:1019B0001C508297D5B7EFE29FB6B707002083A7E8
:1019C000C70F4111AA84DC472EC6C0471305440047
:1019D000EFF08F8D83474402324613F7470011CB57
:1019E000A68522856D371C502285829741016FE0C4
:1019F0005FB5F99B2302F402FDB7EFE25FB2370453
:101A000000209306C40F98421C4391EBB7070020B7
:101A100093870710904398C390C26FE09FB25C47D2
:101A2000FD558843493FF1BFEFE2FFAC1169411119
:101A3000B70A0020B7090020370B0020B70B0020A1
:101A40001309899D83A7CA0F984329CBDC47814C92
:101A500003AC0700EFF0BF81EFF07F8283A749104E
:101A60002A8493844910130A8B10636CF50288C092
:101A7000638F0C0283A70B109043133616000325C7
:101A80000A00B3058C40EFF04FBCEFF09F9A11EDC8
:101A9000B7E700E0116723A0E72001A8854C014CBF
:101AA00055BFA13F80C0EFF0DF98214C05A0014653
:101AB000E36785FDEFF0FF97A2856285ED3DF5B701
:101AC0009247B2458297824763DD070003250A00EB
:101AD00001468A85EFF02F9C35D582472245E3C128
:101AE00007FE22445C4895E3EFF06FF99C40AA8C16
:101AF0006373F5001937824723A09401FD17E3674C
:101B0000FCFC8A07CA979C43828713054400EFE0D8
:101B1000BFF9D9BF834744020C4C924693E71700A4
:101B20002302F4026686B6952285393D45D1834766
:101B3000440213F7470019CB1C4C92456686228558
:101B4000BE95B1351C502285829749B7F99B230277
:101B5000F402CDBF83474402F99B2302F402BDB7D0
:101B600083474402924593E717002302F4020CCC0A
:101B70009DE189679387078073900730374600009F
:101B800037450000130646A09305903513050593CD
:101B9000EF00502D01A0E6866686E69522856D331E
:101BA00035B78347440213F727005DF72285EFE03E
:101BB000BFC629BFEFE2BF962D33B707002083A72A
:101BC00087109DE3896793870780739007303746B6
:101BD000000037450000130646A093059011130539
:101BE0000593EF00302801A0B7070020B74500009B
:101BF000372500009387C710194781461306001048
:101C0000938585A2130585A2EFF08FBA45DD6FE0BD
:101C10005F9301A001A001A001A001A001A001A06B
:101C200001A001A001A001A001A001A001A001A0AC
:101C300001A001A001A001A001A001A001A001A09C
:101C400001A001A001A001A001A001A001A001A08C
:101C500001A001A001A001A001A001A001A001A07C
:101C600001A001A001A001A001A001A001A001A06C
:101C700001A001A001A001A001A001A001A097F175
:101C8000FF1F938121C0173100201301A1371725B1
:101C90000000130565E997E5FF1F9385A5361386B8
:101CA000018263FAC5008322050023A055001105B7
:101CB0009105E3EAC5FE17E5FF1F1305A53E97153D
:101CC00000209385655F6377B5002320050011052B
:101CD000E36DB5FEFD42739002BC89427390428071
:101CE000B72200009382028073A0023097E2FFFFC8
:101CF0009382C23493E2320073905230EF0040631B
:101D0000970200009382227B73901234730020307C
:101D10009C4513F7070113F8F70001C7D841336852
:101D2000E80037270240145B3707000F758F55EF27
:101D30003707002085462308D7103717014063175F
:101D4000E50003D7050035832390E50083D5050022
:101D500013F7F50F39C318418146854E3D4F930F58
:101D6000800293028004214E3396DE00B3F8C50052
:101D7000631116039398260033131F011343F3FFD7
:101D80003377E300B318180133E7E8006399F707E6
:101D900050C98506E39AC6FD18C11307F00F637595
:101DA000B70454412146854E3D4F930F8002930264
:101DB0008004414EB398CE0033F715016392E802D8
:101DC0001317260001173313EF001343F3FFB37605
:101DD000D3003317E800D98E6397F703232A150140
:101DE0000506E319C6FD54C1828037170140E31F81
:101DF000E5F4370700200347071129DB99B7E39A79
:101E000057F810C979B7E39D57FC23281501C9BFBE
:101E1000B707002023AAA7108280371702405C432F
:101E20009146B18B6385D700A1466386D706B71765
:101E30007A00938707201CC1371602405C4237079F
:101E40000020130707009183BD8BBA9783C6070054
:101E50001C41B3D7D7005CC15442A1829D8ABA9677
:101E600083C60600B3D6D70014C55442AD829D8AFE
:101E7000369703470700B3D7E7005CC5584239835C
:101E80009376370013878180369703470700B3D7CF
:101E9000E7021CC982805C435843C166C983BD8B7D
:101EA000758F8907C5466393D700C94701EF374748
:101EB000024003270780418B09CF37177A001307A9
:101EC000072021A83717024058439316E700E3D6AE
:101ED00006FE37173D0013070790B387E702A1BF3F
:101EE00099C5371702405C4B5D8D48CB8280B71790
:101EF0000240D84B1345F5FF798DC8CB828099C538
:101F0000371702401C4F5D8D08CF8280B717024003
:101F1000984F1345F5FF798D88CF828099C5371783
:101F200002405C4F5D8D48CF8280B7170240D84F8A
:101F30001345F5FF798DC8CF828093F5F51F2312E5
:101F4000B5008280035505006D8D3335A000828079
:101F5000EFE24FDBB7440140AE89328901449384FC
:101F60000480634524014A856FE00FDD930500047A
:101F70002685C93F65DDB3878900838507002685EF
:101F80000504C205C181553FE9BF1387C1801C43C9
:101F9000B73600209386462B3E95636BD500B75627
:101FA00000209386068063E5A60008C33E858280F4
:101FB000FD57EDBFEFE2AFD37971814505450D3790
:101FC00081450945313F81451145193F814513053B
:101FD00000043937814505652137814505450537B9
:101FE00085451145293F85452145113F8545414599
:101FF0003937814513050020193781451305004005
:10200000FD3D8569138509808145D53D854505657B
:10201000FD3581450965E53581451165CD3581453C
:102020000545ED3D81450945D53D81451145FD35C8
:1020300081452145E535138509808145C5358145B3
:102040001165E93D814537050200C93D81453705E8
:102050000400E935814537050800C9358145370554
:1020600020006D3D8545370540004D3D81453705D4
:1020700080006D358145370500024D3581453705B6
:102080000008693D814537050010493D916531469D
:102090009385058F481037140140112B11494C10BE
:1020A000130504804AD6AD31E14409484C101305AC
:1020B00004802312010342CE26D699394C10130511
:1020C000048026D623122103A13121464C1013058A
:1020D00004802312C10232CC26D61D39C1464C10D1
:1020E000130504802312D10236CA02D61531130714
:1020F00000024C10130504802312E1023AC826D6D0
:102100000139930700044C10130504802312F102D7
:102110003EC626D6F53E930D00084C1013050480EC
:1021200026D62312B103EFF0BFBE130D00104C10E2
:10213000130504804AD62312A103EFF07FBD930C50
:1021400000204C101305048026D623129103EFF0D3
:102150003FBC130C00404C101305048026D62312FC
:102160008103056AEFF0DFBA130A0A804C101305E9
:10217000048026D623124103EFF09FB99305800215
:102180002ED6130504804C1023123103EFF05FB8F4
:10219000896B4C10130504804AD623127103EFF0AB
:1021A0003FB7116B4C10130504804AD6231261030C
:1021B000EFF01FB6E17A4C101305048026D62312E7
:1021C0005103EFF0FFB485452312B102130504C09B
:1021D0004C1026D6EFF0DFB372484C10130504C044
:1021E0002312010326D6EFF0BFB24C10130504C032
:1021F00026D623122103EFF0BFB162464C1013051F
:1022000004C02312C10226D6EFF09FB0D2464C1074
:10221000130504C02312D10226D6EFF07FAF424748
:102220004C10130504C02312E1024AD6EFF05FAE52
:10223000B2474C10130504C02312F10226D6EFF06A
:102240003FAD4C10130504C026D62312B103EFF0A6
:102250003FAC4C10130504C026D62312A103EFF0A7
:102260003FAB4C10130504C026D623129103EFF0A8
:102270003FAAF1444C10130504C026D62312810353
:10228000EFF01FA94C10130504C026D623124103FA
:10229000EFF01FA8930780044C10130504C03ED62E
:1022A00023123103EFF0DFA64C10130504C04AD609
:1022B00023127103EFF0DFA54C10130504C04AD6BA
:1022C00023126103EFF0DFA44C10130504C04AD6BB
:1022D00023125103EFF0DFA341444C1037150140A6
:1022E00022D623126103EFF0BFA24C103715014034
:1022F00022D623125103EFF0BFA1B73700209387F6
:1023000087293737014098C337070401D8C33707F7
:10231000020098C7370700020507D8C71307000255
:1023200098CB1547239AE700014545616FE0EF9F81
:10233000B71702409843B706FFF84111136717001B
:1023400098C3D84337060200758FD8C39843B706A1
:10235000F7FEFD16758F98C39843B706FCFFFD1670
:10236000758F98C3D843B70681FFFD16758FD8C304
:1023700037079F0098C702C402C69843C166558FAD
:1023800098C3B716024005679C42F18F3EC6A2472C
:1023900085073EC4B24781E7A247E397E7FEB71738
:1023A00002409C431397E7006355070685473EC6E6
:1023B00032478547631DF704B7170240D843B70675
:1023C000C1FFFD16D8C3D843D8C3D843D8C3D84318
:1023D000758FD8C3D843B7063D00558FD8C39843EF
:1023E000B7060001558F98C3984393166700E3DD45
:1023F00006FED843B7160240719BD8C3D843136773
:102400002700D8C32147DC42B18BE39EE7FE4101A0
:10241000828002C671BFB7160240DC421146B18B02
:10242000138701816385C70021466389C702B717F7
:102430007A00938707201CC3B7170240DC439183BF
:1024400093F6F700B707002093870701B69783C676
:1024500007001C43B3D7D7001CC38280DC42D442A0
:102460004166C983BD8BF18E890745466393C700DA
:10247000C94781EEB746024083A60680C18A89CE4D
:10248000B7167A009386062021A8B7160240D442D8
:102490001396E600E35606FEB7163D0093860690B7
:1024A000B387D70249BF01A001A001A001A001A0EC
:1024B00001A0EFE2CF860111A53DB13FEFF09FAF44
:1024C000680002C602C802CA02CC02CEEFF0FF9436
:1024D0000945EFF0FF9337060020130646128945A1
:1024E0002945EFE04F943706002013060612894570
:1024F0002945EFE04F9337060020130686118945E2
:102500002945EFE04F92370600201306C611894592
:102510002945EFE04F9137070020B74500003725E8
:1025200000001307C712914613060010938505A3F8
:102530001305A54AEFE02F8C37070020B7450000B0
:1025400037250000130747138D46130600109385A7
:1025500045A41305C54AEFE00F8A37070020B745A9
:102560000000372500001307871289461306001064
:10257000938545A51305E54AEFE0EF87370700206F
:10258000B7450000372500001307071395461306CB
:102590000010938585A61305054BEFE0CF85EFE08E
:1025A000EF8737440000130504A7D12AEDBFB3C756
:1025B000A5008D8B3307C50081E78D4763EEC7000B
:1025C000AA876370E50A83C6050085078505A38F82
:1025D000D7FEE3EAE7FE828093763500AA8791CAA8
:1025E00083C6050085078505A38FD7FE93F63700C0
:1025F000FDB79376C7FF138606FE63F0C70683A375
:10260000050083A2450083AF850003AFC50083AEFC
:10261000050103AE450103A3850183A8C501938588
:10262000450223A0770003A8C5FF23A2570023A4D7
:10263000F70123A6E70123A8D70123AAC70123ACEA
:10264000670023AE17019387470223AE07FF75B7D4
:1026500090419107910523AEC7FEE3EBD7FEE3E47B
:10266000E7F6828039713EDA2ED232D436D63AD8A5
:1026700042DC46DE9387418122CC804326CA06CEC7
:10268000AA8409C41C4C99E3228515230C445410D8
:102690002686228536C6EF00F017F2406244D24407
:1026A00021618280011126CA4AC806CE22CC4EC6BC
:1026B00052C4AA842E8901C51C4D91E3CD299C4C9E
:1026C000804499E32685E521971700009387073E0C
:1026D000631CF402C0408357C400A18BB1C71C48DF
:1026E000A1C7FD59294A1C4483450900FD17B1E9DA
:1026F0001CC463DE07062286A94526857120FD5786
:102700006308F502294535A0971700009387073C19
:102710006314F4008044C1B797170000938707370C
:10272000E31BF4FAC04445BFA2852685312A55D95A
:102730007D55F2406244D2444249B249224A056181
:1027400082801CC4050963D70700184C63CBE700DF
:10275000638945011C401387170018C02380B70008
:1027600059B7228626850D20E31F35F7D1B71C40C7
:102770001387170018C029472380E70061B79387A4
:102780004181AA85884339BF011122CC26CA4AC893
:1027900006CE4EC6AA842E89328401C51C4D91E313
:1027A000392197170000938767306319F406C040FA
:1027B0001C4C1CC48357C400A18BC9C31C48BDCF8B
:1027C0001C4808409379F90F1379F90F1D8D5C4867
:1027D0006346F500A2852685652C2DE51C4405057C
:1027E000FD171CC41C401387170018C02380370135
:1027F0005C486389A7008357C400858B81CBA947B8
:102800006316F900A285268561240DEDF24062442D
:102810004A85D2444249B249056182809717000037
:102820009387C72A6314F400804459B797170000B0
:102830009387C725E31EF4F6C0449DBFA285268575
:1028400021203DDD7D59D9B741119387418126C2B1
:10285000844322C44AC006C62A892E8489C49C4C5B
:1028600099E32685A9269717000093872724631CE0
:10287000F402C0400317C40093170701C18393F605
:102880008700B5EE93F607019DEEA5472320F900DA
:10289000136707042316E4007D55B2402244924496
:1028A0000249410182809717000093872722631411
:1028B000F4008044C1B7971700009387271DE31BDE
:1028C000F4FAC04445BF918B8DC74C5889C9930712
:1028D00044046384F5004A85352B232A0402835778
:1028E000C4002322040093F7B7FD2316F4001C480C
:1028F0001CC08357C40093E787002316F4001C48CC
:1029000081EF8357C4001307002093F707286385DE
:10291000E700A2854A8585218357C40013F7170075
:1029200005C75C4823240400B307F0401CCC1C48B6
:102930000145A5F78317C40013F7070839DF93E7AC
:1029400007042316F40089BF898B014791E3584897
:1029500018C4F1BF83D7C500011122CC26CA06CE08
:102960004AC84EC613F78700AA842E8471EFD84157
:10297000634DE000B841634AE0000145F240624423
:10298000D2444249B2490561828058547DD703A997
:1029900004009396370123A0040063DD0606704807
:1029A0008357C400918B99C75C401D8E5C5899C3B6
:1029B0003C401D8E5C540C50814626858297FD5705
:1029C0000357C400631DF5009440F54763E8D7063C
:1029D000B70740208507B3D7D700858BA5C31C4810
:1029E000232204001CC09317370163D80700FD574A
:1029F0006314F5009C4091E368C84C5823A024015F
:102A0000ADDD930744046384F50026852121232A44
:102A10000402A5B70C500146854626850297FD574E
:102A20002A86E31FF5F69C40A5DF75476385E7001E
:102A300059476394E70423A0240181B7136707046F
:102A40002316E4007D551DBF83A90501E38709F224
:102A500003A905008D8B23A03501330939410147B6
:102A600091E3D84918C4E35A20F11C540C50CA868B
:102A70004E86268582976349A0008357C40093E75A
:102A800007042316F4007DBFAA993309A940E1BFCA
:102A90009C49B9CF011122CC06CE2A8411C51C4D08
:102AA00081E72EC62922B2459717000093870700B9
:102AB000639BF5004C408397C50095C7228562440F
:102AC000F240056141BD971700009387270063948A
:102AD000F5000C44CDB797170000938727FBE39CC4
:102AE000F5FC4C44C9BFF240624401450561828057
:102AF00001458280411122C406C62A842316B500EE
:102B00002317C500232005002322050023240500E8
:102B10002322050623280500232A0500232C05006F
:102B2000214681451305C505EFD07FA29717000008
:102B30009387A7B65CD097170000938707B91CD47A
:102B400097170000938747BD5CD4971700009387C1
:102B500007C000D01CD8B2402244410182809705B2
:102B60000000938525F3A9A2411126C21306800611
:102B70009384F5FFB384C4024AC02E8922C406C6DA
:102B80009385440781262A8401CD23200500232232
:102B90002501310508C4138684068145EFD03F9B8B
:102BA0002285B240224492440249410182801C4D58
:102BB000ADE3411106C622C497070000938767FA68
:102BC0001CD59387C1819C43232405042326050437
:102BD000232805046314F50085471CCD2A841D288D
:102BE00048C02285052808C422852D2048C44840B5
:102BF00001469145013708440546A545E53D484451
:102C00000946C945C53D85471CCCB2402244410117
:102C10008280828041119387C18126C284434AC049
:102C200006C69C4C22C42A8999E326854937938499
:102C300084048044DC40FD1763D607009C40B9CF74
:102C40008440C5BF0317C40039E7C1778507232235
:102C500004062320040023220400232404005CC46F
:102C600023280400232A0400232C04002146814544
:102C70001305C405EFD0BF8D232A0402232C0402C0
:102C800023240404232604042285B24022449244CF
:102C90000249410182801304840671BF91454A852F
:102CA000E13588C051FDB1472320F9000144E9BF57
:102CB000797122D44AD052CC56CA5AC85EC606D6BA
:102CC00026D24ECE2A8AAE8A130485040149054BCA
:102CD000FD5B09ECB25022544A8592540259F249E4
:102CE000624AD24A424BB24B4561828004448329F6
:102CF0004400FD1963D409000040E1BF83D7C4003C
:102D0000637BFB008397E40063877701A685528588
:102D1000829A3369A90093848406E1BF1971A6DA07
:102D2000AE848395E500A2DC86DE328463DC050098
:102D300083D7C40023A0060093F7070885E793070D
:102D400000401DA0300836C6EF00F026B246E34131
:102D500005FE7247BD67F98F7977BA9793B7170069
:102D60009CC2F1BF930700041CC0F6506654D654B1
:102D700001450961828083D7C500011122CC06CEAE
:102D800026CA4AC8898B2E8489CF930774041CC035
:102D90001CC885475CC8F2406244D2444249056180
:102DA000828074003000AA84953FA2452A89268536
:102DB000112A01ED8317C40013F7072069FFF19B67
:102DC00093E727002316F400C9B7970700009387FD
:102DD00047D99CD48357C40008C008C893E70708A4
:102DE0002316F400A2475CC8B24791CF8315E400D4
:102DF0002685EF00701F01C98357C400F19B93E73C
:102E000017002316F4008357C4003369F900231612
:102E1000240151B7DDC583A7C5FF411122C406C6F1
:102E200026C21384C5FF63D307003E94AA84EF0033
:102E3000902397D7FF1F938767309C4391EF2322FE
:102E4000040097D7FF1F23AB872E2244B24026856C
:102E5000924441016F005021637EF4001440330717
:102E6000D4006396E7009843DC43369718C05CC0F3
:102E7000C9BFBA87D84319C3E37DE4FE94433386C0
:102E8000D700631F86001040B29694C33386D700E4
:102E9000E31DC7FA10435843B29694C3D8C375B71D
:102EA0006375C400B1479CC04DB71040B306C40061
:102EB0006316D70014435843B29614C058C0C0C319
:102EC00069B78280011126CA93843500F19806CE35
:102ED00022CC4AC84EC6A104B14763F9F404B144F8
:102EE00063E8B4042A89EF00101897D7FF1F93876F
:102EF000E72498433A8439E497D7FF1F9387472400
:102F00009C4381EB81454A85B12F97D7FF1F23A9A9
:102F1000A722A6854A85B927FD59631B3507B14706
:102F20002320F9004A85EF00301429A0E3DA04FADF
:102F3000B1471CC10145F2406244D2444249B24902
:102F4000056182801C40858F63C10704AD4663F62E
:102F5000F6001CC03E9404C001A85C4063158702C3
:102F600017D7FF1F232CF71C4A85EF00F00F13051E
:102F7000B4009307440061993307F5404DDF3A945C
:102F8000898F1CC04DBF5CC3C5B722874040A5B721
:102F9000130435007198E30085FCB305A4404A850D
:102FA000D125E31A35FBA5BF1C46FD171CC663DA05
:102FB0000700184E63C5E700A9476394F5006FF05A
:102FC000AFFC1C422E851387170018C22380B70060
:102FD0008280011122CC26CA4AC84EC652C406CEEF
:102FE0002A89AE893284B304D6007D5A63149400D2
:102FF000014509A8834504004E864A8575370504B6
:10300000E31645FFF2406244D2444249B249224AA3
:1030100005618280357122CD26CB4AC94EC706CFC5
:1030200052C556C35AC1DEDEE2DCE6DAAA89AE84B6
:103030003289368409C51C4D99E3EFF05FB79717C5
:1030400000009387A7A6639BF40C83A4490083D751
:10305000C400A18BF5C79C48E5C793070002A304F1
:10306000F1029307000302D22305F10222C6930B5B
:103070005002971A0000938A6AA7054C294B4A848C
:103080008347040099C36390770FB30C2441638D89
:103090000C00E6864A86A6854E85253FFD576306C9
:1030A000F51E9256E69636D283470400638F071CBE
:1030B000FD571309140002C802CE3ECA02CCA30970
:1030C000010482D48345090015465685412713041F
:1030D0001900C24759E913F7070109C7130700028E
:1030E000A309E10413F7870009C71307B002A30976
:1030F000E104834609001307A0026380E608F24753
:103100004A848146254603470400930514001307AB
:1031100007FD6379E60AB5CA3ECE85A89717000079
:103120009387C79A6395F40083A489000DB7971716
:1031300000009387A795E39CF4F083A4C90001BF26
:10314000A6854E85EFF04FF009D97D55FA406A44C7
:10315000DA444A49BA492A4A9A4A0A4BF65B665CFB
:10316000D65C0D618280050421BF330555413315BE
:10317000AC00C98F3EC82289B1B7324793064700D9
:10318000184336C6634907023ACE03470400930743
:10319000E002631FF704034714009307A002631BB8
:1031A000F702B2470904138747009C433AC663C13C
:1031B00007023ECA35A83307E04093E727003ACE1E
:1031C0003EC8E1B7B387670385462E84BA9725BF0B
:1031D000FD57C5B7050402CA814681472546034706
:1031E000040093051400130707FD6376E606F1F269
:1031F000834504000D46171500001305A58FB9255A
:1032000011CD971700009387E78E1D8D930700045B
:10321000B397A700424505045D8D2AC88345040085
:103220001946171500001305258D130914002304F2
:10323000B102292D3DC197D7FFFF9387A7DC95E702
:103240004247B2471377071009CF91073EC69257FE
:10325000D2973ED22DB5B387670385462E84BA97A1
:10326000BDBF9D07E19BA107D5B778009706000079
:10327000938666D626860C084E8597000000E700E8
:103280000000FD572A8AE314F5FC83D7C40093F7A6
:103290000704E39C07EA125555BD78009706000025
:1032A000938666D326860C084E85012AD9BF79718C
:1032B00056CA9C49BA8A984522D426D24ECE52CCC0
:1032C00006D64AD05AC85EC6AA892E84B284368AE7
:1032D00063D3E700BA879CC00347340419C385074A
:1032E0009CC01C4093F7070281C79C4089079CC083
:1032F0000329040013796900631A0900130B940170
:10330000FD5B5C449840998F634CF9041C408346F4
:10331000340493F70702B336D000A5EB1306340448
:10332000D2854E85829AFD576303F5041C401146F1
:103330009840998B544481446397C700B384E64016
:1033400063D3040081441C4418486354F700998FE8
:10335000BE94014969047D5B63982405014509A871
:1033600085465A86D2854E85829A631E75017D55A3
:10337000B250225492540259F249624AD24A424B04
:10338000B24B456182800509ADBF3307D4001306F7
:103390000003A301C7040347540493871600A297B0
:1033A0008906A381E7049DBF85462286D2854E8586
:1033B000829AE30E65FB050945B7797122D426D2BE
:1033C0004AD04ECE06D652CC56CA5AC8B68983C603
:1033D0008501930790063289AA842E8413863504CA
:1033E000638DF60263E2D706930780056388F618BB
:1033F00063EDD7006381062293073004638EF60ADB
:10340000930A24042301D404C9A0930730066385DA
:10341000F60A93074006E395F6FE1C40084393F630
:10342000070893054500C5C61C410CC363D80700B7
:103430001307D002B307F040A301E404970600008D
:103440009386066C29476DA8930700076384F616D8
:1034500063E5D7029307E006638BF6189307F0063F
:10346000E390F6FA0C401C4313F805081385470057
:103470006307080608C39C438DA893075007E3839E
:10348000F6FE93078007638BF61293073007E399E4
:10349000F6F61C43D04181459386470014C383AAA6
:1034A00007005685652601C53305554148C05C4077
:1034B0001CC8A301040471A81C43930A2404938626
:1034C00047009C4314C32301F4048547D5B793F602
:1034D00007041C410CC3B9DAC207C18781BF93F549
:1034E000050408C3C9D983D707001307F00663880A
:1034F000E60E970600009386A6602947A301040400
:103500004C400CC463C5050008406D9908C099E3A0
:10351000B28A91CDB28AB3F5E702FD1AB69583C59A
:1035200005002380BA00B3D5E70263F0E70CA1479A
:10353000631EF7001C40858B91CB58401C4863C725
:10354000E70093070003A38FFAFEFD1A33065641E6
:1035500010C84E87CA867000A2852685EFF03FD539
:103560007D5A631E450B7D55B25022549254025928
:10357000F249624AD24A424B45618280A382D50415
:10358000970600009386C6570C40084313F80508B9
:103590001C411105630D080208C313F7150001C78C
:1035A00093E505020CC04147B1FB0C4093F5F5FDD6
:1035B0000CC0A9B79C4193E707029CC19307800701
:1035C000A302F404970600009386C65475BF13F84F
:1035D000050408C3E30308FCC207C1837DBF970647
:1035E00000009386E651214711BFAE872DB7944165
:1035F0001C43CC4913F806081385470063060800EE
:1036000008C39C438CC301A808C393F606049C43DB
:10361000F5DA2390B70023280400B28A1DBF1448AE
:103620005686CA8526858299E30F45F31C40898B0F
:103630008DE7B2474844E359F5F23E8535B78546F4
:103640005686CA8526858299E30F65F1050A5C4492
:103650003247998FE345FAFEE9BF014A930A940184
:103660007D5BF5B7411122C42A842E85970700207F
:1036700023A207C406C6EFE05F91FD576319F5006A
:1036800097070020938707C39C4391C31CC0B24097
:10369000224441018280411122C42E848395E50099
:1036A00006C6E122634905007C48AA977CC8B2405F
:1036B0002244410182808357C4007D777D17F98FB2
:1036C0002316F400EDB783D7C500011122CC26CA1A
:1036D0004AC84EC606CE93F70710AA842E843289B4
:1036E000B68991C78395E5008946014635228357FF
:1036F000C4007D777D17F98F2316F4008315E4004D
:103700006244F240CE864A86B24942492685D24476
:1037100005613DA8411122C42E848395E50006C6AB
:10372000E528FD570357C400631BF500FD77FD171F
:10373000F98F2316F400B24022444101828085674C
:10374000D98F2316F40068C8FDB78395E50025A836
:10375000411122C42A842E85B2853686970700201F
:1037600023AA07B406C6EFE0AFFEFD576319F500C4
:1037700097070020938707B49C4391C31CC0B240B5
:10378000224441018280411122C42A842E85970758
:10379000002023A107B206C61922FD576319F500C0
:1037A00097070020938707B19C4391C31CC0B24088
:1037B000224441018280411122C42A842E85B2858F
:1037C0009707002023A807AE06C6D520FD5763192A
:1037D000F500970700209387E7AD9C4391C31CC079
:1037E000B240224441018280411122C42A842E85A4
:1037F0009707002023A007AC06C6D120FD57631908
:10380000F500970700209387E7AA9C4391C31CC04B
:10381000B240224441018280411122C42A842E8573
:10382000B28536869707002023A607A806C645203E
:10383000FD576319F500970700209387A7A79C43BE
:1038400091C31CC0B24022444101828093F5F50F20
:103850002A966314C5000145828083470500E38DE5
:10386000B7FE0505FDB782808280411122C42A84FB
:103870002E85B28536869707002023AD07A206C69F
:10388000B928FD576319F50097070020938787A291
:103890009C4391C31CC0B2402244410182809307E3
:1038A0008005170700202327F7A07D558280930706
:1038B000800517070020232FF79E7D5582809307F0
:1038C0008005170700202327F79E01458280930774
:1038D000800517070020232FF79C7D5582809307D2
:1038E0008005170700202327F79C7D558280000064
:1038F0000100000001000000000000002E2E2F43F8
:103900006F64652F536572766963652F46726565CE
:1039100052544F532F706F727461626C652F4D65F6
:103920006D4D616E672F686561705F342E630000B6
:10393000657272206174206C696E65202564206F49
:10394000662066696C6520222573222E200D0A20D0
:10395000000000002E2E2F436F64652F5365727692
:103960006963652F4672656552544F532F706F72AD
:103970007461626C652F4743432F524953432D5660
:103980002F706F72742E63002E2E2F436F64652F7D
:10399000536572766963652F4672656552544F535D
:1039A0002F71756575652E63000000002E2E2F4364
:1039B0006F64652F536572766963652F467265651E
:1039C00052544F532F7461736B732E6300000000C9
:1039D00049444C4500000000141B0000141B00006B
:1039E000541B0000601B0000A21B0000141B000001
:1039F000141B0000541B0000601B0000546D72512A
:103A0000000000002E2E2F436F64652F53657276E1
:103A10006963652F4672656552544F532F74696D03
:103A20006572732E63000000546D7220537663003C
:103A300053656E736F7220436F6C6C656374696F4E
:103A40006E00000053656E736F7220467573696F68
:103A50006E00000041707020436F6D6D756E69637C
:103A60006174696F6E0000004D61737465720000CF
:103A700073686F756C646E27742072756E20617444
:103A80002068657265212100000000000000000030
:103A90000000000000000000000000000000000026
:103AA0000000000000000000000000000000000016
:103AB0000000000000000000000000000000000006
:103AC00000000000000000000000000000000000F6
:103AD00000000000000000000000000000000000E6
:103AE0000000000000000000232D302B200000000B
:103AF000686C4C00656667454647000030313233DC
:103B000034353637383941424344454600000000D9
:103B10003031323334353637383961626364656643
:043B200000000000A1
:103B2400000000000102030401020304060708095F
:103B34000000000000000000010203040607080959
:103B440000000000A83A0000C83A0000883A0000CB
:103B54000000000000000000000000000000000061
:103B64000000000000000000000000000000000051
:103B74000000000000000000000000000000000041
:103B84000000000000000000000000000000000031
:103B94000000000000000000000000000000000021
:103BA400AAAAAAAA0600000002040608B432002049
:103BB4000044950820000020005000202000002030
:00000001FF
