:100000006F00F01313000000130000001300000045
:100010001300000013000000130000001300000094
:100020001300000013000000130000001300000084
:08003000130000007300100032
:100038000000000000000000D00B0000D20B000000
:1000480000000000D60800000000000000000000CA
:10005800D8080000DA0800000000000000000000D6
:10006800F60500000000000000020000000000008B
:10007800E0080000E2080000E4080000E6080000CC
:10008800E8080000EA080000EC080000EE0800009C
:10009800F0080000F2080000F4080000F60800006C
:1000A800F8080000FA080000FC080000FE0800003C
:1000B8000009000002090000040900000609000008
:1000C800080900000A0900000C0900000E090000D8
:1000D80010090000120900001409000016090000A8
:1000E800180900001A0900001C0900001E09000078
:1000F8002009000022090000240900002609000048
:10010800280900002A0900002C0900002E09000017
:1001180030090000320900003409000036090000E7
:10012800380900003A0900003C09000000000000FE
:080138000000000000000000BF
:10020000130181F806C216C41AC61EC822CA26CC1B
:100210002ACE2ED032D236D43AD63ED842DA46DC76
:100220004ADECEC0D2C2D6C4DAC6DEC8E2CAE6CC46
:10023000EACEEED0F2D2F6D4FAD6FED8F3220030CF
:1002400096DA9702002083A262E423A02200F3251D
:1002500010342EC003A1C180EF00205E17030020E0
:100260000323C3E203210300824273901234D65267
:10027000739002309240A2423243C2435244E2445D
:10028000724582551256A2563257C2575258E258FA
:1002900072598649164AA64A364BC64B564CE64C0E
:1002A000764D865D165EA65E365FC65F13018107DA
:1002B0007300203013000000130000001300000042
:1002C00013000000130000001300000013000000E2
:1002D00013000000130000001300000013000000D2
:1002E00013000000130000001300000013000000C2
:1002F00013000000130000001300000013000000B2
:1003000083A2C180938202E073900234170100201F
:100310000321C1D7024182403243C2435244E244E6
:10032000724582551256A2563257C2575258E25859
:1003300072598649164AA64A364BC64B564CE64C6D
:10034000764D865D165EA65E365FC65FD652A1020A
:1003500073900230A24213018107828013000000D3
:100360001300000013000000130000001300000041
:100370001300000013000000130000001300000031
:100380001300000013000000130000001300000021
:100390001300000013000000130000001300000011
:1003A0001300000013000000130000001300000001
:1003B00013000000130000001300000013000000F1
:1003C00013000000130000001300000013000000E1
:1003D00013000000130000001300000013000000D1
:1003E00013000000130000001300000013000000C1
:1003F00013000000130000001300000013000000B1
:10040000F322003093F272FF130380181203B3E259
:100410006200711523205500130585FA10C12115BE
:10042000232005009302000063870200711523203A
:100430000500FD12D5BF71150CC1828000000000BF
:1004400000000000000000000000000000000000AC
:10045000000000000000000000000000000000009C
:10046000000000000000000000000000000000008C
:10047000000000000000000000000000000000007C
:10048000000000000000000000000000000000006C
:10049000000000000000000000000000000000005C
:1004A000000000000000000000000000000000004C
:1004B000000000000000000000000000000000003C
:1004C000000000000000000000000000000000002C
:1004D000000000000000000000000000000000001C
:1004E0000000000000000000000000000000397162
:1004F00001436EC619A0397141536AC866CA62CCFD
:100500005ECE19A0397101535AD056D252D44ED66C
:100510004AD826DA22DC06DE3301614082824111AC
:100520004AC026C222C406C68282B24D4101024D93
:10053000924C224CB24B4101024B924A224AB249A0
:100540004101024992442244B240410182803D432C
:100550002A876373C3029377F700BDEFADE5937607
:1005600006FF3D8ABA960CC34CC30CC74CC7410763
:10057000E36BD7FE11E28280B306C3408A0697027E
:10058000000096966780A6002307B700A306B70071
:100590002306B700A305B7002305B700A304B700DF
:1005A0002304B700A303B7002303B700A302B700D7
:1005B0002302B700A301B7002301B700A300B700CF
:1005C0002300B700828093F5F50F93968500D58DB3
:1005D00093960501D58D61B7939627009702000089
:1005E00096968682E78086FA9680C1171D8F3E9682
:1005F000E374C3F8A5B7397106DE16DC1ADA1ED823
:100600002AD62ED432D236D03ACE3ECC42CA46C8B2
:1006100072C676C47AC27EC073110134896793872B
:10062000078073900730B7F700E023A207009D20F2
:1006300011C5B7E700E0116723A0E720896793871A
:1006400087887390073073110134F250E25252538D
:10065000C2533255A255125682567247E24752484B
:10066000C248324EA24E124F824F21617300203099
:10067000370700201307C7081C439443B70700201F
:100680009387C70981E67D5798C3828018435847EE
:100690001843DDBFB707002083A7470963960718F3
:1006A000EFF2FFE7B70700209387870A804305042E
:1006B00080C331E8B70700209387C70898431843E1
:1006C0001DC3896793870780739007303726000022
:1006D000856537250000130646D8938575AC13054C
:1006E00085DA092301A0370700201307070994437F
:1006F000104390C3B707002014C39387070A984399
:10070000050798C3B537370600209307C6099C43F1
:1007100037070020B70500201306C6091307C70BCB
:100720009385850801456374F4029C41D146DC57EA
:10073000B387D7023E971843854763F3E700054523
:10074000B707002083A7C70A91C30545DDBB370E55
:100750000020B70E0020514F9307CE0894439442D7
:1007600081E6FD571CC2D1B79C43DC47DC47D4432C
:100770006374D40014C255BF83A8870003A8C700C0
:10078000D44B1383470023A408012322180183A814
:1007900046006394680023A2060103A8060023AA6A
:1007A00007007D1823A00601945795CA03A8C70126
:1007B00083A8070283AF46002324180183A80702F9
:1007C00023A208011388870163940F0123A2160155
:1007D00003A8060023A407027D1823A00601938620
:1007E0008E0903A8C70283A8060063F4080123A0AA
:1007F0000601B306E803BA9683A8460083AF8800D3
:1008000023A4170123A6F70183AF880023A26F005A
:1008100023A46800D4CB9C4285079CC29C41DC5732
:10082000E36CF8F205450DBFB70700209387470A30
:1008300098430145050798C38280B707002003A7A6
:100840004709B70700209387C70A01C7054798C320
:10085000828023A00700B707002013878709184369
:1008600013868709B70700209387C70B5148B30643
:100870000703B385D700884115C5C841A106BE96B8
:100880004841C8C16314D5005441D4C1D146B30610
:10089000D702B697DC43D447B707002023A4D70874
:1008A00018C282800DE7EFF29FC7896793870780A0
:1008B0007390073037260000856537250000130642
:1008C00046D8938525C0130585DA292E01A07D170A
:1008D00079BF01A001A001A001A001A001A001A079
:1008E00001A001A001A001A001A001A001A001A000
:1008F00001A001A001A001A001A001A001A001A0F0
:1009000001A001A001A001A001A001A001A001A0DF
:1009100001A001A001A001A001A001A001A001A0CF
:1009200001A001A001A001A001A001A001A001A0BF
:1009300001A001A001A001A001A001A001A09701B8
:100940000020938121F3174100201301A16B17159B
:1009500000001305A55197F5FF1F9385A56A13861F
:10096000818163FAC5008322050023A0550011058B
:100970009105E3EAC5FE17F5FF1F1305257197F5ED
:10098000FF1F9385E57C6377B500232005001105E3
:10099000E36DB5FEFD42739002BC894273904280C4
:1009A000B72200009382028073A0023097F2FFFF0B
:1009B0009382C26893E2320073905230EF00A00934
:1009C000970200009382422173901234730020300A
:1009D000B707002023A8A70A828093F5F51F2312EA
:1009E000B5008280035505006D8D3335A0008280EF
:1009F000EFF25FB1B7440140AE893289014493847C
:100A00000480634424014A8505BE930500042685BD
:100A1000D13F65DDB38789008385070026850504FE
:100A2000C205C1815D3FF1BF3707002013070707EB
:100A30001C43B70600209386C6143E95636BD50011
:100A4000B75600209386068063E5A60008C33E855E
:100A50008280FD57EDBFB71702409843B706FFF8F5
:100A600041111367170098C3D84337060200758FEA
:100A7000D8C39843B706F7FEFD16758F98C3984301
:100A8000B706FCFFFD16758F98C3D843B70681FFE4
:100A9000FD16758FD8C337079F0098C702C402C6DA
:100AA0009843C166558F98C3B716024005679C42AC
:100AB000F18F3EC6A24785073EC4B24781E7A247F1
:100AC000E397E7FEB71702409C431397E70063578D
:100AD000070685473EC632478547631FF704B717A9
:100AE0000240D843B706C1FFFD16D8C3D843D8C3C8
:100AF000D84313670740D8C3D843758FD8C3D843AA
:100B0000B7063D00558FD8C39843B7060001558FEF
:100B100098C3984393166700E3DD06FED843B716E3
:100B20000240719BD8C3D84313672700D8C321471D
:100B3000DC42B18BE39EE7FE4101828002C661BFC9
:100B4000B7160240DC421146B18B138741806385A2
:100B5000C70021466389C702B7177A009387072029
:100B60001CC3B7170240DC43918393F6F700B70725
:100B7000002093870700B69783C607001C43B3D7AE
:100B8000D7001CC38280DC42D4424166C983BD8B3E
:100B9000F18E890745466393C700C94781EEB74682
:100BA000024083A60680C18A89CEB7167A00938652
:100BB000062021A8B7160240D4421396E600E35659
:100BC00006FEB7163D0093860690B387D70249BF4D
:100BD00001A001A0EFF2BF94BD3D9D370945CD3B7B
:100BE000014585B239713EDA2ED232D436D63AD8A2
:100BF00042DC46DE9387818022CC804326CA06CE23
:100C0000AA8409C41C4C99E32285F9200C44541091
:100C10002686228536C6BD2EF2406244D24421612A
:100C20008280411122C406C62A842316B5002317E8
:100C3000C5002320050023220500232405002322CC
:100C4000050623280500232A0500232C050021463C
:100C500081451305C505E538971700009387079C64
:100C60005CD0971700009387679E1CD497170000ED
:100C70009387A7A25CD497170000938767A500D03D
:100C80001CD8B24022444101828097150000938510
:100C9000A5DBA1A2411126C2130680069384F5FFAD
:100CA000B384C4024AC02E8922C406C69385440771
:100CB000592A2A8419C92320050023222501310538
:100CC00008C413868406814559302285B2402244E7
:100CD00092440249410182801C4DADE3411106C698
:100CE00022C497070000938787FA1CD59387018158
:100CF0009C432324050423260504232805046314A8
:100D0000F50085471CCD2A841D2848C0228505286A
:100D100008C422852D2048C448400146914511371A
:100D200008440546A545F53D48440946C945D53D15
:100D300085471CCCB240224441018280828041110F
:100D40009387018126C284434AC006C69C4C22C4B4
:100D50002A8999E326854937938484048044DC40BA
:100D6000FD1763D607009C40B9CF8440C5BF031769
:100D7000C40039E7C1778507232204062320040035
:100D800023220400232404005CC423280400232A13
:100D90000400232C0400214681451305C405EFF00F
:100DA0000FFB232A0402232C0402232404042326F9
:100DB00004042285B24022449244024941018280C7
:100DC0001304840671BF91454A85E93588C051FDF9
:100DD000B1472320F9000144E9BF797122D44AD0F8
:100DE00052CC56CA5AC85EC606D626D24ECE2A8ADB
:100DF000AE8A130485040149054BFD5B09ECB25032
:100E000022544A8592540259F249624AD24A424BCC
:100E1000B24B45618280044483294400FD1963D4A8
:100E200009000040E1BF83D7C400637BFB008397C8
:100E3000E40063877701A6855285829A3369A90009
:100E400093848406E1BF011126CA93843500F1988A
:100E500006CE22CC4AC84EC6A104B14763F9F404B9
:100E6000B14463E8B4042A89EF00705897F7FF1F74
:100E70009387872498433A8439E497F7FF1F938731
:100E8000E7239C4381EB81454A85B12F97F7FF1FEC
:100E900023A6A722A6854A85B927FD59631B3507D6
:100EA000B1472320F9004A85EF00905429A0E3DAE6
:100EB00004FAB1471CC10145F2406244D2444249A0
:100EC000B249056182801C40858F63C10704AD462D
:100ED00063F6F6001CC03E9404C001A85C40631594
:100EE000870217F7FF1F2329F71C4A85EF00505090
:100EF0001305B4009307440061993307F5404DDFB3
:100F00003A94898F1CC04DBF5CC3C5B7228740404F
:100F1000A5B7130435007198E30085FCB305A44020
:100F20004A85D125E31A35FBA5BF1C46FD171CC613
:100F300063D90700184E63C5E700A9476393F5001E
:100F400049AF1C422E851387170018C22380B700B3
:100F50008280011122CC26CA4AC84EC652C406CE8F
:100F60002A89AE893284B304D6007D5A6314940072
:100F7000014509A8834504004E864A857D3705044E
:100F8000E31645FFF2406244D2444249B249224A44
:100F900005618280357122CD26CB4AC94EC706CF66
:100FA00052C556C35AC1DEDEE2DCE6DAAA89AE8457
:100FB0003289368401C51C4D91E3393B97170000F7
:100FC000938707E3639CF40C83A4490083D7C40090
:100FD000A18BFDC79C48EDC793070002A304F10253
:100FE0009307000302D22305F10222C6930B50029D
:100FF000971A0000938ACAE3054C294B4A84834719
:10100000040099C36390770FB30C2441638D0C00E7
:10101000E6864A86A6854E852D3FFD576308F51E58
:101020009256E69636D2834704006381071EFD5729
:101030001309140002C802CE3ECA02CCA30901045F
:1010400082D48345090015465685EF00B038130455
:101050001900C24751E913F7070109C71307000236
:10106000A309E10413F7870009C71307B002A30916
:10107000E104834609001307A002638FE606F247E6
:101080004A8481462546034704009305140013074C
:1010900007FD6378E60AADCA3ECEBDA097170000F3
:1010A000938707D76395F40083A4890005B7971742
:1010B00000009387E7D1E39BF4F083A4C90039B71C
:1010C000A6854E85192709D97D55FA406A44DA4428
:1010D0004A49BA492A4A9A4A0A4BF65B665CD65C88
:1010E0000D618280050421BF330555413315AC00E5
:1010F000C98F3EC82289B1B73247930647001843CB
:1011000036C6634907023ACE034704009307E0025C
:10111000631FF704034714009307A002631BF70241
:10112000B2470904138747009C433AC663C10702CC
:101130003ECA35A83307E04093E727003ACE3EC8C1
:10114000E1B7B387670385462E84BA972DBFFD5755
:10115000C5B7050402CA81468147254603470400F6
:1011600093051400130707FD6378E606F1F2834543
:1011700004000D4617150000130505CCEF0090255F
:1011800011CD97170000938727CB1D8D930700047F
:10119000B397A700424505045D8D2AC88345040026
:1011A000194617150000130565C913091400230417
:1011B000B102EF0030223DC197F7FFFF938787E42C
:1011C00095E74247B2471377071009CF91073EC60C
:1011D0009257D2973ED21DB5B387670385462E84BA
:1011E000BA97ADBF9D07E19BA107D5B778009706D9
:1011F0000000938646D626860C084E859700000090
:10120000E7000000FD572A8AE314F5FC83D7C400E9
:1012100093F70704E39A07EA125545BD780097064D
:101220000000938646D326860C084E85012AD9BF36
:10123000797156CA9C49BA8A984522D426D24ECE94
:1012400052CC06D64AD05AC85EC6AA892E84B28429
:10125000368A63D3E700BA879CC00347340419C3B6
:1012600085079CC01C4093F7070281C79C408907F3
:101270009CC00329040013796900631A0900130B49
:101280009401FD5B5C449840998F634CF9041C40C9
:101290008346340493F70702B336D000A5EB130658
:1012A0003404D2854E85829AFD576303F5041C40B1
:1012B00011469840998B544481446397C700B38486
:1012C000E64063D3040081441C4418486354F7008B
:1012D000998FBE94014969047D5B6398240501459B
:1012E00009A885465A86D2854E85829A631E750165
:1012F0007D55B250225492540259F249624AD24A60
:10130000424BB24B456182800509ADBF3307D40023
:1013100013060003A301C704034754049387160070
:10132000A2978906A381E7049DBF85462286D285C0
:101330004E85829AE30E65FB050945B7797122D483
:1013400026D24AD04ECE06D652CC56CA5AC8B689F4
:1013500083C68501930790063289AA842E8413865A
:101360003504638DF60263E2D70693078005638830
:10137000F61863EDD7006381062293073004638F6C
:10138000F60A930A24042301D404D1A0930730065B
:101390006386F60A93074006E395F6FE1C40084371
:1013A00093F6070893054500CDC61C410CC363D8CE
:1013B00007001307D002B307F040A301E404971617
:1013C0000000938626A8294775A893070007638421
:1013D000F61663E5D7029307E006638BF6189307CA
:1013E000F006E390F6FA0C401C4313F80508138549
:1013F00047006308080608C39C4395A89307500755
:10140000E383F6FE93078007638BF612930730079A
:10141000E399F6F61C43D04181459386470014C3F7
:1014200083AA07005685EF00E07A01C533055541D0
:1014300048C05C401CC8A301040471A81C43930A63
:101440002404938647009C4314C32301F404854776
:10145000D5B793F607041C410CC3B1DAC207C187A4
:10146000B9B793F5050408C3C1D983D7070013079B
:10147000F0066387E60E971600009386A69C294720
:10148000A30104044C400CC463C5050008406D99D9
:1014900008C099E3B28A91CDB28AB3F5E702FD1A8A
:1014A000B69583C505002380BA00B3D5E70263FF74
:1014B000E70AA147631EF7001C40858B91CB58407B
:1014C0001C4863C7E70093070003A38FFAFEFD1AC9
:1014D0003306564110C84E87CA867000A2852685FD
:1014E000813B7D5A631E450B7D55B2502254925468
:1014F0000259F249624AD24A424B45618280A38234
:10150000D504971600009386E6930C40084313F821
:1015100005081C411105630D080208C313F71500E7
:1015200001C793E505020CC04147B9FB0C4093F598
:10153000F5FD0CC0B1B79C4193E707029CC193072E
:101540008007A302F404971600009386E69075BF07
:1015500013F8050408C3E30308FCC207C1837DBF79
:10156000971600009386068E214719BFAE8735B7C0
:1015700094411C43CC4913F80608138547006306C1
:10158000080008C39C438CC301A808C393F6060453
:101590009C43F5DA2390B70023280400B28A25BFC4
:1015A00014485686CA8526858299E30F45F31C4068
:1015B000898B8DE7B2474844E359F5F23E8535B74C
:1015C00085465686CA8526858299E30F65F1050A08
:1015D0005C443247998FE345FAFEE9BF014A930A1A
:1015E00094017D5BF5B7411122C42A842E8597F7BB
:1015F000FF1F23AD07B406C6EFF00FC3FD576319F5
:10160000F50097F7FF1F938767B49C4391C31CC0F5
:10161000B240224441018280411122C42E8483952C
:10162000E50006C6AD2D634905007C48AA977CC835
:10163000B2402244410182808357C4007D777D17E8
:10164000F98F2316F400EDB783D7C500011122CC22
:1016500026CA4AC84EC606CE93F70710AA842E841F
:101660003289B68991C78395E500894601463529B7
:101670008357C4007D777D17F98F2316F4008315F7
:10168000E4006244F240CE864A86B2494249268549
:10169000D244056101A2411122C42E848395E50044
:1016A00006C62121FD570357C400631BF500FD77D3
:1016B000FD17F98F2316F400B240224441018280C5
:1016C0008567D98F2316F40068C8FDB78395E500B8
:1016D00021A4011122CC26CA4AC806CE4EC6AA842D
:1016E0002E89328409C51C4D99E3EFF0EFDE970790
:1016F00000009387E76F6319F406C0401C4C1CC4BC
:101700008357C400A18BC9C31C48BDCF1C480840E7
:101710009379F90F1379F90F1D8D5C486346F50035
:10172000A285268505262DE51C440505FD171CC44C
:101730001C401387170018C0238037015C48638959
:10174000A7008357C400858B81CBA9476316F90096
:10175000A2852685C52C0DEDF24062444A85D2440F
:101760004249B24905618280970700009387476A22
:101770006314F400804459B79707000093874765C6
:10178000E31EF4F6C0449DBFA28526853D283DDDBD
:101790007D59D9B7411122C42A842E85B285368657
:1017A00097F7FF1F23A4079A06C6EFF06FA4FD5713
:1017B0006319F50097F7FF1F938747999C4391C3DF
:1017C0001CC0B24022444101828041119387818034
:1017D00026C2844322C44AC006C62A892E8491C4E4
:1017E0009C4C81E72685EFF02FCF97070000938769
:1017F0002760631CF402C0400317C400931707015D
:10180000C18393F68700B5EE93F607019DEEA547D9
:101810002320F900136707042316E4007D55B24026
:101820002244924402494101828097070000938735
:10183000275E6314F4008044C1B7970700009387C4
:101840002759E31BF4FAC04445BF918B8DC74C5810
:1018500089C9930744046384F5004A85592E232AD5
:1018600004028357C4002322040093F7B7FD231614
:10187000F4001C481CC08357C40093E7870023165C
:10188000F4001C4881EF8357C4001307002093F72E
:1018900007286385E700A2854A85712C8357C40019
:1018A00013F7170005C75C4823240400B307F04072
:1018B0001CCC1C480145A5F78317C40013F7070883
:1018C00039DF93E707042316F40089BF898B0147AA
:1018D00091E3584818C4F1BF411122C42A842E85CF
:1018E00097F7FF1F23A4078606C6A921FD57631992
:1018F000F50097F7FF1F938767859C4391C31CC032
:10190000B24022444101828083D7C500011122CC1C
:1019100026CA06CE4AC84EC613F78700AA842E846C
:1019200071EFD841634DE000B841634AE0000145E2
:10193000F2406244D2444249B2490561828058541F
:101940007DD703A904009396370123A0040063DD2B
:10195000060670488357C400918B99C75C401D8E62
:101960005C5899C33C401D8E5C540C5081462685C2
:101970008297FD570357C400631DF5009440F54757
:1019800063E8D706B70740208507B3D7D700858B14
:10199000A5C31C48232204001CC09317370163D839
:1019A0000700FD576314F5009C4091E368C84C584C
:1019B00023A02401ADDD930744046384F50026854C
:1019C0000D2C232A0402A5B70C5001468546268516
:1019D0000297FD572A86E31FF5F69C40A5DF754761
:1019E0006385E70059476394E70423A0240181B786
:1019F000136707042316E4007D551DBF83A9050165
:101A0000E38709F203A905008D8B23A03501330973
:101A10003941014791E3D84918C4E35A20F11C54D5
:101A20000C50CA864E86268582976349A00083574C
:101A3000C40093E707042316F4007DBFAA99330975
:101A4000A940E1BF9C49A5C3011122CC06CE2A843E
:101A500019C51C4D89E72EC6EFF00FA8B2459707B0
:101A600000009387E738639BF5004C408397C500DF
:101A700095C722856244F240056179B59707000059
:101A8000938707396394F5000C44CDB7970700009E
:101A900093870734E39CF5FC4C44C9BFF240624491
:101AA00001450561828001458280411122C42A845A
:101AB0002E85B285368697E7FF1F23A9076806C6DD
:101AC0005524FD576319F50097E7FF1F93870768B3
:101AD0009C4391C31CC0B2402244410182801971D1
:101AE000A6DAAE848395E500A2DC86DE328463DC70
:101AF000050083D7C40023A0060093F707089DE3E1
:101B00009307004015A0300836C6E122B246E342F2
:101B100005FE7247BD67F98F7977BA9793B71700BB
:101B20009CC2F9BF930700041CC0F6506654D654FB
:101B300001450961828083D7C500011122CC06CE00
:101B400026CA4AC8898B2E8489CF930774041CC087
:101B50001CC885475CC8F2406244D24442490561D2
:101B6000828074003000AA849D3FA2452A89268580
:101B7000EFF06FAD01ED8317C40013F7072061FF8D
:101B8000F19B93E727002316F400C1B797F7FFFFF7
:101B90009387E70F9CD48357C40008C008C893E715
:101BA00007082316F400A2475CC8B24789CF831503
:101BB000E4002685812A01C98357C400F19B93E77D
:101BC00017002316F4008357C4003369F900231665
:101BD000240151B793F5F50F2A966314C50001450A
:101BE000828083470500E38DB7FE0505FDB782803F
:101BF0008280CDC583A7C5FF411122C406C626C277
:101C00001384C5FF63D307003E94AA84CD3797E7BA
:101C1000FF1F9387674A9C4389EF2322040097E7BD
:101C2000FF1F23AB87482244B240268592444101DE
:101C3000C1B7637EF40014403307D4006396E70015
:101C40009843DC43369718C05CC0D1BFBA87D843ED
:101C500019C3E37DE4FE94433386D700631F8600F7
:101C60001040B29694C33386D700E31EC7FA1043E0
:101C70005843B29694C3D8C37DB76375C400B147C7
:101C80009CC055B71040B306C4006316D700144378
:101C90005843B29614C058C0C0C371B78280411176
:101CA00022C42A842E85B285368697E7FF1F23AF8C
:101CB000074806C6C120FD576319F50097E7FF1FC7
:101CC0009387C7489C4391C31CC0B2402244410142
:101CD0008280411122C42A842E85B28597E7FF1F96
:101CE00023A6074606C6B928FD576319F50097E7EE
:101CF000FF1F9387A7459C4391C31CC0B240224459
:101D000041018280411122C42A842E8597E7FF1F5A
:101D100023AE074206C63D28FD576319F50097E735
:101D2000FF1F9387A7429C4391C31CC0B24022442B
:101D3000410182809307800517E7FF1F2328F740A2
:101D40007D5582809307800517E7FF1F2320F7400A
:101D50007D5582809307800517E7FF1F2328F73EF4
:101D6000014582809307800517E7FF1F2320F73E78
:101D70007D5582809307800517E7FF1F2328F73CD6
:101D80007D5582802E2E2F436F64652F53657276AA
:101D90006963652F4672656552544F532F746173A2
:101DA0006B732E6300000000657272206174206CFA
:101DB000696E65202564206F662066696C65202247
:101DC0002573222E200D0A200000000000000000D4
:101DD0000000000000000000000000000000000003
:101DE00000000000000000000000000000000000F3
:101DF00000000000000000000000000000000000E3
:101E000000000000000000000000000000000000D2
:101E100000000000000000000000000000000000C2
:101E2000000000000000000000000000232D302B07
:101E300020000000686C4C0065666745464700005E
:101E400030313233343536373839414243444546F0
:101E500000000000303132333435363738396162B2
:081E60006364656600000000E8
:101E68000000000000000000010203040607080942
:101E780000000000EC1D00000C1E0000CC1D00003E
:101E8800000000000000000000000000000000004A
:101E9800000000000000000000000000000000003A
:101EA800000000000000000000000000000000002A
:101EB800000000000000000000000000000000001A
:101EC800000000000000000000000000000000000A
:101ED8004C0100200044950810000020005000200C
:081EE8001000002000000000C2
:00000001FF
