:100000006F20D02713000000130000001300000031
:100010001300000013000000130000001300000094
:100020001300000013000000130000001300000084
:08003000130000007300100032
:1000380000000000000000003447000036470000C0
:1000480000000000142A000000000000000000006A
:10005800162A0000182A0000000000000000000016
:100068005A0A000000000000000200000000000022
:100078001E2A0000202A0000222A0000242A00004C
:10008800262A0000282A00002A2A00002C2A00001C
:100098002E2A0000302A0000322A0000342A0000EC
:1000A800362A0000382A00003A2A00003C2A0000BC
:1000B8003E2A0000402A0000422A0000442A00008C
:1000C800462A0000482A00004A2A00004C2A00005C
:1000D8004E2A0000502A0000522A0000542A00002C
:1000E800562A0000582A00005A2A00005C2A0000FC
:1000F8005E2A0000602A0000622A0000642A0000CC
:10010800662A0000682A00006A2A00006C2A00009B
:100118006E2A0000702A0000722A0000742A00006B
:10012800762A0000E02800007A2A0000000000007B
:080138000000000000000000BF
:10020000130181F806C216C41AC61EC822CA26CC1B
:100210002ACE2ED032D236D43AD63ED842DA46DC76
:100220004ADECEC0D2C2D6C4DAC6DEC8E2CAE6CC46
:10023000EACEEED0F2D2F6D4FAD6FED8F3220030CF
:1002400096DA9702002083A262E823A02200F32519
:1002500010342EC003A1C181EF10C06E170300201F
:100260000323C3E603210300824273901234D65263
:10027000739002309240A2423243C2435244E2445D
:10028000724582551256A2563257C2575258E258FA
:1002900072598649164AA64A364BC64B564CE64C0E
:1002A000764D865D165EA65E365FC65F13018107DA
:1002B0007300203013000000130000001300000042
:1002C00013000000130000001300000013000000E2
:1002D00013000000130000001300000013000000D2
:1002E00013000000130000001300000013000000C2
:1002F00013000000130000001300000013000000B2
:1003000083A2C181938202E073900234170100201E
:100310000321C1DB024182403243C2435244E244E2
:10032000724582551256A2563257C2575258E25859
:1003300072598649164AA64A364BC64B564CE64C6D
:10034000764D865D165EA65E365FC65FD652A1020A
:1003500073900230A24213018107828013000000D3
:100360001300000013000000130000001300000041
:100370001300000013000000130000001300000031
:100380001300000013000000130000001300000021
:100390001300000013000000130000001300000011
:1003A0001300000013000000130000001300000001
:1003B00013000000130000001300000013000000F1
:1003C00013000000130000001300000013000000E1
:1003D00013000000130000001300000013000000D1
:1003E00013000000130000001300000013000000C1
:1003F00013000000130000001300000013000000B1
:10040000F322003093F272FF130380181203B3E259
:100410006200711523205500130585FA10C12115BE
:10042000232005009302000063870200711523203A
:100430000500FD12D5BF71150CC1828000000000BF
:1004400000000000000000000000000000000000AC
:10045000000000000000000000000000000000009C
:10046000000000000000000000000000000000008C
:10047000000000000000000000000000000000007C
:10048000000000000000000000000000000000006C
:10049000000000000000000000000000000000005C
:1004A000000000000000000000000000000000004C
:1004B000000000000000000000000000000000003C
:1004C000000000000000000000000000000000002C
:1004D000000000000000000000000000000000001C
:1004E0000000000000000000000000000000397162
:1004F00001436EC619A0397141536AC866CA62CCFD
:100500005ECE19A0397101535AD056D252D44ED66C
:100510004AD826DA22DC06DE3301614082824111AC
:100520004AC026C222C406C68282B24D4101024D93
:10053000924C224CB24B4101024B924A224AB249A0
:100540004101024992442244B240410182803D432C
:100550002A876373C3029377F700BDEFADE5937607
:1005600006FF3D8ABA960CC34CC30CC74CC7410763
:10057000E36BD7FE11E28280B306C3408A0697027E
:10058000000096966780A6002307B700A306B70071
:100590002306B700A305B7002305B700A304B700DF
:1005A0002304B700A303B7002303B700A302B700D7
:1005B0002302B700A301B7002301B700A300B700CF
:1005C0002300B700828093F5F50F93968500D58DB3
:1005D00093960501D58D61B7939627009702000089
:1005E00096968682E78086FA9680C1171D8F3E9682
:1005F000E374C3F8A5B711CD054889CD01CEEFF25C
:100600001FF2BA8736878146EF00F04E01484285D7
:100610000DBF054842858280EFF27FF0EF00D07079
:10062000014505B711CD854789CD01CEEFF23FEFEA
:1006300032840146EF006075814708C03E8511B7DE
:1006400085473E858280854795C10DC2EFF23FED1B
:10065000B2878146135615003E85EF00A079054705
:1006600081476303E50089473E85E1BD3E85828081
:10067000854785C91DC6EFF29FEA328413561500DF
:100680002285B684EF00F00F05478D476319E5001A
:100690002285EF00D02305052380A40081473E85F5
:1006A0004DB53E858280EFF29FE70581EF10602314
:1006B000014541BDEFF2BFE61306401F3306C502F8
:1006C0009307803E814501453356F602EF10C0681E
:1006D000014585BDEFF2BFE4054401C989E9014741
:1006E00089460146EF10C0700144228599BD054737
:1006F0000144E39CE5FE01468145EF105008F5B743
:1007000011C9EFF2DFE12A84EF00106C060508C082
:10071000014505BD05458280B70700209387070C7A
:100720009843636FA702D043B386C7006316D50012
:1007300054413E85B296D4C35041B306C500631CF4
:10074000D700B706002083A6860A6306D700544365
:100750001843B29654C118C16303F50088C3828060
:10076000BA877DBFEFF21FDA41112AC6EF00D064CD
:10077000B706002083A7860A370600209386860ADC
:100780001306C60A3245A1EF370700209307071763
:1007900093F5F7001307071781C51387F700419BEF
:1007A000B70500209385050C23A2050098C18D652F
:1007B000C115AE97C19B23A2070023A00700B385F4
:1007C000E7409CC21CC3B707002023AAB70AB7079B
:1007D000002023A8B70AB70700804CC31CC2032A15
:1007E0000600B377AA0085E39307F5FF3957636CDA
:1007F000F7009307050113F7F70041C313F707FF4D
:10080000410763EBE706814489A022872E8461A01B
:1008100058C15CC011375840B70600209386460B7C
:100820009042B307E94023A0F90063F3C7009CC2DC
:10083000B70700203367EA009387870B58C09843B7
:10084000C10423200400050798C3EF00307393F719
:10085000F400D1CB8967938707807390073037B650
:10086000000037B50000130646D0930500111305AC
:1008700085D3EF90601E01A0BA87370700200329B7
:10088000070B9309070BE360F9F8370700200324EF
:10089000070C1307070C50406374F6000C40B5F5C5
:1008A0009442E38286F61440044314C33307F640AF
:1008B00093060002E3F1E6F63305F4009376F500C3
:1008C000A1DA8967938707807390073037B60000F5
:1008D00037B50000130646D09305F00C130585D3F9
:1008E000EF90801701A026854101B9B14DC1EFF20B
:1008F0001FC3B7070020032745FF83A7C70A2A8421
:10090000B376F7009DE2896793870780739007307D
:1009100037B6000037B50000130646D093054012E5
:10092000130585D3EF90401301A0832605FF9DC2D8
:100930008967938707807390073037B6000037B513
:100940000000130646D093055012130585D3EF908F
:10095000A01001A093C7F7FFF98F232AF5FEEF003F
:10096000B045B70700209387070B9443032744FF44
:10097000130504FF369798C34533B70700209387C4
:10098000C70B9843050798C3EF00505F5DBE828098
:10099000B7E700E041572387E7402386E740B7F7F2
:1009A00000E023A0070023A20700814694C7014767
:1009B000D8C783A501811307401F814633D6E502BE
:1009C0003D4790CBD4CB98C38280EFF25FB5411105
:1009D00002C6F32750303EC6B2470D478D8B638465
:1009E000E7028967938707807390073037B6000066
:1009F00037B500001306C6D59305600B130585D3E4
:100A0000EF90800501A0B757002093870700BD8BAA
:100A10009DC38967938707807390073037B60000BE
:100A200037B500001306C6D59305B00B130585D363
:100A3000EF90800201A0A93FB7E700E0116723A073
:100A4000E710056723A0E710B707002023A00708D9
:100A5000EFF01F8B01454101EDB4397106DE16DC64
:100A60001ADA1ED82AD62ED432D236D03ACE3ECC7E
:100A700042CA46C872C676C47AC27EC073110134B7
:100A800089679387078073900730B7F700E023A248
:100A90000700EF00103411C5B7E700E0116723A08D
:100AA000E720896793878788739007307311013433
:100AB000F250E2525253C2533255A2551256825648
:100AC0007247E2475248C248324EA24E124F824FFE
:100AD0002161730020308967938707807390073006
:100AE000B7070020938707089843050798C38280BB
:100AF00037070020130707081C438DE7EFF23FA2DA
:100B00008967938707807390073037B6000037B541
:100B100000001306C6D593053010130585D3EF806A
:100B2000B07301A0FD171CC391E78967938787887D
:100B300073900730828009651305058073150530B1
:100B40008280731005308280930785007D575CC1D9
:100B500018C55CC51CC92320050082802328050018
:100B600082809841FD5693078500631ED7001C497B
:100B7000D843D8C10CC79CC5CCC31C4188C98507C4
:100B80001CC18280B687D4439042E37DC7FECDB7B7
:100B9000544118451C4998C654C3D4436393A600D6
:100BA000D8C39843232805007D1798C388438280C3
:100BB000EFF2FF9641112AC6393F3245005D0D3FE5
:100BC000133514004101B5BAEFF27F9532893041F7
:100BD000045D2A8401EE1C41014591E70844EF10B1
:100BE000000B23240400850404DCA1BA631009026D
:100BF0004841EF80105B5C4038400145BA9718448B
:100C00005CC0E3E2E7FE1C405CC0F1BF4845EF80FA
:100C100050593C4058441440B307F0403E9758C4E4
:100C20006375D7001844BA975CC489470145E31C33
:100C3000F9FAD5D8FD1445BF304115C2EFF23F8E09
:100C400058451445AA87329758C56364D7001841A0
:100C500058C52E85CC47EF80D0546FF09F8E828090
:100C6000EFF2FF8B2A84853D834454041309440228
:100C7000E204E18463459002FD57A302F4048D3D34
:100C8000993D8344440413090401E204E18463446C
:100C90009002FD572302F404A13D6FF09F8A5C503F
:100CA000E1DF4A85EF00905F19C1EF00D07BFD14B2
:100CB000E204E184C1B71C48E9DF4A85EF00105E19
:100CC00019C1EF00507AFD14E204E184C9B7EFF2D4
:100CD0001F8541111DE18967938707807390073055
:100CE00037B6000037B50000130606D9930500118A
:100CF000130585D3EF80505601A05C5D2EC62A8473
:100D0000BDC33841B3B7E702B9EFF1333040585CA7
:100D10001440232C0402B307E602B24554C03387C3
:100D2000F600918FB6975CC4FD572302F40418C4F3
:100D3000A302F40495E11C4899CB13050401EF00CC
:100D4000F05511C5B7E700E0116723A0E7204D3348
:100D5000054541016FF0EFFE13050401F53313055E
:100D60004402DD33EDB789679387078073900730BE
:100D700037B6000037B50000130606D993055014A6
:100D8000130585D3EF80504D01A0EFF24FF94111CB
:100D900021C1B3B7A502AA8485EF3305B502930735
:100DA00070FB63E7A702130585042EC6653A2A8403
:100DB00001CDB245AA8799C1930785042CC01CC0F8
:100DC00044DC854522852137228541016FF06FF78C
:100DD0008967938707807390073037B6000037B56F
:100DE0000000130606D99305601C130585D3EF8018
:100DF000B04601A0EFF22FF0011132C61DE1896764
:100E0000938707807390073037B6000037B500002E
:100E1000130606D99305E032130585D3EF80D0433E
:100E200001A02A842E89B6848DE53C419DC3896743
:100E3000938707807390073037B6000037B50000FE
:100E4000130606D99305F032130585D3EF80D04001
:100E500001A089476398F402585C85476304F70250
:100E60008967938707807390073037B6000037B5DE
:100E70000000130606D993050033130585D3EF80D0
:100E8000B03D01A0EF00F05E15E5B247014C85C70B
:100E90008967938707807390073037B6000037B5AE
:100EA0000000130606D993053033130585D3EF8070
:100EB000B03A01A0014C094BFD59930B040137EAEC
:100EC00000E0916AADA0B24781E71D31014549A814
:100ED00063150C002808EF00304B1939EF00C06D86
:100EE000DD3E83474404E207E18763943701230230
:100EF000040483475404E207E18763943701A302A3
:100F00000404FD366C002808EF00704935E5E13631
:100F1000185C5C5C6319F704E13EB2455E85EF0046
:100F2000102C2285353BEF00700521C5054C653638
:100F3000185C5C5C6364F700E39764F92686CA85F5
:100F4000228559315C5089C713054402EF001035E2
:100F500011C5B7E700E0116723A0E720513E054522
:100F600005616FF0CFDC69362285DD39EF001001B5
:100F700075BF23205A215DBF2285DD31EF001000AF
:100F8000B1B7EFF24FD7011132C61DE189679387E0
:100F900007807390073037B6000037B5000013069E
:100FA00006D993051055130585D3EF80F02A01A0CB
:100FB0002A84AE898DE53C419DC38967938707806C
:100FC0007390073037B6000037B50000130606D916
:100FD00093055055130585D3EF80102801A0EF002D
:100FE000504915E5B247014985C78967938707804E
:100FF0007390073037B6000037B50000130606D9E6
:101000009305A055130585D3EF80102501A0014954
:101010007D5A930A440237EB00E0916B9DA0B247E2
:1010200081E7F934014561A0631509002808EF0044
:10103000B0357D3C5123453483474404E207E187C2
:10104000639447012302040483475404E207E187C1
:1010500063944701A3020404613C6C002808EF007C
:10106000103431ED2285A93631C5B2455685EF00E1
:1010700010172285F536EF00607019E123207B21DF
:101080000549913C045CC1DCCE852285FD146D369A
:1010900004DC1C4899CB13050401EF00302011C576
:1010A000B7E700E0116723A0E72099340545056103
:1010B0006FF0EFC722856D36EF00406CD1B7228507
:1010C0004536EF00A06B2285E5345DD9A1BFEFF274
:1010D0000FC541111DE18967938707807390073021
:1010E00037B6000037B50000130606D99305307EE9
:1010F000130585D3EF80501601A02AC6EFF0BF9DDF
:101100003245085D2AC6EFF0BF9E324541016FF0BF
:101110004FC315E5EFF2AFC08967938707807390DF
:10112000073037B60000856537B50000130606D9CD
:10113000938585AC130585D3EF80101201A09DCD5A
:101140003736002093060617814701471306061716
:10115000214883A846006398A80093173700B297E8
:101160008CC3C8C321A891E783A806006393080035
:10117000B6870507A106E31E07FDFDF38280EFF2A7
:101180000FBA41112A842EC632C4EFF0DF94834790
:1011900044047D572246E207E187B2456394E700A5
:1011A00023020404834754047D57E207E1876394D4
:1011B000E700A302040432C62EC4EFF07F931C5C48
:1011C000A245324689E713054402EF00D005228587
:1011D000EFF01FA941016FF0CFB6370700201307CA
:1011E000C70C1C439443B70700209387C70E81E6C2
:1011F0007D5798C38280184358471843DDBFEFF2EC
:101200006FB037090020B70700209304890C83A929
:10121000C70F2A849C4088404111A380070611050E
:101220002EC6EFF0FF967D579307890CB245631CDD
:10123000E40295C9B7370020938787279440D843A5
:1012400098C610479440D0C694401047910654C2A7
:101250009440910614C798405CCB9843050798C307
:1012600041016FF06FAD98434E9440C3637B3401EE
:10127000370700200325070D8C439105EFF07F8E83
:10128000C5B7370700200325C70C8C439105EFF045
:101290005F8DB70700209387C70E9843E372E4FC85
:1012A00080C37DBFEFF20FA637340020B7090020BE
:1012B0001304C428370A00209384890D9C40EDDF75
:1012C000EFF07F815C4403A9C70013054900EFF0EC
:1012D0003F8C13074A0D1C43FD171CC39C40FD1790
:1012E0009CC0EFF0FF8003250903EFF02FE04A8553
:1012F000EFF0CFDFD1B7EFF20FA013192600AA8AC3
:101300004A85AE89368BBA8B3E8AEFF0AFC505C5EC
:10131000AA8413054006EFF0EFC42A8411C904D94A
:10132000814793060002639A0900230A050225A05B
:101330002685EFF0AFDB7D55D1AA3387F90003078F
:1013400007003306F400230AE60201C78507E39687
:10135000D7FEA3090404994763F477038967938749
:1013600007807390073037B6000037B500001306CA
:1013700086DC93057039130585D3EF80E06D01A0FD
:10138000930944004E8523267403232A7405232CD5
:101390000404EFF0AFFC13058401EFF02FFC1D47B0
:1013A0001305C9FF33077741269500C818CC40D0F4
:1013B000230E0404A30E0404230F0404A30F040447
:1013C00023000406A30004065A86D6854199EFF04F
:1013D0002F8308C063040A0023208A00EFF0AFEFD8
:1013E000B70700209387470D98433709002037350A
:1013F0000020050798C31307890C1843370A0020FB
:101400001309890C9304051B130A8A0F6312071032
:1014100023208900984385476318F7081305051BA7
:10142000EFF08FF213854401EFF00FF21385840281
:10143000EFF08FF11385C403EFF00FF1138504056E
:10144000EFF08FF013854406EFF00FF0138584075B
:10145000EFF08FEF37350020130BC5231305C5239D
:10146000EFF08FEE37350020930A0525130505258B
:10147000EFF08FED3735002013054526EFF0CFEC68
:10148000373500201305C528EFF00FEC3735002065
:1014900013058527EFF04FEBB707002023A6670D54
:1014A000B707002023A8570DB70700209387070E22
:1014B0009843050798C3370700201307470E5C546D
:1014C000144363F3F6001CC35147B387E702BE948D
:1014D000DC4098471CC458C498472322370123A4F2
:1014E00037019C4044C885079CC0EFF06FE083271C
:1014F0000A00054581CF83270900D8575C546377DC
:10150000F700B7E700E0116723A0E7206FF02F8214
:1015100083270A00D1FB83270900D8575C54E3E5F1
:10152000E7F82320890049B7EFE27FFFB7070020E3
:10153000B7B50000371500009387870E0147814635
:10154000130600109385C5DE1305452A6D33054447
:10155000631E8502EF005065631A850289679387D1
:10156000078073900730B70700207D5723A6E70E4A
:10157000B707002023ACA70EB707002023AE070E45
:10158000EFF0AFC483A741806FE0BFFBFD57E31BC3
:10159000F5FE8967938707807390073037B60000A0
:1015A000856537B50000130686DC93850584130531
:1015B00085D3EF80604A01A0B70700209387C70D4D
:1015C0009843050798C38280B707002003A5C70F7B
:1015D0008280B707002083A7C70D63980718EFE242
:1015E0001FF4B70700209387C70F8043050480C30B
:1015F00039E8B70700209387C70C9843184305C7FD
:101600008967938707807390073037B60000856538
:1016100037B50000130686DC938575AC130585D3BA
:10162000EF80804301A0370700201307070D944384
:10163000104390C3B707002014C39387070F984344
:10164000050798C3593E370600209307C60E9C43F2
:1016500037370020B70500201306C60E1307071BF7
:101660009385850C01456375F4029C41D146DC5796
:10167000B387D7023E971843854763F3E7000545D4
:10168000B707002083A7071091C305456FE07FEBE4
:10169000370E0020B70E0020514F9307CE0C944315
:1016A000944281E6FD571CC2C9B79C43DC47DC4726
:1016B000D4436374D40014C24DBF83A8870003A829
:1016C000C700D44B1383470023A408012322180129
:1016D00083A846006394680023A2060103A80600BD
:1016E00023AA07007D1823A00601945795CA03A8D2
:1016F000C70183A8070283AF46002324180183A8EB
:10170000070223A208011388870163940F0123A213
:10171000160103A8060023A407027D1823A00601D2
:1017200093864E0E03A8C70283A8060063F408013F
:1017300023A00601B306E803BA9683A8460083AF48
:10174000880023A4170123A6F70183AF880023A2F2
:101750006F0023A46800D4CB9C4285079CC29C41A7
:10176000DC57E36CF8F205450DBFB70700209387FF
:10177000470F98430145050798C38280EFE29FD841
:10178000370400201304C40D1C40411185E789670C
:10179000938707807390073037B60000856537B5AB
:1017A0000000130686DC9385358B130585D3EF8007
:1017B000A02A01A0EFF02FB21C40FD171CC01C4056
:1017C00089CB01452AC6EFF0AFB2324541016FE047
:1017D000BFD6B707002083A7470DE5D7B73600204F
:1017E00037350020814793864626370F00201305A2
:1017F000051BD14837030020370E0020854E59A81D
:10180000DC46DC47CC4F9053985790C503A807029D
:101810002322B80003284700938587016313B8008B
:1018200050C3104323A407027D1610C38C47D04732
:10183000D84B1388470090C54CC24C4363930501B5
:1018400050C3104323AA07007D1610C313074F0E81
:10185000D0570C4363F3C50010C3330716032A9710
:101860004C4383AF85008CC723A6F70183AF850067
:1018700023A20F0123A405010C43D8CB85050CC37B
:101880001307830C184358576366E60013070E10BE
:101890002320D70198422DF799C3EFF01F94B70783
:1018A00000201387470F04431384470F91CC370957
:1018B00000208549393B09C59307091023A037014A
:1018C000FD14EDF823200400B707002083A70710BC
:1018D000E38907EEB7E700E0116723A0E72005459D
:1018E000D5B519E5B7E700E0116723A0E7208280AE
:1018F000EFE2FFC2B707002083A7C70D41119DC3C8
:101900008967938707807390073037B6000037B533
:101910000000130686DC93059054130585D3EF80F1
:10192000A01301A02AC6493932458145EFF03F8D09
:10193000B13511E5B7E700E0116723A0E7204101C9
:101940006FE03FC0B707002003A7C70DB70700200F
:101950009387071001C7054798C3828023A007001B
:10196000B70700201387470E18431386470EB73773
:1019700000209387071B5148B3060703B385D700A0
:10198000884115C5C841A106BE964841C8C1631427
:10199000D5005441D4C1D146B306D702B697DC4333
:1019A000D447B707002023A4D70C18C2828015E7BC
:1019B000EFE2FFB68967938707807390073037B6E9
:1019C0000000856537B50000130686DC938525C0C9
:1019D000130585D3EF80400801A07D1771BFEFE2AA
:1019E0001FB405E58967938707807390073037B682
:1019F0000000856537B50000130686DC9385C5C1F8
:101A0000130585D3EF80400501A0B70700202E8481
:101A100083A5870CE105EFF0CF9485452285EFF093
:101A20000FFE6FE01FB2EFE29FAF2A8705E58967DF
:101A3000938707807390073037B60000856537B508
:101A40000000130686DC938525C5130585D3EF803A
:101A5000A00001A0B70700209387870C54432E8570
:101A60008C4303A88600D4CD8C4323A0050303A890
:101A700007008C46610823A2050103A807009C43C8
:101A8000610823A4060198D71C4385071CC311C213
:101A90007D55B285EFF0AFF66FE0BFAA5C45DC473D
:101AA00095E7EFE2DFA78967938707807390073098
:101AB00037B60000856537B50000130686DC9385D0
:101AC00025C8130585D3EF70307901A0D04F94530A
:101AD00098579385870114C6D0C250436313B6004C
:101AE00054C3144323A40702FD1614C33707002070
:101AF0000327C70DD45725EF8C47D047D84B90C547
:101B0000D04748434CC2938547006313B50050C388
:101B1000104323AA07007D1610C3370700201307C0
:101B2000470E10436373D60014C351473386E60251
:101B3000373700201307071B32975043084690C7DA
:101B4000C8C708464CC10CC6D8CB1C430145850705
:101B50001CC3B707002083A7870CDC5763F8D700A6
:101B6000B7070020054723A0E710054582803737D7
:101B700000201307472650430846D0CF88D3084695
:101B80004CC10CC698D7D1B7B707002083A7070F61
:101B90001CC1B707002083A7C70F5CC18280EFE29A
:101BA0001F98411105E58967938707807390073077
:101BB00037B60000856537B50000130686DC9385CF
:101BC000D5CF130585D3EF70306901A085E589670E
:101BD000938707807390073037B60000856537B567
:101BE0000000130686DC9385E5CF130585D3EF70DF
:101BF000B06601A02EC62AC4EFE0FFED3707002033
:101C0000B70700201307870C83A6C70F1C43224584
:101C1000B24583C7170699CB1C43A380070605442A
:101C2000EFE01FED228541016FE0BF919C417D57A0
:101C30000144E387E7FE370600200326060F03284A
:101C4000050058416307C80063E5E60023A00500CE
:101C5000F9B73386E640E37BF6FE958FBA979CC1D1
:101C60002537014475BFB7070020054723A0E710BB
:101C70008280B707002083A7870F054581CBB70770
:101C8000002003A5C70D133515000605828011E558
:101C90000145828001456FE0DF8AEFE25F88B70788
:101CA000002083A7870C2A846385A702896793870E
:101CB00007807390073037B60000856537B50000A0
:101CC000130686DC9385F504130585D3EF70D05891
:101CD00001A0BC4F85E78967938707807390073021
:101CE00037B60000856537B50000130686DC93859E
:101CF0000505130585D3EF70305601A0545578497A
:101D0000FD173CCDE388E6F8D1F79304450026851E
:101D1000EFE01FE87C481D471D8F18CC37070020D7
:101D20001307470E14435CD463F3F6001CC35147FA
:101D30003387E702B73700209387071B0545BA971B
:101D4000D843144718C454C41447C4C204C79843A2
:101D50005CC8050798C381B7EFE26FFC411105C568
:101D60008967938707807390073037B600008565D1
:101D700037B50000130686DC93856526130585D3E9
:101D8000EF70904D01A037040020AE8432C6EFE022
:101D90009FD49307840C9C431304840CFC4F85E36D
:101DA0001C40324605472380E70611CA8545328527
:101DB000EFF0EFC4B7E700E0116723A0E720EFE002
:101DC0003FD3EFE05FD11C40E84F09C51C4089CCF0
:101DD00023AE07041C402AC623800706EFE05FD12C
:101DE000324541016FE0EFF51307F5FFF8CFDDB79E
:101DF000EFE2EFF2411185C5896793870780739001
:101E0000073037B60000856537B50000130686DC5D
:101E100093858530130585D3EF70104401A005E547
:101E20008967938707807390073037B60000856510
:101E300037B50000130686DC93859530130585D3EE
:101E4000EF70904101A03AC636C432C22AC0EFE01A
:101E50009FC8324702451246A24619C37C4D1CC397
:101E60008347050609472300E506114793F7F70F57
:101E70006360D7042D67130747DB8A06BA9698423A
:101E80000287784D598E70CD21A0784D050778CD09
:101E900005476387E70405452AC0EFE07FC5024593
:101EA00041016FE00FEA0947E39FE7FC0145EDB709
:101EB000370700200327C70F61DF896793870780F3
:101EC0007390073037B60000856537B500001306FC
:101ED00086DC9385E533130585D3EF70F03701A0D9
:101EE000144558455C491306450098C6584554C3E7
:101EF000D4436393C600D8C39843232A05007D17B3
:101F000098C3B70700209387470E5855944363F34F
:101F1000E60098C3D147B306F702B737002093878E
:101F2000071BB697D4438C4614C54CC58C46D0C10C
:101F300090C694435CC9850694C31C5585C78967C0
:101F4000938707807390073037B60000856537B5F3
:101F50000000130686DC9385D534130585D3EF7016
:101F6000B02F01A0B707002083A7870CDC57E3F44C
:101F7000E7F2B7E700E0116723A0E72029BFEFE20F
:101F80000FDA411105E58967938707807390073061
:101F900037B60000856537B50000130686DC9385EB
:101FA000C540130585D3EF70302B01A085C5896727
:101FB000938707807390073037B60000856537B583
:101FC0000000130686DC9385D540130585D3EF709A
:101FD000B02801A02A8432C6EFE0FFB58947034745
:101FE00004062300F4067C4C85077CCC8547639E61
:101FF000E70A1C54324685C7896793870780739028
:10200000073037B60000856537B50000130686DC5B
:1020100093853543130585D3EF70102401A0B707CE
:10202000002083A7C70D5854D1E70C4454445C48A2
:1020300094C5544403A84700CCC2930544006313DD
:10204000B800D4C39443232A0400FD1694C3B707F1
:1020500000209387470E944363F3E60098C3D1476B
:10206000B306F702B73700209387071BB697D44310
:1020700003A8860014C42326040103A88600232293
:10208000B8008CC65CC89443850694C3B70700208B
:1020900083A7870CDC5763FAE70019C285471CC287
:1020A000B7070020054723A0E710EFE09FA94101F3
:1020B0006FE02FC9B737002093874726D4438C465B
:1020C00054CC0CD003A88600930584012322B800C9
:1020D0008CC61CD44DBFEFE28FC437040020EFE064
:1020E0009F9F130404111C40B1E7373500201309EA
:1020F000052A1305052AEFE03FA537350020930494
:10210000452B1305452BEFE03FA4B707002023A282
:1021100027110146B7070020C145114523A4971098
:10212000EFE0BFC608C019C5B7B50000938585E1CB
:10213000EFE03FFEEFE0DF9B6FE0AFC0EFE22FBECE
:102140004CC108C9AA876362B602184D158E0545B1
:10215000637BE60093854700B707002003A587103F
:10216000EFE03FA001456FE0CFBD6375D6000545A8
:10217000E3FBD5FE93854700B707002003A5471072
:10218000C5B7EFE2CFB92A84AE8432890C4CA6865B
:102190004A86A69522855D3719E16FE08FBA1C4CFF
:1021A0002285BE941C508297D5B7EFE24FB7B70790
:1021B000002083A747104111AA84DC472EC6C047E0
:1021C00013054400EFE0DF9C83474402324613F7D7
:1021D000470011CBA68522856D371C50228582973A
:1021E00041016FE00FB6F99B2302F402FDB7EFE265
:1021F0000FB3370400209306441098421C4391EB20
:10220000B707002093878710904398C390C26FE070
:102210004FB35C47FD558843493FF1BFEFE2AFAD97
:102220002D694111B70A0020B7090020370B0020A3
:10223000B70B0020130949DF83A74A10984329CB25
:10224000DC47814C03AC0700EFF00FB7EFF0CFB7DE
:1022500083A7C9102A849384C910130A0B11636CD5
:10226000F50288C0638F0C0283A78B10904313364E
:10227000160003250A00B3058C40EFE05FF0EFF095
:10228000EFCF11EDB7E700E0116723A0E72001A829
:10229000854C014C55BFA13F80C0EFF02FCE214CA3
:1022A00005A00146E36785FDEFF04FCDA28562856D
:1022B000ED3DF5B79247B2458297824763DD07004F
:1022C00003250A0001468A85EFE0BFCB35D582475A
:1022D0002245E3C107FE22445C4895E3EFF0CFAE10
:1022E0009C40AA8C6373F5001937824723A09401A0
:1022F000FD17E367FCFC8A07CA979C438287130596
:102300004400EFE0FF88D9BF834744020C4C92465B
:1023100093E717002302F4026686B6952285393DBD
:1023200045D18347440213F7470019CB1C4C924513
:1023300066862285BE95B1351C502285829749B7A5
:10234000F99B2302F402CDBF83474402F99B230289
:10235000F402BDB783474402924593E71700230276
:10236000F4020CCC9DE18967938707807390073056
:1023700037B6000037B50000130606E29305903526
:10238000130585D3EF70406D01A0E6866686E6955D
:1023900022856D3335B78347440213F727005DF775
:1023A0002285EFE0AFD429BFEFE26F97EFF0BFD205
:1023B000B707002083A707119DE3896793870780EC
:1023C0007390073037B6000037B50000130606E2F9
:1023D00093059011130585D3EF70006801A0B7072E
:1023E0000020B7B500003725000093874711194733
:1023F000814613060010938545E41305C521EFE0DF
:102400009FEF45DD6FE0EF93EFE2CF8F41112E8418
:10241000AA84B2853A853E8936C642C43AC2EF6084
:10242000D02CAA858840EF60804A124788C0BA85C0
:102430003A85EF60902BCA85EF60302BCA85EF603C
:10244000D02A0C40EF60A04822482A8908C0C285E3
:102450004285EF609029CA85EF606047AA854A856A
:10246000EF60807DB24683A904002A893685CE8537
:10247000EF60F050CA85EF605027CE85EF602045B1
:10248000B7B7000088C003A507E7CA85EF60304FE3
:10249000AA850840EF60702508C041016FE0CF8930
:1024A000EFE2EF8741112A842E85EF7040262AC47F
:1024B00022852EC6EF70A0252246B246EF20D035E9
:1024C000EF70A02FB7B7000083A507E6EF602040AC
:1024D000EF70E023B7B7000003A687E683A6C7E640
:1024E000EF50206EEF70602D41016FE08F85EFE2BD
:1024F0000F802A8448414111AE84EF704021AE899B
:102500000C40832A84002A892E85EF60101E2A8AB7
:10251000D6855685EF60701DAA855285EF60203BF9
:10252000EF70E01EEF20702F2A86AE864A85CE859A
:10253000EF401071EF2020682A8C0840AE8C37BD28
:102540000000EF70C01CAE894C40832A84002A89A9
:102550002E85EF6090192A8AD6855685EF60F0188F
:10256000AA855285EF60A036EF70601AEF20F02A3E
:102570002A86AE864A85CE85EF40906CEF20A06318
:10258000B7B7000003AAC7E4B7B7000083A907E5FF
:102590002A8BB7B70000AE8B6285E68503A947E5B5
:1025A000EF70A021EF70A016B7BA000003A68AE66C
:1025B00083A6CAE6EF50E060EF70202050445288B6
:1025C0004A87AA86CE8793850401138544002D3D52
:1025D000DE855A85EF70601EB70700803D8DEF7075
:1025E000001303A68AE683A6CAE6EF50805DEF706B
:1025F000C01C10485288CE874A87AA8693858401DA
:102600001385C4001135C840EF70601003268DE5B6
:102610008326CDE5EF50E05AEF70201AEF70200FBF
:102620002A8BAE8BEF20D00C2AC408502EC6EF7038
:10263000000E2A8AAE8A5A85DE85EF20D0142A8CB5
:10264000084CAE8CEF70A00C2246B246EF5060579B
:102650002A8BAE8B6286E6865285D685EF50605611
:102660002A86AE865A85DE85EF40806A2A8BC8446A
:10267000AE8BEF70C00903268DE58326CDE5EF50C4
:102680004054EF708013EF7080082A8CAE8CEF20DE
:1026900030062AC42EC66285E685EF20D00E2A8D2C
:1026A000484CAE8DEF70A0062246B246EF50605106
:1026B0002A8CAE8C6A86EE865285D685EF506050A5
:1026C0002A86AE866285E685EF408064EF70E00E74
:1026D0002A8ADE855A85EF70400ED285D133B7B78E
:1026E000000003A807E75048AA86CE874A8793854B
:1026F000440113858400EFF03FD141016FD0FFE228
:102700002DC5EFD23FE02A842E89054591CD835512
:1027100084004840B284B689054A312381E84840A4
:1027200083558400ED2101456FD01FE183450900E9
:102730000840EF00100B08408945EF00500BE31CE8
:1027400045FF084093050008EF00700AE30B45FFC2
:1027500005096388090008408509EF00F008A38F88
:10276000A9FEFD14C204C18055BF05458280EFD289
:102770007FD9AA84B9CD370403000904054A376913
:10278000004093090980B70502004E85492565FD83
:1027900013050980854537090300B7690040C12B3F
:1027A0000509938A0980CA855685A9256DDD93950B
:1027B0001400528693F5E50F13850980B764004035
:1027C000ED2B93840480A28526852D256DDD6FD0A9
:1027D000BFD63704070013042408014A4DB7EFD2CF
:1027E0007FD237040010B76400402A89130404081C
:1027F000138A04808549A2855285112DE31D35FF7A
:10280000CA851385048055236FD01FD3EFD29FCF85
:1028100037040010B764004013040408938904804F
:102820000549A2854E85E523E31D25FF85451385D2
:102830000480A92B6FD05FD0B70600209386C61105
:1028400083C7060037070020130747123E97194633
:102850008507B3E7C702034507002380F60082809F
:10286000EFD25FCA2E8A370900108545B764004051
:10287000B7090020EFF0BFEF014413090904938466
:10288000048093894912954A63674403B704001092
:102890003769004093840404130A09808549A6859A
:1028A0005285B523E31D35FF130509808545F929B8
:1028B00022856FD07FC8CA852685912B11C92685B0
:1028C000C529B307340105042380A7001374F40F4E
:1028D000E31C54FB8565938505802685CD296DB75E
:1028E000EFD2FFC33755004093055052130505C082
:1028F000EF00704119C5B707002083A7871191C366
:1029000082976FD01FC439C5EFD2DFBFB7540040E4
:102910002A892E84938404C0854919E0014509A8B9
:10292000930500082685EF00703C630535010D45D1
:102930006FD09FC0930500022685EF00303B65F9FC
:10294000834509007D1426854204EF00F03805090F
:102950004180E1B70545828021C5EFD2BFBAB754A7
:1029600000402A892E84938404C0854901E40145EE
:102970006FD09FBC930500022685EF0030376313AC
:1029800035032685EF00F0357D142300A9004204AD
:1029900093055052268505094180EF00F035F9B7BF
:1029A000054582801145E9B7EFD2DFB589677979AE
:1029B0002A84138AF7701309098F9384077101E43D
:1029C00001456FD07FB763628A049319040193D9DC
:1029D00009010144854537050040EF00D01FCE8531
:1029E00037050040EF00701E854537050040EF00B9
:1029F000D00F37050040EF00B01DE3FCA9FE814574
:102A000037050040EF00700E5DBF4A94A689D9B724
:102A100001A001A001A001A001A001A001A001A0AE
:102A200001A001A001A001A001A001A001A001A09E
:102A300001A001A001A001A001A001A001A001A08E
:102A400001A001A001A001A001A001A001A001A07E
:102A500001A001A001A001A001A001A001A001A06E
:102A600001A001A001A001A001A001A001A001A05E
:102A700001A001A001A001A001A001A097E1FF1FFA
:102A8000938141E0172100201301C15717950000E1
:102A9000130505B397D5FF1F9385C556138681820D
:102AA00063FAC5008322050023A055001105910596
:102AB000E3EAC5FE17D5FF1F1305455F97150020F4
:102AC0009385058B6377B500232005001105E36D21
:102AD000B5FEFD42739002BC894273904280B722DA
:102AE00000009382028073A0023097D2FFFF93828E
:102AF000E25493E2320073905230EF102009972293
:102B00000000938282FD73901234730020309C4544
:102B100013F7070113F8F70001C7D8413368E8003D
:102B200037270240145B3707000F758F55EF3707C3
:102B300000208546A30ED710371701406317E50024
:102B400003D7050035832390E50083D5050013F7EF
:102B5000F50F39C318418146854E3D4F930F8002D2
:102B600093028004214E3396DE00B3F8C500631152
:102B700016039398260033131F011343F3FF337793
:102B8000E300B318180133E7E8006399F70750C969
:102B90008506E39AC6FD18C11307F00F6375B704E5
:102BA00054412146854E3D4F930F8002930280048D
:102BB000414EB398CE0033F715016392E802131724
:102BC000260001173313EF001343F3FFB376D3004E
:102BD0003317E800D98E6397F703232A15010506FA
:102BE000E319C6FD54C1828037170140E31FE5F4A5
:102BF000370700200347D71129DB99B7E39A57F825
:102C000010C979B7E39D57FC23281501C9BFB71731
:102C100001406318F500B707002083C7D71191C39F
:102C2000B5810CC98280B71701406318F500B7075A
:102C3000002083C7D71191C3B5814CC98280EFD2E0
:102C40001F8E79712A848354450068082EC6F52AA0
:102C5000925737470F001307072433D7E702C20400
:102C6000C18093F404FCC204C180B24561651305C0
:102C7000056A131607014182D18C231294008356F2
:102C80000400C206C182F99AC206C1822310D40090
:102C900094416364D5068606B3D7D702914613974D
:102CA00007014183BA876373D7009147050642063F
:102CB000C2074182C1832310C402231EF40083573C
:102CC000040003D7450083D6A50093E7170023101F
:102CD000F40083570400558FC207C18393F757BF91
:102CE000D98F2310F40003D7850083D7C500D98F6F
:102CF0002314F40045616FD0DF8403D5650031668D
:102D00007D16631EC5020D46B386C602B3D7D70231
:102D1000C207C1839396470199E293E71700A16622
:102D2000D58F9306C0123307D7029306803E3347F0
:102D3000D7020507420741832310E402BDBF654661
:102D4000B386C602B3D7D7029166C207C183D58FB7
:102D5000D1B78357050091C593E717002310F500FD
:102D60008280C207C183F99BC207C183C5BF835755
:102D7000050091C593E707102310F5008280C20774
:102D8000C18393F7F7EFC207C183FDB783570500EF
:102D900091C593E707202310F5008280C207C18305
:102DA00093F7F7DFC207C183FDB72318B500828010
:102DB000035505011375F50F828093F7E50F19C2CE
:102DC00093E71500C207C1832318F50082800357DB
:102DD00005009385058091E9856793870780D98FE2
:102DE000C207C1832310F5008280FD779387F77FA8
:102DF000F98FCDBF835745010355850142055D8D90
:102E00006D8D220521810D8D1335150082804111B4
:102E100002C402C693D7C5012AC63EC4A247A20572
:102E2000A18199CBB247D1073EC6B2478843410141
:102E30006D8D3335A0008280B247C181E107EDB7C7
:102E4000B707002023A0A7128280371702405C43F7
:102E50009146B18B6385D700A1466386D706B71725
:102E60007A00938707201CC1371602405C4237075F
:102E70000020130707009183BD8BBA9783C6070014
:102E80001C41B3D7D7005CC15442A1829D8ABA9637
:102E900083C60600B3D6D70014C55442AD829D8ABE
:102EA000369703470700B3D7E7005CC5584239831C
:102EB0009376370013878180369703470700B3D78F
:102EC000E7021CC982805C435843C166C983BD8B3D
:102ED000758F8907C5466393D700C94701EF374708
:102EE000024003270780418B09CF37177A00130769
:102EF000072021A83717024058439316E700E3D66E
:102F000006FE37173D0013070790B387E702A1BFFE
:102F100099C5371702405C4B5D8D48CB8280B7174F
:102F20000240D84B1345F5FF798DC8CB828099C5F7
:102F3000371702401C4F5D8D08CF8280B7170240C3
:102F4000984F1345F5FF798D88CF828099C5371743
:102F500002405C4F5D8D48CF8280B7170240D84F4A
:102F60001345F5FF798DC8CF8280035705008D6723
:102F70009387070483D625007D8F83D70500D58FDF
:102F800083D64500D58F83D66500D58F83D685003F
:102F9000D58F83D6A500D58F83D6C500D58F83D690
:102FA000E500D58FD98F2310F5000357C501FD77B4
:102FB0009387F77FF98F231EF50083D70501231828
:102FC000F50082808357050091C593E7070423101D
:102FD000F5008280C207C18393F7F7FBC207C18364
:102FE000FDB72316B50082800355C50082800355C6
:102FF00085006D8D3335A0008280835705003737FB
:103000000140130707C0C207C1836304E502370705
:1030100000406300E50213070740630CE500371723
:103020000040930607806306D500130707C06317A7
:10303000E50003D7250093F7F7F8D98F03D765008C
:1030400093F7F7CFC207C183D98F2310F50083D739
:1030500045002316F50283D705002314F502B73780
:103060000140938707C06316F50083C785002318C6
:10307000F5028547231AF50082808357050203D69F
:10308000050003D82500C207C183F99BC207C1838D
:103090002310F50283570502835645000357850127
:1030A000C207C183420741831377C7F8518F03D604
:1030B0008500F59BC20633660601D18F3736014085
:1030C000130606C0C1826313C50203D6A500DD9BAB
:1030D00003D8E500D18F03D64500ED9B93F6F6CFDC
:1030E000D18F03D6C50033660601D18E2312D500D9
:1030F000231CE50003D76500231AE5022310F5021F
:1031000082808357050265771307F7CFC207C18313
:10311000BD9BC207C1832310F50283570502835666
:10312000450003D88500C207139606018356850122
:10313000C18393F7F7FD758F83D605004182A20600
:10314000558F83D6250042074183B3E606019206D8
:10315000D58FB7360140C207938606C0C18363117D
:10316000D50483D6A50093F7F7F703D8C5009206D8
:10317000D58F83D64500C207C183920693F7F7FB2C
:10318000D58FFD769386F63FF18E03D6E500C20714
:10319000C183336606010A06D18E13960601418269
:1031A0002312C500231CE50003D76500231CE5029C
:1031B0002310F50282808357050203D88500C207D9
:1031C000C18393F7F7EFC207C1832310F50283573A
:1031D0000502835645000357C501C2071396060131
:1031E000420783D6050041831377C7F8558F83D6EE
:1031F0002500C18393F7F7DFB3E60601A206D58F5A
:10320000B7360140C207938606C04182C18363126C
:10321000D504FD769386F67FF58F83D6A50003D877
:10322000C500A206D58F83D64500C207C183A2067A
:1032300093F7F7BFD58FF576FD16F18E03D6E5002F
:10324000C207C183336606011206D18E13960601AA
:1032500041822312C500231EE50003D76500231E0B
:10326000E5022310F502828003570502FD77FD1762
:10327000F98F2310F5020358050283564500835742
:10328000C501657703D605001307F7CF7D8FF97762
:103290002206FD17518FB3F7070103D6250003D887
:1032A0008500C2064207336606013206D18F3736E3
:1032B0000140C207130606C0C1824183C183631B5C
:1032C000C50071767D16F18E03D6C5001A06D18E23
:1032D000C206C1822312D500231EE50003D7650074
:1032E0002310E5042310F50282808357050091C561
:1032F00093E717002310F5008280C207C183F99B72
:10330000C207C183C5BF8357450491C52167D98FC3
:103310002312F5048280C607C583DDBF83570500ED
:1033200091C593E707082310F5008280C207C18387
:1033300093F7F7F7C207C183FDB783578501C2072B
:10334000C183DD9BDD8D231CB50082800357850181
:10335000FD779387F77FF98FA205CD8FC207C183D1
:10336000231CF50082808357C501C207C183DD9B02
:10337000DD8D231EB50082800357C501FD7793873D
:10338000F77FF98FA205CD8FC207C183231EF500F9
:1033900082808357050091C593E727002310F5002D
:1033A0008280C207C183F59BC207C183C5BF835713
:1033B000050091C593E747002310F5008280C207FE
:1033C000C183ED9BC207C183C5BF2312B5028280B2
:1033D00003554502828093C5F5FFC205C1812318BC
:1033E000B5008280EFD2AF9383560501F577FD17C4
:1033F000F58F83D6650003D7C5007971D58F231863
:10340000F5008356C500FD779387379FF58F83D6E8
:1034100045002A842EC6D58F83D68500D58F83D6C6
:10342000A500D58F2316F50083574501C207C18338
:1034300093F7F7CFD98F231AF5006808EFF0FFA0B4
:10344000B747014093870780B245631DF404A25734
:103450008356C4006547B387E702C206C186984118
:1034600063D4060406070356C4004206B3D7E70236
:10347000130740064186B3D6E702B3F7E702920688
:10348000635606028E0793872703B3D7E70213F725
:103490007700B367D700C207C1832314F4004561E6
:1034A0006FD02F8A92576DB70A0775BF920793871F
:1034B0002703B3D7E702BD8BD58FF1BF81C98357EF
:1034C000C5000967D98F2316F50082800357C50010
:1034D000F977FD17F98FC5BF93F5F51F2312B500D6
:1034E0008280035545001375F51F82800355050042
:1034F0006D8D3335A000828093C5F5FFC205C18173
:103500002310B500828013F7F50F85461583B39716
:10351000B6006313D7020357C500F98F03570500A0
:1035200001454207418381CB0545A181B315B50013
:103530006D8F3335E000828089466315D7000357CD
:103540000501E1BF03574501C9BFEFC25FFD2A84F2
:103550001165011185451105EFF07F9D930700204E
:103560002312F100371501408D473EC44C00E1475E
:10357000130505803EC6EFF08FD922C837440140BD
:10358000B70708000C08130504803ECC02CA231EAE
:103590000100EFF03FE5854513050480EFF01FF2D1
:1035A00005616FC01FFAEFC2FFF5B7440140AE8955
:1035B0003289014493840480634524014A856FC0A5
:1035C000BFF7930500042685EFF05FF27DD9B3873E
:1035D00089008385070026850504C205C181EFF0B7
:1035E000BFEFD9BF1387C1801C43B7360020938635
:1035F000C6363E95636BD500B7560020938606808D
:1036000063E5A60008C33E858280FD57EDBFEFC28B
:103610001FEE197181450545EFF09F8F81450945E2
:10362000EFF01F8F81451145EFF09F8E8145130507
:103630000004EFF0FF8D81450565EFF07F8D81453A
:103640000545EFF0DF8E85451145EFF05F8E85452E
:103650002145EFF0DF8D85454145EFF05F8D8145D8
:1036600013050020EFF0BF8C814513050040EFF0FB
:103670001F8C856A13850A808545EFF05F8B854531
:103680000565EFF0DF8A81450965EFF05F8A8145C6
:103690001165EFF0DF8985450545EFF03F8B8145EA
:1036A0000945EFF0BF8A85451145EFF03F8A814516
:1036B0002145EFF0BF8913850A808145EFF01F890E
:1036C00081451165EFF09F88814537050200EFF0D5
:1036D000FF87814537050400EFF05F878545370593
:1036E0000800EFF0BF86814537052000EFF01F8608
:1036F000854537054000EFF07F858145370580001F
:10370000EFF0DF84814537050002EFF03F8481450B
:1037100037050008EFF09F83814537050010EFF073
:10372000FF82AD653146938585CFC80037140140CF
:10373000EF602027130D8004CC0013050480EAC637
:10374000EFF0EFBCC149894BCC0013050480CEC615
:1037500023127105EFF0AFBB9147CC001305048035
:103760002312F104CEC6EFF08FBAA148CC001305A6
:1037700004802312110546CECEC6EFF04FB9CC001F
:10378000130504802312310582C6EFF04FB81308E9
:1037900000026149CC00130504802312010542CCCC
:1037A000CAC6EFF0CFB6130600049144CC0013054F
:1037B00004802312C10432CAA6C6EFF04FB59306A7
:1037C0000008CC00130504802312D10436C8CAC6F1
:1037D000EFF0EFB313070010CC00130504802312A1
:1037E000E1043AC6A6C6EFF08FB293070020CC00E2
:1037F000130504802312F1043EC4CAC6EFF02FB1B2
:10380000930D0040CC0013050480CAC62312B105F5
:10381000056BEFF0CFAF130B0B80CC0013050480CA
:10382000CEC623126105EFF08FAE93058002AEC6BF
:1038300013050480CC0023125105EFF04FAD896CC5
:10384000CC0013050480A6C623129105EFF02FAC1F
:10385000116CCC0013050480A6C623128105EFF07D
:103860000FAB617ACC0013050480CEC6231241054C
:10387000EFF0EFA985452312B104130504C0CC0075
:10388000CAC6EFF0CFA8CC00130504C0A6C6231209
:103890007105EFF0CFA7CC00130504C0CAC62312F0
:1038A0009104EFF0CFA6F248CC00130504C0231218
:1038B0001105A6C6EFF0AFA5CC00130504C0CAC61B
:1038C00023123105EFF0AFA46248CC00130504C009
:1038D00023120105A6C6EFF08FA35246CC001305B4
:1038E00004C02312C104CAC6EFF06FA2C246CC00C6
:1038F000130504C02312D104CAC6EFF04FA132470A
:10390000CC00130504C02312E104CAC6EFF02FA0B7
:10391000A247CC00130504C02312F104CAC6EFF07D
:103920000F9F7149CC00130504C0CAC62312B1050C
:10393000EFF0EF9DCC00130504C0CAC62312610549
:10394000EFF0EF9CCC00130504C0EAC6231251052A
:10395000EFF0EF9BCC00130504C0A6C6231291051F
:10396000EFF0EF9ACC00130504C0A6C62312810520
:10397000EFF0EF99CC00130504C0A6C62312410551
:10398000EFF0EF98CC0037150140A6C62312910541
:10399000EFF0EF97CC0037150140CEC6231281051A
:1039A000EFF0EF96CC0037150140CEC6231241054B
:1039B000B7340020EFF0AF959384442E9307401066
:1039C000C169DCC4938729009CC837390020B70738
:1039D00038001309892C93870720C0C0916ADCC87E
:1039E00023228900B70705001384A400373701405C
:1039F00049469CCCA28523A454011305A90098C074
:103A00002320E90023144901EF50B079A28537350E
:103A10000140EFF08FD583D58400C8403764004063
:103A200093890907EFF0AF9E83558900032549006C
:103A3000EFF0EF9D854537350140EFF0AFD8B72760
:103A40000600938707A8BEC8B707FFBFBECAB7075F
:103A500000049387F7028C0813050480BECC231E54
:103A60005105EFF0CF9D130504808545EFF06FAE53
:103A7000B70720009387F708371400403ED6B727D2
:103A80000002938707716C10130504803ED8231A37
:103A90000102EFF08FD68C1082D413050480CED0B3
:103AA0002314710782D282D6EFF02FDD8C1013051C
:103AB0000480EFF00FE58C1013050480EFF0AFEFFA
:103AC0008C1013050480EFF02FFA13050480854550
:103AD000EFF07F83130504808145EFF01F86130507
:103AE00004808145EFF09F86130504808145EFF047
:103AF0009F87130504808145EFF01F88130504801C
:103B00008545EFF0BF81130504808545EFF0EFFD9B
:103B1000B7071000938737023EDCB7770002938720
:103B200007532C18370500403EDE23100104EFF048
:103B3000CFCC854537050040EFF04FFE8545370572
:103B40000040EFF0DF86854537050040EFF07F84C9
:103B5000F167938707203754004082DEBED8930771
:103B6000003082DC231EF1068C18B147130504C017
:103B7000231DF10682DAEFF0FF86130504C08545A8
:103B8000EFF0DF93014509616FC03F9AB71702401C
:103B90009843B706FFF841111367170098C3D8433D
:103BA00037060200758FD8C39843B706F7FEFD1697
:103BB000758F98C39843B706FCFFFD16758F98C3A1
:103BC000D843B70681FFFD16758FD8C337079F000E
:103BD00098C702C402C69843C166558F98C3B716EA
:103BE000024005679C42F18F3EC6A24785073EC44E
:103BF000B24781E7A247E397E7FEB71702409C432D
:103C00001397E7006355070685473EC63247854749
:103C1000631DF704B7170240D843B706C1FFFD166E
:103C2000D8C3D843D8C3D843D8C3D843758FD8C3D3
:103C3000D843B7063D00558FD8C39843B706000157
:103C4000558F98C3984393166700E3DD06FED8436B
:103C5000B7160240719BD8C3D84313672700D8C357
:103C60002147DC42B18BE39EE7FE4101828002C620
:103C700071BFB7160240DC421146B18B1387018138
:103C80006385C70021466389C702B7177A00938707
:103C900007201CC3B7170240DC43918393F6F7005B
:103CA000B707002093870701B69783C607001C4318
:103CB000B3D7D7001CC38280DC42D4424166C9839B
:103CC000BD8BF18E890745466393C700C94781EED6
:103CD000B746024083A60680C18A89CEB7167A000D
:103CE0009386062021A8B7160240D4421396E60018
:103CF000E35606FEB7163D0093860690B387D702BB
:103D000049BF15CDEFC2BF81AA8437350020130407
:103D10008531130684009305440013058531B922CB
:103D20005C40B70600801840B58F5CC0DCC01C4406
:103D3000358F18C098C09CC401456FC09F80054551
:103D40008280EFC2CFFDAA843735002013044532AC
:103D50001306840093054400130545325D2A58403C
:103D60001C40B7060080358FB58F1CC058C09CC062
:103D70001C44D8C001459CC46FC0AFFCEFC22FFAF1
:103D800037390020AA8413050930130409300D299E
:103D9000835704000357240013050930B307F0408C
:103DA0003307E0402311F4002310E40085291C446C
:103DB00001459CC05C44DCC01C489CC46FC06FF8CB
:103DC000EFC2EFF58545EFE03FB911C10D456FC07A
:103DD0004FF7EFC2CFF44111A307A10085451305AA
:103DE000F100EFE05FB211C1094541016FC06FF50D
:103DF000EFC2EFF22A84EF00301208C001456FC015
:103E00004FF4EFC2CFF12A84EF00900F08C00145B4
:103E10006FC02FF3EFC2AFF0814513058006EFE0CE
:103E20001F951305B006EFE09F9B0145EFE03F9B18
:103E3000EFE0DF9D814513058006EFE05F93694564
:103E4000EFE0FF991545EFE09F99EFE03F9C81453A
:103E500013058006EFE0BF917145EFE05F984145A3
:103E6000EFE0FF97EFE09F9A6FC0AFEDEFC28FE9F1
:103E70004111AA8A2E8A13058006814532C6EFE0D9
:103E80001F8F1305B003EFE09F95EFE03F98994532
:103E900013058006EFE0DF9CEFE01F9AAA84A204DE
:103EA000EFE09F99C98CEFE03F992A842204EFE06C
:103EB000BF98498CC204EFE03F982A89C184EFE0A3
:103EC000BF97AA892685EF500064B7B4000083A588
:103ED00044E742044184EF50400123A0AA00228518
:103EE000EF50606283A544E7EF5020002320AA0032
:103EF000131589003365350142054185EF50A060F7
:103F000083A544E7EF40707E324608C241016FC08E
:103F1000AFE2EFC24FDE2A8BAE8A130580068145E1
:103F2000B289EFE0DF8413053004EFE05F8BEFE050
:103F3000FF8D994513058006EFE09F92EFE0DF8F3C
:103F4000AA84A204EFE05F8FC98CEFE0FF8E2A8481
:103F50002204EFE07F8E498CC204EFE0FF8D2A89B6
:103F6000C184EFE07F8D2A8A2685EF50C059EF503B
:103F7000007AB7B4000003A684E783A6C4E742042E
:103F80004184EF30E04BB70700202A8C03A50713CC
:103F9000AE8CEF50C0772A86AE866285E685EF400C
:103FA000C00DEF5090012320AB002285EF50A055AB
:103FB000EF50E07503A684E783A6C4E7EF304048DE
:103FC000B70700202A8B03A5C712AE8BEF502074D1
:103FD0002A86AE865A85DE85EF40200AEF50E07DC6
:103FE00023A0AA00131589003365450142054185C8
:103FF000EF506051EF50A07103A684E783A6C4E799
:10400000EF300044B70700202A8403A54713AE848D
:10401000EF50E06F2A86AE862285A685EF40E00548
:10402000EF50A07923A0A9006FC06FD0EFC28FCD51
:104030004111814513058006EFE06FF31305B006CB
:10404000EFE0EFF90145EFE08FF9EFE02FFC81455C
:1040500013058006EFE0AFF16945EFE04FF8154535
:10406000EFE0EFF7EFE08FFA814513058006EFE010
:104070000FF06D45EFE0AFF6214593040000EFE04F
:104080000FF61304107DEFE06FF82689A6897D14E2
:104090004204418029E037B40000832504E84E85BE
:1040A000370A0020EF405039832504E82328AA125C
:1040B0004A85EF407038832504E8B709002023A61D
:1040C000A9122685EF40503737090020232AA9126C
:1040D00041016FC06FC670002C004800EFF07FE315
:1040E00092454E85EF40A07EA245AA894A85EF40C1
:1040F000007EB2452A892685EF40607DAA8413059B
:10410000803EEFE07F8A61B7EFC26FC1EFF01FF230
:10411000EFF05FD06FC0EFC2EFC26FC081451305F3
:104120008006EFE0CFE41305A006EFE04FEB01457A
:10413000EFE0EFEAEFE08FED814513058006EFE059
:104140000FE313057003EFE08FE90945EFE02FE976
:10415000EFE0CFEB814513058006EFE04FE113055B
:10416000B006EFE0CFE70145EFE06FE7EFE00FEAE1
:1041700081457945EFE0AFDF0945EFE04FE60145C6
:10418000EFE0EFE5EFE08FE881457945EFE02FDEE6
:104190000145EFE0CFE413050007EFE04FE4EFE067
:1041A000EFE681457945EFE08FDC0545EFE02FE351
:1041B00013050002EFE0AFE2EFE04FE56FC06FB82C
:1041C000EFC2EFB5AA8481457945EFE04FDA0D459E
:1041D000EFE0EFE0EFE08FE399457945EFE04FE85E
:1041E000EFE08FE52A842204EFE00FE5498C23906D
:1041F0008400EFE06FE42A842204EFE0EFE3498CCF
:1042000023928400EFE04FE32A84EFE0EFE293177C
:1042100084005D8D2391A4006FC0AFB2EFC22FB0B8
:104220002A8403150500B7B40000EF402063B7B738
:10423000000003A687E883A6C7E8EF30106403A652
:1042400004E983A644E9EF30A01FEF50005708C4EB
:1042500003152400EF408060B7B7000003A687E98C
:1042600083A6C7E9EF20D02A03A604E983A644E980
:10427000EF30001DEF50605448C403154400EF4078
:10428000E05D03A604E983A644E9EF30601BEF502C
:10429000C05208C86FC0EFAAEFC26FA8B7070020CE
:1042A00037070201938787131307D77098C3130743
:1042B00020102392E700EFF03FE5EFF0FFE5112932
:1042C00001456FC00FA8EFC28FA54111136505F816
:1042D00074002306A100373500200946B685130572
:1042E000852CA3060100EFE0AFC10345D1004101D9
:1042F0006FC02FA5EFC2AFA241111375F5072306BA
:10430000A10037350020A306B10081466C000946A4
:104310001305852CEFE0CFBE41016FC08FA2EFC225
:104320000FA02A84EFF03FFAAA8413051400137536
:10433000F50FEFF05FF92205458D420541816FC011
:104340004FA0EFC2CF9D2A84EFF0FFF7AA84130598
:1043500014001375F50FEFF01FF72205458D420588
:1043600041856FC00F9EEFC28F9B130580083734C5
:10437000002013040433EFF09FFA2310A400130568
:10438000E008EFF0DFF92313A4001305A008EFF015
:104390005FFB2311A4001305C008EFF09FFA23125E
:1043A000A40013050009EFF0DFF92314A40013059E
:1043B0002009EFF01FF92315A40013054009EFF0C1
:1043C0005FF82316A40013056009EFF09FF7231789
:1043D000A40013058009EFF0DFF62318A4001305ED
:1043E000A009EFF01FF62319A4001305C009EFF090
:1043F0005FF5231AA4001305E009EFF09FF4231BD7
:10440000A4006FC00F94EFC28F91AA84EFF0BFEBAE
:104410002A84138514001375F50FEFF0DFEA2A895B
:104420001385240022091375F50F4204EFF0BFE94C
:1044300033642401418D6FC0CF90EFC24F8E2A8428
:104440001305A00FEFF03FFC118508C06FC06F8F00
:10445000EFC2EF8C2A841305700FEFF0DFFA11859D
:1044600008C06FC00F8EEFC28F8B37370020130745
:10447000073383560700935745400D85958FB387C3
:10448000F7028606158D8316270003174700B187AC
:104490003305D502B387E7022D85B9873E95B70767
:1044A000002023A0A71495473305F502130505083E
:1044B0002185EF504005B7B7000083A547EAEF40DC
:1044C000A0776FC00F88EFC28F85B707002083A544
:1044D00007140577130707C02E9793D7F541FD17EB
:1044E000B335B700BE95B388E50237340020130416
:1044F0000433031884009356F841B337E702860863
:10450000BE98B386E602B38705033306E802BE967B
:104510003338E80293574601131EC6003303E702FF
:10452000C2961398C6008316A40033E8070113D679
:10453000F641B387D802330666023E96B387660219
:10454000B3B66602A183369693168601D58F93562D
:1045500086403386C701B337F600C296BE96A16780
:10456000BE96835764003336F602B386F602B296DF
:1045700013D61640FD86B367D60063890714031E61
:1045800004011358FE4133086802B388C803C29877
:1045900033086E0233336E0246938318E40093D7D8
:1045A000F841B3851503B387E702AE97B385E802F8
:1045B00033B7E8023E97460793D7F500C6055D8FEF
:1045C0002E98B335B8001A972E97B705100033858B
:1045D000A5409357F54193551500FE07CD8F8315E0
:1045E000C4007E05330805418E052E97333505013D
:1045F000998F898F0565130555C3B387A702B33516
:10460000A8023305A802BE95EF200033031764010A
:10461000939735019356D500DD8E13D8D540935727
:10462000F7413306E802B387D702B2973306D702C1
:104630003337D702BA973308C802B387D702330794
:10464000D602C297B336D602658303164401B697E5
:1046500093967700558FB306A700E58733B7E6003A
:10466000AE97BA971357F6413307A702B305B602C0
:10467000BA953307A6023336A60213553701B29511
:104680001396D500518DCD853695B336D500AE97AE
:10469000B697139787012181598D03172401A187AC
:1046A0009355F7419356C70192051207D58D3A9558
:1046B000BE953337E500BA95EF405071B7B70000AB
:1046C00083A507EAEF4040576FB0BFE7130500002E
:1046D000E5BFEFB2DFE4EFF01FC981451305500FCE
:1046E000EFF05FC19305700B1305400FEFF09FC013
:1046F000375502001305059FEFE00FAB6FB07FE465
:10470000EFB2FFE141116800EFF03FD33245EFF027
:104710009FD541016FB0FFE2EFB27FE04111EFF0B2
:104720003FFE6800EFF0DFD23245EFF0DFD9410104
:104730006FB03FE101A001A0EFB27FDE1D719307D2
:1047400000001306C0028145481802C802CA02CC04
:1047500002CE02D002D202D402D602D83EC43EC655
:1047600037040020EFB0BFDE0808EFF08FD96808EB
:10477000EFF02FDD2810EFF06FE02800EFF04FE7AB
:104780006800EFF00FE80C0831464818EF50602140
:104790006C0831468800EF50C0202C103146E800EC
:1047A000EF502020A247032644154C18BECCB24738
:1047B0001305803EBECEEFB01FE91545EFB0BFEE4A
:1047C00065B7EFB23FD419711306C0028145C8081E
:1047D000EFB0FFD7714681456808EFB05FD77146EB
:1047E00081452818EFB0BFD6014402C602C802CAEC
:1047F000231C0100A303010002C4B7090020370AEB
:104800000020B70A002037090020B704002003A6C3
:10481000491593067100CC081305803EEFB05FE5A3
:104820007DF56C08C808EFD09FCC82573707008011
:104830002800B98FBEC2A2573EDE9257BEC0EFB06D
:104840003FECA2471307803E818F6372F7089307FE
:10485000A0FA2306F100F6570326CA146C0013D7FA
:104860008700A30AF100230BE10013D70701E183BE
:10487000230CF1009307C004A30CF1009307D0FCB4
:10488000A308F1009307C0FC2309F100930740043B
:10489000A309F10093071004230AF100930700FC19
:1048A000A307F1001305803E9307F003A30BE1007B
:1048B000A3060100230701002308F100EFB0BFD8D1
:1048C00003A58A1581451304843EEFB0BFE003269B
:1048D00009152C181305803EEFB0FFD603A504166A
:1048E0008145EFB03FDF25B7EFB27FC379717146E5
:1048F00081454808EFB0BFC5B737002037370020E3
:104900009387873413078735D8C339472395E70042
:104910002386070023870700A301010002C202C407
:1049200002C623180100EFF06FA6EFF08FB409451F
:10493000EFE00FD1EFE0BFCDEFF01F9671651305EB
:104940000520EFE09FC0B7040020370400201305C6
:10495000803EEFB03FD603A68414930631004C008E
:104960000145EFB0FFD003260415930631004C0833
:104970000145EFB0FFCFE1BFEFB27FBA37050020AE
:104980001304651413056514EFF08FC315E9B737E9
:1049900000209387873403C7C7008345040013773B
:1049A000F70F0DE313075005639CE50005472386C9
:1049B000E700DC43B70600202392E6142380B7000B
:1049C0006FB03FB8B70600209386461403D70600A1
:1049D000D0433A96050742072300B600418323904F
:1049E000E60083D6A700E39DE6FC05472387E700A2
:1049F000C1BFEFB25FB00111373400209307843498
:104A000013090101394702C802CA02CC231E010062
:104A1000A307010023A027012394E7001304843493
:104A2000B70A0020373A0020B7090020370B0020D2
:104A30000326CB149306F100CA850145EFB05FC38E
:104A4000930BCB148347F10091C341C5EFF0DFF224
:104A50008347E400F1DF03A68A1493058A35130522
:104A6000803EEFB05FBE03A509168145EFB09FC63B
:104A7000230604002307040055BF1C40A69703C566
:104A80000700EFF00FB519ED850483578400E3E6C6
:104A9000F4FE03A60B009306F100CA850145EFB0B2
:104AA0003FBD4DB7EFF05FED8347E400F9DF03A6AC
:104AB0008A1493058A351305803EEFB0DFB803A54D
:104AC00009168145EFB01FC1230604002307040027
:104AD0006DBF81445DBFEFB29FA43706002013066F
:104AE00046159305C0022945EFB0DFB33706002015
:104AF00013060615F1452945EFB0DFB23706002051
:104B000013068614B9452945EFB0DFB137060020FA
:104B10001306C614B9452945EFB0DFB037070020AA
:104B2000B7B50000374500001307C71591461306B7
:104B30000010938585EA13058573EFB0DFAB370767
:104B40000020B7B5000037450000130747168D4613
:104B5000130600109385C5EB1305257CEFB0BFA9A4
:104B600037070020B7B50000375500001307871539
:104B70008946130600109385C5EC1305259FEFB0F9
:104B80009FA737070020B7B500003755000013076F
:104B90000716954613060010938505EE1305858EBE
:104BA000EFB07FA5EFB05FA737B40000130584EE28
:104BB000EF40307CE5BF79714AD01399150022D4BB
:104BC00026D256CA06D64ECE52CC5AC85EC6135905
:104BD0001900B70710442E84AA84AE8A6347F904EB
:104BE000B707F07F63CE2701630BF900635B501FAB
:104BF00097670000938707318443C04311A87DD590
:104C000026862685A286A285EF208010AA842E847F
:104C1000A285B2502254268502599254F249624A22
:104C2000D24A424BB24B45618280B707DC3F6358A2
:104C3000F91CB707203E6343F9187D5A2686A286E1
:104C40002685A285EF20F0772A86AE862A8BAE8B4A
:104C5000EF203077976700009387472E9043D44327
:104C60002A89AE89EF20F075976700009387872D1A
:104C70009043D443EF20C0094A86CE86EF2070745B
:104C8000976700009387872C9043D443EF20400818
:104C90004A86CE86EF20F072976700009387872BB5
:104CA0009043D443EF20C0064A86CE86EF20707131
:104CB000976700009387872A9043D443EF204005ED
:104CC0004A86CE86EF20F06F97670000938787298A
:104CD0009043D443EF20C0035A86DE86EF20706EE7
:104CE00097670000938787289043D4432A8BAE8B25
:104CF0004A85CE85EF20F06C976700009387872761
:104D00009043D443EF3060374A86CE86EF20706BF5
:104D100097670000938787269043D443EF30E035B0
:104D20004A86CE86EF20F069976700009387872533
:104D30009043D443EF3060344A86CE86EF207068CB
:104D400097670000938787249043D443EF30E03285
:104D50004A86CE86EF20F0662A86AE865A85DE85A4
:104D6000EF10107B2686A286EF20B065FD572A86BD
:104D7000AE86630FFA060E0A9767000093878723B3
:104D8000D2979043D443976700009387A7203E9A19
:104D9000EF30A02E2686A286EF30202E2A86AE8601
:104DA00003250A0083254A00EF30202DAA842E8493
:104DB000E3D00AE6370400802D8C99BD9767000088
:104DC000938747159043D443EF1090749767000082
:104DD0009387C7149043D443EF207048E35FA0E467
:104DE00005BD97670000938767128443C0430DB5E4
:104DF0002685A285EF306028AA842E8411BD492221
:104E0000B707F33F2A84AE846358F904B707E63F37
:104E1000635CF90A2A86AE86EF10906F97670000F0
:104E20009387C70F9043D443014AEF30002597671B
:104E300000009387270F9043D4432A89AE892285A7
:104E4000A685EF10F06C2A86AE864A85CE85EF20C7
:104E5000205FAA842E84DDB3B78703406358F9042A
:104E6000176900001309890C0326090083264900ED
:104E7000094AEF30802003260900832649002A8B47
:104E8000AE8B2285A685EF20D053976700009387CD
:104E9000E7089043D443EF10B0672A86AE865A8560
:104EA000DE85EF20E059AA842E8449BB9767000075
:104EB000938747088843CC432286A686EF20405834
:104EC0000D4AAA842E849DBB1769000013090905A9
:104ED0000326090083264900054AEF30001A2A8B71
:104EE000AE8B03260900832649002285A68565B777
:104EF000011122CC370400809347F4FF3727E93FA4
:104F000006CEED8F1307B71F6350F7043707F07F06
:104F100063CAE700AE862A86EF302016F24062446C
:104F2000056182800A86412E0D8985476306F50258
:104F300089472246B246630FF50205C902459245EC
:104F40000547EF10A05BD9BF01468146EF00701AFC
:104F5000F2406244056182802246B2460245924593
:104F60000547EF10A059A18D55BF02459245EF00AE
:104F700050186DB702459245EF00B017A18D79BF6B
:104F8000860585818280011122CC370400809347F9
:104F9000F4FF3727E93F06CEED8F1307B71F6350A5
:104FA000F7043707F07F63CAE700AE862A86EF3042
:104FB000C00CF2406244056182800A86ED2C0D89A6
:104FC00085476307F50289472246B246630FF5021B
:104FD0001DC502459245EF00D011A18DD9BF0147F3
:104FE00001468146EF108051F240624405618280A3
:104FF0002246B24602459245EF00B00F5DBF024522
:1050000092450547EF10804F6DB702459245054721
:10501000EF10C04EA18D71BF6DA85D71A2C4A6C274
:10502000CAC052DE56DC86C62A84AE84C52D93875C
:10503000418103A90700FD572A8AAE8A6301F9025C
:105040002286A6862285A685EF30007709E90146EB
:1050500081462285A685EF20702B634C0500B64063
:1050600026445285D68596440649725AE25A6161B1
:10507000828085473EC4976700009387A7F53EC6A8
:1050800002D422CC26CE22C826CA630709020146D2
:1050900081463285B685EF20A03A2AD02ED28947A4
:1050A000631EF900EF40700F930710021CC1A25756
:1050B00081EF025A925A65B702D002D22800EF104F
:1050C00020726DD1A257F5D7EF40300DA2571CC109
:1050D000CDB7B307C040370700801347F7FFD18F24
:1050E0004111337ED700FD8306C622C4B3E7C70152
:1050F0003703F07FAA882E886367F304B307A040C4
:10510000C98F6D8FFD83D98F2E8F636EF302B70722
:1051100010C0B697D18FF1C713D4E6419375240020
:10512000B367A7001354F8014D8C85EB8947630FD3
:10513000F40A8D476312F40A97670000938787EAA1
:105140008843CC4339A03285B6854686C286EF10A7
:10515000303CB240224441018280B367CE00A5C7F3
:1051600063046E0A630167063307C74151879307DB
:10517000C00363C4E70863D80600930740FC0145F9
:105180008145634AF7004685C285EF20602BEFF02A
:105190003FDFEFF05FA285476300F40C8947630AA5
:1051A000F40845D8976700009387C7E69043D44337
:1051B000EF20B06C97670000938747E29043D44399
:1051C000EF20B06B79B7634F0F04976700009387A8
:1051D00067D38843CC43B5BFB2402244C285410166
:1051E00082802244B24041016FF0FF9C976700002B
:1051F0009387C7DE8843CC43A9BF97670000938796
:1052000067D08843CC4341BF8947630BC705E30F91
:10521000F4FC8D47E302F4F285476302F40601458E
:10522000814505BF97670000938747CE8843CC43ED
:105230000DB7976700009387E7DD9043D443EF20D5
:10524000D06397670000938767D92A86AE86884324
:10525000CC43EF209062F5BDB7070080BD8DD5BD72
:105260006304F4048D47630AF40285476300F40283
:1052700097670000938707D98843CC43D9BD9767C8
:1052800000009387A7D68843CC43E1B59767000019
:105290009387C7D78843CC436DBD9767000093873A
:1052A000E7D58843CC4375B597670000938787D4CB
:1052B0008843CC4379BD5971A2D43727E93F139471
:1052C000150086D6A6D2CAD0CECED2CCD6CADAC8DF
:1052D000DEC6E2C4E6C2EAC06EDE05801307B71F71
:1052E000635C871437E702401307B797B289634FAF
:1052F000870697670000938767D29043D44363572C
:10530000B03AEF209057B727F93F9387B71F2A8A03
:10531000AE8A6309F414176400001304A4D010408B
:1053200054408544EF2070552A86AE8623A0A900FC
:1053300023A2B9005285D685EF2030541040544046
:10534000EF20B05323A4A90023A6B900B6502654D9
:10535000268506599654F649664AD64A464BB64BB8
:10536000264C964C064DF25D6561828037273941A7
:105370001307B71F2E89635987103707F07F6355CE
:10538000E40C135A4441130AAABE93174A011D8C18
:10539000A285AA84EF300046EF30404C2A87AE87C2
:1053A0003A86BE862685A2853ACC3ECE976400001A
:1053B0009384C4CAEF20704C9040D440EF2070001A
:1053C000AE8B2A8BEF3000432A84EF3020492A87A6
:1053D000AE872A86AE865A85DE853AD03ED2EF2049
:1053E000D0499040D440EF20C07D814601462AD468
:1053F0002ED6EF202060B336800085066318052284
:1054000097670000938707CE09475286CE85280804
:10541000EF00A079AA84E35B09F203A7490083A700
:10542000C900B7060080358FB58F23A2E90023A6F7
:10543000F900B304A04019BF08C24CC223240600DF
:1054400023260600814419B72A86AE86EF20F04253
:1054500023A4A90023A6B90023A0A90023A2B90070
:105460008144EDB597670000938747BC9043D443D0
:1054700017640000130404BC8544EF2010402A8AFE
:10548000AE8A1040544079BDEFF09FAF976700009F
:105490009387C7BA9043D4432A8AAE8AEF206072BA
:1054A00097670000938707BA9043D443EF105006E4
:1054B000EF304034AA84EF30603A9767000093875A
:1054C000E7B59043D4432A8BAE8BEF20806F2A86BA
:1054D000AE865285D685EF20503A976700009387B5
:1054E00067B49043D4432A8DAE8C5A85DE85EF2075
:1054F000406D2A8AAE8AFD476A85E6855286D68641
:1055000063C79702EF2070379387F4FF1397270044
:1055100097670000938707B5BA979C43AA8D2E8C96
:10552000638B870023A0A90023A2B90025A0EF2048
:10553000D034AA8D2E8C93574C011358444193F7C5
:10554000F77FB307F840C14663C6F60423A0B9014C
:1055500023A289016E86E2866A85E685EF20F03116
:105560005286D686EF20703123A4A90023A6B90065
:10557000E35E09DCB707008033CC8701BD8D23A033
:10558000B90123A2890123A4A90023A6B900B30469
:1055900090406DBB97670000938747A99043D44321
:1055A0005A85DE8542C4EF20C0612A8AAE8A2A86E7
:1055B000AE866A85E685EF20502C2E8C2A86AE8634
:1055C0002A842EC66A85E685EF20302B5286D68641
:1055D000EF20B02A976700009387C7A59043D44374
:1055E0002A8AAE8A5A85DE85EF20A05D5286D6864D
:1055F000EF20B0282A86AE862A8AAE8A2285E285E6
:10560000EF20B027224893D7450193F7F77F33085F
:10561000F84093071003E28CAA8D2E8C63CA070111
:1056200023A0A90023A2B900228D2DB78D46C9BBA6
:1056300097670000938787A19043D4435A85DE85FE
:10564000EF202058324C2A8AAE8A2A86AE862285DE
:10565000E285EF2090222A86AE862A8DAE8C2285A6
:10566000E285EF2090215286D686EF2010219767A1
:1056700000009387279E9043D4432A8AAE8A5A8596
:10568000DE85EF2000545286D686EF20101F2A8632
:10569000AE862A8AAE8A6A85E685EF20101EAA8D1C
:1056A0002E8C23A0A90023A2B9006DB5EF1040668F
:1056B000B727F93F9387B71F2A8AAE8A630EF40291
:1056C000176400001304049610405440FD54EF107A
:1056D00020642A86AE8623A0A90023A2B9005285A1
:1056E000D685EF20901910405440EF10606223A43B
:1056F000A90023A6B90099B997670000938707937B
:105700009043D443176400001304C492FD54EF1077
:1057100020602A8AAE8A1040544055BF4111370795
:10572000F07F22C426C206C63378B7002E84AA842E
:10573000630DE816AE87AA86635FB00E13DE45419F
:1057400063010E1A370710001306F7FFF18FD98F88
:10575000130E1EC01397170013761E0093D7F60181
:10576000BA971397160011C67D838607BA971397C9
:105770002600135E1E40D945814E81463706200023
:105780003385C6001358F701FD1563C6A700898F3E
:10579000B306C500B29E8607C29706070582EDF1E3
:1057A00013050002014381483706008019A863856C
:1057B000D70E9355F70186077D15AE97060705822C
:1057C0000DC9B3051601E3D4F6FEB388C5003688CB
:1057D00063CE050A958FB336B700958F0D8F93551D
:1057E000F70186077D153293C286AE9706070582BC
:1057F00069F9D98F9354130089CB93041300FD5793
:1058000085806314F300850E814413D71E4037044E
:10581000E03F93FE1E003A9463850E00B7070080B8
:10582000DD8C13174E012297B24022442685BA859B
:105830009244410182801397150005833368A700C5
:105840002E87E30308FED9E193D5B600AD172E8766
:10585000D606FDD913D6450141EA014611A02A8694
:1058600006079315B70013051600E3DA05FE930843
:1058700000023688B388A840BA85B396A60033578D
:105880001801338EC740B367B7006DBD13C8F8FF6A
:105890001358F80136983DBFE36DB7F0B388C500E3
:1058A000E3C605FE3E88814715BF2A86AE86EF20F7
:1058B00040312686A286EF10A045B2402244AA8439
:1058C0002E872685BA859244410182802A86AE863B
:1058D000EF20A07A2A86AE86EF109036AA842E8713
:1058E000A1B72E87814795BF3688930800027D5661
:1058F00079B739715AD0139B15004AD84ED662CC6D
:1059000066CA06DE22DC26DA52D456D25ECE6AC8D9
:105910006EC6135B1B00B707403E2E8CAA8C3289E3
:10592000B6896355FB10EF20F06C63090526668687
:10593000E2866685E285EF20C0289767000093879E
:10594000E78B9043D4432A84AE84EF208027976767
:1059500000009387278B9043D443EF10603B22864F
:10596000A686EF200026976700009387278A90433A
:10597000D443EF2080702286A686EF20802497678C
:105980000000938727899043D443EF106038228624
:10599000A686EF200023976700009387278890430F
:1059A000D443EF20806D2286A686EF208021976762
:1059B0000000938727879043D443EF1060352286F9
:1059C000A686EF2000202A8AAE8A97570000938788
:1059D00067679043D4432285A685EF20801E2A8BDB
:1059E000AE8B5286D6862285A685EF20801D2A841E
:1059F000AE844A86CE866685E285EF20801C2A86A4
:105A0000AE862285A685EF2040672A86AE865A8517
:105A1000DE85EF20806697570000938727502A86FF
:105A2000AE868843CC43EF2040650DAA2A86AE8619
:105A3000EF202019975700009387477C9043D44369
:105A40002A84AE84EF20E017975700009387877B66
:105A50009043D443EF10C02B2286A686EF20601619
:105A6000975700009387877A9043D443EF20E060F4
:105A70002286A686EF20E014975700009387877947
:105A80009043D443EF10C0282286A686EF206013EF
:105A900097570000938787789043D443EF20E05DC9
:105AA0002286A686EF20E01197570000938787771C
:105AB0009043D443EF10C0252286A686EF206010C5
:105AC000B737D33F938727332A8AAE8AE3DF67EF5E
:105AD000B707E93F63C3670B175700001307074475
:105AE000B707E0FF08434C433E9B8147DA863E867A
:105AF0003E8DEF208058DA8DAE8B2A8B97570000B1
:105B0000938747549043D4432285A685EF20600BAA
:105B10006A86EE86EF2060562A8DAE8D5286D68636
:105B20002285A685EF20E0092A84AE844A86CE86A7
:105B30006685E285EF20E0082A86AE862285A68566
:105B4000EF20A0532A86AE866A85EE85EF20E052CC
:105B50002A86AE865A85DE85EF202052F2506254A6
:105B6000D2544259B259225A925A025BF24B624CB9
:105B7000D24C424DB24D21618280975700009387ED
:105B8000E76603AB070083AB470097570000938796
:105B9000676603AD070083AD47008DB797570000D8
