:100000006F20003A130000001300000013000000EE
:100010001300000013000000130000001300000094
:100020001300000013000000130000001300000084
:08003000130000007300100032
:100038000000000000000000923600009436000026
:10004800000000003823000000000000000000004D
:100058003A2300003C2300000000000000000000DC
:10006800EA09000000000000000200000000000093
:1000780042230000442300004623000048230000D8
:100088004A2300004C2300004E23000050230000A8
:100098005223000054230000562300005823000078
:1000A8005A2300005C2300005E2300006023000048
:1000B8006223000064230000662300006823000018
:1000C8006A2300006C2300006E23000070230000E8
:1000D80072230000742300007623000078230000B8
:1000E8007A2300007C2300007E2300008023000088
:1000F8008223000084230000862300008823000058
:100108008A2300008C2300008E2300009023000027
:1001180092230000942300009623000098230000F7
:100128009A2300009C2300009E230000000000008A
:080138000000000000000000BF
:10020000130181F806C216C41AC61EC822CA26CC1B
:100210002ACE2ED032D236D43AD63ED842DA46DC76
:100220004ADECEC0D2C2D6C4DAC6DEC8E2CAE6CC46
:10023000EACEEED0F2D2F6D4FAD6FED8F3220030CF
:1002400096DA9702002083A262FF23A02200F32502
:1002500010342EC003A1C181EF10C061170300202C
:100260000323C3FD03210300824273901234D6524C
:10027000739002309240A2423243C2435244E2445D
:10028000724582551256A2563257C2575258E258FA
:1002900072598649164AA64A364BC64B564CE64C0E
:1002A000764D865D165EA65E365FC65F13018107DA
:1002B0007300203013000000130000001300000042
:1002C00013000000130000001300000013000000E2
:1002D00013000000130000001300000013000000D2
:1002E00013000000130000001300000013000000C2
:1002F00013000000130000001300000013000000B2
:1003000083A2C181938202E073900234170100201E
:100310000321C1F2024182403243C2435244E244CB
:10032000724582551256A2563257C2575258E25859
:1003300072598649164AA64A364BC64B564CE64C6D
:10034000764D865D165EA65E365FC65FD652A1020A
:1003500073900230A24213018107828013000000D3
:100360001300000013000000130000001300000041
:100370001300000013000000130000001300000031
:100380001300000013000000130000001300000021
:100390001300000013000000130000001300000011
:1003A0001300000013000000130000001300000001
:1003B00013000000130000001300000013000000F1
:1003C00013000000130000001300000013000000E1
:1003D00013000000130000001300000013000000D1
:1003E00013000000130000001300000013000000C1
:1003F00013000000130000001300000013000000B1
:10040000F322003093F272FF130380181203B3E259
:100410006200711523205500130585FA10C12115BE
:10042000232005009302000063870200711523203A
:100430000500FD12D5BF71150CC1828000000000BF
:1004400000000000000000000000000000000000AC
:10045000000000000000000000000000000000009C
:10046000000000000000000000000000000000008C
:10047000000000000000000000000000000000007C
:10048000000000000000000000000000000000006C
:10049000000000000000000000000000000000005C
:1004A000000000000000000000000000000000004C
:1004B000000000000000000000000000000000003C
:1004C000000000000000000000000000000000002C
:1004D000000000000000000000000000000000001C
:1004E0000000000000000000000000000000397162
:1004F00001436EC619A0397141536AC866CA62CCFD
:100500005ECE19A0397101535AD056D252D44ED66C
:100510004AD826DA22DC06DE3301614082824111AC
:100520004AC026C222C406C68282B24D4101024D93
:10053000924C224CB24B4101024B924A224AB249A0
:100540004101024992442244B240410182803D432C
:100550002A876373C3029377F700BDEFADE5937607
:1005600006FF3D8ABA960CC34CC30CC74CC7410763
:10057000E36BD7FE11E28280B306C3408A0697027E
:10058000000096966780A6002307B700A306B70071
:100590002306B700A305B7002305B700A304B700DF
:1005A0002304B700A303B7002303B700A302B700D7
:1005B0002302B700A301B7002301B700A300B700CF
:1005C0002300B700828093F5F50F93968500D58DB3
:1005D00093960501D58D61B7939627009702000089
:1005E00096968682E78086FA9680C1171D8F3E9682
:1005F000E374C3F8A5B7EFF29FF241113AC68547FD
:1006000019C9854789C901CA19C736877C0081463F
:10061000EF00704181473E85410125B7EFF23FF081
:10062000EF009063014531BF11CD854789CD01CEE3
:10063000EFF2FFEE32840146EF00C06C814708C044
:100640003E8501B785473E858280854795C10DC2AD
:10065000EFF2FFECB2878146135615003E85EF009E
:100660000071054781476303E50089473E85D1BD99
:100670003E85828085478DC105C2EFF25FEAB28771
:10068000135615003E85EF00700705478147630349
:10069000E5008D473E8575B53E858280EFF23FE8E7
:1006A0000581EF100017014569BDB707002093874A
:1006B00007239843636FA702D043B386C70063162E
:1006C000D50054413E85B296D4C35041B306C5000F
:1006D000631CD700B706002083A686216306D700D7
:1006E00054431843B29654C118C16303F50088C33C
:1006F0008280BA877DBFEFF2FFE041112AC6EF008A
:10070000B05EB706002083A78621370600209386B7
:1007100086211306C6213245A1EF37070020930733
:10072000072D93F5F7001307072D81C51387F700F1
:10073000419BB70500209385052323A2050098C19E
:100740008D65C115AE97C19B23A2070023A00700AA
:10075000B385E7409CC21CC3B707002023A2B72281
:10076000B707002023A0B722B70700804CC31CC2E4
:10077000032A0600B377AA0085E39307F5FF3957EC
:10078000636CF7009307050113F7F70041C313F7F4
:1007900007FF410763EBE706814489A022872E8487
:1007A00061A058C15CC011375840B706002093863D
:1007B00046229042B307E94023A0F90063F3C70043
:1007C0009CC2B70700203367EA009387872258C08E
:1007D0009843C10423200400050798C3EF00106D5F
:1007E00093F7F400D1CB8967938707807390073024
:1007F00037A6000037A50000130646A69305001192
:10080000130585A9EF60D02F01A0BA873707002014
:100810000329072293090722E360F9F8370700202C
:10082000032407231307072350406374F6000C408A
:10083000B5F59442E38286F61440044314C33307AB
:10084000F64093060002E3F1E6F63305F4009376F2
:10085000F500A1DA8967938707807390073037A680
:10086000000037A50000130646A69305F00C1305FB
:1008700085A9EF60F02801A02685410175B94DC119
:10088000EFF2FFC9B7070020032745FF83A7C72161
:100890002A84B376F7009DE2896793870780739077
:1008A000073037A6000037A50000130646A69305BB
:1008B0004012130585A9EF60B02401A0832605FF2F
:1008C0009DC28967938707807390073037A6000021
:1008D00037A50000130646A693055012130585A9F7
:1008E000EF60102201A093C7F7FFF98F232AF5FECE
:1008F000EF00903FB7070020938707229443032718
:1009000044FF130504FF369798C34533B70700200B
:100910009387C7229843050798C3EF00305915B154
:100920008280B7E700E041572387E7402386E7400E
:10093000B7F700E023A0070023A20700814694C771
:100940000147D8C783A501811307401F814633D6CD
:10095000E5023D4790CBD4CB98C38280EFF23FBCF9
:10096000411102C6F32750303EC6B2470D478D8B6A
:100970006384E7028967938707807390073037A6FF
:10098000000037A500001306C6AB9305600B1305E6
:1009900085A9EF60F01601A0B757002093870700E4
:1009A000BD8B9DC38967938707807390073037A6F7
:1009B000000037A500001306C6AB9305B00B130566
:1009C00085A9EF60F01301A0A93FB7E700E0116728
:1009D00023A0E710056723A0E710B707002023A88E
:1009E000071E393A01454101A9BE397106DE16DC00
:1009F0001ADA1ED82AD62ED432D236D03ACE3ECCEF
:100A000042CA46C872C676C47AC27EC07311013427
:100A100089679387078073900730B7F700E023A2B8
:100A20000700EF00102E11C5B7E700E0116723A003
:100A3000E7208967938787887390073073110134A3
:100A4000F250E2525253C2533255A25512568256B8
:100A50007247E2475248C248324EA24E124F824F6E
:100A60002161730020308967938707807390073076
:100A7000B70700209387071F9843050798C3828014
:100A8000370700201307071F1C438DE7EFF23FA92C
:100A90008967938707807390073037A6000037A5D2
:100AA00000001306C6AB93053010130585A9EF604F
:100AB000300501A0FD171CC391E7896793878788DC
:100AC000739007308280930785007D575CC118C5FD
:100AD0005CC51CC923200500828023280500828074
:100AE0009841FD5693078500631ED7001C49D843E3
:100AF000D8C10CC79CC5CCC31C4188C985071CC183
:100B00008280B687D4439042E37DC7FECDB754417F
:100B100018451C4998C654C3D4436393A600D8C350
:100B20009843232805007D1798C388438280EFF2FD
:100B30001F9F41112AC6053F3245005D913713358D
:100B400014004101FDBAEFF29F9D32893041045DEE
:100B50002A8401EE1C41014591E70844EF1020066C
:100B600023240400850404DCE9BA63100902484127
:100B7000EF50504E5C4038400145BA9718445CC075
:100B8000E3E2E7FE1C405CC0F1BF4845EF50904CEB
:100B90003C4058441440B307F0403E9758C4637536
:100BA000D7001844BA975CC489470145E31CF9FA99
:100BB000D5D8FD1445BF30410DC2EFF25F965845C0
:100BC0001445AA87329758C56364D700184158C5A1
:100BD0002E85CC47EF501048ADB28280EFF23F94A3
:100BE0002A8451358344540413094402E204E18405
:100BF00063449002FD57A302F4045935AD35834494
:100C0000440413090401E204E18463439002FD57A4
:100C10002302F404B53535B25C50E9DF4A85EF00B4
:100C2000F05A19C1EF003077FD14E204E184C9B72E
:100C30001C48F1DF4A85EF00705919C1EF00B0750B
:100C4000FD14E204E184D1B7EFF27F8D41111DE183
:100C50008967938707807390073037A6000037A510
:100C60000000130606AF93050011130585A9EF6078
:100C7000206901A05C5D2EC62A84BDC33841B3B78C
:100C8000E702B9EFCD333040585C1440232C040206
:100C9000B307E602B24554C03387F600918FB6978A
:100CA0005CC4FD572302F40418C4A302F40495E1C4
:100CB0001C4899CB13050401EF00505111C5B7E74B
:100CC00000E0116723A0E720653B054541016FF077
:100CD0005F8713050401C53B13054402ED33EDB7EF
:100CE0008967938707807390073037A6000037A580
:100CF0000000130606AF93055014130585A9EF6095
:100D0000206001A0EFF2BF81411121C1B3B7A5025C
:100D1000AA8485EF3305B502930770FB63E7A7024A
:100D2000130585042EC6C13A2A8401CDB245AA878F
:100D300099C1930785042CC01CC044DC85452285DD
:100D40002137228541016FF0CFFF896793870780A4
:100D50007390073037A6000037A50000130606AFD2
:100D60009305601C130585A9EF60805901A0EFF27F
:100D70008FF8011132C61DE1896793870780739050
:100D8000073037A6000037A50000130606AF93050D
:100D9000E032130585A9EF60A05601A02A842E89B0
:100DA000B6848DE53C419DC3896793870780739026
:100DB000073037A6000037A50000130606AF9305DD
:100DC000F032130585A9EF60A05301A0894763980D
:100DD000F402585C85476304F702896793870780AC
:100DE0007390073037A6000037A50000130606AF42
:100DF00093050033130585A9EF60805001A0EF0033
:100E0000505A15E5B247014C85C78967938707801B
:100E10007390073037A6000037A50000130606AF11
:100E200093053033130585A9EF60804D01A0014C77
:100E3000094BFD59930B040137EA00E0916AADA01C
:100E4000B24781E73539014549A863150C002808E8
:100E5000EF0090463531EF0020693131834744047B
:100E6000E207E187639437012302040483475404B3
:100E7000E207E18763943701A302040411316C0097
:100E80002808EF00D04435E5F93E185C5C5C631936
:100E9000F704FD36B2455E85EF00702722853D3BA5
:100EA000EF00D00021C5054C7D3E185C5C5C63649E
:100EB000F700E39764F92686CA85228569315C507C
:100EC00089C713054402EF00703011C5B7E700E091
:100ED000116723A0E7206D36054505616FF02FE50A
:100EE00045362285E539EF00607C75BF23205A2105
:100EF0005DBF2285E531EF00607BB1B7EFF2AFDF78
:100F0000011132C61DE1896793870780739007300E
:100F100037A6000037A50000130606AF930510554D
:100F2000130585A9EF60C03D01A02A84AE898DE537
:100F30003C419DC38967938707807390073037A62C
:100F4000000037A50000130606AF930550551305A2
:100F500085A9EF60E03A01A0EF00B04415E5B24783
:100F6000014985C78967938707807390073037A643
:100F7000000037A50000130606AF9305A055130522
:100F800085A9EF60E03701A001497D5A930A440228
:100F900037EB00E0916B9DA0B24781E7D534014566
:100FA00061A0631509002808EF001031D13C2D2BFA
:100FB0005D3C83474404E207E187639447012302D1
:100FC000040483475404E207E18763944701A302C2
:100FD00004047D346C002808EF00702F29ED228571
:100FE000B93631C5B2455685EF0070122285FD36FF
:100FF000EF00C06B19E123207B210549AD34045C6F
:10100000C1DCCE852285FD147D3604DC1C4899CBDD
:1010100013050401EF00901B11C5B7E700E011674D
:1010200023A0E720B13C054505616FF04FD0228534
:101030007536AD2DD9B7228555368D2D2285C53C07
:101040004DDDB1BF15E5EFF28FCD8967938707803E
:101050007390073037A60000856537A5000013069A
:1010600006AF938585AC130585A9EF60602901A0C3
:101070009DCD373600209306062D81470147130684
:10108000062D214883A846006398A80093173700CF
:10109000B2978CC3C8C321A891E783A806006393C5
:1010A0000800B6870507A106E31E07FDFDF3828051
:1010B000EFF2EFC641112A842EC632C4EFF0BF9A78
:1010C000834744047D572246E207E187B245639493
:1010D000E70023020404834754047D57E207E187B5
:1010E0006394E700A302040432C62EC4EFF05F99B4
:1010F0001C5CA245324689E713054402EF00B005A7
:101100002285E93C41016FF0CFC337070020130768
:10111000C7231C439443B70700209387C72581E664
:101120007D5798C38280184358471843DDBFEFF2BC
:101130006FBD37090020B70700209304892383A9D6
:10114000C7262A849C4088404111A38007061105C8
:101150002EC6EFF0DF9B7D5793078923B245631CB2
:10116000E40295C9B73700209387873D9440D84360
:1011700098C610479440D0C694401047910654C278
:101180009440910614C798405CCB9843050798C3D8
:1011900041016FF06FBA98434E9440C3637B3401B2
:1011A00037070020032507248C439105EFF05F9358
:1011B000C5B7370700200325C7238C439105EFF0FF
:1011C0003F92B70700209387C7259843E372E4FC5A
:1011D00080C37DBFEFF20FB337340020B709002082
:1011E0001304C43E370A0020938489249C40EDDF19
:1011F000EFF07F875C4403A9C70013054900EFF0B7
:101200001F9113074A241C43FD171CC39C40FD1764
:101210009CC0EFF0FF8603250903EFF04FE64A85F7
:10122000EFF0EFE5D1B7EFF20FAD13192600AA8A60
:101230004A85AE89368BBA8B3E8AEFF0CFCB05C597
:10124000AA8413054006EFF00FCB2A8411C904D9F4
:10125000814793060002639A0900230A050225A02C
:101260002685EFF0CFE17D55D1AA3387F90003073A
:1012700007003306F400230AE60201C78507E39658
:10128000D7FEA3090404994763F47703896793871A
:1012900007807390073037A6000037A500001306BB
:1012A00046B193057039130585A9EF60600501A06B
:1012B000930944004E8523267403232A7405232CA6
:1012C0000404EFF09F8113058401EFF01F811D4797
:1012D0001305C9FF33077741269500C818CC40D0C5
:1012E000230E0404A30E0404230F0404A30F040418
:1012F00023000406A30004065A86D6854199EFF020
:101300002F9008C063040A0023208A00EFF0AFF595
:10131000B7070020938747249843370900203735C3
:101320000020050798C3130789231843370A0020B4
:101330001309892393040531130A8A2663120710BF
:1013400023208900984385476318F7081305053162
:10135000EFF06FF713854401EFF0EFF61385840289
:10136000EFF06FF61385C403EFF0EFF51385040576
:10137000EFF06FF513854406EFF0EFF41385840763
:10138000EFF06FF437350020130BC5391305C5395D
:10139000EFF06FF337350020930A053B1305053B4B
:1013A000EFF06FF2373500201305453CEFF0AFF159
:1013B000373500201305C53EEFF0EFF0373500203C
:1013C0001305853DEFF02FF0B707002023AE67230C
:1013D000B707002023A05725B707002093870725CC
:1013E0009843050798C337070020130747255C5427
:1013F000144363F3F6001CC35147B387E702BE945E
:10140000DC4098471CC458C498472322370123A4C2
:1014100037019C4044C885079CC0EFF06FE68327E6
:101420000A00054581CF83270900D8575C546377AC
:10143000F700B7E700E0116723A0E7206FF02F8FD8
:1014400083270A00D1FB83270900D8575C54E3E5C2
:10145000E7F82320890049B7EFF26F8CB707002027
:10146000B7A50000371500009387872501478146FF
:1014700013060010938585B31305451D6D33054490
:10148000631E8502EF00702D631A850289679387BA
:10149000078073900730B70700207D5723AEE724FD
:1014A000B707002023A4A726B707002023A60726F6
:1014B000EFF0CFCA83A741806FF0AF88FD57E31BE1
:1014C000F5FE8967938707807390073037A6000081
:1014D000856537A50000130646B19385058413057D
:1014E00085A9EF50F06101A0B70700209387C724BA
:1014F0009843050798C38280B707002003A5C72635
:101500008280B707002083A7C72463980718EFF2EB
:101510000F81B70700209387C7268043050480C347
:1015200039E8B70700209387C7239843184305C7B6
:101530008967938707807390073037A60000856519
:1015400037A50000130646B1938575AC130585A930
:10155000EF50105B01A037070020130707249443C6
:10156000104390C3B707002014C3938707269843FE
:10157000050798C3593E370600209307C6259C43AC
:1015800037370020B70500201306C625130707319B
:101590009385852301456375F4029C41D146DC5750
:1015A000B387D7023E971843854763F3E7000545A5
:1015B000B707002083A7072791C305456FE07FF891
:1015C000370E0020B70E0020514F9307CE239443CF
:1015D000944281E6FD571CC2C9B79C43DC47DC47F7
:1015E000D4436374D40014C24DBF83A8870003A8FA
:1015F000C700D44B1383470023A4080123221801FA
:1016000083A846006394680023A2060103A806008D
:1016100023AA07007D1823A00601945795CA03A8A2
:10162000C70183A8070283AF46002324180183A8BB
:10163000070223A208011388870163940F0123A2E4
:10164000160103A8060023A407027D1823A00601A3
:1016500093864E2503A8C70283A8060063F40801F9
:1016600023A00601B306E803BA9683A8460083AF19
:10167000880023A4170123A6F70183AF880023A2C3
:101680006F0023A46800D4CB9C4285079CC29C4178
:10169000DC57E36CF8F205450DBFB70700209387D0
:1016A000472698430145050798C38280EFE29FE5EE
:1016B000370400201304C4241C40411185E78967C6
:1016C000938707807390073037A60000856537A59C
:1016D0000000130646B19385358B130585A9EF509D
:1016E000304201A0EFF02FB81C40FD171CC01C4079
:1016F00089CB01452AC6EFF0AFB8324541016FE012
:10170000BFE3B707002083A74724E5D7B7360020FB
:101710003735002081479386463C370F002013055C
:101720000531D14837030020370E0020854E59A8D7
:10173000DC46DC47CC4F9053985790C503A807026E
:101740002322B80003284700938587016313B8005C
:1017500050C3104323A407027D1610C38C47D04703
:10176000D84B1388470090C54CC24C436393050186
:1017700050C3104323AA07007D1610C313074F253B
:10178000D0570C4363F3C50010C3330716032A97E1
:101790004C4383AF85008CC723A6F70183AF850038
:1017A00023A20F0123A405010C43D8CB85050CC34C
:1017B00013078323184358576366E60013070E2761
:1017C0002320D70198422DF799C3EFF01F94B70754
:1017D00000201387472604431384472691CC3709FA
:1017E00000208549393B09C59307092723A0370104
:1017F000FD14EDF823200400B707002083A7072776
:10180000E38907EEB7E700E0116723A0E72005456D
:10181000D5B519E5B7E700E0116723A0E72082807E
:10182000EFE2FFCFB707002083A7C72441119DC374
:101830008967938707807390073037A6000037A524
:101840000000130646B193059054130585A9EF5087
:10185000302B01A02AC6493932458145EFF03F8D32
:10186000B13511E5B7E700E0116723A0E72041019A
:101870006FE03FCDB707002003A7C724B7070020BC
:101880009387072701C7054798C3828023A00700D5
:10189000B707002013874725184313864725B73716
:1018A0000020938707315148B3060703B385D7005B
:1018B000884115C5C841A106BE964841C8C16314F8
:1018C000D5005441D4C1D146B306D702B697DC4304
:1018D000D447B707002023ACD72218C2828015E76F
:1018E000EFE2FFC38967938707807390073037A6BD
:1018F0000000856537A50000130646B1938525C015
:10190000130585A9EF50D01F01A07D1771BFEFE22D
:101910001FC105E58967938707807390073037A655
:101920000000856537A50000130646B19385C5C143
:10193000130585A9EF50D01C01A0B70700202E8405
:1019400083A58723E105EFF0AF9985452285EFF068
:101950000FFE6FE01FBFEFE29FBC2A8705E5896796
:10196000938707807390073037A60000856537A5F9
:101970000000130646B1938525C5130585A9EF50D0
:10198000301801A0B70700209387872354432E8582
:101990008C4303A88600D4CD8C4323A0050303A861
:1019A00007008C46610823A2050103A807009C4399
:1019B000610823A4060198D71C4385071CC311C2E4
:1019C0007D55B285EFF0AFF66FE0BFB75C45DC4701
:1019D00095E7EFE2DFB4896793870780739007305C
:1019E00037A60000856537A50000130646B193852C
:1019F00025C8130585A9EF50B01001A0D04F94530E
:101A000098579385870114C6D0C250436313B6001C
:101A100054C3144323A40702FD1614C33707002040
:101A20000327C724D45725EF8C47D047D84B90C500
:101A3000D04748434CC2938547006313B50050C359
:101A4000104323AA07007D1610C337070020130791
:101A5000472510436373D60014C351473386E6020B
:101A6000373700201307073132975043084690C795
:101A7000C8C708464CC10CC6D8CB1C4301458507D6
:101A80001CC3B707002083A78723DC5763F8D70060
:101A9000B7070020054723A8E7260545828037378A
:101AA00000201307473C50430846D0CF88D3084650
:101AB0004CC10CC698D7D1B7B707002083A707261B
:101AC0001CC1B707002083A7C7265CC18280EFE254
:101AD0001FA5411105E5896793870780739007303B
:101AE00037A60000856537A50000130646B193852B
:101AF000D5CF130585A9EF50B00001A085E5896712
:101B0000938707807390073037A60000856537A557
:101B10000000130646B19385E5CF130585A9EF5064
:101B2000207E01A02EC62AC4EFE0FFF33707002075
:101B3000B70700201307872383A6C7261C43224527
:101B4000B24583C7170699CB1C43A38007060544FB
:101B5000EFE01FF3228541016FE0BF9E9C417D575E
:101B60000144E387E7FE3706002003260626032804
:101B7000050058416307C80063E5E60023A005009F
:101B8000F9B73386E640E37BF6FE958FBA979CC1A2
:101B90002537014475BFB7070020054723A8E7266E
:101BA0008280B707002083A78726054581CBB7072A
:101BB000002003A5C724133515000605828011E512
:101BC0000145828001456FE0DF97EFE25F95B7073F
:101BD000002083A787232A846385A70289679387C8
:101BE00007807390073037A60000856537A5000091
:101BF000130646B19385F504130585A9EF5040708F
:101C000001A0BC4F85E789679387078073900730F1
:101C100037A60000856537A50000130646B19385F9
:101C20000505130585A9EF50A06D01A0545578490D
:101C3000FD173CCDE388E6F8D1F7930445002685EF
:101C4000EFE0FFEC7C481D471D8F18CC37070020C4
:101C50001307472514435CD463F3F6001CC35147B4
:101C60003387E702B7370020938707310545BA97D6
:101C7000D843144718C454C41447C4C204C7984373
:101C80005CC8050798C381B7EFE27F89370400205D
:101C9000EFE07FDD130404281C40B1E73735002056
:101CA0001309054013050540EFE0FFE1373500203B
:101CB0009304454113054541EFE0FFE0B7070020DD
:101CC00023AA27270146B7070020C145114523ACA9
:101CD0009726EFF02F8308C019C5B7A5000093859C
:101CE00045B6EFF02FB6EFE0BFD96FE09F85EFE28A
:101CF0001F834CC108C9AA876362B602184D158EAE
:101D00000545637BE60093854700B707002003A5E0
:101D10008727EFE0FFDC01456FE0BF826375D600E7
:101D20000545E3FBD5FE93854700B707002003A5D3
:101D30004727C5B7EFE2AFFE2A84AE8432890C4C48
:101D4000A6864A86A69522855D3719E16FE06FFF6A
:101D50001C4C2285BE941C508297D5B7EFE22FFC15
:101D6000B707002083A747274111AA84DC472EC666
:101D7000C04713054400EFE09FD983474402324631
:101D800013F7470011CBA68522856D371C5022859D
:101D9000829741016FE0EFFAF99B2302F402FDB74D
:101DA000EFE2EFF7370400209306442798421C43E4
:101DB00091EBB707002093878727904398C390C281
:101DC0006FE02FF85C47FD558843493FF1BFEFE2D4
:101DD0008FF229694111B70A0020B7090020370B9B
:101DE0000020B70B0020130909B483A74A279843A2
:101DF00029CBDC47814C03AC0700EFF0EFEEEFF0AE
:101E0000AFEF83A7C9272A849384C927130A0B2815
:101E1000636CF50288C0638F0C0283A78B27904305
:101E20001336160003250A00B3058C40EFF04FA8C7
:101E3000EFF0DF8711EDB7E700E0116723A0E7209F
:101E400001A8854C014C55BFA13F80C0EFF01F8613
:101E5000214C05A00146E36785FDEFF03F85A28593
:101E60006285ED3DF5B79247B2458297824763DDC3
:101E7000070003250A0001468A85EFF02F8835D533
:101E800082472245E3C107FE22445C4895E3EFF018
:101E9000AFE69C40AA8C6373F5001937824723A0F4
:101EA0009401FD17E367FCFC8A07CA979C4382876D
:101EB00013054400EFE0BFC5D9BF834744020C4C73
:101EC000924693E717002302F4026686B6952285B0
:101ED000393D45D18347440213F7470019CB1C4CC9
:101EE000924566862285BE95B1351C502285829723
:101EF00049B7F99B2302F402CDBF83474402F99B03
:101F00002302F402BDB783474402924593E71700CA
:101F10002302F4020CCC9DE18967938707807390BC
:101F2000073037A6000037A500001306C6B6930594
:101F30009035130585A9EF50A03C01A0E686668682
:101F4000E69522856D3335B78347440213F72700A2
:101F50005DF72285EFE0BF9229BFEFE24FDC2D3322
:101F6000B707002083A707289DE389679387078029
:101F70007390073037A6000037A500001306C6B6D9
:101F800093059011130585A9EF50803701A0B7077D
:101F90000020B7A500003725000093874728194780
:101FA000814613060010938505B91305E5DCEFF0B3
:101FB0008FA745DD6FE0EFD8EFE2CFD441112E843B
:101FC000AA84B2853A853E8936C642C43AC2EF3009
:101FD0005071AA858840EF30100F124788C0BA852B
:101FE0003A85EF301070CA85EF30B06FCA85EF3098
:101FF000506F0C40EF30300D22482A8908C0C2854E
:102000004285EF30106ECA85EF30F00BAA854A8505
:10201000EF301042B24683A904002A893685CE8566
:10202000EF402015CA85EF30D06BCE85EF30B00978
:10203000B7A7000088C003A507BBCA85EF4060139F
:10204000AA850840EF30F06908C041016FE0CFCEAB
:10205000EFE26FCA2A844841AE84EF406056AE89F1
:102060000C40832A84002A892E85EF3090672A8AC3
:10207000D6855685EF30F066AA855285EF30B004DC
:10208000EF400054EF10B02C2A86AE864A85CE85EC
:10209000EF20A047EF1000792A8C0840AE8CEF406B
:1020A0002052AE894C40832A84002A892E85EF3045
:1020B00050632A8AD6855685EF30B062AA8552854C
:1020C000EF307000EF40C04FEF1070282A86AE86C8
:1020D0004A85CE85EF206043EF10C074B7AA000098
:1020E00003A68ABA83A6CABAB7A7000003AA87B90B
:1020F000B7A7000083A9C7B9AA8BB7A700002E8B8A
:102100006285E68503A907BAEF20B031EF4000569B
:10211000504452884A87CE87AA869385C400268574
:10212000613D03A68ABA83A6CABAB7070080B3C7BF
:102130006701BE855E85EF20D02EEF40205310480A
:10214000AA865288CE874A879385440113858400E6
:10215000A5356FE0CFBD2DC5EFE2CFBA2A842E8919
:10216000054591CD835584004840B284B689054A1F
:10217000E92E81E8484083558400652E01456FE0D3
:10218000AFBB834509000840EF00E0770840894570
:10219000EF002078E31C45FF084093050008EF009E
:1021A0004077E30B45FF050963880900084085096E
:1021B000EF00C075A38FA9FEFD14C204C18055BFF6
:1021C00005458280EFE20FB4AA84B9CD370403003D
:1021D0000904054A3769004093090980B7050200E0
:1021E0004E85812B65FD1305098085453709030060
:1021F000B769004079290509938A0980CA855685FF
:10220000212B6DDD93951400528693F5E50F138510
:102210000980B7640040E12193840480A28526856B
:10222000E5296DDD6FE04FB1370407001304240882
:10223000014A4DB7EFE20FAD37040010B76400401C
:102240002A8913040408138A04808549A2855285CB
:10225000CD21E31D35FFCA85138504808D296FE0EC
:10226000AFADEFE22FAA37040010B76400401304AB
:102270000408938904800549A2854E855D29E31DE4
:1022800025FF85451385048025216FE0EFAAB70659
:1022900000209386862883C706003707002013078F
:1022A00047293E9719468507B3E7C702034507004C
:1022B0002380F6008280EFE2EFA485453709001005
:1022C000B7640040B7090020F53D01441309090433
:1022D0009384048093894929954A194ACA85268599
:1022E000892911C92685FD26B307340105042380F9
:1022F000A7001374F40F6318540185659385058056
:102300002685C52EE1BFE31B44FD37040010B764EA
:10231000004013040404938904800549A2854E8576
:102320000929E31D25FF138504808545512619459C
:102330006FE08FA001A001A001A001A001A001A059
:1023400001A001A001A001A001A001A001A001A085
:1023500001A001A001A001A001A001A001A001A075
:1023600001A001A001A001A001A001A001A001A065
:1023700001A001A001A001A001A001A001A001A055
:1023800001A001A001A001A001A001A001A001A045
:1023900001A001A001A001A001A001A001A001A035
:1023A00097E1FF1F9381016517310020130181C55B
:1023B00017850000130545E997E5FF1F938585C440
:1023C0001386818263FAC5008322050023A055008D
:1023D00011059105E3EAC5FE17E5FF1F130505E4A6
:1023E000971500209385C5086377B5002320050065
:1023F0001105E36DB5FEFD42739002BC89427390F6
:102400004280B72200009382028073A0023097E2DC
:10241000FFFF9382A2C293E2320073905230EF002A
:1024200070329712000093826234739012347300FA
:1024300020309C4513F7070113F8F70001C7D84176
:102440003368E80037270240145B3707000F758FA9
:1024500055EF370700208546A304D72837170140DA
:102460006317E50003D7050035832390E50083D586
:10247000050013F7F50F39C318418146854E3D4FCE
:10248000930F800293028004214E3396DE00B3F84E
:10249000C500631116039398260033131F011343DD
:1024A000F3FF3377E300B318180133E7E8006399CB
:1024B000F70750C98506E39AC6FD18C11307F00F48
:1024C0006375B70454412146854E3D4F930F8002FA
:1024D00093028004414EB398CE0033F71501639206
:1024E000E8021317260001173313EF001343F3FF1D
:1024F000B376D3003317E800D98E6397F703232A06
:1025000015010506E319C6FD54C182803717014045
:10251000E31FE5F4370700200347972829DB99B725
:10252000E39A57F810C979B7E39D57FC23281501A2
:10253000C9BFB71701406318F500B707002083C76C
:10254000972891C3B5810CC98280B71701406318E1
:10255000F500B707002083C7972891C3B5814CC900
:102560008280EFD2DFFB79712A84835445006808AA
:102570002EC6F52A925737470F001307072433D783
:10258000E702C204C18093F404FCC204C180B245D6
:1025900061651305056A131607014182D18C231268
:1025A000940083560400C206C182F99AC206C18211
:1025B0002310D40094416364D5068606B3D7D702AE
:1025C0009146139707014183BA876373D7009147F8
:1025D00005064206C2074182C1832310C402231E9E
:1025E000F4008357040003D7450083D6A50093E782
:1025F00017002310F40083570400558FC207C183CE
:1026000093F757BFD98F2310F40003D7850083D7E2
:10261000C500D98F2314F40045616FD09FF203D514
:10262000650031667D16631EC5020D46B386C6027F
:10263000B3D7D702C207C1839396470199E293E7C4
:102640001700A166D58F9306C0123307D7029306F1
:10265000803E3347D7020507420741832310E40237
:10266000BDBF6546B386C602B3D7D7029166C2071F
:10267000C183D58FD1B78357050091C593E7170064
:102680002310F5008280C207C183F99BC207C18372
:10269000C5BF8357050091C593E707102310F500C8
:1026A0008280C207C18393F7F7EFC207C183FDB7EA
:1026B0008357050091C593E707202310F50082801A
:1026C000C207C18393F7F7DFC207C183FDB72318A1
:1026D000B5008280035505011375F50F828093F7CD
:1026E000E50F19C293E71500C207C1832318F5004F
:1026F0008280035705009385058091E9856793875C
:102700000780D98FC207C1832310F5008280FD772F
:102710009387F77FF98FCDBF835745010355850117
:1027200042055D8D6D8D220521810D8D13351500BE
:102730008280411102C402C693D7C5012AC63EC495
:10274000A247A205A18199CBB247D1073EC6B247A5
:10275000884341016D8D3335A0008280B247C1812D
:10276000E107EDB7B707002023A6A7288280371717
:1027700002405C439146B18B6385D700A1466386D6
:10278000D706B7177A00938707201CC13716024077
:102790005C4237070020130707009183BD8BBA976F
:1027A00083C607001C41B3D7D7005CC15442A18245
:1027B0009D8ABA9683C60600B3D6D70014C5544284
:1027C000AD829D8A369703470700B3D7E7005CC503
:1027D00058423983937637001387818036970347B1
:1027E0000700B3D7E7021CC982805C435843C16627
:1027F000C983BD8B758F8907C5466393D700C947C9
:1028000001EF3747024003270780418B09CF371775
:102810007A001307072021A8371702405843931660
:10282000E700E3D606FE37173D0013070790B3878E
:10283000E702A1BF99C5371702405C4B5D8D48CBBD
:102840008280B7170240D84B1345F5FF798DC8CB6E
:10285000828099C5371702401C4F5D8D08CF82805A
:10286000B7170240984F1345F5FF798D88CF8280C6
:1028700099C5371702405C4F5D8D48CF8280B717EE
:102880000240D84F1345F5FF798DC8CF828003579A
:1028900005008D679387070483D625007D8F83D736
:1028A0000500D58F83D64500D58F83D66500D58F9B
:1028B00083D68500D58F83D6A500D58F83D6C50056
:1028C000D58F83D6E500D58FD98F2310F500035718
:1028D000C501FD779387F77FF98F231EF50083D716
:1028E00005012318F50082808357050091C593E701
:1028F00007042310F5008280C207C18393F7F7FB1A
:10290000C207C183FDB72316B50082800355C500F9
:102910008280035585006D8D3335A0008280EFD213
:102920001FC083560501F577FD17F58F83D6650027
:1029300003D7C5007971D58F2318F5008356C500DC
:10294000FD779387379FF58F83D645002A842EC65F
:10295000D58F83D68500D58F83D6A500D58F231636
:10296000F50083574501C207C18393F7F7CFD98F8D
:10297000231AF5006808EFF09FDFB74701409387FF
:102980000780B245631DF404A2578356C40065470F
:10299000B387E702C206C186984163D406040607DE
:1029A0000356C4004206B3D7E70213074006418628
:1029B000B3D6E702B3F7E7029206635606028E0724
:1029C00093872703B3D7E70213F77700B367D700DE
:1029D000C207C1832314F40045616FD09FB692579C
:1029E0006DB70A0775BF920793872703B3D7E7022E
:1029F000BD8BD58FF1BF81C98357C5000967D98FBA
:102A00002316F50082800357C500F977FD17F98F6B
:102A1000C5BF93F5F51F2312B5008280035505004D
:102A20006D8D3335A0008280B7F700E0D843814632
:102A3000799BD8C337070020035707293306A7021D
:102A400090CBD4CB98431367070198C3984313677F
:102A5000170298C3D843058B75DF9843799B98C3B9
:102A60008280EFD2DFAB2A84116501118545110503
:102A7000EFF03FDE930700202312F10037150140ED
:102A80008D473EC44C00E147130505803EC6EFF07C
:102A90005F9A22C837440140B70708000C081305A5
:102AA00004803ECC02CA231E0100953D85451305D6
:102AB0000480913705616FD0DFA8EFD2BFA4B7447F
:102AC0000140AE8932890144938404806345240126
:102AD0004A856FD07FA6930500042685813765DD82
:102AE000B38789008385070026850504C205C18157
:102AF0000D37E9BF1387C1801C43B736002093868A
:102B0000C6463E95636BD500B75600209386068077
:102B100063E5A60008C33E858280FD57EDBFEFD276
:102B20001F9D397181450545EFF0DFD0814509458D
:102B3000EFF05FD081451145EFF0DFCF8145130500
:102B40000004EFF03FCF81450565EFF0BFCE814532
:102B50000545EFF01FD085451145EFF09FCF854526
:102B60002145EFF01FCF85454145EFF09FCE8145D0
:102B700013050020EFF0FFCD814513050040EFF075
:102B80005FCD8569138509808145EFF09FCC854530
:102B90000565EFF01FCC81450965EFF09FCB8145BE
:102BA0001165EFF01FCB81450545EFF07FCC8145E6
:102BB0000945EFF0FFCB81451145EFF07FCB814513
:102BC0002145EFF0FFCA138509808145EFF05FCA08
:102BD00081451165EFF0DFC9814537050200EFF04F
:102BE0003FC9814537050400EFF09FC8814537058F
:102BF0000800EFF0FFC7814537052000EFF05FC701
:102C0000854537054000EFF0BFC681453705800098
:102C1000EFF01FC6814537050002EFF07FC5814503
:102C200037050008EFF0DFC4814537050010EFF0ED
:102C30003FC4A9653146938585A5481037140140E6
:102C4000EF305041130C80044C101305048062D601
:102C5000EFF02FFEE14489484C1013050480231245
:102C6000110346CE26D6EFF0CFFC91474C1013054A
:102C700004802312F10226D6EFF0AFFB21484C105E
:102C8000130504802312010342CC26D6EFF06FFA1D
:102C900041464C10130504802312C10232CA02D6E9
:102CA000EFF02FF9930600024C1013050480231255
:102CB000D10236C826D6EFF0CFF71307000411492A
:102CC0004C10130504802312E1023AC64AD6EFF0F5
:102CD0004FF6930700084C10130504802312F102ED
:102CE0003EC426D6EFF0EFF4930D00104C10130500
:102CF00004804AD62312B103EFF0AFF3130D002086
:102D00004C101305048026D62312A103EFF06FF2B6
:102D1000930C00404C101305048026D62312910317
:102D2000056AEFF00FF1130A0A804C1013050480B6
:102D300026D623124103EFF0CFEF930580022ED663
:102D4000130504804C1023123103EFF08FEE896BD2
:102D50004C10130504804AD623127103EFF06FED77
:102D6000116B4C10130504804AD623126103EFF057
:102D70004FECE17A4C101305048026D62312510340
:102D8000EFF02FEB85452312B102130504C04C1060
:102D900026D6EFF00FEAF2484C10130504C02312B8
:102DA000110326D6EFF0EFE84C10130504C026D629
:102DB00023122103EFF0EFE762484C10130504C023
:102DC0002312010326D6EFF0CFE652464C1013052E
:102DD00004C02312C10226D6EFF0AFE5C2464C1064
:102DE000130504C02312D1024AD6EFF08FE4324714
:102DF0004C10130504C02312E10226D6EFF06FE356
:102E0000A2474C10130504C02312F10226D6EFF09E
:102E10004FE24C10130504C026D62312B103EFF085
:102E20004FE14C10130504C026D62312A103EFF086
:102E30004FE0F1444C10130504C026D62312910331
:102E4000EFF02FDF4C10130504C026D623124103E8
:102E5000EFF02FDE4C10130504C062D623123103AD
:102E6000EFF02FDD4C10130504C04AD62312710376
:102E7000EFF02FDC4C10130504C04AD62312610377
:102E8000EFF02FDB4C10130504C04AD62312510378
:102E9000EFF02FDAC1444C103715014026D623122B
:102EA0006103EFF00FD94C103715014026D62312DD
:102EB0005103B7340020EFF0CFD793848442B73763
:102EC00001409CC093074010DCC4C16789079CC8BF
:102ED000B707380093870720C0C0DCC81164B70764
:102EE00005009CCC80C49385A40037350140EFF0E9
:102EF0001F9A854537350140EFF01F9F83D5840029
:102F0000C840EFF00FE3B7270600938707A83ED825
:102F1000B707FFBF3EDA231E8102B70700043764FC
:102F200000409387F7020C18130504803EDCEFF095
:102F30004FE3130504808545EFF0EFF30145216170
:102F40006FD0AFDEB71702409843B706FFF84111C4
:102F50001367170098C3D84337060200758FD8C38C
:102F60009843B706F7FEFD16758F98C39843B706CA
:102F7000FCFFFD16758F98C3D843B70681FFFD1679
:102F8000758FD8C337079F0098C702C402C69843FD
:102F9000C166558F98C3B716024005679C42F18FF2
:102FA0003EC6A24785073EC4B24781E7A247E397E2
:102FB000E7FEB71702409C431397E70063550706E7
:102FC00085473EC632478547631DF704B717024061
:102FD000D843B706C1FFFD16D8C3D843D8C3D843DA
:102FE000D8C3D843758FD8C3D843B7063D00558F93
:102FF000D8C39843B7060001558F98C398439316DA
:103000006700E3DD06FED843B7160240719BD8C3C4
:10301000D84313672700D8C32147DC42B18BE39E16
:10302000E7FE4101828002C671BFB7160240DC4252
:103030001146B18B138701816385C70021466389DF
:10304000C702B7177A00938707201CC3B71702403F
:10305000DC43918393F6F700B707002093870701BD
:10306000B69783C607001C43B3D7D7001CC3828022
:10307000DC42D4424166C983BD8BF18E8907454647
:103080006393C700C94781EEB746024083A6068016
:10309000C18A89CEB7167A009386062021A8B71672
:1030A0000240D4421396E600E35606FEB7163D00F2
:1030B00093860690B387D70249BF05CDEFD22FC6BE
:1030C0002A843735002093040545138684009385B0
:1030D000440013050545F928DC40B70600809840F8
:1030E000B58FDCC05CC09C4418C001451CC46FD0C7
:1030F0004FC505458280EFD28FC2AA8437350020A4
:103100001304C54513068400930544001305C54503
:10311000A92258401C40B7060080358FB58F1CC0CF
:1031200058C09CC01C44D8C001459CC46FD06FC11E
:10313000EFD2EFBE2A8437350020930445441305AF
:103140004544D126D840B70700800145B98F9CC0BF
:103150001CC09C4458C01CC46FD0AFBEEFD22FBC63
:10316000814513058006EFF0EF851305B006EFF0FB
:103170006F8C0145EFF00F8CEFF0AF8E814513059A
:103180008006EFF02F846945EFF0CF8A1545EFF008
:103190006F8AEFF00F8D814513058006EFF08F8267
:1031A0007145EFF02F894145EFF0CF88EFF06F8B3D
:1031B0006FD02FB9EFD20FB54111AA8A2E8A13050D
:1031C0008006814532C6EFE0FFFF1305B003EFF044
:1031D0006F86EFF00F89994513058006EFF0AF8DEC
:1031E000EFF0EF8AAA84A204EFF06F8AC98CEFF0A7
:1031F0000F8A2A842204EFF08F89498CC204EFF0F1
:103200000F892A89C184EFF08F88AA892685EF303B
:10321000C02EB7A4000083A544BB42044184EF2024
:10322000504C23A0AA002285EF30202D83A544BB5B
:10323000EF20304B2320AA00131589003365350198
:1032400042054185EF30602B83A544BBEF207049D8
:10325000324608C241016FD02FAEEFD2CFA92A8BE0
:10326000AE8A130580068145B289EFE0BFF51305EC
:103270003004EFE03FFCEFE0DFFE994513058006E8
:10328000EFF06F83EFF0AF80AA84A204EFF02F80FD
:10329000C98CEFE0DFFF2A842204EFE05FFF498C56
:1032A000C204EFE0DFFE2A89C184EFE05FFE2A8AD4
:1032B0002685EF308024EF30A030B7A4000003A6AD
:1032C00084BB83A6C4BB42044184EF100024B7072B
:1032D00000202A8C03A5072AAE8CEF30602E2A86A8
:1032E000AE866285E685EF10505FEF3020382320F0
:1032F000AB002285EF306020EF30802C03A684BB2A
:1033000083A6C4BBEF106020B70700202A8B03A55B
:10331000C729AE8BEF30C02A2A86AE865A85DE8555
:10332000EF10B05BEF30803423A0AA0013158900A2
:103330003365450142054185EF30201CEF304028C0
:1033400003A684BB83A6C4BBEF10201CB7070020D4
:103350002A8403A5472AAE84EF3080262A86AE86CB
:103360002285A685EF107057EF30403023A0A900CA
:103370006FD0EF9BEFD20F99411181451305800665
:10338000EFE05FE41305B006EFE0DFEA0145EFE0B0
:103390007FEAEFE01FED814513058006EFE09FE235
:1033A0006945EFE03FE91545EFE0DFE8EFE07FEB4F
:1033B000814513058006EFE0FFE06D45EFE09FE7F4
:1033C000214593040000EFE0FFE61304107DEFE0D9
:1033D0005FE92689A6897D144204418029E037A44B
:1033E0000000832504BC4E85370A0020EF205004DE
:1033F000832504BC2320AA2A4A85EF207003832555
:1034000004BCB709002023AEA9282685EF2050026E
:10341000370900202322A92A41016FD0EF917000C3
:103420002C004800EFF07FE392454E85EF20A04945
:10343000A245AA894A85EF200049B2452A892685F6
:10344000EF206048AA840545EFF00FDE69B7EFD2A0
:103450000F8DEFF03FF2EFF07FD06FD08F8EEFD275
:103460000F8C814513058006EFE0DFD51305A0061C
:10347000EFE05FDC0145EFE0FFDBEFE09FDE814541
:1034800013058006EFE01FD413057003EFE09FDA09
:103490000945EFE03FDAEFE0DFDC81451305800608
:1034A000EFE05FD21305B006EFE0DFD80145EFE0B3
:1034B0007FD8EFE01FDB81457945EFE0BFD00145C4
:1034C000EFE05FD713054007EFE0DFD6EFE07FD9ED
:1034D00081457945EFE01FCF0545EFE0BFD51305E6
:1034E0000002EFE03FD5EFE0DFD781457945EFE01F
:1034F0007FCD0945EFE01FD40145EFE0BFD3EFE0FA
:103500005FD66FD00F84EFD28F812A849945794599
:10351000EFE07FDAEFE0BFD7AA84A204EFE03FD765
:10352000458DEF202033B7A4000003A684BC83A6FA
:10353000C4BCEF00907DEF30601308C0EFE03FD5D2
:103540002A892209EFE0BFD43365A900EF2080303B
:1035500003A684BC83A6C4BCEF00307BEF3000110F
:1035600048C0EFE0DFD22A892209EFE05FD233655D
:10357000A900EF20202E03A684BC83A6C4BCEF00C4
:10358000D078EF30A00E08C46FC0BFFBEFC23FF988
:1035900037050020B70702011307852A9387D770E4
:1035A0001CC3B7350020930720102312F700938522
:1035B00085421305852AA128EFF07FE9EFF03FEA65
:1035C00001456FC01FF8EFC29FF5411193F5F50358
:1035D0002306B100A306C1006C0081460946EFE056
:1035E0009FB741016FC0FFF5EFC27FF34111740037
:1035F00093E505F82306B1000946B685A306010048
:10360000EFE07FB50345D10041016FC09FF3EFC2EA
:103610001FF1AE842A8481452685EFF0FFFC034626
:10362000040026859305C0023D8AEFF0DFF90346CA
:1036300054008347440026850E068D8B5D8E1376DD
:10364000F60F1366060293051003EFF0DFF703464B
:1036500014000344240085473396C7003394870041
:103660002685518C9305F0021376F60FEFF0BFF527
:103670001374F40F228626859305E002EFF0BFF461
:10368000268521469305D002EFF0FFF301456FC078
:103690005FEB01A001A0EFC29FE85D71130640023D
:1036A0008145681002C402C602C802CA02CC02CE1A
:1036B00002D002D202D437040020EFC05FE9280014
:1036C000EFF0BF9F4808EFF01FA30810EFF05FA6D0
:1036D0002C0031466810EF30E0174C0831462818AE
:1036E000EF3040170C103146C800EF30A01603260B
:1036F000C42B6C101305803EEFC03FF51545EFC09D
:10370000FFF975BFEFC2BFE15D711306400281454D
:103710006810EFC0DFE3614681454808EFC03FE332
:1037200037090020B704008037A400000326C92B06
:103730006C101305803EEFC0FFF36DF94C08681064
:10374000EFE01F917245EF20B0672AC452452EC6A4
:10375000258DEF20F0662247B2472A86AE861305F4
:1037600004BDEF30F039D9B7EFC27FDBEFF08FFD4A
:10377000EFF0BF8B0945EFE0FFFEEFF04FBAEFF03F
:10378000FFE0716513050520EFF0AFAD37060020AF
:103790001306C62B930540022945EFC0FFE8370604
:1037A00000201306862BE1452945EFC0FFE73706C9
:1037B00000201306062B89452945EFC0FFE6370692
:1037C00000201306462B89452945EFC0FFE5370742
:1037D0000020B7A50000373500001307072C9146DD
:1037E00013060010938585BD13056569EFC0BFE022
:1037F00037070020B7A50000373500001307472C16
:103800008D46130600109385C5BE13054570EFC0A5
:103810009FDEEFC0BFE037A400001305C4BFEF3048
:103820003040E5BF79714AD01399150022D426D2D1
:1038300056CA06D64ECE52CC5AC85EC61359190087
:10384000B70710442E84AA84AE8A6346F904B707EA
:10385000F07F63CE2701630BF9006353501F976716
:1038600000009387A73B8443C04309A87DD52686E3
:103870002685A286A2859523AA842E84A285B2508D
:103880002254268502599254F249624AD24A424B46
:10389000B24B45618280B707DC3F6351F91CB70723
:1038A000203E634DF9167D5A2686A2862685A2857E
:1038B000EF1020372A86AE862A8BAE8BEF1060364B
:1038C00097670000938707399043D4432A89AE89CC
:1038D000EF10203597670000938747389043D44313
:1038E000ED294A86CE86EF10C03397670000938794
:1038F00067379043D443D5214A86CE86EF10603295
:1039000097670000938787369043D443F9214A860E
:10391000CE86EF100031976700009387A73590435C
:10392000D44365294A86CE86EF10A02F9767000002
:103930009387C7349043D4434D215A86DE86EF10D7
:10394000402E976700009387E7339043D4432A8B38
:10395000AE8B4A85CE85EF10C02C97670000938709
:10396000E7329043D443EF1040774A86CE86EF107B
:10397000402B976700009387E7319043D443EF10C3
:10398000C0754A86CE86EF10C029976700009387DE
:10399000E7309043D443EF1040744A86CE86EF1050
:1039A0004028976700009387E72F9043D443EF1098
:1039B000C0724A86CE86EF10C0262A86AE865A8509
:1039C000DE8521292686A286EF10A025FD572A86AE
:1039D000AE86630EFA060E0A976700009387072FDC
:1039E000D2979043D443976700009387272C3E9A41
:1039F000EF10A06E2686A286EF10206E2A86AE8675
:103A000003250A0083254A00EF10206DAA842E8426
:103A1000E3D60AE6370400802D8C8DB59767000049
:103A20009387C7209043D4434D2E97670000938718
:103A300067209043D443EF108008E356A0E63DBDD5
:103A4000976700009387071E8443C04305BD268502
:103A5000A285EF108068AA842E840DB5F520B707E3
:103A6000F33F2A84AE846356F904B707E63F6359EF
:103A7000F90A2A86AE869526976700009387871BEA
:103A80009043D443014AEF10406597670000938745
:103A9000E71A9043D4432A89AE892285A685352E1C
:103AA0002A86AE864A85CE85EF003026AA842E84EB
:103AB000E5BBB78703406357F90417690000130992
:103AC00069180326090083264900094AEF10E060BF
:103AD00003260900832649002A8BAE8B2285A68502
:103AE000EF102014976700009387C7149043D443C6
:103AF000ED242A86AE865A85DE85EF001021AA8441
:103B00002E845DB397670000938747148843CC43A6
:103B10002286A686EF00701F0D4AAA842E8469B300
:103B200017690000130909110326090083264900BB
:103B3000054AEF10805A2A8BAE8B03260900832694
:103B400049002285A6856DB78605858182805D71D5
:103B5000A2C4A6C2CAC052DE56DC86C62A84AE847F
:103B600055209387418103A90700FD572A8AAE8A11
:103B70006301F9022286A6862285A685EF10D04928
:103B800009E9014681462285A685EF00307E634C17
:103B90000500B64026445285D68596440649725A99
:103BA000E25A6161828085473EC49767000093872F
:103BB000E7133EC602D422CC26CE22C826CA63070B
:103BC0000902014681463285B685EF0010142AD0DD
:103BD0002ED28947631EF900EF2050479307100249
:103BE0001CC1A25799EB025A925A65B702D002D271
:103BF0002800D52275D1A257FDD7EF203045A25716
:103C00001CC1D5B741113707F07F22C426C206C6B2
:103C10003378B7002E84AA84630DE816AE87AA868F
:103C2000635FB00E13DE4541630F0E1837071000B7
:103C30001306F7FFF18FD98F130E1EC013971700CD
:103C400013761E0093D7F601BA971397160011C684
:103C50007D838607BA9713972600135E1E40D945C9
:103C6000814E8146370620003385C6001358F70180
:103C7000FD1563C6A700898FB306C500B29E8607EF
:103C8000C29706070582EDF1130500020143814842
:103C90003706008019A86385D70E9355F70186076C
:103CA0007D15AE97060705820DC9B3051601E3D44D
:103CB000F6FEB388C500368863CE050A958FB33605
:103CC000B700958F0D8F9355F70186077D153293B9
:103CD000C286AE970607058269F9D98F93541300FF
:103CE00089CB93041300FD5785806314F300850E80
:103CF000814413D71E403704E03F93FE1E003A94E0
:103D000063850E00B7070080DD8C13174E012297E4
:103D1000B24022442685BA8592444101828013979D
:103D2000150005833368A7002E87E30308FED1E161
:103D300093D5B600AD172E87D606FDD913D645010B
:103D400051E6014611A02A8606079315B700130510
:103D50001600E3DA05FE930800023688B388A8400F
:103D6000BA85B396A60033571801338EC740B367A0
:103D7000B7006DBD13C8F8FF1358F80136983DBF62
:103D8000E36DB7F0B388C500E3C605FE3E88814702
:103D900015BF2A86AE86EF00D0682686A286352813
:103DA000B2402244AA842E872685BA8592444101D6
:103DB00082802A86AE86EF1040322A86AE86B127F0
:103DC000AA842E87B1B72E878147A5BF368893086E
:103DD00000027D5649BF014582803708100001115D
:103DE0007D183377B80026CA3378D80093D44501BC
:103DF00013D34601131E37004EC61357D5010E08C4
:103E00009357D60193F4F47F1373F37F06CE22CC3D
:103E10004AC893D9F50193DEF6013367C701131F32
:103E2000350033E80701931F3600338E644063800A
:103E3000D9196356C0136304031CB70680009307A7
:103E4000F07F3368D800638FF4369307800363C034
:103E5000C735FD4763CDC747130500023305C5418C
:103E6000B3D7CF01B316A8003399AF00DD8E333935
:103E70002001B357C80133E926011D8F33092F41B3
:103E8000B3372F013306F7409317860063D4072416
:103E9000370780007D173374E600630C042C2285FD
:103EA000EF207013130785FF93070002998FB35714
:103EB000F9003316E400D18F3319E9006341972AE2
:103EC00033059740130615007D47634DC738130728
:103ED0000002118FB356C9003319E9003397E70088
:103EE000558F333920013369270133D6C700814408
:103EF0009377790081CF1377F90091476308F70032
:103F000013074900333927014A963A8993178600E7
:103F100063D6071C138514009307F07FCE856304D6
:103F2000F520B70780FFFD17F18F9398D70113593C
:103F30003900A607B3E82801B1831375F57F93967E
:103F4000C7005205F2406244B182FE05C98ECD8E93
:103F5000D2444249B2494685B68505618280631ED6
:103F60000E0A138314001373E37F63170322B367EE
:103F7000E701B368F801639D041A6387074063860D
:103F800008443309FF41B307074133362F01338615
:103F9000C7409317860063D6074C3389EF41B307B8
:103FA000E84033B62F013386C740F68991B7635096
:103FB000C00F6300030CB70680009307F07F3368DF
:103FC000D800638AF43A9307800363CBC713FD4795
:103FD00063DFC73513090EFE93070002B3562801AD
:103FE000630AFE00130900043309C941331928018B
:103FF000B3EF2F013339F0013369D90031A2B36730
:10400000F801638A071C9307FEFF638C0738930649
:10401000F07F6309DE1A3E8E0DBDB30593406391B8
:104020000422B367E701638707329387F5FF638153
:1040300007449306F07F638CD520BE8593078003E9
:1040400063CCB72AFD4763CFB73C930700028D8F3F
:104050003319F700B356BF00B317FF003369D90017
:10406000B337F0003357B7003369F9003308E8403D
:1040700041ACB367F801638007349307FEFF638A9E
:1040800007209306F07F6308DE2E3E8E2DBF631E51
:104090000E149386140093F7E67F63910734B36799
:1040A000E7016395042C6380073EB367F801638ED4
:1040B00007303309FF01B3070701333FE9013386B6
:1040C000E7019317860063D70700B70780FFFD1746
:1040D0007D8E854493777900E39F07E09317D6019F
:1040E00093583900B3E8F800935736001307F07F70
:1040F000638DE404B207B18313F5F47FCE8581B5F7
:104100003369F801333920017A99B337E9013386ED
:10411000E70093178600E3DF07FA85049307F07F33
:104120006396F418CE851305F07F8147814801BD61
:10413000C1EB6384083A931636009317D8018D8239
:10414000B3E8D700F68993573800B3E7F800F9DBF6
:1041500081451305F07FB70708008148CDB33706C6
:1041600080FF7D167D8E93777900998CE39507D833
:10417000B5B74A85EF20206613078501FD47E3D5D3
:10418000E7D2130685FFB317C900014905BB3369A0
:10419000F80133392001DDB13309FF41330607410E
:1041A00033342F01330486409317840063CD0724F2
:1041B000B3688900E39308CE8147814981441DBFDC
:1041C000E39808F80E059317D7010D81B3E8A7000F
:1041D000935737009DBF0E059317D7010D81B3E8A4
:1041E000A700F2849357370011B7330593406382D9
:1041F0000412B70680009307F07F558F630DF32EEE
:104200009307800363CBA720FD4763C3A72A9307C7
:104210000002898F3319F700B356AF00B317FF00C0
:104220003369D900B337F0003357A7003369F90079
:104230003A987E99B337F901338607019A84D1BD44
:10424000B70680009307F07F558FE319F3DE9317CD
:1042500036008D839318D801B3E81701F689935778
:104260003800E5B5130715FE9306000233D7E700C3
:10427000630AD600930600043386C6403396C7000F
:104280003369C900333920013369E90001468144AB
:1042900091B53309FF01B30707013336E9013E96B3
:1042A000931786008544E3D707E28944B70780FF68
:1042B000FD17F18F1357190013791900336927017E
:1042C0009398F70133E9280113D6170015B11309A4
:1042D0000EFE93070002B3562801630AFE0013097D
:1042E00000043309C94133192801B3EF2F013339D1
:1042F000F0013369D90059B63369E7013339200138
:1043000033892F41B3B72F013306F8409A84F689D9
:10431000A5BEB367E701638207189307F5FF6384BF
:10432000071C9306F07F6304D5123E85D1BD930729
:104330000002B387C741B316F8003399FF0033D6A4
:10434000CF01D18E33392001B357C80133E926019B
:104350003E975DBB931736008D839318D801B3E861
:104360001701AE8493573800F68949B3EDC333691A
:10437000F801E31F09DC0E059317D7010D81B3681F
:10438000F50093573700D1B36381080E93163600BA
:104390009317D8018D82B3E8D700F6899357380078
:1043A00091BB3309FF41B3070741333F2F013386E8
:1043B000E7418544D1BC0E059317D7010D81B36841
:1043C000F500F2849357370015B30E059317D70104
:1043D0000D81B3E8A7009357370029BB9307F07FFF
:1043E000E382F6D43309FF013336E901B30707014D
:1043F000B2979398F7011359190033E9280113D69E
:104400001700B684C1B93389EF413307E84033B6AA
:104410002F013304C740F68949B43369E7013339C2
:10442000200101BD938705FE93060002B357F700F4
:10443000638AD50093060004B385B6403317B700EE
:10444000336FEF003339E0013369F90055BD93173D
:1044500036008D839318D801B3E8170193573800BD
:10446000EDB1B368C900E39708C68147814959B1E6
:104470003389EF41B307E84033B62F013386C74095
:10448000F689854411B4931636009317D8018D82AE
:10449000B3E8D70093573800B1B993163600931795
:1044A000D8018D82B3E8D700AA84935738003DB96C
:1044B000930705FE93060002B357F700630AD50081
:1044C000930600043385A6403317A700336FEF002F
:1044D0003339E0013369F900A9BB81451305F07F49
:1044E000B7070800A9BC3309FF01B307070133363A
:1044F000F9013E9675B3931636009317D8018D8255
:10450000B3E8D7009357380089B1397193D7450183
:1045100022DC4AD856D22A891394C50006DE26DA50
:104520004ED652D45AD05ECE13F5F77F318093DA4F
:10453000F501630B05109307F07F630BF514135A15
:10454000D9010E0433648A00370A8000336A4401BB
:10455000131B3900930415C00144814B13D8460145
:104560001399C6001378F87FB2881359C90093D9FC
:10457000F601630E08089307F07F6300F8041357F1
:10458000D6010E0933692701130818C0B707800048
:104590003367F90093183600B38404418145BD4761
:1045A00033C83A0163E4871A9757000093878774EA
:1045B0000A043E9410403E9602863367C9009384F5
:1045C0001480631207101364240081488945C1BF19
:1045D0001306F07F81470147B207F250625452063A
:1045E000B1837E08D18FB3E70701D2544259B25943
:1045F000225A925A025BF24B3A85BE852161828033
:1046000001481306F07FB70708000147F1B7336789
:10461000C9004DC7630809304A8532C4EF20A01B8A
:104620002246130755FFF547930685FF998F3319E7
:10463000D900B357F60033E72701B318D600269503
:104640009304353F8145A1BF336A240163030A0601
:1046500036C632C46306042A2285EF20C0172246DC
:10466000B246AA84130755FF754A138B84FF330A99
:10467000EA4033146401335A4901336A8A00331B18
:1046800069011305D0C0B30495400144814BF9B5CD
:10469000336A240163180A002144014B9304F07F1C
:1046A000894B6DBD228A4A8B31449304F07F8D4B38
:1046B00075B51144014B8144854B4DB5136414000D
:1046C00081488545E9BD136434004A878D45C1BDE5
:1046D000630A052E8547898F9306800363DDF632D2
:1046E000014681470147CDBDCE868947638DF53AA6
:1046F0008D47E387F5F085473688E383F5FE13851C
:10470000F43FE357A0FC93F778006396072893D60D
:1047100038009317770063D80700B70700FFFD172D
:104720007D8F138504409307E07FE3C3A7EA131648
:10473000D70193179700B1833367D6001376F57FBF
:1047400061BDD6865287DA88DE8545B76361472327
:10475000630DEA20DA86FD145284014B931787001B
:1047600013D388013363F300935E0301B357D4037B
:10477000131F0301135F0F0193D50601139E8800D9
:104780003374D4033307FF024204C18D63FBE50099
:104790009A951386F7FF63EE652663FCE526F91705
:1047A0009A95998D33D7D503C206C182B3F5D50347
:1047B0003306EF02C205D58D63FBC5009A959306BB
:1047C000F7FF63E6652463F4C52479179A95C20759
:1047D00041645D8F9307F4FF3375F7009358070129
:1047E000935F0E01B377FE00B302F502B386C540B6
:1047F000B383F80293D502013386AF021E962E963C
:104800003385F803637376002295C168FD189355CC
:104810000601337616014206B3F81201AA954696B0
:1048200063E6B6126382B6123306CB408D8E333BFD
:10483000CB00338B66411385F43F630C6317B35889
:10484000DB0393550601337BDB03B3061F03420BE7
:1048500033EB6501637BDB001A9B9385F8FF636D87
:104860006B20637BDB20F9181A9B330BDB40B356BC
:10487000DB0342064182337BDB03330FDF02420B53
:1048800033666601637BE6011A969385F6FF6367DC
:10489000661E6375E61FF9161A96C208B3E8D800BB
:1048A0009395080193D20801C181B38EF5023306B6
:1048B000E641B385BF0293D60E01B387F202BE95DF
:1048C000AE96B38F5F0263F4F600C167BE9FC16509
:1048D000FD1593D70601ED8EC206B3FEBE00BE9F46
:1048E000F696637FF6091A969387F8FF6369661A4E
:1048F0006368F619630FF61BBE8893E8180011B5BC
:104900004A85EF10506D13075501F14593040502D8
:104910002246B246E3DAE5D4130485FF331A890050
:10492000014B85B3328532C4EF10F06A130755018D
:10493000F146AA87224613050502E3D6E6CEE11723
:104940003317F6008148E5B9E370CBEE729B33353F
:10495000CB011A95AA961305F7FF6378D30263E695
:10496000B6106382D5102A87C1B5E3651BDF935566
:104970001B009316FA0113541A00CD8E7E0BF9BB5F
:10498000E31DF6F7E38F06D6B9BFE31ED3FCE37849
:10499000CBFD2A8751BD93F7F8009146E389D7D61E
:1049A00093B7C8FF9386480093C717008D823E9740
:1049B0008DB381468547E34CA0FEFD58E31C05D02E
:1049C000930410C085471385E441B316A70033D67E
:1049D000F8003395A800D18E3335A000C98E13F6A8
:1049E00076003357F70001CE93F7F600114663883F
:1049F000C70093874600B3B6D7003697BE86931795
:104A0000870063D80704054681470147F1B636871A
:104A10007DBBB28779B3FD46E3D7F6FA0556098E1A
:104A2000930600023356C7006388D7009387E44398
:104A3000B317F700B3E8F800B3361001D18E13F6C0
:104A40007600814701CE93F7F60011460147E392C5
:104A5000C7FA931797001316D701B18313D73600FF
:104A6000518F014695BEE370CBF0729B3335CB017D
:104A70001A957917AA964DBBAE88C5BBAE8631BDD7
:104A800093171E0033BEC70172931A96F9183E8E13
:104A9000E315F6E7E307DEC693E818009DB1BE888C
:104AA000E30AF6FF99BD36881306F07F8147014778
:104AB00025B6E367DEFCBE88E310DEFE99B113D7AE
:104AC0004501B7071000FD1713D846011377F77F8C
:104AD0009308F07F33F3B7002A8EF58FFD81B28EF5
:104AE0001378F87FFD8263081703630018030DEB4A
:104AF000B368A300631408005D8E29CA63850804A7
:104B00006388D502054595ED8280B3E8C700E38050
:104B100008FE795582803365A30065FD630CE802C9
:104B2000631408005D8E79DEE39ED5FCE34CE8FC5F
:104B300063480701E3E867FC6303F302637FF30064
:104B400081E57D558280F5DE054582800145E39B48
:104B500008FA82805D8E69DA6DBF01458280E3E3E9
:104B6000CEFB0145E372DEFBE5F1E1BF13D7450162
:104B7000B7071000FD1713D846011377F77F930886
:104B8000F07F33FEB700AA8EF58FFD81328F137848
:104B9000F87FFD82630E1703630D180129E3B368E4
:104BA000AE00631F08005D8E01EE0143638C0804B4
:104BB00021A8B3E8C7000943639608046DD305A094
:104BC000638408046385D50205438DCD7D531DA8FC
:104BD000B368AE00094363970802630AE8026314EE
:104BE00008005D8E75D2E391D5FEE34FE8FC634982
:104BF0000701E3EBC7FD630FFE0001436374FE0092
:104C0000F1D505431A858280EDFE7D53E5BF5D8EAB
:104C100079DACDBFE36ADFFB0143E3F5EEFFF5F19F
:104C200075B739714AD813D945014ED652D456D2E8
:104C30009399C50006DE22DC26DA5AD05ECE1379BF
:104C4000F97F2A8A93D9C90093DAF501630D090E19
:104C50009307F07F6306F9181354D5018E09B369E1
:104C600034013704800033E48900931435001309BC
:104C700019C08149814B13D74601139AC600137797
:104C8000F77FB285135ACA0013DBF601630B0710D6
:104C90009307F07F6303F7049357D6010E0A33EAB4
:104CA0004701130717C0B7078000B367FA009315D1
:104CB00036003A99814833C76A01BD463A851308E0
:104CC000190063E83617175600001306A6068A096E
:104CD000B29983A60900B2968286B367CA00130907
:104CE000F97F6399071293E9290081458948E1B763
:104CF00001479307F07F3704080081443204D2074C
:104D000031807E075D8C598CA285F25062542685D5
:104D10004259D254B259225A925A025BF24B216143
:104D200082805A853E84AE84C68B8947638DFB0E94
:104D30008D47E38FFBFA85472A87639EFB388147BF
:104D40000144814465BF33E4A90061C036C632C462
:104D5000638C092A4E85EF1010282246B246AA8796
:104D6000130755FF7544938487FF198CB3999900F5
:104D700033548A0033643401B3149A0013D74601C4
:104D80001309D0C0139AC6001377F77F3309F9408F
:104D90008149814BB285135ACA0013DBF601E3192E
:104DA00007EEB367CA00B1C7630F0A22528532C447
:104DB000EF10702222462A87930655FFF547930588
:104DC00087FF958F331ABA00B357F600B3E7470150
:104DD000B315B6003309E9401309D9C08148E1BDD4
:104DE00033E4A90001ECA14981441309F07F894B08
:104DF00059B593E919008145854875BD4E84AA844B
:104E0000B1491309F07F8D4BBDB5914981440149EA
:104E1000854B95B593E93900D2878D4869BD89479F
:104E20005685E397FBF02A879307F07F014481447E
:104E3000F1B5C16E1386FEFF93D6040113DE0501A2
:104E4000F18CF18D338695023383B60293580601B7
:104E500033059E021A95AA98B382C60363F36800CD
:104E6000F692C16F1383FFFF33F5670093D30701F9
:104E7000B3F76800C207337366003E9333069502AA
:104E800093D80801B387A602135F0601B384930287
:104E9000BE94FA94B38E760263F3F400FE9E416AE8
:104EA0009307FAFF935F0401B376F400B3F9F400BB
:104EB0007D8EC1803384D502C209338FD401B2996B
:104EC000CE98B307DE02935E0401B385BF02AE97AE
:104ED000BE9E330EFE0363F3BE00529EC1679385F0
:104EE000F7FF33F6BE006D8C4206229693DE0E016C
:104EF000B305D502769E3385AF0213D40501B38680
:104F0000D302AA96A296B38FF30363F3A600BE9FC3
:104F100041657D15B3F7A600C2076D8DAA97B385CD
:104F20005800B3B93501FA97B2953384370133B6D7
:104F3000C500B30EC4013385CE0033343401B3B79A
:104F4000E701C18F33BECE0113D406013336C5004D
:104F50003E943366CE009394950032947E94B3E4ED
:104F60006400260493567501B3349000DD819317D5
:104F70009500CD8C558CDD8C9317740063DB070096
:104F800093D7140085889316F401DD8CD58C0580A9
:104F900042899307F93F6359F00893F6740081CE74
:104FA00093F6F40011466388C60093864400B3B4B8
:104FB00096002694B6849316740063D80600B7074B
:104FC00000FFFD177D8C930709409306E07F63CFB8
:104FD000F60E93D634009314D4012604D58C318078
:104FE00093F7F77F21BB328532C4EF10C07E930662
:104FF0005501F147130705022246E3D1D7DC6115BD
:10500000B317A6008145F9B3EF10E07C13075501F3
:10501000F145930705022246B246E3D5E5D4611572
:105020003314AA00814499BB85469D8EB1E71309CC
:10503000E941B3972401B3D4D40033192401B33721
:10504000F000B3649900DD8C93F77400B356D4007C
:1050500081CF93F7F40011466388C700938744001B
:10506000B3B49700A696BE849397860063D80704CE
:1050700085470144814459B113068003E341D6CCEE
:105080007D46E356D6FA0556B307F640930500026F
:105090003356F4006387B6001309E943B3172401BC
:1050A000DD8CB3349000D18C93F67400014499CA1E
:1050B00093F7F40011468146E392C7FA13949600E1
:1050C0003180F6068D80D58C81470DB99307F07F2E
:1050D0000144814425B142896DBD370710007D1719
:1050E00001113373B70093D84601758F935ED601D3
:1050F00022CC26CA0E0393D445019357D5010E073F
:1051000006CE4AC84EC693F8F87F130EF07F33E7F9
:10511000EE0093F4F47F13D4F50133E36700131F1B
:105120003500FD82931E36006380C81993C61600B1
:10513000B38514416305D4126351B018638B081A08
:10514000B70780005D8F6381C4599307800363C4F0
:10515000B734FD4763C5B748930700028D8FB3D9B5
:10516000BE003318F700B39EFE0033683801335792
:10517000B700B339D001336838013303E340B309D2
:105180000F41B3373F013306F3409317860063D3D3
:105190000724370980007D1933792601630F092C14
:1051A0004A85EF104063130785FF93070002998F2C
:1051B000B3D7F9003316E900D18FB399E9006344FE
:1051C000972A058F13061700FD4663C5C63A1307D5
:1051D0000002118FB3D6C9003398E9003397E70076
:1051E000558F33380001B369070133D6C7008144B6
:1051F00093F7790081CF93F6F90091476388F60021
:105200009386490033B836014296B68993178600D3
:1052100063D6071C138714009307F07F0588630685
:10522000F720B70780FFFD17F18F1398D70193D9A7
:105230003900A60733683801B1831377F77F939657
:10524000C7005207B1827E04D98EC18EF2406244FB
:10525000D2444249B2494285B6850561828063568F
:10526000B00A638A0812B70780005D8F6387C42D78
:105270009307800363C7B718FD4763D2B73C138811
:1052800005FE93070002B3590701638AF5009307EF
:105290000004B385B7403317B700B3EEEE003338E0
:1052A000D0013368380195A2B367D7019385148084
:1052B00099E393C61600630AD404D1E193871400DE
:1052C00093F7E77F6399071EB367E3013368D7015C
:1052D000639204166382073C631608421318350074
:1052E0009316D3011358380033E80601935733005F
:1052F00019A2B367D7016385071A9387F5FF638BFC
:10530000073A638CC523BE8589B56399051C9386CE
:10531000140093F7E67FC1EFB367E30163900436AF
:10532000638D0744B367D701639407460E051318CE
:10533000D3010D813368A800935733006DA8B3855E
:10534000984063970420B367E301638D0730938728
:10535000F5FF638907401305F07F6383A520BE85B1
:105360009307800363C2B72AFD4763C8B73C93071E
:1053700000028D8F3318F3003356BF00B317FF00C0
:105380003368C800B339F0003353B30033683801D1
:1053900033076740B5ACB367D701638307109387C2
:1053A000F5FF638F071E6380C52FBE85D1B59307B8
:1053B000F07F638BF606FA9E33B6EE01B307E30087
:1053C000B2971398F70193DE1E00B369D80113D684
:1053D0001700B68493F77900E39F07E09317D6018F
:1053E00013D839003368F800A685935736001307A1
:1053F000F07F6380E506B207B18313F7F57F058878
:105400003DBD3367D7013338E000B309E801B3B7D6
:10541000E9013386670093178600E3DD07FA850408
:105420009307F07F639CF41805881307F07F81478A
:10543000014831B5639107106301083C1318360029
:105440009317D701135838003368F8003684935700
:105450003700B367F800E9DB01441307F07FB707B3
:1054600008000148E9BB370680FF7D167D8E93F763
:105470007900998CE39107D895B74E85EF10A03548
:1054800013078501FD47E3D2E7D2130685FFB397E3
:10549000C90081492DB33368D70133380001C5B144
:1054A000131835009317D301135838003368F800E8
:1054B000935733002DBFB309DF413309E34033363F
:1054C0003F013309C9409317890063CA072033E8B5
:1054D0002901E31508CC8147014431BFB3859840C9
:1054E00063810414B70680009307F07F3363D30011
:1054F0006381F8209307800363CCB722FD4763C91B
:10550000B72C930700028D8F3318F300B356BF00FA
:10551000B317FF003368D800B339F0003353B3003A
:10552000336838011A97B309D801B3B7D901338664
:10553000E700C684CDB5E31108F2131835009317C0
:10554000D301135838003368F8009357330011B76C
:10555000370580009307F07F3363A300E392F8E000
:105560000E061318D7010D823368C8009357370011
:105570003684C5B505179306000233D7E700630AE2
:10558000D600930600043386C6403396C700B3E9BD
:10559000C90033383001B369E800014681441DBDBC
:1055A000B309DF01B307E30033BFE9013386E70145
:1055B000931786008544E3DF07E08944B70780FF3F
:1055C000FD17F18F13D7190013F81900336807017D
:1055D0009399F701B3E9090113D6170011B913889C
:1055E00005FE93070002B3590701638AF50093078C
:1055F0000004B385B7403317B700B3EEEE0033387D
:10560000D00133683801A5BE3363E301333860004D
:10561000B3890E41B3B73E013306F740C6843684E2
:10562000ADB6B367E301638707189387F5FF638C13
:10563000071C9306F07F638ED50ABE8565BD930770
:1056400000028D8FB3D9BE003318F700B39EFE0061
:10565000336838013357B700B339D00133683801A4
:105660003A9365B3131836009317D70113583800CF
:1056700033E8070136849357370095BBBDCB3367BA
:10568000D701E31B07DC0E051318D3010D81336826
:10569000A8009357330075BBE30F08E213183600D8
:1056A0009317D701135838003368F800368493579E
:1056B000370091B3B309DF41B307E340333F3F0104
:1056C0003386E7418544D1B4131835009316D301CE
:1056D0001358380033E80601935733009DBBB38954
:1056E000EE413306674033B93E0133092641368423
:1056F00075B40E061318D7010D823368C80093578E
:10570000370081BBB309DF41B307E34033363F01C4
:105710003386C7409317860063D7070AB389EE41E3
:10572000B3076740B3BE3E013386D7413684C9B460
:105730003363E30133386000FDB3138805FE93073C
:105740000002B3590301638AF50093070004B3858F
:10575000B7403313B300336F6F003338E001336861
:1057600038017DB5B389EE41B3076740B3BE3E0152
:105770003386D7413684854409BC13183600931705
:10578000D701135838003368F80093573700A5B194
:10579000B309DF01B307E30033BFE9013386E70153
:1057A00093178600E3D807C2B70780FFFD177D8EE9
:1057B00085440DB10E061318D7010D823368C80059
:1057C000935737002DB133E8C900E30608D019B16B
:1057D000138805FE93070002B3590301638AF5009D
:1057E00093070004B385B7403313B300336F6F00E2
:1057F0003338E001336838013DB301441307F07FCB
:10580000B70708002DBCB309DF01B307E300B3BE3F
:10581000D9013386D70169BB13D74501B7071000FB
:10582000FD171347F7FF13D84601FD8DF58F93162B
:1058300057011378F87F99CA1307F07F0145630376
:10584000E8008280D18F3335F0008280C98D054514
:10585000E5D58280411106C622C426C20DCD9357DC
:10586000F541B3C4A7009D8C2A842685EF00B0764D
:105870009306E041898EA9477D8093F6F67F63CD3C
:10588000A7022D47098FB3D7E4005505B207B3949B
:10589000A400B18329A00144814681478144B20715
:1058A000D206B1837E04D58FC18FB24022442685B3
:1058B000BE859244410182805515B397A400B2077A
:1058C000B1838144E9BF4111370780007D1713D8A8
:1058D000750126C2935475013373A70093F4F40F36
:1058E000B376B7004AC01378F80F1359F50106C60E
:1058F00022C4FD819A8726854A86131E3300939E13
:105900003600B3880441630AB90E6350100D630476
:1059100008149307F00F638BF414B7070004B3EE79
:10592000FE00ED4763C1172993070002B3871741B3
:10593000B397FE00B3D81E01B337F000B3E7F80009
:10594000B307FE4013975700635E0718370400043F
:105950007D147D8C2285EF0010686D15B317A400AF
:105960006348951A058D1304150013070002018F73
:105970003397E7003337E000B3D78700D98F8144EE
:1059800013F7770019C713F7F70091466303D700A1
:10599000910713975700635B071485041307F00FF3
:1059A0004A866383E4169A07A58313F5F40FB24081
:1059B0002244A6079314750113D59700458D7E06E2
:1059C00092440249518D410182806399080A1387EC
:1059D00014001377E70F6317071463900422630D15
:1059E0000E1EE3860EFCB307DE411397570063508B
:1059F0000722B387CE412E8961B7635C100B630E1B
:105A000008089307F00F6383F406B7070004B3EEAA
:105A1000FE00ED4763C9171F93070002B3871741C4
:105A2000B397FE00B3D81E01B337F000B3E7F80018
:105A3000F297139757006357070A85041307F00F6F
:105A40006384E40CB706007E13D71700FD16858B20
:105A5000758FD98F35B7638D0E08FD18B307DE41FA
:105A6000E38208EE9307F00FE39DF4EA630D030869
:105A700001461305F00FB707400015BF33079840E4
:105A8000EDE863020E147D17630807189307F00F03
:105A90006319F80E2E893683D1BF638B0E04FD186F
:105AA000B307DE01E38708F89307F00FE393F4F6FA
:105AB00075BF63950808850413F7E40F6313071295
:105AC00063170510630F0E14E3830EEEB307DE01B8
:105AD00013975700814463570700370700FC7D1771
:105AE000F98F854413F77700E31F07E813D33700D6
:105AF0009307F00FE38CF4F693179300A58313F547
:105B0000F40F4A866DB54A861305F00F814745B5F7
:105B1000370700FC7D17F98F13F77700898CE314A2
:105B200007E6E9B73304DE419317540063C3070C5B
:105B3000E31204E201460145814795BD33079840D1
:105B4000ADC49307F00FE308F8F4B7070004336E11
:105B5000FE00ED4763CCE70C93070002998FB31763
:105B6000FE003357EE00B337F000D98FF697C284AA
:105B7000C9B59307F00FE30FF8F0B7070004336ED1
:105B8000FE00ED4763C3E70893060002998EB31643
:105B9000DE00B357EE003337D000D98FB387FE4015
