:100000006F20903013000000130000001300000068
:100010001300000013000000130000001300000094
:100020001300000013000000130000001300000084
:08003000130000007300100032
:1000380000000000000000003E43000040430000B4
:1000480000000000A02A00000000000000000000DE
:10005800A22A0000A42A00000000000000000000FE
:10006800420A00000000000000020000000000003A
:10007800AA2A0000AC2A0000AE2A0000B02A00001C
:10008800B22A0000B42A0000B62A0000B82A0000EC
:10009800BA2A0000BC2A0000BE2A0000C02A0000BC
:1000A800C22A0000C42A0000C62A0000C82A00008C
:1000B800CA2A0000CC2A0000CE2A0000D02A00005C
:1000C800D22A0000D42A0000D62A0000D82A00002C
:1000D800DA2A0000DC2A0000DE2A0000E02A0000FC
:1000E800E22A0000E42A0000E62A0000E82A0000CC
:1000F800EA2A0000EC2A0000EE2A0000F02A00009C
:10010800F22A0000F42A0000F62A0000F82A00006B
:10011800FA2A0000FC2A0000FE2A0000002B00003A
:10012800022B00009E290000062B000000000000A2
:080138000000000000000000BF
:10020000130181F806C216C41AC61EC822CA26CC1B
:100210002ACE2ED032D236D43AD63ED842DA46DC76
:100220004ADECEC0D2C2D6C4DAC6DEC8E2CAE6CC46
:10023000EACEEED0F2D2F6D4FAD6FED8F3220030CF
:1002400096DA9702002083A262E823A02200F32519
:1002500010342EC003A1C181EF10207817030020B5
:100260000323C3E603210300824273901234D65263
:10027000739002309240A2423243C2435244E2445D
:10028000724582551256A2563257C2575258E258FA
:1002900072598649164AA64A364BC64B564CE64C0E
:1002A000764D865D165EA65E365FC65F13018107DA
:1002B0007300203013000000130000001300000042
:1002C00013000000130000001300000013000000E2
:1002D00013000000130000001300000013000000D2
:1002E00013000000130000001300000013000000C2
:1002F00013000000130000001300000013000000B2
:1003000083A2C181938202E073900234170100201E
:100310000321C1DB024182403243C2435244E244E2
:10032000724582551256A2563257C2575258E25859
:1003300072598649164AA64A364BC64B564CE64C6D
:10034000764D865D165EA65E365FC65FD652A1020A
:1003500073900230A24213018107828013000000D3
:100360001300000013000000130000001300000041
:100370001300000013000000130000001300000031
:100380001300000013000000130000001300000021
:100390001300000013000000130000001300000011
:1003A0001300000013000000130000001300000001
:1003B00013000000130000001300000013000000F1
:1003C00013000000130000001300000013000000E1
:1003D00013000000130000001300000013000000D1
:1003E00013000000130000001300000013000000C1
:1003F00013000000130000001300000013000000B1
:10040000F322003093F272FF130380181203B3E259
:100410006200711523205500130585FA10C12115BE
:10042000232005009302000063870200711523203A
:100430000500FD12D5BF71150CC1828000000000BF
:1004400000000000000000000000000000000000AC
:10045000000000000000000000000000000000009C
:10046000000000000000000000000000000000008C
:10047000000000000000000000000000000000007C
:10048000000000000000000000000000000000006C
:10049000000000000000000000000000000000005C
:1004A000000000000000000000000000000000004C
:1004B000000000000000000000000000000000003C
:1004C000000000000000000000000000000000002C
:1004D000000000000000000000000000000000001C
:1004E0000000000000000000000000000000397162
:1004F00001436EC619A0397141536AC866CA62CCFD
:100500005ECE19A0397101535AD056D252D44ED66C
:100510004AD826DA22DC06DE3301614082824111AC
:100520004AC026C222C406C68282B24D4101024D93
:10053000924C224CB24B4101024B924A224AB249A0
:100540004101024992442244B240410182803D432C
:100550002A876373C3029377F700BDEFADE5937607
:1005600006FF3D8ABA960CC34CC30CC74CC7410763
:10057000E36BD7FE11E28280B306C3408A0697027E
:10058000000096966780A6002307B700A306B70071
:100590002306B700A305B7002305B700A304B700DF
:1005A0002304B700A303B7002303B700A302B700D7
:1005B0002302B700A301B7002301B700A300B700CF
:1005C0002300B700828093F5F50F93968500D58DB3
:1005D00093960501D58D61B7939627009702000089
:1005E00096968682E78086FA9680C1171D8F3E9682
:1005F000E374C3F8A5B711CD054889CD01CEEFF25C
:100600001FF2BA8736878146EF00D04D01484285F8
:100610000DBF054842858280EFF27FF0EF00107A2F
:10062000014505B711CD854789CD01CEEFF23FEFEA
:1006300032840146EF00E073814708C03E8511B760
:1006400085473E858280854795C10DC2EFF23FED1B
:10065000B2878146135615003E85EF008078054726
:1006600081476303E50089473E85E1BD3E85828081
:10067000854785C91DC6EFF29FEA328413561500DF
:100680002285B684EF00D00E05478D476319E5003B
:100690002285EF00B02205052380A40081473E8516
:1006A0004DB53E858280EFF29FE70581EF10C02CAB
:1006B000014541BDEFF2BFE61306401F3306C502F8
:1006C0009307803E814501453356F602EF10807B4B
:1006D000014585BDEFF2BFE4054401C989E9014741
:1006E00089460146EF1090030144228599BD0547D4
:1006F0000144E39CE5FE01468145EF10101BF5B770
:10070000B70700209387070C9843636FA702D04375
:10071000B386C7006316D50054413E85B296D4C354
:100720005041B306C500631CD700B706002083A65E
:10073000860A6306D70054431843B29654C118C1C1
:100740006303F50088C38280BA877DBFEFF29FDB29
:1007500041112AC6EF00906FB706002083A7860AD2
:10076000370600209386860A1306C60A3245A1EF93
:10077000370700209307C71693F5F7001307C7162E
:1007800081C51387F700419BB70500209385050CB1
:1007900023A2050098C18D65C115AE97C19B23A208
:1007A000070023A00700B385E7409CC21CC3B7071E
:1007B000002023AAB70AB707002023A8B70AB70763
:1007C00000804CC31CC2032A0600B377AA0085E34D
:1007D0009307F5FF3957636CF7009307050113F78B
:1007E000F70041C313F707FF410763EBE7068144B6
:1007F00089A022872E8461A058C15CC0113758405F
:10080000B70600209386460B9042B307E94023A029
:10081000F90063F3C7009CC2B70700203367EA0002
:100820009387870B58C09843C10423200400050711
:1008300098C3EF00107E93F7F400D1CB89679387BC
:1008400007807390073037A6000037A50000130615
:10085000462B930500111305852EEF80C07B01A068
:10086000BA87370700200329070B9309070BE360BA
:10087000F9F8370700200324070C1307070C504032
:100880006374F6000C40B5F59442E38286F614409A
:10089000044314C33307F64093060002E3F1E6F67F
:1008A0003305F4009376F500A1DA89679387078012
:1008B0007390073037A6000037A500001306462BBB
:1008C0009305F00C1305852EEF80E07401A02685BA
:1008D00041019DB14DC1EFF29FC4B707002003272E
:1008E00045FF83A7C70A2A84B376F7009DE289678C
:1008F000938707807390073037A6000037A5000064
:100900001306462B930540121305852EEF80A07029
:1009100001A0832605FF9DC2896793870780739096
:10092000073037A6000037A500001306462B9305B5
:1009300050121305852EEF80006E01A093C7F7FFBC
:10094000F98F232AF5FEEF007050B7070020938738
:10095000070B9443032744FF130504FF369798C3FE
:100960004533B70700209387C70B9843050798C303
:10097000EF00306AF9B68280B7E700E0415723877D
:10098000E7402386E740B7F700E023A0070023A253
:100990000700814694C70147D8C783A50181130783
:1009A000401F814633D6E5023D4790CBD4CB98C358
:1009B0008280EFF2DFB6411102C6F32750303EC607
:1009C000B2470D478D8B6384E70289679387078061
:1009D0007390073037A6000037A500001306C63015
:1009E0009305600B1305852EEF80E06201A0B757D9
:1009F000002093870700BD8B9DC38967938707807D
:100A00007390073037A6000037A500001306C630E4
:100A10009305B00B1305852EEF80E05F01A0A93F81
:100A2000B7E700E0116723A0E710056723A0E710F0
:100A3000B707002023A00708EFF09F8C0145410174
:100A400009B6397106DE16DC1ADA1ED82AD62ED47B
:100A500032D236D03ACE3ECC42CA46C872C676C4EE
:100A60007AC27EC0731101348967938707807390BF
:100A70000730B7F700E023A20700EF00D03E11C512
:100A8000B7E700E0116723A0E7208967938787888D
:100A90007390073073110134F250E2525253C25333
:100AA0003255A255125682567247E2475248C24802
:100AB000324EA24E124F824F21617300203089675F
:100AC0009387078073900730B70700209387070844
:100AD0009843050798C3828037070020130707084B
:100AE0001C438DE7EFF2BFA389679387078073905C
:100AF000073037A6000037A500001306C63093055F
:100B000030101305852EEF80005101A0FD171CC386
:100B100091E789679387878873900730828009659A
:100B200013050580731505308280731005308280AF
:100B3000930785007D575CC118C55CC51CC923207F
:100B4000050082802328050082809841FD56930786
:100B50008500631ED7001C49D843D8C10CC79CC56B
:100B6000CCC31C4188C985071CC18280B687D44389
:100B70009042E37DC7FECDB7544118451C4998C645
:100B800054C3D4436393A600D8C3984323280500D5
:100B90007D1798C388438280EFF27F9841112AC65F
:100BA000393F3245005D0D3F13351400410151BA04
:100BB000EFF2FF9632893041045D2A8401EE1C4138
:100BC000014591E70844EF10401F232404008504E9
:100BD00004DC85BA631009024841EF8060385C404C
:100BE00038400145BA9718445CC0E3E2E7FE1C4078
:100BF0005CC0F1BF4845EF80A0363C4058441440EB
:100C0000B307F0403E9758C46375D7001844BA97AD
:100C10005CC489470145E31CF9FAD5D8FD1445BFEA
:100C2000304115C2EFF2BF8F58451445AA8732975D
:100C300058C56364D700184158C52E85CC47EF804E
:100C400020326FF01F908280EFF27F8D2A84853DE5
:100C50008344540413094402E204E184634590028E
:100C6000FD57A302F4048D3D993D834444041309C8
:100C70000401E204E18463449002FD572302F4047A
:100C8000A13D6FF01F8C5C50E1DF4A85EF00706A78
:100C900019C1EF10A006FD14E204E184C1B71C489D
:100CA000E9DF4A85EF00F06819C1EF102005FD1457
:100CB000E204E184C9B7EFF29F8641111DE1896723
:100CC000938707807390073037A6000037A5000090
:100CD00013060634930500111305852EEF80A0330B
:100CE00001A05C5D2EC62A84BDC33841B3B7E702BC
:100CF000B9EFF1333040585C1440232C0402B307A1
:100D0000E602B24554C03387F600918FB6975CC4B3
:100D1000FD572302F40418C4A302F40495E11C480F
:100D200099CB13050401EF00D06011C5B7E700E0CF
:100D3000116723A0E7204D33054541016FF07F8007
:100D400013050401F53313054402DD33EDB789675C
:100D5000938707807390073037A6000037A50000FF
:100D600013060634930550141305852EEF80A02A30
:100D700001A0EFF2CFFA411139C1B3B7A502AA849D
:100D80009DEF3305B5029307F0FA63EAA702130556
:100D9000050532892EC65D3A2A8411CDB245AA874F
:100DA00099C1930705052CC01CC044DC85452285EC
:100DB000193723062405228541016FF08FF88967D2
:100DC000938707807390073037A6000037A500008F
:100DD000130606349305601C1305852EEF80A023AF
:100DE00001A0EFF24FF1011132C61DE1896793872F
:100DF00007807390073037A6000037A50000130660
:100E000006349305E0321305852EEF80C02001A043
:100E10002A842E89B6848DE53C419DC389679387DA
:100E200007807390073037A6000037A5000013062F
:100E300006349305F0321305852EEF80C01D01A006
:100E400089476398F402585C85476304F702896711
:100E5000938707807390073037A6000037A50000FE
:100E600013060634930500331305852EEF80A01A70
:100E700001A0EF00D07215E5B247014C85C7896724
:100E8000938707807390073037A6000037A50000CE
:100E900013060634930530331305852EEF80A01713
:100EA00001A0014C094BFD59930B040137EA00E006
:100EB000916AADA0B24781E70531014549A86315A4
:100EC0000C002808EF00B0550139EF002078C53E2E
:100ED00083474404E207E187639437012302040453
:100EE00083475404E207E18763943701A3020404B3
:100EF000E5366C002808EF00F05335E5C936185C7C
:100F00005C5C6319F704C93EB2455E85EF0090361C
:100F100022851D3BEF00F00F21C5054C4D36185CB6
:100F20005C5C6364F700E39764F92686CA852285D2
:100F300041315C5089C713054402EF00903F11C551
:100F4000B7E700E0116723A0E72079360545056182
:100F50006FF0EFDD51362285C539EF00900B75BF7C
:100F600023205A215DBF2285C531EF00900AB1B719
:100F7000EFF26FD8011132C61DE1896793870780B0
:100F80007390073037A6000037A50000130606341B
:100F9000930510551305852EEF80E00701A02A84E4
:100FA000AE898DE53C419DC3896793870780739027
:100FB000073037A6000037A5000013060634930556
:100FC00050551305852EEF80000501A0EF00305D20
:100FD00015E5B247014985C78967938707807390F4
:100FE000073037A6000037A5000013060634930526
:100FF000A0551305852EEF80000201A001497D5AFE
:10100000930A440237EB00E0916B9DA0B24781E761
:10101000E134014561A0631509002808EF00304064
:10102000653C2D25693C83474404E207E1876394CE
:1010300047012302040483475404E207E1876394D1
:101040004701A3020404493C6C002808EF00903ECD
:1010500031ED2285913631C5B2455685EF0090219C
:101060002285DD36EF00E07A19E123207B21054956
:10107000B934045CC1DCCE852285FD14553604DC10
:101080001C4899CB13050401EF00B02A11C5B7E73E
:1010900000E0116723A0E7208134054505616FF06A
:1010A0000FC922855536EF00C076D1B72285693E3B
:1010B000EF0020762285CD345DD9A1BFEFF22FC697
:1010C00041111DE18967938707807390073037A628
:1010D000000037A50000130606349305307E130583
:1010E000852EEF70507301A02AC6EFF05F9D324548
:1010F000085D2AC6EFF05F9E324541016FF06FC474
:1011000015E5EFF2CFC189679387078073900730A9
:1011100037A60000856537A50000130606349385C1
:1011200085AC1305852EEF70106F01A09DCD37366D
:1011300000209306C616814701471306C6162148AC
:1011400083A846006398A80093173700B2978CC312
:10115000C8C321A891E783A8060063930800B68757
:101160000507A106E31E07FDFDF38280EFF22FBB0A
:1011700041112A842EC632C4EFF07F948347440481
:101180007D572246E207E187B2456394E7002302D8
:101190000404834754047D57E207E1876394E70022
:1011A000A302040432C62EC4EFF01F931C5CA245B8
:1011B000324689E713054402EF0050102285EFF014
:1011C000BFA841016FF0EFB7370700201307C70C26
:1011D0001C439443B70700209387C70E81E67D57D1
:1011E00098C38280184358471843DDBFEFF28FB190
:1011F00037090020B70700209304890C83A9C70F83
:101200002A849C4088404111A384070611052EC6FC
:10121000EFF09F967D579307890CB245631CE4025B
:1012200095C9B7370020938747279440D84398C67D
:1012300010479440D0C694401047910654C2944041
:10124000910614C798405CCB9843050798C34101A9
:101250006FF08FAE98434E9440C3637B34013707E1
:1012600000200325070D8C439105EFF01F8EC5B7B5
:10127000370700200325C70C8C439105EFF0FF8C46
:10128000B70700209387C70E9843E372E4FC80C33E
:101290007DBFEFF22FA737340020B70900201304D9
:1012A0008428370A00209384890D9C40EDDFEFF0FD
:1012B0001F815C4403A9C70013054900EFF0DF8BD1
:1012C00013074A0D1C43FD171CC39C40FD179CC00F
:1012D000EFF09F8003250903EFF0CFDF4A85EFF0A1
:1012E0006FDFD1B7EFF22FA193142600AA8A2685CB
:1012F000AE89368BBA8B3E8AEFF04FC50DCD2A8969
:101300001305C006EFF08FC42A841DC123282503CE
:1013100026864A859305500AEFF06FA3814703297B
:10132000040393060002639A0900230A040225A01D
:101330004A85EFF02FDA7D55D9AA3387F9000307E4
:1013400007003306F400230AE60201C78507E39687
:10135000D7FEA3090404994763F477038967938749
:1013600007807390073037A6000037A500001306EA
:101370008637930570391305852EEF70D04901A08B
:10138000930944004E8523267403232E74052320DD
:101390000406EFF02FFB13058401EFF0AFFA1D47B1
:1013A000F11433077741CA9400C818CC40D0230207
:1013B0000406A302040623030406A303040623046D
:1013C0000406A30404065A86D68513F504FFEFF03D
:1013D0002F8308C063040A0023208A00EFF02FEE59
:1013E000B70700209387470D98433709002037350A
:1013F0000020050798C31307890C1843370A0020FB
:101400001309890C9304C51A130A8A0F6313071072
:1014100023208900984385476318F7081305C51AE8
:10142000EFF00FF113854401EFF08FF01385840284
:10143000EFF00FF01385C403EFF08FEF1385040571
:10144000EFF00FEF13854406EFF08FEE138584075E
:10145000EFF00FEE37350020130B8523130585239E
:10146000EFF00FED37350020930AC5241305C5248E
:10147000EFF00FEC3735002013050526EFF04FEBAA
:101480003735002013058528EFF08FEA3735002027
:1014900013054527EFF0CFE9B707002023A6670D16
:1014A000B707002023A8570D370700201307070EA2
:1014B0001C4385071CC3370700201307470E7CC851
:1014C00014435C5463F3F6001CC35147B387E7022F
:1014D000BE94DC4098471CC458C498472322370167
:1014E00023A437019C4044C885079CC0EFF0CFDEA1
:1014F00083270A00054581CF83270900D8575C540C
:101500006377F700B7E700E0116723A0E7206FF0EB
:101510000F8283270A00C9FB83270900D8575C5430
:10152000E3E4E7F82320890041B7EFE2BFFD1DE1C6
:101530008967938707807390073037A6000037A527
:10154000000013068637930550571305852EEF705C
:10155000902C01A0B707002003A7870CAA8401459F
:1015600063029704EFF0AFD5B707002083A9C70C3B
:10157000C048B707002003A9070DEFF0EFD50945D4
:101580006302340363002403B7370020938747279F
:10159000631CF400985419E703C7840685466383E7
:1015A000E6000D456FE05FF9373700201307872805
:1015B0001145E309E4FE7DD40545EDB7EFE23FF6C2
:1015C000B7070020B7A50000371500009387870EE6
:1015D00001478146130600109385C5391305252957
:1015E00011330544631E8502EF00D06E631A850235
:1015F00089679387078073900730B70700207D576E
:1016000023A6E70EB707002023ACA70EB7070020DC
:1016100023AE070EEFF0EFB983A741806FE07FF2B2
:10162000FD57E31BF5FE89679387078073900730AA
:1016300037A60000856537A5000013068637938519
:1016400005841305852EEF70101D01A0B70700203B
:101650009387C70D9843050798C38280B70700207A
:1016600003A5C70F8280B707002083A7C70D639922
:101670000718EFE2DFEAB70700209387C70F804320
:10168000050480C321ECB70700209387C70C98435B
:10169000184305C78967938707807390073037A67B
:1016A0000000856537A5000013068637938575AC65
:1016B0001305852EEF70301601A0370700201307A1
:1016C000070D9443104390C3B707002014C39387BA
:1016D000070F9843050798C3EFF01FAF37060020A8
:1016E0009307C60E9C4337370020B705002013062A
:1016F000C60E1307C71A9385850C01456375F4025E
:101700009C41D146DC57B387D7023E9718438547A3
:1017100063F3E7000545B707002083A7071091C3CF
:1017200005456FE01FE2370E0020B70E0020514F35
:101730009307CE0C9443944281E6FD571CC2C9B76F
:101740009C43DC47DC47D4436374D40014C24DBFD0
:1017500083A8870003A8C700D44B1383470023A4A2
:1017600008012322180183A846006394680023A27D
:10177000060103A8060023AA07007D1823A006017E
:10178000945795CA03A8C70183A8070283AF4600F0
:101790002324180183A8070223A2080113888701C4
:1017A00063940F0123A2160103A8060023A40702D5
:1017B0007D1823A0060193864E0E03A8C70283A8B6
:1017C000060063F4080123A00601B306E803BA96F5
:1017D00083A8460083AF880023A4170123A6F7013E
:1017E00083AF880023A26F0023A46800D4CB9C425F
:1017F00085079CC29C41DC57E36CF8F205450DBFA0
:10180000B70700209387470F98430145050798C302
:101810008280EFE23FCF370400201304C40D1C4048
:10182000411185E78967938707807390073037A652
:101830000000856537A50000130686379385358B34
:101840001305852EEF70207D01A0EFF04FA71C40FF
:10185000FD171CC01C4089CB01452AC6EFF0CFA75D
:10186000324541016FE05FCDB707002083A7470DE8
:10187000E5D7B73600203735002081479386062606
:10188000370F00201305C51AD14837030020370E43
:101890000020854E59A8DC46DC47CC4F9053985722
:1018A00090C503A807022322B800032847009385A8
:1018B00087016313B80050C3104323A407027D16A9
:1018C00010C38C47D047D84B1388470090C54CC2F3
:1018D0004C436393050150C3104323AA07007D16B0
:1018E00010C313074F0ED0570C4363F3C50010C34A
:1018F000330716032A974C4383AF85008CC723A672
:10190000F70183AF850023A20F0123A405010C4337
:10191000D8CB85050CC31307830C1843585763664F
:10192000E60013070E102320D70198422DF799C324
:10193000EFF09F89B70700201387470F04431384F4
:10194000470F91CC370900208549313B09C59307E2
:10195000091023A03701FD14EDF823200400B70778
:10196000002083A70710E38907EEB7E700E01167BF
:1019700023A0E7200545D5B519E5B7E700E01167D5
:1019800023A0E7208280EFE29FB9B707002083A75A
:10199000C70D41119DC389679387078073900730F6
:1019A00037A6000037A5000013068637930590542C
:1019B0001305852EEF70206601A02AC641393245F5
:1019C0008145EFF0BF82B13511E5B7E700E011675F
:1019D00023A0E72041016FE0DFB6B707002003A78F
:1019E000C70DB70700209387071001C7054798C3A5
:1019F000828023A00700B70700201387470E1843F3
:101A00001386470EB73700209387C71A5148B3068D
:101A10000703B385D700884115C5C841A106BE9606
:101A20004841C8C16314D5005441D4C1D146B3065E
:101A3000D702B697DC43D447B707002023A4D70CBE
:101A400018C2828015E7EFE29FAD89679387078010
:101A50007390073037A60000856537A50000130690
:101A60008637938525C01305852EEF70C05A01A0D7
:101A70007D1771BFEFE2BFAA05E5896793870780ED
:101A80007390073037A60000856537A50000130660
:101A900086379385C5C11305852EEF70C05701A009
:101AA000B70700202E8483A5870CE105EFF0EF89AE
:101AB00085452285EFF08FF36FE0BFA8EFE23FA6E8
:101AC0002A8705E58967938707807390073037A6D3
:101AD0000000856537A5000013068637938525C568
:101AE0001305852EEF70205301A0B70700209387C0
:101AF000870C54432E858C4303A88600D4CD8C4399
:101B000023A0050303A807008C46610823A2050152
:101B100003A807009C43610823A4060198D71C432F
:101B200085071CC311C27D55B285EFF02FEC6FE025
:101B30005FA15C45DC4795E7EFE27F9E896793876D
:101B400007807390073037A60000856537A5000031
:101B500013068637938525C81305852EEF70A04B95
:101B600001A0D04F945398579385870114C6D0C2D3
:101B700050436313B60054C3144323A40702FD1655
:101B800014C3370700200327C70DD45725EF8C4710
:101B9000D047D84B90C5D04748434CC293854700A7
:101BA0006313B50050C3104323AA07007D1610C36A
:101BB000370700201307470E10436373D60014C382
:101BC00051473386E602373700201307C71A32978A
:101BD0005043084690C7C8C708464CC10CC6D8CB6E
:101BE0001C43014585071CC3B707002083A7870C4A
:101BF000DC5763F8D700B7070020054723A0E7109C
:101C000005458280373700201307072650430846D2
:101C1000D0CF88D308464CC10CC698D7D1B7B707E8
:101C2000002083A7070F1CC1B707002083A7C70F99
:101C30005CC18280EFE2BF8E411105E58967938721
:101C400007807390073037A60000856537A5000030
:101C5000130686379385D5CF1305852EEF70A03BED
:101C600001A085E58967938707807390073037A6C1
:101C70000000856537A50000130686379385E5CFFC
:101C80001305852EEF70203901A02EC62AC4EFE07F
:101C90001FE337070020B70700201307870C83A630
:101CA000C70F1C432245B24583C7970699CB1C43F7
:101CB000A38407060544EFE03FE2228541016FE07F
:101CC0005F889C417D570144E387E7FE370600208B
:101CD0000326060F0328050058416307C80063E583
:101CE000E60023A00500F9B73386E640E37BF6FE65
:101CF000958FBA979CC12537014475BFB70700205F
:101D0000054723A0E7108280EFE27F812E8432898D
:101D1000AA8409E5B707002083A4870C93874403AE
:101D20005CC0DC5404C01CC89C585CCCFC481CC47F
:101D3000FC4C232C04005CC895476388F604B70765
:101D4000002083A7870C6395970223260400630570
:101D50000904905881471307500AB306F60083C65A
:101D600006006389E60289832310F4026FE06FFDA9
:101D700054C48D47E39DF6FCEFF05F8D9C5499C3EE
:101D800089475CC4EFF0FFA8D9B72685EFF0EFF9DB
:101D900048C475BF8507D1B723100402C1BFB70778
:101DA000002083A7870F054581CBB707002003A537
:101DB000C70D133515000605828011E501458280A7
:101DC00001456FE00FF8EFE28FF5B707002083A71A
:101DD000870C2A846385A70289679387078073909D
:101DE000073037A60000856537A500001306863743
:101DF0009385F5041305852EEF70E02101A0BC53F7
:101E000085E78967938707807390073037A60000BE
:101E1000856537A5000013068637938505051305EC
:101E2000852EEF70401F01A05455784DFD173CD111
:101E3000E388E6F8D1F7930445002685EFE0DFD389
:101E40007C4C1D471D8F18CC370700201307470E09
:101E500014435CD463F3F6001CC351473387E70295
:101E6000B73700209387C71A0545BA97D843144758
:101E700018C454C41447C4C204C798435CC80507B7
:101E800098C381B7EFE2AFE9411105C58967938730
:101E900007807390073037A60000856537A50000DE
:101EA00013068637938565261305852EEF70A016D9
:101EB00001A037040020AE8432C6EFE05FC0930774
:101EC000840C9C431304840CFC5385E31C40324671
:101ED00005472384E70611CA85453285EFF00FB127
:101EE000B7E700E0116723A0E720EFE0FFBEEFE0D7
:101EF0001FBD1C40E85309C51C4089CC23A207061E
:101F00001C402AC623840706EFE01FBD324541016D
:101F10006FE02FE31307F5FFF8D3DDB7EFE22FE013
:101F2000411185C58967938707807390073037A66D
:101F30000000856537A50000130686379385853038
:101F40001305852EEF70200D01A005E589679387A5
:101F500007807390073037A60000856537A500001D
:101F600013068637938595301305852EEF70A00AEA
:101F700001A03AC636C432C22AC0EFE05FB432478D
:101F800002451246A24619C37C511CC383478506ED
:101F900009472304E506114793F7F70F6360D70459
:101FA0002967130747368A06BA96984202877851FE
:101FB000598E70D121A07851050778D105476387E4
:101FC000E70405452AC0EFE03FB1024541016FE05B
:101FD0004FD70947E39FE7FC0145EDB737070020DE
:101FE0000327C70F61DF89679387078073900730E6
:101FF00037A60000856537A5000013068637938550
:10200000E5331305852EEF70000101A014455845F6
:102010005C491306450098C6584554C3D44363939E
:10202000C600D8C39843232A05007D1798C3B70775
:1020300000209387470E5855944363F3E60098C3F6
:10204000D147B306F702B73700209387C71AB69770
:10205000D4438C4614C54CC58C46D0C190C694431D
:102060005CC9850694C31C5585C78967938707801B
:102070007390073037A60000856537A5000013066A
:1020800086379385D5341305852EEF60D07801A06F
:10209000B707002083A7870CDC57E3F4E7F2B7E724
:1020A00000E0116723A0E72029BFEFE24FC74111ED
:1020B00005E58967938707807390073037A600008E
:1020C000856537A50000130686379385C54013053F
:1020D000852EEF60507401A085C5896793870780BE
:1020E0007390073037A60000856537A500001306FA
:1020F00086379385D5401305852EEF60D07101A0FA
:102100002A8432C6EFE0BFA189470347840623042F
:10211000F4067C5085077CD08547639EE70A1C54F3
:10212000324685C78967938707807390073037A643
:102130000000856537A50000130686379385354373
:102140001305852EEF60306D01A0B707002083A72F
:10215000C70D5854D1E70C4454445C4894C55444CA
:1021600003A84700CCC2930544006313B800D4C34E
:102170009443232A0400FD1694C3B70700209387D5
:10218000470E944363F3E60098C3D147B306F702C2
:10219000B73700209387C71AB697D44303A88600A1
:1021A00014C42326040103A886002322B8008CC689
:1021B0005CC89443850694C3B707002083A7870CA7
:1021C000DC5763FAE70019C285471CC2B707002035
:1021D000054723A0E710EFE05F9541016FE06FB680
:1021E000B737002093870726D4438C4654CC0CD0B5
:1021F00003A88600930584012322B8008CC61CD452
:102200004DBFEFE2CFB137040020EFE05F8B130446
:1022100004111C40B1E7373500201309C529130507
:10222000C529EFE0FF90373500209304052B1305F7
:10223000052BEFE0FF8FB707002023A227110146EF
:10224000B7070020C145114523A49710EFE07FB2E6
:1022500008C019C5B7A500009385853CEFE05FEA8B
:10226000EFE09F876FE0EFADEFE26FAB4CC108C9C5
:10227000AA876362B602184D158E0545637BE6009A
:1022800093854700B707002003A58710EFE0FF8B79
:1022900001456FE00FAB6375D6000545E3FBD5FE46
:1022A00093854700B707002003A54710C5B7EFE2A5
:1022B0000FA72A84AE8432890C4CA6864A86A6953E
:1022C00022855D3719E16FE0CFA71C4C2285BE94B3
:1022D0001C508297D5B7EFE28FA4B707002083A7E1
:1022E00047104111AA84DC472EC6C047130544009D
:1022F000EFE09F8883478402324613F7470011CBF3
:10230000A68522856D371C502285829741016FE09A
:102310004FA3F99B2304F402FDB7EFE24FA037046B
:1023200000209306441098421C4391EBB70700200D
:1023300093878710904398C390C26FE08FA05C474B
:10234000FD558843493FF1BFEFE2EF9A29694111FA
:10235000B70A0020B7090020370B0020B70B002078
:102360001309493A83A74A10984329CBDC47814C8B
:1023700003AC0700EFF08FADEFF04FAE83A7C910AD
:102380002A849384C910130A0B11636CF50288C068
:10239000638F0C0283A78B1090431336160003251E
:1023A0000A00B3058C40EFE07FDCEFF08FC611ED43
:1023B000B7E700E0116723A0E72001A8854C014C96
:1023C00055BFA13F80C0EFF0CFC4214C05A001460E
:1023D000E36785FDEFF0EFC3A2856285ED3DF5B7BC
:1023E0009247B2458297824763DD070003250A00C2
:1023F00001468A85EFE0DFB735D582472245E3C144
:1024000007FE22445C4895E3EFF04FA59C40AA8C60
:102410006373F5001937824723A09401FD17E36722
:10242000FCFC8A07CA979C43828713054400EFE0AF
:10243000AFF4D9BF834784020C4C924693E7170050
:102440002304F4026686B6952285393D45D183473B
:10245000840213F7470019CB1C4C924566862285EF
:10246000BE95B1351C502285829749B7F99B23044C
:10247000F402CDBF83478402F99B2304F402BDB765
:1024800083478402924593E717002304F4020CCC9F
:102490009DE18967938707807390073037A6000016
:1024A00037A500001306063D930590351305852ECC
:1024B000EF60703601A0E6866686E69522856D336C
:1024C00035B78347840213F727005DF72285EFE0D5
:1024D0006FC029BFEFE2AF84EFF0BFD2B707002093
:1024E00083A707119DE3896793870780739007305F
:1024F00037A6000037A500001306063D930590118E
:102500001305852EEF60303101A0B7070020B7A575
:1025100000003725000093874711194781461306AD
:1025200000109385453F13058534EFE0BFDB45DDA3
:102530006FE02F81EFD21FFD41112E84AA84B28556
:102540003A853E8936C642C43AC2EF60400AAA853F
:102550008840EF501028124788C0BA853A85EF604E
:102560000009CA85EF60A008CA85EF6040080C40EA
:10257000EF50302622482A8908C0C2854285EF6084
:102580000007CA85EF50F024AA854A85EF50105BFA
:10259000B24683A904002A893685CE85EF60202EB5
:1025A000CA85EF60C004CE85EF50B022B7A7000007
:1025B00088C003A50742CA85EF60602CAA85084041
:1025C000EF60E00208C041016FD01FF7EFD23FF586
:1025D00041112A842E85EF60606F2AC422852EC6A1
:1025E000EF60C06E2246B246EF20C051EF60C07867
:1025F000B7A7000083A50741EF50B01DEF60006D45
:10260000B7A7000003A6874183A6C741EF40B04BA0
:10261000EF60807641016FD0DFF2EFD25FED2A8468
:1026200048414111AE84EF60606AAE890C40832A54
:1026300084002A892E85EF50907B2A8AD68556857C
:10264000EF50F07AAA855285EF50B018EF6000681D
:10265000EF20604B2A86AE864A85CE85EF40804EBD
:10266000EF2020042A8C0840AE8C37AD0000EF60CC
:10267000E065AE894C40832A84002A892E85EF507C
:1026800010772A8AD6855685EF507076AA855285AE
:10269000EF503014EF608063EF20E0462A86AE866C
:1026A0004A85CE85EF40004AEF10B07FB7A7000003
:1026B00003AAC73FB7A7000083A907402A8BB7A783
:1026C0000000AE8B6285E68503A94740EF60C06AD3
:1026D000EF60C05FB7AA000003A68A4183A6CA4183
:1026E000EF40703EEF604069504452884A87AA86A6
:1026F000CE879385C4002685353DDE855A85EF60FB
:10270000A067B70700803D8DEF60405C03A68A415B
:1027100083A6CA41EF40303BEF6000661048528804
:10272000CE874A87AA86938544011385840019358C
:102730008840EF60A05903268D408326CD40EF40AE
:102740009038EF606063EF6060582A8BAE8BEF20AB
:10275000E0282AC408502EC6EF6040572A8AAE8A65
:102760005A85DE85EF20E0302A8C084CAE8CEF6075
:10277000E0552246B246EF4010352A8BAE8B62867A
:10278000E6865285D685EF4010342A86AE865A8575
:10279000DE85EF3030482A8B8844AE8BEF600053E3
:1027A00003268D408326CD40EF40F031EF60C05CC2
:1027B000EF60C0512A8CAE8CEF2040222AC42EC676
:1027C0006285E685EF20E02A2A8D484CAE8DEF60C9
:1027D000E04F2246B246EF40102F2A8CAE8C6A861C
:1027E000EE865285D685EF40102E2A86AE8662850B
:1027F000E685EF303042EF6020582A8ADE855A8520
:10280000EF608057D285EFF07FDCB7A7000003A808
:1028100007425048AA86CE874A87938504011385CC
:102820004400EFF03FD141016FD03FD0EFD29FCDB8
:10283000AA84B9CD370403000904054A376900406A
:1028400093090980B70502004E85252D65FD130506
:102850000980854537090300B769004059230509F8
:10286000938A0980CA85568501256DDD93951400EC
:10287000528693F5E50F13850980B7640040452B18
:1028800093840480A2852685C5236DDD6FD0DFCAC1
:102890003704070013042408014A4DB7EFD29FC63E
:1028A00037040010B76400402A8913040408138A0F
:1028B00004808549A2855285E923E31D35FFCA8539
:1028C00013850480A92B6FD03FC7EFD2BFC3370455
:1028D0000010B7640040130404089389048005497C
:1028E000A2854E85792BE31D25FF85451385048040
:1028F000012B6FD07FC4B70600209386C61183C713
:10290000060037070020130747123E971946850730
:10291000B3E7C702034507002380F6008280EFD2A9
:102920007FBE2E8A370900108545B7640040B7097D
:102930000020EFF0BFEF01441309090493840480E1
:1029400093894912954A63674403B70400103769B5
:10295000004093840404130A09808549A6855285A2
:102960000D23E31D35FF1305098085455129228577
:102970006FD09FBCCA852685292311C926855D2174
:10298000B307340105042380A7001374F40FE31C7C
:1029900054FB856593850580268565216DB782800A
:1029A00019C5B707002023ACA71001458280054553
:1029B0008280EFD2DFB641119307D01323150100B7
:1029C0002314F10085472316010023170100230576
:1029D000F10009C985472A846303F50201454101D5
:1029E0006FD03FB63755004001469305505213054E
:1029F00005C0EF00F03F02C62800D121C5B737550A
:102A00000040054693055052130505C0EF00503EA7
:102A100022C6DDB731C1EFD29FB0B75400402A893A
:102A20002E84938404C001E401456FD09FB19305C7
:102A300000022685EF0070407DD92685EF00503FCB
:102A40007D142300A90042049305505226850509F0
:102A50004180EF00503FC1BF05458280EFD23FACBF
:102A60002A84854537050040EF007028A285370588
:102A70000040EF001027854537050040EF00701833
:102A800037050040EF005026E37CA4FE8145370562
:102A90000040EF00101701456FD0BFAA01A001A0B0
:102AA00001A001A001A001A001A001A001A001A01E
:102AB00001A001A001A001A001A001A001A001A00E
:102AC00001A001A001A001A001A001A001A001A0FE
:102AD00001A001A001A001A001A001A001A001A0EE
:102AE00001A001A001A001A001A001A001A001A0DE
:102AF00001A001A001A001A001A001A001A001A0CE
:102B000001A001A001A001A097E1FF1F938181D73F
:102B1000172100201301014F178500001305C5047C
:102B200097D5FF1F9385054E1386818263FAC500F2
:102B30008322050023A0550011059105E3EAC5FE97
:102B400017D5FF1F13058556970500209385C57E71
:102B50006377B500232005001105E36DB5FEFD4246
:102B6000739002BC894273904280B7220000938226
:102B7000028073A0023097D2FFFF9382224C93E22F
:102B8000320073905230EF10A00A97220000938217
:102B900082A373901234730020309C4513F7070111
:102BA00013F8F70001C7D8413368E800372702401F
:102BB000145B3707000F758F55EF370700208546E8
:102BC000A30ED710371701406317E50003D70500A0
:102BD00035832390E50083D5050013F7F50F39C33E
:102BE00018418146854E3D4F930F80029302800429
:102BF000214E3396DE00B3F8C50063111603939897
:102C0000260033131F011343F3FF3377E300B31898
:102C1000180133E7E8006399F70750C98506E39A7E
:102C2000C6FD18C11307F00F6375B7045441214660
:102C3000854E3D4F930F800293028004414EB3981E
:102C4000CE0033F715016392E8021317260001172F
:102C50003313EF001343F3FFB376D3003317E800C9
:102C6000D98E6397F703232A15010506E319C6FDDC
:102C700054C1828037170140E31FE5F43707002075
:102C80000347D71129DB99B7E39A57F810C979B7E9
:102C9000E39D57FC23281501C9BFB71701406318EE
:102CA000F500B707002083C7D71191C3B5810CC9C0
:102CB0008280EFD2DF8679712A84835445006808C8
:102CC0002EC6652C925737470F001307072433D7BA
:102CD000E702C204C18093F404FCC204C180B2457F
:102CE00061651305056A131607014182D18C231211
:102CF000940083560400C206C182F99AC206C182BA
:102D00002310D40094416364D5068606B3D7D70256
:102D10009146139707014183BA876373D7009147A0
:102D200005064206C2074182C1832310C402231E46
:102D3000F4008357040003D7450083D6A50093E72A
:102D400017002310F40083570400558FC207C18376
:102D500093F757BFD98F2310F40003D7850083D78B
:102D6000C500D98F2314F40045616FD08FFD03D5C2
:102D7000650031667D16631EC5020D46B386C60228
:102D8000B3D7D702C207C1839396470199E293E76D
:102D90001700A166D58F9306C0123307D70293069A
:102DA000803E3347D7020507420741832310E402E0
:102DB000BDBF6546B386C602B3D7D7029166C207C8
:102DC000C183D58FD1B78357050091C593E717000D
:102DD0002310F5008280C207C183F99BC207C1831B
:102DE000C5BF8357050091C593E707102310F50071
:102DF0008280C207C18393F7F7EFC207C183FDB793
:102E00008357050091C593E707202310F5008280C2
:102E1000C207C18393F7F7DFC207C183FDB7231849
:102E2000B5008280035505011375F50F828093F775
:102E3000E50F19C293E71500C207C1832318F500F7
:102E40008280035705009385058091E98567938704
:102E50000780D98FC207C1832310F5008280FD77D8
:102E60009387F77FF98FCDBF8357450103558501C0
:102E700042055D8D6D8D220521810D8D1335150067
:102E80008280411102C402C693D7C5012AC63EC43E
:102E9000A247A205A18199CBB247D1073EC6B2474E
:102EA000884341016D8D3335A0008280B247C181D6
:102EB000E107EDB7B707002023A0A7128280B7076C
:102EC00000209387071294430347050089E6834750
:102ED0002500920731A8944305466391C6048347B1
:102EE00025000346150092076314D60093E707F800
:102EF000B7E600E093F7F70FBA962380F6408546D1
:102F0000935757003397E6005441ADC693870704A3
:102F10008A07B7E600E0B69798C382808C4389465B
:102F20006393D50283461500834725006365D60069
:102F30008A06B69779BF9386E6038A06B69793F713
:102F4000F70F920765B790438D46631ED600834600
:102F50001500834725006364D6008606D9BF938693
:102F6000C6078606E1BF94439147E39AF6F8834784
:102F7000150085B79387070661BF371702405C438A
:102F80009146B18B6385D700A1466386D706B717F4
:102F90007A00938707201CC1371602405C4237072E
:102FA0000020130707009183BD8BBA9783C60700E3
:102FB0001C41B3D7D7005CC15442A1829D8ABA9606
:102FC00083C60600B3D6D70014C55442AD829D8A8D
:102FD000369703470700B3D7E7005CC558423983EB
:102FE0009376370013878180369703470700B3D75E
:102FF000E7021CC982805C435843C166C983BD8B0C
:10300000758F8907C5466393D700C94701EF3747D6
:10301000024003270780418B09CF37177A00130737
:10302000072021A83717024058439316E700E3D63C
:1030300006FE37173D0013070790B387E702A1BFCD
:1030400099C5371702405C4B5D8D48CB8280B7171E
:103050000240D84B1345F5FF798DC8CB828099C5C6
:10306000371702401C4F5D8D08CF8280B717024092
:10307000984F1345F5FF798D88CF828099C5371712
:1030800002405C4F5D8D48CF8280B7170240D84F19
:103090001345F5FF798DC8CF8280035705008D67F2
:1030A0009387070483D625007D8F83D70500D58FAE
:1030B00083D64500D58F83D66500D58F83D685000E
:1030C000D58F83D6A500D58F83D6C500D58F83D65F
:1030D000E500D58FD98F2310F5000357C501FD7783
:1030E0009387F77FF98F231EF50083D705012318F7
:1030F000F50082808357050091C593E707042310EC
:10310000F5008280C207C18393F7F7FBC207C18332
:10311000FDB78357050037370140130707C0C207C3
:10312000C1836304E502370700406300E50213072B
:103130000740630CE50037170040930607806306DD
:10314000D500130707C06317E50003D7250093F7E1
:10315000F7F8D98F03D7650093F7F7CFC207C1837C
:10316000D98F2310F50083D745002316F50283D7A6
:1031700005002314F502B7370140938707C0631693
:10318000F50083C785002318F5028547231AF5004B
:1031900082808357050203D6050003D82500C207A5
:1031A000C183F99BC207C1832310F502835705022F
:1031B0008356450003578501C207C18342074183F7
:1031C0001377C7F8518F03D68500F59BC206336687
:1031D0000601D18F37360140130606C0C182631342
:1031E000C50203D6A500DD9B03D8E500D18F03D629
:1031F0004500ED9B93F6F6CFD18F03D6C50033661D
:103200000601D18E2312D500231CE50003D76500EB
:10321000231AE5022310F5028280835705026577A1
:103220001307F7CFC207C183BD9BC207C183231019
:10323000F502835705028356450003D88500C2076F
:103240001396060183568501C18393F7F7FD758FA9
:1032500083D605004182A206558F83D625004207FA
:103260004183B3E606019206D58FB7360140C20707
:10327000938606C0C1836311D50483D6A50093F756
:10328000F7F703D8C5009206D58F83D64500C2074D
:10329000C183920693F7F7FBD58FFD769386F63FB1
:1032A000F18E03D6E500C207C183336606010A0624
:1032B000D18E1396060141822312C500231CE5001E
:1032C00003D76500231CE5022310F5028280835793
:1032D000050203D88500C207C18393F7F7EFC20741
:1032E000C1832310F5028357050283564500035717
:1032F000C501C20713960601420783D60500418324
:103300001377C7F8558F83D62500C18393F7F7DF6E
:10331000B3E60601A206D58FB7360140C2079386F1
:1033200006C04182C1836312D504FD769386F67F81
:10333000F58F83D6A50003D8C500A206D58F83D606
:103340004500C207C183A20693F7F7BFD58FF57674
:10335000FD16F18E03D6E500C207C1833366060170
:103360001206D18E1396060141822312C500231E38
:10337000E50003D76500231EE5022310F5028280D5
:1033800003570502FD77FD17F98F2310F502035847
:103390000502835645008357C501657703D60500AE
:1033A0001307F7CF7D8FF9772206FD17518FB3F7FB
:1033B000070103D6250003D88500C20642073366FD
:1033C00006013206D18F37360140C207130606C008
:1033D000C1824183C183631BC50071767D16F18E66
:1033E00003D6C5001A06D18EC206C1822312D500AB
:1033F000231EE50003D765002310E5042310F50222
:1034000082808357050091C593E717002310F500CC
:103410008280C207C183F99BC207C183C5BF83579E
:10342000450491C52167D98F2312F5048280C60710
:10343000C583DDBF8357050091C593E707082310B7
:10344000F5008280C207C18393F7F7F7C207C183F3
:10345000FDB783578501C207C183DD9BDD8D231C2A
:10346000B500828003578501FD779387F77FF98F39
:10347000A205CD8FC207C183231CF500828083572C
:10348000C501C207C183DD9BDD8D231EB50082808F
:103490000357C501FD779387F77FF98FA205CD8F7D
:1034A000C207C183231EF50082808357050091C5A2
:1034B00093E727002310F5008280C207C183F59BA4
:1034C000C207C183C5BF8357050091C593E7470075
:1034D0002310F5008280C207C183ED9BC207C18320
:1034E000C5BF2312B502828003554502828093C571
:1034F000F5FFC205C1812318B5008280EFD22F826B
:1035000083560501F577FD17F58F83D6650003D740
:10351000C5007971D58F2318F5008356C500FD7756
:103520009387379FF58F83D645002A842EC6D58F83
:1035300083D68500D58F83D6A500D58F2316F500B9
:1035400083574501C207C18393F7F7CFD98F231A59
:10355000F5006808EFF07FA2B74701409387078026
:10356000B245631DF404A2578356C4006547B38770
:10357000E702C206C186984163D4060406070356D3
:10358000C4004206B3D7E702130740064186B3D60C
:10359000E702B3F7E7029206635606028E079387A7
:1035A0002703B3D7E70213F77700B367D700C20743
:1035B000C1832314F40045616FC0BFF892576DB703
:1035C0000A0775BF920793872703B3D7E702BD8B1E
:1035D000D58FF1BF81C98357C5000967D98F2316DD
:1035E000F50082800357C500F977FD17F98FC5BF35
:1035F00013F7F50F85471583B395B7006319F700E7
:103600009307C500984301CED98D8CC3828089462B
:1036100093074501E318D7FE93070501E5B793C566
:10362000F5FFF98DDDB793F5F51F2312B500828004
:10363000035545001375F51F8280035505006D8DF8
:103640003335A000828093C5F5FFC205C1812310E8
:10365000B5008280EFC21FEBB7440140AE893289CA
:10366000014493840480634524014A856FC0DFECE4
:10367000930500042685D13765DDB38789008385EE
:10368000070026850504C205C181713FE9BF138784
:10369000C1801C43B7360020938646333E95636B4A
:1036A000D500B75600209386068063E5A60008C3C0
:1036B0003E858280FD57EDBFEFC27FE319718145E2
:1036C0000545EFF0FF9781450945EFF07F9781456C
:1036D0001145EFF0FF96814513050004EFF05F966A
:1036E00081450565EFF0DF9581450545EFF03F9792
:1036F00085451145EFF0BF9685452145EFF03F9692
:1037000085454145EFF0BF95814513050020EFF059
:103710001F95814513050040EFF07F94856913855F
:1037200009808145EFF0BF9385450565EFF03F9334
:1037300081450965EFF0BF9281451165EFF03F9239
:1037400085450545EFF09F9381450945EFF01F93AF
:1037500085451145EFF09F9281452145EFF01F927D
:10376000138509808145EFF07F9181451165EFF068
:10377000FF90814537050200EFF05F9081453705E6
:103780000400EFF0BF8F854537050800EFF01F8F6D
:10379000814537052000EFF07F8E854537054000D5
:1037A000EFF0DF8D814537058000EFF03F8D8145DB
:1037B00037050002EFF09F8C814537050008EFF0D8
:1037C000FF8B81453705001037140140EFF01F8B48
:1037D000854A854B930D8004CC0013050480231289
:1037E0007105D6C4EEC6EFF04FBBE144094BCC00E7
:1037F00013050480A6C623126105EFF00FBA9147A6
:10380000CC00130504802312F104A6C6EFF0EFB834
:10381000214ECC00130504802312C10572CEA6C62A
:10382000EFF0AFB74143CC001305048023126104CD
:103830001ACC82C6EFF06FB693080002CC001305D5
:1038400004802312110546CAA6C6EFF00FB513086F
:1038500000041149CC00130504802312010542C85D
:10386000CAC6EFF08FB313060008CC00130504801E
:103870002312C10432C6A6C6EFF02FB29306001081
:10388000CC00130504802312D10436C4CAC6EFF05D
:10389000CFB013070020CC00130504802312E104ED
:1038A0003AC2A6C6EFF06FAF93070040CC001305F5
:1038B00004802312F1043EC0A6C6056AEFF0EFAD06
:1038C000130A0A80CC0013050480A6C62312410502
:1038D000EFF0AFAC93058002AEC613050480CC00B8
:1038E00023123105EFF06FAB096DCC001305048096
:1038F000CAC62312A105EFF04FAA916CCC001305A4
:103900000480CAC623129105EFF02FA9617CCC0078
:1039100013050480A6C623128105EFF00FA8CC0082
:10392000130504C0A6C623125105EFF00FA7CC0063
:10393000130504C0CAC623126105EFF00FA6CC0020
:10394000130504C0A6C623122105EFF00FA5724E81
:10395000CC00130504C02312C105CAC6EFF0EFA3C3
:103960006243CC00130504C023126104A6C6EFF025
:10397000CFA2D248CC00130504C023121105CAC639
:10398000EFF0AFA14248CC00130504C0231201059B
:10399000A6C6EFF08FA03246CC00130504C0231258
:1039A000C104A6C6EFF06F9FA246CC00130504C069
:1039B0002312D104A6C6EFF04F9E1247CC00130588
:1039C00004C02312E104A6C6EFF02F9D8247F14404
:1039D000CC00130504C02312F104A6C6EFF0EF9B40
:1039E000CC00130504C0A6C623124105EFF0EF9AE0
:1039F000CC00130504C0EEC623123105EFF0EF9999
:103A0000CC00130504C0CAC62312A105EFF0EF983D
:103A1000CC00130504C0CAC623129105EFF0EF973E
:103A2000CC00130504C0CAC623128105EFF0EF963F
:103A3000C144CC0037150140A6C62312A105EFF002
:103A4000CF95CC0037150140A6C623129105EFF0A3
:103A5000CF94CC0037150140A6C623128105B73498
:103A60000020EFF08F939384442CB73701409CC023
:103A7000416993074010DCC4930729009CC8B7072D
:103A8000380093870720C0C0DCC81164B707050061
:103A90009CCC80C49385A40037350140EFF0EFDF64
:103AA000854537350140EFF0EFE483D58400C84009
:103AB00013090907EFF06F9EB7270600938707A841
:103AC000BEC8B707FFBFBECA231E8104B7070004E4
:103AD000376400409387F7028C0813050480BECC3E
:103AE000EFF02F9D130504808545EFF0CFADB707AC
:103AF00020009387F708371400403ED6B72700020E
:103B0000938707716C10130504803ED8231A0102B5
:103B1000EFF02FE08C1082D413050480CAD0231458
:103B2000610782D282D6EFF0CFE68C1013050480B5
:103B3000EFF0AFEE8C1013050480EFF04FF98C100E
:103B400013050480EFF0DF83130504808545EFF053
:103B50001F8D130504808145EFF0BF8F130504808E
:103B60008145EFF03F90130504808145EFF03F91D0
:103B7000130504808145EFF0BF911305048085454E
:103B8000EFF05F8B130504808545EFF09F87B797B3
:103B900010009387F7C93EDCB7770002938707537D
:103BA0002C18370500403EDE23100104EFF06FD6DD
:103BB000854537050040EFF0FF8785453705004014
:103BC000EFF07F90854537050040EFF01F8EF167DD
:103BD000938707203754004082DEBED89307003019
:103BE00082DC231EF1068C18B147130504C0231D87
:103BF000F10682DAEFF09F900546930550521305C7
:103C000004C0EFF0FF9E9307D01323130102481066
:103C10002312F1022303710356D4EFF04FAA1305C8
:103C200004C08545EFF01F9B014509616FC0FF8F00
:103C3000B71702409843B706FFF841111367170002
:103C400098C3D84337060200758FD8C39843B70688
:103C5000F7FEFD16758F98C39843B706FCFFFD1657
:103C6000758F98C3D843B70681FFFD16758FD8C3EB
:103C700037079F0098C702C402C69843C166558F94
:103C800098C3B716024005679C42F18F3EC6A24713
:103C900085073EC4B24781E7A247E397E7FEB7171F
:103CA00002409C431397E7006355070685473EC6CD
:103CB00032478547631DF704B7170240D843B7065C
:103CC000C1FFFD16D8C3D843D8C3D843D8C3D843FF
:103CD000758FD8C3D843B7063D00558FD8C39843D6
:103CE000B7060001558F98C3984393166700E3DD2C
:103CF00006FED843B7160240719BD8C3D84313675A
:103D00002700D8C32147DC42B18BE39EE7FE410187
:103D1000828002C671BFB7160240DC421146B18BE9
:103D2000138701816385C70021466389C702B717DE
:103D30007A00938707201CC3B7170240DC439183A6
:103D400093F6F700B707002093870701B69783C65D
:103D500007001C43B3D7D7001CC38280DC42D44287
:103D60004166C983BD8BF18E890745466393C700C1
:103D7000C94781EEB746024083A60680C18A89CE34
:103D8000B7167A009386062021A8B7160240D442BF
:103D90001396E600E35606FEB7163D00938606909E
:103DA000B387D70249BF15CDEFC26FF7AA84373565
:103DB00000201304852F1306840093054400130587
:103DC000852F1D225C40B70600801840B58F5CC06F
:103DD000DCC01C44358F18C098C09CC401456FC01E
:103DE0004FF605458280EFC28FF3AA843735002055
:103DF0001304453013068400930544001305453031
:103E0000792258401C40B7060080358FB58F1CC002
:103E100058C09CC01C44D8C001459CC46FC06FF200
:103E2000EFC2EFEF37390020AA841305092E1304DF
:103E3000092E212183570400035724001305092E5E
:103E4000B307F0403307E0402311F4002310E400EF
:103E500099211C4401459CC05C44DCC01C489CC4A6
:103E60006FC02FEEEFC2AFEBEFE0BFB401456FC004
:103E70004FEDEFC2CFEAEFE0BFB201456FC06FEC8C
:103E8000EFC2EFE98545EFE0FFB801456FC06FEB8A
:103E9000EFC2EFE8814513058006EFE03F99130577
:103EA000B006EFE0BF9F0145EFE05F9FEFE0FFA1AD
:103EB000814513058006EFE07F976945EFE01F9E7F
:103EC0001545EFE0BF9DEFE05FA08145130580063B
:103ED000EFE0DF957145EFE07F9C4145EFE01F9CEF
:103EE000EFE0BF9E6FC0EFE5EFC2CFE14111AA8ABC
:103EF0002E8A13058006814532C6EFE03F931305F5
:103F0000B003EFE0BF99EFE05F9C99451305800691
:103F1000EFE0FFA0EFE03F9EAA84A204EFE0BF9D88
:103F2000C98CEFE05F9D2A842204EFE0DF9C498C7E
:103F3000C204EFE05F9C2A89C184EFE0DF9BAA897D
:103F40002685EF40504CB7A4000083A544424204AC
:103F50004184EF40C06923A0AA002285EF40B04A07
:103F600083A54442EF40A0682320AA0013158900CE
:103F70003365350142054185EF40F04883A5444251
:103F8000EF40E066324608C241016FC0EFDAEFC28F
:103F90008FD62A8BAE8A130580068145B289EFE061
:103FA000FF8813053004EFE07F8FEFE01F92994503
:103FB00013058006EFE0BF96EFE0FF93AA84A2040A
:103FC000EFE07F93C98CEFE01F932A842204EFE097
:103FD0009F92498CC204EFE01F922A89C184EFE0CE
:103FE0009F912A8A2685EF401042EF40304EB7A4B9
:103FF000000003A6844283A6C44242044184EF2009
:104000007034B70700202A8C03A50713AE8CEF404D
:10401000F04B2A86AE866285E685EF304076EF402B
:10402000B0552320AB002285EF40F03DEF40104A11
:1040300003A6844283A6C442EF20D030B7070020F5
:104040002A8B03A5C712AE8BEF4050482A86AE8656
:104050005A85DE85EF30A072EF40105223A0AA00EF
:10406000131589003365450142054185EF40B0399C
:10407000EF40D04503A6844283A6C442EF20902C93
:10408000B70700202A8403A54713AE84EF401044ED
:104090002A86AE862285A685EF30606EEF40D04D31
:1040A00023A0A9006FC0AFC8EFC2CFC541118145A1
:1040B00013058006EFE08FF71305B006EFE00FFE63
:1040C0000145EFE0AFFDEFE05F808145130580061D
:1040D000EFE0CFF56945EFE06FFC1545EFE00FFC31
:1040E000EFE0AFFE814513058006EFE02FF46D454C
:1040F000EFE0CFFA214593040000EFE02FFA13041C
:10410000107DEFE08FFC2689A6897D144204418052
:1041100029E037A40000832504434E85370A002098
:10412000EF40C021832504432328AA124A85EF408B
:10413000E02083250443B709002023A6A912268581
:10414000EF40C01F37090020232AA91241016FC088
:10415000AFBE70002C004800EFF07FE392454E8523
:10416000EF303067A245AA894A85EF309066B245A4
:104170002A892685EF30F065AA840545EFE01F8E79
:1041800069B7EFC2CFB9EFF03FF2EFF07FD06FC069
:104190004FBBEFC2CFB8814513058006EFE00FE9B2
:1041A0001305A006EFE08FEF0145EFE02FEFEFE002
:1041B000CFF1814513058006EFE04FE7130570034B
:1041C000EFE0CFED0945EFE06FEDEFE00FF0814557
:1041D00013058006EFE08FE51305B006EFE00FEC66
:1041E0000145EFE0AFEBEFE04FEE81457945EFE0C1
:1041F000EFE30945EFE08FEA0145EFE02FEAEFE05A
:10420000CFEC81457945EFE06FE20145EFE00FE942
:1042100013050007EFE08FE8EFE02FEB81457945CC
:10422000EFE0CFE00545EFE06FE713050002EFE0B8
:10423000EFE6EFE08FE96FC0CFB0EFC24FAEAA84D8
:1042400081457945EFE08FDE0D45EFE02FE5EFE0AA
:10425000CFE799457945EFE08FECEFE0CFE92A848D
:104260002204EFE04FE9498C23908400EFE0AFE8AF
:104270002A842204EFE02FE8498C23928400EFE0A7
:104280008FE72A84EFE02FE7931784005D8D239159
:10429000A4006FC00FABEFC28FA82A8403150500DE
:1042A000B7A40000EF30D04BB7A7000003A68743A8
:1042B00083A6C743EF30A04C03A6044483A644441E
:1042C000EF205008EF40502B08C403152400EF30B6
:1042D0003049B7A7000003A6874483A6C744EF2050
:1042E000601303A6044483A64444EF20B005EF40C6
:1042F000B02848C403154400EF30904603A6044498
:1043000083A64444EF201004EF40102708C86FC074
:104310004FA3EFC2CFA0B707002037070201938752
:1043200087131307D77098C3130720102392E70051
:10433000EFF03FE5EFF0FFE501456FC08FA001A072
:1043400001A0EFC22F9C597113064002814528102D
:1043500002C202C402C602C802CA02CC02CE02D005
:1043600002D2370A0020EFC08F9EB709002037091C
:104370000020B7040020370400204800EFF0BFA25F
:104380000808EFF05FA66808EFF09FA94C003146DF
:104390002810EF40F03C0C0831464818EF40503CE4
:1043A0006C0831468800EF40B03B03260A152C10FC
:1043B0001305803EEFC02FA95145EFC0CFAE03A536
:1043C0008915B7E700E0116723A0E720EC008546D8
:1043D0000546EFD07F9303250916EC008546054678
:1043E000EFD09F9203A54415EC0085460546EFD01B
:1043F000BF910325C41585460546EC00EFD0DF903C
:10440000ADBFEFC22F905D71130640028145681069
:10441000EFC0EF93614681454808B70900C037D91E
:10442000CC44B7A499B11564EFC06F92370B00204C
:1044300002C202C402C623180100A301010093892D
:10444000A90A1309F9D3938414A4130414C4B70A52
:104450000020370A002003260B15930631006C104C
:104460001305803EEFC0CFA07DF54C086810EFE04B
:10447000CF9A03A68A144C001305803E4EC24AC44C
:1044800026C623188100EFC00F9C03254A158145DD
:10449000EFC04FA4C9B7EFC28F880111B737002012
:1044A0009387073139470008054502C802CA02CC84
:1044B000231E0100A307010080C32394E700B70473
:1044C0000020EFF03F9A1305803EEFC0AF9E03A699
:1044D00084149306F100A2850145EFC06F991389FA
:1044E00084148347F100E5D379FD03260900930680
:1044F000F100A2850145EFC0AF97E5B7EFC22F826B
:10450000B73700203737002093870731130707326A
:10451000D8C339472395E70023860700EFF04FF112
:10452000EFF06FFF0945EFE0FF98374500001305F6
:104530008554EFF01F94EFF02F98EFF09FDD1305F7
:10454000803EEFC02F97E5BFEFB27FFD37340020EC
:10455000130404318347C40093F7F70F9DEB37052D
:1045600000209304051413050514EFF07F9183C711
:10457000040013075005639CE7000547B7060020B9
:104580002306E400239FE61258402300F7006FB093
:104590005FFBB70400209384E41383D704004840F2
:1045A0003E95EFF0FF8D83D704000357A4008507E5
:1045B000C207C1832390F400E31BF7FC2306040029
:1045C000F9B7EFB2DFF5370600201306061593059D
:1045D00040022945EFC00F85370600201306C61498
:1045E000E1452945EFC00F84370600201306461425
:1045F000B9452945EFC00F833706002013068614FE
:10460000B9452945EFC00F8237070020B7A5000044
:104610003745000013078715914613060010938550
:10462000054513052534EFB01FFD37070020B7A55A
:10463000000037450000130707168D4613060010CB
:104640009385454613052540EFB0FFFA3707002054
:10465000B7A5000037450000130747158946130624
:1046600000109385454713056549EFB0DFF837071C
:104670000020B7A50000374500001307C715954671
:1046800013060010938585481305C54FEFB0BFF69C
:10469000EFB09FF837A4000013050449EF405029FC
:1046A000E5BF79714AD01399150022D426D256CA93
:1046B00006D64ECE52CC5AC85EC613591900B7075B
:1046C00010442E84AA84AE8A6347F904B707F07FAA
:1046D00063CE2701630BF900635B501F97670000EF
:1046E0009387C7DC8443C04311A87DD526862685E1
:1046F000A286A285EF101052AA842E84A285B25001
:104700002254268502599254F249624AD24A424BB7
:10471000B24B45618280B707DC3F6358F91CB7078D
:10472000203E6343F9187D5A2686A2862685A285F7
:10473000EF2070392A86AE862A8BAE8BEF20B038F8
:1047400097670000938707DA9043D4432A89AE899C
:10475000EF20703797670000938747D99043D44381
:10476000EF10504B4A86CE86EF20F0359767000059
:10477000938747D89043D443EF10D0494A86CE86DA
:10478000EF20703497670000938747D79043D44356
:10479000EF1050484A86CE86EF20F032976700002F
:1047A000938747D69043D443EF10D0464A86CE86AF
:1047B000EF20703197670000938747D59043D4432B
:1047C000EF1050455A86DE86EF20F02F97670000E5
:1047D000938747D49043D4432A8BAE8B4A85CE85AA
:1047E000EF20702E97670000938747D39043D44300
:1047F000EF20F0784A86CE86EF20F02C97670000F5
:10480000938747D29043D443EF2070774A86CE8671
:10481000EF20702B97670000938747D19043D443D4
:10482000EF20F0754A86CE86EF20F02997670000CA
:10483000938747D09043D443EF2070744A86CE8646
:10484000EF2070282A86AE865A85DE85EF10903CD0
:104850002686A286EF203027FD572A86AE86630F74
:10486000FA060E0A97670000938747CFD2979043C6
:10487000D44397670000938767CC3E9AEF2030704F
:104880002686A286EF20B06F2A86AE8603250A0010
:1048900083254A00EF20B06EAA842E84E3D00AE676
:1048A000370400802D8C99BD97670000938707C15E
:1048B0009043D443EF10103697670000938787C06A
:1048C0009043D443EF20F009E35FA0E405BD976770
:1048D0000000938727BE8443C0430DB52685A2857B
:1048E000EF20F069AA842E8411BD4922B707F33F57
:1048F0002A84AE846358F904B707E63F635CF90A7B
:104900002A86AE86EF10103197670000938787BB29
:104910009043D443014AEF20906697670000938745
:10492000E7BA9043D4432A89AE892285A685EF1041
:10493000702E2A86AE864A85CE85EF20A020AA84D6
:104940002E84DDB3B78703406358F904176900006C
:10495000130949B80326090083264900094AEF20B4
:10496000106203260900832649002A8BAE8B22851C
:10497000A685EF205015976700009387A7B4904352
:10498000D443EF1030292A86AE865A85DE85EF2083
:10499000601BAA842E8449BB97670000938707B4E5
:1049A0008843CC432286A686EF20C0190D4AAA84EC
:1049B0002E849DBB176900001309C9B003260900A6
:1049C00083264900054AEF20905B2A8BAE8B032695
:1049D0000900832649002285A68565B7011122CCEE
:1049E000370400809347F4FF3727E93F06CEED8F69
:1049F0001307B71F6350F7043707F07F63CAE70058
:104A0000AE862A86EF20B057F2406244056182806C
:104A10000A86412E0D8985476306F502894722469D
:104A2000B246630FF50205C9024592450547EF10EE
:104A3000C05AD9BF01468146EF00701AF240624465
:104A4000056182802246B246024592450547EF1035
:104A5000C058A18D55BF02459245EF0050186DB763
:104A600002459245EF00B017A18D79BF860585817B
:104A70008280011122CC370400809347F4FF37274E
:104A8000E93F06CEED8F1307B71F6350F7043707D2
:104A9000F07F63CAE700AE862A86EF20504EF240D0
:104AA0006244056182800A86ED2C0D898547630783
:104AB000F50289472246B246630FF5021DC502453D
:104AC0009245EF00D011A18DD9BF01470146814623
:104AD000EF10A050F2406244056182802246B24647
:104AE00002459245EF00B00F5DBF02459245054774
:104AF000EF10A04E6DB7024592450547EF10E04D0F
:104B0000A18D71BF6DA85D71A2C4A6C2CAC052DEDC
:104B100056DC86C62A84AE84C52D9387418103A9BD
:104B20000700FD572A8AAE8A6301F9022286A6860B
:104B30002285A685EF30803809E901468146228525
:104B4000A685EF20E06C634C0500B64026445285F4
:104B5000D68596440649725AE25A61618280854739
:104B60003EC497670000938767A13EC602D422CC5B
:104B700026CE22C826CA630709020146814632852D
:104B8000B685EF10307C2AD02ED28947631EF900FB
:104B9000EF40803C930710021CC1A25781EF025ADC
:104BA000925A65B702D002D22800EF1020716DD161
:104BB000A257F5D7EF40403AA2571CC1CDB7B30773
:104BC000C040370700801347F7FFD18F4111337E74
:104BD000D700FD8306C622C4B3E7C7013703F07FC1
:104BE000AA882E886367F304B307A040C98F6D8F2E
:104BF000FD83D98F2E8F636EF302B70710C0B6976F
:104C0000D18FF1C713D4E64193752400B367A70091
:104C10001354F8014D8C85EB8947630FF40A8D47D7
:104C20006312F40A97670000938747968843CC4342
:104C300039A03285B6854686C286EF10A07DB24087
:104C4000224441018280B367CE00A5C763046E0A87
:104C5000630167063307C74151879307C00363C4E5
:104C6000E70863D80600930740FC01458145634A85
:104C7000F7004685C285EF10F06CEFF03FDFEFF0F4
:104C80005FA285476300F40C8947630AF40845D89E
:104C900097670000938787929043D443EF20302E8C
:104CA000976700009387078E9043D443EF20302D01
:104CB00079B7634F0F04975700009387277F884386
:104CC000CC43B5BFB2402244C28541018280224418
:104CD000B24041016FF0FF9C976700009387878A7D
:104CE0008843CC43A9BF975700009387277C88430C
:104CF000CC4341BF8947630BC705E30FF4FC8D47E5
:104D0000E302F4F285476302F4060145814505BFDD
:104D1000975700009387077A8843CC430DB797676E
:104D200000009387A7899043D443EF2050259767CD
:104D30000000938727852A86AE868843CC43EF20E0
:104D40001024F5BDB7070080BD8DD5BD6304F40404
:104D50008D47630AF40285476300F40297670000F9
:104D60009387C7848843CC43D9BD97670000938756
:104D700067828843CC43E1B59767000093878783B8
:104D80008843CC436DBD976700009387A781884314
:104D9000CC4375B597670000938747808843CC4321
:104DA00079BD5971A2D43727E93F1394150086D6EF
:104DB000A6D2CAD0CECED2CCD6CADAC8DEC6E2C41B
:104DC000E6C2EAC06EDE05801307B71F635C871476
:104DD00037E702401307B797B289634F87069757A3
:104DE00000009387277E9043D4436357B03AEF2067
:104DF0001019B727F93F9387B71F2A8AAE8A63092C
:104E0000F414175400001304647C1040544085448B
:104E1000EF20F0162A86AE8623A0A90023A2B900AF
:104E20005285D685EF20B01510405440EF20301544
:104E300023A4A90023A6B900B650265426850659F6
:104E40009654F649664AD64A464BB64B264C964C83
:104E5000064DF25D65618280372739411307B71F20
:104E60002E89635987103707F07F6355E40C135A76
:104E70004441130AAABE93174A011D8CA285AA8435
:104E8000EF308007EF30C00D2A87AE873A86BE86A6
:104E90002685A2853ACC3ECE975400009384847632
:104EA000EF20F00D9040D440EF20E041AE8B2A8BF4
:104EB000EF3080042A84EF30A00A2A87AE872A8642
:104EC000AE865A85DE853AD03ED2EF20500B904018
:104ED000D440EF20403F814601462AD42ED6EF2011
:104EE000A021B3368000850663180522975700007D
:104EF0009387C77909475286CE852808EF00A079A5
:104F0000AA84E35B09F203A7490083A7C900B70697
:104F10000080358FB58F23A2E90023A6F900B304E2
:104F2000A04019BF08C24CC2232406002326060055
:104F3000814419B72A86AE86EF20700423A4A90005
:104F400023A6B90023A0A90023A2B9008144EDB58E
:104F500097570000938707689043D4431754000085
:104F60001304C4678544EF2090012A8AAE8A10405A
:104F7000544079BDEFF09FAF975700009387876645
:104F80009043D4432A8AAE8AEF20E033975700003B
:104F90009387C7659043D443EF10C047EF20D07587
:104FA000AA84EF20F07B975700009387A761904376
:104FB000D4432A8BAE8BEF2000312A86AE865285F1
:104FC000D685EF20C07B97570000938727609043DA
:104FD000D4432A8DAE8C5A85DE85EF20C02E2A8AD6
:104FE000AE8AFD476A85E6855286D68663C79702F4
:104FF000EF20E0789387F4FF13972700975700007E
:105000009387C760BA979C43AA8D2E8C638B8700C9
:1050100023A0A90023A2B90025A0EF204076AA8DE5
:105020002E8C93574C011358444193F7F77FB307E5
:10503000F840C14663C6F60423A0B90123A2890142
:105040006E86E2866A85E685EF2060735286D68694
:10505000EF20E07223A4A90023A6B900E35E09DCD7
:10506000B707008033CC8701BD8D23A0B90123A2EF
:10507000890123A4A90023A6B900B30490406DBB05
:1050800097570000938707559043D4435A85DE8590
:1050900042C4EF2040232A8AAE8A2A86AE866A85D9
:1050A000E685EF20C06D2E8C2A86AE862A842EC619
:1050B0006A85E685EF20A06C5286D686EF20206CAC
:1050C00097570000938787519043D4432A8AAE8A2A
:1050D0005A85DE85EF20201F5286D686EF20206A73
:1050E0002A86AE862A8AAE8A2285E285EF2020694A
:1050F000224893D7450193F7F77F3308F840930789
:105100001003E28CAA8D2E8C63CA070123A0A9008C
:1051100023A2B900228D2DB78D46C9BB9757000039
:105120009387474D9043D4435A85DE85EF20A019DD
:10513000324C2A8AAE8A2A86AE862285E285EF2004
:1051400000642A86AE862A8DAE8C2285E285EF2009
:1051500000635286D686EF208062975700009387BF
:10516000E7499043D4432A8AAE8A5A85DE85EF20E8
:1051700080155286D686EF2080602A86AE862A8ADF
:10518000AE8A6A85E685EF20805FAA8D2E8C23A0EB
:10519000A90023A2B9006DB5EF10C027B727F93FCA
:1051A0009387B71F2A8AAE8A630EF4021754000051
:1051B0001304C44110405440FD54EF10A0252A862A
:1051C000AE8623A0A90023A2B9005285D685EF2080
:1051D000005B10405440EF10E02323A4A90023A655
:1051E000B90099B9975700009387C73E9043D443BD
:1051F000175400001304843EFD54EF10A0212A8AA6
:10520000AE8A1040544055BF41113707F07F22C489
:1052100026C206C63378B7002E84AA84630DE8162A
:10522000AE87AA86635FB00E13DE454163010E1A96
:10523000370710001306F7FFF18FD98F130E1EC02A
:105240001397170013761E0093D7F601BA9713979A
:10525000160011C67D838607BA9713972600135E42
:105260001E40D945814E8146370620003385C60051
:105270001358F701FD1563C6A700898FB306C50053
:10528000B29E8607C29706070582EDF1130500025C
:10529000014381483706008019A86385D70E9355CE
:1052A000F70186077D15AE97060705820DC9B30580
:1052B0001601E3D4F6FEB388C500368863CE050A2E
:1052C000958FB336B700958F0D8F9355F7018607ED
:1052D0007D153293C286AE970607058269F9D98F8C
:1052E0009354130089CB93041300FD5785806314F6
:1052F000F300850E814413D71E403704E03F93FE30
:105300001E003A9463850E00B7070080DD8C1317EA
:105310004E012297B24022442685BA85924441012B
:1053200082801397150005833368A7002E87E30357
:1053300008FED9E193D5B600AD172E87D606FDD964
:1053400013D6450141EA014611A02A8606079315A6
:10535000B70013051600E3DA05FE9308000236884D
:10536000B388A840BA85B396A60033571801338E88
:10537000C740B367B7006DBD13C8F8FF1358F801F5
:1053800036983DBFE36DB7F0B388C500E3C605FEB0
:105390003E88814715BF2A86AE86EF10D0722686DA
:1053A000A286EF102007B2402244AA842E872685C9
:1053B000BA859244410182802A86AE86EF20203C45
:1053C0002A86AE86EF100078AA842E87A1B72E8792
:1053D000814795BF3688930800027D5679B73971A9
:1053E0005AD0139B15004AD84ED662CC66CA06DE48
:1053F00022DC26DA52D456D25ECE6AC86EC6135B61
:105400001B00B707403E2E8CAA8C3289B6896355A3
:10541000FB10EF20702E630905266686E2866685FE
:10542000E285EF10506A975700009387A7379043A3
:10543000D4432A84AE84EF101069975700009387F5
:10544000E7369043D443EF00F07C2286A686EF1027
:105450009067975700009387E7359043D443EF2038
:1054600000322286A686EF101066975700009387B9
:10547000E7349043D443EF00F0792286A686EF10FC
:105480009064975700009387E7339043D443EF200D
:10549000002F2286A686EF1010639757000093878F
:1054A000E7329043D443EF00F0762286A686EF10D1
:1054B00090612A8AAE8A97570000938727139043FA
:1054C000D4432285A685EF1010602A8BAE8B5286BE
:1054D000D6862285A685EF10105F2A84AE844A8680
:1054E000CE866685E285EF10105E2A86AE8622851E
:1054F000A685EF20C0282A86AE865A85DE85EF2055
:105500000028975700009387E7FB2A86AE868843DA
:10551000CC43EF20C0260DAA2A86AE86EF10B05AE3
:1055200097570000938707289043D4432A84AE847A
:10553000EF10705997570000938747279043D44343
:10554000EF00506D2286A686EF10F05797570000A7
:10555000938747269043D443EF2060222286A68675
:10556000EF10705697570000938747259043D44318
:10557000EF00506A2286A686EF10F054975700007D
:10558000938747249043D443EF20601F2286A6864A
:10559000EF10705397570000938747239043D443ED
:1055A000EF0050672286A686EF10F051B737D33F41
:1055B000938727332A8AAE8AE3DF67EFB707E93F8D
:1055C00063C3670B175700001307C7EFB707E0FF68
:1055D00008434C433E9B8147DA863E863E8DEF2052
:1055E000001ADA8DAE8B2A8B97570000938707003D
:1055F0009043D4432285A685EF10F04C6A86EE8650
:10560000EF20E0172A8DAE8D5286D6862285A6859C
:10561000EF10704B2A84AE844A86CE866685E2857A
:10562000EF10704A2A86AE862285A685EF202015C7
:105630002A86AE866A85EE85EF2060142A86AE86BD
:105640005A85DE85EF20A013F2506254D25442599D
:10565000B259225A925A025BF24B624CD24C424DE2
:10566000B24D21618280975700009387A71203AB48
:10567000070083AB4700975700009387271203ADBD
:10568000070083AD47008DB797570000938787E3E6
:105690008843CC4355BF130101D5232E3129B68948
:1056A000131827003ADC3ED4175700001307871859
:1056B0009387F9FF232EB12742972326112A23240B
:1056C000812A2322912A2320212B232C4129232A9A
:1056D0005129232861292326712923248129232262
:1056E00091292320A129B1562AD22EDA3EC8832D32
:1056F0000700634FD67E1307D6FFE147B347F70293
:105700003ED0850713972700998F8E078255938681
:10571000F9FF3387DD00B2973384D54013091700B2
:105720003ECA0409229963430702225A93172400B0
:10573000D29701458145634504008843EF2050021C
:1057400088C0CCC00504A104E31224FF63C40D0685
:10575000C24B125D1C0913993B0013048900139A74
:105760003D003E99BC0B840B3E9A6A944A8BEA8AB0
:10577000014C814C63C80B0203260B0083264B00AF
:1057800003A50A0083A54A00A10A611BEF10B033EC
:105790002A86AE866285E685EF00D0472A8CAE8CDD
:1057A000E39C8AFC23A0840123A29401A104210983
:1057B000E39E44FB13972D007018930687FF330C6C
:1057C000E600980036973AD8125713943900938719
:1057D000FDFF3A94370700207D173ACC3707800049
:1057E0007D178A073ADE981CBA97EE84130D011DC7
:1057F0003ED66ECE93973400981CBA9703AA07F64C
:1058000083AA47F663569008E24793090104338957
:10581000F400975700009387670003A847009C4354
:105820000E0942C23EC0975700009387A7DD03A828
:1058300047009C436A9942C63EC411A03E89024675
:1058400092465285D685EF101028EF20E06AEF20AF
:1058500020712246B2462A8BAE8BEF10D0262A86C4
:10586000AE865285D685EF109071EF20E068032652
:1058700009008326490023A0A900DE855A85EF0090
:1058800070392A8AAE8A930789FF9109E3182DFBA4
:10589000524BD68552855A86EF00902297570000CA
:1058A000938747F89043D4432A89AE89EF10B021FB
:1058B000EF00D00B97570000938747F79043D443EE
:1058C000EF1070202A86AE864A85CE85EF10306BA9
:1058D000AE892A89EF204062AA8AEF2060682A8672
:1058E000AE864A85CE85EF1090692A89AE896357C6
:1058F00060139387F4FF981C8A07BA9703AA07DD01
:10590000614733076741B356EA403397E6003307F0
:10591000EA405D4A330A6A4123A8E7DC335A47412B
:10592000B69A634B4011014681464A85CE85EF10F9
:10593000A07C6318051AF2471386F4FF634FF60044
:10594000939724009800F117BA9701479443F117F1
:10595000558FE39D87FF631D0728B25783A707DD97
:1059600063930728C2570547F117D4430507EDDEB7
:1059700093871400BE8ABA944247925D62C033098D
:10598000F7000257330AF70062478E070A0A3A996E
:1059900022570E09B309FD001C093A9A3E990325C6
:1059A0000A00EF20E05BC2472324A9002326B900A8
:1059B00063C90704CA8B6E8B014C814C31A003A5CF
:1059C0000B0083A54B00E11B03260B0083264B0035
:1059D000210BEF10500F2A86AE866285E685EF0018
:1059E00070232A8CAE8CE31C8BFC23A0890123A29C
:1059F0009901850A110AA1092109E3D254FB024C3D
:105A0000D5BB014C814C23A0890123A29901850AB1
:105A1000110AA1092109E3D454F9D5B7D2476398F3
:105A200007189387F4FF8A07981CBA9703AA07DD23
:105A3000135A7A41E35940EF850A635F904A06485A
:105A4000854763150812638EF400D400054703A848
:105A50000600930717009106631B08103E87E39822
:105A6000F4FE52476353E00285476307F7468947D0
:105A7000631DF7009387F4FF981C8A07BA9703A762
:105A800007DD2A07298323A8E7DC8947E31DFAE815
:105A900097570000938707A38843CC434A86CE8656
:105AA00042C0EF10D04D02482A89AE89E30D08E6C6
:105AB00097570000938707A18843CC435246EF00D5
:105AC00030002A86AE864A85CE85EF10504B2A8953
:105AD000AE89014681464A85CE85EF10E061E30C30
:105AE00005E4524D4A85CE853306A041F24DEF00C4
:105AF000207D975700009387E7B003A9070083A98B
:105B000047002A8C4A86CE86AE8CEF1080656340B3
:105B1000054617570000130767D0104354436285AA
:105B2000E685EF10407AEF20203D9C1C1394240062
:105B30003E94AA8BEF20C0424A86CE86EF10A07812
:105B40002A86AE866285E685EF107043EF20C03A64
:105B5000138B1400981C93172B00BA972328A4DCEE
:105B600013078D013ACA23A877DD55A801470A0714
:105B700037060001941C369733080641232807DDB9
:105B800063D597028A073387F6008C00939624002A
:105B9000032707DDAE97AE967D1611A09843330715
