:100000006F20301E130000001300000013000000DA
:100010001300000013000000130000001300000094
:100020001300000013000000130000001300000084
:08003000130000007300100032
:1000380000000000000000002442000026420000EA
:10004800000000007A290000000000000000000005
:100058007C2900007E29000000000000000000004C
:10006800420A00000000000000020000000000003A
:100078008429000086290000882900008A290000B8
:100088008C2900008E290000902900009229000088
:100098009429000096290000982900009A29000058
:1000A8009C2900009E290000A0290000A229000028
:1000B800A4290000A6290000A8290000AA290000F8
:1000C800AC290000AE290000B0290000B2290000C8
:1000D800B4290000B6290000B8290000BA29000098
:1000E800BC290000BE290000C0290000C229000068
:1000F800C4290000C6290000C8290000CA29000038
:10010800CC290000CE290000D0290000D229000007
:10011800D4290000D6290000D8290000DA290000D7
:10012800DC29000056280000E0290000000000003B
:080138000000000000000000BF
:10020000130181F806C216C41AC61EC822CA26CC1B
:100210002ACE2ED032D236D43AD63ED842DA46DC76
:100220004ADECEC0D2C2D6C4DAC6DEC8E2CAE6CC46
:10023000EACEEED0F2D2F6D4FAD6FED8F3220030CF
:1002400096DA9702002083A262E823A02200F32519
:1002500010342EC003A1C181EF10406D17030020A0
:100260000323C3E603210300824273901234D65263
:10027000739002309240A2423243C2435244E2445D
:10028000724582551256A2563257C2575258E258FA
:1002900072598649164AA64A364BC64B564CE64C0E
:1002A000764D865D165EA65E365FC65F13018107DA
:1002B0007300203013000000130000001300000042
:1002C00013000000130000001300000013000000E2
:1002D00013000000130000001300000013000000D2
:1002E00013000000130000001300000013000000C2
:1002F00013000000130000001300000013000000B2
:1003000083A2C181938202E073900234170100201E
:100310000321C1DB024182403243C2435244E244E2
:10032000724582551256A2563257C2575258E25859
:1003300072598649164AA64A364BC64B564CE64C6D
:10034000764D865D165EA65E365FC65FD652A1020A
:1003500073900230A24213018107828013000000D3
:100360001300000013000000130000001300000041
:100370001300000013000000130000001300000031
:100380001300000013000000130000001300000021
:100390001300000013000000130000001300000011
:1003A0001300000013000000130000001300000001
:1003B00013000000130000001300000013000000F1
:1003C00013000000130000001300000013000000E1
:1003D00013000000130000001300000013000000D1
:1003E00013000000130000001300000013000000C1
:1003F00013000000130000001300000013000000B1
:10040000F322003093F272FF130380181203B3E259
:100410006200711523205500130585FA10C12115BE
:10042000232005009302000063870200711523203A
:100430000500FD12D5BF71150CC1828000000000BF
:1004400000000000000000000000000000000000AC
:10045000000000000000000000000000000000009C
:10046000000000000000000000000000000000008C
:10047000000000000000000000000000000000007C
:10048000000000000000000000000000000000006C
:10049000000000000000000000000000000000005C
:1004A000000000000000000000000000000000004C
:1004B000000000000000000000000000000000003C
:1004C000000000000000000000000000000000002C
:1004D000000000000000000000000000000000001C
:1004E0000000000000000000000000000000397162
:1004F00001436EC619A0397141536AC866CA62CCFD
:100500005ECE19A0397101535AD056D252D44ED66C
:100510004AD826DA22DC06DE3301614082824111AC
:100520004AC026C222C406C68282B24D4101024D93
:10053000924C224CB24B4101024B924A224AB249A0
:100540004101024992442244B240410182803D432C
:100550002A876373C3029377F700BDEFADE5937607
:1005600006FF3D8ABA960CC34CC30CC74CC7410763
:10057000E36BD7FE11E28280B306C3408A0697027E
:10058000000096966780A6002307B700A306B70071
:100590002306B700A305B7002305B700A304B700DF
:1005A0002304B700A303B7002303B700A302B700D7
:1005B0002302B700A301B7002301B700A300B700CF
:1005C0002300B700828093F5F50F93968500D58DB3
:1005D00093960501D58D61B7939627009702000089
:1005E00096968682E78086FA9680C1171D8F3E9682
:1005F000E374C3F8A5B711CD054889CD01CEEFF25C
:100600001FF2BA8736878146EF00704D0148428558
:100610000DBF054842858280EFF27FF0EF00506FFA
:10062000014505B711CD854789CD01CEEFF23FEFEA
:1006300032840146EF00E073814708C03E8511B760
:1006400085473E858280854795C10DC2EFF23FED1B
:10065000B2878146135615003E85EF002078054786
:1006600081476303E50089473E85E1BD3E85828081
:10067000854785C91DC6EFF29FEA328413561500DF
:100680002285B684EF00700E05478D476319E5009B
:100690002285EF00502205052380A40081473E8576
:1006A0004DB53E858280EFF29FE70581EF10E02196
:1006B000014541BDEFF2BFE61306401F3306C502F8
:1006C0009307803E814501453356F602EF1040679F
:1006D000014585BDEFF2BFE4054401C989E9014741
:1006E00089460146EF10406F0144228599BD0547B8
:1006F0000144E39CE5FE01468145EF10D006F5B7C5
:10070000B70700209387070C9843636FA702D04375
:10071000B386C7006316D50054413E85B296D4C354
:100720005041B306C500631CD700B706002083A65E
:10073000860A6306D70054431843B29654C118C1C1
:100740006303F50088C38280BA877DBFEFF29FDB29
:1007500041112AC6EF00D064B706002083A7860A9D
:10076000370600209386860A1306C60A3245A1EF93
:10077000370700209307071793F5F70013070717AC
:1007800081C51387F700419BB70500209385050CB1
:1007900023A2050098C18D65C115AE97C19B23A208
:1007A000070023A00700B385E7409CC21CC3B7071E
:1007B000002023AAB70AB707002023A8B70AB70763
:1007C00000804CC31CC2032A0600B377AA0085E34D
:1007D0009307F5FF3957636CF7009307050113F78B
:1007E000F70041C313F707FF410763EBE7068144B6
:1007F00089A022872E8461A058C15CC0113758405F
:10080000B70600209386460B9042B307E94023A029
:10081000F90063F3C7009CC2B70700203367EA0002
:100820009387870B58C09843C10423200400050711
:1008300098C3EF00307393F7F400D1CB89679387A7
:1008400007807390073037A6000037A50000130615
:100850000617930500111305451AEF80606701A084
:10086000BA87370700200329070B9309070BE360BA
:10087000F9F8370700200324070C1307070C504032
:100880006374F6000C40B5F59442E38286F614409A
:10089000044314C33307F64093060002E3F1E6F67F
:1008A0003305F4009376F500A1DA89679387078012
:1008B0007390073037A6000037A50000130606170F
:1008C0009305F00C1305451AEF80806001A0268582
:1008D00041019DB14DC1EFF29FC4B707002003272E
:1008E00045FF83A7C70A2A84B376F7009DE289678C
:1008F000938707807390073037A6000037A5000064
:1009000013060617930540121305451AEF80405C45
:1009100001A0832605FF9DC2896793870780739096
:10092000073037A6000037A5000013060617930509
:1009300050121305451AEF80A05901A093C7F7FF85
:10094000F98F232AF5FEEF00B045B7070020938703
:10095000070B9443032744FF130504FF369798C3FE
:100960004533B70700209387C70B9843050798C303
:10097000EF00505FF9B68280B7E700E04157238768
:10098000E7402386E740B7F700E023A0070023A253
:100990000700814694C70147D8C783A50181130783
:1009A000401F814633D6E5023D4790CBD4CB98C358
:1009B0008280EFF2DFB6411102C6F32750303EC607
:1009C000B2470D478D8B6384E70289679387078061
:1009D0007390073037A6000037A500001306861C69
:1009E0009305600B1305451AEF80804E01A0B757A1
:1009F000002093870700BD8B9DC38967938707807D
:100A00007390073037A6000037A500001306861C38
:100A10009305B00B1305451AEF80804B01A0A93F49
:100A2000B7E700E0116723A0E710056723A0E710F0
:100A3000B707002023A00708EFF09F8C0145410174
:100A400009B6397106DE16DC1ADA1ED82AD62ED47B
:100A500032D236D03ACE3ECC42CA46C872C676C4EE
:100A60007AC27EC0731101348967938707807390BF
:100A70000730B7F700E023A20700EF00103411C5DC
:100A8000B7E700E0116723A0E7208967938787888D
:100A90007390073073110134F250E2525253C25333
:100AA0003255A255125682567247E2475248C24802
:100AB000324EA24E124F824F21617300203089675F
:100AC0009387078073900730B70700209387070844
:100AD0009843050798C3828037070020130707084B
:100AE0001C438DE7EFF2BFA389679387078073905C
:100AF000073037A6000037A500001306861C9305B3
:100B000030101305451AEF80A03C01A0FD171CC34F
:100B100091E789679387878873900730828009659A
:100B200013050580731505308280731005308280AF
:100B3000930785007D575CC118C55CC51CC923207F
:100B4000050082802328050082809841FD56930786
:100B50008500631ED7001C49D843D8C10CC79CC56B
:100B6000CCC31C4188C985071CC18280B687D44389
:100B70009042E37DC7FECDB7544118451C4998C645
:100B800054C3D4436393A600D8C3984323280500D5
:100B90007D1798C388438280EFF27F9841112AC65F
:100BA000393F3245005D0D3F13351400410151BA04
:100BB000EFF2FF9632893041045D2A8401EE1C4138
:100BC000014591E70844EF10000B2324040085043D
:100BD00004DC85BA631009024841EF8000245C40C0
:100BE00038400145BA9718445CC0E3E2E7FE1C4078
:100BF0005CC0F1BF4845EF8040223C40584414405F
:100C0000B307F0403E9758C46375D7001844BA97AD
:100C10005CC489470145E31CF9FAD5D8FD1445BFEA
:100C2000304115C2EFF2BF8F58451445AA8732975D
:100C300058C56364D700184158C52E85CC47EF804E
:100C4000C01D6FF01F908280EFF27F8D2A84853D5A
:100C50008344540413094402E204E184634590028E
:100C6000FD57A302F4048D3D993D834444041309C8
:100C70000401E204E18463449002FD572302F4047A
:100C8000A13D6FF01F8C5C50E1DF4A85EF00905F63
:100C900019C1EF00D07BFD14E204E184C1B71C4808
:100CA000E9DF4A85EF00105E19C1EF00507AFD14AC
:100CB000E204E184C9B7EFF29F8641111DE1896723
:100CC000938707807390073037A6000037A5000090
:100CD0001306C61F930500111305451AEF80401F28
:100CE00001A05C5D2EC62A84BDC33841B3B7E702BC
:100CF000B9EFF1333040585C1440232C0402B307A1
:100D0000E602B24554C03387F600918FB6975CC4B3
:100D1000FD572302F40418C4A302F40495E11C480F
:100D200099CB13050401EF00F05511C5B7E700E0BA
:100D3000116723A0E7204D33054541016FF07F8007
:100D400013050401F53313054402DD33EDB789675C
:100D5000938707807390073037A6000037A50000FF
:100D60001306C61F930550141305451AEF8040164D
:100D700001A0EFF2CFFA411121C1B3B7A502AA84B5
:100D800085EF3305B502930770FB63E7A7021305F0
:100D900085042EC6653A2A8401CDB245AA8799C139
:100DA000930785042CC01CC044DC8545228521376F
:100DB000228541016FF0EFF8896793870780739070
:100DC000073037A6000037A500001306C61F93059D
:100DD000601C1305451AEF80A00F01A0EFF2AFF1E0
:100DE000011132C61DE18967938707807390073030
:100DF00037A6000037A500001306C61F9305E03292
:100E00001305451AEF80C00C01A02A842E89B684F0
:100E10008DE53C419DC389679387078073900730B8
:100E200037A6000037A500001306C61F9305F03251
:100E30001305451AEF80C00901A089476398F402A1
:100E4000585C85476304F70289679387078073902E
:100E5000073037A6000037A500001306C61F93050C
:100E600000331305451AEF80A00601A0EF00F05EE5
:100E700015E5B247014C85C7896793870780739052
:100E8000073037A6000037A500001306C61F9305DC
:100E900030331305451AEF80A00301A0014C094B24
:100EA000FD59930B040137EA00E0916AADA0B24707
:100EB00081E71D31014549A863150C002808EF00A2
:100EC000304B1939EF00C06DDD3E83474404E20723
:100ED000E187639437012302040483475404E20743
:100EE000E18763943701A3020404FD366C002808EF
:100EF000EF00704935E5E136185C5C5C6319F70476
:100F0000E13EB2455E85EF00102C2285353BEF00B7
:100F1000700521C5054C6536185C5C5C6364F700A0
:100F2000E39764F92686CA85228559315C5089C7C2
:100F300013054402EF00103511C5B7E700E0116753
:100F400023A0E720513E054505616FF04FDE69366D
:100F50002285DD39EF00100175BF23205A215DBFC6
:100F60002285DD31EF001000B1B7EFF2CFD80111CB
:100F700032C61DE18967938707807390073037A6D3
:100F8000000037A500001306C61F93051055130572
:100F9000451AEF70F07301A02A84AE898DE53C41BB
:100FA0009DC38967938707807390073037A6000039
:100FB00037A500001306C61F930550551305451AA3
:100FC000EF70107101A0EF00504915E5B2470149DB
:100FD00085C78967938707807390073037A600001D
:100FE00037A500001306C61F9305A0551305451A23
:100FF000EF70106E01A001497D5A930A440237EB4D
:1010000000E0916B9DA0B24781E7F934014561A0F2
:10101000631509002808EF00B0357D3C51234534A5
:1010200083474404E207E1876394470123020404F1
:1010300083475404E207E18763944701A302040451
:10104000613C6C002808EF00103431ED2285A93690
:1010500031C5B2455685EF0010172285F536EF00F1
:10106000607019E123207B210549913C045CC1DCBF
:10107000CE852285FD146D3604DC1C4899CB130502
:101080000401EF00302011C5B7E700E0116723A08D
:10109000E7209934054505616FF06FC922856D36EB
:1010A000EF00406CD1B722854536EF00A06B22855A
:1010B000E5345DD9A1BFEFF28FC641111DE189670B
:1010C000938707807390073037A6000037A500008C
:1010D0001306C61F9305307E1305451AEF70505F47
:1010E00001A02AC6EFF0BF9D3245085D2AC6EFF089
:1010F000BF9E324541016FF0CFC415E5EFF22FC21C
:101100008967938707807390073037A6000085654D
:1011100037A500001306C61F938585AC1305451A35
:10112000EF70105B01A09DCD3736002093060617A7
:101130008147014713060617214883A84600639894
:10114000A80093173700B2978CC3C8C321A891E7B2
:1011500083A8060063930800B6870507A106E31E6F
:1011600007FDFDF38280EFF28FBB41112A842EC66A
:1011700032C4EFF0DF94834744047D572246E207F0
:10118000E187B2456394E7002302040483475404D3
:101190007D57E207E1876394E700A302040432C6A7
:1011A0002EC4EFF07F931C5CA245324689E71305FD
:1011B0004402EF00D0052285EFF01FA941016FF036
:1011C0004FB8370700201307C70C1C439443B707D9
:1011D00000209387C70E81E67D5798C3828018430D
:1011E00058471843DDBFEFF2EFB137090020B707CA
:1011F00000209304890C83A9C70F2A849C4088404F
:101200004111A380070611052EC6EFF0FF967D570A
:101210009307890CB245631CE40295C9B7370020D7
:10122000938787279440D84398C610479440D0C6E8
:1012300094401047910654C29440910614C79840B8
:101240005CCB9843050798C341016FF0EFAE98431C
:101250004E9440C3637B3401370700200325070DFC
:101260008C439105EFF07F8EC5B73707002003252B
:10127000C70C8C439105EFF05F8DB7070020938773
:10128000C70E9843E372E4FC80C37DBFEFF28FA7E3
:1012900037340020B70900201304C428370A00207F
:1012A0009384890D9C40EDDFEFF07F815C4403A9BE
:1012B000C70013054900EFF03F8C13074A0D1C438C
:1012C000FD171CC39C40FD179CC0EFF0FF80032559
:1012D0000903EFF02FE04A85EFF0CFDFD1B7EFF24F
:1012E0008FA113192600AA8A4A85AE89368BBA8B3C
:1012F0003E8AEFF0AFC505C5AA8413054006EFF09E
:10130000EFC42A8411C904D9814793060002639A65
:101310000900230A050225A02685EFF0AFDB7D55E5
:10132000D1AA3387F900030707003306F400230A24
:10133000E60201C78507E396D7FEA309040499478F
:1013400063F477038967938707807390073037A624
:10135000000037A5000013064623930570391305D6
:10136000451AEF70F03601A0930944004E852326FC
:101370007403232A7405232C0404EFF0AFFC130537
:101380008401EFF02FFC1D471305C9FF3307774198
:10139000269500C818CC40D0230E0404A30E0404E4
:1013A000230F0404A30F040423000406A30004066F
:1013B0005A86D6854199EFF0AF8408C063040A00CD
:1013C00023208A00EFF0AFEFB70700209387470D87
:1013D00098433709002037350020050798C31307C5
:1013E000890C1843370A00201309890C9304051B44
:1013F000130A8A0F63120710232089009843854738
:101400006318F7081305051BEFF08FF213854401ED
:10141000EFF00FF213858402EFF08FF11385C40310
:10142000EFF00FF113850405EFF08FF013854406FC
:10143000EFF00FF013858407EFF08FEF37350020C2
:10144000130BC5231305C523EFF08FEE37350020AE
:10145000930A052513050525EFF08FED373500209C
:1014600013054526EFF0CFEC373500201305C528CE
:10147000EFF00FEC3735002013058527EFF04FEB29
:10148000B707002023A6670DB707002023A8570D34
:10149000B70700209387070E9843050798C33707BF
:1014A00000201307470E5C54144363F3F6001CC37B
:1014B0005147B387E702BE94DC4098471CC458C428
:1014C00098472322370123A437019C4044C885074D
:1014D0009CC0EFF06FE083270A00054581CF83278A
:1014E0000900D8575C546377F700B7E700E011674D
:1014F00023A0E7206FF0AF8383270A00D1FB832767
:101500000900D8575C54E3E5E7F82320890049B780
:10151000EFF2EF80B7070020B7A5000037150000F5
:101520009387870E01478146130600109385852512
:101530001305C5286D330544631E8502EF00506511
:10154000631A850289679387078073900730B7070E
:1015500000207D5723A6E70EB707002023ACA70E77
:10156000B707002023AE070EEFF0AFC483A741807A
:101570006FE03FFDFD57E31BF5FE8967938707800A
:101580007390073037A60000856537A50000130665
:101590004623938505841305451AEF70701301A047
:1015A000B70700209387C70D9843050798C382802B
:1015B000B707002003A5C70F8280B707002083A7C5
:1015C000C70D63980718EFE29FF5B70700209387D0
:1015D000C70F8043050480C339E8B707002093870D
:1015E000C70C9843184305C7896793870780739092
:1015F000073037A60000856537A50000130646238F
:10160000938575AC1305451AEF70900C01A0370750
:1016100000201307070D9443104390C3B707002021
:1016200014C39387070F9843050798C3593E37069D
:1016300000209307C60E9C4337370020B7050020D3
:101640001306C60E1307071B9385850C01456375AA
:10165000F4029C41D146DC57B387D7023E9718432A
:10166000854763F3E7000545B707002083A7071008
:1016700091C305456FE0FFEC370E0020B70E002048
:10168000514F9307CE0C9443944281E6FD571CC200
:10169000C9B79C43DC47DC47D4436374D40014C20D
:1016A0004DBF83A8870003A8C700D44B138347000E
:1016B00023A408012322180183A84600639468002C
:1016C00023A2060103A8060023AA07007D1823A071
:1016D0000601945795CA03A8C70183A8070283AFE0
:1016E00046002324180183A8070223A208011388B7
:1016F000870163940F0123A2160103A8060023A407
:1017000007027D1823A0060193864E0E03A8C70288
:1017100083A8060063F4080123A00601B306E803CA
:10172000BA9683A8460083AF880023A4170123A696
:10173000F70183AF880023A26F0023A46800D4CBF5
:101740009C4285079CC29C41DC57E36CF8F205453E
:101750000DBFB70700209387470F98430145050742
:1017600098C38280EFE21FDA370400201304C40D0F
:101770001C40411185E78967938707807390073084
:1017800037A60000856537A500001306462393851C
:10179000358B1305451AEF70A07301A0EFF02FB23F
:1017A0001C40FD171CC01C4089CB01452AC6EFF028
:1017B000AFB2324541016FE03FD8B707002083A7A1
:1017C000470DE5D7B736002037350020814793868F
:1017D0004626370F00201305051BD148370300208C
:1017E000370E0020854E59A8DC46DC47CC4F90537D
:1017F000985790C503A807022322B8000328470082
:10180000938587016313B80050C3104323A40702D4
:101810007D1610C38C47D047D84B1388470090C51E
:101820004CC24C436393050150C3104323AA0700E5
:101830007D1610C313074F0ED0570C4363F3C5003A
:1018400010C3330716032A974C4383AF85008CC718
:1018500023A6F70183AF850023A20F0123A405016E
:101860000C43D8CB85050CC31307830C184358577A
:101870006366E60013070E102320D70198422DF768
:1018800099C3EFF01F94B70700201387470F044355
:101890001384470F91CC370900208549393B09C58E
:1018A0009307091023A03701FD14EDF8232004004D
:1018B000B707002083A70710E38907EEB7E700E02A
:1018C000116723A0E7200545D5B519E5B7E700E086
:1018D000116723A0E7208280EFE27FC4B7070020D2
:1018E00083A7C70D41119DC38967938707807390B4
:1018F000073037A6000037A50000130646239305DE
:1019000090541305451AEF70A05C01A02AC649390E
:1019100032458145EFF03F8DB13511E5B7E700E085
:10192000116723A0E72041016FE0BFC1B707002086
:1019300003A7C70DB70700209387071001C7054706
:1019400098C3828023A00700B70700201387470EA3
:1019500018431386470EB73700209387071B51485B
:10196000B3060703B385D700884115C5C841A10652
:10197000BE964841C8C16314D5005441D4C1D14674
:10198000B306D702B697DC43D447B707002023A499
:10199000D70C18C2828015E7EFE27FB8896793877A
:1019A00007807390073037A60000856537A50000D3
:1019B00013064623938525C01305451AEF70405141
:1019C00001A07D1771BFEFE29FB505E58967938799
:1019D00007807390073037A60000856537A50000A3
:1019E000130646239385C5C11305451AEF70404E73
:1019F00001A0B70700202E8483A5870CE105EFF036
:101A0000CF9485452285EFF00FFE6FE09FB3EFE2A4
:101A10001FB12A8705E58967938707807390073090
:101A200037A60000856537A5000013064623938579
:101A300025C51305451AEF70A04901A0B70700207E
:101A40009387870C54432E858C4303A88600D4CDFE
:101A50008C4323A0050303A807008C46610823A23A
:101A6000050103A807009C43610823A4060198D739
:101A70001C4385071CC311C27D55B285EFF0AFF63C
:101A80006FE03FAC5C45DC4795E7EFE25FA9896713
:101A9000938707807390073037A60000856537A5C8
:101AA000000013064623938525C81305451AEF70D9
:101AB000204201A0D04F945398579385870114C6B4
:101AC000D0C250436313B60054C3144323A4070287
:101AD000FD1614C3370700200327C70DD45725EF81
:101AE0008C47D047D84B90C5D04748434CC29385CC
:101AF00047006313B50050C3104323AA07007D16A7
:101B000010C3370700201307470E10436373D60036
:101B100014C351473386E602373700201307071BEB
:101B200032975043084690C7C8C708464CC10CC6F8
:101B3000D8CB1C43014585071CC3B707002083A7EA
:101B4000870CDC5763F8D700B7070020054723A0B0
:101B5000E71005458280373700201307472650439A
:101B60000846D0CF88D308464CC10CC698D7D1B709
:101B7000B707002083A7070F1CC1B707002083A762
:101B8000C70F5CC18280EFE29F99411105E589672B
:101B9000938707807390073037A60000856537A5C7
:101BA0000000130646239385D5CF1305451AEF7021
:101BB000203201A085E589679387078073900730FD
:101BC00037A60000856537A50000130646239385D8
:101BD000E5CF1305451AEF70A02F01A02EC62AC429
:101BE000EFE0FFED37070020B70700201307870C51
:101BF00083A6C70F1C432245B24583C7170699CB5E
:101C00001C43A38007060544EFE01FED2285410138
:101C10006FE03F939C417D570144E387E7FE370621
:101C200000200326060F0328050058416307C8005B
:101C300063E5E60023A00500F9B73386E640E37BC1
:101C4000F6FE958FBA979CC12537014475BFB7073B
:101C50000020054723A0E7108280B707002083A754
:101C6000870F054581CBB707002003A5C70D1335A6
:101C700015000605828011E50145828001456FE06F
:101C80005F8CEFE2DF89B707002083A7870C2A84E7
:101C90006385A7028967938707807390073037A60B
:101CA0000000856537A50000130646239385F504DB
:101CB0001305451AEF70C02101A0BC4F85E7896765
:101CC000938707807390073037A60000856537A596
:101CD000000013064623938505051305451AEF708A
:101CE000201F01A054557849FD173CCDE388E6F844
:101CF000D1F7930445002685EFE01FE87C481D4797
:101D00001D8F18CC370700201307470E14435CD4EF
:101D100063F3F6001CC351473387E702B73700204F
:101D20009387071B0545BA97D843144718C454C472
:101D30001447C4C204C798435CC8050798C381B759
:101D4000EFE2EFFD411105C5896793870780739026
:101D5000073037A60000856537A500001306462327
:101D6000938565261305451AEF70801601A0370488
:101D70000020AE8432C6EFE09FD49307840C9C43CE
:101D80001304840CFC4F85E31C4032460547238036
:101D9000E70611CA85453285EFF0EFC4B7E700E0EA
:101DA000116723A0E720EFE03FD3EFE05FD11C40B5
:101DB000E84F09C51C4089CC23AE07041C402AC645
:101DC00023800706EFE05FD1324541016FE06FF7F6
:101DD0001307F5FFF8CFDDB7EFE26FF4411185C5CA
:101DE0008967938707807390073037A60000856561
:101DF00037A5000013064623938585301305451A41
:101E0000EF70000D01A005E5896793870780739047
:101E1000073037A60000856537A500001306462366
:101E2000938595301305451AEF70800A01A03AC6D4
:101E300036C432C22AC0EFE09FC83247024512467C
:101E4000A24619C37C4D1CC38347050609472300DE
:101E5000E506114793F7F70F6360D7042967130767
:101E600007228A06BA9698420287784D598E70CD1D
:101E700021A0784D050778CD05476387E704054520
:101E80002AC0EFE07FC5024541016FE08FEB0947B3
:101E9000E39FE7FC0145EDB7370700200327C70F95
:101EA00061DF8967938707807390073037A600004A
:101EB000856537A50000130646239385E533130592
:101EC000451AEF70E00001A0144558455C4913061F
:101ED000450098C6584554C3D4436393C600D8C33D
:101EE0009843232A05007D1798C3B70700209387DE
:101EF000470E5855944363F3E60098C3D147B306A1
:101F0000F702B73700209387071BB697D4438C4658
:101F100014C54CC58C46D0C190C694435CC9850697
:101F200094C31C5585C789679387078073900730D2
:101F300037A60000856537A5000013064623938564
:101F4000D5341305451AEF60B07801A0B70700201B
:101F500083A7870CDC57E3F4E7F2B7E700E01167EB
:101F600023A0E72029BFEFE28FDB411105E5896758
:101F7000938707807390073037A60000856537A5E3
:101F80000000130646239385C5401305451AEF60EC
:101F9000307401A085C589679387078073900730E7
:101FA00037A60000856537A50000130646239385F4
:101FB000D5401305451AEF60B07101A02A8432C6DE
:101FC000EFE0FFB58947034704062300F4067C4C85
:101FD00085077CCC8547639EE70A1C54324685C73B
:101FE0008967938707807390073037A6000085655F
:101FF00037A5000013064623938535431305451A7C
:10200000EF60106D01A0B707002083A7C70D5854DB
:10201000D1E70C4454445C4894C5544403A8470099
:10202000CCC2930544006313B800D4C39443232A5D
:102030000400FD1694C3B70700209387470E94430E
:1020400063F3E60098C3D147B306F702B737002021
:102050009387071BB697D44303A8860014C423268E
:10206000040103A886002322B8008CC65CC89443F0
:10207000850694C3B707002083A7870CDC5763FA53
:10208000E70019C285471CC2B7070020054723A0F7
:10209000E710EFE09FA941016FE0AFCAB73700201A
:1020A00093874726D4438C4654CC0CD003A8860093
:1020B000930584012322B8008CC61CD44DBFEFE2E7
:1020C0000FC637040020EFE09F9F130404111C404B
:1020D000B1E7373500201309052A1305052AEFE07B
:1020E0003FA5373500209304452B1305452BEFE022
:1020F0003FA4B707002023A227110146B7070020FD
:10210000C145114523A49710EFE0BFC608C019C50B
:10211000B7A5000093854528EFE03FFEEFE0DF9B89
:102120006FE02FC2EFE2AFBF4CC108C9AA8763625C
:10213000B602184D158E0545637BE6009385470072
:10214000B707002003A58710EFE03FA001456FE02F
:102150004FBF6375D6000545E3FBD5FE9385470069
:10216000B707002003A54710C5B7EFE24FBB2A848D
:10217000AE8432890C4CA6864A86A69522855D37A8
:1021800019E16FE00FBC1C4C2285BE941C50829755
:10219000D5B7EFE2CFB8B707002083A747104111AA
:1021A000AA84DC472EC6C04713054400EFE0DF9C3D
:1021B00083474402324613F7470011CBA685228598
:1021C0006D371C502285829741016FE08FB7F99BD4
:1021D0002302F402FDB7EFE28FB437040020930628
:1021E000441098421C4391EBB70700209387871057
:1021F000904398C390C26FE0CFB45C47FD558843CD
:10220000493FF1BFEFE22FAF29694111B70A002022
:10221000B7090020370B0020B70B0020130909264F
:1022200083A74A10984329CBDC47814C03AC0700B5
:10223000EFF00FB7EFF0CFB783A7C9102A849384CC
:10224000C910130A0B11636CF50288C0638F0C026E
:1022500083A78B1090431336160003250A00B3059D
:102260008C40EFE05FF0EFF0EFCF11EDB7E700E06B
:10227000116723A0E72001A8854C014C55BFA13F61
:1022800080C0EFF02FCE214C05A00146E36785FD0D
:10229000EFF04FCDA2856285ED3DF5B79247B2458F
:1022A0008297824763DD070003250A0001468A857D
:1022B000EFE0BFCB35D582472245E3C107FE22447C
:1022C0005C4895E3EFF0CFAE9C40AA8C6373F500B9
:1022D0001937824723A09401FD17E367FCFC8A07A6
:1022E000CA979C43828713054400EFE0FF88D9BF5B
:1022F000834744020C4C924693E717002302F402F2
:102300006686B6952285393D45D18347440213F749
:10231000470019CB1C4C924566862285BE95B13587
:102320001C502285829749B7F99B2302F402CDBF46
:1023300083474402F99B2302F402BDB7834744025A
:10234000924593E717002302F4020CCC9DE18967C4
:10235000938707807390073037A6000037A50000E9
:102360001306C628930590351305451AEF605036BD
:1023700001A0E6866686E69522856D3335B78347EC
:10238000440213F727005DF72285EFE0AFD429BFA1
:10239000EFE2EF98EFF0BFD2B707002083A7071155
:1023A0009DE38967938707807390073037A6000005
:1023B00037A500001306C628930590111305451A8A
:1023C000EF60103101A0B7070020B7A50000372546
:1023D0000000938747111947814613060010938523
:1023E000052B13054520EFE09FEF45DD6FE06F956E
:1023F000EFE24F9141112E84AA84B2853A853E893D
:1024000036C642C43AC2EF60200AAA858840EF501F
:10241000F027124788C0BA853A85EF60E008CA8580
:10242000EF608008CA85EF6020080C40EF5010264E
:1024300022482A8908C0C2854285EF60E006CA8525
:10244000EF50D024AA854A85EF50F05AB24683A9AE
:1024500004002A893685CE85EF60002ECA85EF609C
:10246000A004CE85EF509022B7A7000088C003A536
:10247000072ECA85EF60402CAA850840EF60C00295
:1024800008C041016FE04F8BEFE26F8941112A8450
:102490002E85EF60406F2AC422852EC6EF60A06EA5
:1024A0002246B246EF20A051EF60A078B7A7000007
:1024B00083A5072DEF50901DEF60E06CB7A70000DB
:1024C00003A6872D83A6C72DEF40904BEF60607663
:1024D00041016FE00F87EFE28F812A84484141116B
:1024E000AE84EF60406AAE890C40832A84002A895A
:1024F0002E85EF50707B2A8AD6855685EF50D07A8C
:10250000AA855285EF509018EF60E067EF20404BAE
:102510002A86AE864A85CE85EF40604EEF200004C5
:102520002A8C0840AE8C37AD0000EF60C065AE89E4
:102530004C40832A84002A892E85EF50F0762A8A1F
:10254000D6855685EF505076AA855285EF501014E7
:10255000EF606063EF20C0462A86AE864A85CE854E
:10256000EF40E049EF10907FB7A7000003AA872B48
:10257000B7A7000083A9C72B2A8BB7A70000AE8B93
:102580006285E68503A9072CEF60A06AEF60A05F73
:10259000B7AA000003A68A2D83A6CA2DEF40503E9D
:1025A000EF602069504452884A87AA86CE87938577
:1025B000C4002685353DDE855A85EF608067B70704
:1025C00000803D8DEF60205C03A68A2D83A6CA2D76
:1025D000EF40103BEF60E06510485288CE874A8795
:1025E000AA86938544011385840019358840EF60DD
:1025F000805903268D2C8326CD2CEF407038EF6058
:102600004063EF6040582A8BAE8BEF20C0282AC46D
:1026100008502EC6EF6020572A8AAE8A5A85DE857A
:10262000EF20C0302A8C084CAE8CEF60C05522469B
:10263000B246EF40F0342A8BAE8B6286E686528536
:10264000D685EF40F0332A86AE865A85DE85EF3098
:1026500010482A8B8844AE8BEF60E05203268D2C05
:102660008326CD2CEF40D031EF60A05CEF60A0510D
:102670002A8CAE8CEF2020222AC42EC66285E685E5
:10268000EF20C02A2A8D484CAE8DEF60C04F224605
:10269000B246EF40F02E2A8CAE8C6A86EE865285CA
:1026A000D685EF40F02D2A86AE866285E685EF302E
:1026B0001042EF6000582A8ADE855A85EF60605725
:1026C000D285D933B7A7000003A8072E5048AA86A1
:1026D000CE874A879385040113854400EFF05FD1CC
:1026E00041016FD09FE4EFD2FFE1AA84B9CD370456
:1026F00003000904054A3769004093090980B705BA
:1027000002004E85A12D65FD130509808545370919
:102710000300B76900405D230509938A0980CA85D3
:10272000568505256DDD93951400528693F5E50FCA
:1027300013850980B7640040C12B93840480A2856F
:10274000268501256DDD6FD03FDF370407001304B8
:102750002408014A4DB7EFD2FFDA37040010B764FE
:1027600000402A8913040408138A04808549A2853D
:102770005285ED23E31D35FFCA8513850480AD2BFB
:102780006FD09FDBEFD21FD837040010B764004032
:1027900013040408938904800549A2854E857D2B86
:1027A000E31D25FF854513850480052B6FD0DFD8F9
:1027B000B70600209386C61183C70600370700209E
:1027C000130787123E9719468507B3E7C7020345EB
:1027D00007002380F6008280EFD2DFD22E8A3709ED
:1027E00000108545B7640040B7090020ED3D014465
:1027F000130909049384048093898912954A6367B5
:102800004403B70400103769004093840404130A9A
:1028100009808549A68552859123E31D35FF13055F
:10282000098085455D2922856FD01FD1CA852685FF
:10283000352311C92685E121B3073401050423801E
:10284000A7001374F40FE31C54FB85659385058082
:102850002685E9216DB7EFD29FCC3755004093050F
:102860005052130505C0EF00704719C5B707002087
:1028700083A7871191C382976FD0BFCC19C5B707C3
:10288000002023ACA7100145828005458280EFD24D
:102890001FC941119307D013231501002314F10020
:1028A000854723160100231701002305F10009C9FC
:1028B00085472A846303F502014541016FD07FC833
:1028C00037550040014693055052130505C0EF00EF
:1028D000B03A02C62800C921C5B7375500400546A1
:1028E00093055052130505C0EF00103922C6DDB71D
:1028F0000DCDEFD2DFC237590040AA842E841309D0
:1029000009C001E401456FD0DFC3930500084A8583
:10291000EF00303B7DD983C504007D144A85420415
:10292000EF00F03885044180E9BF0545828031C160
:10293000EFD2FFBEB75400402A892E84938404C08E
:1029400001E401456FD0FFBF930500022685EF002B
:1029500050377DD92685EF0030367D142300A9003D
:10296000420493055052268505094180EF00303618
:10297000C1BF0545828001A001A001A001A001A066
:1029800001A001A001A001A001A001A001A001A03F
:1029900001A001A001A001A001A001A001A001A02F
:1029A00001A001A001A001A001A001A001A001A01F
:1029B00001A001A001A001A001A001A001A001A00F
:1029C00001A001A001A001A001A001A001A001A0FF
:1029D00001A001A001A001A001A001A001A001A0EF
:1029E00001A097E1FF1F9381E1E917210020130166
:1029F0006161178500001305250397D5FF1F938597
:102A000065601386818263FAC5008322050023A0D6
:102A1000550011059105E3EAC5FE17D5FF1F130503
:102A2000E56897150020938565916377B5002320AD
:102A300005001105E36DB5FEFD42739002BC8942AD
:102A400073904280B72200009382028073A002300C
:102A500097D2FFFF9382825E93E2320073905230EE
:102A6000EF10A00997220000938282A17390123484
:102A7000730020309C4513F7070113F8F70001C7D6
:102A8000D8413368E80037270240145B3707000F4E
:102A9000758F55EF370700208546A30ED7103717DF
:102AA00001406317E50003D7050035832390E50057
:102AB00083D5050013F7F50F39C318418146854EBC
:102AC0003D4F930F800293028004214E3396DE0027
:102AD000B3F8C500631116039398260033131F0142
:102AE0001343F3FF3377E300B318180133E7E8002B
:102AF0006399F70750C98506E39AC6FD18C1130705
:102B0000F00F6375B70454412146854E3D4F930F36
:102B1000800293028004414EB398CE0033F7150132
:102B20006392E8021317260001173313EF001343D3
:102B3000F3FFB376D3003317E800D98E6397F7031A
:102B4000232A15010506E319C6FD54C182803717F3
:102B50000140E31FE5F4370700200347D71129DBC5
:102B600099B7E39A57F810C979B7E39D57FC232822
:102B70001501C9BFB71701406318F500B70700205A
:102B800083C7D71191C3B5810CC98280EFD23F9919
:102B900079712A848354450068082EC6652C9257A3
:102BA00037470F001307072433D7E702C204C18059
:102BB00093F404FCC204C180B24561651305056A43
:102BC000131607014182D18C23129400835604000E
:102BD000C206C182F99AC206C1822310D400944170
:102BE0006364D5068606B3D7D702914613970701CB
:102BF0004183BA876373D700914705064206C2072F
:102C00004182C1832310C402231EF40083570400B1
:102C100003D7450083D6A50093E717002310F400DF
:102C200083570400558FC207C18393F757BFD98FCD
:102C30002310F40003D7850083D7C500D98F231450
:102C4000F40045616FD0FF8F03D5650031667D16B6
:102C5000631EC5020D46B386C602B3D7D702C207AC
:102C6000C1839396470199E293E71700A166D58F38
:102C70009306C0123307D7029306803E3347D7022C
:102C80000507420741832310E402BDBF6546B386B2
:102C9000C602B3D7D7029166C207C183D58FD1B719
:102CA0008357050091C593E717002310F500828034
:102CB000C207C183F99BC207C183C5BF8357050003
:102CC00091C593E707102310F5008280C207C183E6
:102CD00093F7F7EFC207C183FDB78357050091C58E
:102CE00093E707202310F5008280C207C18393F782
:102CF000F7DFC207C183FDB72318B50082800355F3
:102D000005011375F50F828093F7E50F19C293E75C
:102D10001500C207C1832318F50082800357050000
:102D20009385058091E9856793870780D98FC207CE
:102D3000C1832310F5008280FD779387F77FF98F99
:102D4000CDBF835745010355850142055D8D6D8DCE
:102D5000220521810D8D133515008280411102C499
:102D600002C693D7C5012AC63EC4A247A205A181C7
:102D700099CBB247D1073EC6B247884341016D8D1A
:102D80003335A0008280B247C181E107EDB7B707B4
:102D9000002023A0A7128280B70700209387071284
:102DA00094430347050089E683472500920731A82D
:102DB000944305466391C6048347250003461500E6
:102DC00092076314D60093E707F8B7E600E093F79D
:102DD000F70FBA962380F6408546935757003397EE
:102DE000E6005441ADC6938707048A07B7E600E0C2
:102DF000B69798C382808C4389466393D5028346F5
:102E00001500834725006365D6008A06B69779BF0B
:102E10009386E6038A06B69793F7F70F920765B78E
:102E200090438D46631ED6008346150083472500D8
:102E30006364D6008606D9BF9386C6078606E1BFBF
:102E400094439147E39AF6F88347150085B7938733
:102E5000070661BF371702405C439146B18B63851B
:102E6000D700A1466386D706B7177A009387072055
:102E70001CC1371602405C423707002013070700C9
:102E80009183BD8BBA9783C607001C41B3D7D70087
:102E90005CC15442A1829D8ABA9683C60600B3D60D
:102EA000D70014C55442AD829D8A36970347070068
:102EB000B3D7E7005CC55842398393763700138750
:102EC0008180369703470700B3D7E7021CC9828089
:102ED0005C435843C166C983BD8B758F8907C5465E
:102EE0006393D700C94701EF3747024003270780A4
:102EF000418B09CF37177A001307072021A837170E
:102F0000024058439316E700E3D606FE37173D000C
:102F100013070790B387E702A1BF99C5371702408F
:102F20005C4B5D8D48CB8280B7170240D84B134570
:102F3000F5FF798DC8CB828099C5371702401C4FA9
:102F40005D8D08CF8280B7170240984F1345F5FF7B
:102F5000798D88CF828099C5371702405C4F5D8D8F
:102F600048CF8280B7170240D84F1345F5FF798DBF
:102F7000C8CF8280035705008D679387070483D6E7
:102F800025007D8F83D70500D58F83D64500D58F4B
:102F900083D66500D58F83D68500D58F83D6A500CF
:102FA000D58F83D6C500D58F83D6E500D58FD98F31
:102FB0002310F5000357C501FD779387F77FF98F3D
:102FC000231EF50083D705012318F500828083575F
:102FD000050091C593E707042310F5008280C2071E
:102FE000C18393F7F7FBC207C183FDB78357050081
:102FF00037370140130707C0C207C1836304E502E6
:10300000370700406300E50213070740630CE50043
:1030100037170040930607806306D500130707C0E3
:103020006317E50003D7250093F7F7F8D98F03D787
:10303000650093F7F7CFC207C183D98F2310F5003E
:1030400083D745002316F50283D705002314F50224
:10305000B7370140938707C06316F50083C7850023
:103060002318F5028547231AF5008280835705024D
:1030700003D6050003D82500C207C183F99BC20708
:10308000C1832310F5028357050283564500035779
:103090008501C207C183420741831377C7F8518F67
:1030A00003D68500F59BC20633660601D18F3736FD
:1030B0000140130606C0C1826313C50203D6A500F2
:1030C000DD9B03D8E500D18F03D64500ED9B93F639
:1030D000F6CFD18F03D6C50033660601D18E2312F9
:1030E000D500231CE50003D76500231AE502231051
:1030F000F50282808357050265771307F7CFC20771
:10310000C183BD9BC207C1832310F502835705020B
:103110008356450003D88500C207139606018356DF
:103120008501C18393F7F7FD758F83D60500418232
:10313000A206558F83D6250042074183B3E60601D8
:103140009206D58FB7360140C207938606C0C18369
:103150006311D50483D6A50093F7F7F703D8C5000C
:103160009206D58F83D64500C207C183920693F796
:10317000F7FBD58FFD769386F63FF18E03D6E500FB
:10318000C207C183336606010A06D18E1396060173
:1031900041822312C500231CE50003D76500231CD0
:1031A000E5022310F50282808357050203D88500CB
:1031B000C207C18393F7F7EFC207C1832310F5025B
:1031C00083570502835645000357C501C20713966E
:1031D0000601420783D6050041831377C7F8558F50
:1031E00083D62500C18393F7F7DFB3E60601A20675
:1031F000D58FB7360140C207938606C04182C1838E
:103200006312D504FD769386F67FF58F83D6A500ED
:1032100003D8C500A206D58F83D64500C207C18357
:10322000A20693F7F7BFD58FF576FD16F18E03D67C
:10323000E500C207C183336606011206D18E1396DC
:10324000060141822312C500231EE50003D7650055
:10325000231EE5022310F502828003570502FD7745
:10326000FD17F98F2310F502035805028356450018
:103270008357C501657703D605001307F7CF7D8F08
:10328000F9772206FD17518FB3F7070103D6250002
:1032900003D88500C2064207336606013206D18F85
:1032A00037360140C207130606C0C1824183C1837D
:1032B000631BC50071767D16F18E03D6C5001A0614
:1032C000D18EC206C1822312D500231EE50003D78A
:1032D00065002310E5042310F50282808357050062
:1032E00091C593E717002310F5008280C207C183C0
:1032F000F99BC207C183C5BF8357450491C52167A8
:10330000D98F2312F5048280C607C583DDBF83579A
:10331000050091C593E707082310F5008280C207D6
:10332000C18393F7F7F7C207C183FDB783578501C0
:10333000C207C183DD9BDD8D231CB500828003574E
:103340008501FD779387F77FF98FA205CD8FC2079F
:10335000C183231CF50082808357C501C207C18346
:10336000DD9BDD8D231EB50082800357C501FD77EF
:103370009387F77FF98FA205CD8FC207C183231EE4
:10338000F5008280EFD2AF9983560501F577FD17DE
:10339000F58F83D6650003D7C5007971D58F2318C3
:1033A000F5008356C500FD779387379FF58F83D649
:1033B00045002A842EC6D58F83D68500D58F83D627
:1033C000A500D58F2316F50083574501C207C18399
:1033D00093F7F7CFD98F231AF5006808EFF09FA76E
:1033E000B747014093870780B245631DF404A25795
:1033F0008356C4006547B387E702C206C186984179
:1034000063D4060406070356C4004206B3D7E70296
:10341000130740064186B3D6E702B3F7E7029206E8
:10342000635606028E0793872703B3D7E70213F785
:103430007700B367D700C207C1832314F400456146
:103440006FD02F9092576DB70A0775BF9207938779
:103450002703B3D7E702BD8BD58FF1BF81C983574F
:10346000C5000967D98F2316F50082800357C50070
:10347000F977FD17F98FC5BF13F7F50F854715834A
:10348000B395B7006319F7009307C500984301CEC1
:10349000D98D8CC38280894693074501E318D7FEF6
:1034A00093070501E5B793C5F5FFF98DDDB793F5F2
:1034B000F51F2312B5008280035545001375F51FD3
:1034C0008280035505006D8D3335A000828093C541
:1034D000F5FFC205C1812310B500828013F7F50FF7
:1034E00085461583B397B6006313D7020357C5000B
:1034F000F98F0357050001454207418381CB0545FC
:10350000A181B315B5006D8F3335E0008280894607
:103510006315D70003570501E1BF03574501C9BF34
:10352000B7F700E0D8438146799BD8C3370700201E
:10353000035747123306A70290CBD4CB98431367A7
:10354000070198C398431367170298C3D843058BA4
:1035500075DF9843799B98C38280EFC2BFFAB74466
:103560000140AE893289014493840480634524017B
:103570004A856FC07FFC930500042685EFF07FF439
:103580007DD9B38789008385070026850504C20598
:10359000C181EFF0DFF1D9BF1387C1801C43B7367B
:1035A0000020938686333E95636BD500B756002086
:1035B0009386068063E5A60008C33E858280FD579A
:1035C000EDBFEFC2DFF2597181450545EFF0FF9481
:1035D00081450945EFF07F9481451145EFF0FF9358
:1035E000814513050004EFF05F9381450565EFF019
:1035F000DF9281450545EFF03F9485451145EFF099
:10360000BF9385452145EFF03F9385454145EFF058
:10361000BF92814513050020EFF01F9281451305ED
:103620000040EFF07F918569138509808145EFF0B7
:10363000BF9085450565EFF03F9081450965EFF046
:10364000BF8F81451165EFF03F8F81450545EFF054
:103650009F9081450945EFF01F9085451145EFF09A
:103660009F8F81452145EFF01F8F1385098081458C
:10367000EFF07F8E81451165EFF0FF8D81453705B5
:103680000200EFF05F8D814537050400EFF0BF8C3D
:10369000854537050800EFF01F8C81453705200070
:1036A000EFF07F8B854537054000EFF0DF8A8145DD
:1036B00037058000EFF03F8A814537050002EFF0C3
:1036C0009F89814537050008EFF0FF888145370560
:1036D000001037140140EFF01F88854A854B930D89
:1036E00080044C1813050480231A710356DC6EDE27
:1036F000EFF04FB8E144094B4C181305048026DE67
:10370000231A6103EFF00FB791474C18130504809B
:10371000231AF10226DEEFF0EFB5214E4C18130507
:103720000480231AC10372CE26DEEFF0AFB441430A
:103730004C1813050480231A61021ACC02DEEFF044
:103740006FB3930800024C1813050480231A110369
:1037500046CA26DEEFF00FB21308000411494C18D8
:1037600013050480231A010342C84ADEEFF08FB02C
:10377000130600084C1813050480231AC10232C630
:1037800026DEEFF02FAF930600104C1813050480CF
:10379000231AD10236C44ADEEFF0CFAD1307002062
:1037A0004C1813050480231AE1023AC226DEEFF01A
:1037B0006FAC930700404C1813050480231AF102E4
:1037C0003EC026DE056AEFF0EFAA130A0A804C1805
:1037D0001305048026DE231A4103EFF0AFA99305F9
:1037E00080022EDE130504804C18231A3103EFF0FB
:1037F0006FA8096D4C18130504804ADE231AA10333
:10380000EFF04FA7916C4C18130504804ADE231A81
:103810009103EFF02FA6617C4C181305048026DE7F
:10382000231A8103EFF00FA54C18130504C026DE00
:10383000231A5103EFF00FA44C18130504C04ADEFD
:10384000231A6103EFF00FA34C18130504C026DE02
:10385000231A2103EFF00FA2724E4C18130504C077
:10386000231AC1034ADEEFF0EFA062434C181305A0
:1038700004C0231A610226DEEFF0CF9FD2484C1815
:10388000130504C0231A11034ADEEFF0AF9E42482D
:103890004C18130504C0231A010326DEEFF08F9D98
:1038A00032464C18130504C0231AC10226DEEFF07D
:1038B0006F9CA2464C18130504C0231AD10226DEC1
:1038C000EFF04F9B12474C18130504C0231AE10276
:1038D00026DEEFF02F9A8247F1444C18130504C0FE
:1038E000231AF10226DEEFF0EF984C18130504C0FE
:1038F00026DE231A4103EFF0EF974C18130504C09E
:103900006EDE231A3103EFF0EF964C18130504C056
:103910004ADE231AA103EFF0EF954C18130504C0FB
:103920004ADE231A9103EFF0EF944C18130504C0FC
:103930004ADE231A8103EFF0EF93C1444C18371588
:10394000014026DE231AA103EFF0CF924C18371561
:10395000014026DE231A9103EFF0CF914C18371562
:10396000014026DE231A8103B7340020EFF08F9048
:103970009384842CB73701409CC041699307401061
:10398000DCC4930729009CC8B70738009387072039
:10399000C0C0DCC81164B70705009CCC80C4938507
:1039A000A40037350140EFF0EFDC854537350140A5
:1039B000EFF0EFE183D58400C84013090907EFF069
:1039C0006F9BB7270600938707A8BEC0B707FFBF46
:1039D000BEC223168104B7070004376400409387F2
:1039E000F7028C0013050480BEC4EFF02F9A130574
:1039F00004808545EFF0CFAAB70720009387F7082A
:103A0000371400403ED4B7270002938707712C106B
:103A1000130504803ED623180102EFF02FDD8C0839
:103A200082CC13050480CAC8231C610582CA82CED9
:103A3000EFF0CFE38C0813050480EFF0AFEB8C08B8
:103A400013050480EFF04FF68C0813050480EFF0A7
:103A5000DF80130504808545EFF01F8A130504807D
:103A60008145EFF0BF8C130504808145EFF03F8D59
:103A7000130504808145EFF03F8E130504808145D6
:103A8000EFF0BF8E130504808545EFF05F881305C6
:103A900004808545EFF09F84F167938707203754B2
:103AA000004082D6BED09307003082D42316F106A0
:103AB0008C10B147130504C02315F10682D2EFF034
:103AC0007F8C054693055052130504C0EFF0DF9A32
:103AD0009307D0132311010208102310F1022301D0
:103AE000710356D2EFF04FAB130504C08545EFF0DC
:103AF000FF96014565616FC05FA3B7170240984309
:103B0000B706FFF841111367170098C3D84337066B
:103B10000200758FD8C39843B706F7FEFD16758F60
:103B200098C39843B706FCFFFD16758F98C3D8431A
:103B3000B70681FFFD16758FD8C337079F0098C75A
:103B400002C402C69843C166558F98C3B716024097
:103B500005679C42F18F3EC6A24785073EC4B24727
:103B600081E7A247E397E7FEB71702409C4313970C
:103B7000E7006355070685473EC632478547631D04
:103B8000F704B7170240D843B706C1FFFD16D8C3E4
:103B9000D843D8C3D843D8C3D843758FD8C3D843E4
:103BA000B7063D00558FD8C39843B7060001558F1F
:103BB00098C3984393166700E3DD06FED843B71613
:103BC0000240719BD8C3D84313672700D8C321474D
:103BD000DC42B18BE39EE7FE4101828002C671BFE9
:103BE000B7160240DC421146B18B13870181638511
:103BF000C70021466389C702B7177A009387072059
:103C00001CC3B7170240DC43918393F6F700B70754
:103C1000002093870701B69783C607001C43B3D7DC
:103C2000D7001CC38280DC42D4424166C983BD8B6D
:103C3000F18E890745466393C700C94781EEB746B1
:103C4000024083A60680C18A89CEB7167A00938681
:103C5000062021A8B7160240D4421396E600E35688
:103C600006FEB7163D0093860690B387D70249BF7C
:103C700015CDEFC2DF8AAA84373500201304C52F83
:103C800013068400930544001305C52F89225C4068
:103C9000B70600801840B58F5CC0DCC01C44358F6F
:103CA00018C098C09CC401456FC0BF89054582807B
:103CB000EFC2FF86AA84373500201304853013062F
:103CC000840093054400130585306D2258401C4044
:103CD000B7060080358FB58F1CC058C09CC01C44EF
:103CE000D8C001459CC46FC0DF85EFC25F83373900
:103CF0000020AA841305492E1304492E1521835749
:103D00000400035724001305492EB307F04033077E
:103D1000E0402311F4002310E4008D211C440145F0
:103D20009CC05C44DCC01C489CC46FC09F81EFC237
:103D30000FFFEFE0DFB501456FC0BF80EFC22FFE80
:103D4000EFE0DFB301456FC0CFFFEFC24FFD854508
:103D5000EFE0FFBD01456FC0CFFEEFC24FFC411148
:103D6000A307A10085451305F100EFE07FB80145E9
:103D700041016FC00FFDEFC28FFA81451305800628
:103D8000EFE07F961305B006EFE0FF9C0145EFE002
:103D90009F9CEFE03F9F814513058006EFE0BF94B5
:103DA0006945EFE05F9B1545EFE0FF9AEFE09F9DCF
:103DB000814513058006EFE01F937145EFE0BF9941
:103DC0004145EFE05F99EFE0FF9B6FC08FF7EFC2D7
:103DD0006FF34111AA8A2E8A13058006814532C6E7
:103DE000EFE07F901305B003EFE0FF96EFE09F99BF
:103DF000994513058006EFE03F9EEFE07F9BAA8484
:103E0000A204EFE0FF9AC98CEFE09F9A2A84220473
:103E1000EFE01F9A498CC204EFE09F992A89C18480
:103E2000EFE01F99AA892685EF409049B7A40000CA
:103E300083A5442E42044184EF40006723A0AA00DA
:103E40002285EF40F04783A5442EEF40E065232014
:103E5000AA00131589003365350142054185EF40FD
:103E6000304683A5442EEF402064324608C241010B
:103E70006FC08FECEFC22FE82A8BAE8A1305800645
:103E80008145B289EFE03F8613053004EFE0BF8C37
:103E9000EFE05F8F994513058006EFE0FF93EFE0B9
:103EA0003F91AA84A204EFE0BF90C98CEFE05F903D
:103EB0002A842204EFE0DF8F498CC204EFE05F8F99
:103EC0002A89C184EFE0DF8E2A8A2685EF40503FA1
:103ED000EF40704BB7A4000003A6842E83A6C42E27
:103EE00042044184EF20B031B70700202A8C03A59B
:103EF0004713AE8CEF4030492A86AE866285E68550
:103F0000EF308073EF40F0522320AB002285EF406A
:103F1000303BEF40504703A6842E83A6C42EEF20EB
:103F2000102EB70700202A8B03A50713AE8BEF4096
:103F300090452A86AE865A85DE85EF30E06FEF40E9
:103F4000504F23A0AA00131589003365450142058F
:103F50004185EF40F036EF40104303A6842E83A640
:103F6000C42EEF20D029B70700202A8403A5871389
:103F7000AE84EF4050412A86AE862285A685EF307A
:103F8000A06BEF40104B23A0A9006FC04FDAEFC227
:103F90006FD74111814513058006EFE0CFF413057B
:103FA000B006EFE04FFB0145EFE0EFFAEFE08FFDE9
:103FB000814513058006EFE00FF36945EFE0AFF9A7
:103FC0001545EFE04FF9EFE0EFFB81451305800663
:103FD000EFE06FF16D45EFE00FF82145930400002D
:103FE000EFE06FF71304107DEFE0CFF92689A68983
:103FF0007D144204418029E037A400008325042F6A
:104000004E85370A0020EF40001F8325042F232A06
:10401000AA124A85EF40201E8325042FB7090020ED
:1040200023A8A9122685EF40001D37090020232C64
:10403000A91241016FC04FD070002C004800EFF072
:104040007FE392454E85EF307064A245AA894A8588
:10405000EF30D063B2452A892685EF303063AA84D9
:104060000545EFF0EFCB69B7EFC26FCBEFF03FF252
:10407000EFF07FD06FC0EFCCEFC26FCA8145130560
:104080008006EFE04FE61305A006EFE0CFEC014518
:10409000EFE06FECEFE00FEF814513058006EFE0F6
:1040A0008FE413057003EFE00FEB0945EFE0AFEA93
:1040B000EFE04FED814513058006EFE0CFE21305F9
:1040C000B006EFE04FE90145EFE0EFE8EFE08FEBFE
:1040D00081457945EFE02FE10945EFE0CFE7014564
:1040E000EFE06FE7EFE00FEA81457945EFE0AFDF02
:1040F0000145EFE04FE613050007EFE0CFE5EFE005
:104100006FE881457945EFE00FDE0545EFE0AFE46C
:1041100013050002EFE02FE4EFE0CFE66FC06FC2BF
:10412000EFC2EFBFAA8481457945EFE0CFDB0D45B3
:10413000EFE06FE2EFE00FE599457945EFE0CFE979
:10414000EFE00FE72A842204EFE08FE6498C23900A
:104150008400EFE0EFE52A842204EFE06FE5498C6C
:1041600023928400EFE0CFE42A84EFE06FE493171A
:1041700084005D8D2391A4006FC0AFBCEFC22FBA45
:104180002A8403150500B7A40000EF301049B7A733
:10419000000003A6872F83A6C72FEF30E04903A6B0
:1041A000043083A64430EF209005EF40902808C4E7
:1041B00003152400EF307046B7A7000003A6873030
:1041C00083A6C730EF20A01003A6043083A6443096
:1041D000EF20F002EF40F02548C403154400EF3013
:1041E000D04303A6043083A64430EF205001EF40B3
:1041F000502408C86FC0EFB4EFC26FB2B7070020F9
:10420000370702019387C7131307D77098C31307A3
:1042100020102392E700EFF03FE5EFF0FFE50145C6
:104220006FC02FB201A001A0EFC26FAF5D71130686
:1042300040028145681002C402C602C802CA02CC0C
:1042400002CE02D002D202D437040020EFC02FB039
:104250002800EFF0FFA14808EFF09FA50810EFF04D
:10426000DFA82C0031466810EF40303B4C08314647
:104270002818EF40903A0C103146C800EF40F03952
:10428000032644156C101305803EEFC0CFBB51458B
:10429000EFC06FC175BFEFC2EFA65D71130640029C
:1042A00081456810EFC0AFAA614681454808B7094B
:1042B00000C037D9CC44B7A499B11564EFC02FA979
:1042C000370B002002C202C402C623180100A3015A
:1042D00001009389A90A1309F9D3938414A4130440
:1042E00014C4B70A0020370A002003264B15930692
:1042F00031006C101305803EEFC08FB77DF54C0880
:104300006810EFE04F9D03A6CA144C001305803ED1
:104310004EC24AC426C623188100EFC0CFB203257F
:104320008A158145EFC00FBBC9B7EFC2AF9D011120
:1043300037340020930744313947130901010545FB
:1043400002C802CA02CC231E0100A307010023A059
:1043500027012394E70013044431EFF05F9DB70970
:1043600000201305803EEFC0EFB403A6C9149306E6
:10437000F100CA850145EFC0AFAF138AC914834766
:10438000F100E5D379FD814401A81C40A69703C53F
:1043900007008504EFF07F9C83578400E3E7F4FE79
:1043A00003260A009306F100CA850145EFC04FAC11
:1043B000F9B7EFC2CF96B737002037370020938781
:1043C000473113074732D8C339472395E70023867F
:1043D0000700EFF08FF2EFF0BF800945EFE03F9B61
:1043E0003745000013052540EFF05F95EFF06F9D16
:1043F0000964EFF07FE0130404712285EFC08FABF6
:10440000EDBFEFC2CF91373400201304443183470E
:10441000C40093F7F70F9DEB370500209304451474
:1044200013054514EFF07F9283C70400130750056E
:10443000639CE7000547B70600202306E4002391AC
:10444000E61458402300F7006FC0AF8FB704002078
:104450009384241483D7040048403E95EFF0FF8EE8
:1044600083D704000357A4008507C207C1832390A4
:10447000F400E31BF7FC23060400F9B7EFC22F8A10
:104480003706002013064615930540022945EFC064
:104490006F993706002013060615E1452945EFC040
:1044A0006F983706002013068614B9452945EFC0DA
:1044B0006F97370600201306C614B9452945EFC08B
:1044C0006F9637070020B7A5000037450000130797
:1044D000C7159146130600109385053113058522F3
:1044E000EFC06F9137070020B7A5000037450000E7
:1044F000130747168D4613060010938545321305A2
:104500006529EFC04F8F37070020B7A5000037455A
:10451000000013078715894613060010938545335D
:104520001305A532EFC02F8D37070020B7A5000077
:1045300037450000130707169546130600109385AC
:1045400085341305253BEFC00F8BEFC0EF8C37A4EC
:10455000000013050435EF405029E5BF79714AD0BA
:104560001399150022D426D256CA06D64ECE52CC66
:104570005AC85EC613591900B70710442E84AA847E
:10458000AE8A6347F904B707F07F63CE2701630B58
:10459000F900635B501F97670000938727DD844312
:1045A000C04311A87DD526862685A286A285EF1058
:1045B0001052AA842E84A285B25022542685025914
:1045C0009254F249624AD24A424BB24B45618280D0
:1045D000B707DC3F6358F91CB707203E6343F9185F
:1045E0007D5A2686A2862685A285EF2070392A86E6
:1045F000AE862A8BAE8BEF20B0389767000093878A
:1046000067DA9043D4432A89AE89EF2070379767E1
:1046100000009387A7D99043D443EF10504B4A86AC
:10462000CE86EF20F035976700009387A7D8904398
:10463000D443EF10D0494A86CE86EF207034976776
:1046400000009387A7D79043D443EF1050484A8681
:10465000CE86EF20F032976700009387A7D690436D
:10466000D443EF10D0464A86CE86EF20703197674C
:1046700000009387A7D59043D443EF1050455A8646
:10468000DE86EF20F02F976700009387A7D4904332
:10469000D4432A8BAE8B4A85CE85EF20702E976748
:1046A00000009387A7D39043D443EF20F0784A8645
:1046B000CE86EF20F02C976700009387A7D2904317
:1046C000D443EF2070774A86CE86EF20702B976711
:1046D00000009387A7D19043D443EF20F0754A861A
:1046E000CE86EF20F029976700009387A7D09043EC
:1046F000D443EF2070744A86CE86EF2070282A8635
:10470000AE865A85DE85EF10903C2686A286EF2085
:104710003027FD572A86AE86630FFA060E0A976782
:1047200000009387A7CFD2979043D44397670000A8
:104730009387C7CC3E9AEF2030702686A286EF2062
:10474000B06F2A86AE8603250A0083254A00EF2033
:10475000B06EAA842E84E3D00AE6370400802D8C44
:1047600099BD97670000938767C19043D443EF10CA
:104770001036976700009387E7C09043D443EF203B
:10478000F009E35FA0E405BD97670000938787BE4B
:104790008443C0430DB52685A285EF20F069AA8425
:1047A0002E8411BD4922B707F33F2A84AE84635893
:1047B000F904B707E63F635CF90A2A86AE86EF1074
:1047C0001031976700009387E7BB9043D443014AB9
:1047D000EF20906697670000938747BB9043D443D0
:1047E0002A89AE892285A685EF10702E2A86AE868C
:1047F0004A85CE85EF20A020AA842E84DDB3B7871A
:1048000003406358F904176900001309A9B8032687
:10481000090083264900094AEF2010620326090097
:10482000832649002A8BAE8B2285A685EF20501562
:1048300097670000938707B59043D443EF10302962
:104840002A86AE865A85DE85EF20601BAA842E84D8
:1048500049BB97670000938767B48843CC4322869F
:10486000A686EF20C0190D4AAA842E849DBB176925
:104870000000130929B10326090083264900054ACF
:10488000EF20905B2A8BAE8B03260900832649001C
:104890002285A68565B7011122CC37040080934795
:1048A000F4FF3727E93F06CEED8F1307B71F63509C
:1048B000F7043707F07F63CAE700AE862A86EF2049
:1048C000B057F2406244056182800A86412E0D890C
:1048D00085476306F50289472246B246630FF50213
:1048E00005C9024592450547EF10C05AD9BF014698
:1048F0008146EF00701AF2406244056182802246D0
:10490000B246024592450547EF10C058A18D55BFEC
:1049100002459245EF0050186DB702459245EF00F1
:10492000B017A18D79BF860585818280011122CCC7
:10493000370400809347F4FF3727E93F06CEED8F19
:104940001307B71F6350F7043707F07F63CAE70008
:10495000AE862A86EF20504EF24062440561828086
:104960000A86ED2C0D8985476307F50289472246A3
:10497000B246630FF5021DC502459245EF00D01106
:10498000A18DD9BF014701468146EF10A050F240EA
:104990006244056182802246B24602459245EF009C
:1049A000B00F5DBF024592450547EF10A04E6DB7B1
:1049B000024592450547EF10E04DA18D71BF6DA8EE
:1049C0005D71A2C4A6C2CAC052DE56DC86C62A8465
:1049D000AE84C52D9387418103A90700FD572A8A1C
:1049E000AE8A6301F9022286A6862285A685EF306B
:1049F000803809E9014681462285A685EF20E06CD2
:104A0000634C0500B64026445285D6859644064937
:104A1000725AE25A6161828085473EC497670000FE
:104A20009387C7A13EC602D422CC26CE22C826CA6E
:104A300063070902014681463285B685EF10307C56
:104A40002AD02ED28947631EF900EF40803C93079D
:104A500010021CC1A25781EF025A925A65B702D0C8
:104A600002D22800EF1020716DD1A257F5D7EF4088
:104A7000403AA2571CC1CDB7B307C04037070080EA
:104A80001347F7FFD18F4111337ED700FD8306C650
:104A900022C4B3E7C7013703F07FAA882E88636773
:104AA000F304B307A040C98F6D8FFD83D98F2E8F7C
:104AB000636EF302B70710C0B697D18FF1C713D456
:104AC000E64193752400B367A7001354F8014D8C99
:104AD00085EB8947630FF40A8D476312F40A9767E1
:104AE00000009387A7968843CC4339A03285B685CA
:104AF0004686C286EF10A07DB240224441018280EA
:104B0000B367CE00A5C763046E0A63016706330767
:104B1000C74151879307C00363C4E70863D8060001
:104B2000930740FC01458145634AF7004685C285ED
:104B3000EF10F06CEFF03FDFEFF05FA2854763000E
:104B4000F40C8947630AF40845D8976700009387F7
:104B5000E7929043D443EF20302E9767000093876D
:104B6000678E9043D443EF20302D79B7634F0F0405
:104B7000975700009387877F8843CC43B5BFB240E7
:104B80002244C285410182802244B24041016FF03B
:104B9000FF9C976700009387E78A8843CC43A9BFAF
:104BA000975700009387877C8843CC4341BF894750
:104BB000630BC705E30FF4FC8D47E302F4F285476E
:104BC0006302F4060145814505BF975700009387AE
:104BD000677A8843CC430DB7976700009387078AAD
:104BE0009043D443EF205025976700009387878533
:104BF0002A86AE868843CC43EF201024F5BDB70744
:104C00000080BD8DD5BD6304F4048D47630AF402B2
:104C100085476300F40297670000938727858843E0
:104C2000CC43D9BD976700009387C7828843CC43A4
:104C3000E1B5976700009387E7838843CC436DBD58
:104C400097670000938707828843CC4375B59767C1
:104C500000009387A7808843CC4379BD5971A2D4C3
:104C60003727E93F1394150086D6A6D2CAD0CECEF8
:104C7000D2CCD6CADAC8DEC6E2C4E6C2EAC06EDE6C
:104C800005801307B71F635C871437E702401307DB
:104C9000B797B289634F8706975700009387877E3F
:104CA0009043D4436357B03AEF201019B727F93F28
:104CB0009387B71F2A8AAE8A6309F4141754000039
:104CC0001304C47C104054408544EF20F0162A861B
:104CD000AE8623A0A90023A2B9005285D685EF2075
:104CE000B01510405440EF20301523A4A90023A68E
:104CF000B900B6502654268506599654F649664A98
:104D0000D64A464BB64B264C964C064DF25D656135
:104D10008280372739411307B71F2E8963598710BF
:104D20003707F07F6355E40C135A4441130AAABEB7
:104D300093174A011D8CA285AA84EF308007EF30BB
:104D4000C00D2A87AE873A86BE862685A2853ACCD4
:104D50003ECE975400009384E476EF20F00D90400F
:104D6000D440EF20E041AE8B2A8BEF3080042A84C0
:104D7000EF30A00A2A87AE872A86AE865A85DE855E
:104D80003AD03ED2EF20500B9040D440EF20403F2D
:104D9000814601462AD42ED6EF20A021B3368000CA
:104DA000850663180522975700009387277A0947DD
:104DB0005286CE852808EF00A079AA84E35B09F229
:104DC00003A7490083A7C900B7060080358FB58FB8
:104DD00023A2E90023A6F900B304A04019BF08C22A
:104DE0004CC22324060023260600814419B72A86D4
:104DF000AE86EF20700423A4A90023A6B90023A047
:104E0000A90023A2B9008144EDB59757000093870C
:104E100067689043D4431754000013042468854402
:104E2000EF2090012A8AAE8A1040544079BDEFF0FD
:104E30009FAF975700009387E7669043D4432A8A31
:104E4000AE8AEF20E03397570000938727669043A0
:104E5000D443EF10C047EF20D075AA84EF20F07B39
:104E600097570000938707629043D4432A8BAE8BF9
:104E7000EF2000312A86AE865285D685EF20C07B92
:104E800097570000938787609043D4432A8DAE8C58
:104E90005A85DE85EF20C02E2A8AAE8AFD476A85B4
:104EA000E6855286D68663C79702EF20E07893871F
:104EB000F4FF139727009757000093872761BA974D
:104EC0009C43AA8D2E8C638B870023A0A90023A26C
:104ED000B90025A0EF204076AA8D2E8C93574C0167
:104EE0001358444193F7F77FB307F840C14663C6B0
:104EF000F60423A0B90123A289016E86E2866A85A1
:104F0000E685EF2060735286D686EF20E07223A4F8
:104F1000A90023A6B900E35E09DCB707008033CC03
:104F20008701BD8D23A0B90123A2890123A4A90073
:104F300023A6B900B30490406DBB97570000938738
:104F400067559043D4435A85DE8542C4EF20402301
:104F50002A8AAE8A2A86AE866A85E685EF20C06DEB
:104F60002E8C2A86AE862A842EC66A85E685EF2098
:104F7000A06C5286D686EF20206C9757000093874E
:104F8000E7519043D4432A8AAE8A5A85DE85EF20C2
:104F9000201F5286D686EF20206A2A86AE862A8A6D
:104FA000AE8A2285E285EF202069224893D7450109
:104FB00093F7F77F3308F84093071003E28CAA8D2C
:104FC0002E8C63CA070123A0A90023A2B900228D59
:104FD0002DB78D46C9BB975700009387A74D9043C7
:104FE000D4435A85DE85EF20A019324C2A8AAE8A36
:104FF0002A86AE862285E285EF2000642A86AE8668
:105000002A8DAE8C2285E285EF2000635286D686FB
:10501000EF208062975700009387474A9043D4431C
:105020002A8AAE8A5A85DE85EF2080155286D6867A
:10503000EF2080602A86AE862A8AAE8A6A85E68557
:10504000EF20805FAA8D2E8C23A0A90023A2B90097
:105050006DB5EF10C027B727F93F9387B71F2A8A8E
:10506000AE8A630EF4021754000013042442104069
:105070005440FD54EF10A0252A86AE8623A0A90037
:1050800023A2B9005285D685EF20005B1040544022
:10509000EF10E02323A4A90023A6B90099B99757DC
:1050A00000009387273F9043D44317540000130414
:1050B000E43EFD54EF10A0212A8AAE8A10405440ED
:1050C00055BF41113707F07F22C426C206C6337888
:1050D000B7002E84AA84630DE816AE87AA86635FA4
:1050E000B00E13DE454163010E1A37071000130698
:1050F000F7FFF18FD98F130E1EC013971700137689
:105100001E0093D7F601BA971397160011C67D8338
:105110008607BA9713972600135E1E40D945814E25
:105120008146370620003385C6001358F701FD1568
:1051300063C6A700898FB306C500B29E8607C297D3
:1051400006070582EDF11305000201438148370689
:10515000008019A86385D70E9355F70186077D1542
:10516000AE97060705820DC9B3051601E3D4F6FE16
:10517000B388C500368863CE050A958FB336B7006D
:10518000958F0D8F9355F70186077D153293C28653
:10519000AE970607058269F9D98F9354130089CB1E
:1051A00093041300FD5785806314F300850E81443A
:1051B00013D71E403704E03F93FE1E003A946385E8
:1051C0000E00B7070080DD8C13174E012297B24006
:1051D00022442685BA8592444101828013971500A6
:1051E00005833368A7002E87E30308FED9E193D532
:1051F000B600AD172E87D606FDD913D6450141EA74
:10520000014611A02A8606079315B700130516005C
:10521000E3DA05FE930800023688B388A840BA8511
:10522000B396A60033571801338EC740B367B70053
:105230006DBD13C8F8FF1358F80136983DBFE36DF4
:10524000B7F0B388C500E3C605FE3E88814715BFA9
:105250002A86AE86EF10D0722686A286EF1020072F
:10526000B2402244AA842E872685BA859244410101
:1052700082802A86AE86EF20203C2A86AE86EF10FA
:105280000078AA842E87A1B72E87814795BF3688DC
:10529000930800027D5679B739715AD0139B1500D7
:1052A0004AD84ED662CC66CA06DE22DC26DA52D452
:1052B00056D25ECE6AC86EC6135B1B00B707403E6F
:1052C0002E8CAA8C3289B6896355FB10EF20702E84
:1052D000630905266686E2866685E285EF10506AD8
:1052E00097570000938707389043D4432A84AE84AD
:1052F000EF10106997570000938747379043D443C6
:10530000EF00F07C2286A686EF109067975700008A
:10531000938747369043D443EF2000322286A686F7
:10532000EF10106697570000938747359043D4439A
:10533000EF00F0792286A686EF1090649757000060
:10534000938747349043D443EF20002F2286A686CC
:10535000EF10106397570000938747339043D4436F
:10536000EF00F0762286A686EF1090612A8AAE8A38
:1053700097570000938787139043D4432285A685CF
:10538000EF1010602A8BAE8B5286D6862285A685BA
:10539000EF10105F2A84AE844A86CE866685E28549
:1053A000EF10105E2A86AE862285A685EF20C028E3
:1053B0002A86AE865A85DE85EF20002897570000A2
:1053C000938747FC2A86AE868843CC43EF20C026CD
:1053D0000DAA2A86AE86EF10B05A97570000938721
:1053E00067289043D4432A84AE84EF1070599757AE
:1053F00000009387A7279043D443EF00506D228687
:10540000A686EF10F057975700009387A726904382
:10541000D443EF2060222286A686EF10705697575D
:1054200000009387A7259043D443EF00506A22865B
:10543000A686EF10F054975700009387A724904357
:10544000D443EF20601F2286A686EF107053975733
:1054500000009387A7239043D443EF005067228630
:10546000A686EF10F051B737D33F938727332A8AA8
:10547000AE8AE3DF67EFB707E93F63C3670B1757F0
:105480000000130727F0B707E0FF08434C433E9B9B
:105490008147DA863E863E8DEF20001ADA8DAE8B8C
:1054A0002A8B97570000938767009043D443228547
:1054B000A685EF10F04C6A86EE86EF20E0172A8D65
:1054C000AE8D5286D6862285A685EF10704B2A8433
:1054D000AE844A86CE866685E285EF10704A2A86BB
:1054E000AE862285A685EF2020152A86AE866A859F
:1054F000EE85EF2060142A86AE865A85DE85EF2081
:10550000A013F2506254D2544259B259225A925ABC
:10551000025BF24B624CD24C424DB24D2161828013
:10552000975700009387071303AB070083AB47002F
:10553000975700009387871203AD070083AD47009C
:105540008DB7975700009387E7E38843CC4355BF57
:10555000130101D5232E3129B689131827003ADC0F
:105560003ED4175700001307E7189387F9FF232E3F
:10557000B12742972326112A2324812A2322912A04
:105580002320212B232C4129232A51292328612937
:105590002326712923248129232291292320A1292B
:1055A000B1562AD22EDA3EC8832D0700634FD67E2D
:1055B0001307D6FFE147B347F7023ED0850713979D
:1055C0002700998F8E0782559386F9FF3387DD0078
:1055D000B2973384D540130917003ECA04092299B3
:1055E00063430702225A93172400D297014581454D
:1055F000634504008843EF20500288C0CCC00504F6
:10560000A104E31224FF63C40D06C24B125D1C0902
:1056100013993B0013048900139A3D003E99BC0B7B
:10562000840B3E9A6A944A8BEA8A014C814C63C887
:105630000B0203260B0083264B0003A50A0083A55B
:105640004A00A10A611BEF10B0332A86AE8662853C
:10565000E685EF00D0472A8CAE8CE39C8AFC23A021
:10566000840123A29401A1042109E39E44FB139722
:105670002D007018930687FF330CE60098003697CC
:105680003AD81257139439009387FDFF3A9437079D
:1056900000207D173ACC370780007D178A073ADE55
:1056A000981CBA97EE84130D011D3ED66ECE9397CB
:1056B0003400981CBA9703AA07F683AA47F66356E4
:1056C0009008E247930901043389F40097570000DA
:1056D0009387C70003A847009C430E0942C23EC0FF
:1056E00097570000938707DE03A847009C436A99F9
:1056F00042C63EC411A03E89024692465285D685D6
:10570000EF101028EF20E06AEF2020712246B24609
:105710002A8BAE8BEF10D0262A86AE865285D68590
:10572000EF109071EF20E0680326090083264900FE
:1057300023A0A900DE855A85EF0070392A8AAE8A37
:10574000930789FF9109E3182DFB524BD6855285AB
:105750005A86EF009022975700009387A7F890434E
:10576000D4432A89AE89EF10B021EF00D00B9757B0
:1057700000009387A7F79043D443EF1070202A8648
:10578000AE864A85CE85EF10306BAE892A89EF2030
:105790004062AA8AEF2060682A86AE864A85CE8556
:1057A000EF1090692A89AE89635760139387F4FFDD
:1057B000981C8A07BA9703AA07DD61473307674138
:1057C000B356EA403397E6003307EA405D4A330AAE
:1057D0006A4123A8E7DC335A4741B69A634B40112C
:1057E000014681464A85CE85EF10A07C6318051AD4
:1057F000F2471386F4FF634FF60093972400980056
:10580000F117BA9701479443F117558FE39D87FF2E
:10581000631D0728B25783A707DD63930728C25784
:105820000547F117D4430507EDDE93871400BE8AC0
:10583000BA944247925D62C03309F7000257330AB7
:10584000F70062478E070A0A3A9922570E09B309F0
:10585000FD001C093A9A3E9903250A00EF20E05BFF
:10586000C2472324A9002326B90063C90704CA8BB1
:105870006E8B014C814C31A003A50B0083A54B001E
:10588000E11B03260B0083264B00210BEF10500F6A
:105890002A86AE866285E685EF0070232A8CAE8C60
:1058A000E31C8BFC23A0890123A29901850A110A1C
:1058B000A1092109E3D254FB024CD5BB014C814C18
:1058C00023A0890123A29901850A110AA1092109AE
:1058D000E3D454F9D5B7D247639807189387F4FFF8
:1058E0008A07981CBA9703AA07DD135A7A41E3592D
:1058F00040EF850A635F904A0648854763150812A2
:10590000638EF400D400054703A806009307170030
:105910009106631B08103E87E398F4FE52476353D9
:10592000E00285476307F7468947631DF7009387C1
:10593000F4FF981C8A07BA9703A707DD2A07298373
:1059400023A8E7DC8947E31DFAE89757000093870F
:1059500067A38843CC434A86CE8642C0EF10D04D21
:1059600002482A89AE89E30D08E69757000093871D
:1059700067A18843CC435246EF0030002A86AE86AA
:105980004A85CE85EF10504B2A89AE890146814663
:105990004A85CE85EF10E061E30C05E4524D4A855F
:1059A000CE853306A041F24DEF00207D97570000D1
:1059B000938747B103A9070083A947002A8C4A8629
:1059C000CE86AE8CEF108065634005461757000009
:1059D0001307C7D0104354436285E685EF10407A21
:1059E000EF20203D9C1C139424003E94AA8BEF20B2
:1059F000C0424A86CE86EF10A0782A86AE8662859F
:105A0000E685EF107043EF20C03A138B1400981C0A
:105A100093172B00BA972328A4DC13078D013ACAE9
:105A200023A877DD55A801470A0737060001941C13
:105A3000369733080641232807DD63D597028A0786
:105A40003387F6008C0093962400032707DDAE977A
:105A5000AE967D1611A098433307E64098C3910790
:105A6000E39BD7FE05485DBD97570000938707A4C9
:105A70009043D443014AEF10605AE34305D6850AA8
:105A8000094AE34B90E6975700009387A78F884316
:105A9000CC434A86CE86EF10303A2A89AE8989B344
:105AA00093871400BE8ABE8469B3981C931726009E
:105AB000BA97524783A707DDF24D21173ACA328BB6
:105AC00081EF93972400E1179400B697F117D44320
:105AD0007D1B2117E5DE3ACA975700009387878A16
:105AE0008843CC435246EF0040692A84AE84634029
:105AF0000B3893173B003E87940BB38BE6003EC4F4
:105B000017570000130787BD93172B009400B38C21
:105B1000F6005E8C032907008329470011A0BE8C84
:105B200003A50C00611CEF20402F2286A686EF10F3
:105B300020652324AC002326BC002285A6854A8646
:105B4000CE86EF10E06398002A84AE849387CCFF62
:105B5000E31797FD1C1A3EC0EE8CBE84014463C857
:105B60000C06975700009387E7B6175C0000130CEC
:105B70006CB2DE898843CC43014D814D014909A8AF
:105B8000210CA1096347240303250C0083254C0045
:105B900003A6090083A649000509EF10605E2A8666
