:100000006F30A01F13000000130000001300000059
:100010001300000013000000130000001300000094
:100020001300000013000000130000001300000084
:08003000130000007300100032
:10003800000000000000000002530000045300000C
:1000480000000000923100000000000000000000E5
:10005800943100009631000000000000000000000C
:100068005A0A000000000000000200000000000022
:100078009C3100009E310000A0310000A231000038
:10008800A4310000A6310000A8310000AA31000008
:10009800AC310000AE310000B0310000B2310000D8
:1000A800B4310000B6310000B8310000BA310000A8
:1000B800BC310000BE310000C0310000C231000078
:1000C800C4310000C6310000C8310000CA31000048
:1000D800CC310000CE310000D0310000C22F00002A
:1000E800D4310000D6310000D8310000DA310000E8
:1000F800DC310000DE310000E0310000E2310000B8
:10010800E4310000E6310000E8310000EA31000087
:10011800EC310000EE310000F0310000F231000057
:10012800F43100009C2F0000F831000000000000AE
:080138000000000000000000BF
:10020000130181F806C216C41AC61EC822CA26CC1B
:100210002ACE2ED032D236D43AD63ED842DA46DC76
:100220004ADECEC0D2C2D6C4DAC6DEC8E2CAE6CC46
:10023000EACEEED0F2D2F6D4FAD6FED8F3220030CF
:1002400096DA9702002083A262E823A02200F32519
:1002500010342EC003A10182EF10C06E17030020DE
:100260000323C3E603210300824273901234D65263
:10027000739002309240A2423243C2435244E2445D
:10028000724582551256A2563257C2575258E258FA
:1002900072598649164AA64A364BC64B564CE64C0E
:1002A000764D865D165EA65E365FC65F13018107DA
:1002B0007300203013000000130000001300000042
:1002C00013000000130000001300000013000000E2
:1002D00013000000130000001300000013000000D2
:1002E00013000000130000001300000013000000C2
:1002F00013000000130000001300000013000000B2
:1003000083A20182938202E07390023417010020DD
:100310000321C1DB024182403243C2435244E244E2
:10032000724582551256A2563257C2575258E25859
:1003300072598649164AA64A364BC64B564CE64C6D
:10034000764D865D165EA65E365FC65FD652A1020A
:1003500073900230A24213018107828013000000D3
:100360001300000013000000130000001300000041
:100370001300000013000000130000001300000031
:100380001300000013000000130000001300000021
:100390001300000013000000130000001300000011
:1003A0001300000013000000130000001300000001
:1003B00013000000130000001300000013000000F1
:1003C00013000000130000001300000013000000E1
:1003D00013000000130000001300000013000000D1
:1003E00013000000130000001300000013000000C1
:1003F00013000000130000001300000013000000B1
:10040000F322003093F272FF130380181203B3E259
:100410006200711523205500130585FA10C12115BE
:10042000232005009302000063870200711523203A
:100430000500FD12D5BF71150CC1828000000000BF
:1004400000000000000000000000000000000000AC
:10045000000000000000000000000000000000009C
:10046000000000000000000000000000000000008C
:10047000000000000000000000000000000000007C
:10048000000000000000000000000000000000006C
:10049000000000000000000000000000000000005C
:1004A000000000000000000000000000000000004C
:1004B000000000000000000000000000000000003C
:1004C000000000000000000000000000000000002C
:1004D000000000000000000000000000000000001C
:1004E0000000000000000000000000000000397162
:1004F00001436EC619A0397141536AC866CA62CCFD
:100500005ECE19A0397101535AD056D252D44ED66C
:100510004AD826DA22DC06DE3301614082824111AC
:100520004AC026C222C406C68282B24D4101024D93
:10053000924C224CB24B4101024B924A224AB249A0
:100540004101024992442244B240410182803D432C
:100550002A876373C3029377F700BDEFADE5937607
:1005600006FF3D8ABA960CC34CC30CC74CC7410763
:10057000E36BD7FE11E28280B306C3408A0697027E
:10058000000096966780A6002307B700A306B70071
:100590002306B700A305B7002305B700A304B700DF
:1005A0002304B700A303B7002303B700A302B700D7
:1005B0002302B700A301B7002301B700A300B700CF
:1005C0002300B700828093F5F50F93968500D58DB3
:1005D00093960501D58D61B7939627009702000089
:1005E00096968682E78086FA9680C1171D8F3E9682
:1005F000E374C3F8A5B711CD054889CD01CEEFF25C
:100600001FF2BA8736878146EF00F04E01484285D7
:100610000DBF054842858280EFF27FF0EF00D07079
:10062000014505B711CD854789CD01CEEFF23FEFEA
:1006300032840146EF006075814708C03E8511B7DE
:1006400085473E858280854795C10DC2EFF23FED1B
:10065000B2878146135615003E85EF00A079054705
:1006600081476303E50089473E85E1BD3E85828081
:10067000854785C91DC6EFF29FEA328413561500DF
:100680002285B684EF00F00F05478D476319E5001A
:100690002285EF00D02305052380A40081473E85F5
:1006A0004DB53E858280EFF29FE70581EF10602314
:1006B000014541BDEFF2BFE61306401F3306C502F8
:1006C0009307803E814501453356F602EF10C0681E
:1006D000014585BDEFF2BFE4054401C989E9014741
:1006E00089460146EF10C0700144228599BD054737
:1006F0000144E39CE5FE01468145EF105008F5B743
:1007000011C9EFF2DFE12A84EF00106C060508C082
:10071000014505BD05458280B70700209387070C7A
:100720009843636FA702D043B386C7006316D50012
:1007300054413E85B296D4C35041B306C500631CF4
:10074000D700B706002083A6860A6306D700544365
:100750001843B29654C118C16303F50088C3828060
:10076000BA877DBFEFF21FDA41112AC6EF00D064CD
:10077000B706002083A7860A370600209386860ADC
:100780001306C60A3245A1EF370700209307C717A3
:1007900093F5F7001307C71781C51387F700419B2F
:1007A000B70500209385050C23A2050098C18D652F
:1007B000C115AE97C19B23A2070023A00700B385F4
:1007C000E7409CC21CC3B707002023AAB70AB7079B
:1007D000002023A8B70AB70700804CC31CC2032A15
:1007E0000600B377AA0085E39307F5FF3957636CDA
:1007F000F7009307050113F7F70041C313F707FF4D
:10080000410763EBE706814489A022872E8461A01B
:1008100058C15CC011375840B70600209386460B7C
:100820009042B307E94023A0F90063F3C7009CC2DC
:10083000B70700203367EA009387870B58C09843B7
:10084000C10423200400050798C3EF00307393F719
:10085000F400D1CB8967938707807390073037D630
:10086000000037D500001306C6AD9305001113052F
:1008700005B1EFB0A01401A0BA8737070020032903
:10088000070B9309070BE360F9F8370700200324EF
:10089000070C1307070C50406374F6000C40B5F5C5
:1008A0009442E38286F61440044314C33307F640AF
:1008B00093060002E3F1E6F63305F4009376F500C3
:1008C000A1DA8967938707807390073037D60000D5
:1008D00037D500001306C6AD9305F00C130505B11E
:1008E000EFB0C00D01A026854101B9B14DC1EFF2B5
:1008F0001FC3B7070020032745FF83A7C70A2A8421
:10090000B376F7009DE2896793870780739007307D
:1009100037D6000037D500001306C6AD9305401248
:10092000130505B1EFB0800901A0832605FF9DC224
:100930008967938707807390073037D6000037D5D3
:1009400000001306C6AD93055012130505B1EFB0B4
:10095000E00601A093C7F7FFF98F232AF5FEEF0009
:10096000B045B70700209387070B9443032744FF44
:10097000130504FF369798C34533B70700209387C4
:10098000C70B9843050798C3EF00505F5DBE828098
:10099000B7E700E041572387E7402386E740B7F7F2
:1009A00000E023A0070023A20700814694C7014767
:1009B000D8C783A541811307401F814633D6E5027E
:1009C0003D4790CBD4CB98C38280EFF25FB5411105
:1009D00002C6F32750303EC6B2470D478D8B638465
:1009E000E7028967938707807390073037D6000046
:1009F00037D50000130646B39305600B130505B108
:100A0000EFA0D07B01A0B757002093870700BD8BD4
:100A10009DC38967938707807390073037D600009E
:100A200037D50000130646B39305B00B130505B187
:100A3000EFA0D07801A0A93FB7E700E0116723A09D
:100A4000E710056723A0E710B707002023A00708D9
:100A5000EFF01F8B01454101EDB4397106DE16DC64
:100A60001ADA1ED82AD62ED432D236D03ACE3ECC7E
:100A700042CA46C872C676C47AC27EC073110134B7
:100A800089679387078073900730B7F700E023A248
:100A90000700EF00103411C5B7E700E0116723A08D
:100AA000E720896793878788739007307311013433
:100AB000F250E2525253C2533255A2551256825648
:100AC0007247E2475248C248324EA24E124F824FFE
:100AD0002161730020308967938707807390073006
:100AE000B7070020938707089843050798C38280BB
:100AF00037070020130707081C438DE7EFF23FA2DA
:100B00008967938707807390073037D6000037D501
:100B10000000130646B393053010130505B1EFA08E
:100B2000F06901A0FD171CC391E789679387878847
:100B300073900730828009651305058073150530B1
:100B40008280731005308280930785007D575CC1D9
:100B500018C55CC51CC92320050082802328050018
:100B600082809841FD5693078500631ED7001C497B
:100B7000D843D8C10CC79CC5CCC31C4188C98507C4
:100B80001CC18280B687D4439042E37DC7FECDB7B7
:100B9000544118451C4998C654C3D4436393A600D6
:100BA000D8C39843232805007D1798C388438280C3
:100BB000EFF2FF9641112AC6393F3245005D0D3FE5
:100BC000133514004101B5BAEFF27F9532893041F7
:100BD000045D2A8401EE1C41014591E70844EF10B1
:100BE000000B23240400850404DCA1BA631009026D
:100BF0004841EFA010385C4038400145BA9718448E
:100C00005CC0E3E2E7FE1C405CC0F1BF4845EFA0DA
:100C100050363C4058441440B307F0403E9758C407
:100C20006375D7001844BA975CC489470145E31C33
:100C3000F9FAD5D8FD1445BF304115C2EFF23F8E09
:100C400058451445AA87329758C56364D7001841A0
:100C500058C52E85CC47EFA0D0316FF09F8E828093
:100C6000EFF2FF8B2A84853D834454041309440228
:100C7000E204E18463459002FD57A302F4048D3D34
:100C8000993D8344440413090401E204E18463446C
:100C90009002FD572302F404A13D6FF09F8A5C503F
:100CA000E1DF4A85EF00905F19C1EF00D07BFD14B2
:100CB000E204E184C1B71C48E9DF4A85EF00105E19
:100CC00019C1EF00507AFD14E204E184C9B7EFF2D4
:100CD0001F8541111DE18967938707807390073055
:100CE00037D6000037D50000130686B693050011ED
:100CF000130505B1EFA0904C01A05C5D2EC62A84BF
:100D0000BDC33841B3B7E702B9EFF1333040585CA7
:100D10001440232C0402B307E602B24554C03387C3
:100D2000F600918FB6975CC4FD572302F40418C4F3
:100D3000A302F40495E11C4899CB13050401EF00CC
:100D4000F05511C5B7E700E0116723A0E7204D3348
:100D5000054541016FF0EFFE13050401F53313055E
:100D60004402DD33EDB789679387078073900730BE
:100D700037D6000037D50000130686B69305501409
:100D8000130505B1EFA0904301A0EFF24FF9411117
:100D900021C1B3B7A502AA8485EF3305B502930735
:100DA00070FB63E7A702130585042EC6653A2A8403
:100DB00001CDB245AA8799C1930785042CC01CC0F8
:100DC00044DC854522852137228541016FF06FF78C
:100DD0008967938707807390073037D6000037D52F
:100DE0000000130686B69305601C130505B1EFA03D
:100DF000F03C01A0EFF22FF0011132C61DE189672E
:100E0000938707807390073037D6000037D50000EE
:100E1000130686B69305E032130505B1EFA0103A2C
:100E200001A02A842E89B6848DE53C419DC3896743
:100E3000938707807390073037D6000037D50000BE
:100E4000130686B69305F032130505B1EFA01037EF
:100E500001A089476398F402585C85476304F70250
:100E60008967938707807390073037D6000037D59E
:100E70000000130686B693050033130505B1EFA0F5
:100E8000F03301A0EF00F05E15E5B247014C85C7D5
:100E90008967938707807390073037D6000037D56E
:100EA0000000130686B693053033130505B1EFA095
:100EB000F03001A0014C094BFD59930B040137EAB6
:100EC00000E0916AADA0B24781E71D31014549A814
:100ED00063150C002808EF00304B1939EF00C06D86
:100EE000DD3E83474404E207E18763943701230230
:100EF000040483475404E207E18763943701A302A3
:100F00000404FD366C002808EF00704935E5E13631
:100F1000185C5C5C6319F704E13EB2455E85EF0046
:100F2000102C2285353BEF00700521C5054C653638
:100F3000185C5C5C6364F700E39764F92686CA85F5
:100F4000228559315C5089C713054402EF001035E2
:100F500011C5B7E700E0116723A0E720513E054522
:100F600005616FF0CFDC69362285DD39EF001001B5
:100F700075BF23205A215DBF2285DD31EF001000AF
:100F8000B1B7EFF24FD7011132C61DE189679387E0
:100F900007807390073037D6000037D5000013065E
:100FA00086B693051055130505B1EFA0302101A0B9
:100FB0002A84AE898DE53C419DC38967938707806C
:100FC0007390073037D6000037D50000130686B679
:100FD00093055055130505B1EFA0501E01A0EF0079
:100FE000504915E5B247014985C78967938707804E
:100FF0007390073037D6000037D50000130686B649
:101000009305A055130505B1EFA0501B01A00149A0
:101010007D5A930A440237EB00E0916B9DA0B247E2
:1010200081E7F934014561A0631509002808EF0044
:10103000B0357D3C5123453483474404E207E187C2
:10104000639447012302040483475404E207E187C1
:1010500063944701A3020404613C6C002808EF007C
:10106000103431ED2285A93631C5B2455685EF00E1
:1010700010172285F536EF00607019E123207B21DF
:101080000549913C045CC1DCCE852285FD146D369A
:1010900004DC1C4899CB13050401EF00302011C576
:1010A000B7E700E0116723A0E72099340545056103
:1010B0006FF0EFC722856D36EF00406CD1B7228507
:1010C0004536EF00A06B2285E5345DD9A1BFEFF274
:1010D0000FC541111DE18967938707807390073021
:1010E00037D6000037D50000130686B69305307E4C
:1010F000130505B1EFA0900C01A02AC6EFF0BF9D2B
:101100003245085D2AC6EFF0BF9E324541016FF0BF
:101110004FC315E5EFF2AFC08967938707807390DF
:10112000073037D60000856537D50000130686B630
:10113000938585AC130505B1EFA0500801A09DCDA6
:10114000373600209306C617814701471306C61796
:10115000214883A846006398A80093173700B297E8
:101160008CC3C8C321A891E783A806006393080035
:10117000B6870507A106E31E07FDFDF38280EFF2A7
:101180000FBA41112A842EC632C4EFF0DF94834790
:1011900044047D572246E207E187B2456394E700A5
:1011A00023020404834754047D57E207E1876394D4
:1011B000E700A302040432C62EC4EFF07F931C5C48
:1011C000A245324689E713054402EF00D005228587
:1011D000EFF01FA941016FF0CFB6370700201307CA
:1011E000C70C1C439443B70700209387C70E81E6C2
:1011F0007D5798C38280184358471843DDBFEFF2EC
:101200006FB037090020B70700209304890C83A929
:10121000C70F2A849C4088404111A380070611050E
:101220002EC6EFF0FF967D579307890CB245631CDD
:10123000E40295C9B7370020938747289440D843E4
:1012400098C610479440D0C694401047910654C2A7
:101250009440910614C798405CCB9843050798C307
:1012600041016FF06FAD98434E9440C3637B3401EE
:10127000370700200325070D8C439105EFF07F8E83
:10128000C5B7370700200325C70C8C439105EFF045
:101290005F8DB70700209387C70E9843E372E4FC85
:1012A00080C37DBFEFF20FA637340020B7090020BE
:1012B00013048429370A00209384890D9C40EDDFB4
:1012C000EFF07F815C4403A9C70013054900EFF0EC
:1012D0003F8C13074A0D1C43FD171CC39C40FD1790
:1012E0009CC0EFF0FF8003250903EFF02FE04A8553
:1012F000EFF0CFDFD1B7EFF20FA013192600AA8AC3
:101300004A85AE89368BBA8B3E8AEFF0AFC505C5EC
:10131000AA8413054006EFF0EFC42A8411C904D94A
:10132000814793060002639A0900230A050225A05B
:101330002685EFF0AFDB7D55D1AA3387F90003078F
:1013400007003306F400230AE60201C78507E39687
:10135000D7FEA3090404994763F477038967938749
:1013600007807390073037D6000037D5000013068A
:1013700006BA93057039130505B1EFA0206401A0EA
:10138000930944004E8523267403232A7405232CD5
:101390000404EFF0AFFC13058401EFF02FFC1D47B0
:1013A0001305C9FF33077741269500C818CC40D0F4
:1013B000230E0404A30E0404230F0404A30F040447
:1013C00023000406A30004065A86D6854199EFF04F
:1013D0002F8308C063040A0023208A00EFF0AFEFD8
:1013E000B70700209387470D98433709002037350A
:1013F0000020050798C31307890C1843370A0020FB
:101400001309890C9304C51B130A8A0F6312071072
:1014100023208900984385476318F7081305C51BE7
:10142000EFF08FF213854401EFF00FF21385840281
:10143000EFF08FF11385C403EFF00FF1138504056E
:10144000EFF08FF013854406EFF00FF0138584075B
:10145000EFF08FEF37350020130B8524130585241B
:10146000EFF08FEE37350020930AC5251305C5250B
:10147000EFF08FED3735002013050527EFF0CFECA7
:101480003735002013058529EFF00FEC37350020A4
:1014900013054528EFF04FEBB707002023A6670D93
:1014A000B707002023A8570DB70700209387070E22
:1014B0009843050798C3370700201307470E5C546D
:1014C000144363F3F6001CC35147B387E702BE948D
:1014D000DC4098471CC458C498472322370123A4F2
:1014E00037019C4044C885079CC0EFF06FE083271C
:1014F0000A00054581CF83270900D8575C546377DC
:10150000F700B7E700E0116723A0E7206FF02F8214
:1015100083270A00D1FB83270900D8575C54E3E5F1
:10152000E7F82320890049B7EFE27FFFB7070020E3
:10153000B7D50000371500009387870E0147814615
:1015400013060010938545BC1305452A6D330544E9
:10155000631E8502EF005065631A850289679387D1
:10156000078073900730B70700207D5723A6E70E4A
:10157000B707002023ACA70EB707002023AE070E45
:10158000EFF0AFC483A741806FE0BFFBFD57E31BC3
:10159000F5FE8967938707807390073037D6000080
:1015A000856537D50000130606BA938505841305B3
:1015B00005B1EFA0A04001A0B70700209387C70D99
:1015C0009843050798C38280B707002003A5C70F7B
:1015D0008280B707002083A7C70D63980718EFE242
:1015E0001FF4B70700209387C70F8043050480C30B
:1015F00039E8B70700209387C70C9843184305C7FD
:101600008967938707807390073037D60000856518
:1016100037D50000130606BA938575AC130505B1DE
:10162000EFA0C03901A0370700201307070D94432E
:10163000104390C3B707002014C39387070F984344
:10164000050798C3593E370600209307C60E9C43F2
:1016500037370020B70500201306C60E1307C71B37
:101660009385850C01456375F4029C41D146DC5796
:10167000B387D7023E971843854763F3E7000545D4
:10168000B707002083A7071091C305456FE07FEBE4
:10169000370E0020B70E0020514F9307CE0C944315
:1016A000944281E6FD571CC2C9B79C43DC47DC4726
:1016B000D4436374D40014C24DBF83A8870003A829
:1016C000C700D44B1383470023A408012322180129
:1016D00083A846006394680023A2060103A80600BD
:1016E00023AA07007D1823A00601945795CA03A8D2
:1016F000C70183A8070283AF46002324180183A8EB
:10170000070223A208011388870163940F0123A213
:10171000160103A8060023A407027D1823A00601D2
:1017200093864E0E03A8C70283A8060063F408013F
:1017300023A00601B306E803BA9683A8460083AF48
:10174000880023A4170123A6F70183AF880023A2F2
:101750006F0023A46800D4CB9C4285079CC29C41A7
:10176000DC57E36CF8F205450DBFB70700209387FF
:10177000470F98430145050798C38280EFE29FD841
:10178000370400201304C40D1C40411185E789670C
:10179000938707807390073037D60000856537D56B
:1017A0000000130606BA9385358B130505B1EFA02B
:1017B000E02001A0EFF02FB21C40FD171CC01C4020
:1017C00089CB01452AC6EFF0AFB2324541016FE047
:1017D000BFD6B707002083A7470DE5D7B73600204F
:1017E00037350020814793860627370F00201305E1
:1017F000C51BD14837030020370E0020854E59A85D
:10180000DC46DC47CC4F9053985790C503A807029D
:101810002322B80003284700938587016313B8008B
:1018200050C3104323A407027D1610C38C47D04732
:10183000D84B1388470090C54CC24C4363930501B5
:1018400050C3104323AA07007D1610C313074F0E81
:10185000D0570C4363F3C50010C3330716032A9710
:101860004C4383AF85008CC723A6F70183AF850067
:1018700023A20F0123A405010C43D8CB85050CC37B
:101880001307830C184358576366E60013070E10BE
:101890002320D70198422DF799C3EFF01F94B70783
:1018A00000201387470F04431384470F91CC370957
:1018B00000208549393B09C59307091023A037014A
:1018C000FD14EDF823200400B707002083A70710BC
:1018D000E38907EEB7E700E0116723A0E72005459D
:1018E000D5B519E5B7E700E0116723A0E7208280AE
:1018F000EFE2FFC2B707002083A7C70D41119DC3C8
:101900008967938707807390073037D6000037D5F3
:101910000000130606BA93059054130505B1EFA015
:10192000E00901A02AC6493932458145EFF03F8DD3
:10193000B13511E5B7E700E0116723A0E7204101C9
:101940006FE03FC0B707002003A7C70DB70700200F
:101950009387071001C7054798C3828023A007001B
:10196000B70700201387470E18431386470EB73773
:1019700000209387C71B5148B3060703B385D700E0
:10198000884115C5C841A106BE964841C8C1631427
:10199000D5005441D4C1D146B306D702B697DC4333
:1019A000D447B707002023A4D70C18C2828015E7BC
:1019B000EFE2FFB68967938707807390073037D6C9
:1019C0000000856537D50000130606BA938525C04B
:1019D000130505B1EF90907E01A07D1771BFEFE276
:1019E0001FB405E58967938707807390073037D662
:1019F0000000856537D50000130606BA9385C5C17A
:101A0000130505B1EF90907B01A0B70700202E844D
:101A100083A5870CE105EFF0CF9485452285EFF093
:101A20000FFE6FE01FB2EFE29FAF2A8705E58967DF
:101A3000938707807390073037D60000856537D5C8
:101A40000000130606BA938525C5130505B1EF906E
:101A5000F07601A0B70700209387870C54432E85AA
:101A60008C4303A88600D4CD8C4323A0050303A890
:101A700007008C46610823A2050103A807009C43C8
:101A8000610823A4060198D71C4385071CC311C213
:101A90007D55B285EFF0AFF66FE0BFAA5C45DC473D
:101AA00095E7EFE2DFA78967938707807390073098
:101AB00037D60000856537D50000130606BA938532
:101AC00025C8130505B1EF90706F01A0D04F945356
:101AD00098579385870114C6D0C250436313B6004C
:101AE00054C3144323A40702FD1614C33707002070
:101AF0000327C70DD45725EF8C47D047D84B90C547
:101B0000D04748434CC2938547006313B50050C388
:101B1000104323AA07007D1610C3370700201307C0
:101B2000470E10436373D60014C351473386E60251
:101B3000373700201307C71B32975043084690C71A
:101B4000C8C708464CC10CC6D8CB1C430145850705
:101B50001CC3B707002083A7870CDC5763F8D700A6
:101B6000B7070020054723A0E710054582803737D7
:101B700000201307072750430846D0CF88D30846D4
:101B80004CC10CC698D7D1B7B707002083A7070F61
:101B90001CC1B707002083A7C70F5CC18280EFE29A
:101BA0001F98411105E58967938707807390073077
:101BB00037D60000856537D50000130606BA938531
:101BC000D5CF130505B1EF90705F01A085E589675A
:101BD000938707807390073037D60000856537D527
:101BE0000000130606BA9385E5CF130505B1EF9003
:101BF000F05C01A02EC62AC4EFE0FFED37070020FD
:101C0000B70700201307870C83A6C70F1C43224584
:101C1000B24583C7170699CB1C43A380070605442A
:101C2000EFE01FED228541016FE0BF919C417D57A0
:101C30000144E387E7FE370600200326060F03284A
:101C4000050058416307C80063E5E60023A00500CE
:101C5000F9B73386E640E37BF6FE958FBA979CC1D1
:101C60002537014475BFB7070020054723A0E710BB
:101C70008280B707002083A7870F054581CBB70770
:101C8000002003A5C70D133515000605828011E558
:101C90000145828001456FE0DF8AEFE25F88B70788
:101CA000002083A7870C2A846385A702896793870E
:101CB00007807390073037D60000856537D5000060
:101CC000130606BA9385F504130505B1EF90104F7E
:101CD00001A0BC4F85E78967938707807390073021
:101CE00037D60000856537D50000130606BA938500
:101CF0000505130505B1EF90704C01A054557849C6
:101D0000FD173CCDE388E6F8D1F79304450026851E
:101D1000EFE01FE87C481D471D8F18CC37070020D7
:101D20001307470E14435CD463F3F6001CC35147FA
:101D30003387E702B73700209387C71B0545BA975B
:101D4000D843144718C454C41447C4C204C79843A2
:101D50005CC8050798C381B7EFE26FFC411105C568
:101D60008967938707807390073037D600008565B1
:101D700037D50000130606BA93856526130505B10D
:101D8000EF90D04301A037040020AE8432C6EFE0CC
:101D90009FD49307840C9C431304840CFC4F85E36D
:101DA0001C40324605472380E70611CA8545328527
:101DB000EFF0EFC4B7E700E0116723A0E720EFE002
:101DC0003FD3EFE05FD11C40E84F09C51C4089CCF0
:101DD00023AE07041C402AC623800706EFE05FD12C
:101DE000324541016FE0EFF51307F5FFF8CFDDB79E
:101DF000EFE2EFF2411185C5896793870780739001
:101E0000073037D60000856537D50000130606BABF
:101E100093858530130505B1EF90503A01A005E593
:101E20008967938707807390073037D600008565F0
:101E300037D50000130606BA93859530130505B112
:101E4000EF90D03701A03AC636C432C22AC0EFE0C4
:101E50009FC8324702451246A24619C37C4D1CC397
:101E60008347050609472300E506114793F7F70F57
:101E70006360D70435671307C7B88A06BA969842D5
:101E80000287784D598E70CD21A0784D050778CD09
:101E900005476387E70405452AC0EFE07FC5024593
:101EA00041016FE00FEA0947E39FE7FC0145EDB709
:101EB000370700200327C70F61DF896793870780F3
:101EC0007390073037D60000856537D500001306BC
:101ED00006BA9385E533130505B1EF90302E01A0C6
:101EE000144558455C491306450098C6584554C3E7
:101EF000D4436393C600D8C39843232A05007D17B3
:101F000098C3B70700209387470E5855944363F34F
:101F1000E60098C3D147B306F702B737002093878E
:101F2000C71BB697D4438C4614C54CC58C46D0C14C
:101F300090C694435CC9850694C31C5585C78967C0
:101F4000938707807390073037D60000856537D5B3
:101F50000000130606BA9385D534130505B1EF903A
:101F6000F02501A0B707002083A7870CDC57E3F416
:101F7000E7F2B7E700E0116723A0E72029BFEFE20F
:101F80000FDA411105E58967938707807390073061
:101F900037D60000856537D50000130606BA93854D
:101FA000C540130505B1EF90702101A085C5896773
:101FB000938707807390073037D60000856537D543
:101FC0000000130606BA9385D540130505B1EF90BE
:101FD000F01E01A02A8432C6EFE0FFB5894703470F
:101FE00004062300F4067C4C85077CCC8547639E61
:101FF000E70A1C54324685C7896793870780739028
:10200000073037D60000856537D50000130606BABD
:1020100093853543130505B1EF90501A01A0B7071A
:10202000002083A7C70D5854D1E70C4454445C48A2
:1020300094C5544403A84700CCC2930544006313DD
:10204000B800D4C39443232A0400FD1694C3B707F1
:1020500000209387470E944363F3E60098C3D1476B
:10206000B306F702B73700209387C71BB697D44350
:1020700003A8860014C42326040103A88600232293
:10208000B8008CC65CC89443850694C3B70700208B
:1020900083A7870CDC5763FAE70019C285471CC287
:1020A000B7070020054723A0E710EFE09FA94101F3
:1020B0006FE02FC9B737002093870727D4438C469A
:1020C00054CC0CD003A88600930584012322B800C9
:1020D0008CC61CD44DBFEFE28FC437040020EFE064
:1020E0009F9F130404111C40B1E7373500201309EA
:1020F000C52A1305C52AEFE03FA537350020930414
:10210000052C1305052CEFE03FA4B707002023A200
:1021100027110146B7070020C145114523A4971098
:10212000EFE0BFC608C019C5B7D50000938505BF4D
:10213000EFE03FFEEFE0DF9B6FE0AFC0EFE22FBECE
:102140004CC108C9AA876362B602184D158E0545B1
:10215000637BE60093854700B707002003A587103F
:10216000EFE03FA001456FE0CFBD6375D6000545A8
:10217000E3FBD5FE93854700B707002003A5471072
:10218000C5B7EFE2CFB92A84AE8432890C4CA6865B
:102190004A86A69522855D3719E16FE08FBA1C4CFF
:1021A0002285BE941C508297D5B7EFE24FB7B70790
:1021B000002083A747104111AA84DC472EC6C047E0
:1021C00013054400EFE0DF9C83474402324613F7D7
:1021D000470011CBA68522856D371C50228582973A
:1021E00041016FE00FB6F99B2302F402FDB7EFE265
:1021F0000FB3370400209306441098421C4391EB20
:10220000B707002093878710904398C390C26FE070
:102210004FB35C47FD558843493FF1BFEFE2AFAD97
:1022200035694111B70A0020B7090020370B00209B
:10223000B70B00201309C9BC83A74A10984329CBC8
:10224000DC47814C03AC0700EFF00FB7EFF0CFB7DE
:1022500083A7C9102A849384C910130A0B11636CD5
:10226000F50288C0638F0C0283A78B10904313364E
:10227000160003250A00B3058C40EFE05FF0EFF095
:10228000EFCF11EDB7E700E0116723A0E72001A829
:10229000854C014C55BFA13F80C0EFF02FCE214CA3
:1022A00005A00146E36785FDEFF04FCDA28562856D
:1022B000ED3DF5B79247B2458297824763DD07004F
:1022C00003250A0001468A85EFE0BFCB35D582475A
:1022D0002245E3C107FE22445C4895E3EFF0CFAE10
:1022E0009C40AA8C6373F5001937824723A09401A0
:1022F000FD17E367FCFC8A07CA979C438287130596
:102300004400EFE0FF88D9BF834744020C4C92465B
:1023100093E717002302F4026686B6952285393DBD
:1023200045D18347440213F7470019CB1C4C924513
:1023300066862285BE95B1351C502285829749B7A5
:10234000F99B2302F402CDBF83474402F99B230289
:10235000F402BDB783474402924593E71700230276
:10236000F4020CCC9DE18967938707807390073056
:1023700037D6000037D50000130686BF9305903589
:10238000130505B1EF90806301A0E6866686E695A9
:1023900022856D3335B78347440213F727005DF775
:1023A0002285EFE0AFD429BFEFE26F97EFF0BFD205
:1023B000B707002083A707119DE3896793870780EC
:1023C0007390073037D6000037D50000130686BF5C
:1023D00093059011130505B1EF90405E01A0B7077A
:1023E0000020B7D500003725000093874711194713
:1023F0008146130600109385C5C11305C521EFE082
:102400009FEF45DD6FE0EF93EFE26F9141112A847A
:102410002E85EF90800B2AC422852EC6EF90E00A0D
:102420002246B246EF30D012EF90E014B7D700004A
:1024300083A507C4EF80A017EF902009B7D700004D
:1024400003A687C483A6C7C4EF70A045EF90A0126F
:1024500041016FE00F8FEFE2EF8A41112E84AA84D1
:10246000B2853A853E8936C642C43AC2EF80407E84
:10247000AA858840EF80A013124788C0BA853A85A4
:10248000EF80007DCA85EF80A07CCA85EF80407C0C
:102490000C40EF80C01122482A8908C0C2854285BD
:1024A000EF80007BCA85EF808010AA854A85EF8087
:1024B000A046B24683A904002A893685CE85EF80DE
:1024C0007022CA85EF80C078CE85EF80400EB7D7E6
:1024D000000088C003A507C5CA85EF80B020AA8583
:1024E0000840EF80E07608C041016FE0EF84EFE242
:1024F0008F807971B7340020373900202A8C0A8602
:102500009385C4341305492DEF00A076B73500201C
:10251000373500207000938585351305052EEF00B3
:1025200040751386C4346C000A85EF0000630245D1
:1025300037340020373A0020EF9000233245B73A75
:10254000002093890A31EF9020220A869305843275
:102550001305492DEF00E0712C081305492DEF00FC
:10256000407C70002C080A85EF00A070B735002071
:1025700013068432938545336800EF00005E024500
:10258000938BC434130B8432EF90001E3245EF90CE
:10259000A01D4C101305CA2EEF00A0780A869305E3
:1025A00084321305CA2EEF00C06C70004C100A85EF
:1025B000EF00206CB735002013860A31938505346F
:1025C0006800612B0245EF90201A3245EF90C01948
:1025D00083A90900B7D7000003A507C583A5090093
:1025E000EF80803323A0A9000A864C1013058432A3
:1025F000EF002068B73900201386493093850A31EF
:102600000A85EF0000670245B73A0020EF90C01539
:1026100083A7CA310A869385C43423A08701130592
:10262000CA2EEF00006570008A851385CA31EF005D
:10263000805B0245EF9040130A866C001385493099
:10264000EF0020633245EF90201270008A851385D9
:10265000C434212303A50B00EF9000110245EF9035
:10266000A010B2470A869305492D1385493023A04F
:10267000FB00EF0000603735002070008A851305ED
:10268000852F95230245EF90200E0A86930584320C
:102690006800EF00005E03250B00EF90E00C82471E
:1026A0002320FB0045616FD09FE8EFD25FE42A84CE
:1026B00048410111AE84EF805061AE890C40832AFD
:1026C00084002A892E85EF80A0582A8AD6855685CF
:1026D000EF800058AA855285EF70706DEF80F05E34
:1026E000EF3070192A86AE864A85CE85EF6050237A
:1026F000EF30A01F2A8C0840AE8C37DD0000EF8041
:10270000D05CAE894C40832A84002A892E85EF80D4
:1027100020542A8AD6855685EF808053AA85528513
:10272000EF70F068EF80705AEF30F0142A86AE86B2
:102730004A85CE85EF60D01EEF30201B938A8180C2
:1027400003A70A00B7D7000003A907C32A8BB7D78E
:102750000000AE8B6285E68503AA47C33AC4EF80CA
:102760009061EF809056B7D9000003A689C483A674
:10277000C9C4EF700013EF801060504422474A88AC
:10278000D287AA869385440113858400EFF0BFCCDD
:1027900003A70A00DE855A853AC4EF80D05DB708EA
:1027A000008033C5A800EF80505203A689C483A6D9
:1027B000C9C4EF70000FEF80105C224710484A88B0
:1027C000D287AA869385C40113850401EFF0BFC8A0
:1027D0008844EF80904F03268DC38326CDC3EF70CE
:1027E000400CEF805059EF80504E2A89AE89EF306F
:1027F00060432A8C0850AE8CEF80304D2A8BAE8B14
:102800004A85CE85EF30804B2AC4084C2EC6EF8017
:10281000D04B6286E686EF70C0082246B2462A890F
:10282000AE895A85DE85EF70C0072A86AE864A8556
:10283000CE85EF60E01B2ACC88482ECEEF80F04892
:1028400003268DC38326CDC3EF70A005EF80B05261
:10285000EF80B0472A8DAE8DEF30C03C2A89AE891B
:102860006A85EE85EF3080452A8D484CAE8DEF802D
:10287000D0454A86CE86EF70C0022AC82ECA6A8624
:10288000EE865A85DE85EF70C0014243D2432A8628
:10289000AE861A859E85EF60A015EF80D04D624709
:1028A000F2472A8B3A85BE85EF80F04CDA85EFF04F
:1028B000BFB5B7D7000003A807C503A70A00504853
:1028C000D287AA86938584011385C400EFF0BFB830
:1028D0000840B708008033451501EF80103F6A8635
:1028E000EE86EF60107C2A8B4840AE8BEF80F03D87
:1028F0002246B246EF60F07A4A86CE86EF60707A62
:102900002A86AE865A85DE85EF60800E2A8B0844C3
:10291000AE8BEF80903B6286E686EF6090784A86C9
:10292000CE86EF6010782A86AE865A85DE85EF6007
:10293000200CEF80504483A50A00EF806031AA8507
:10294000C840EF70D046C8C04854EFF05FBAB73700
:10295000002083A7C734984398C0DC43DCC00561DE
:102960006FD0BFBCEFD21FBA41112145EF80305F5D
:1029700013040000AA8600C140C137350020054677
:1029800089451305C534F1224145EF80505DAA8683
:1029900000C140C100C537350020C0C60946894581
:1029A000130585327D224145EF80705BB7D700006B
:1029B00093848180A28903A407C59C40AA8600C194
:1029C0005CC12324350140C53735002009468945BF
:1029D0001305452DBD2A2145EF80705884402A8972
:1029E0002685EF80902EB7D7000003A687C283A666
:1029F000C7C22A8AAE8AEF60D06A5286D686EF6056
:102A0000506AEF80503723229900B7340020CA86DD
:102A10002320A900054689451385042E1D2A11454A
:102A2000EF80F053AA863735002023A036010546F3
:102A3000854513058535312A2145EF805052AA86F8
:102A400000C13735002023A236010946854513050C
:102A5000C52E01224C001385042EE12437360020B8
:102A60004C00130646331385042E21241145EF80B4
:102A7000104FB7D7000083A747C2AA8605461CC1DE
:102A800037350020854513050534E1201145EF80D9
:102A9000104DAA863735002023A03601054685450E
:102AA000130505317D202145EF80704BAA8637350F
:102AB000002023A0360123A23601054689451305CF
:102AC000453041281145EF809049AA8637350020CE
:102AD00023A03601054685451305C5319D2841458E
:102AE000EF80F047AA8600C123A2360123A4360155
:102AF00040C537350020094689451305852F9128A3
:102B00004E89CE8441016FD03FA3EFD2BF9F444591
:102B10004C412A842685EF80A0134C48EF70302961
:102B20000C482A8948C82685EF80C03B0C44EF80BA
:102B300020120C40AA892685EF808011CA85EF708B
:102B40001027AA854E85EF70902608CC04C86FD058
:102B5000BF9E4CC110C514C18280EFD2DF99832B78
:102B60004500DC41639BFB060045984581476317A0
:102B7000E406AA8433858B0200C6232276013289BB
:102B8000AE89814A0A05EF80903D2320A9001319E0
:102B900024002A8463D77A0583AC8400228C014BFD
:102BA000338A5C030A0A2DA083A7890003A70900C2
:102BB000110CB387FA02DA978A07BA9798408843CC
:102BC000050B52970C43110AEF70701E232EACFEBA
:102BD000E34C9BFD850A4A9475BF81473E856FD0C3
:102BE0001F958547E5BFEFD21F91832B4500DC4140
:102BF000639BFB060045984581476317E406AA845A
:102C000033858B0200C6232276013289AE89814A40
:102C10000A05EF80D0342320A900131924002A8448
:102C200063D77A0583AC8400228C014B338A5C0322
:102C30000A0A2DA083A7890083A609009840B387BC
:102C4000FA02110C52970843110ADA978A07B697CD
:102C50008C43050BEF800029232EACFEE34C9BFD3B
:102C6000850A4A9475BF81473E856FD05F8C854742
:102C7000E5BF1845DC416310F70AEFD25F87032CEC
:102C8000450003AA85002A89411133054C032324FA
:102C9000460123228601B289AE840A0A814B0A05C5
:102CA000EF80F02B23A0A9002A8463D88B0783AD83
:102CB0008400A289014B13962D000DA08326890064
:102CC0009307000023A0F900B38A7603131D2B009D
:102CD000814C8A0A63C9DC00050B9109E340BBFF04
:102CE000850B5294D9B783270900984032C6D697EE
:102CF0006A970C43884336C4850CEF707075AA85BB
:102D000003A50900910AEF70900A324623A0A9009A
:102D1000A246329DC1B701458280054541016FD071
:102D2000DF80EFD2CFFF2A84084541112EC6C8C1EB
:102D300044403305950284C50A05EF805022B24510
:102D400093982400014788C16357970203288400A1
:102D500093172700AA97B306E80201468A0601A83E
:102D60000C400506B6958C4191068CC3C697E34985
:102D700006FF0507D1BF41016FD0AFFC2DC5EFD2D3
:102D80006FF82A842E89054591CD835584004840EB
:102D9000B284B689054A352581E8484083558400C8
:102DA000292501456FD04FF9834509000840EF0000
:102DB000D02808408945EF001029E31C45FF084052
:102DC00093050008EF003028E30B45FF05096388F1
:102DD000090008408509EF00B026A38FA9FEFD1465
:102DE000C204C18055BF05458280EFD2AFF1AA84ED
:102DF000BDC1370403000904054A3769004093093F
:102E00000980B70502004E85EF00207A7DF9130591
:102E10000980854537090300B7690040FD2505098C
:102E2000938A0980CA855685EF00807665DD939583
:102E30001400528693F5E50F13850980B7640040AE
:102E4000EF00607193840480A2852685EF004074B2
:102E500065DD6FD06FEE3704070013042408014AC4
:102E600069BFEFD22FEA37040010B76400402A8907
:102E700013040408138A04808549A2855285EF0053
:102E8000C072E31C35FFCA85138504806D2D6FD099
:102E9000AFEAEFD22FE737040010B7640040130405
:102EA0000408938904800549A2854E85FD2DE31D04
:102EB00025FF854513850480852D6FD0EFE7B70684
:102EC00000209386561283C7060037070020130799
:102ED00007133E9719468507B3E7C7020345070066
:102EE0002380F6008280EFD2EFE12E8A37090010AE
:102EF0008545B7640040B7090020EFF01FEF01449B
:102F0000130909049384048093890913954A63671C
:102F10004403B70400103769004093840404130A83
:102F200009808549A68552854925E31D35FF13058E
:102F300009808545D52B22856FD00FE0CA8526856F
:102F4000AD2511C926851925B30734010504238051
:102F5000A7001374F40FE31C54FB8565938505806B
:102F6000268521256DB7EFD28FDB8D47054463E4BD
:102F7000A70293074006054463EFB700014401ED43
:102F80009547B385F50237150040130505809385F5
:102F9000451FEF00F05A22856FD0AFDAEFD22FD85D
:102FA0003755004093055052130505C0EF00F07BE4
:102FB00019C5B707002083A7C71191C382976FD0A7
:102FC0004FD8EFD2CFD5373401408945130504C01F
:102FD000EF00F06429C1130504C037040020EF009E
:102FE0007062130464122310A40037150140930586
:102FF000001013050580592EB70700203707002061
:10300000054693870712130747126318C50423A0C8
:10301000070023000700373501408545130505C02B
:10302000EF00F05F15C137070020930707129C439C
:1030300013070712B1E3B707002083D66712896729
:1030400093870771958F1CC3373501408D45130554
:1030500005C0EF00905E6FD0CFCE8355040094433F
:10306000AE9694C3B707002003A5871185452300BA
:10307000C700EFD02FE645B71C43896693860671DB
:10308000B697D1B739C5EFD2EFC7B75400402A89F8
:103090002E84938404C0854919E0014509A893054D
:1030A00000082685EF00D06A630535010D456FD015
:1030B000AFC8930500022685EF00906965F9834546
:1030C00009007D1426854204EF0050670509418000
:1030D000E1B70545828021C5EFD2CFC2B754004089
:1030E0002A892E84938404C0854901E401456FD068
:1030F000AFC4930500022685EF0090656313350386
:103100002685EF0050647D142300A9004204930536
:103110005052268505094180EF005064F9B70545F6
:1031200082801145E9B7EFD2EFBD896779792A84AA
:10313000138AF7701309098F9384077101E401451D
:103140006FD08FBF63628A049319040193D9090178
:103150000144854537050040EF00904BCE8537058B
:103160000040EF00903D854537050040EF00902D71
:1031700037050040EF007049E3FCA9FE81453705A3
:103180000040EF00302C5DBF4A94A689D9B701A05A
:1031900001A001A001A001A001A001A001A001A027
:1031A00001A001A001A001A001A001A001A001A017
:1031B00001A001A001A001A001A001A001A001A007
:1031C00001A001A001A001A001A001A001A001A0F7
:1031D00001A001A001A001A001A001A001A001A0E7
:1031E00001A001A001A001A001A001A001A001A0D7
:1031F00001A001A001A001A001A097D1FF1F938110
:103200006168172100201301E1DF17A500001305F5
:10321000A52B97D5FF1F9385E5DE1386818263FA80
:10322000C5008322050023A0550011059105E3EA9E
:10323000C5FE17D5FF1F130565E797050020938589
:10324000E51C6377B500232005001105E36DB5FE8D
:10325000FD42739002BC894273904280B722000005
:103260009382028073A0023097D2FFFF938202DD27
:1032700093E2320073905230EF10803D97220000AD
:103280009382C25873901234730020309C4513F718
:10329000070113F8F70001C7D8413368E800372762
:1032A0000240145B3707000F758F55EF370700207A
:1032B00085462304D712371701406317E50003D76B
:1032C000050035832390E50083D5050013F7F50F3E
:1032D00039C318418146854E3D4F930F80029302BA
:1032E0008004214E3396DE00B3F8C5006311160347
:1032F0009398260033131F011343F3FF3377E30042
:10330000B318180133E7E8006399F70750C9850639
:10331000E39AC6FD18C11307F00F6375B704544153
:103320002146854E3D4F930F800293028004414E0B
:10333000B398CE0033F715016392E8021317260005
:1033400001173313EF001343F3FFB376D3003317A2
:10335000E800D98E6397F703232A15010506E319C0
:10336000C6FD54C1828037170140E31FE5F43707DB
:1033700000200347871229DB99B7E39A57F810C951
:1033800079B7E39D57FC23281501C9BFB717014042
:103390006318F500B707002083C7871291C3B58172
:1033A00008456D8D3335A0008280B7170140631842
:1033B000F500B707002083C7871291C3B5810CC9F8
:1033C0008280B71701406318F500B707002083C754
:1033D000871291C3B5814CC98280EFD24F94797125
:1033E0002A848354450068082EC6652C92573747B7
:1033F0000F001307072433D7E702C204C18093F4F8
:1034000004FCC204C180B24561651305056A131648
:1034100007014182D18C2312940083560400C20616
:10342000C182F99AC206C1822310D4009441636418
:10343000D5068606B3D7D702914613970701418375
:10344000BA876373D700914705064206C2074182D7
:10345000C1832310C402231EF4008357040003D742
:10346000450083D6A50093E717002310F400835787
:103470000400558FC207C18393F757BFD98F23101C
:10348000F40003D7850083D7C500D98F2314F40037
:1034900045616FD00F8B03D5650031667D16631EC5
:1034A000C5020D46B386C602B3D7D702C207C18391
:1034B0009396470199E293E71700A166D58F93068B
:1034C000C0123307D7029306803E3347D702050761
:1034D000420741832310E402BDBF6546B386C6029E
:1034E000B3D7D7029166C207C183D58FD1B78357AF
:1034F000050091C593E717002310F5008280C207ED
:10350000C183F99BC207C183C5BF8357050091C51D
:1035100093E707102310F5008280C207C18393F759
:10352000F7EFC207C183FDB78357050091C593E745
:1035300007202310F5008280C207C18393F7F7DFCD
:10354000C207C183FDB72318B5008280035505016A
:103550001375F50F828093F7E50F19C293E71500F5
:10356000C207C1832318F5008280035705009385A5
:10357000058091E9856793870780D98FC207C1834A
:103580002310F5008280FD779387F77FF98FCDBFF9
:10359000835745010355850142055D8D6D8D2205DB
:1035A00021810D8D133515008280411102C402C6A0
:1035B00093D7C5012AC63EC4A247A205A18199CBD3
:1035C000B247D1073EC6B247884341016D8D3335BE
:1035D000A0008280B247C181E107EDB7B7070020A4
:1035E00023A6A7128280B70700209387C7129443AF
:1035F0000347050089E683472500920731A89443D5
:1036000005466391C60483472500034615009207CB
:103610006314D60093E707F8B7E600E093F7F70FD7
:10362000BA962380F6408546935757003397E600B5
:103630005441ADC6938707048A07B7E600E0B69702
:1036400098C382808C4389466393D50283461500D4
:10365000834725006365D6008A06B69779BF9386AF
:10366000E6038A06B69793F7F70F920765B790437C
:103670008D46631ED600834615008347250063648C
:10368000D6008606D9BF9386C6078606E1BF944357
:103690009147E39AF6F88347150085B793870706A5
:1036A00061BF371702405C439146B18B6385D700F9
:1036B000A1466386D706B7177A00938707201CC1F7
:1036C000371602405C42370700201307070091833A
:1036D000BD8BBA9783C607001C41B3D7D7005CC126
:1036E0005442A1829D8ABA9683C60600B3D6D700FB
:1036F00014C55442AD829D8A369703470700B3D75D
:10370000E7005CC558423983937637001387C18040
:10371000369703470700B3D7E7021CC982805C4392
:103720005843C166C983BD8B758F8907C5466393AE
:10373000D700C94701EF3747024003270780418B75
:1037400009CF37177A001307072021A8371702403F
:1037500058439316E700E3D606FE37173D001307DC
:103760000790B387E702A1BF99C5371702405C4BAA
:103770005D8D48CB8280B7170240D84B1345F5FFCB
:10378000798DC8CB828099C5371702401C4F5D8D5B
:1037900008CF8280B7170240984F1345F5FF798D07
:1037A00088CF828099C5371702405C4F5D8D48CF26
:1037B0008280B7170240D84F1345F5FF798DC8CFE7
:1037C0008280035705008D679387070483D6250001
:1037D0007D8F83D70500D58F83D64500D58F83D6BF
:1037E0006500D58F83D68500D58F83D6A500D58F6C
:1037F00083D6C500D58F83D6E500D58FD98F23100A
:10380000F5000357C501FD779387F77FF98F231ED6
:10381000F50083D705012318F50082808357050042
:1038200091C593E707042310F5008280C207C18386
:1038300093F7F7FBC207C183FDB72316B50082805B
:103840000355C5008280035585006D8D3335A0007A
:103850008280835705029206558EC207C183F99B69
:10386000C207C1832310F502835785010357050260
:10387000B7360140C207C18393F7C7F0D18F420723
:10388000C207938606C04183C1836304D502B7068D
:1038900000406300D50293860640630CD500B7163E
:1038A0000040138606806306C500938606C0631B2E
:1038B000D500759BD98D93E51500231CF5002310C9
:1038C000B5028280559BFDB783570502B2062206DA
:1038D000C207C183BD9BC207C1832310F502835871
:1038E00085018567035705029387F7CFD18EB3F71C
:1038F0001701D58F13984500B7360140420742089B
:10390000C207938606C0418313580801C18363042C
:10391000D502B70600406300D50293860640630CCB
:10392000D500B7160040138606806306C50093864F
:1039300006C0631DD5001377F7FD3367E8001367F2
:103940000701231CF5002310E50282801377F7F5A9
:103950004D8FF5B78357050037370140130707C070
:10396000C207C1836304E502370700406300E50234
:1039700013070740630CE5003717004093060780E4
:103980006306D500130707C06317E50003D72500BA
:1039900093F7F7F8D98F03D7650093F7F7CFC207EE
:1039A000C183D98F2310F50083D745002316F50274
:1039B00083D705002314F502B7370140938707C06A
:1039C0006316F50083C785002318F5028547231A7F
:1039D000F50082808357050203D6050003D8250031
:1039E000C207C183F99BC207C1832310F502835725
:1039F00005028356450003578501C207C18342076C
:103A000041831377C7F8518F03D68500F59BC20613
:103A100033660601D18F37360140130606C0C182D6
:103A20006313C50203D6A500DD9B03D8E500D18F43
:103A300003D64500ED9B93F6F6CFD18F03D6C50094
:103A400033660601D18E2312D500231CE50003D76F
:103A50006500231AE5022310F502828083570502D0
:103A600065771307F7CFC207C183BD9BC207C18328
:103A70002310F502835705028356450003D88500BD
:103A8000C2071396060183568501C18393F7F7FD9C
:103A9000758F83D605004182A206558F83D62500F7
:103AA00042074183B3E606019206D58FB73601403F
:103AB000C207938606C0C1836311D50483D6A500CF
:103AC00093F7F7F703D8C5009206D58F83D6450044
:103AD000C207C183920693F7F7FBD58FFD769386D5
:103AE000F63FF18E03D6E500C207C18333660601B7
:103AF0000A06D18E1396060141822312C500231CAB
:103B0000E50003D76500231CE5022310F50282803F
:103B10008357050203D88500C207C18393F7F7EFE7
:103B2000C207C1832310F50283570502835645005F
:103B30000357C501C20713960601420783D6050045
:103B400041831377C7F8558F83D62500C18393F738
:103B5000F7DFB3E60601A206D58FB7360140C207EC
:103B6000938606C04182C1836312D504FD76938695
:103B7000F67FF58F83D6A50003D8C500A206D58FA2
:103B800083D64500C207C183A20693F7F7BFD58F3E
:103B9000F576FD16F18E03D6E500C207C1833366C4
:103BA00006011206D18E1396060141822312C5002A
:103BB000231EE50003D76500231EE5022310F5024E
:103BC000828003570502FD77FD17F98F2310F50258
:103BD00003580502835645008357C501657703D610
:103BE00005001307F7CF7D8FF9772206FD17518F58
:103BF000B3F7070103D6250003D88500C2064207A4
:103C0000336606013206D18F37360140C2071306EC
:103C100006C0C1824183C183631BC50071767D16D6
:103C2000F18E03D6C5001A06D18EC206C1822312B8
:103C3000D500231EE50003D765002310E5042310FB
:103C4000F50282808357050091C593E71700231082
:103C5000F5008280C207C183F99BC207C183C5BF3B
:103C60008357450491C52167D98F2312F5048280BB
:103C7000C607C583DDBF8357C50009C6DD8D231682
:103C8000B500828093C5F5FFFD8DD5BF8357050034
:103C900091C593E707082310F5008280C207C1830E
:103CA00093F7F7F7C207C183FDB783578501C207B2
:103CB000C183DD9BDD8D231CB50082800357850108
:103CC000FD779387F77FF98FA205CD8FC207C18358
:103CD000231CF50082808357C501C207C183DD9B89
:103CE000DD8D231EB50082800357C501FD779387C4
:103CF000F77FF98FA205CD8FC207C183231EF50080
:103D000082808357050091C593E727002310F500B3
:103D10008280C207C183F59BC207C183C5BF835799
:103D2000050091C593E747002310F5008280C20784
:103D3000C183ED9BC207C183C5BF2312B502828038
:103D4000231AB502828083578501C207C183CD9BA8
:103D5000C207C183231CF50083578501DD8D231C19
:103D6000B500828003578501FD779387F73FF98F70
:103D7000231CF50083578501A205DD8DC205C18195
:103D8000231CB5008280EFC2EFF72E8483D5250077
:103D900003564400854713B91500AA8406098549CE
:103DA0006313F600894983570400835684002685EF
:103DB00095E7EFF01FAA835564002685EFF0BFF862
:103DC00083568400CA8526854E86EFF0FFAF835563
:103DD00064002685EFF01FF96FC00FF6EFF0DFAE3D
:103DE000835564002685EFF0FFF783568400CA856B
:103DF00026854E86EFF0FFA5835564002685EFF0FB
:103E00009FF4D9BF03554503828003554502828044
:103E100093C5F5FFC205C1812318B5008280835781
:103E200005010355C500ED8F4205418189C76D8DA0
:103E30003335A00082800145828093C5F5FFC2051D
:103E4000C1812318B5008280EFC26FED8356050152
:103E5000F577FD17F58F83D6650003D7C500797117
:103E6000D58F2318F5008356C500FD779387379FBC
:103E7000F58F83D645002A842EC6D58F83D685003C
:103E8000D58F83D6A500D58F2316F500835745011E
:103E9000C207C18393F7F7CFD98F231AF5006808BB
:103EA000EFF03F80B747014093870780B245631D1D
:103EB000F404A2578356C4006547B387E702C206DD
:103EC000C186984163D4060406070356C40042061F
:103ED000B3D7E702130740064186B3D6E702B3F72C
:103EE000E7029206635606028E0793872703B3D72D
:103EF000E70213F77700B367D700C207C183231423
:103F0000F40045616FC0EFE392576DB70A0775BFC4
:103F1000920793872703B3D7E702BD8BD58FF1BFF5
:103F200081C98357C5000967D98F2316F5008280A0
:103F30000357C500F977FD17F98FC5BF93F5F51F36
:103F40002312B5008280035545001375F51F82804A
:103F5000035505006D8D3335A000828093C5F5FFB4
:103F6000C205C1812310B500828013F7F50F854685
:103F70001583B397B6006313D7020357C500F98FB3
:103F80000357050001454207418381CB0545A181C7
:103F9000B315B5006D8F3335E00082808946631517
:103FA000D70003570501E1BF03574501C9BFEFC261
:103FB0000FD72A841165011185451105EFF0AFFC7B
:103FC000930700202312F100371501408D473EC4AE
:103FD0004C00E147130505803EC6EFF02FAB22C829
:103FE00037440140B70708000C08130504803ECC95
:103FF00002CA231E0100EFF03FE58545130504804A
:10400000EFF01FF205616FC0CFD3EFC2AFCFB7445F
:104010000140AE89328901449384048063452401C0
:104020004A856FC06FD1930500042685EFF05FF2DB
:104030007DD9B38789008385070026850504C205DD
:10404000C181EFF0BFEFD9BF138701811C43B736A1
:104050000020938686403E95636BD500B7560020BE
:104060009386068063E5A60008C33E858280FD57DF
:10407000EDBFEFC2CFC7357181450545EFF0CFEEFB
:1040800081450945EFF04FEE81451145EFF0CFED49
:10409000814513050004EFF02FED81450565EFF034
:1040A000AFEC81450545EFF00FEE85451145EFF08A
:1040B0008FED85452145EFF00FED85454145EFF04A
:1040C0008FEC814513050020EFF0EFEB81451305E0
:1040D0000040EFF04FEB056A13050A808545EFF0CD
:1040E0008FEA85450565EFF00FEA81450965EFF038
:1040F0008FE981451165EFF00FE985450545EFF042
:104100006FEA81450945EFF0EFE985451145EFF08C
:104110006FE981452145EFF0EFE813050A808145FD
:10412000EFF04FE881451165EFF0CFE781453705A6
:104130000200EFF02FE7814537050400EFF08FE62E
:10414000854537050800EFF0EFE58145370520008C
:10415000EFF04FE5854537054000EFF0AFE48145CE
:1041600037058000EFF00FE4814537050002EFF0DE
:104170006FE3814537050008EFF0CFE28145370551
:104180000010EFF02FE2B5653146938505ADC810FC
:1041900037140140EF70E05D930D8004CC101305DF
:1041A0000480EED6EFF08F8EC149894BCC101305F9
:1041B0000480CED623127107EFF04F8D9147CC10BB
:1041C000130504802312F106CED6EFF02F8C214385
:1041D000CC1013050480231261061ACECED6EFF060
:1041E000EF8ACC10130504802312310782D6EFF03A
:1041F000EF89930800026149CC1013050480231253
:10420000110746CCCAD6EFF06F881308000491441A
:10421000CC10130504802312010742CAA6D6EFF082
:10422000EF8613060008CC10130504802312C10684
:1042300032C8CAD6EFF08F8593060010CC10130554
:1042400004802312D10636C6A6D6EFF02F841307BA
:104250000020CC10130504802312E1063AC4CAD60C
:10426000EFF0CF8293070040CC1013050480231297
:10427000F1063EC2CAD6056BEFF04F81130B0B80DF
:10428000CC1013050480CED623126107EFF00F8007
:1042900093058002AED613050480CC10231241078B
:1042A000EFE0DFFE096DCC1013050480A6D62312C3
:1042B000A107EFE0BFFD916CCC1013050480A6D6DA
:1042C00023129107EFE09FFCE17ACC1013050480E4
:1042D000CED623125107EFE07FFB054CCC1013051F
:1042E00004C0CAD623128107EFE05FFACC10130591
:1042F00004C0A6D623127107EFE05FF9CC101305B6
:1043000004C0CAD623129106EFE05FF87243CC10C6
:10431000130504C023126106A6D6EFE03FF7CC10C8
:10432000130504C0CAD623123107EFE03FF6E24876
:10433000CC10130504C023121107A6D6EFE01FF519
:104340005248CC10130504C023120107CAD6EFE06F
:10435000FFF34246CC10130504C02312C106CAD68F
:10436000EFE0DFF2B246CC10130504C02312D106F1
:10437000CAD6EFE0BFF12247CC10130504C02312C8
:10438000E106CAD6EFE09FF092477149CC101305C1
:1043900004C02312F106CAD6EFE05FEFCC1013057C
:1043A00004C0CAD623126107EFE05FEECC101305FC
:1043B00004C0EED623124107EFE05FEDCC101305E9
:1043C00004C0A6D62312A107EFE05FECCC101305C2
:1043D00004C0A6D623129107EFE05FEBCC101305C3
:1043E00004C0A6D623125107EFE05FEACC103715C0
:1043F0000140A6D62312A107EFE05FE9CC103715E4
:104400000140CED623129107EFE05FE8CC103715BC
:104410000140CED623125107B7340020EFE01FE74A
:104420009384043893074010416ADCC493072A0040
:104430009CC837390020B7073800130949369387DD
:104440000720C0C0116BDCC823228900B707050014
:104450001384A40049469CCCB739014023A46401CD
:10446000A2851305A90023A03401232039012314B8
:104470005901EF700030A28537350140EFF06FB47D
:1044800083D58400C84037640040B7240002EFE0C1
:10449000DFF1835589000325490093840471130AD1
:1044A0000A07EFE09FF0854537350140EFF00FB781
:1044B000B7270600938707A8BED8B707FFBFBEDAA5
:1044C000B70700049387F7028C1813050480BEDC3D
:1044D000231E6107EFE07FF0130504808545EFF0B0
:1044E0000F8137140040B70720009387F7084C1856
:1044F000130504803EDA26DC231E0102EFF08FC58F
:104500000C0102C51305048052C12314710902C3B2
:1045100002C7EFF02FCC0C0113050480EFF00FD48D
:104520000C0113050480EFF0AFDE0C0113050480CD
:10453000EFF02FE9130504808545EFF06FF21305C6
:1045400004808145EFF06FF6130504808145EFF09C
:10455000EFF6130504808145EFF0EFF713050480B3
:104560008145EFF06FF8130504808545EFF00FF2F9
:10457000130504808545EFF0EFECB7071000938733
:104580003702BEC0B7770002938707538C00370508
:104590000040BEC223140104EFF0CFBB85453705B0
:1045A0000040EFF0AFEE854537050040EFF02FF704
:1045B000854537050040EFF0CFF493073002EC005B
:1045C000138509C02316F104A6C823170104231A72
:1045D0000104EFF02FB8AC0882CC82CEA947138536
:1045E00009C0231DF104231E810523100106EFF0ED
:1045F0008FF99307B0122316F102681085473ED851
:1046000023170102EFE03FFE0546138509C08D45E3
:10461000EFF06FE6F167938707203754004002CF31
:104620003EC99307003002CD231EF1080C09B147A3
:10463000130504C0231DF10802CBEFF0FF80130522
:1046400004C08545EFF0DF8D01450D616FB0FFEDD2
:10465000B71702409843B706FFF8411113671700D8
:1046600098C3D84337060200758FD8C39843B7065E
:10467000F7FEFD16758F98C39843B706FCFFFD162D
:10468000758F98C3D843B70681FFFD16758FD8C3C1
:1046900037079F0098C702C402C69843C166558F6A
:1046A00098C3B716024005679C42F18F3EC6A247E9
:1046B00085073EC4B24781E7A247E397E7FEB717F5
:1046C00002409C431397E7006355070685473EC6A3
:1046D00032478547631DF704B7170240D843B70632
:1046E000C1FFFD16D8C3D843D8C3D843D8C3D843D5
:1046F000758FD8C3D843B7063D00558FD8C39843AC
:10470000B7060001558F98C3984393166700E3DD01
:1047100006FED843B7160240719BD8C3D84313672F
:104720002700D8C32147DC42B18BE39EE7FE41015D
:10473000828002C671BFB7160240DC421146B18BBF
:10474000138741816385C70021466389C702B71774
:104750007A00938707201CC3B7170240DC4391837C
:1047600093F6F700B707002093870701B69783C633
:1047700007001C43B3D7D7001CC38280DC42D4425D
:104780004166C983BD8BF18E890745466393C70097
:10479000C94781EEB746024083A60680C18A89CE0A
:1047A000B7167A009386062021A8B7160240D44295
:1047B0001396E600E35606FEB7163D009386069074
:1047C000B387D70249BF15CDEFB27FD5AA8437355D
:1047D00000201304453B1306840093054400130591
:1047E000453B652A5C40B70600801840B58F5CC029
:1047F000DCC01C44358F18C098C09CC401456FB004
:104800005FD405458280EFB29FD1AA84373500205E
:104810001304053C13068400930544001305053C6E
:10482000052458401C40B7060080358FB58F1CC04A
:1048300058C09CC01C44D8C001459CC46FB07FD0F8
:10484000EFB2FFCD37390020AA841305C93913040C
:10485000C939712983570400035724001305C93946
:10486000B307F0403307E0402311F4002310E400C5
:10487000E9291C4401459CC05C44DCC01C489CC424
:104880006FB03FCC83450500130740066364B7044F
:104890008346150085476360D70483462500636C13
:1048A000D702834635006368D702EFB25FC72A8418
:1048B0000145112B83451400054531238345240010
:1048C00009451123834534000D45F52981473E856F
:1048D0006FB03FC785473E858280EFB25FC4854594
:1048E000EFE06FFF11C10D456FB0BFC5EFB23FC321
:1048F0004111A307A10085451305F100EFE08FF8F2
:1049000011C1094541016FB0DFC3EFB25FC12A8415
:10491000EF00F01608C001456FB0BFC2EFB23FC054
:104920002A84EF00501408C001456FB09FC1EFB258
:104930001FBF2A848841EF00501608C001456FB0A0
:104940005FC0EFB2DFBD814513058006EFE0EFC920
:104950001305B006EFE0EFD00145EFE08FD0EFE0B8
:104960004FD3814513058006EFE02FC86945EFE07E
:104970004FCF1545EFE0EFCEEFE0AFD18145130506
:104980008006EFE08FC67145EFE0AFCD4145EFE027
:104990004FCDEFE00FD06FB0DFBAEFB2BFB641112D
:1049A000AA8A2E8A13058006814532C6EFE0EFC33E
:1049B0001305B003EFE0EFCAEFE0AFCD9945130563
:1049C0008006EFE04FD2EFE08FCFAA84A204EFE0A1
:1049D0000FCFC98CEFE0AFCE2A842204EFE02FCEB8
:1049E000498CC204EFE0AFCD2A89C184EFE02FCD1E
:1049F000AA892685EF60F00CB7D4000083A544C5D2
:104A000042044184EF60C02423A0AA002285EF6005
:104A1000500B83A544C5EF60A0232320AA001315E3
:104A200089003365350142054185EF60900983A512
:104A300044C5EF60E021324608C241016FB0DFAFEC
:104A4000EFB27FAB2A8BAE8A130580068145B2890F
:104A5000EFE0AFB913053004EFE0AFC0EFE06FC394
:104A6000994513058006EFE00FC8EFE04FC5AA8413
:104A7000A204EFE0CFC4C98CEFE06FC42A84220403
:104A8000EFE0EFC3498CC204EFE06FC32A89C18411
:104A9000EFE0EFC22A8A2685EF60B002EF60F022D5
:104AA000B7D4000003A684C583A6C4C542044184CC
:104AB000EF400067B70700202A8C03A5C713AE8C10
:104AC000EF60B0202A86AE866285E685EF50E0284A
:104AD000EF60702A2320AB002285EF60807EEF60BC
:104AE000D01E03A684C583A6C4C5EF406063B70784
:104AF00000202A8B03A58713AE8BEF60101D2A863A
:104B0000AE865A85DE85EF504025EF60D02623A083
:104B1000AA00131589003365450142054185EF6000
:104B2000407AEF60901A03A684C583A6C4C5EF40FF
:104B3000205FB70700202A8403A50714AE84EF6026
:104B4000D0182A86AE862285A685EF500021EF6018
:104B5000902223A0A9006FB09F9DEFB2BF9A411190
:104B6000814513058006EFE04FA81305B006EFE07E
:104B70004FAF0145EFE0EFAEEFE0AFB18145130578
:104B80008006EFE08FA66945EFE0AFAD1545EFE099
:104B90004FADEFE00FB0814513058006EFE0EFA4C5
:104BA0006D45EFE00FAC214593040000EFE06FABE3
:104BB0001304107DEFE0EFAD2689A6897D14420431
:104BC000418029E037D40000832504C64E85370A8A
:104BD0000020EF507054832504C6232EAA124A8564
:104BE000EF509053832504C6B709002023ACA912C7
:104BF0002685EF507052370900202320A914410167
:104C00006FB09F9370002C004800EFF07FE3924557
:104C10004E85EF50D019A245AA894A85EF50301928
:104C2000B2452A892685EF509018AA841305803E44
:104C3000EFE06FCF61B7EFB29F8EEFF01FF2EFF0B2
:104C40005FD06FB01F90EFB29F8D81451305800636
:104C5000EFE0AF991305A006EFE0AFA00145EFE04C
:104C60004FA0EFE00FA3814513058006EFE0EF971B
:104C700013057003EFE0EF9E0945EFE08F9EEFE034
:104C80004FA1814513058006EFE02F961305B0066E
:104C9000EFE02F9D0145EFE0CF9CEFE08F9F814536
:104CA0007945EFE08F940945EFE0AF9B0145EFE0D8
:104CB0004F9BEFE00F9E81457945EFE00F93014553
:104CC000EFE02F9A13050007EFE0AF99EFE06F9C3C
:104CD00081457945EFE06F910545EFE08F98130529
:104CE0000002EFE00F98EFE0CF9A6FB09F85EFB230
:104CF0001F83AA8481457945EFE02F8F0D45EFE0B2
:104D00004F96EFE00F9999457945EFE0CF9DEFE0A1
:104D10000F9B2A842204EFE08F9A498C2390840011
:104D2000EFE0EF992A842204EFE06F99498C2392F7
:104D30008400EFE0CF982A84EFE06F989317840007
:104D40005D8D2391A4006FB0CFFFEFB24FFD2A8499
:104D500003150500B7D40000EF50407EB7D7000020
:104D600003A687C683A6C7C6EF40307F03A604C745
:104D700083A644C7EF40C03AEF60E07F08C4031544
:104D80002400EF50A07BB7D7000003A687C783A6F7
:104D9000C7C7EF30F04503A604C783A644C7EF405A
:104DA0002038EF60407D48C403154400EF5000797F
:104DB00003A604C783A644C7EF408036EF60A07BFC
:104DC00008C86FB00FF88D4663E8A60213064006C8
:104DD00085476364B602EFB28FF409476308E500C4
:104DE0006306D50005476303E5000145EFE0AF9793
:104DF00081473E856FB0EFF485473E858280EFB2F4
:104E00000FF2B707002037070201938747141307F3
:104E1000D77098C3130720102392E700EFF0BFE18B
:104E2000EFF07FE2112901456FB0AFF1EFB22FEF44
:104E30004111136505F874002306A10037350020E1
:104E40000946B68513054536A3060100EFD01FF3CA
:104E50000345D10041016FB0CFEEEFB24FEC4111ED
:104E60001375F5072306A10037350020A306B1000E
:104E700081466C00094613054536EFD03FF04101ED
:104E80006FB02FECEFB2AFE92A84EFF03FFAAA84BB
:104E9000130514001375F50FEFF05FF92205458D2A
:104EA000420541816FB0EFE9EFB26FE72A84EFF07E
:104EB000FFF7AA84130514001375F50FEFF01FF721
:104EC0002205458D420541856FB0AFE7EFB22FE572
:104ED00013058008373400201304C43CEFF09FFA18
:104EE0002310A4001305E008EFF0DFF92313A4005A
:104EF0001305A008EFF05FFB2311A4001305C00801
:104F0000EFF09FFA2312A40013050009EFF0DFF978
:104F10002314A40013052009EFF01FF92315A400A2
:104F200013054009EFF05FF82316A400130560098C
:104F3000EFF09FF72317A40013058009EFF0DFF6C9
:104F40002318A4001305A009EFF01FF62319A400ED
:104F50001305C009EFF05FF5231AA4001305E0095B
:104F6000EFF09FF4231BA4006FB0AFDDEFB22FDB97
:104F7000AA84EFF0BFEB2A84138514001375F50F94
:104F8000EFF0DFEA2A891385240022091375F50F53
:104F90004204EFF0BFE933642401418D6FB06FDA52
:104FA000EFB2EFD72A841305A00FEFF03FFC118575
:104FB00008C06FB00FD9EFB28FD62A841305700FD7
:104FC000EFF0DFFA118508C06FB0AFD7EFB22FD581
:104FD000373700201307C73C8356070093574540D7
:104FE0000D85958FB387F7028606158D83162700EA
:104FF00003174700B1873305D502B387E7022D8534
:10500000B9873E95B707002023A6A7149547330517
:10501000F502130505082185EF60A02AB7D7000027
:1050200083A547C8EF50500F6FB0AFD1EFB22FCF6D
:10503000B707002083A5C7140577130707C02E976D
:1050400093D7F541FD17B335B700BE95B388E50298
:10505000373400201304C43C031884009356F841ED
:10506000B337E7028608BE98B386E602B387050326
:105070003306E802BE963338E80293574601131E02
:10508000C6003303E702C2961398C6008316A40035
:1050900033E8070113D6F641B387D8023306660218
:1050A0003E96B3876602B3B66602A1833696931620
:1050B0008601D58F935686403386C701B337F600F5
:1050C000C296BE96A167BE96835764003336F60239
:1050D000B386F602B29613D61640FD86B367D600A5
:1050E00063890714031E04011358FE413308680244
:1050F000B388C803C29833086E0233336E024693F6
:105100008318E40093D7F841B3851503B387E7020A
:10511000AE97B385E80233B7E8023E97460793D7C8
:10512000F500C6055D8F2E98B335B8001A972E97F7
:10513000B70510003385A5409357F54193551500E9
:10514000FE07CD8F8315C4007E05330805418E050B
:105150002E9733350501998F898F0565130555C342
:10516000B387A702B335A8023305A802BE95EF3076
:10517000A04A03176401939735019356D500DD8E3D
:1051800013D8D5409357F7413306E802B387D702C7
:10519000B2973306D7023337D702BA973308C8021B
:1051A000B387D7023307D602C297B336D6026583D8
:1051B00003164401B69793967700558FB306A70060
:1051C000E58733B7E600AE97BA971357F641330732
:1051D000A702B305B602BA953307A6023336A60274
:1051E00013553701B2951396D500518DCD8536955F
:1051F000B336D500AE97B697139787012181598DA5
:1052000003172401A1879355F7419356C7019205CF
:105210001207D58D3A95BE953337E500BA95EF6004
:10522000A016B7D7000083A507C8EF50E06E6FB097
:105230004FB113050000E5BFEFB26FAEEFF01FC92D
:1052400081451305500FEFF05FC19305700B1305F7
:10525000400FEFF09FC0375502001305059FEFD0B8
:105260009FEC6FB00FAEEFB28FAB41116800EFF063
:105270003FD33245EFF09FD541016FB08FACEFB215
:105280000FAA4111EFF03FFE6800EFF0DFD2324588
:10529000EFF0DFD941016FB0CFAAEFB24FA84111B3
:1052A0002AC6EFF0DFFDB24537D40000EF50C066EC
:1052B000EF60A021032684C88326C4C8EF007029AC
:1052C000B7D700002A86AE8603A507C983A547C9BC
:1052D000EF40B028B7D7000003A687C983A6C7C987
:1052E000EF40205CEF602029930500002A84EF50F6
:1052F000D00D6344A00013040000228541016FB06B
:105300004FA401A001A0EFB28FA159719307000033
:1053100013060003814588003EC63EC83ECA3ECC07
:1053200002CE02D002D202D402D602D802DA02DCC5
:1053300002DEEFB0CFA10808EFF02FDD3704002028
:105340006808EFF04FC82810EFF0EFCB4818EFF0E7
:105350002FCF6800EFF06FDB4808EFF02FDC0C0870
:105360002808EFF0CFDC6C0831468800EF60604021
:105370002C103146E800EF60C03F4C183146A808B9
:10538000EF60203FB247032604168C00BED2D247FE
:105390001305803EBED4EFB00FAB1545EFB0AFB0F4
:1053A00045B7EFB22F96757113060003814588103B
:1053B000EFB0EF991306000281450810EFB02F9966
:1053C0001306000281458800EFB06F98014402C8BF
:1053D00002CA02CC231E0100A305010002C6B709C0
:1053E0000020370A0020B70A002037090020B70440
:1053F000002003A609169306B1008C101305803E09
:10540000EFB00FA77DF50C108810EFD00FAAA257B0
:10541000370700806800B98FBEC8C257BEC4B257F4
:10542000BEC6EFB0EFADB2471307803E818F637207
:10543000F7089307A0FA2308F100AA4703268A1564
:105440000C0813D78700A30CF100230DE10013D73C
:105450000701E183230EF1009307C004A30EF100BE
:105460009307D0FCA30AF1009307C0FC230BF100C3
:1054700093074004A30BF10093071004230CF100E1
:10548000930700FCA309F1001305803E9307F00386
:10549000A30DE100A308010023090100230AF10084
:1054A000EFB06F9A03A54A1681451304843EEFB00E
:1054B0006FA20326C9158C001305803EEFB0AF988C
:1054C00003A5C4168145EFB0EFA025B7EFB2AF82B8
:1054D0007171130600028145080902C6EFB02F87DB
:1054E000B7370020373700209387473E1307473FE1
:1054F000D8C339472395E700238607002387070091
:10550000B7D7000083A707CAA305010002C83ED091
:105510003ED23ED43EDEBEC0BEC202CA02CC231E74
:10552000010002D602D802DA02DC82C482C682C836
:1055300082CA82D282D482D682D802C102C302C574
:1055400002C7BECCBECEBED0BEDABEDCBEDEEFF041
:105550002F90EFF04F9E0945EFE04F88EFE07FB1CD
:10556000EFF0FF89716513050520EFE05FA4B70B2D
:105570000020EFD02FBF370C00201304B004130518
:10558000803EEFB02F9303A64B159306B1000C0895
:105590000145EFB0EF8D0326CC159306B1000C0941
:1055A0000145EFB0EF8C61FD03051101EF50705123
:1055B000EA45EF5030132AD603052101EF50705011
:1055C0008A55EF503012AAC403054101EF50704FC5
:1055D000FA45EF503011AAD203053101EF50704E59
:1055E000DA45EF5030102AC10810EFD00FD26818FA
:1055F000EFD0AFD1A808EFD04FD1C818EFD0EFD07F
:10560000BA49625A4E85D285EF50D00D5649C654DC
:10561000AA8CCA85EF40B079A685EF50B00CEF5048
:10562000F044D285937AF50F4E8523065101EF4061
:105630001078AA852A8B4A85EF407077A685EF40BF
:105640001077EF50B042137AF50FCA856685A3062E
:105650004101EF503009A685EF407075EF501041C1
:105660009379F50FCA855A8523073101EF509007CA
:10567000A685EF503007EF50703F1375F50FA30765
:10568000A100637454012306810063744401A306DE
:10569000810063743401230781006374A400A307AD
:1056A00081006800EFF00F9ED9BDEFA25FE73705DC
:1056B00000201304251513052515EFF00FA215E999
:1056C000B73700209387473E03C7C70083450400D0
:1056D0001377F70F0DE313075005639CE5000547AB
:1056E0002386E700DC43B70600202398E6142380D6
:1056F000B7006FA01FE5B70600209386061503D7F5
:105700000600D0433A96050742072300B6004183BE
:105710002390E60083D6A700E39DE6FC0547238798
:10572000E700C1BFEFA23FDD01113734002093072E
:10573000443E13090101394702C802CA02CC231EA4
:105740000100A307010023A027012394E70013040D
:10575000443EB70A0020373A0020B7090020370B33
:10576000002003268B159306F100CA850145EFA0A2
:105770003FF0930B8B158347F10091C341C5EFF0C8
:10578000DFF28347E400F1DF03A64A1593054A3FA1
:105790001305803EEFA03FEB03A5C9168145EFA09E
:1057A0007FF3230604002307040055BF1C40A6977F
:1057B00003C50700EFF08F9319ED8504835784002C
:1057C000E3E6F4FE03A60B009306F100CA8501454B
:1057D000EFA01FEA4DB7EFF05FED8347E400F9DF7C
:1057E00003A64A1593054A3F1305803EEFA0BFE587
:1057F00003A5C9168145EFA0FFED2306040023078A
:1058000004006DBF81445DBFEFA27FD13706002049
:1058100013060616930500032945EFA0BFE03706DF
:1058200000201306C615930500022945EFA09FDF4F
:105830003706002013064615B9452945EFA09FDE1F
:105840003706002013068615B9452945EFA09FDDD0
:1058500037070020B7D5000037550000130787161B
:10586000914613060010938545CA13056530EFA0D5
:105870009FD837070020B7D5000037550000130721
:1058800007178D4613060010938585CB1305253A1F
:10589000EFA07FD637070020B7D5000037550000AE
:1058A00013074716894613060010938585CC130508
:1058B0004572EFA05FD437070020B7D500003755F9
:1058C00000001307C7169546130600109385C5CD33
:1058D0001305C54CEFA03FD2EFA01FD437D4000072
:1058E000130544CEEF60201FE5BF79714AD01399AC
:1058F000150022D426D256CA06D64ECE52CC5AC84D
:105900005EC613591900B70710442E84AA84AE8AC4
:105910006347F904B707F07F63CE2701630BF900F3
:10592000635B501F977700009387C73D8443C04354
:1059300011A87DD526862685A286A285EF30400B4C
:10594000AA842E84A285B2502254268502599254EC
:10595000F249624AD24A424BB24B45618280B70754
:10596000DC3F6358F91CB707203E6343F9187D5AA2
:105970002686A2862685A285EF30B0722A86AE865C
:105980002A8BAE8BEF30F071977700009387873AC0
:105990009043D4432A89AE89EF30B07097770000E6
:1059A0009387C7399043D443EF3080044A86CE862C
:1059B000EF30306F977700009387C7389043D44318
:1059C000EF3000034A86CE86EF30B06D9777000047
:1059D0009387C7379043D443EF3080014A86CE8601
:1059E000EF30306C977700009387C7369043D443ED
:1059F000EF3000004A86CE86EF30B06A977700001D
:105A00009387C7359043D443EF20907E5A86DE8635
:105A1000EF303069977700009387C7349043D443C1
:105A20002A8BAE8B4A85CE85EF30B0679777000022
:105A30009387C7339043D443EF4020324A86CE86C3
:105A4000EF303066977700009387C7329043D44396
:105A5000EF40A0304A86CE86EF30B06497770000E2
:105A60009387C7319043D443EF40202F4A86CE8698
:105A7000EF303063977700009387C7309043D4436B
:105A8000EF40A02D4A86CE86EF30B0612A86AE86E2
:105A90005A85DE85EF20D0752686A286EF307060AD
:105AA000FD572A86AE86630FFA060E0A9777000026
:105AB0009387C72FD2979043D4439777000093875B
:105AC000E72C3E9AEF4060292686A286EF40E02828
:105AD0002A86AE8603250A0083254A00EF40E02788
:105AE000AA842E84E3D00AE6370400802D8C99BD69
:105AF00097770000938707229043D443EF20506F9D
:105B000097770000938707199043D443EF303043D1
:105B1000E35FA0E405BD977700009387271F8443C8
:105B2000C0430DB52685A285EF402023AA842E848C
:105B300011BD5122B707F33F2A84AE846358F9049C
:105B4000B707E63F635CF90A2A86AE86EF20506A03
:105B500097770000938707149043D443014AEF409E
:105B6000C01F977700009387671B9043D4432A890F
:105B7000AE892285A685EF20B0672A86AE864A8543
:105B8000CE85EF30E059AA842E84DDB3B787034079
:105B90006358F904177900001309C918032609008E
