:100000006F205006130000001300000013000000D2
:100010001300000013000000130000001300000094
:100020001300000013000000130000001300000084
:08003000130000007300100032
:100038000000000000000000FE3F0000004000003B
:1000480000000000FC270000000000000000000085
:10005800FE2700000028000000000000000000004B
:10006800440A000000000000000200000000000038
:1000780006280000082800000A2800000C280000B4
:100088000E28000010280000122800001428000084
:1000980016280000182800001A2800001C28000054
:1000A8001E28000020280000222800002428000024
:1000B80026280000282800002A2800002C280000F4
:1000C8002E280000302800003228000034280000C4
:1000D80036280000382800003A2800003C28000094
:1000E8003E28000040280000422800004428000064
:1000F80046280000482800004A2800004C28000034
:100108004E28000050280000522800005428000003
:1001180056280000582800005A2800005C280000D3
:100128005E2800003627000062280000000000005A
:080138000000000000000000BF
:10020000130181F806C216C41AC61EC822CA26CC1B
:100210002ACE2ED032D236D43AD63ED842DA46DC76
:100220004ADECEC0D2C2D6C4DAC6DEC8E2CAE6CC46
:10023000EACEEED0F2D2F6D4FAD6FED8F3220030CF
:1002400096DA9702002083A262FF23A02200F32502
:1002500010342EC003A1C181EF10606D1703002080
:100260000323C3FD03210300824273901234D6524C
:10027000739002309240A2423243C2435244E2445D
:10028000724582551256A2563257C2575258E258FA
:1002900072598649164AA64A364BC64B564CE64C0E
:1002A000764D865D165EA65E365FC65F13018107DA
:1002B0007300203013000000130000001300000042
:1002C00013000000130000001300000013000000E2
:1002D00013000000130000001300000013000000D2
:1002E00013000000130000001300000013000000C2
:1002F00013000000130000001300000013000000B2
:1003000083A2C181938202E073900234170100201E
:100310000321C1F2024182403243C2435244E244CB
:10032000724582551256A2563257C2575258E25859
:1003300072598649164AA64A364BC64B564CE64C6D
:10034000764D865D165EA65E365FC65FD652A1020A
:1003500073900230A24213018107828013000000D3
:100360001300000013000000130000001300000041
:100370001300000013000000130000001300000031
:100380001300000013000000130000001300000021
:100390001300000013000000130000001300000011
:1003A0001300000013000000130000001300000001
:1003B00013000000130000001300000013000000F1
:1003C00013000000130000001300000013000000E1
:1003D00013000000130000001300000013000000D1
:1003E00013000000130000001300000013000000C1
:1003F00013000000130000001300000013000000B1
:10040000F322003093F272FF130380181203B3E259
:100410006200711523205500130585FA10C12115BE
:10042000232005009302000063870200711523203A
:100430000500FD12D5BF71150CC1828000000000BF
:1004400000000000000000000000000000000000AC
:10045000000000000000000000000000000000009C
:10046000000000000000000000000000000000008C
:10047000000000000000000000000000000000007C
:10048000000000000000000000000000000000006C
:10049000000000000000000000000000000000005C
:1004A000000000000000000000000000000000004C
:1004B000000000000000000000000000000000003C
:1004C000000000000000000000000000000000002C
:1004D000000000000000000000000000000000001C
:1004E0000000000000000000000000000000397162
:1004F00001436EC619A0397141536AC866CA62CCFD
:100500005ECE19A0397101535AD056D252D44ED66C
:100510004AD826DA22DC06DE3301614082824111AC
:100520004AC026C222C406C68282B24D4101024D93
:10053000924C224CB24B4101024B924A224AB249A0
:100540004101024992442244B240410182803D432C
:100550002A876373C3029377F700BDEFADE5937607
:1005600006FF3D8ABA960CC34CC30CC74CC7410763
:10057000E36BD7FE11E28280B306C3408A0697027E
:10058000000096966780A6002307B700A306B70071
:100590002306B700A305B7002305B700A304B700DF
:1005A0002304B700A303B7002303B700A302B700D7
:1005B0002302B700A301B7002301B700A300B700CF
:1005C0002300B700828093F5F50F93968500D58DB3
:1005D00093960501D58D61B7939627009702000089
:1005E00096968682E78086FA9680C1171D8F3E9682
:1005F000E374C3F8A5B7EFF29FF241113AC68547FD
:1006000019C9854789C901CA19C736877C0081463F
:10061000EF00104D81473E85410125B7EFF23FF0D5
:10062000EF00306F014531BF11CD854789CD01CE37
:10063000EFF2FFEE32840146EF00C073814708C03D
:100640003E8501B785473E858280854795C10DC2AD
:10065000EFF2FFECB2878146135615003E85EF009E
:100660000078054781476303E50089473E85D1BD92
:100670003E85828085479DC515C6EFF25FEA3284CC
:10068000135615002285B684EF00500E05478D479E
:100690006318E5002285EF0030222380A400814703
:1006A0003E8545B53E858280EFF27FE70581EF10FC
:1006B000E021014579B5EFF29FE61306401F3306AE
:1006C000C5029307803E814501453356F602EF107F
:1006D00040670145BDB5EFF29FE4054401C989E9D2
:1006E000014789460146EF10406F0144228591BDC4
:1006F00005470144E39CE5FE01468145EF10D00625
:10070000F5B7B7070020938707239843636FA702C5
:10071000D043B386C7006316D50054413E85B296D8
:10072000D4C35041B306C500631CD700B7060020F0
:1007300083A686216306D70054431843B29654C15A
:1007400018C16303F50088C38280BA877DBFEFF2CA
:100750007FDB41112AC6EF00D064B706002083A7D3
:10076000862137060020938686211306C62132454E
:10077000A1EF370700209307072D93F5F700130724
:10078000072D81C51387F700419BB705002093858E
:10079000052323A2050098C18D65C115AE97C19BA5
:1007A00023A2070023A00700B385E7409CC21CC317
:1007B000B707002023A2B722B707002023A0B72243
:1007C000B70700804CC31CC2032A0600B377AA00F7
:1007D00085E39307F5FF3957636CF700930705012D
:1007E00013F7F70041C313F707FF410763EBE70671
:1007F000814489A022872E8461A058C15CC0113732
:100800005840B7060020938646229042B307E9403D
:1008100023A0F90063F3C7009CC2B7070020336729
:10082000EA009387872258C09843C104232004001C
:10083000050798C3EF00307393F7F400D1CB8967B5
:10084000938707807390073037A6000037A5000014
:100850001306464E9305001113058551EF70205283
:1008600001A0BA873707002003290722930907222E
:10087000E360F9F837070020032407231307072351
:1008800050406374F6000C40B5F59442E38286F65E
:100890001440044314C33307F64093060002E3F107
:1008A000E6F63305F4009376F500A1DA89679387BD
:1008B00007807390073037A6000037A500001306A5
:1008C000464E9305F00C13058551EF70404B01A087
:1008D0002685410195B14DC1EFF27FC4B7070020D5
:1008E000032745FF83A7C7212A84B376F7009DE23B
:1008F0008967938707807390073037A6000037A574
:1009000000001306464E9305401213058551EF7003
:10091000004701A0832605FF9DC289679387078052
:100920007390073037A6000037A500001306464E27
:100930009305501213058551EF70604401A093C7D1
:10094000F7FFF98F232AF5FEEF00B045B707002027
:10095000938707229443032744FF130504FF369728
:1009600098C34533B70700209387C72298430507EC
:1009700098C3EF00505FF1B68280B7E700E04157BF
:100980002387E7402386E740B7F700E023A007006E
:1009900023A20700814694C70147D8C783A50181D8
:1009A0001307401F814633D6E5023D4790CBD4CB99
:1009B00098C38280EFF2BFB6411102C6F3275030D0
:1009C0003EC6B2470D478D8B6384E70289679387E4
:1009D00007807390073037A6000037A50000130684
:1009E000C6539305600B13058551EF70403901A084
:1009F000B757002093870700BD8B9DC389679387F6
:100A000007807390073037A6000037A50000130653
:100A1000C6539305B00B13058551EF70403601A006
:100A2000A93FB7E700E0116723A0E710056723A0FF
:100A3000E710B707002023A8071EEFF07F8C0145C1
:100A4000410101B6397106DE16DC1ADA1ED82AD643
:100A50002ED432D236D03ACE3ECC42CA46C872C626
:100A600076C47AC27EC07311013489679387078088
:100A700073900730B7F700E023A20700EF001034AF
:100A800011C5B7E700E0116723A0E72089679387C6
:100A900087887390073073110134F250E252525339
:100AA000C2533255A255125682567247E2475248F7
:100AB000C248324EA24E124F824F21617300203045
:100AC00089679387078073900730B7070020938763
:100AD000071F9843050798C3828037070020130734
:100AE000071F1C438DE7EFF29FA389679387078059
:100AF0007390073037A6000037A500001306C653D1
:100B00009305301013058551EF70602701A0FD1784
:100B10001CC391E789679387878873900730828029
:100B20000965130505807315053082807310053043
:100B30008280930785007D575CC118C55CC51CC9C0
:100B40002320050082802328050082809841FD56DD
:100B500093078500631ED7001C49D843D8C10CC732
:100B60009CC5CCC31C4188C985071CC18280B6873F
:100B7000D4439042E37DC7FECDB7544118451C498C
:100B800098C654C3D4436393A600D8C3984323287C
:100B900005007D1798C388438280EFF25F9841116A
:100BA0002AC6393F3245005D0D3F1335140041011F
:100BB00049BAEFF2DF9632893041045D2A8401EEB2
:100BC0001C41014591E70844EF10000B2324040069
:100BD000850404DCBDB2631009024841EF60606F18
:100BE0005C4038400145BA9718445CC0E3E2E7FE38
:100BF0001C405CC0F1BF4845EF60A06D3C405844CC
:100C00001440B307F0403E9758C46375D7001844AA
:100C1000BA975CC489470145E31CF9FAD5D8FD149D
:100C200045BF304115C2EFF29F8F58451445AA8742
:100C3000329758C56364D700184158C52E85CC47F4
:100C4000EF6020696FF0FF8F8280EFF25F8D2A8462
:100C5000853D8344540413094402E204E18463455E
:100C60009002FD57A302F4048D3D993D8344440452
:100C700013090401E204E18463449002FD57230256
:100C8000F404A13D6FF0FF8B5C50E1DF4A85EF007B
:100C9000905F19C1EF00D07BFD14E204E184C1B77D
:100CA0001C48E9DF4A85EF00105E19C1EF00507A59
:100CB000FD14E204E184C9B7EFF27F8641111DE122
:100CC0008967938707807390073037A6000037A5A0
:100CD0000000130606579305001113058551EF70A8
:100CE000000A01A05C5D2EC62A84BDC33841B3B79B
:100CF000E702B9EFF1333040585C1440232C040272
:100D0000B307E602B24554C03387F600918FB69719
:100D10005CC4FD572302F40418C4A302F40495E153
:100D20001C4899CB13050401EF00F05511C5B7E736
:100D300000E0116723A0E7204D33054541016FF026
:100D40005F8013050401F53313054402DD33EDB76D
:100D50008967938707807390073037A6000037A50F
:100D60000000130606579305501413058551EF70C4
:100D7000000101A0EFF2AFFA411121C1B3B7A50202
:100D8000AA8485EF3305B502930770FB63E7A702DA
:100D9000130585042EC6653A2A8401CDB245AA877B
:100DA00099C1930785042CC01CC044DC854522856D
:100DB0002137228541016FF0CFF88967938707803B
:100DC0007390073037A6000037A5000013060657BA
:100DD0009305601C13058551EF60707A01A0EFF256
:100DE0008FF1011132C61DE18967938707807390E7
:100DF000073037A6000037A50000130606579305F5
:100E0000E03213058551EF60907701A02A842E8986
:100E1000B6848DE53C419DC38967938707807390B5
:100E2000073037A6000037A50000130606579305C4
:100E3000F03213058551EF60907401A089476398E3
:100E4000F402585C85476304F7028967938707803B
:100E50007390073037A6000037A500001306065729
:100E60009305003313058551EF60707101A0EF0009
:100E7000F05E15E5B247014C85C789679387078007
:100E80007390073037A6000037A5000013060657F9
:100E90009305303313058551EF60706E01A0014C4E
:100EA000094BFD59930B040137EA00E0916AADA0AC
:100EB000B24781E71D31014549A863150C00280898
:100EC000EF00304B1939EF00C06DDD3E834744041D
:100ED000E207E18763943701230204048347540443
:100EE000E207E18763943701A3020404FD366C0036
:100EF0002808EF00704935E5E136185C5C5C631941
:100F0000F704E13EB2455E85EF00102C2285353BAB
:100F1000EF00700521C5054C6536185C5C5C6364A8
:100F2000F700E39764F92686CA85228559315C501B
:100F300089C713054402EF00103511C5B7E700E07B
:100F4000116723A0E720513E054505616FF02FDEB4
:100F500069362285DD39EF00100175BF23205A2143
:100F60005DBF2285DD31EF001000B1B7EFF2AFD8E1
:100F7000011132C61DE1896793870780739007309E
:100F800037A6000037A50000130606579305105535
:100F900013058551EF60B05E01A02A84AE898DE50E
:100FA0003C419DC38967938707807390073037A6BC
:100FB000000037A50000130606579305505513058A
:100FC0008551EF60D05B01A0EF00504915E5B247B5
:100FD000014985C78967938707807390073037A6D3
:100FE000000037A50000130606579305A05513050A
:100FF0008551EF60D05801A001497D5A930A4402FF
:1010000037EB00E0916B9DA0B24781E7F9340145D1
:1010100061A0631509002808EF00B0357D3C51231D
:10102000453483474404E207E18763944701230280
:10103000040483475404E207E18763944701A30251
:101040000404613C6C002808EF00103431ED228567
:10105000A93631C5B2455685EF0010172285F53601
:10106000EF00607019E123207B210549913C045C6D
:10107000C1DCCE852285FD146D3604DC1C4899CB7D
:1010800013050401EF00302011C5B7E700E0116738
:1010900023A0E7209934054505616FF04FC92285EB
:1010A0006D36EF00406CD1B722854536EF00A06B5E
:1010B0002285E5345DD9A1BFEFF26FC641111DE174
:1010C0008967938707807390073037A6000037A59C
:1010D0000000130606579305307E13058551EF6017
:1010E000104A01A02AC6EFF0BF9D3245085D2AC60E
:1010F000EFF0BF9E324541016FF0AFC415E5EFF24E
:101100000FC28967938707807390073037A6000066
:10111000856537A5000013060657938585AC130532
:101120008551EF60D04501A09DCD37360020930654
:10113000062D814701471306062D214883A8460046
:101140006398A80093173700B2978CC3C8C321A82F
:1011500091E783A8060063930800B6870507A106F8
:10116000E31E07FDFDF38280EFF26FBB41112A847D
:101170002EC632C4EFF0DF94834744047D572246E5
:10118000E207E187B2456394E70023020404834742
:1011900054047D57E207E1876394E700A302040447
:1011A00032C62EC4EFF07F931C5CA245324689E71D
:1011B00013054402EF00D0052285EFF01FA941017D
:1011C0006FF02FB8370700201307C7231C43944341
:1011D000B70700209387C72581E67D5798C3828093
:1011E000184358471843DDBFEFF2CFB1370900204D
:1011F000B70700209304892383A9C7262A849C402B
:1012000088404111A380070611052EC6EFF0FF9616
:101210007D5793078923B245631CE40295C9B7370C
:1012200000209387873D9440D84398C61047944048
:10123000D0C694401047910654C29440910614C7FA
:1012400098405CCB9843050798C341016FF0CFAE3F
:1012500098434E9440C3637B340137070020032535
:1012600007248C439105EFF07F8EC5B73707002028
:101270000325C7238C439105EFF05F8DB70700204E
:101280009387C7259843E372E4FC80C37DBFEFF2E8
:101290006FA737340020B70900201304C43E370A73
:1012A0000020938489249C40EDDFEFF07F815C4433
:1012B00003A9C70013054900EFF03F8C13074A2428
:1012C0001C43FD171CC39C40FD179CC0EFF0FF8022
:1012D00003250903EFF02FE04A85EFF0CFDFD1B708
:1012E000EFF26FA113192600AA8A4A85AE89368BC0
:1012F000BA8B3E8AEFF0AFC505C5AA841305400638
:10130000EFF0EFC42A8411C904D981479306000283
:10131000639A0900230A050225A02685EFF0AFDBBA
:101320007D55D1AA3387F900030707003306F4007F
:10133000230AE60201C78507E396D7FEA309040442
:10134000994763F477038967938707807390073021
:1013500037A6000037A500001306865A930570399A
:1013600013058551EF60B02101A0930944004E851B
:1013700023267403232A7405232C0404EFF0AFFC06
:1013800013058401EFF02FFC1D471305C9FF330738
:101390007741269500C818CC40D0230E0404A30E34
:1013A0000404230F0404A30F040423000406A30071
:1013B00004065A86D6854199EFF08F8408C06304ED
:1013C0000A0023208A00EFF0AFEFB70700209387D1
:1013D000472498433709002037350020050798C374
:1013E000130789231843370A00201309892393041C
:1013F0000531130A8A2663120710232089009843B7
:1014000085476318F70813050531EFF08FF2138550
:101410004401EFF00FF213858402EFF08FF1138592
:10142000C403EFF00FF113850405EFF08FF013857F
:101430004406EFF00FF013858407EFF08FEF373598
:101440000020130BC5391305C539EFF08FEE373582
:101450000020930A053B1305053BEFF08FED373570
:1014600000201305453CEFF0CFEC37350020130585
:10147000C53EEFF00FEC373500201305853DEFF04A
:101480004FEBB707002023AE6723B707002023A048
:101490005725B7070020938707259843050798C36A
:1014A00037070020130747255C54144363F3F60005
:1014B0001CC35147B387E702BE94DC4098471CC465
:1014C00058C498472322370123A437019C4044C8BD
:1014D00085079CC0EFF06FE083270A00054581CFA8
:1014E00083270900D8575C546377F700B7E700E01B
:1014F000116723A0E7206FF08F8383270A00D1FBB9
:1015000083270900D8575C54E3E5E7F823208900D6
:1015100049B7EFF2CF80B7070020B7A50000371515
:1015200000009387872501478146130600109385A5
:10153000C55C1305E5286D330544631E8502EF0085
:101540005065631A85028967938707807390073017
:10155000B70700207D5723AEE724B707002023A458
:10156000A726B707002023A60726EFF0AFC483A75E
:1015700041806FE01FFDFD57E31BF5FE89679387F0
:1015800007807390073037A60000856537A50000F7
:101590001306865A9385058413058551EF60207ED6
:1015A00001A0B70700209387C7249843050798C375
:1015B0008280B707002003A5C7268280B7070020D6
:1015C00083A7C72463980718EFE27FF5B7070020C9
:1015D0009387C7268043050480C339E8B7070020F6
:1015E0009387C7239843184305C789679387078064
:1015F0007390073037A60000856537A500001306F5
:10160000865A938575AC13058551EF60407701A02C
:1016100037070020130707249443104390C3B707EC
:10162000002014C3938707269843050798C3593EA3
:10163000370600209307C6259C4337370020B7059F
:1016400000201306C625130707319385852301451E
:101650006375F4029C41D146DC57B387D7023E97AD
:101660001843854763F3E7000545B707002083A7C4
:10167000072791C305456FE0DFEC370E0020B70E5A
:101680000020514F9307CE239443944281E6FD57A7
:101690001CC2C9B79C43DC47DC47D4436374D40005
:1016A00014C24DBF83A8870003A8C700D44B13837F
:1016B000470023A408012322180183A8460063944D
:1016C000680023A2060103A8060023AA07007D18CC
:1016D00023A00601945795CA03A8C70183A807024F
:1016E00083AF46002324180183A8070223A2080120
:1016F0001388870163940F0123A2160103A8060033
:1017000023A407027D1823A0060193864E2503A873
:10171000C70283A8060063F4080123A00601B306EC
:10172000E803BA9683A8460083AF880023A4170174
:1017300023A6F70183AF880023A26F0023A46800CB
:10174000D4CB9C4285079CC29C41DC57E36CF8F2E9
:1017500005450DBFB70700209387472698430145ED
:10176000050798C38280EFE2FFD9370400201304F5
:10177000C4241C40411185E78967938707807390D3
:10178000073037A60000856537A500001306865A86
:101790009385358B13058551EF60605E01A0EFF0F6
:1017A0002FB21C40FD171CC01C4089CB01452AC626
:1017B000EFF0AFB2324541016FE01FD8B70700200C
:1017C00083A74724E5D7B736002037350020814767
:1017D0009386463C370F002013050531D148370367
:1017E0000020370E0020854E59A8DC46DC47CC4F40
:1017F0009053985790C503A807022322B8000328E6
:101800004700938587016313B80050C3104323A496
:1018100007027D1610C38C47D047D84B138847006A
:1018200090C54CC24C436393050150C3104323AA97
:1018300007007D1610C313074F25D0570C4363F3E1
:10184000C50010C3330716032A974C4383AF8500A6
:101850008CC723A6F70183AF850023A20F0123A421
:1018600005010C43D8CB85050CC31307832318430C
:1018700058576366E60013070E272320D7019842C6
:101880002DF799C3EFF01F94B70700201387472661
:1018900004431384472691CC370900208549393BFE
:1018A00009C59307092723A03701FD14EDF823206C
:1018B0000400B707002083A70727E38907EEB7E7EF
:1018C00000E0116723A0E7200545D5B519E5B7E786
:1018D00000E0116723A0E7208280EFE25FC4B70732
:1018E000002083A7C72441119DC389679387078080
:1018F0007390073037A6000037A500001306865AFC
:101900009305905413058551EF60604701A02AC6E6
:10191000493932458145EFF03F8DB13511E5B7E7E3
:1019200000E0116723A0E72041016FE09FC1B707E6
:10193000002003A7C724B70700209387072701C704
:10194000054798C3828023A00700B70700201387AC
:101950004725184313864725B7370020938707315B
:101960005148B3060703B385D700884115C5C84160
:10197000A106BE964841C8C16314D5005441D4C1E4
:10198000D146B306D702B697DC43D447B707002049
:1019900023ACD72218C2828015E7EFE25FB88967CF
:1019A000938707807390073037A60000856537A5B9
:1019B00000001306865A938525C013058551EF60F4
:1019C000003C01A07D1771BFEFE27FB505E5896797
:1019D000938707807390073037A60000856537A589
:1019E00000001306865A9385C5C113058551EF6023
:1019F000003901A0B70700202E8483A58723E105C5
:101A0000EFF0CF9485452285EFF00FFE6FE07FB3B6
:101A1000EFE2FFB02A8705E5896793870780739017
:101A2000073037A60000856537A500001306865AE3
:101A3000938525C513058551EF60603401A0B70774
:101A400000209387872354432E858C4303A8860068
:101A5000D4CD8C4323A0050303A807008C4661085E
:101A600023A2050103A807009C43610823A40601E3
:101A700098D71C4385071CC311C27D55B285EFF072
:101A8000AFF66FE01FAC5C45DC4795E7EFE23FA99E
:101A90008967938707807390073037A600008565B4
:101AA00037A500001306865A938525C8130585516E
:101AB000EF60E02C01A0D04F945398579385870195
:101AC00014C6D0C250436313B60054C3144323A4B6
:101AD0000702FD1614C3370700200327C724D45775
:101AE00025EF8C47D047D84B90C5D04748434CC2D0
:101AF000938547006313B50050C3104323AA070022
:101B00007D1610C337070020130747251043637362
:101B1000D60014C351473386E60237370020130737
:101B2000073132975043084690C7C8C708464CC192
:101B30000CC6D8CB1C43014585071CC3B707002042
:101B400083A78723DC5763F8D700B7070020054732
:101B500023A8E72605458280373700201307473C36
:101B600050430846D0CF88D308464CC10CC698D7FE
:101B7000D1B7B707002083A707261CC1B7070020ED
:101B800083A7C7265CC18280EFE27F99411105E5FA
:101B90008967938707807390073037A600008565B3
:101BA00037A500001306865A9385D5CF13058551B6
:101BB000EF60E01C01A085E589679387078073903B
:101BC000073037A60000856537A500001306865A42
:101BD0009385E5CF13058551EF60601A01A02EC6ED
:101BE0002AC4EFE0FFED37070020B70700201307F6
:101BF000872383A6C7261C432245B24583C7170601
:101C000099CB1C43A38007060544EFE01FED228516
:101C100041016FE01F939C417D570144E387E7FE3C
:101C200037060020032606260328050058416307CF
:101C3000C80063E5E60023A00500F9B73386E64057
:101C4000E37BF6FE958FBA979CC12537014475BF9B
:101C5000B7070020054723A8E7268280B7070020A2
:101C600083A78726054581CBB707002003A5C72496
:101C7000133515000605828011E501458280014576
:101C80006FE03F8CEFE2BF89B707002083A787236F
:101C90002A846385A702896793870780739007303A
:101CA00037A60000856537A500001306865A938580
:101CB000F50413058551EF60800C01A0BC4F85E74A
:101CC0008967938707807390073037A60000856582
:101CD00037A500001306865A93850505130585511F
:101CE000EF60E00901A054557849FD173CCDE38829
:101CF000E6F8D1F7930445002685EFE01FE87C481D
:101D00001D471D8F18CC37070020130747251443A4
:101D10005CD463F3F6001CC351473387E702B7373F
:101D20000020938707310545BA97D843144718C454
:101D300054C41447C4C204C798435CC8050798C379
:101D400081B7EFE2CFFD411105C589679387078011
:101D50007390073037A60000856537A5000013068D
:101D6000865A9385652613058551EF60400101A0D1
:101D700037040020AE8432C6EFE09FD4930784235B
:101D80009C4313048423FC4F85E31C4032460547E3
:101D90002380E70611CA85453285EFF0EFC4B7E727
:101DA00000E0116723A0E720EFE03FD3EFE05FD131
:101DB0001C40E84F09C51C4089CC23AE07041C40D9
:101DC0002AC623800706EFE05FD1324541016FE06C
:101DD0004FF71307F5FFF8CFDDB7EFE24FF44111EE
:101DE00085C58967938707807390073037A6000001
:101DF000856537A500001306865A9385853013053F
:101E00008551EF50D07701A005E58967938707805A
:101E10007390073037A60000856537A500001306CC
:101E2000865A9385953013058551EF50507501A062
:101E30003AC636C432C22AC0EFE09FC832470245D4
:101E40001246A24619C37C4D1CC3834705060947A9
:101E50002300E506114793F7F70F6360D70429675E
:101E6000130747598A06BA9698420287784D598EC9
:101E700070CD21A0784D050778CD05476387E7042D
:101E800005452AC0EFE07FC5024541016FE06FEBD9
:101E90000947E39FE7FC0145EDB73707002003271B
:101EA000C72661DF8967938707807390073037A65D
:101EB0000000856537A500001306865A9385E53333
:101EC00013058551EF50B06B01A0144558455C498E
:101ED0001306450098C6584554C3D4436393C600BF
:101EE000D8C39843232A05007D1798C3B70700205D
:101EF000938747255855944363F3E60098C3D14729
:101F0000B306F702B737002093870731B697D4435B
:101F10008C4614C54CC58C46D0C190C694435CC950
:101F2000850694C31C5585C789679387078073907E
:101F3000073037A60000856537A500001306865ACE
:101F40009385D53413058551EF50706301A0B70711
:101F5000002083A78723DC57E3F4E7F2B7E700E02C
:101F6000116723A0E72029BFEFE26FDB411105E5F0
:101F70008967938707807390073037A600008565CF
:101F800037A500001306865A9385C5401305855171
:101F9000EF50F05E01A085C5896793870780739035
:101FA000073037A60000856537A500001306865A5E
:101FB0009385D54013058551EF50705C01A02A84AC
:101FC00032C6EFE0FFB58947034704062300F40655
:101FD0007C4C85077CCC8547639EE70A1C543246BF
:101FE00085C78967938707807390073037A60000FD
:101FF000856537A500001306865A9385354313057A
:102000008551EF50D05701A0B707002083A7C72400
:102010005854D1E70C4454445C4894C5544403A834
:102020004700CCC2930544006313B800D4C3944363
:10203000232A0400FD1694C3B70700209387472581
:10204000944363F3E60098C3D147B306F702B7376A
:10205000002093870731B697D44303A8860014C4A1
:102060002326040103A886002322B8008CC65CC87E
:102070009443850694C3B707002083A78723DC57C2
:1020800063FAE70019C285471CC2B707002005475D
:1020900023A8E726EFE09FA941016FE08FCAB73779
:1020A00000209387473CD4438C4654CC0CD003A8E3
:1020B0008600930584012322B8008CC61CD44DBF32
:1020C000EFE2EFC537040020EFE09F9F13040428E0
:1020D0001C40B1E7373500201309054013050540C2
:1020E000EFE03FA5373500209304454113054541F6
:1020F000EFE03FA4B707002023AA27270146B70730
:102100000020C145114523AC9726EFE0BFC608C0AB
:1021100019C5B7A500009385855FEFE03FFEEFE0AE
:10212000DF9B6FE00FC2EFE28FBF4CC108C9AA87E7
:102130006362B602184D158E0545637BE6009385F4
:102140004700B707002003A58727EFE03FA0014520
:102150006FE02FBF6375D6000545E3FBD5FE938581
:102160004700B707002003A54727C5B7EFE22FBBFD
:102170002A84AE8432890C4CA6864A86A69522858E
:102180005D3719E16FE0EFBB1C4C2285BE941C50FB
:102190008297D5B7EFE2AFB8B707002083A74727EC
:1021A0004111AA84DC472EC6C04713054400EFE066
:1021B000DF9C83474402324613F7470011CBA685C4
:1021C00022856D371C502285829741016FE06FB7E1
:1021D000F99B2302F402FDB7EFE26FB4370400204D
:1021E0009306442798421C4391EBB707002093873E
:1021F0008727904398C390C26FE0AFB45C47FD550A
:102200008843493FF1BFEFE20FAF29694111B70A97
:102210000020B7090020370B0020B70B002013095E
:10222000495D83A74A27984329CBDC47814C03ACFF
:102230000700EFF00FB7EFF0CFB783A7C9272A84C5
:102240009384C927130A0B28636CF50288C0638F37
:102250000C0283A78B2790431336160003250A0030
:10226000B3058C40EFE05FF0EFF0EFCF11EDB7E793
:1022700000E0116723A0E72001A8854C014C55BF61
:10228000A13F80C0EFF02FCE214C05A00146E367AF
:1022900085FDEFF04FCDA2856285ED3DF5B7924704
:1022A000B2458297824763DD070003250A00014695
:1022B0008A85EFE0BFCB35D582472245E3C107FED3
:1022C00022445C4895E3EFF0CFAE9C40AA8C637348
:1022D000F5001937824723A09401FD17E367FCFC42
:1022E0008A07CA979C43828713054400EFE0FF8862
:1022F000D9BF834744020C4C924693E71700230250
:10230000F4026686B6952285393D45D1834744025D
:1023100013F7470019CB1C4C924566862285BE9563
:10232000B1351C502285829749B7F99B2302F402EC
:10233000CDBF83474402F99B2302F402BDB7834714
:102340004402924593E717002302F4020CCC9DE16E
:102350008967938707807390073037A6000037A5F9
:102360000000130606609305903513058551EF5064
:10237000102101A0E6866686E69522856D3335B785
:102380008347440213F727005DF72285EFE0AFD4BF
:1023900029BFEFE2CF98EFF0BFD2B707002083A7A5
:1023A00007289DE38967938707807390073037A6D6
:1023B000000037A500001306066093059011130571
:1023C0008551EF50D01B01A0B7070020B7A5000032
:1023D00037250000938747281947814613060010C8
:1023E0009385456213056520EFE09FEF45DD6FE0C3
:1023F0004F95EFE22F9141112E84AA84B2853A8540
:102400003E8936C642C43AC2EF408055AA8588400C
:10241000EF305073124788C0BA853A85EF40405478
:10242000CA85EF40E053CA85EF4080530C40EF303F
:10243000707122482A8908C0C2854285EF40405207
:10244000CA85EF303070AA854A85EF404026B246F3
:1024500083A904002A893685CE85EF406079CA8534
:10246000EF400050CE85EF30F06DB7A7000088C078
:1024700003A50764CA85EF40A077AA850840EF400E
:10248000204E08C041016FE02F8BEFE2CF862A84F7
:102490004841AE84EF40B03AAE890C40832A8400B4
:1024A0002A892E85EF40C04B2A8AD6855685EF4073
:1024B000204BAA855285EF30F068EF405038EF206E
:1024C000E0102A86AE864A85CE85EF20F02BEF10ED
:1024D000505D2A8C0840AE8CEF407036AE894C407F
:1024E000832A84002A892E85EF4080472A8AD68550
:1024F0005685EF40E046AA855285EF30B064EF4044
:102500001034EF20A00C2A86AE864A85CE85EF20B7
:10251000B027EF101059B7AA000003A68A6383A65C
:10252000CA63B7A7000003AAC762B7A7000083A9C0
:102530000763AA8BB7A700002E8B6285E68503A9E7
:102540004763EF30E015EF40503A504452884A87D5
:10255000CE87AA869385C4002685613D03A68A633B
:1025600083A6CA63B7070080B3C76701BE855E85CF
:10257000EF300013EF4070371048AA865288CE879C
:102580004A879385440113858400A5356FD03FFAAF
:10259000EFD25FF7AA84B9CD370403000904054AD6
:1025A0003769004093090980B70502004E85052D63
:1025B00065FD13050980854537090300B7690040AB
:1025C000BD2B0509938A0980CA855685E52B6DDDEB
:1025D00093951400528693F5E50F13850980B7642F
:1025E0000040652393840480A2852685E12B6DDD60
:1025F0006FD09FF43704070013042408014A4DB735
:10260000EFD25FF037040010B76400402A8913044A
:102610000408138A04808549A2855285C923E31DD5
:1026200035FFCA8513850480892B6FD0FFF0EFD268
:102630007FED37040010B764004013040408938949
:1026400004800549A2854E85592BE31D25FF85454C
:102650001385048021236FD03FEEB70600209386B8
:10266000C62883C7060037070020130787293E972F
:1026700019468507B3E7C702034507002380F60024
:102680008280EFD23FE8854537090010B7640040EB
:10269000B7090020F53D014413090904938404801F
:1026A00093898929954A194ACA8526850D2B11C90E
:1026B0002685F921B307340105042380A70013748C
:1026C000F40F631854018565938505802685C1291B
:1026D000E1BFE31B44FD37040010B764004013045E
:1026E0000404938904800549A2854E85CD29E31D04
:1026F00025FF138504808545952119456FD0DFE3BB
:10270000EFD2FFE18D47054463E4A702930740063B
:10271000054463EFB700014401ED9547B385F50229
:1027200037150040130505809385451FEF00F02104
:1027300022856FD01FE1EFD29FDE37550040930511
:102740005052130505C0EF00F03711C5B707002040
:1027500083A7872882976FD0DFDE15CDEFD23FDCCD
:1027600037590040AA842E84130909C001E40145A9
:102770006FD03FDD83C504004A85EF00B03293057A
:1027800000084A85EF00503309C57D14420441809A
:10279000F1BF8504EDB70545828029CDEFD23FD842
:1027A000B75400402A892E84138504C0014693053E
:1027B0005052EF00D02B938404C009EC37550040F1
:1027C000054693055052130505C0EF00502A0145F8
:1027D0006FD03FD7930500022685EF00F02D7DD9FD
:1027E00026857D14EF00B02C42042300A90041800F
:1027F0000509E1B70545828001A001A001A001A063
:1028000001A001A001A001A001A001A001A001A0C0
:1028100001A001A001A001A001A001A001A001A0B0
:1028200001A001A001A001A001A001A001A001A0A0
:1028300001A001A001A001A001A001A001A001A090
:1028400001A001A001A001A001A001A001A001A080
:1028500001A001A001A001A001A001A001A001A070
:1028600001A001A097E1FF1F9381C118172100204B
:1028700013014179178500001305854697D5FF1F81
:10288000938545781386818263FAC500832205000B
:1028900023A0550011059105E3EAC5FE17E5FF1FCA
:1028A0001305C59797150020938585BD6377B500FF
:1028B000232005001105E36DB5FEFD42739002BCB7
:1028C000894273904280B72200009382028073A0F5
:1028D000023097D2FFFF9382627693E232007390C8
:1028E0005230EF10A002972200009382428E739024
:1028F0001234730020309C4513F7070113F8F700DA
:1029000001C7D8413368E80037270240145B370716
:10291000000F758F55EF370700208546A306D7288F
:10292000371701406317E50003D70500358323906F
:10293000E50083D5050013F7F50F39C3184181462B
:10294000854E3D4F930F800293028004214E3396B3
:10295000DE00B3F8C5006311160393982600331305
:102960001F011343F3FF3377E300B318180133E774
:10297000E8006399F70750C98506E39AC6FD18C1B8
:102980001307F00F6375B70454412146854E3D4F40
:10299000930F800293028004414EB398CE0033F728
:1029A00015016392E8021317260001173313EF0095
:1029B0001343F3FFB376D3003317E800D98E639740
:1029C000F703232A15010506E319C6FD54C18280C9
:1029D00037170140E31FE5F4370700200347D728E6
:1029E00029DB99B7E39A57F810C979B7E39D57FCEB
:1029F00023281501C9BFB71701406318F500B707B1
:102A0000002083C7D72891C3B5810CC98280EFD23B
:102A10001FB179712A848354450068082EC6F52AAF
:102A2000925737470F001307072433D7E702C20432
:102A3000C18093F404FCC204C180B24561651305F2
:102A4000056A131607014182D18C23129400835624
:102A50000400C206C182F99AC206C1822310D400C2
:102A600094416364D5068606B3D7D702914613977F
:102A700007014183BA876373D70091470506420671
:102A8000C2074182C1832310C402231EF40083576E
:102A9000040003D7450083D6A50093E71700231051
:102AA000F40083570400558FC207C18393F757BFC3
:102AB000D98F2310F40003D7850083D7C500D98FA1
:102AC0002314F40045616FD0DFA703D5650031669C
:102AD0007D16631EC5020D46B386C602B3D7D70264
:102AE000C207C1839396470199E293E71700A16655
:102AF000D58F9306C0123307D7029306803E334723
:102B0000D7020507420741832310E402BDBF654693
:102B1000B386C602B3D7D7029166C207C183D58FE9
:102B2000D1B78357050091C593E717002310F5002F
:102B30008280C207C183F99BC207C183C5BF835787
:102B4000050091C593E707102310F5008280C207A6
:102B5000C18393F7F7EFC207C183FDB78357050021
:102B600091C593E707202310F5008280C207C18337
:102B700093F7F7DFC207C183FDB72318B500828042
:102B8000035505011375F50F828093F7E50F19C200
:102B900093E71500C207C1832318F500828003570D
:102BA00005009385058091E9856793870780D98F14
:102BB000C207C1832310F5008280FD779387F77FDA
:102BC000F98FCDBF835745010355850142055D8DC2
:102BD0006D8D220521810D8D1335150082804111E7
:102BE00002C402C693D7C5012AC63EC4A247A205A5
:102BF000A18199CBB247D1073EC6B2478843410174
:102C00006D8D3335A0008280B247C181E107EDB7F9
:102C1000B707002023A8A7288280371702405C430B
:102C20009146B18B6385D700A1466386D706B71757
:102C30007A00938707201CC1371602405C42370791
:102C40000020130707009183BD8BBA9783C6070046
:102C50001C41B3D7D7005CC15442A1829D8ABA9669
:102C600083C60600B3D6D70014C55442AD829D8AF0
:102C7000369703470700B3D7E7005CC5584239834E
:102C80009376370013878180369703470700B3D7C1
:102C9000E7021CC982805C435843C166C983BD8B6F
:102CA000758F8907C5466393D700C94701EF37473A
:102CB000024003270780418B09CF37177A0013079B
:102CC000072021A83717024058439316E700E3D6A0
:102CD00006FE37173D0013070790B387E702A1BF31
:102CE00099C5371702405C4B5D8D48CB8280B71782
:102CF0000240D84B1345F5FF798DC8CB828099C52A
:102D0000371702401C4F5D8D08CF8280B7170240F5
:102D1000984F1345F5FF798D88CF828099C5371775
:102D200002405C4F5D8D48CF8280B7170240D84F7C
:102D30001345F5FF798DC8CF8280035705008D6755
:102D40009387070483D625007D8F83D70500D58F11
:102D500083D64500D58F83D66500D58F83D6850071
:102D6000D58F83D6A500D58F83D6C500D58F83D6C2
:102D7000E500D58FD98F2310F5000357C501FD77E6
:102D80009387F77FF98F231EF50083D7050123185A
:102D9000F50082808357050091C593E7070423104F
:102DA000F5008280C207C18393F7F7FBC207C18396
:102DB000FDB78357050037370140130707C0C20727
:102DC000C1836304E502370700406300E50213078F
:102DD0000740630CE5003717004093060780630641
:102DE000D500130707C06317E50003D7250093F745
:102DF000F7F8D98F03D7650093F7F7CFC207C183E0
:102E0000D98F2310F50083D745002316F50283D709
:102E100005002314F502B7370140938707C06316F6
:102E2000F50083C785002318F5028547231AF500AE
:102E300082808357050203D6050003D82500C20708
:102E4000C183F99BC207C1832310F5028357050292
:102E50008356450003578501C207C183420741835A
:102E60001377C7F8518F03D68500F59BC2063366EA
:102E70000601D18F37360140130606C0C1826313A5
:102E8000C50203D6A500DD9B03D8E500D18F03D68C
:102E90004500ED9B93F6F6CFD18F03D6C500336680
:102EA0000601D18E2312D500231CE50003D765004F
:102EB000231AE5022310F502828083570502657705
:102EC0001307F7CFC207C183BD9BC207C18323107D
:102ED000F502835705028356450003D88500C207D3
:102EE0001396060183568501C18393F7F7FD758F0D
:102EF00083D605004182A206558F83D6250042075E
:102F00004183B3E606019206D58FB7360140C2076A
:102F1000938606C0C1836311D50483D6A50093F7B9
:102F2000F7F703D8C5009206D58F83D64500C207B0
:102F3000C183920693F7F7FBD58FFD769386F63F14
:102F4000F18E03D6E500C207C183336606010A0687
:102F5000D18E1396060141822312C500231CE50081
:102F600003D76500231CE5022310F50282808357F6
:102F7000050203D88500C207C18393F7F7EFC207A4
:102F8000C1832310F502835705028356450003577A
:102F9000C501C20713960601420783D60500418387
:102FA0001377C7F8558F83D62500C18393F7F7DFD2
:102FB000B3E60601A206D58FB7360140C207938655
:102FC00006C04182C1836312D504FD769386F67FE5
:102FD000F58F83D6A50003D8C500A206D58F83D66A
:102FE0004500C207C183A20693F7F7BFD58FF576D8
:102FF000FD16F18E03D6E500C207C18333660601D4
:103000001206D18E1396060141822312C500231E9B
:10301000E50003D76500231EE5022310F502828038
:1030200003570502FD77FD17F98F2310F5020358AA
:103030000502835645008357C501657703D6050011
:103040001307F7CF7D8FF9772206FD17518FB3F75E
:10305000070103D6250003D88500C2064207336660
:1030600006013206D18F37360140C207130606C06B
:10307000C1824183C183631BC50071767D16F18EC9
:1030800003D6C5001A06D18EC206C1822312D5000E
:10309000231EE50003D765002310E5042310F50285
:1030A00082808357050091C593E717002310F50030
:1030B0008280C207C183F99BC207C183C5BF835702
:1030C000450491C52167D98F2312F5048280C60774
:1030D000C583DDBF8357050091C593E7070823101B
:1030E000F5008280C207C18393F7F7F7C207C18357
:1030F000FDB783578501C207C183DD9BDD8D231C8E
:10310000B500828003578501FD779387F77FF98F9C
:10311000A205CD8FC207C183231CF500828083578F
:10312000C501C207C183DD9BDD8D231EB5008280F2
:103130000357C501FD779387F77FF98FA205CD8FE0
:10314000C207C183231EF5008280231AB502828044
:10315000EFD2EFBC83560501F577FD17F58F83D6C7
:10316000650003D7C5007971D58F2318F500835604
:10317000C500FD779387379FF58F83D645002A8456
:103180002EC6D58F83D68500D58F83D6A500D58F43
:103190002316F50083574501C207C18393F7F7CF84
:1031A000D98F231AF5006808EFF03FA7B747014011
:1031B00093870780B245631DF404A2578356C40069
:1031C0006547B387E702C206C186984163D4060407
:1031D00006070356C4004206B3D7E70213074006AA
:1031E0004186B3D6E702B3F7E702920663560602BA
:1031F0008E0793872703B3D7E70213F77700B367E8
:10320000D700C207C1832314F40045616FD06FB3A8
:1032100092576DB70A0775BF920793872703B3D7F5
:10322000E702BD8BD58FF1BF03D7250083D70500FB
:1032300083560501D98F03D74500D98F03D7650081
:10324000D98F7D771307F70F758FD98F2318F50066
:10325000828081C98357C5000967D98F2316F5007D
:1032600082800357C500F977FD17F98FC5BF13F7A3
:10327000F50F85471583B395B7006319F7009307DA
:10328000C500984301CED98D8CC3828089469307AF
:103290004501E318D7FE93070501E5B793C5F5FF90
:1032A000F98DDDB793F5F51F2312B5008280035524
:1032B00045001375F51F8280035505006D8D33356C
:1032C000A000828013F7F50F85461583B397B600EB
:1032D0006313D7020357C500F98F03570500014553
:1032E0004207418381CB0545A181B315B5006D8FA0
:1032F0003335E000828089466315D7000357050106
:10330000E1BF03574501C9BF83A7018137177A0081
:1033100013070720B3D7E7023707002093F7F70F0B
:10332000230BF7281307803EB387E70237070020F7
:10333000231AF7288280B7F700E0D8438146799BAB
:10334000D8C337070020035747293306A70290CB7D
:10335000D4CB98431367070198C3984313671702A8
:1033600098C3D843058B75DF9843799B98C38280B7
:10337000EFD24F99B7440140AE893289014493841A
:103380000480634524014A856FD00F9B9305000498
:1033900026851D3765DDB38789008385070026856F
:1033A0000504C205C181FD3DE9BF1387C1801C43EF
:1033B000B73600209386C6473E95636BD500B75657
:1033C00000209386068063E5A60008C33E858280C0
:1033D000FD57EDBFEFD2AF91597181450545EFF033
:1033E0003F9081450945EFF0BF8F81451145EFF0D2
:1033F0003F8F814513050004EFF09F8E81450565E1
:10340000EFF01F8E81450545EFF07F8F8545114513
:10341000EFF0FF8E85452145EFF07F8E85454145D4
:10342000EFF0FF8D814513050020EFF05F8D8145A2
:1034300013050040EFF0BF8C056A13050A80814533
:10344000EFF0FF8B85450565EFF07F8B81450965C2
:10345000EFF0FF8A81451165EFF07F8A81450545D0
:10346000EFF0DF8B81450945EFF05F8B8545114516
:10347000EFF0DF8A81452145EFF05F8A13050A806E
:103480008145EFF0BF8981451165EFF03F898145A6
:1034900037050200EFF09F88814537050400EFF003
:1034A000FF87854537050800EFF05F8781453705C1
:1034B0002000EFF0BF86854537054000EFF01F86FE
:1034C000814537058000EFF07F8581453705000293
:1034D000EFF0DF84814537050008EFF03F84814538
:1034E00037050010EFF09F83A96531469385854D20
:1034F000481837140140EF30D05D130D80044C188C
:10350000130504806ADEEFF00FBFE144094B4C184D
:103510001305048026DE231A6103EFF0CFBD914727
:103520004C1813050480231AF10226DEEFF0AFBC1D
:10353000A1484C1813050480231A110346CE26DE39
:10354000EFF06FBB41484C1813050480231A0103A8
:1035500042CC02DEEFF02FBA130600024C1813051E
:103560000480231AC10232CA26DEEFF0CFB89306D8
:10357000000411494C1813050480231AD10236C8DF
:103580004ADEEFF04FB7130700084C18130504800C
:10359000231AE1023AC626DEEFF0EFB5930A0010D7
:1035A0004C18130504804ADE231A5103EFF0AFB420
:1035B000930700204C1813050480231AF1023EC41F
:1035C00026DEEFF04FB3930D00404C181305048036
:1035D00026DE231AB1038569EFF0EFB193890980E4
:1035E0004C181305048026DE231A3103EFF0AFB028
:1035F000930580022EDE130504804C18231A410324
:10360000EFF06FAF896C4C18130504804ADE231A63
:103610009103EFF04FAE116C4C18130504804ADE95
:10362000231A8103EFF02FADE17B4C1813050480C2
:1036300026DE231A7103EFF00FAC8545231AB10281
:10364000130504C04C1826DEEFF0EFAA4C18130542
:1036500004C04ADE231A6103EFF0EFA94C181305EA
:1036600004C026DE231A2103EFF0EFA8F2484C181D
:10367000130504C0231A11034ADEEFF0CFA76248F6
:103680004C18130504C0231A010326DEEFF0AFA681
:1036900052464C18130504C0231AC1024ADEEFF04B
:1036A0008FA5C2464C18130504C0231AD10226DE8A
:1036B000EFF06FA432474C18130504C0231AE1023F
:1036C00026DEEFF04FA34C18130504C026DE231AA4
:1036D0005103EFF04FA2A2474C18130504C0231A60
:1036E000F10226DEEFF02FA1F1444C18130504C0BF
:1036F00026DE231AB103EFF00FA04C18130504C007
:1037000026DE231A3103EFF00F9F4C18130504C077
:103710006ADE231A4103EFF00F9E4C18130504C014
:103720004ADE231A9103EFF00F9D4C18130504C0D5
:103730004ADE231A8103EFF00F9C4C18130504C0D6
:103740004ADE231A7103EFF00F9BC1444C18371562
:10375000014026DE231A9103EFF0EF994C1837153C
:10376000014026DE231A8103EFF0EF984C1837153D
:10377000014026DE231A7103B7340020EFF0AF9723
:1037800093848442B73701409CC04169930740103D
:10379000DCC4930729009CC8B7073800938707202B
:1037A000C0C0DCC81164B70705009CCC80C49385F9
:1037B000A40037350140EFF04FD88545373501403B
:1037C000EFF04FDD83D58400C84013090907EFF0FF
:1037D0008FA2B7270600938707A8BEC0B707FFBF11
:1037E000BEC223168104B7070004376400409387E4
:1037F000F7028C0013050480BEC4EFF04FA113053F
:1038000004808545EFF0EFB1B70720009387F708F4
:10381000371400403ED4B7270002938707712C105D
:10382000130504803ED623180102EFF08FD88C08D0
:1038300082CC13050480CAC8231C610582CA82CECB
:10384000EFF02FDF8C0813050480EFF00FE78C08F2
:1038500013050480EFF0AFF18C0813050480EFF03E
:103860002FFC130504808545EFF07F851305048048
:103870008145EFF01F88130504808145EFF09F8894
:10388000130504808145EFF09F891305048081456D
:10389000EFF01F8A130504808545EFF0BF83130501
:1038A00004808545EFF0EFFFF167938707203754D9
:1038B000004082D6BED09307003082D42316F10692
:1038C0008C10B147130504C02315F10682D2EFF026
:1038D0003F880C10130504C0231031032313510338
:1038E0002311010223120102EFF01F940546130574
:1038F00004C093055052EFF09F97130504C085450F
:10390000EFF03F95014565616FC03FC2B7170240B8
:103910009843B706FFF841111367170098C3D843BF
:1039200037060200758FD8C39843B706F7FEFD1619
:10393000758F98C39843B706FCFFFD16758F98C323
:10394000D843B70681FFFD16758FD8C337079F0090
:1039500098C702C402C69843C166558F98C3B7166C
:10396000024005679C42F18F3EC6A24785073EC4D0
:10397000B24781E7A247E397E7FEB71702409C43AF
:103980001397E7006355070685473EC632478547CC
:10399000631DF704B7170240D843B706C1FFFD16F1
:1039A000D8C3D843D8C3D843D8C3D843758FD8C356
:1039B000D843B7063D00558FD8C39843B7060001DA
:1039C000558F98C3984393166700E3DD06FED843EE
:1039D000B7160240719BD8C3D84313672700D8C3DA
:1039E0002147DC42B18BE39EE7FE4101828002C6A3
:1039F00071BFB7160240DC421146B18B13870181BB
:103A00006385C70021466389C702B7177A00938789
:103A100007201CC3B7170240DC43918393F6F700DD
:103A2000B707002093870701B69783C607001C439A
:103A3000B3D7D7001CC38280DC42D4424166C9831D
:103A4000BD8BF18E890745466393C700C94781EE58
:103A5000B746024083A60680C18A89CEB7167A008F
:103A60009386062021A8B7160240D4421396E6009A
:103A7000E35606FEB7163D0093860690B387D7023D
:103A800049BF15CDEFC2BFA9AA8437350020130462
:103A90000545130684009305440013050545192ABE
:103AA0005C40B70600801840B58F5CC0DCC01C4489
:103AB000358F18C098C09CC401456FC09FA80545AC
:103AC0008280EFC2DFA5AA84373500201304C545E4
:103AD00013068400930544001305C545BD2A5840CC
:103AE0001C40B7060080358FB58F1CC058C09CC0E5
:103AF0001C44D8C001459CC46FC0BFA4EFC23FA204
:103B00002A84373500209304454413054544E52EA7
:103B1000D840B70700800145B98F9CC01CC09C44A9
:103B200058C01CC46FC0FFA1EFC27F9F8347C50070
:103B30002A8481CB8355A5004841EFE01FC62306A8
:103B400004008347D40081CB835584000840EFE014
:103B5000DFC0A306040001456FC0BF9EEFC23F9CBB
:103B6000814513058006EFE0BFA21305B006EFE024
:103B70003FA90145EFE0DFA8EFE07FAB81451305EA
:103B80008006EFE0FFA06945EFE09FA71545EFE055
:103B90003FA7EFE0DFA9814513058006EFE05F9FB7
:103BA0007145EFE0FFA54145EFE09FA5EFE03FA89D
:103BB0006FC03F99EFC21F954111AA8A2E8A130543
:103BC0008006814532C6EFE0BF9C1305B003EFE0ED
:103BD0003FA3EFE0DFA5994513058006EFE07FAA3C
:103BE000EFE0BFA7AA84A204EFE03FA7C98CEFE0F3
:103BF000DFA62A842204EFE05FA6498CC204EFE02E
:103C0000DFA52A89C184EFE05FA5AA892685EF3068
:103C1000A036B7A4000083A5446442044184EF2089
:103C2000305423A0AA002285EF30003583A54464D8
:103C3000EF2010532320AA001315890033653501A6
:103C400042054185EF30403383A54464EF20505155
:103C5000324608C241016FC03F8EEFC2DF892A8B16
:103C6000AE8A130580068145B289EFE07F92130585
:103C70003004EFE0FF98EFE09F9B99451305800625
:103C8000EFE03FA0EFE07F9DAA84A204EFE0FF9C5D
:103C9000C98CEFE09F9C2A842204EFE01F9C498C92
:103CA000C204EFE09F9B2A89C184EFE01F9B2A8A10
:103CB0002685EF30602CEF308038B7A4000003A6D3
:103CC000846483A6C46442044184EF10E02BB707E8
:103CD00000202A8C03A5472AAE8CEF3040362A8676
:103CE000AE866285E685EF103067EF300040232016
:103CF000AB002285EF304028EF30603403A68464A7
:103D000083A6C464EF104028B70700202A8B03A5C0
:103D1000072AAE8BEF30A0322A86AE865A85DE8522
:103D2000EF109063EF30603C23A0AA0013158900C8
:103D30003365450142054185EF300024EF302030E6
:103D400003A6846483A6C464EF100024B707002090
:103D50002A8403A5872AAE84EF30602E2A86AE8699
:103D60002285A685EF10505FEF30203823A0A900F0
:103D70006FC0EFFBEFC20FF94111814513058006BB
:103D8000EFE01F811305B006EFE09F870145EFE0EC
:103D90003F87EFE0DF89814513058006EFE04FFFA5
:103DA0006945EFE0FF851545EFE09F85EFE03F882F
:103DB000814513058006EFE0AFFD6D45EFE05F84C0
:103DC000214593040000EFE0BF831304107DEFE072
:103DD0001F862689A6897D144204418029E037A4E4
:103DE0000000832504654E85370A0020EF20300C43
:103DF000832504652322AA2A4A85EF20500B8325B8
:103E00000465B709002023A0A92A2685EF20300ADF
:103E1000370900202324A92A41016FC0EFF1700067
:103E20002C004800EFF07FE392454E85EF20805153
:103E3000A245AA894A85EF20E050B2452A89268505
:103E4000EF204050AA840545EFF0EFCE69B7EFC2EE
:103E50000FEDEFF03FF2EFF07FD06FC08FEEEFC2CB
:103E60000FEC814513058006EFE08FF21305A006E5
:103E7000EFE00FF90145EFE0AFF8EFE04FFB8145D0
:103E800013058006EFE0CFF013057003EFE04FF766
:103E90000945EFE0EFF6EFE08FF981451305800665
:103EA000EFE00FEF1305B006EFE08FF50145EFE00F
:103EB0002FF5EFE0CFF781457945EFE06FED014554
:103EC000EFE00FF413054007EFE08FF3EFE02FF67C
:103ED00081457945EFE0CFEB0545EFE06FF2130543
:103EE0000002EFE0EFF1EFE08FF481457945EFE07C
:103EF0002FEA0945EFE0CFF00145EFE06FF0EFE08A
:103F00000FF36FC00FE4EFC28FE12A849945794522
:103F1000EFE02FF7EFE06FF4AA84A204EFE0EFF3F5
:103F2000458DEF20003BB7A4000003A6846583A65F
:103F3000C465EF106005EF30401B08C0EFE0EFF103
:103F40002A892209EFE06FF13365A900EF2060387C
:103F500003A6846583A6C465EF100003EF30E01864
:103F600048C0EFE08FEF2A892209EFE00FEF3365B9
:103F7000A900EF20003603A6846583A6C465EF1070
:103F8000A000EF30801608C46FC0AFDBEFC22FD99E
:103F900081450145EFE0CFF681450545EFE04FF65D
:103FA00081450945EFE0CFF581450D45EFE04FF53F
:103FB000056513058538EFF00FB89305200301451B
:103FC000EFE00FF4930520030545EFE06FF3930551
:103FD00020030945EFE0CFF2930520030D45EFE004
:103FE0002FF201456FC0EFD5EFC26FD3EFF03FE680
:103FF000EFF0FFE6EFF09FF901456FC08FD401A00D
:1040000001A0EFC2CFD15D71130640028145681057
:1040100002C402C602C802CA02CC02CE02D002D238
:1040200002D437040020EFC08FD22800EFF07FA524
:104030004808EFF01FA90810EFF05FAC2C003146E4
:104040006810EF3000294C0831462818EF306028FE
:104050000C103146C800EF30C0270326842B6C10AB
:104060001305803EEFC06FDE1545EFC0EFE375BF6F
:10407000EFC24FC95D711306400281456810EFC061
:104080000FCD614681454808EFC06FCCB70A0020CC
:1040900002C202C402C623180100A3010100130AD0
:1040A000A0F9930990F9130910FBB7040020370415
:1040B000002003A68A2B930631006C101305803E66
:1040C000EFC04FDB7DF54C086810EFE00FBC130725
:1040D000C00493071004A308E10003A6042B1307F0
:1040E000D0FC2308F100A304E1002306F10013072C
:1040F000C0FC930700FC2305E100A303F1001307B4
:1041000040049307F0034C001305803EA3064101D1
:1041100023073101A3072101A305E100A302010048
:10412000230301002304F100EFC02FD20325C42B89
:104130008145EFC04FDAB5BFEFC2CFBC79713734DC
:104140000020930784461808D8C337070E000410D0
:10415000390702C802CA02CC231E010002D002D2D3
:1041600002D423160102A307010084C398C7930950
:10417000844637090020054A1305803EEFC0AFD3BF
:104180000326092B9306F100A6850145EFC08FCECB
:10419000930A092B8347F10091C309C983C7C9005A
:1041A000E1DF13058446EFF03F98F9B71305844625
:1041B000A3864901EFF05F9703A60A009306F1007A
:1041C000A6850145EFC00FCBF1B7EFC24FB5EFF0B9
:1041D000EFF3EFF01F820945EFE09FA3EFF0CF92DE
:1041E000EFF04F9FEFF05FE0370600201306862BBD
:1041F000930540022945EFC02FC337060020130660
:10420000462BE1452945EFC02FC237060020130693
:10421000C62AB9452945EFC02FC13706002013062D
:10422000062BB9452945EFC02FC037070020B7A599
:104230000000374500001307072C914613060010B5
:104240009385056613052500EFC0EFBA37070020F8
:10425000B7A50000374500001307472C8D4613060D
:1042600000109385456713050507EFC0CFB83707E2
:104270000020B7A50000374500001307C72B89466B
:10428000130600109385456813058513EFC0AFB67C
:10429000EFC0CFB837A4000013058469EF30304079
:1042A000E5BF79714AD01399150022D426D256CA97
:1042B00006D64ECE52CC5AC85EC613591900B7075F
:1042C00010442E84AA84AE8A6346F904B707F07FAF
:1042D00063CE2701630BF9006353501F97670000FB
:1042E0009387473D8443C04309A87DD5268626850C
:1042F000A286A2859523AA842E84A285B250225438
:10430000268502599254F249624AD24A424BB24B34
:1043100045618280B707DC3F6351F91CB707203E37
:10432000634DF9167D5A2686A2862685A285EF1052
:1043300020372A86AE862A8BAE8BEF1060369767C1
:1043400000009387A73A9043D4432A89AE89EF109F
:104350002035976700009387E7399043D443ED29D0
:104360004A86CE86EF10C0339767000093870739DF
:104370009043D443D5214A86CE86EF1060329767AA
:104380000000938727389043D443F9214A86CE868C
:10439000EF10003197670000938747379043D4436D
:1043A00065294A86CE86EF10A02F97670000938775
:1043B00067369043D4434D215A86DE86EF10402E57
:1043C00097670000938787359043D4432A8BAE8B41
:1043D0004A85CE85EF10C02C9767000093878734FD
:1043E0009043D443EF1040774A86CE86EF10402B9F
:1043F00097670000938787339043D443EF10C075CD
:104400004A86CE86EF10C0299767000093878732CF
:104410009043D443EF1040744A86CE86EF10402874
:1044200097670000938787319043D443EF10C072A1
:104430004A86CE86EF10C0262A86AE865A85DE854D
:1044400021292686A286EF10A025FD572A86AE8652
:10445000630EFA060E0A976700009387A730D2977B
:104460009043D443976700009387C72D3E9AEF107F
:10447000A06E2686A286EF10206E2A86AE860325C1
:104480000A0083254A00EF10206DAA842E84E3D60B
:104490000AE6370400802D8C8DB59767000093875E
:1044A00067229043D4434D2E9767000093870722DD
:1044B0009043D443EF108008E356A0E63DBD9767D4
:1044C00000009387A71F8443C04305BD2685A285AE
:1044D000EF108068AA842E840DB5F520B707F33F4E
:1044E0002A84AE846356F904B707E63F6359F90A94
:1044F0002A86AE869526976700009387271D9043EE
:10450000D443014AEF104065976700009387871CEA
:104510009043D4432A89AE892285A685352E2A86E2
:10452000AE864A85CE85EF003026AA842E84E5BB70
:10453000B78703406357F904176900001309091A84
:104540000326090083264900094AEF10E06003268C
:104550000900832649002A8BAE8B2285A685EF10A1
:10456000201497670000938767169043D443ED2487
:104570002A86AE865A85DE85EF001021AA842E8415
:104580005DB3976700009387E7158843CC43228685
:10459000A686EF00701F0D4AAA842E8469B317699E
:1045A00000001309A9120326090083264900054AC1
:1045B000EF10805A2A8BAE8B032609008326490010
:1045C0002285A6856DB78605858182805D71A2C42E
:1045D000A6C2CAC052DE56DC86C62A84AE845520E6
:1045E0009387418103A90700FD572A8AAE8A630198
:1045F000F9022286A6862285A685EF10D04909E910
:10460000014681462285A685EF00307E634C050079
:10461000B64026445285D68596440649725AE25AD7
:104620006161828085473EC4976700009387871544
:104630003EC602D422CC26CE22C826CA630709026F
:10464000014681463285B685EF0010142AD02ED25D
:104650008947631EF900EF205047930710021CC1E1
:10466000A25799EB025A925A65B702D002D228009B
:10467000D52275D1A257FDD7EF203045A2571CC1D6
:10468000D5B741113707F07F22C426C206C633785A
:10469000B7002E84AA84630DE816AE87AA86635FEE
:1046A000B00E13DE4541630F0E18370710001306D6
:1046B000F7FFF18FD98F130E1EC0139717001376D3
:1046C0001E0093D7F601BA971397160011C67D8383
:1046D0008607BA9713972600135E1E40D945814E70
:1046E0008146370620003385C6001358F701FD15B3
:1046F00063C6A700898FB306C500B29E8607C2971E
:1047000006070582EDF113050002014381483706D3
:10471000008019A86385D70E9355F70186077D158C
:10472000AE97060705820DC9B3051601E3D4F6FE60
:10473000B388C500368863CE050A958FB336B700B7
:10474000958F0D8F9355F70186077D153293C2869D
:10475000AE970607058269F9D98F9354130089CB68
:1047600093041300FD5785806314F300850E814484
:1047700013D71E403704E03F93FE1E003A94638532
:104780000E00B7070080DD8C13174E012297B24050
:1047900022442685BA8592444101828013971500F0
:1047A00005833368A7002E87E30308FED1E193D584
:1047B000B600AD172E87D606FDD913D6450151E6B2
:1047C000014611A02A8606079315B70013051600A7
:1047D000E3DA05FE930800023688B388A840BA855C
:1047E000B396A60033571801338EC740B367B7009E
:1047F0006DBD13C8F8FF1358F80136983DBFE36D3F
:10480000B7F0B388C500E3C605FE3E88814715BFF3
:104810002A86AE86EF00D0682686A2863528B2406A
:104820002244AA842E872685BA859244410182803B
:104830002A86AE86EF1040322A86AE86B127AA8439
:104840002E87B1B72E878147A5BF3688930800020F
:104850007D5649BF014582803708100001117D183F
:104860003377B80026CA3378D80093D4450113D3E0
:104870004601131E37004EC61357D5010E08935735
:10488000D60193F4F47F1373F37F06CE22CC4AC88B
:1048900093D9F50193DEF6013367C701131F350085
:1048A00033E80701931F3600338E64406380D919C3
:1048B0006356C0136304031CB70680009307F07FA0
:1048C0003368D800638FF4369307800363C0C7351D
:1048D000FD4763CDC747130500023305C541B3D774
:1048E000CF01B316A8003399AF00DD8E3339200114
:1048F000B357C80133E926011D8F33092F41B33760
:104900002F013306F7409317860063D40724370737
:1049100080007D173374E600630C042C2285EF20A1
:104920007013130785FF93070002998FB357F9009F
:104930003316E400D18F3319E9006341972A330518
:104940009740130615007D47634DC73813070002D3
:10495000118FB356C9003319E9003397E700558F1B
:10496000333920013369270133D6C7008144937757
:10497000790081CF1377F90091476308F700130797
:104980004900333927014A963A899317860063D63E
:10499000071C138514009307F07FCE856304F52070
:1049A000B70780FFFD17F18F9398D701135939008E
:1049B000A607B3E82801B1831375F57F9396C70066
:1049C0005205F2406244B182FE05C98ECD8ED244BA
:1049D0004249B2494685B68505618280631E0E0A4A
:1049E000138314001373E37F63170322B367E70194
:1049F000B368F801639D041A63870740638608441F
:104A00003309FF41B307074133362F013386C740CF
:104A10009317860063D6074C3389EF41B307E8400C
:104A200033B62F013386C740F68991B76350C00F64
:104A30006300030CB70680009307F07F3368D8004B
:104A4000638AF43A9307800363CBC713FD4763DFA0
:104A5000C73513090EFE93070002B3562801630AF7
:104A6000FE00130900043309C94133192801B3EFCB
:104A70002F013339F0013369D90031A2B367F8014E
:104A8000638A071C9307FEFF638C07389306F07F49
:104A90006309DE1A3E8E0DBDB30593406391042277
:104AA000B367E701638707329387F5FF63810744A4
:104AB0009306F07F638CD520BE859307800363CC7B
:104AC000B72AFD4763CFB73C930700028D8F331998
:104AD000F700B356BF00B317FF003369D900B337EF
:104AE000F0003357B7003369F9003308E84041ACB0
:104AF000B367F801638007349307FEFF638A0720DA
:104B00009306F07F6308DE2E3E8E2DBF631E0E14CB
:104B10009386140093F7E67F63910734B367E70148
:104B20006395042C6380073EB367F801638E0730FA
:104B30003309FF01B3070701333FE9013386E7017A
:104B40009317860063D70700B70780FFFD177D8E98
:104B5000854493777900E39F07E09317D601935834
:104B60003900B3E8F800935736001307F07F638DE0
:104B7000E404B207B18313F5F47FCE8581B53369C0
:104B8000F801333920017A99B337E9013386E70018
:104B900093178600E3DF07FA85049307F07F639697
:104BA000F418CE851305F07F8147814801BDC1EB24
:104BB0006384083A931636009317D8018D82B3E8C0
:104BC000D700F68993573800B3E7F800F9DB814541
:104BD0001305F07FB70708008148CDB3370680FF83
:104BE0007D167D8E93777900998CE39507D8B5B7BC
:104BF0004A85EF20206613078501FD47E3D5E7D2FC
:104C0000130685FFB317C900014905BB3369F801D5
:104C100033392001DDB13309FF4133060741333415
:104C20002F01330486409317840063CD0724B368B3
:104C30008900E39308CE8147814981441DBFE398F1
:104C400008F80E059317D7010D81B3E8A700935715
:104C500037009DBF0E059317D7010D81B3E8A7005C
:104C6000F2849357370011B73305934063820412DF
:104C7000B70680009307F07F558F630DF32E9307DF
:104C8000800363CBA720FD4763C3A72A93070002D5
:104C9000898F3319F700B356AF00B317FF0033699C
:104CA000D900B337F0003357A7003369F9003A98B9
:104CB0007E99B337F901338607019A84D1BDB706CF
:104CC00080009307F07F558FE319F3DE93173600CA
:104CD0008D839318D801B3E81701F68993573800EC
:104CE000E5B5130715FE9306000233D7E700630A04
:104CF000D600930600043386C6403396C700336956
:104D0000C900333920013369E9000146814491B576
:104D10003309FF01B30707013336E9013E969317C4
:104D200086008544E3D707E28944B70780FFFD1773
:104D3000F18F1357190013791900336927019398DC
:104D4000F70133E9280113D6170015B113090EFE38
:104D500093070002B3562801630AFE0013090004FA
:104D60003309C94133192801B3EF2F013339F00159
:104D70003369D90059B63369E701333920013389E2
:104D80002F41B3B72F013306F8409A84F689A5BEA8
:104D9000B367E701638207189307F5FF6384071C75
:104DA0009306F07F6304D5123E85D1BD93070002C0
:104DB000B387C741B316F8003399FF0033D6CF014C
:104DC000D18E33392001B357C80133E926013E970C
:104DD0005DBB931736008D839318D801B3E8170194
:104DE000AE8493573800F68949B3EDC33369F801AF
:104DF000E31F09DC0E059317D7010D81B368F50099
:104E000093573700D1B36381080E9316360093177A
:104E1000D8018D82B3E8D700F6899357380091BB4B
:104E20003309FF41B3070741333F2F013386E74181
:104E30008544D1BC0E059317D7010D81B368F500E9
:104E4000F2849357370015B30E059317D7010D81E0
:104E5000B3E8A7009357370029BB9307F07FE3829D
:104E6000F6D43309FF013336E901B3070701B297DE
:104E70009398F7011359190033E9280113D6170045
:104E8000B684C1B93389EF413307E84033B62F0107
:104E90003304C740F68949B43369E7013339200147
:104EA00001BD938705FE93060002B357F700638A9E
:104EB000D50093060004B385B6403317B700336FAF
:104EC000EF003339E0013369F90055BD931736001F
:104ED0008D839318D801B3E8170193573800EDB1CB
:104EE000B368C900E39708C68147814959B133893E
:104EF000EF41B307E84033B62F013386C740F68948
:104F0000854411B4931636009317D8018D82B3E807
:104F1000D70093573800B1B9931636009317D801CC
:104F20008D82B3E8D700AA84935738003DB9930720
:104F300005FE93060002B357F700630AD5009306F7
:104F400000043385A6403317A700336FEF003339D1
:104F5000E0013369F900A9BB81451305F07FB7076C
:104F60000800A9BC3309FF01B30707013336F90173
:104F70003E9675B3931636009317D8018D82B3E829
:104F8000D7009357380089B1397193D7450122DC96
:104F90004AD856D22A891394C50006DE26DA4ED6A0
:104FA00052D45AD05ECE13F5F77F318093DAF501F3
:104FB000630B05109307F07F630BF514135AD901A7
:104FC0000E0433648A00370A8000336A4401131BDD
:104FD0003900930415C00144814B13D8460113993D
:104FE000C6001378F87FB2881359C90093D9F60127
:104FF000630E08089307F07F6300F8041357D60187
:105000000E0933692701130818C0B70780003367FA
:10501000F90093183600B38404418145BD4733C875
:105020003A0163E4871A97570000938727760A04AA
:105030003E9410403E9602863367C90093841480E4
:10504000631207101364240081488945C1BF130609
:10505000F07F81470147B207F25062545206B18394
:105060007E08D18FB3E70701D2544259B259225A70
:10507000925A025BF24B3A85BE85216182800148DB
:105080001306F07FB70708000147F1B73367C9007F
:105090004DC7630809304A8532C4EF20A01B224661
:1050A000130755FFF547930685FF998F3319D900EC
:1050B000B357F60033E72701B318D60026959304BB
:1050C000353F8145A1BF336A240163030A0636C612
:1050D00032C46306042A2285EF20C0172246B24656
:1050E000AA84130755FF754A138B84FF330AEA40DD
:1050F00033146401335A4901336A8A00331B69014E
:105100001305D0C0B30495400144814BF9B5336A0F
:10511000240163180A002144014B9304F07F894B5A
:105120006DBD228A4A8B31449304F07F8D4B75B557
:105130001144014B8144854B4DB5136414008148E3
:105140008545E9BD136434004A878D45C1BD630AB6
:10515000052E8547898F9306800363DDF63201466D
:1051600081470147CDBDCE868947638DF53A8D478E
:10517000E387F5F085473688E383F5FE1385F43F32
:10518000E357A0FC93F778006396072893D638007E
:105190009317770063D80700B70700FFFD177D8FCF
:1051A000138504409307E07FE3C3A7EA1316D701F2
:1051B00093179700B1833367D6001376F57F61BDEF
:1051C000D6865287DA88DE8545B763614723630D4B
:1051D000EA20DA86FD145284014B9317870013D31B
:1051E00088013363F300935E0301B357D403131FA5
:1051F0000301135F0F0193D50601139E88003374DA
:10520000D4033307FF024204C18D63FBE5009A9586
:105210001386F7FF63EE652663FCE526F9179A957A
:10522000998D33D7D503C206C182B3F5D5033306B2
:10523000EF02C205D58D63FBC5009A959306F7FF73
:1052400063E6652463F4C52479179A95C20741641F
:105250005D8F9307F4FF3375F70093580701935F51
:105260000E01B377FE00B302F502B386C540B383E7
:10527000F80293D502013386AF021E962E9633852F
:10528000F803637376002295C168FD1893550601F3
:10529000337616014206B3F81201AA95469663E6E4
:1052A000B6126382B6123306CB408D8E333BCB00F1
:1052B000338B66411385F43F630C6317B358DB03EC
:1052C00093550601337BDB03B3061F03420B33EB1D
:1052D0006501637BDB001A9B9385F8FF636D6B2090
:1052E000637BDB20F9181A9B330BDB40B356DB03DF
:1052F00042064182337BDB03330FDF02420B33660E
:105300006601637BE6011A969385F6FF6367661E66
:105310006375E61FF9161A96C208B3E8D80093958C
:10532000080193D20801C181B38EF5023306E6412C
:10533000B385BF0293D60E01B387F202BE95AE9637
:10534000B38F5F0263F4F600C167BE9FC165FD15B0
:1053500093D70601ED8EC206B3FEBE00BE9FF69641
:10536000637FF6091A969387F8FF6369661A636884
:10537000F619630FF61BBE8893E8180011B54A852D
:10538000EF10506D13075501F145930405022246B5
:10539000B246E3DAE5D4130485FF331A8900014BE2
:1053A00085B3328532C4EF10F06A13075501F14618
:1053B000AA87224613050502E3D6E6CEE117331786
:1053C000F6008148E5B9E370CBEE729B3335CB0133
:1053D0001A95AA961305F7FF6378D30263E6B61011
:1053E0006382D5102A87C1B5E3651BDF93551B0087
:1053F0009316FA0113541A00CD8E7E0BF9BBE31DF0
:10540000F6F7E38F06D6B9BFE31ED3FCE378CBFDF6
:105410002A8751BD93F7F8009146E389D7D693B711
:10542000C8FF9386480093C717008D823E978DB3BF
:1054300081468547E34CA0FEFD58E31C05D093044C
:1054400010C085471385E441B316A70033D6F80092
:105450003395A800D18E3335A000C98E13F676009F
:105460003357F70001CE93F7F60011466388C70063
:1054700093874600B3B6D7003697BE86931787004A
:1054800063D80704054681470147F1B636877DBBDF
:10549000B28779B3FD46E3D7F6FA0556098E93062F
:1054A00000023356C7006388D7009387E443B317DD
:1054B000F700B3E8F800B3361001D18E13F676008A
:1054C000814701CE93F7F60011460147E392C7FAF0
:1054D000931797001316D701B18313D73600518F56
:1054E000014695BEE370CBF0729B3335CB011A9524
:1054F0007917AA964DBBAE88C5BBAE8631BD931752
:105500001E0033BEC70172931A96F9183E8EE3153A
:10551000F6E7E307DEC693E818009DB1BE88E30A0C
:10552000F6FF99BD36881306F07F8147014725B6FF
:10553000E367DEFCBE88E310DEFE99B113D74501B8
:10554000B7071000FD1713D846011377F77F9308AC
:10555000F07F33F3B7002A8EF58FFD81B28E13787A
:10556000F87FFD8263081703630018030DEBB3682F
:10557000A300631408005D8E29CA6385080463884C
:10558000D502054595ED8280B3E8C700E38008FEAB
:10559000795582803365A30065FD630CE8026314CE
:1055A00008005D8E79DEE39ED5FCE34CE8FC6348A1
:1055B0000701E3E867FC6303F302637FF30081E51F
:1055C0007D558280F5DE054582800145E39B08FA22
:1055D00082805D8E69DA6DBF01458280E3E3CEFB98
:1055E0000145E372DEFBE5F1E1BF13D74501B707E3
:1055F0001000FD1713D846011377F77F9308F07F4B
:1056000033FEB700AA8EF58FFD81328F1378F87FB5
:10561000FD82630E1703630D180129E3B368AE0022
:10562000631F08005D8E01EE0143638C080421A80E
:10563000B3E8C7000943639608046DD305A06384EB
:1056400008046385D50205438DCD7D531DA8B3683D
:10565000AE00094363970802630AE8026314080076
:105660005D8E75D2E391D5FEE34FE8FC63490701F7
:10567000E3EBC7FD630FFE0001436374FE00F1D549
:1056800005431A858280EDFE7D53E5BF5D8E79DA94
:10569000CDBFE36ADFFB0143E3F5EEFFF5F175B73C
:1056A00039714AD813D945014ED652D456D293995E
:1056B000C50006DE22DC26DA5AD05ECE1379F97FE9
:1056C0002A8A93D9C90093DAF501630D090E93076D
:1056D000F07F6306F9181354D5018E09B3693401BC
:1056E0003704800033E4890093143500130919C08E
:1056F0008149814B13D74601139AC6001377F77F70
:10570000B285135ACA0013DBF601630B0710930727
:10571000F07F6303F7049357D6010E0A33EA47017B
:10572000130717C0B7078000B367FA009315360058
:105730003A99814833C76A01BD463A851308190072
:1057400063E8361717560000130646088A09B2990F
:1057500083A60900B2968286B367CA001309F97F4F
:105760006399071293E9290081458948E1B7014708
:105770009307F07F3704080081443204D207318058
:105780007E075D8C598CA285F25062542685425961
:10579000D254B259225A925A025BF24B2161828052
:1057A0005A853E84AE84C68B8947638DFB0E8D4738
:1057B000E38FFBFA85472A87639EFB3881470144C4
:1057C000814465BF33E4A90061C036C632C4638C2E
:1057D000092A4E85EF1010282246B246AA871307E1
:1057E00055FF7544938487FF198CB39999003354FE
:1057F0008A0033643401B3149A0013D746011309A5
:10580000D0C0139AC6001377F77F3309F940814956
:10581000814BB285135ACA0013DBF601E31907EE78
:10582000B367CA00B1C7630F0A22528532C4EF10B2
:10583000702222462A87930655FFF547930587FF76
:10584000958F331ABA00B357F600B3E74701B31583
:10585000B6003309E9401309D9C08148E1BD33E4FA
:10586000A90001ECA14981441309F07F894B59B586
:1058700093E919008145854875BD4E84AA84B149D4
:105880001309F07F8D4BBDB5914981440149854B8A
:1058900095B593E93900D2878D4869BD894756850A
:1058A000E397FBF02A879307F07F01448144F1B529
:1058B000C16E1386FEFF93D6040113DE0501F18C41
:1058C000F18D338695023383B60293580601330572
:1058D0009E021A95AA98B382C60363F36800F692F3
:1058E000C16F1383FFFF33F5670093D30701B3F74D
:1058F0006800C207337366003E933306950293D85F
:105900000801B387A602135F0601B3849302BE9415
:10591000FA94B38E760263F3F400FE9E416A930715
:10592000FAFF935F0401B376F400B3F9F4007D8EBF
:10593000C1803384D502C209338FD401B299CE9885
:10594000B307DE02935E0401B385BF02AE97BE9E2D
:10595000330EFE0363F3BE00529EC1679385F7FFCB
:1059600033F6BE006D8C4206229693DE0E01B3051F
:10597000D502769E3385AF0213D40501B386D302D8
:10598000AA96A296B38FF30363F3A600BE9F416568
:105990007D15B3F7A600C2076D8DAA97B385580091
:1059A000B3B93501FA97B2953384370133B6C500E0
:1059B000B30EC4013385CE0033343401B3B7E701ED
:1059C000C18F33BECE0113D406013336C5003E94D9
:1059D0003366CE009394950032947E94B3E46400D1
:1059E000260493567501B3349000DD81931795001A
:1059F000CD8C558CDD8C9317740063DB070093D737
:105A0000140085889316F401DD8CD58C05804289BD
:105A10009307F93F6359F00893F6740081CE93F62B
:105A2000F40011466388C60093864400B3B4960020
:105A30002694B6849316740063D80600B70700FF57
:105A4000FD177D8C930709409306E07F63CFF60E28
:105A500093D634009314D4012604D58C318093F767
:105A6000F77F21BB328532C4EF10C07E930655010B
:105A7000F147130705022246E3D1D7DC6115B317BE
:105A8000A6008145F9B3EF10E07C13075501F145FD
:105A9000930705022246B246E3D5E5D461153314D7
:105AA000AA00814499BB85469D8EB1E71309E9415F
:105AB000B3972401B3D4D40033192401B337F000D1
:105AC000B3649900DD8C93F77400B356D40081CF92
:105AD00093F7F40011466388C70093874400B3B47A
:105AE0009700A696BE849397860063D807048547DF
:105AF0000144814459B113068003E341D6CC7D466D
:105B0000E356D6FA0556B307F6409305000233561E
:105B1000F4006387B6001309E943B3172401DD8C51
:105B2000B3349000D18C93F67400014499CA93F772
:105B3000F40011468146E392C7FA1394960031802F
:105B4000F6068D80D58C81470DB99307F07F01440F
:105B5000814425B142896DBD370710007D170111C1
:105B60003373B70093D84601758F935ED60122CC6C
:105B700026CA0E0393D445019357D5010E0706CECE
:105B80004AC84EC693F8F87F130EF07F33E7EE0055
:105B900093F4F47F13D4F50133E36700131F35004A
