:100000006F30203E130000001300000013000000BA
:100010001300000013000000130000001300000094
:100020001300000013000000130000001300000084
:08003000130000007300100032
:100038000000000000000000825A0000845A0000FE
:10004800000000007A3300000000000000000000FB
:100058007C3300007E330000000000000000000038
:10006800D20A0000000000000002000000000000AA
:100078008433000086330000883300008A33000090
:100088008C3300008E330000903300009233000060
:100098009433000096330000983300009A33000030
:1000A8009C3300009E330000A0330000A233000000
:1000B800A4330000A6330000A8330000AA330000D0
:1000C800AC330000AE330000B0330000B2330000A0
:1000D800B4330000E0300000B83300007A3100008B
:1000E800BC330000BE330000C0330000C233000040
:1000F800C4330000C6330000C8330000CA33000010
:10010800CC330000CE330000D0330000D2330000DF
:10011800D4330000D6330000D8330000DA330000AF
:10012800DC330000BA300000E033000000000000BB
:080138000000000000000000BF
:10020000130181F806C216C41AC61EC822CA26CC1B
:100210002ACE2ED032D236D43AD63ED842DA46DC76
:100220004ADECEC0D2C2D6C4DAC6DEC8E2CAE6CC46
:10023000EACEEED0F2D2F6D4FAD6FED8F3220030CF
:1002400096DA9702002083A262FF23A02200F32502
:1002500010342EC003A10182EF10F00C1703002010
:100260000323C3FD03210300824273901234D6524C
:10027000739002309240A2423243C2435244E2445D
:10028000724582551256A2563257C2575258E258FA
:1002900072598649164AA64A364BC64B564CE64C0E
:1002A000764D865D165EA65E365FC65F13018107DA
:1002B0007300203013000000130000001300000042
:1002C00013000000130000001300000013000000E2
:1002D00013000000130000001300000013000000D2
:1002E00013000000130000001300000013000000C2
:1002F00013000000130000001300000013000000B2
:1003000083A20182938202E07390023417010020DD
:100310000321C1F2024182403243C2435244E244CB
:10032000724582551256A2563257C2575258E25859
:1003300072598649164AA64A364BC64B564CE64C6D
:10034000764D865D165EA65E365FC65FD652A1020A
:1003500073900230A24213018107828013000000D3
:100360001300000013000000130000001300000041
:100370001300000013000000130000001300000031
:100380001300000013000000130000001300000021
:100390001300000013000000130000001300000011
:1003A0001300000013000000130000001300000001
:1003B00013000000130000001300000013000000F1
:1003C00013000000130000001300000013000000E1
:1003D00013000000130000001300000013000000D1
:1003E00013000000130000001300000013000000C1
:1003F00013000000130000001300000013000000B1
:10040000F322003093F272FF130380181203B3E259
:100410006200711523205500130585FA10C12115BE
:10042000232005009302000063870200711523203A
:100430000500FD12D5BF71150CC1828000000000BF
:1004400000000000000000000000000000000000AC
:10045000000000000000000000000000000000009C
:10046000000000000000000000000000000000008C
:10047000000000000000000000000000000000007C
:10048000000000000000000000000000000000006C
:10049000000000000000000000000000000000005C
:1004A000000000000000000000000000000000004C
:1004B000000000000000000000000000000000003C
:1004C000000000000000000000000000000000002C
:1004D000000000000000000000000000000000001C
:1004E0000000000000000000000000000000397162
:1004F00001436EC619A0397141536AC866CA62CCFD
:100500005ECE19A0397101535AD056D252D44ED66C
:100510004AD826DA22DC06DE3301614082824111AC
:100520004AC026C222C406C68282B24D4101024D93
:10053000924C224CB24B4101024B924A224AB249A0
:100540004101024992442244B240410182803D432C
:100550002A876373C3029377F700BDEFADE5937607
:1005600006FF3D8ABA960CC34CC30CC74CC7410763
:10057000E36BD7FE11E28280B306C3408A0697027E
:10058000000096966780A6002307B700A306B70071
:100590002306B700A305B7002305B700A304B700DF
:1005A0002304B700A303B7002303B700A302B700D7
:1005B0002302B700A301B7002301B700A300B700CF
:1005C0002300B700828093F5F50F93968500D58DB3
:1005D00093960501D58D61B7939627009702000089
:1005E00096968682E78086FA9680C1171D8F3E9682
:1005F000E374C3F8A5B711CD99CD19E20545828002
:10060000EFF2FFF1BA8736878146EF10E006014529
:100610000DBF0545828005458280EFF25FF0EF1047
:10062000200B014539BF01CD89CD11CEEFF23FEF4F
:1006300032840146EF00B00208C0014519B70545F4
:100640008280054582800545828095C11DC2EFF2FA
:100650001FEDB2878146135615003E85EF00D00688
:1006600085476304F5000945E9BD0145F5BF05452A
:1006700082800545828085C90DCAEFF25FEAB684A3
:100680003284135615002285EF00D01D8547630480
:10069000F5000D457DB52285EF00F032050523807C
:1006A000A4000145C5BF0545828005458280EFF263
:1006B0001FE70581EF104041014561B5EFF23FE6CC
:1006C0001306401F3306C5029307803E3356F602D9
:1006D00081450145EF10900E0145A5B515C5EFF216
:1006E0001FE491C58547638BF500014599BD01471E
:1006F00089460146EF10D0190145CDBF014681451D
:10070000EF1030380145DDB70545828011C9EFF2A1
:100710001FE12A84EF104006060508C0014515B503
:1007200005458280370700201307072F9377F700CE
:1007300089CB9306F700C19A8D67958FBA97368754
:1007400011A08D67B70600209386062398C223A2C6
:100750000600BA97C117C19BB706002023ACF6204C
:1007600023A2070023A00700B386E74054C31CC39D
:10077000B707002023A2D722B707002023A0D72243
:10078000B70700203707008023AEE72082803707B5
:1007900000201307072311A03E871C43E3EEA7FEAA
:1007A00054433306D700630CA60054413306D500EA
:1007B000638CC7001CC16303E50008C382805041FD
:1007C000B29654C33A85D5B7370600200326862152
:1007D0006389C700DC43BE9654C11C439C431CC1C3
:1007E000D9BF10C1C9BFEFF29FD32A84EF00D077E1
:1007F000B707002083A78721B1CBB707002083A7C5
:10080000C721E18F639B07109307F4FF3957636893
:10081000F7109307040113F7F70011CB13F707FF45
:10082000410763F6E7109377F7009DE3BA87638289
:1008300007103707002003270722636EF70E3707DC
:10084000002003240723130707233DA0E13D75B7CC
:100850008967938707807390073037E60000130697
:10086000064C9305C00937E500001305454FEFB06E
:10087000607C01A022873684544063F4F600144063
:10088000F5FAB706002083A686216388860A04430A
:10089000C104144014C358401D8F9306000263FC2A
:1008A000E6023305F4009376F5009DC289679387CD
:1008B00007807390073037E600001306064C930557
:1008C000F00C37E500001305454FEFB0A07601A00E
:1008D00058C15CC06D3D5440370700201307072204
:1008E0001C43958F1CC3370700200327472263F65C
:1008F000E700370700202322F722B707002083A74D
:10090000C721D58F5CC023200400B7070020938740
:1009100087229843050798C321A0814411A08144F0
:10092000EF10400293F7F40099EB268519B9814442
:10093000C5BF8144F5B78144E5B78144D5B7896720
:10094000938707807390073037E600001306064C44
:100950009305001137E500001305454FEFB0806D9A
:1009600001A055C1EFF2BFBB2A84930405FF832782
:1009700045FF370700200327C721B3F6E70095C6D8
:10098000832605FFA9C68967938707807390073080
:1009900037E600001306064C9305501237E50000B9
:1009A0001305454FEFB0006901A089679387078061
:1009B0007390073037E600001306064C930540128B
:1009C00037E500001305454FEFB0C06601A013479F
:1009D000F7FFF98F232AF5FEEF001059832644FF15
:1009E000B7070020938707229843369798C3268538
:1009F000793BB70700209387C7229843050798C320
:100A0000EF0050743DBE8280B7E700E04157238776
:100A1000E7402386E740B7F700E023A0070023A2C2
:100A200007008146014794C7D8C783A541811307B2
:100A3000401F33D6E502814690CBD4CB3D4798C3C7
:100A40008280EFF2DFAD411102C6F32750303EC67F
:100A5000B2478D8B0D47639AE702B7570020938703
:100A60000700BD8BA9C789679387078073900730FC
:100A700037E60000130686519305B00B37E50000FA
:100A80001305454FEFB0005B01A08967938707808E
:100A90007390073037E60000130686519305600B0C
:100AA00037E500001305454FEFB0C05801A0A93F3E
:100AB000B7E700E0116723A0E710056723A0E71060
:100AC000B707002023A8071EEFF09F8301454101CF
:100AD0008DBC397106DE16DC1ADA1ED82AD62ED461
:100AE00032D236D03ACE3ECC42CA46C872C676C45E
:100AF0007AC27EC07311013489679387078073902F
:100B00000730B7F700E023A20700EF00904711C5B8
:100B1000B7E700E0116723A0E720896793878788FC
:100B20007390073073110134F250E2525253C253A2
:100B30003255A255125682567247E2475248C24871
:100B4000324EA24E124F824F2161730020308967CE
:100B50009387078073900730B70700209387071F9C
:100B60009843050798C38280B707002083A7071F13
:100B700089CFFD17370700202328F71E91E78967E3
:100B800093878788739007308280EFF25F99896737
:100B9000938707807390073037E60000130686516D
:100BA0009305301037E500001305454FEFB080483E
:100BB00001A0096513050580731505308280731047
:100BC00005308280930785005CC17D5718C55CC5E0
:100BD0001CC92320050082802328050082809041C3
:100BE000FD576305F6001307850021A0184931A0C1
:100BF0003E875C439443E37DD6FE5C43DCC18CC7F7
:100C000098C54CC388C91C4185071CC182801C49FA
:100C10005441184598C6544154C3D8436309A700AA
:100C20002328050098437D1798C388438280184580
:100C3000D8C3FDB7EFF2BF8E2A84113F185C5C5C0D
:100C40006307F70001440D3722856FF09F8F05443D
:100C5000DDBFEFF2DF8C2A84DD3D1C5C91E70544AB
:100C6000213722856FF0FF8D0144DDBFEFF23F8B0E
:100C70002A843289045D304111EE1C4191C701453F
:100C8000850404DC6FF0FF8B0845EF10A0242324BB
:100C90000400FDB7631009024841EFA040753840D9
:100CA0005C40BA975CC0184463EEE7021C405CC02D
:100CB0000145F9B74845EFA0807338403307E0405D
:100CC0005C44BA975CC4144063F5D7001C443E975B
:100CD00058C489476304F90001455DB791C4FD1408
:100CE000014579BF014569BF014559BF304115C272
:100CF000EFF2FF825C45B2975CC5184563E4E700FC
:100D00001C415CC52E874C453A85EFA0406E6FF0C4
:100D10005F838280EFF2BF80AA84153D03C4540430
:100D20006204618431A0EF1020187D146204618494
:100D3000635A8000DC5099C713854402EF00F076B7
:100D40006DD5D5B7FD57A382F404393D093503C4E9
:100D500044046204618431A0EF1000157D14620424
:100D60006184635A80009C4899C713850401EF0091
:100D7000D0736DD5D5B7FD572382F404F5336FF0EA
:100D80004FFCEFF2CFF90DCD2A84AE84545D99C6A5
:100D90003C410147B3B7D702B1E739C789679387A9
:100DA00007807390073037E600001306C65493059A
:100DB000501437E500001305454FEFB0A02701A000
:100DC0008967938707807390073037E60000130622
:100DD000C6549305001137E500001305454FEFB0E9
:100DE000602501A0054755BF9D331C40545C384029
:100DF0003386E6023E9610C4232C04025CC0FD1626
:100E00003307D702BA975CC4FD572302F404A30248
:100E1000F40495E01C4889E7813B05456FF06FF2CB
:100E200013050401EF00706865D9B7E700E01167AA
:100E300023A0E720D5B71305040169331305440245
:100E40005133D9BFEFF2AFED89E918C348DF2CC3A6
:100E500085453A853D376FF0CFEE10C3C5BFEFF241
:100E60006FEA19CDAA842E89B289814733B7A502CA
:100E700015EB99E733852403930770FB63F6A7020C
:100E80008967938707807390073037E60000130661
:100E9000C6549305601C37E500001305454FEFB0BD
:100EA000601901A08547F1B713058504EFF0BF93E2
:100EB0002A8401C92A87CE8613068504CA85268519
:100EC000513722856FF04FE7EFF2CFE3011132C6C1
:100ED0001DC12A84AE89B684A9C189476396F400EE
:100EE000585C8547631FF704EF00D07C59EDB2478B
:100EF000BDEB0149DDA889679387078073900730B0
:100F000037E600001306C6549305E03237E50000CB
:100F10001305454FEFB0001201A03C41DDDF8967AA
:100F2000938707807390073037E600001306C65496
:100F30009305F03237E500001305454FEFB0800F01
:100F400001A08967938707807390073037E6000018
:100F50001306C6549305003337E500001305454FCB
:100F6000EFB0400D01A08967938707807390073029
:100F700037E600001306C6549305303337E500000A
:100F80001305454FEFB0000B01A00149B9A8268613
:100F9000CE852285E1395C5081EF11C5B7E700E0CD
:100FA000116723A0E720C936054505616FF0CFD84A
:100FB00013054402EF00704F7DD5B7E700E01167DD
:100FC00023A0E720CDB74D360145C5B72808EF006F
:100FD000505F05493DA0230204043DA8A302040478
:100FE00099A02285053BEF00F0159536185C5C5CF6
:100FF000E36FF7F88947E38CF4F8B247E9D7E307E2
:1010000009FC9D36EF004076993683474404E20799
:10101000E1877D57E381E7FC83475404E207E187DA
:101020007D57E38DE7FA89366C002808EF00D05A27
:1010300005E52285013155D5B24513050401EF00C0
:10104000103B2285C139EF00F00F45F1B7E700E012
:10105000116723A0E72051BF22856D39EF00900E64
:101060000145A1B7EFF20FCA011132C619C92A848E
:10107000AE8995C9EF0010642DEDB247A9EB014987
:10108000E1A88967938707807390073037E60000EF
:101090001306C6549305105537E500001305454F58
:1010A000EFA0507901A03C41F1D789679387078071
:1010B0007390073037E600001306C6549305505569
:1010C00037E500001305454FEFA0D07601A08967F2
:1010D000938707807390073037E600001306C654E5
:1010E0009305A05537E500001305454FEFA0907418
:1010F00001A0014995A0CE852285CD3EFD1404DCDA
:101100001C4891E79534054505616FF0EFC2130562
:101110000401EF0090397DD5B7E700E0116723A007
:10112000E720CDB791340145C5B72808EF007049D5
:1011300005491DA823020404A1A0A302040481A858
:101140002285C93EEF00100001A82285E136EF009C
:10115000607F2285FD3C35E5EFF07F9F045CC1FC9C
:10116000B247E9D3E30309FCEFF01FA0F52BEFF042
:101170001F9E83474404E207E1877D57E38CE7FA2B
:1011800083475404E207E1877D57E388E7FAEFF0ED
:10119000BF9D6C002808EF00304445F92285553C7E
:1011A00045D1B24513054402EF00702422859D36D7
:1011B000EF00407955F1B7E700E0116723A0E72081
:1011C00061BF014591B7EFF28FB511C92A84EFF0E5
:1011D0001F98005CEFF05F9922856FF08FB68967EA
:1011E000938707807390073037E600001306C654D4
:1011F0009305307E37E500001305454FEFA090635F
:1012000001A009C58DC98147014789A0EFF22FB11F
:101210008967938707807390073037E600001306CD
:10122000C6548565938585AC37E500001305454FA9
:10123000EFA0506001A08280B73700209387072F6E
:10124000B29799C38CC3C8C3828005079D46E3EA61
:10125000E6FE13163700B73600209386062FB296A7
:10126000D442E38BA6FCF5F313163700B736002003
:101270009386062FB2969442E9FAB73700209387F7
:10128000072FB297D9B7EFF28FA92A84AE8432899B
:10129000EFF0FF8B83474404E207E1877D576382C9
:1012A000E70283475404E207E1877D57638EE70036
:1012B000EFF09F8B1C5C81CF2285EFF0BFA56FF014
:1012C0004FA823020404F1BFA3020404D5B74A8641
:1012D000A68513054402EF001016F9BFB7070020DA
:1012E00083A7C7239C4399E7B70700207D5723AE08
:1012F000E7248280B707002083A7C723DC479843F1
:10130000B707002023AEE7248280EFF24FA12A84A2
:101310000859EFF00FE52285EFF0AFE46FF06FA210
:10132000EFF24F9E2A8AB68A3A89BE844284032706
:101330000803B7070040FD17B2978A07BA9793F9D9
:1013400007FFB9C581477D47636DF7003387F50017
:1013500003070700B306F400238AE60219C38507D2
:10136000DDB7A3090404994763F7270389679387C7
:1013700007807390073037E6000013064658930540
:10138000703937E500001305454FEFA0B04A01A0C2
:10139000230A0802C9BF23262403232A2405232C59
:1013A000040413054400EFF03F8313058401EFF0BC
:1013B000BF8200C89D4733892741232C240140D098
:1013C000230E0404A30E0404230F0404A30F040437
:1013D00023000406A30004065686D2854E85EFF04E
:1013E0002F8208C091C080C06FF00F95EFF22F934D
:1013F0000144994763E0870293172400A29713954D
:101400002700B7370020938707333E95EFF08FFB17
:101410000504C5B7373500209304C53B1305C53B0C
:10142000EFF04FFA373500201304053D1305053D55
:10143000EFF04FF9373500201305453EEFF08FF8F8
:10144000373500201305C540EFF0CFF737350020C2
:101450001305853FEFF00FF7B707002023AE972263
:10146000B707002023A087246FF0AF8DEFF22F8BFA
:101470002A84EFF0CFEDB7070020938747249843E5
:10148000050798C3B707002083A787239DC3B70725
:10149000002083A787268DEBB707002083A787232B
:1014A000D8575C5463E2E702B707002023AC8722D9
:1014B00021A8B707002023AC8722B707002003A785
:1014C00047248547630AF708B70700209387072555
:1014D0009843050798C35854B707002083A74725AA
:1014E00063F6E700B707002023AAE724B7370020F8
:1014F0009387073393162700BA96139726003E97D3
:10150000584318C4104750C49306440054C214C72B
:10151000505413172600B305C70093962500B685CF
:10152000BE9654C894428506AE9794C3EFF0CFE3BD
:10153000B707002083A7872691CFB707002083A78E
:101540008723D8575C546377F700B7E700E011674B
:1015500023A0E7206FE0FFFE513DBDB7B707002095
:1015600083A78724A1CBEFE29FFBEFF04FDEB737D5
:1015700000209387C740DC47C04713054400EFF0C5
:101580000FE9B70700209387472498437D1798C336
:10159000B70700209387872498437D1798C3EFF0FF
:1015A000AFDC22859D33B707002083A78724D5FFB2
:1015B0006FE03FF98280EFE29FF64D37FDBFEFE22B
:1015C0001FF62A842E89B707002083A4C726B707F1
:1015D0000020938787239843A300070688431105BB
:1015E000EFF0EFE2FD576307F4022694B7070020FF
:1015F00083A78723C0C3637B9404B707002003A598
:101600000724B707002083A587239105EFF02FDD7E
:101610006FE03FF3E30B09FC373700201307873FE8
:101620005443B707002093878723904314C6904301
:101630008C464CC690431106D0C19043110690C60B
:101640009C43D8CB1C4385071CC3D9B7B7070020E0
:1016500003A5C723B707002083A587239105EFF0D3
:101660000FD8B707002083A7C725E373F4FAB7079D
:10167000002023AE872469BFEFE2FFE7AA892E8A04
:101680003289B68A3A8BBE8B13152600EFF0AF95E0
:101690001DC9AA8413054006EFF0EF942A8405C102
:1016A00004D90DC481482288DE875A87D6864A86A7
:1016B000D2854E85B5312285553B054531A026851D
:1016C000EFF02FAAF9BF7D556FE07FE67D55EDBFA6
:1016D000EFE2FFE4B70700209387872501478146A3
:1016E00013060010B7E500009385855A37150000F2
:1016F0001305655B51378547630CF5008547630C1F
:10170000F500FD57630FF50283A741806FE07FE38B
:10171000EF104004E5B7896793870780739007301F
:10172000B70700207D5723AEE724B7070020054701
:1017300023A4E726B707002023A60726EFF06FB003
:10174000E1B78967938707807390073037E6000019
:101750001306465885659385058437E50000130513
:10176000454FEFA0300D01A0B70700209387C72495
:101770009843050798C38280B707002003A5C726B2
:101780008280B707002083A7C7246392071AEFE27D
:101790001FD9B70700209387C7268043050480C35D
:1017A00039ECB707002083A7C7239C4385C7896707
:1017B000938707807390073037E60000130646587A
:1017C0008565938575AC37E500001305454FEFA09F
:1017D000700601A0370700201307C7231443B7077B
:1017E000002093870724904310C394C3B7070020B9
:1017F000938707269843050798C3EFF03FAEB707D6
:10180000002083A7C725637FF4020145B7070020A6
:1018100083A78723D85793172700BA9713972700D2
:10182000B737002093870733BA979843854763F308
:10183000E7000545B707002083A707276392071035
:101840006FE03FD0014571A0B70700207D5723AE60
:10185000E7246DBFB707002023AEE72445BFD44778
:1018600054C355A023A407021443FD1614C3D45730
:1018700037070020032747256376D7003707002066
:10188000232AD7243737002013070733139626005F
:10189000369693162600BA96D44294C79046D0C77F
:1018A0004CC28CC6CC57939625003388B6001316CD
:1018B000280032883A96D0CB10420506429710C3D2
:1018C000D857B707002083A78723DC576363F70047
:1018D0000545B707002083A7C7239C43B5D7B707A3
:1018E000002083A7C723DC47DC47D843E364E4F642
:1018F000D84B9047D44714C69047D0C254439385E1
:101900004700E38EB6F423AA07001443FD1614C360
:10191000985731DFD04F945314C6D04FD0C25043A4
:1019200093868701E310D6F4945354C325BFB707B9
:101930000020938747269843050798C30145828076
:101940000545FDBDEFE2BFBDB707002083A7C72453
:1019500085E78967938707807390073037E6000033
:101960001306465885659385358B37E500001305CA
:10197000454FEFA0206C01A0EFF06F9DB70700204E
:101980009387C72498437D1798C39C436396071297
:10199000B707002083A7472489EB014439AA945351
:1019A00054C325A8D44754C389A88147373700209A
:1019B0000327473E5DCFB73700209387473EDC477C
:1019C000DC479857D44F905390C69453D04FD0C211
:1019D000504393868701E304D6FC23A407021443F3
:1019E000FD1614C3D84B9047D44714C69047D0C2B5
:1019F000544393854700E387B6FA23AA07001443AC
:101A0000FD1614C3D45737070020032747256376F4
:101A1000D70037070020232AD724373700201307A1
:101A2000073313962600369693162600BA96D442AC
:101A300094C79046D0C74CC28CC6CC57939625000D
:101A40003385B6001316250032853A96D0CB104266
:101A500005062A9710C3D45737070020032787238A
:101A60005857E3E5E6F43707002085462328D726B4
:101A700035BF99C3EFF09F86B707002003A4472620
:101A800019ECB707002083A707278DCFB7E700E041
:101A9000116723A0E72005440DA07D1409C8D531A6
:101AA0006DDDB7070020054723A8E726FDB7B70778
:101AB000002023A20726F1B70144EFF0EF8A228528
:101AC0006FE03FA80144D5BF29C9EFE25FA52A8492
:101AD000B707002083A7C7249DC389679387078022
:101AE0007390073037E6000013064658930590546C
:101AF00037E500001305454FEFA0C05301A0AD31FD
:101B000081452285EFF0BFAB353D11E5B7E700E039
:101B1000116723A0E7206FE0DFA2B7E700E01167BD
:101B200023A0E7208280B707002083A7C72499C796
:101B3000B7070020054723A8E7268280B7070020C3
:101B400023A80726B707002083A747251397270058
:101B50003E97931627003737002013070733369731
:101B600018430DEB99C3FD17D5B7EFE25F9B89676B
:101B7000938707807390073037E6000013064658B6
:101B80008565938525C037E500001305454FEFA017
:101B9000604A01A0373700201307073336975443B4
:101BA000D44254C321076387E602139727003E9768
:101BB000931627003737002013070733369758430B
:101BC000544737070020232CD72237070020232A29
:101BD000F7248280D042139727003E979316270060
:101BE0003737002013070733369750C37DBFEFE226
:101BF0001F9319CD2E84B707002083A58723E10505
:101C0000EFE0FFFD85452285EFF07F9B6FE07F933E
:101C10008967938707807390073037E600001306C3
:101C2000465885659385C5C137E500001305454FC6
:101C3000EFA0404001A0EFE29F8E2A8721C52E85AC
:101C40005443B7070020938787238C43D4CD03A840
:101C500007008C462320B80203A80700610823A2CE
:101C6000050103A80700610823A406019C4398D737
:101C70001C4385071CC311C27D55B285EFF03F940C
:101C80006FE03F8C8967938707807390073037E652
:101C90000000130646588565938525C537E5000085
:101CA0001305454FEFA0003901A05C45DC47D5CFB7
:101CB0009857D04F945314C6D04FD0C25443138674
:101CC00087016389C60C23A407021443FD1614C3BD
:101CD000370700200327C72461E7D84B9047D44734
:101CE00014C69047D0C25443938547006387B60A11
:101CF00023AA07001443FD1614C3D4573707002046
:101D0000032747256376D70037070020232AD724E7
:101D1000373700201307073313962600369693169D
:101D20002600BA96D44294C79046D0C74CC28CC6FF
:101D3000CC57939625003385B600131625003285BF
:101D40003A96D0CB104205062A9710C3D857B7074A
:101D5000002083A78723DC5763F3E706B70700203B
:101D6000054723A8E72605458280EFE24FFB8967F8
:101D7000938707807390073037E6000013064658B4
:101D80008565938525C837E500001305454FEFA00D
:101D9000602A01A0945354C33DB7D44754C389BFAC
:101DA000373700201307473E5443D4CF8C468CD39B
:101DB000D0C190C698D71443850614C341BF0145CE
:101DC0008280B707002083A707261CC1B707002021
:101DD00083A7C7265CC18280EFE26FF421C1AA8489
:101DE0002E84A5C1EFE0BFD6B707002083A6C72683
:101DF000DC403386F640370700200327872303475C
:101E000017063DC3B707002083A78723A3800706D3
:101E10000544EFE07FD522856FE0AFF289679387B5
:101E200007807390073037E6000013064658856533
:101E30009385D5CF37E500001305454FEFA0801FF0
:101E400001A08967938707807390073037E6000009
:101E50001306465885659385E5CF37E500001305E1
:101E6000454FEFA0201D01A01840FD55630CB7029F
:101E70008840B705002083A505266308B50063E602
:101E8000F60023200400054469B76366E6002320BA
:101E900004000544BDBF958FBA971CC02685153731
:101EA000014485BF0144B5B7B7070020054723A803
:101EB000E7268280B707002083A7872691CBB70744
:101EC000002083A7C72499C30145828009458280E9
:101ED0000545828065C1EFE28FE42A84B7070020C0
:101EE00083A787236385A7028967938707807390F9
:101EF000073037E600001306465885659385F504DC
:101F000037E500001305454FEFA0C01201A03C4D7E
:101F100099CBFD173CCD54557849638FE6089DC792
:101F200001456FE00FE28967938707807390073060
:101F300037E600001306465885659385050537E5A5
:101F400000001305454FEFA0E00E01A093044500EB
:101F50002685EFE0DFCB784858D49D47998F1CCC7D
:101F6000B707002083A7472563F6E700B7070020DF
:101F700023AAE724B7370020938707339316270057
:101F8000BA96139726003E97584318C4144754C472
:101F9000C4C204C7505413172600B305C700939654
:101FA0002500B685BE9654C894428506AE9794C364
:101FB000054585BF014582800145A5B7EFE22FD6D3
:101FC00005C58967938707807390073037E600005F
:101FD0001306465885659385652637E50000130589
:101FE000454FEFA0200501A02A842E89B284EFE09E
:101FF0001FB6B707002083A78723130744010A07EA
:10200000BA97DC4791EBB707002083A78723A297F5
:1020100005472380E706B9E4EFE01FB5EFE03FB3E3
:10202000B707002083A78723130744010A07BA973D
:10203000C44789CC63020904B707002083A787231C
:10204000130744010A07BA9723A60700B707002021
:1020500083A787233E9423000406EFE0FFB0268584
:102060006FE02FCE85452685EFF06FD5B7E700E00E
:10207000116723A0E7204DB7B707002083A7872368
:102080001387F4FF930644018A06B697D8C77DBF2D
:10209000EFE24FC7B1E5AA842E84B28936893A8A25
:1020A0003DC1EFE0DFAA63090A00930744018A07F4
:1020B000A697DC472320FA00B387840003C70706EE
:1020C0001377F70F89462380D706914763E7270BDD
:1020D00093172900B96693860657B6979C43828763
:1020E0008967938707807390073037E600001306EF
:1020F000465885659385853037E500001305454FC3
:10210000EF90507301A08967938707807390073021
:1021100037E600001306465885659385953037E508
:1021200000001305454FEF90F07001A093074401A4
:102130008A07A697D447B3E9360123A63701054499
:1021400085A8930744018A07A697D4478506D4C774
:102150000544B9A8930744018A07A69723A6370127
:102160000544B9A089476307F70E930744018A071E
:10217000A69723A63701054425A8B707002083A703
:10218000C72699E305442DA089679387078073903C
:10219000073037E600001306465885659385E5331A
:1021A00037E500001305454FEF90D06801A00544C6
:1021B00085476313F70CDC489844D44414C7D844CB
:1021C000944454C3D843138644006307C70823AA22
:1021D000040098437D1798C3D854B707002083A7FD
:1021E000472563F6E700B707002023AAE724B7379F
:1021F00000209387073393162700BA96139726007B
:102200003E97584398C41447D4C4D0C210C7D05482
:1022100013172600B305C70093962500B685BE9612
:10222000D4C894428506AE9794C39C548DCB8967DD
:10223000938707807390073037E6000013064658EF
:1022400085659385D53437E500001305454FEF903C
:10225000705E01A00144A9BFD844D8C38DBFD85433
:10226000B707002083A78723DC5763F7E700B7E7AA
:1022700000E0116723A0E720EFE01F8F22856FE0C9
:10228000AFABEFE2CFA905C92A84AE843289B9C5C4
:102290008967938707807390073037E6000013063D
:1022A000465885659385D54037E500001305454FB1
:1022B000EF90505801A0896793870780739007308B
:1022C00037E600001306465885659385C54037E517
:1022D00000001305454FEF90F05501A0EFE07F8D12
:1022E000B307940003C707061377F70F89462380C7
:1022F000D706938744018A07A297D4478506D4C797
:1023000085476318F70C1C5485C789679387078036
:102310007390073037E600001306465885659385AD
:10232000354337E500001305454FEF90B05001A04D
:10233000B707002083A7C724C5E75C481844544466
:1023400014C75844144454C3D843130644006306C6
:10235000C708232A040098437D1798C35854B70729
:10236000002083A7472563F6E700B707002023AACC
:10237000E724B73700209387073393162700BA96D0
:10238000139726003E97584318C4144754C4D0C22C
:1023900010C7505413172600B305C70093962500A5
:1023A000B685BE9654C894428506AE9794C35854D9
:1023B000B707002083A78723DC5763FCE70063058A
:1023C000090085472320F900B7070020054723A807
:1023D000E726EFE0CFFE6FE0CF965844D8C395BF15
:1023E000B73700209387473ED84358CC104710D0CA
:1023F0009306840154C214C71CD49843050798C39C
:102400007DB7B707002003A747271C4399E78547F7
:102410001CC191E75C47884382808147D5BF014555
:102420008280EFE2CF8F4CC108C96363B602158E7C
:102430001C4D6365F60005456FE0AF9093054500C0
:10244000B707002003A58727EFE06FF90145EDB737
:102450006374D60063FCD50093054500B7070020E0
:1024600003A54727EFE0AFF70145F9B70545E9B701
:10247000EFE2EF8A2A84AE8432890C4CA6864A8623
:10248000A6952285793F19C51C4CBE941C50228507
:102490008297E5B76FE0EF8AEFE26F88AA842E8912
:1024A000B707002083A74727DC47C0471305440030
:1024B000EFE0EFF58347440213F7470009EBF99B80
:1024C0002302F4021C50228582976FE08F874A8690
:1024D000A6852285713FFDB7B707002083A7472750
:1024E00098430DCBEFE2AF83DC47FD5588436D3752
:1024F000B707002083A7472798437DF737070020B9
:10250000130787271043B706002023AAC6261CC33B
:102510006FE02F8337070020130787271043B70684
:10252000002023AAC6261CC38280EFD25FFFAA84A4
:10253000EFF08FA42A84B707002083A7C727636B17
:10254000F50023A00400B707002023AE87262285CC
:102550006FD03FFF513785479CC0F5B7EFD23FFCA6
:1025600041112A892E84EFF02FA068007D3FB247E9
:10257000B9E7AA8419E0637C250301C8B7070020E6
:1025800083A787279C4395EB05442286B305994092
:10259000B707002003A50728EFE0FFCEEFF08FBAC2
:1025A0000DE1B7E700E0116723A0E72019A8EFF0DD
:1025B0006FB9A6854A85CD3529A00144F9B7EFF05A
:1025C0006FB841016FD0FFF7EFD27FF5011121A065
:1025D000C24763D4070201460C08B707002003A5D1
:1025E0000728EFE03FA86304050EC247E3D207FEC9
:1025F000F2456245D2478297E1BF62445C4889C791
:1026000013054400EFE0AFE068000537AA84C24735
:102610002547E362F7FC8A0739671307075BBA9718
:102620009C4382878347440293E717002302F40206
:10263000D2470C4CBE862A86BE952285DD3341DD0D
:102640008347440213F7470001EBF99B2302F4028E
:102650001C502285829741B71C4C2686D245BE95D8
:1026600022853935F5B783474402F99B2302F402EA
:102670009DB78347440293E717002302F402D24533
:102680000CCC99C5AA862A86AA952285593BA1B762
:102690008967938707807390073037E60000130639
:1026A000065E9305903537E500001305454FEF9022
:1026B000701801A08347440213F7270009C7F99B4C
:1026C0002302F40209BF2285EFE0AFA929B7056113
:1026D0006FD03FE7EFD2BFE441116800EFF07FD247
:1026E000B245AD3DD535D5BFEFD27FE3EFE02FC684
:1026F000B707002083A7072889C7EFE0EFC66FD090
:102700005FE4373500209304054213050542EFE0EE
:102710006FCB373500201304454313054543EFE0E5
:102720006FCAB707002023AA9726B707002023AC5B
:1027300087260146C1451145EFE06FF2B70700203B
:1027400023A0A7285DD9B7E500009385855DEFE05C
:102750005FAB65B7EFD2BFDC413FB707002083A76F
:10276000072885C7B7070020938747281947814660
:1027700013060010B7E5000093854560372500007B
:102780001305456DEFE05FEF1DE1896793870780D3
:102790007390073037E600001306065E930590112C
:1027A00037E500001305454FEF90D00801A06FD02A
:1027B0005FD9EFD2DFD62A892E85EF8070192A845F
:1027C000AE844A85EF80D0182286A686EF30F07E50
:1027D000EF80D022B7E7000083A50763EF70D00F2A
:1027E000EF801017B7E7000003A6876383A6C763CF
:1027F000EF605037EF8090206FD0BFD4EFD29FD0E2
:10280000AA842E84B68A3A893E8AC289032B05009F
:10281000B2853A85EF70307FAA855A85EF70D00B6C
:1028200088C0032B0400CA854A85EF70D07DD2850D
:10283000EF70707DD285EF70107DAA855A85EF709C
:10284000B0092A8908C0CE854E85EF70D07BAA8555
:102850004A85EF707008AA854A85EF70903E2A89F4
:1028600083A90400CE855685EF802023CA85EF70AA
:102870009079AA854E85EF70300688C0CA85B7E783
:10288000000003A50764EF8040210C40EF70B07793
:1028900008C06FD07FCAEFD29FC541112A84AE8491
:1028A0004841EF80F00A2A89AE890C402E85EF70EE
:1028B00090752A8A0C442E85EF70F074AA85528593
:1028C000EF709001EF80D008EF30506F2A86AE860F
:1028D0004A85CE85EF60E030EF301028EF8010128F
:1028E000AA890840EF80D0062A8AAE8A4C402E85FD
:1028F000EF7070712A890C442E85EF70D070AA8514
:102900004A85EF70607DEF80B004EF30306B2A862F
:10291000AE865285D685EF60C02CEF30F023EF8075
:10292000F00D370900803349A9004E85EF80500231
:10293000B7E9000003A6896383A6C963EF6090220C
:10294000EF80D00B2A8A4A85EF80900003A6896326
:1029500083A6C963EF601021EF80500AAA89B7E708
:10296000000003A98761B7E7000083ACC761138C3F
:1029700081804A88E68703270C00D28650449385DD
:1029800084011385C4009D3D4A88E68703270C0017
:10299000CE86104893850402138544018535C844CA
:1029A000EF80007B37E90000032689628326C96235
:1029B000EF60501BEF8090042A8AC848EF8040796E
:1029C000032689628326C962EF60D019EF80100365
:1029D000AA8D83298401032DC40103290402528591
:1029E000EF8000772A8BAE8BEF30B04A2A8AAE8A0E
:1029F0004E85EF80E0755286D686EF60B0162A8A43
:102A0000AE8A4A85EF80C0742A89AE895A85DE85F0
:102A1000EF3090512A86AE864A85CE85EF609014BD
:102A20002A86AE865285D685EF50B028EF80007D8D
:102A30002A8B6E85EF80C0712AC42EC6EF30704598
:102A40002A8AAE8A6A85EF80A0705286D686EF60A9
:102A500070112A8AAE8A2245B245EF30F04C2A86A0
:102A6000AE864A85CE85EF60F00F2A86AE86528507
:102A7000D685EF501024EF806078AA855A85EFF054
:102A80005FD3B7E7000003A80764E68703270C00BD
:102A9000AA8650489385C40113850401EFF01FD620
:102AA00083290403B7E7000083A507624E85EF7012
:102AB000D04C635405023709002013098928832567
:102AC00009004E85EF70707D88C41C582320F900E2
:102AD0005C489CC041016FD05FA5930700009CC477
:102AE000C5BFEFD23FA241112145EF80B00FAA86AA
:102AF0001304000000C140C1054689453735002058
:102B00001305054C012C4145EF80D00DAA8600C16C
:102B100040C1A28900C5C0C6094689453735002095
:102B20001305C549C52A4145EF80D00BAA86B7E7F2
:102B3000000003A4076400C1938481809C405CC1B1
:102B40002324350140C50946894537350020130542
:102B50008544C9222145EF80F0082A898840EF800A
:102B6000205F2A8AAE8AB7E7000003A6076183A622
:102B70004761EF60207F2A86AE865285D685EF605A
:102B8000607EEF80A0672320A9009C402322F900EB
:102B9000B7340020CA8605468945138544459D2AD9
:102BA0001145EF803004AA864E8923A036010546E0
:102BB0008545373500201305C54CA92A2145EF80EE
:102BC0007002AA8600C123A2360109468545373521
:102BD0000020130505463D2A4C0013854445E52A8F
:102BE000373600201306864A4C00138544453D22A3
:102BF0001145EF80207FAA86B7E7000083A7C76052
:102C00001CC105468545373500201305454B192263
:102C10001145EF80207DAA8623A036010546854513
:102C20003735002013054548F5202145EF80807B8E
:102C3000AA86CE8423A0360123A236010546894503
:102C40003735002013058547F1201145EF80807945
:102C5000AA8623A036010546854537350020130591
:102C600005494D284145EF80E077AA8600C123A29F
:102C7000360123A4360140C5094689453735002071
:102C80001305C546412841016FD01F8BEFD29F87A6
:102C90002A8444454C492685EF7000442A8948C857
:102CA0008329C401CE85EF70F024635AA004232A3F
:102CB0003401032944020C402685EF70D034AA89E0
:102CC0004C484840EF703034AA854E85EF70C040C4
:102CD000AA89032A84000C482685EF70105CAA8517
:102CE0005285EF705032AA854E85EF70E03EAA857E
:102CF0004A85EF70503108CC04C86FD0FF83832918
:102D00000402CE854A85EF705027E35405FA232A42
:102D1000340145B74CC110C514C182801845DC414F
:102D20006304F70001458280EFD2CFFDB2892E8B7C
:102D3000AA8A5C415CC2984518C6B387E70213951E
:102D40002700EF80206A23A0A900014AA5A8050951
:102D500083278B006357F90603A7090083A789001F
:102D6000B3874703CA978A07BA971307000098C327
:102D7000014483A78A00E35CF4FC83A4090003A751
:102D80008900330747034A970A07BA9403A70A0042
:102D9000B3874703A2978A07BA9783260B000327B6
:102DA0008B00330787024A970A0736970C438843FC
:102DB000EF707025AA858840EF70003288C0050446
:102DC0004DBF050A83A74A006354FA00014949B779
:102DD00005456FD06FF6EFD28FF42A84AE841C4580
:102DE000DCC1584198C5B387E70213952700EF80EF
:102DF000605F88C0014511A005055C406357F5027E
:102E000081461C44E3DAF6FE0C40B387A702B6976E
:102E1000904098443307D7022A970A0732978A07C7
:102E2000AE979C431CC38506E9BF6FD08FF125C9BF
:102E3000EFD24FED2A842E89B284B689BDC1835565
:102E400085004841EF00407C11A80840EF00F05D8C
:102E50002380A9008509FD14C204C1808DC8834563
:102E600009000840EF00105C89450840EF00505C05
:102E70008547E31BF5FE930500080840EF00505B13
:102E80008547E30AF5FE0509E39109FCE9B7835597
:102E900084004840EF00A07501456FD0EFE905457B
:102EA00082800545DDBFEFD28FE7AA84ADE5370408
:102EB0000700130424080149B705020037650040E4
:102EC00013050580EF00101665F98545376500404C
:102ED00013050580EF00F008B70503008505376589
:102EE000004013050580EF00D0117DD593951400A7
:102EF0004A8693F5E50F3765004013050580EF001E
:102F0000100CA2853765004013050580EF00700F97
:102F10006DD96FD00FE3370403000904054969BF79
:102F2000EFD2EFDF2A84B7050010938505083765D7
:102F3000004013050580EF00F00E8547E315F5FE10
:102F4000A2853765004013050580EF0050066FD05D
:102F50004FDFEFD2CFDCB70500109385050837654A
:102F6000004013050580EF00F00B8547E315F5FEE3
:102F700085453765004013050580EF00F0006FD0F0
:102F80004FDCB70600209386962983C706003707D3
:102F900000201307472A3E9785071946B3E7C70263
:102FA0002380F600034507008280EFD24FD7AE841E
:102FB0008545EFF05FEF014425A03765004013051C
:102FC0000580EF00207FB70700209387472AA2974C
:102FD0002380A70005041374F40F95476300F402DF
:102FE00063789402B70500109385050437650040A7
:102FF00013050580EF0010036DD1C1B7856593857A
:1030000005803765004013050580EF00A07CC9BF2F
:10301000B70500109385050437650040130505804A
:10302000EF0050008547E315F5FE85453765004004
:1030300013050580EF00407522856FD08FD08D4736
:1030400063E9A7069307803E63E7B706EFD22FCD6B
:103050009385853EC205C18109CD85476303F5028D
:1030600089476308F5028D47630DF50201456FD06E
:103070004FCD3715004013050580EF10601801454E
:10308000FDB73715004013050580EF10C017014547
:10309000F9BF3715004013050580EF1020170145D3
:1030A000F9B73715004013050580EF10801601456C
:1030B0007DBF0545828005458280EFD24FC69305CE
:1030C000505237550040130505C0EF10603B19C53D
:1030D000B707002083A7072991C382976FD06FC6D7
:1030E000397106DE16DC1ADA1ED82AD62ED432D270
:1030F00036D03ACE3ECC42CA46C872C676C47AC2F0
:103100007EC0854537350140130505C0EF10401FCF
:1031100015C1B707002083A74729B9E7B7070020E3
:1031200003D7A729896793870771998F37070020ED
:10313000232AF728854537350140130505C0EF10D0
:10314000E01DF250E2525253C2533255A25512566C
:1031500082567247E2475248C248324EA24E124F40
:10316000824F216173002030B707002083A74729D1
:10317000096713070771BA9755BF397106DE16DC68
:103180001ADA1ED82AD62ED432D236D03ACE3ECC37
:1031900042CA46C872C676C47AC27EC089453735EF
:1031A0000140130505C0EF10A01529CD37350140AA
:1031B000130505C0EF10C012B7070020239DA728F4
:1031C000B707002023AA0728B7070020238C072869
:1031D000994537350140130505C0EF102014F25012
:1031E000E2525253C2533255A2551256825672477A
:1031F000E2475248C248324EA24E124F824F2161DE
:1032000073002030914537350140130505C0EF109C
:10321000200F5DDD37350140130505C0EF10A00C10
:10322000B70700209387A7292390A70083D607001C
:10323000B7070020938747299843369798C3B70765
:1032400000200547238CE7288545B707002003A504
:10325000C728EFD0AFC8ADBFEFD26FACAA842E8421
:1032600019ED0545A9A083C5040037550040130595
:1032700005C0EF10C01D85047D14420441801DC4AB
:103280009305000837550040130505C0EF10601D79
:1032900085476310F502930500023755004013057A
:1032A00005C0EF10001C61D10D4511A001456FD084
:1032B0004FA90D45EDBFEFD28FA6AA842E8439C148
:1032C0001DCC9305000237550040130505C0EF10D3
:1032D00040198547631AF50237590040130509C0A4
:1032E000EF1080172380A40085047D1442044180E0
:1032F00093055052130509C0EF10A017D1B701452F
:103300006FD02FA40545EDBF1145DDBFEFD22FA132
:10331000AA8491A0F9779387078FBE940964130458
:103320000471854537050040EF00B07CA285370564
:103330000040EF00906C854537050040EF001054C9
:1033400037050040EF00907AE37CA4FE8145370505
:103350000040EF00B05289CC89679387F770E3EBA8
:1033600097FA09641304047133F48402814455BF4D
:1033700001456FD00F9D01A001A001A001A001A0F7
:1033800001A001A001A001A001A001A001A001A035
:1033900001A001A001A001A001A001A001A001A025
:1033A00001A001A001A001A001A001A001A001A015
:1033B00001A001A001A001A001A001A001A001A005
:1033C00001A001A001A001A001A001A001A001A0F5
:1033D00001A001A001A001A001A001A001A001A0E5
:1033E00001A097D1FF1F9381E160172100201301F5
:1033F00061C117C500001305A5C397D5FF1F9385AD
:1034000065C01386818263FAC5008322050023A06C
:10341000550011059105E3EAC5FE17D5FF1F1305F9
:10342000E5DF970500209385E5156377B500232038
:1034300005001105E36DB5FEFD42739002BC8942A3
:1034400073904280B72200009382028073A0023002
:1034500097D2FFFF938282BE93E232007390523084
:10346000EF10D00D97320000938222E17390123456
:10347000730020305C413707F1E01307F7EF7D8FD1
:103480009C41944DD58FD44DD58FD441A206D58F74
:10349000D98F5CC11C4537F7F1FF1307D77F7D8FAC
:1034A0009C49D445D58F94458606D58FD98F1CC5A8
:1034B0005C55370710FF7D177D8F83C74501FD17CA
:1034C00093F7F70FD207D98F5CD5828091C51C4541
:1034D00093E717001CC582801C45F99B1CC58280A0
:1034E0009C4593F8F700C18B81C7DC41B3E8F80035
:1034F000B72702409C5B3707000FF98F91E7B707AA
:1035000000200547238EE728B71701406309F5001F
:1035100083C70500BDC703280500014731A8B707C9
:10352000002083C7C729EDD783D70500B583239033
:10353000F500F9BF5CC905079D4763E2E7048547CD
:10354000B397E70083D60500FD8EE396D7FE1316EA
:103550002700BD46B396C60093C6F6FF33F80601B2
:103560003396C80033680601944513068002E3834E
:10357000C6FC13068004E390C6FC1CC96DBF232063
:10358000050103D705009307F00F63F1E706032851
:103590004500014721A05CC989A005079D4763E557
:1035A000E704130687008547B397C70083D6050055
:1035B000FD8EE394D7FE13162700BD46B396C600D2
:1035C00093C6F6FF33F806013396C8003368060148
:1035D000904593068002E300D6FC90459306800454
:1035E000E31DD6FA1CC955BF232205018280B717F7
:1035F00001406304F5000CC98280B707002083C72F
:10360000C729F5DBB581C5BFB71701406304F500D5
:103610004CC98280B707002083C7C729F5DBB58175
:10362000C5BFEFC2DFEF01112A842E898354450004
:10363000C204C18093F404FCC204C1806800C52E9A
:103640005247B7470F0093870724B357F7021396E3
:1036500007014182D18C2312940083560400C206D4
:10366000C182F99AC206C1822310D40083260900C0
:10367000E1659385056A63E0D50686063357D70270
:10368000420741838D4763E3E70011470506420681
:1036900041822310C402231EE4008357040093E7F1
:1036A00017002310F40083570400C207C18393F767
:1036B00057BF035749008356A900558FD98F231050
:1036C000F4008357C90003578900D98F2314F400ED
:1036D00005616FC01FE78355690031667D166388F9
:1036E000C50493951600B69513963500B2963357D8
:1036F000D702420741839166558F8566FD16F98E84
:1037000099E213671700E176558F42074183C2079C
:10371000C1839306C012B387D7029306803EB3C716
:10372000D7028507C207C1832310F402ADB71396F1
:103730001600B2963357D702420741837DBF81C935
:103740008357050093E717002310F5008280835705
:103750000500C207C183F99BC207C1832310F5008E
:10376000828081C98357050093E707102310F50075
:10377000828083570500C207C18393F7F7EFC20722
:10378000C1832310F500828081C98357050093E728
:1037900007202310F500828083570500C207C183EC
:1037A00093F7F7DFC207C1832310F5008280231847
:1037B000B5008280035505011375F50F828001CA9B
:1037C00093E51500C205C1812318B500828093F5E9
:1037D000E50FCDBF9385058091C903570500FD779F
:1037E0009387F77FF98F2310F50082800357050038
:1037F000856793870780D98FC207C1832310F5009F
:1038000082800357450183578501C207D98F370747
:1038100000017D17F98FED8F6384B7000145828029
:1038200005458280411102C602C42AC493D7C5014E
:103830003EC6B7070001FD17FD8DB24799CBA247E1
:10384000D1073EC4A2479C43FD8D89C9054541016E
:103850008280C181A247E1073EC4EDB70145C5BFE3
:10386000B707002023A0A72A8280B707002083A7DC
:10387000072A9DEF8346050083472500920793F7AB
:10388000F70F37E700E036972300F7405C41638885
:10389000071603470500935757008546B396E60081
:1038A000938707048A0737E700E0BA9794C38280BA
:1038B000B707002003A7072A85476304F704B70763
:1038C000002003A7072A8947630DF706B7070020E2
:1038D00003A7072A8D476305F70CB707002003A746
:1038E000072A9147E314F7FA83460500834715003A
:1038F000920793F7F70F37E700E036972300F7407A
:1039000071B703471500630FF7008346050083472F
:103910002500920793F7F70F37E700E0369723006B
:10392000F740ADB78346050083472500920793E72C
:1039300007F893F7070F37E700E036972300F740C3
:10394000B1B78347150005476379F70203472500A0
:103950009387E7038A0793F7F70FBA9793F7F70F61
:1039600083460500920793E707F893F7070F37E7B9
:1039700000E036972300F74011BF034725008A0770
:1039800093F7F70FBA9793F7F70F8346050092075F
:1039900093F7F70F37E700E036972300F740FDB5C0
:1039A000834715000D476365F70203472500860727
:1039B00093F7F70FBA9793F7F70F8346050092072F
:1039C00093F7F70F37E700E036972300F7407DBD08
:1039D000034725009387C707860793F7F70FBA9722
:1039E00093F7F70F83460500920793E707F893F7DD
:1039F000070F37E700E036972300F74041BD034744
:103A00000500935757008546B396E600938707064F
:103A10008A0737E700E0BA9794C38280B71602405E
:103A2000DC4251777D17F98F5D8DC8C28280B71750
:103A30000240DC43B18B11476382E708214763856D
:103A4000E70899C7B7177A00938707201CC131A0F0
:103A5000B7177A00938707201CC1371602405C42D3
:103A60009183BD8B3707002013070700BA9783C6E1
:103A700007001C41B3D7D7005CC15442A1829D8A84
:103A8000BA9683C60600B3D6D70014C55442AD8299
:103A90009D8A369703470700B3D7E7005CC55842B5
:103AA0003983937637001387C18036970347070021
:103AB0001377F70FB3D7E7021CC98280B7177A00D4
:103AC000938707201CC151BF371702405C435843FE
:103AD000C166758FC983BD8B8907C5466381D702CF
:103AE0000DEB3747024003270780418B19CB37176F
:103AF0007A0013070720B387E7021CC1B9BFC94783
:103B0000C5B737173D0013070790B387E7021CC1FD
:103B1000A9B73717024058439316E70063DA060047
:103B200037173D0013070790B387E7021CC135B76D
:103B300037177A0013070720B387E7021CC131BF8C
:103B400099C5371702405C4B5D8D48CB8280371793
:103B500002405C4B1345F5FF7D8D48CB828099C5B3
:103B6000371702401C4F5D8D08CF82803717024007
:103B70001C4F1345F5FF7D8D08CF828099C53717FF
:103B800002405C4F5D8D48CF8280371702405C4F0A
:103B90001345F5FF7D8D48CF8280035705008D6763
:103BA000938707047D8F03DE050083DE250003D3A2
:103BB000450083D8650003D8850003D6A50083D6C9
:103BC000C50083D7E500336EDE013363C301B3E87C
:103BD00068003368180133660601D18ED58FD98FFE
:103BE0002310F5000357C501FD779387F77FF98F01
:103BF000231EF50083D705012318F500828081C9B3
:103C00008357050093E707042310F500828083574C
:103C10000500C207C18393F7F7FBC207C1832310D6
:103C2000F50082802316B50082800355C50082808E
:103C300083578500FD8D99C10545828001458280AD
:103C4000035805024208135808011378E8FF420898
:103C5000135808012310050303588501420813581F
:103C6000080183570502C207C1831378C8F0920682
:103C7000C206C182558E3368C800B73601409386AC
:103C800006C0630DD502370700406309E50213073C
:103C900007406305E5023717004013070780630FED
:103CA000E50037170040130707C06309E50013F765
:103CB00057FFB367B70093E7170029A0F59BCD8F97
:103CC00093E71700231C05012310F5028280035798
:103CD0000502420741833D9B420741832310E502D1
:103CE0008358850183570502C207C1831398450095
:103CF00042081358080105671307F7CF33771701F8
:103D0000B206C206C182D98E220642064182558E73
:103D100037370140130707C0630CE502370700403F
:103D20006308E502130707406304E5023717004004
:103D300013070780630EE50037170040130707C01D
:103D40006308E50093F7F7F5CD8F93E7070139A0F6
:103D500093F7F7FDB3E7070193E70701231CC500BD
:103D60002310F502828083570500C207C1833737CD
:103D70000140130707C06306E502370700406302EE
:103D8000E50213070740630EE500371700401307ED
:103D900007806308E50037170040130707C0631763
:103DA000E50093F7F7F803D72500D98F93F7F7CFFE
:103DB000C207C18303D76500D98F2310F50083D7CD
:103DC00045002316F50283D705002314F502B73703
:103DD0000140938707C06306F5008547231AF50065
:103DE000828083C785002318F502C5BF835705026B
:103DF000C207C183F99BC207C1832310F502035791
:103E0000050242074183035645004206418283571B
:103E10008501C207C18393F7C7F883D60500D58F04
:103E2000759B83D68500558F83D62500558FB73671
:103E30000140938606C0630DD5002312C500231CE4
:103E4000F50083D76500231AF5022310E50282806E
:103E50005D9B83D6A500558F6D9B83D64500558FFE
:103E60001376F6CF83D6C500558E83D6E500558EE2
:103E7000E9B783570502C207C183BD9BC207C1834F
:103E80002310F50283570502C207C183035645007C
:103E9000420641828356850165771307F7CFF98E75
:103EA00003D70500220742074183558F93F7F7FD9B
:103EB00083D685009206C206C182DD8E83D7250097
:103EC0009207C207C183D58FB7360140938606C0DB
:103ED000630DD5002312C500231CE50003D7650040
:103EE000231CE5022310F502828093F7F7F783D6AF
:103EF000A5009206C206C182D58F93F7F7FB83D641
:103F000045009206C206C182D58FFD769386F63FA4
:103F10003378D60083D6C5008A06139606014182FF
:103F2000B366060103D6E5000A0642064182558EB5
:103F300055B783570502C207C18393F7F7EFC2074E
:103F4000C1832310F50283570502C207C1830356BC
:103F50004500420641820357C5014207418313775A
:103F6000C7F883D60500558F93F7F7DF83D6850012
:103F7000A206C206C182DD8E83D72500A207C20732
:103F8000C183D58FB7360140938606C0630DD50037
:103F90002312C500231EE50003D76500231EE5029A
:103FA0002310F5028280FD769386F67FF58F83D607
:103FB000A500A206C206C182D58F93F6F7BF83D7AC
:103FC0004500A207C207C183D58FF576FD16337869
:103FD000D60083D6C5009206139606014182B366C9
:103FE000060103D6E500120642064182558E4DB702
:103FF00003570502FD77FD17F98F2310F50283574C
:104000000502035845004208135808010356C5012C
:1040100065771307F7CF798E03D70500220742078C
:104020004183518FF976FD16FD8E83D78500B20747
:10403000C207C183DD8E83D72500B207C207C183C3
:10404000D58FB7360140938606C0630DD500231285
:104050000501231EE50003D765002310E5042310A6
:10406000F5028280F176FD163378D80083D6C5003C
:104070009A06C206C18233E80601D1BF81C98357BF
:10408000050093E717002310F50082808357050091
:10409000C207C183F99BC207C1832310F500828048
:1040A00091C9835745046177D98FC207C183231211
:1040B000F504828003574504A167FD17F98F231289
:1040C000F504828019C68357C500DD8D2316B5001F
:1040D00082808357C50093C5F5FFFD8D2316B5007B
:1040E000828083578500C207C18393F7F7F8DD8D7F
:1040F0002314B500828081C98357050093E7070820
:104100002310F500828083570500C207C18393F70F
:10411000F7F7C207C1832310F5008280835785011A
:10412000C207C183DD9BDD8D231CB5008280035750
:104130008501FD779387F77FF98FA205C205C181BD
:10414000DD8D231CB50082808357C501C207C18362
:10415000DD9BDD8D231EB50082800357C501FD77F1
:104160009387F77FF98FA205C205C181DD8D231EDC
:10417000B500828081C98357050093E7270023108B
:10418000F500828083570500C207C183F59BC207F3
:10419000C1832310F500828081C98357050093E70E
:1041A00047002310F500828083570500C207C183B2
:1041B000ED9BC207C1832310F500828083578500E1
:1041C000C207C183E19BC207C1832314F500835753
:1041D0008500DD8D2314B500828083578500C207DA
:1041E000C18393F7F7F7C207C1832314F500835700
:1041F0008500DD8D2314B50082802312B5028280F4
:10420000231AB5028280231CB5028280231EB502C8
:1042100082802310B504828083578501C207C18341
:10422000CD9BC207C183231CF50083578501DD8D1B
:10423000231CB500828003578501FD779387F73FE4
:10424000F98F231CF50083578501A205C205C181A2
:10425000DD8D231CB5008280EFC2CFAAAA842E84F4
:1042600083D52500B9E10949035644008547630019
:10427000F6048549835704008DEF83568400268514
:10428000EFF01F9C835564002685EFF0FFF88356FE
:1042900084004E86CA852685EFF07FA3835564008F
:1042A0002685EFF05FF96FC02FA9014975BF8949D5
:1042B000D1B7835684002685EFF07FA18355640033
:1042C0002685EFF05FF7835684004E86CA852685E3
:1042D000EFF01F97835564002685EFF0FFF3E1B7F9
:1042E00003554503828003558503828003554502AB
:1042F000828093C5F5FFC205C1812318B500828075
:1043000083570501ED8F0357C500F98D81C789E5F6
:1043100001458280014582800545828093C5F5FF75
:10432000C205C1812318B5008280EFC24F9F0111E1
:104330002A84AE848356050103D76500F577FD17FF
:10434000F58FD98F2318F5000356C50083D6450095
:1043500003D7850083D7A500D98ED58F7D77130726
:10436000379F718FD98F2316F50083574501C207F8
:10437000C18303D7C50093F7F7CFD98F231AF50070
:104380006800EFF0CFEAB7470140938707806306E4
:10439000F406D2468357C400C207C18763C107062B
:1043A00013971600369793173700B69798400A0769
:1043B000B3D7E70293054006B3D6B702139646007B
:1043C000370700107D17F98EB386B602958F035715
:1043D000C40042074187634007049207938727037D
:1043E00013074006B3D7E702BD8BD18FC207C18345
:1043F0002314F40005616FC0CF94E24661BF939728
:104400001600B69713973700B307D70098400607F2
:10441000B3D7E70245B7139737001307270393076E
:1044200040063357F7021D8BB367C700C1B781C978
:104430008357C5000967D98F2316F500828003577B
:10444000C500F977FD17F98F2316F500828093F5E3
:10445000F51F2312B5008280035545001375F51F23
:10446000828083570500FD8D99C1054582800145F5
:10447000828093C5F5FFC205C1812310B5008280FB
:1044800093F7F50F958385463397B6006383D7027C
:1044900089466384D702835745017D8FA181854773
:1044A000B395B70083570500FD8D01CF89ED014518
:1044B00082808357C5007D8FD5B7835705017D8FD7
:1044C000F1BF0145828005458280EFC24F85011111
:1044D0002A84854511651105EFF06FE893070020E8
:1044E000231AF1008D473ECCE1473ECE4C083715EC
:1044F000014013050580EFE0BFFE22C22314010036
:10450000231501002316010023180100A1472317DA
:10451000F1004C003744014013050480EFF0FFE048
:10452000854513050480EFF09FF005616FC06F8132
:10453000EFB25FFDAE84B289014439A8138914003B
:1045400083850400C205C1813745014013050580FC
:10455000EFF0FFEF0504CA84635C340193050004A7
:104560003745014013050580EFF0BFEF65D9F9B776
:104570004E856FB07FFC03A701813A95B7370020C5
:1045800093870758636CF500B7570020938707801F
:1045900063E8A70023A8A1803A8582807D57EDBFFC
:1045A0007D57DDBFEFB2BFF4717181450545EFF076
:1045B0002FD981450945EFF0AFD881451145EFF07E
:1045C0002FD8814513050004EFF08FD7814505658D
:1045D000EFF00FD781450545EFF06FD885451145C0
:1045E000EFF0EFD785452145EFF06FD78545414581
:1045F000EFF0EFD6854513050020EFF04FD681454B
:1046000013050040EFF0AFD58545856D13850D800E
:10461000EFF0EFD485450565EFF06FD4814509656E
:10462000EFF0EFD381451165EFF06FD38545054578
:10463000EFF0CFD481450945EFF04FD485451145C2
:10464000EFF0CFD381452145EFF04FD3814513855E
:104650000D80EFF0AFD281451165EFF02FD281458B
:1046600037050200EFF08FD1814537050400EFF0E8
:10467000EFD0854537050800EFF04FD0814537056D
:104680002000EFF0AFCF854537054000EFF00FCFAA
:10469000814537058000EFF06FCE81453705000278
:1046A000EFF0CFCD814537050008EFF02FCD8145E4
:1046B00037050010EFF08FCC054A2312410B8547D8
:1046C0003ED5930780043ED74C11371401401305A3
:1046D0000480EFE0FFE0C1494ED7894B2312710BF4
:1046E0004C1113050480EFE0BFDF4ED79147231232
:1046F000F10A4C1113050480EFE09FDE4ED72147ED
:104700002312E10A4C1113050480EFE07FDD02D78C
:104710002312310B4C1113050480EFE07FDC61495B
:104720004AD7930600022312D10A4C1113050480C4
:10473000EFE01FDB914426D7130600042312C10AC1
:104740004C1113050480EFE0BFD94AD79305000848
:104750002312B10A4811AA8513050480EFE05FD83F
:1047600026D7130500102312A10A1308410AC28597
:1047700013050480EFE0DFD64AD7930A0020231206
:10478000510B1308410AC28513050480EFE05FD581
:104790004AD7130D00402312A10B1308410AC2850A
:1047A00013050480EFE0DFD34ED7856713880780B9
:1047B000231701012312010B9308410AC685130533
:1047C0000480EFE0FFD1930780023ED72312B10BA4
:1047D0009308410AC68513050480EFE07FD026D7F1
:1047E000096B2312610B9308410AC68513050480E7
:1047F000EFE01FCF26D7116C2312810B9308410ADB
:10480000C68513050480EFE0BFCD4ED7E17C2312AF
:10481000910B9308410AC68513050480EFE05FCC35
:104820004AD785482312110B9308410AC685130500
:1048300004C0EFE0FFCA26D72312710B9308410A88
:10484000C685130504C0EFE0BFC94AD72312910AF9
:104850009308410AC685130504C0EFE07FC826D738
:1048600021472312E10A5811BA85130504C0EFE06D
:104870003FC74AD72312310B5811BA85130504C01C
:10488000EFE01FC626D7930600022312D10A581163
:10489000BA85130504C0EFE0BFC44AD7130600046D
:1048A0002312C10A5811BA85130504C0EFE05FC393
:1048B0004AD7930500082312B10A4C11130504C00E
:1048C000EFE01FC24AD7130500102312A10A4C11B2
:1048D000130504C0EFE0DFC04AD72312510B4C117F
:1048E000130504C0EFE0DFBF71494AD72312A10BC3
:1048F0004C11130504C0EFE0BFBE4AD70358E100D6
:104900002312010B4C11130504C0EFE07FBD930788
:1049100080043ED72312B10B4C11130504C0EFE005
:104920003FBC26D72312610B4C11130504C0EFE0E6
:104930003FBB26D72312810B4C11130504C0EFE0B7
:104940003FBA26D72312910B4C11130504C0EFE098
:104950003FB926D72312610B4C1137150140EFE008
:104960003FB84ED72312810B4C1137150140EFE0B1
:104970003FB74ED72312910B4C1137150140EFE092
:104980003FB6A16513050480EFE01FC8B7340020CF
:104990009384444FB73D014023A0B401C0C0239489
:1049A000840123950400930640102396D400239796
:1049B00004002398740123994401239A5401130796
:1049C0008003239BE400239C04009547239DF4006F
:1049D000373900201309894D2320B901232289008A
:1049E00023149901231509002316D9002317090060
:1049F0002318790123194901231A5901231BE900BE
:104A0000231C0900231DF9009385A40037350140BC
:104A1000EFF0AF9883D58400C840EFE05FBD8355C9
:104A2000890003254900EFE09FBC854537350140EB
:104A3000EFF0EF9CB7270600938707A83ECB231C17
:104A40000108F177FD17231DF1089307F002231EDB
:104A5000F108231FA1092310810B4C093764004082
:104A600013050480EFE0FFBB854513050480EFE0EC
:104A70001FCD23150108231801082317510993049A
:104A8000F008231491089567938707E22316F1082D
:104A90002C013714004013050480EFF0CFAC82DE08
:104AA00002C102C393070007231CF106231D41071F
:104AB00023107109AC1813050480EFF02FB3AC1864
:104AC00013050480EFF0EFBAAC1813050480EFF083
:104AD0004FC6AC1813050480EFF08FD18545130540
:104AE0000480EFF0EFDB814513050480EFF00FE366
:104AF000814513050480EFF08FE3814513050480A1
:104B0000EFF08FE4814513050480EFF00FE5854554
:104B100013050480EFF02FDE854513050480EFF0C8
:104B2000EFD5231A0106231731072319510723163E
:104B300091069D67938707532318F106EC103705FC
:104B40000040EFF04FA2854537050040EFF0AFDAA7
:104B5000854537050040EFF02FE4854537050040D7
:104B6000EFF04FE12311010623140106231351072F
:104B700023109106130B0B71231261078C10138500
:104B80000DC0EFF04F9E854513850DC0EFF0AFD6F9
:104B9000854513850DC0EFF02FE082CA82CC231E1D
:104BA0000104231C4105CC0813850DC0EFF0CFEAAA
:104BB000231701049307B0022306F104A30641055D
:104BC000230741058547BEC8E800EFE01FCA9307E9
:104BD00090022306F104E800EFE03FC905469D4539
:104BE00013850DC0EFF00FCE9305000513850DC0A2
:104BF000EFF02FCF914513850DC0EFF02FDC93051B
:104C0000000813850DC0EFF04FDD82C082C282C460
:104C1000F167938707203EDE930700302314F104E9
:104C2000B1472313F1046C1837540040130504C036
:104C3000EFF0AFEF8545130504C0EFF04FFF31658E
:104C4000EFE0DFDD02CE02D002D202D602D802DAD5
:104C500002DCB7070E003ED4230841036C0837245A
:104C6000014013050440EFE0FF8085451305044033
:104C7000EFE0DF8501454D616FB03F8B411102C60A
:104C800002C4371702401C43C166D58F1CC3B71737
:104C900002409C4337070200F98F3EC4B2478507A4
:104CA0003EC6A24789E732478567E312F7FEB7178A
:104CB00002409C431397E700635A070085473EC4B0
:104CC000224785476306F7004101828002C4CDBFB9
:104CD000B7170240D843D8C3D843D8C3D843D8C3A2
:104CE000D843B706C1FFFD16758FD8C3D843B706A2
:104CF0003D00558FD8C39843B7060001558F98C320
:104D0000B71702409C4313976700E35B07FEB71792
:104D10000240D843719BD8C3D84313672700D8C338
:104D2000B7170240DC43B18B2147E39BE7FE69BF25
:104D3000EFB2EFFEEFF09FF46FB0BF80EFB22FFE47
:104D4000B717024098431367170098C3D843B706B4
:104D5000FFF8758FD8C39843B706F7FEFD16758F19
:104D600098C39843B706FCFFFD16758F98C3D843C8
:104D7000B70681FFFD16758FD8C337079F0098C708
:104D8000EFF01FFB6FB0EFFBB7170240DC43B18BB6
:104D900011476387E7042147638BE70481CBB7178B
:104DA0007A009387072023AAF18039A0B7177A00E9
:104DB0009387072023AAF180B7170240DC43918331
:104DC00013F7F700B707002093870701BA9783C648
:104DD00007009387418198433357D70098C3828057
:104DE000B7177A009387072023AAF180F1B7371706
:104DF00002405C435843C166758FC983BD8B8907E8
:104E0000C5466382D7021DEB374702400327078060
:104E1000418B01CF37177A0013070720B387E702CA
:104E200023AAF18051BFC947F9BF37173D001307C7
:104E30000790B387E70223AAF180BDBF371702406E
:104E400058439316E70063DB060037173D0013074E
:104E50000790B387E70223AAF180B9BF37177A001A
:104E600013070720B387E70223AAF180B1B71DCD4E
:104E7000EFB2EFEAAA8437350020130485521306F7
:104E800084009305440013058552E1221C40370736
:104E90000080B98F1CC05440358F58C09CC05C4006
:104EA000DCC01C449CC401456FB0AFE9054582805D
:104EB000EFB2EFE6AA8437350020130445531306FA
:104EC000840093054400130545531D2C1840B70773
:104ED00000803D8F18C05440B58F5CC0DCC098C0C6
:104EE0001C449CC401456FB0CFE5EFB24FE3AA84E8
:104EF000373900201304095113050951D121835773
:104F00000400B307F040035724003307E0402310A8
:104F1000E4002311F4001305095131231C449CC003
:104F20005C44DCC01C489CC401456FB08FE1EFB20B
:104F30000FDF2A840441B7E7000083A54764268574
:104F4000EF50407B6341A006B7E7000083A54764AC
:104F50004840EF50207A634BA004B7E7000083A5D8
:104F600047640844EF5000796344A004B7E70000A9
:104F700083A547644844EF50E0776354A00005459B
:104F800025A0A6850145EF00605A4C400545EF007D
:104F9000E0590C440945EF0060594C440D45EF00C1
:104FA000E058014511A005456FB0AFD90545EDBFEB
:104FB0000545DDBFEFB2AFD68545EFE0CFAF19E1D4
:104FC0006FB02FD80D45EDBFEFB26FD54111A307DC
:104FD000A10085451305F100EFE00FA801E54101AF
:104FE0006FB02FD60945E5BFEFB26FD32A84EF002B
:104FF000902708C001456FB0CFD4EFB24FD28145A2
:1050000013058006EFD03FEA1305B006EFD05FF13D
:105010000145EFD0FFF0EFD0DFF3814513058006A7
:10502000EFD07FE86945EFD0BFEF1545EFD05FEFD8
:10503000EFD03FF2814513058006EFD0DFE67145E2
:10504000EFD01FEE4145EFD0BFEDEFD09FF06FB036
:105050004FCFEFB22FCBAA8A2E8AB2898145130592
:105060008006EFD05FE41305B003EFD07FEBEFD005
:105070005FEE994513058006EFD03FF3EFD07FF048
:1050800013198500420913590941EFD09FEF4205DA
:1050900041853369A900EFD0DFEE93148500C20487
:1050A000C184EFD01FEE42054185C98CEFD07FED62
:1050B0002205131405014184EFD0BFEC4205418560
:1050C000498C4A85EF50705B37E90000832589647D
:1050D000EF50607323A0AA002685EF50105A832555
:1050E0008964EF5040722320AA002285EF50F058C7
:1050F00083258964EF50207123A0A9006FB0CFC32E
:10510000EFB26FBFAA8B2E8BB28981451305800643
:10511000EFD07FD913053004EFD09FE0EFD07FE3CD
:10512000994513058006EFD05FE8EFD09FE513198E
:105130008500420913590941EFD0BFE4420541857A
:105140003369A900EFD0FFE393148500C204C18442
:10515000EFD03FE342054185C98CEFD09FE21314A5
:10516000850042044184EFD0DFE142054185498C4E
:105170004A85EF509050EF50B07D37E9000003268C
:10518000096583264965EF30D0252A8AAE8AB7079C
:10519000002003A5072BEF50B07B2A86AE865285F0
:1051A000D685EF40A067EF60600523A0AB002685A1
:1051B000EF50B04CEF50D07903260965832649653E
:1051C000EF3030222A8AAE8AB707002003A5C72A0B
:1051D000EF5010782A86AE865285D685EF4000645F
:1051E000EF60C0012320AB002285EF501049EF5043
:1051F00030760326096583264965EF30901E2A84A0
:10520000AE84B707002003A5472BEF5070742A86A1
:10521000AE862285A685EF406060EF50307E23A0E9
:10522000A9006FB0CFB0EFB2EFAD411181451305CA
:105230008006EFD05FC71305B006EFD07FCE0145E3
:10524000EFD01FCEEFD0FFD0814513058006EFD001
:105250009FC56945EFD0DFCC1545EFD07FCCEFD0AF
:105260005FCF814513058006EFD0FFC36D45EFD0BA
:105270003FCB2145EFD0DFCAEFD0BFCD9304000074
:105280002689A6891307007D9307F7FF139407016A
:1052900041841DCB50002C006800EFF07FE6B24542
:1052A0004E85EF407063AA89A2454A85EF40D062DF
:1052B0002A8992452685EF403062AA841305803EF4
:1052C000EFE0CF842287C9B737E4000083258465E7
:1052D0004E85EF500017B707002023A8A72A832583
:1052E00084654A85EF50E015B707002023A6A72A5A
:1052F000832584652685EF50C014B707002023AAB4
:10530000A72A41016FB04FA3EFB26FA1EFF0BFF139
:10531000EFF0BFCE6FB0EFA2EFB26FA081451305E3
:105320008006EFD05FB81305A006EFD07FBF014520
:10533000EFD01FBFEFD0FFC1814513058006EFD02E
:105340009FB613057003EFD0BFBD0945EFD05FBD19
:10535000EFD03FC0814513058006EFD0DFB41305C1
:10536000B006EFD0FFBB0145EFD09FBBEFD07FBEB3
:1053700081457945EFD03FB30945EFD07FBA01456C
:10538000EFD01FBAEFD0FFBC81457945EFD0BFB158
:105390000145EFD0FFB813050007EFD07FB8EFD07D
:1053A0005FBB81457945EFD01FB00545EFD05FB7B2
:1053B00013050002EFD0DFB6EFD0BFB96FB06F9822
:1053C000EFB2EF952A8481457945EFD0DFAD0D45E9
:1053D000EFD01FB5EFD0FFB799457945EFD0FFBCAF
:1053E000EFD03FBA93148500EFD0BFB94205418595
:1053F000458D2310A400EFD0DFB893148500EFD0C3
:105400005FB842054185458D2312A400EFD07FB7D8
:1054100093148500EFD0FFB642054185458D2311D9
:10542000A4006FB00F92EFB28F8F2A84031505008E
:10543000EF40F03CB7E7000003A6076683A6476687
:10544000EF40C03DB7E4000003A6846683A6C466AF
:10545000EF302079EF50905A08C403152400EF4034
:10546000103AB7E7000003A6076783A64767EF3047
:10547000400403A6846683A6C466EF308076EF50AE
:10548000F05748C403154400EF40703703A6846604
:1054900083A6C466EF30E074EF50505608C86FB072
:1054A0004F8AEFB2CF8781450145EFD05FB9814583
:1054B0000545EFD0DFB881450945EFD05FB881459C
:1054C0000D45EFD0DFB7930540060145EFD03FB75C
:1054D000930540060545EFD09FB693054006094564
:1054E000EFD0FFB5930540060D45EFD05FB537A56A
:1054F000070013050512EFD07FE181450145EFD08C
:105500001FB481450545EFD09FB381450945EFD0D4
:105510001FB381450D45EFD09FB237450F001305EE
:105520000524EFD0BFDE01456FB0AF818D4763EA40
:10553000A708EFA2DFFEAE842A84B7E7000083A5A8
:1055400047642685EF50001B634FA006B7E70000B5
:1055500083A587672685EF50002B85476305F402F6
:1055600009C88947630BF4028D476302F4040145BF
:10557000A1A8EF50300B93150501C1810145EFD073
:105580001FAC014591A0EF50F00993150501C181B1
:105590000545EFD0DFAA014505A8EF50B0089315E7
:1055A0000501C1810945EFD09FA9014531A8EF5000
:1055B000700793150501C1810D45EFD05FA8014526
:1055C00021A00545828005456FA0BFF7EFA23FF5FA
:1055D000B70700209387872B35472380E700854650
:1055E000A382D70009472382E700A381D7009D4605
:1055F000A380D7002381E700EFF01FD1EFF0DFD1C8
:105600000521EFF01FEA01456FA0BFF3EFA23FF1C4
:105610004111136505F82306A100A30601007400DB
:105620000946B685373500201305854DEFD03F80FC
:105630000345D10041016FA0DFF0EFA25FEE411101
:105640001375F5072306A100A306B100814609469C
:105650006C00373500201305854DEFD04FFD41011B
:105660006FA03FEEEFA2BFEB2A84EFF03FFAAA84CF
:10567000130514001375F50FEFF05FF92205458D42
:10568000420541816FA0FFEBEFA27FE9AA84EFF012
:10569000FFF72A84138514001375F50FEFF01FF739
:1056A00022054205418542044184418D6FA07FE976
:1056B000EFA2FFE613058008EFF0DFFA3734002091
:1056C000130404542310A4001305E008EFF09FF91D
:1056D0002313A4001305A008EFF01FFB2311A4005F
:1056E0001305C008EFF05FFA2312A40013050009A8
:1056F000EFF09FF92314A40013052009EFF0DFF861
:105700002315A40013054009EFF01FF82316A40089
:1057100013056009EFF05FF72317A4001305800954
:10572000EFF09FF62318A4001305A009EFF0DFF5B2
:105730002319A4001305C009EFF01FF5231AA400D4
:105740001305E009EFF05FF4231BA4006FA07FDFD7
:10575000EFA2FFDCAA84EFF07FEB2A84138514000C
:105760001375F50FEFF09FEA2A891385240013754E
:10577000F50FEFF0BFE94204220933642401418DA3
:105780006FA03FDCEFA2BFD92A841305A00FEFF072
:105790003FFC118508C06FA0DFDAEFA25FD82A8432
:1057A0001305700FEFF0DFFA118508C06FA07FD9E5
:1057B000EFA2FFD693573540373700201307075421
:1057C0008356070013961600918F03162700B387A0
:1057D000C702AD871185158D3305A50231850317E5
:1057E00047003305E50239853E95B707002023A021
:1057F000A72C931725003E95130505082185EF502A
:10580000C067B7E7000083A54764EF4090436FA0EF
:105810005FD3EFA2DFD0B707002083A5072C93D773
:10582000F5418576938606C0AE96B3B5B600FD17F2
:10583000BE95B387D5028607338ED60233B7D6021C
:10584000BA97B73800209388085403960801935EEE
:10585000F6413387C702B38ECE0376973308CE0264
:105860003336CE02B30EC7000396E8001357F64155
:105870003307D7023383C5021A973303D602333670
:10588000D60232971356F3004607518F46031A98F3
:105890003333680076973306E3000393C8000E03A2
:1058A00032930396A800935EF6413387C702B3870D
:1058B000CE033E97B307CE02333ECE027297131645
:1058C0008701A183D18F2187039E88001356FE4153
:1058D0003306D602B385C5032E96B305DE02333EEA
:1058E000DE02B306C60113D64501B206D18E139669
:1058F000C5003E96B337F6003697BA97A166BE96B6
:1059000083D76800B386F602B337F602BE9613D685
:105910001640FD86B367D60063810710B7051000F7
:10592000898D93D71540FE0533880541B3B5050130
:1059300033836740B305B3400565130555C3B3858D
:10594000A502B337A802BE953305A802EF20E07880
:1059500037380020130808548318680113D6F8411B
:10596000939735019356D500DD8E93D7D5403306F6
:10597000D602338717033A963383D802B3B8D802D6
:105980004696338767023306D6023297B38766029C
:10599000B3B66602369793167700E583D58F935694
:1059A00097418318480113D6F8413306A60233877E
:1059B000B8023A963387A802B3B8A802469693185D
:1059C000D6004D8333E7E8004D86AA9733B5A7008C
:1059D000B6952E95B385E700B3B7F5003295AA9733
:1059E00013978701A181D98DA1870315280113572A
:1059F000F5419356C5011207558F12052E95B33503
:105A0000B500BA97BE95EF508060B7E7000083A558
:105A1000C767EF4010236FA0DFB213050000E5BF9A
:105A2000EFA2FFAFEFF0DFC881451305500FEFF095
:105A3000DFC09305700B1305400FEFF01FC0375503
:105A400002001305059FEFD07F8C6FA09FAFEFA2E0
:105A50001FAD41116800EFF0FFD23245EFF05FD586
:105A600041016FA01FAEEFA29FAB4111EFF03FFECF
:105A70006800EFF09FD23245EFF0BFD941016FA02F
:105A80005FAC01A001A0EFA29FA9597182D282D47C
:105A900082D682CC82CE82D082C682C882CA1309C4
:105AA0000000CAC4CA8482C082C2014402C402C6C1
:105AB00002C802CA02CC02CE02D002D202D402D65E
:105AC00002D802DA02DC02DEA800EFF0EFD1C81043
:105AD000EFF0EFB9A808EFF0AFBDE800EFF0EFC0CE
:105AE00096573EC4A6573EC6B6573EC8E6473ECA7E
:105AF000F6473ECC86573ECEB6473ED0C6473ED24E
:105B0000D6473ED44AD626D886473EDA96473EDC6C
:105B1000230E8102B707002003A6472D2C00014564
:105B2000EFA0BFB21D45EFA09FB855B7EFA23F9FB2
:105B3000357182D482D682D882DA82DC82DE02C1DA
:105B400002C302C502C702C902CB02CD02CF82C284
:105B500082C482C682C882CA82CC82CE82D082D2DD
:105B600002D002D202D402D602D802DA02DC02DE6D
:105B700082C002C802CA02CC231E0100A307010092
:105B800002C4014405A0B707002003A6072D0C108E
:105B90000145EFA09FAB8145B707002003A5072E65
