:100000006F20300D130000001300000013000000EB
:100010001300000013000000130000001300000094
:100020001300000013000000130000001300000084
:08003000130000007300100032
:100038000000000000000000904100009241000014
:10004800000000006A280000000000000000000016
:100058006C2800006E28000000000000000000006E
:10006800440A000000000000000200000000000038
:100078007428000076280000782800007A280000FC
:100088007C2800007E2800008028000082280000CC
:100098008428000086280000882800008A2800009C
:1000A8008C2800008E28000090280000922800006C
:1000B8009428000096280000982800009A2800003C
:1000C8009C2800009E280000A0280000A22800000C
:1000D800A4280000A6280000A8280000AA280000DC
:1000E800AC280000AE280000B0280000B2280000AC
:1000F800B4280000B6280000B8280000BA2800007C
:10010800BC280000BE280000C0280000C22800004B
:10011800C4280000C6280000C8280000CA2800001B
:10012800CC280000A4270000D02800000000000010
:080138000000000000000000BF
:10020000130181F806C216C41AC61EC822CA26CC1B
:100210002ACE2ED032D236D43AD63ED842DA46DC76
:100220004ADECEC0D2C2D6C4DAC6DEC8E2CAE6CC46
:10023000EACEEED0F2D2F6D4FAD6FED8F3220030CF
:1002400096DA9702002083A262FF23A02200F32502
:1002500010342EC003A1C181EF10606D1703002080
:100260000323C3FD03210300824273901234D6524C
:10027000739002309240A2423243C2435244E2445D
:10028000724582551256A2563257C2575258E258FA
:1002900072598649164AA64A364BC64B564CE64C0E
:1002A000764D865D165EA65E365FC65F13018107DA
:1002B0007300203013000000130000001300000042
:1002C00013000000130000001300000013000000E2
:1002D00013000000130000001300000013000000D2
:1002E00013000000130000001300000013000000C2
:1002F00013000000130000001300000013000000B2
:1003000083A2C181938202E073900234170100201E
:100310000321C1F2024182403243C2435244E244CB
:10032000724582551256A2563257C2575258E25859
:1003300072598649164AA64A364BC64B564CE64C6D
:10034000764D865D165EA65E365FC65FD652A1020A
:1003500073900230A24213018107828013000000D3
:100360001300000013000000130000001300000041
:100370001300000013000000130000001300000031
:100380001300000013000000130000001300000021
:100390001300000013000000130000001300000011
:1003A0001300000013000000130000001300000001
:1003B00013000000130000001300000013000000F1
:1003C00013000000130000001300000013000000E1
:1003D00013000000130000001300000013000000D1
:1003E00013000000130000001300000013000000C1
:1003F00013000000130000001300000013000000B1
:10040000F322003093F272FF130380181203B3E259
:100410006200711523205500130585FA10C12115BE
:10042000232005009302000063870200711523203A
:100430000500FD12D5BF71150CC1828000000000BF
:1004400000000000000000000000000000000000AC
:10045000000000000000000000000000000000009C
:10046000000000000000000000000000000000008C
:10047000000000000000000000000000000000007C
:10048000000000000000000000000000000000006C
:10049000000000000000000000000000000000005C
:1004A000000000000000000000000000000000004C
:1004B000000000000000000000000000000000003C
:1004C000000000000000000000000000000000002C
:1004D000000000000000000000000000000000001C
:1004E0000000000000000000000000000000397162
:1004F00001436EC619A0397141536AC866CA62CCFD
:100500005ECE19A0397101535AD056D252D44ED66C
:100510004AD826DA22DC06DE3301614082824111AC
:100520004AC026C222C406C68282B24D4101024D93
:10053000924C224CB24B4101024B924A224AB249A0
:100540004101024992442244B240410182803D432C
:100550002A876373C3029377F700BDEFADE5937607
:1005600006FF3D8ABA960CC34CC30CC74CC7410763
:10057000E36BD7FE11E28280B306C3408A0697027E
:10058000000096966780A6002307B700A306B70071
:100590002306B700A305B7002305B700A304B700DF
:1005A0002304B700A303B7002303B700A302B700D7
:1005B0002302B700A301B7002301B700A300B700CF
:1005C0002300B700828093F5F50F93968500D58DB3
:1005D00093960501D58D61B7939627009702000089
:1005E00096968682E78086FA9680C1171D8F3E9682
:1005F000E374C3F8A5B7EFF29FF241113AC68547FD
:1006000019C9854789C901CA19C736877C0081463F
:10061000EF00104D81473E85410125B7EFF23FF0D5
:10062000EF00306F014531BF11CD854789CD01CE37
:10063000EFF2FFEE32840146EF00C073814708C03D
:100640003E8501B785473E858280854795C10DC2AD
:10065000EFF2FFECB2878146135615003E85EF009E
:100660000078054781476303E50089473E85D1BD92
:100670003E85828085479DC515C6EFF25FEA3284CC
:10068000135615002285B684EF00500E05478D479E
:100690006318E5002285EF0030222380A400814703
:1006A0003E8545B53E858280EFF27FE70581EF10FC
:1006B000E021014579B5EFF29FE61306401F3306AE
:1006C000C5029307803E814501453356F602EF107F
:1006D00040670145BDB5EFF29FE4054401C989E9D2
:1006E000014789460146EF10406F0144228591BDC4
:1006F00005470144E39CE5FE01468145EF10D00625
:10070000F5B7B7070020938707239843636FA702C5
:10071000D043B386C7006316D50054413E85B296D8
:10072000D4C35041B306C500631CD700B7060020F0
:1007300083A686216306D70054431843B29654C15A
:1007400018C16303F50088C38280BA877DBFEFF2CA
:100750007FDB41112AC6EF00D064B706002083A7D3
:10076000862137060020938686211306C62132454E
:10077000A1EF370700209307872D93F5F7001307A4
:10078000872D81C51387F700419BB705002093850E
:10079000052323A2050098C18D65C115AE97C19BA5
:1007A00023A2070023A00700B385E7409CC21CC317
:1007B000B707002023A2B722B707002023A0B72243
:1007C000B70700804CC31CC2032A0600B377AA00F7
:1007D00085E39307F5FF3957636CF700930705012D
:1007E00013F7F70041C313F707FF410763EBE70671
:1007F000814489A022872E8461A058C15CC0113732
:100800005840B7060020938646229042B307E9403D
:1008100023A0F90063F3C7009CC2B7070020336729
:10082000EA009387872258C09843C104232004001C
:10083000050798C3EF00307393F7F400D1CB8967B5
:10084000938707807390073037A6000037A5000014
:1008500013064667930500111305856AEF70406B18
:1008600001A0BA873707002003290722930907222E
:10087000E360F9F837070020032407231307072351
:1008800050406374F6000C40B5F59442E38286F65E
:100890001440044314C33307F64093060002E3F107
:1008A000E6F63305F4009376F500A1DA89679387BD
:1008B00007807390073037A6000037A500001306A5
:1008C00046679305F00C1305856AEF70606401A01C
:1008D0002685410195B14DC1EFF27FC4B7070020D5
:1008E000032745FF83A7C7212A84B376F7009DE23B
:1008F0008967938707807390073037A6000037A574
:10090000000013064667930540121305856AEF70D1
:10091000206001A0832605FF9DC289679387078019
:100920007390073037A6000037A50000130646670E
:10093000930550121305856AEF70805D01A093C77F
:10094000F7FFF98F232AF5FEEF00B045B707002027
:10095000938707229443032744FF130504FF369728
:1009600098C34533B70700209387C72298430507EC
:1009700098C3EF00505FF1B68280B7E700E04157BF
:100980002387E7402386E740B7F700E023A007006E
:1009900023A20700814694C70147D8C783A50181D8
:1009A0001307401F814633D6E5023D4790CBD4CB99
:1009B00098C38280EFF2BFB6411102C6F3275030D0
:1009C0003EC6B2470D478D8B6384E70289679387E4
:1009D00007807390073037A6000037A50000130684
:1009E000C66C9305600B1305856AEF70605201A019
:1009F000B757002093870700BD8B9DC389679387F6
:100A000007807390073037A6000037A50000130653
:100A1000C66C9305B00B1305856AEF70604F01A09B
:100A2000A93FB7E700E0116723A0E710056723A0FF
:100A3000E710B707002023A8071EEFF07F8C0145C1
:100A4000410101B6397106DE16DC1ADA1ED82AD643
:100A50002ED432D236D03ACE3ECC42CA46C872C626
:100A600076C47AC27EC07311013489679387078088
:100A700073900730B7F700E023A20700EF001034AF
:100A800011C5B7E700E0116723A0E72089679387C6
:100A900087887390073073110134F250E252525339
:100AA000C2533255A255125682567247E2475248F7
:100AB000C248324EA24E124F824F21617300203045
:100AC00089679387078073900730B7070020938763
:100AD000071F9843050798C3828037070020130734
:100AE000071F1C438DE7EFF29FA389679387078059
:100AF0007390073037A6000037A500001306C66CB8
:100B0000930530101305856AEF70804001A0FD1732
:100B10001CC391E789679387878873900730828029
:100B20000965130505807315053082807310053043
:100B30008280930785007D575CC118C55CC51CC9C0
:100B40002320050082802328050082809841FD56DD
:100B500093078500631ED7001C49D843D8C10CC732
:100B60009CC5CCC31C4188C985071CC18280B6873F
:100B7000D4439042E37DC7FECDB7544118451C498C
:100B800098C654C3D4436393A600D8C3984323287C
:100B900005007D1798C388438280EFF25F9841116A
:100BA0002AC6393F3245005D0D3F1335140041011F
:100BB00049BAEFF2DF9632893041045D2A8401EEB2
:100BC0001C41014591E70844EF10000B2324040069
:100BD000850404DCBDB2631009024841EF6090084F
:100BE0005C4038400145BA9718445CC0E3E2E7FE38
:100BF0001C405CC0F1BF4845EF60D0063C40584403
:100C00001440B307F0403E9758C46375D7001844AA
:100C1000BA975CC489470145E31CF9FAD5D8FD149D
:100C200045BF304115C2EFF29F8F58451445AA8742
:100C3000329758C56364D700184158C52E85CC47F4
:100C4000EF6050026FF0FF8F8280EFF25F8D2A8499
:100C5000853D8344540413094402E204E18463455E
:100C60009002FD57A302F4048D3D993D8344440452
:100C700013090401E204E18463449002FD57230256
:100C8000F404A13D6FF0FF8B5C50E1DF4A85EF007B
:100C9000905F19C1EF00D07BFD14E204E184C1B77D
:100CA0001C48E9DF4A85EF00105E19C1EF00507A59
:100CB000FD14E204E184C9B7EFF27F8641111DE122
:100CC0008967938707807390073037A6000037A5A0
:100CD000000013060670930500111305856AEF7076
:100CE000202301A05C5D2EC62A84BDC33841B3B762
:100CF000E702B9EFF1333040585C1440232C040272
:100D0000B307E602B24554C03387F600918FB69719
:100D10005CC4FD572302F40418C4A302F40495E153
:100D20001C4899CB13050401EF00F05511C5B7E736
:100D300000E0116723A0E7204D33054541016FF026
:100D40005F8013050401F53313054402DD33EDB76D
:100D50008967938707807390073037A6000037A50F
:100D6000000013060670930550141305856AEF7092
:100D7000201A01A0EFF2AFFA411121C1B3B7A502C9
:100D8000AA8485EF3305B502930770FB63E7A702DA
:100D9000130585042EC6653A2A8401CDB245AA877B
:100DA00099C1930785042CC01CC044DC854522856D
:100DB0002137228541016FF0CFF88967938707803B
:100DC0007390073037A6000037A5000013060670A1
:100DD0009305601C1305856AEF70801301A0EFF284
:100DE0008FF1011132C61DE18967938707807390E7
:100DF000073037A6000037A50000130606709305DC
:100E0000E0321305856AEF70A01001A02A842E89B4
:100E1000B6848DE53C419DC38967938707807390B5
:100E2000073037A6000037A50000130606709305AB
:100E3000F0321305856AEF70A00D01A08947639811
:100E4000F402585C85476304F7028967938707803B
:100E50007390073037A6000037A500001306067010
:100E6000930500331305856AEF70800A01A0EF0037
:100E7000F05E15E5B247014C85C789679387078007
:100E80007390073037A6000037A5000013060670E0
:100E9000930530331305856AEF70800701A0014C7C
:100EA000094BFD59930B040137EA00E0916AADA0AC
:100EB000B24781E71D31014549A863150C00280898
:100EC000EF00304B1939EF00C06DDD3E834744041D
:100ED000E207E18763943701230204048347540443
:100EE000E207E18763943701A3020404FD366C0036
:100EF0002808EF00704935E5E136185C5C5C631941
:100F0000F704E13EB2455E85EF00102C2285353BAB
:100F1000EF00700521C5054C6536185C5C5C6364A8
:100F2000F700E39764F92686CA85228559315C501B
:100F300089C713054402EF00103511C5B7E700E07B
:100F4000116723A0E720513E054505616FF02FDEB4
:100F500069362285DD39EF00100175BF23205A2143
:100F60005DBF2285DD31EF001000B1B7EFF2AFD8E1
:100F7000011132C61DE1896793870780739007309E
:100F800037A6000037A5000013060670930510551C
:100F90001305856AEF60D07701A02A84AE898DE5BC
:100FA0003C419DC38967938707807390073037A6BC
:100FB000000037A500001306067093055055130571
:100FC000856AEF60F07401A0EF00504915E5B24763
:100FD000014985C78967938707807390073037A6D3
:100FE000000037A50000130606709305A0551305F1
:100FF000856AEF60F07101A001497D5A930A4402AD
:1010000037EB00E0916B9DA0B24781E7F9340145D1
:1010100061A0631509002808EF00B0357D3C51231D
:10102000453483474404E207E18763944701230280
:10103000040483475404E207E18763944701A30251
:101040000404613C6C002808EF00103431ED228567
:10105000A93631C5B2455685EF0010172285F53601
:10106000EF00607019E123207B210549913C045C6D
:10107000C1DCCE852285FD146D3604DC1C4899CB7D
:1010800013050401EF00302011C5B7E700E0116738
:1010900023A0E7209934054505616FF04FC92285EB
:1010A0006D36EF00406CD1B722854536EF00A06B5E
:1010B0002285E5345DD9A1BFEFF26FC641111DE174
:1010C0008967938707807390073037A6000037A59C
:1010D0000000130606709305307E1305856AEF60E5
:1010E000306301A02AC6EFF0BF9D3245085D2AC6D5
:1010F000EFF0BF9E324541016FF0AFC415E5EFF24E
:101100000FC28967938707807390073037A6000066
:10111000856537A5000013060670938585AC130519
:10112000856AEF60F05E01A09DCD37360020930602
:10113000862D814701471306862D214883A8460046
:101140006398A80093173700B2978CC3C8C321A82F
:1011500091E783A8060063930800B6870507A106F8
:10116000E31E07FDFDF38280EFF26FBB41112A847D
:101170002EC632C4EFF0DF94834744047D572246E5
:10118000E207E187B2456394E70023020404834742
:1011900054047D57E207E1876394E700A302040447
:1011A00032C62EC4EFF07F931C5CA245324689E71D
:1011B00013054402EF00D0052285EFF01FA941017D
:1011C0006FF02FB8370700201307C7231C43944341
:1011D000B70700209387C72581E67D5798C3828093
:1011E000184358471843DDBFEFF2CFB1370900204D
:1011F000B70700209304892383A9C7262A849C402B
:1012000088404111A380070611052EC6EFF0FF9616
:101210007D5793078923B245631CE40295C9B7370C
:1012200000209387073E9440D84398C610479440C7
:10123000D0C694401047910654C29440910614C7FA
:1012400098405CCB9843050798C341016FF0CFAE3F
:1012500098434E9440C3637B340137070020032535
:1012600007248C439105EFF07F8EC5B73707002028
:101270000325C7238C439105EFF05F8DB70700204E
:101280009387C7259843E372E4FC80C37DBFEFF2E8
:101290006FA737340020B70900201304443F370AF2
:1012A0000020938489249C40EDDFEFF07F815C4433
:1012B00003A9C70013054900EFF03F8C13074A2428
:1012C0001C43FD171CC39C40FD179CC0EFF0FF8022
:1012D00003250903EFF02FE04A85EFF0CFDFD1B708
:1012E000EFF26FA113192600AA8A4A85AE89368BC0
:1012F000BA8B3E8AEFF0AFC505C5AA841305400638
:10130000EFF0EFC42A8411C904D981479306000283
:10131000639A0900230A050225A02685EFF0AFDBBA
:101320007D55D1AA3387F900030707003306F4007F
:10133000230AE60201C78507E396D7FEA309040442
:10134000994763F477038967938707807390073021
:1013500037A6000037A50000130686739305703981
:101360001305856AEF60D03A01A0930944004E85C9
:1013700023267403232A7405232C0404EFF0AFFC06
:1013800013058401EFF02FFC1D471305C9FF330738
:101390007741269500C818CC40D0230E0404A30E34
:1013A0000404230F0404A30F040423000406A30071
:1013B00004065A86D6854199EFF08F8408C06304ED
:1013C0000A0023208A00EFF0AFEFB70700209387D1
:1013D000472498433709002037350020050798C374
:1013E000130789231843370A00201309892393041C
:1013F0008531130A8A266312071023208900984337
:1014000085476318F70813058531EFF08FF21385D0
:101410004401EFF00FF213858402EFF08FF1138592
:10142000C403EFF00FF113850405EFF08FF013857F
:101430004406EFF00FF013858407EFF08FEF373598
:101440000020130B453A1305453AEFF08FEE373580
:101450000020930A853B1305853BEFF08FED373570
:1014600000201305C53CEFF0CFEC37350020130505
:10147000453FEFF00FEC373500201305053EEFF048
:101480004FEBB707002023AE6723B707002023A048
:101490005725B7070020938707259843050798C36A
:1014A00037070020130747255C54144363F3F60005
:1014B0001CC35147B387E702BE94DC4098471CC465
:1014C00058C498472322370123A437019C4044C8BD
:1014D00085079CC0EFF06FE083270A00054581CFA8
:1014E00083270900D8575C546377F700B7E700E01B
:1014F000116723A0E7206FF08F8383270A00D1FBB9
:1015000083270900D8575C54E3E5E7F823208900D6
:1015100049B7EFF2CF80B7070020B7A50000371515
:1015200000009387872501478146130600109385A5
:10153000C5751305E5286D330544631E8502EF006C
:101540005065631A85028967938707807390073017
:10155000B70700207D5723AEE724B707002023A458
:10156000A726B707002023A60726EFF0AFC483A75E
:1015700041806FE01FFDFD57E31BF5FE89679387F0
:1015800007807390073037A60000856537A50000F7
:1015900013068673938505841305856AEF605017DB
:1015A00001A0B70700209387C7249843050798C375
:1015B0008280B707002003A5C7268280B7070020D6
:1015C00083A7C72463980718EFE27FF5B7070020C9
:1015D0009387C7268043050480C339E8B7070020F6
:1015E0009387C7239843184305C789679387078064
:1015F0007390073037A60000856537A500001306F5
:101600008673938575AC1305856AEF60701001A031
:1016100037070020130707249443104390C3B707EC
:10162000002014C3938707269843050798C3593EA3
:10163000370600209307C6259C4337370020B7059F
:1016400000201306C625130787319385852301459E
:101650006375F4029C41D146DC57B387D7023E97AD
:101660001843854763F3E7000545B707002083A7C4
:10167000072791C305456FE0DFEC370E0020B70E5A
:101680000020514F9307CE239443944281E6FD57A7
:101690001CC2C9B79C43DC47DC47D4436374D40005
:1016A00014C24DBF83A8870003A8C700D44B13837F
:1016B000470023A408012322180183A8460063944D
:1016C000680023A2060103A8060023AA07007D18CC
:1016D00023A00601945795CA03A8C70183A807024F
:1016E00083AF46002324180183A8070223A2080120
:1016F0001388870163940F0123A2160103A8060033
:1017000023A407027D1823A0060193864E2503A873
:10171000C70283A8060063F4080123A00601B306EC
:10172000E803BA9683A8460083AF880023A4170174
:1017300023A6F70183AF880023A26F0023A46800CB
:10174000D4CB9C4285079CC29C41DC57E36CF8F2E9
:1017500005450DBFB70700209387472698430145ED
:10176000050798C38280EFE2FFD9370400201304F5
:10177000C4241C40411185E78967938707807390D3
:10178000073037A60000856537A50000130686736D
:101790009385358B1305856AEF60807701A0EFF0A4
:1017A0002FB21C40FD171CC01C4089CB01452AC626
:1017B000EFF0AFB2324541016FE01FD8B70700200C
:1017C00083A74724E5D7B736002037350020814767
:1017D0009386C63C370F002013058531D148370367
:1017E0000020370E0020854E59A8DC46DC47CC4F40
:1017F0009053985790C503A807022322B8000328E6
:101800004700938587016313B80050C3104323A496
:1018100007027D1610C38C47D047D84B138847006A
:1018200090C54CC24C436393050150C3104323AA97
:1018300007007D1610C313074F25D0570C4363F3E1
:10184000C50010C3330716032A974C4383AF8500A6
:101850008CC723A6F70183AF850023A20F0123A421
:1018600005010C43D8CB85050CC31307832318430C
:1018700058576366E60013070E272320D7019842C6
:101880002DF799C3EFF01F94B70700201387472661
:1018900004431384472691CC370900208549393BFE
:1018A00009C59307092723A03701FD14EDF823206C
:1018B0000400B707002083A70727E38907EEB7E7EF
:1018C00000E0116723A0E7200545D5B519E5B7E786
:1018D00000E0116723A0E7208280EFE25FC4B70732
:1018E000002083A7C72441119DC389679387078080
:1018F0007390073037A6000037A5000013068673E3
:10190000930590541305856AEF60806001A02AC694
:10191000493932458145EFF03F8DB13511E5B7E7E3
:1019200000E0116723A0E72041016FE09FC1B707E6
:10193000002003A7C724B70700209387072701C704
:10194000054798C3828023A00700B70700201387AC
:101950004725184313864725B737002093878731DB
:101960005148B3060703B385D700884115C5C84160
:10197000A106BE964841C8C16314D5005441D4C1E4
:10198000D146B306D702B697DC43D447B707002049
:1019900023ACD72218C2828015E7EFE25FB88967CF
:1019A000938707807390073037A60000856537A5B9
:1019B000000013068673938525C01305856AEF60C2
:1019C000205501A07D1771BFEFE27FB505E589675E
:1019D000938707807390073037A60000856537A589
:1019E0000000130686739385C5C11305856AEF60F1
:1019F000205201A0B70700202E8483A58723E1058C
:101A0000EFF0CF9485452285EFF00FFE6FE07FB3B6
:101A1000EFE2FFB02A8705E5896793870780739017
:101A2000073037A60000856537A5000013068673CA
:101A3000938525C51305856AEF60804D01A0B70722
:101A400000209387872354432E858C4303A8860068
:101A5000D4CD8C4323A0050303A807008C4661085E
:101A600023A2050103A807009C43610823A40601E3
:101A700098D71C4385071CC311C27D55B285EFF072
:101A8000AFF66FE01FAC5C45DC4795E7EFE23FA99E
:101A90008967938707807390073037A600008565B4
:101AA00037A5000013068673938525C81305856A3C
:101AB000EF60004601A0D04F94539857938587015B
:101AC00014C6D0C250436313B60054C3144323A4B6
:101AD0000702FD1614C3370700200327C724D45775
:101AE00025EF8C47D047D84B90C5D04748434CC2D0
:101AF000938547006313B50050C3104323AA070022
:101B00007D1610C337070020130747251043637362
:101B1000D60014C351473386E60237370020130737
:101B2000873132975043084690C7C8C708464CC112
:101B30000CC6D8CB1C43014585071CC3B707002042
:101B400083A78723DC5763F8D700B7070020054732
:101B500023A8E72605458280373700201307C73CB6
:101B600050430846D0CF88D308464CC10CC698D7FE
:101B7000D1B7B707002083A707261CC1B7070020ED
:101B800083A7C7265CC18280EFE27F99411105E5FA
:101B90008967938707807390073037A600008565B3
:101BA00037A50000130686739385D5CF1305856A84
:101BB000EF60003601A085E5896793870780739001
:101BC000073037A60000856537A500001306867329
:101BD0009385E5CF1305856AEF60803301A02EC69B
:101BE0002AC4EFE0FFED37070020B70700201307F6
:101BF000872383A6C7261C432245B24583C7170601
:101C000099CB1C43A38007060544EFE01FED228516
:101C100041016FE01F939C417D570144E387E7FE3C
:101C200037060020032606260328050058416307CF
:101C3000C80063E5E60023A00500F9B73386E64057
:101C4000E37BF6FE958FBA979CC12537014475BF9B
:101C5000B7070020054723A8E7268280B7070020A2
:101C600083A78726054581CBB707002003A5C72496
:101C7000133515000605828011E501458280014576
:101C80006FE03F8CEFE2BF89B707002083A787236F
:101C90002A846385A702896793870780739007303A
:101CA00037A60000856537A5000013068673938567
:101CB000F5041305856AEF60A02501A0BC4F85E7F8
:101CC0008967938707807390073037A60000856582
:101CD00037A5000013068673938505051305856AED
:101CE000EF60002301A054557849FD173CCDE388EF
:101CF000E6F8D1F7930445002685EFE01FE87C481D
:101D00001D471D8F18CC37070020130747251443A4
:101D10005CD463F3F6001CC351473387E702B7373F
:101D20000020938787310545BA97D843144718C4D4
:101D300054C41447C4C204C798435CC8050798C379
:101D400081B7EFE2CFFD411105C589679387078011
:101D50007390073037A60000856537A5000013068D
:101D60008673938565261305856AEF60601A01A066
:101D700037040020AE8432C6EFE09FD4930784235B
:101D80009C4313048423FC4F85E31C4032460547E3
:101D90002380E70611CA85453285EFF0EFC4B7E727
:101DA00000E0116723A0E720EFE03FD3EFE05FD131
:101DB0001C40E84F09C51C4089CC23AE07041C40D9
:101DC0002AC623800706EFE05FD1324541016FE06C
:101DD0004FF71307F5FFF8CFDDB7EFE24FF44111EE
:101DE00085C58967938707807390073037A6000001
:101DF000856537A500001306867393858530130526
:101E0000856AEF60E01001A005E589679387078088
:101E10007390073037A60000856537A500001306CC
:101E20008673938595301305856AEF60600E01A077
:101E30003AC636C432C22AC0EFE09FC832470245D4
:101E40001246A24619C37C4D1CC3834705060947A9
:101E50002300E506114793F7F70F6360D70429675E
:101E6000130747728A06BA9698420287784D598EB0
:101E700070CD21A0784D050778CD05476387E7042D
:101E800005452AC0EFE07FC5024541016FE06FEBD9
:101E90000947E39FE7FC0145EDB73707002003271B
:101EA000C72661DF8967938707807390073037A65D
:101EB0000000856537A50000130686739385E5331A
:101EC0001305856AEF60C00401A0144558455C49BC
:101ED0001306450098C6584554C3D4436393C600BF
:101EE000D8C39843232A05007D1798C3B70700205D
:101EF000938747255855944363F3E60098C3D14729
:101F0000B306F702B737002093878731B697D443DB
:101F10008C4614C54CC58C46D0C190C694435CC950
:101F2000850694C31C5585C789679387078073907E
:101F3000073037A60000856537A5000013068673B5
:101F40009385D5341305856AEF50907C01A0B707BF
:101F5000002083A78723DC57E3F4E7F2B7E700E02C
:101F6000116723A0E72029BFEFE26FDB411105E5F0
:101F70008967938707807390073037A600008565CF
:101F800037A50000130686739385C5401305856A3F
:101F9000EF50107801A085C58967938707807390FB
:101FA000073037A60000856537A500001306867345
:101FB0009385D5401305856AEF50907501A02A845A
:101FC00032C6EFE0FFB58947034704062300F40655
:101FD0007C4C85077CCC8547639EE70A1C543246BF
:101FE00085C78967938707807390073037A60000FD
:101FF000856537A500001306867393853543130561
:10200000856AEF50F07001A0B707002083A7C724AE
:102010005854D1E70C4454445C4894C5544403A834
:102020004700CCC2930544006313B800D4C3944363
:10203000232A0400FD1694C3B70700209387472581
:10204000944363F3E60098C3D147B306F702B7376A
:10205000002093878731B697D44303A8860014C421
:102060002326040103A886002322B8008CC65CC87E
:102070009443850694C3B707002083A78723DC57C2
:1020800063FAE70019C285471CC2B707002005475D
:1020900023A8E726EFE09FA941016FE08FCAB73779
:1020A00000209387C73CD4438C4654CC0CD003A863
:1020B0008600930584012322B8008CC61CD44DBF32
:1020C000EFE2EFC537040020EFE09F9F13040428E0
:1020D0001C40B1E7373500201309854013058540C2
:1020E000EFE03FA5373500209304C5411305C541F6
:1020F000EFE03FA4B707002023AA27270146B70730
:102100000020C145114523AC9726EFE0BFC608C0AB
:1021100019C5B7A5000093858578EFE03FFEEFE095
:10212000DF9B6FE00FC2EFE28FBF4CC108C9AA87E7
:102130006362B602184D158E0545637BE6009385F4
:102140004700B707002003A58727EFE03FA0014520
:102150006FE02FBF6375D6000545E3FBD5FE938581
:102160004700B707002003A54727C5B7EFE22FBBFD
:102170002A84AE8432890C4CA6864A86A69522858E
:102180005D3719E16FE0EFBB1C4C2285BE941C50FB
:102190008297D5B7EFE2AFB8B707002083A74727EC
:1021A0004111AA84DC472EC6C04713054400EFE066
:1021B000DF9C83474402324613F7470011CBA685C4
:1021C00022856D371C502285829741016FE06FB7E1
:1021D000F99B2302F402FDB7EFE26FB4370400204D
:1021E0009306442798421C4391EBB707002093873E
:1021F0008727904398C390C26FE0AFB45C47FD550A
:102200008843493FF1BFEFE20FAF29694111B70A97
:102210000020B7090020370B0020B70B002013095E
:10222000497683A74A27984329CBDC47814C03ACE6
:102230000700EFF00FB7EFF0CFB783A7C9272A84C5
:102240009384C927130A0B28636CF50288C0638F37
:102250000C0283A78B2790431336160003250A0030
:10226000B3058C40EFE05FF0EFF0EFCF11EDB7E793
:1022700000E0116723A0E72001A8854C014C55BF61
:10228000A13F80C0EFF02FCE214C05A00146E367AF
:1022900085FDEFF04FCDA2856285ED3DF5B7924704
:1022A000B2458297824763DD070003250A00014695
:1022B0008A85EFE0BFCB35D582472245E3C107FED3
:1022C00022445C4895E3EFF0CFAE9C40AA8C637348
:1022D000F5001937824723A09401FD17E367FCFC42
:1022E0008A07CA979C43828713054400EFE0FF8862
:1022F000D9BF834744020C4C924693E71700230250
:10230000F4026686B6952285393D45D1834744025D
:1023100013F7470019CB1C4C924566862285BE9563
:10232000B1351C502285829749B7F99B2302F402EC
:10233000CDBF83474402F99B2302F402BDB7834714
:102340004402924593E717002302F4020CCC9DE16E
:102350008967938707807390073037A6000037A5F9
:10236000000013060679930590351305856AEF5032
:10237000303A01A0E6866686E69522856D3335B74C
:102380008347440213F727005DF72285EFE0AFD4BF
:1023900029BFEFE2CF98EFF0BFD2B707002083A7A5
:1023A00007289DE38967938707807390073037A6D6
:1023B000000037A500001306067993059011130558
:1023C000856AEF50F03401A0B7070020B7A50000E0
:1023D00037250000938747281947814613060010C8
:1023E0009385457B13056520EFE09FEF45DD6FE0AA
:1023F0004F95EFE22F9141112E84AA84B2853A8540
:102400003E8936C642C43AC2EF40A06EAA858840D3
:10241000EF40600C124788C0BA853A85EF40606D86
:10242000CA85EF40006DCA85EF40A06C0C40EF40BC
:10243000800A22482A8908C0C2854285EF40606B25
:10244000CA85EF404009AA854A85EF40603FB24601
:1024500083A904002A893685CE85EF409012CA856B
:10246000EF402069CE85EF400007B7A7000088C085
:1024700003A5077DCA85EF40D010AA850840EF402C
:10248000406708C041016FE02F8BEFE2CF862A84BE
:102490004841AE84EF40D053AE890C40832A84007B
:1024A0002A892E85EF40E0642A8AD6855685EF403A
:1024B0004064AA855285EF400002EF407051EF2042
:1024C000002A2A86AE864A85CE85EF201045EF1079
:1024D00070762A8C0840AE8CEF40904FAE894C400D
:1024E000832A84002A892E85EF40A0602A8AD68517
:1024F0005685EF400060AA855285EF30D07DEF40D1
:10250000304DEF20C0252A86AE864A85CE85EF2045
:10251000D040EF103072B7AA000003A68A7C83A6D1
:10252000CA7CB7A7000003AAC77BB7A7000083A98E
:10253000077CAA8BB7A700002E8B6285E68503A9CE
:10254000477CEF30002FEF407053504452884A8749
:10255000CE87AA869385C4002685613D03A68A7C22
:1025600083A6CA7CB7070080B3C76701BE855E85B6
:10257000EF30202CEF4090501048AA865288CE872A
:102580004A879385440113858400A5356FD03FFAAF
:102590002DC5EFD23FF72A842E89054591CD83556D
:1025A00084004840B284B689054AC92981E8484078
:1025B00083558400452901456FD01FF883450900E4
:1025C0000840EF00700708408945EF00B007E31CA2
:1025D00045FF084093050008EF00D006E30B45FFD8
:1025E00005096388090008408509EF005005A38F9D
:1025F000A9FEFD14C204C18055BF05458280EFD2FB
:102600007FF0AA84B9CD370403000904054A37696D
:10261000004093090980B70502004E85A12565FD9C
:1026200013050980854537090300B7690040592B18
:102630000509938A0980CA855685012D6DDD93951C
:102640001400528693F5E50F13850980B7640040A6
:10265000C12393840480A2852685C52B6DDD6FD0B0
:10266000BFED3704070013042408014A4DB7EFD229
:102670007FE937040010B76400402A891304040876
:10268000138A04808549A2855285E92BE31D35FF15
:10269000CA8513850480AD236FD01FEAEFD29FE671
:1026A00037040010B76400401304040893890480C1
:1026B0000549A2854E857D23E31D25FF85451385AC
:1026C000048005236FD05FE7B70600209386C628F5
:1026D00083C7060037070020130787293E9719464E
:1026E0008507B3E7C702034507002380F600828011
:1026F000EFD25FE1854537090010B7640040B709A4
:102700000020F53D01441309090493840480938952
:102710008929954A194ACA852685A92311C926857A
:10272000DD21B307340105042380A7001374F40FDF
:10273000631854018565938505802685E521E1BFF1
:10274000E31B44FD37040010B76400401304040485
:10275000938904800549A2854E852923E31D25FF21
:10276000138504808545B52919456FD0FFDCEFD26C
:102770001FDB8D47054463E4A70293074006054429
:1027800063EFB700014401ED9547B385F5023715B6
:102790000040130505809385451FEF00F024228536
:1027A0006FD03FDAEFD2BFD7375500409305505274
:1027B000130505C0EF00F03A11C5B707002083A745
:1027C000872882976FD0FFD715CDEFD25FD53759C5
:1027D0000040AA842E84130909C001E401456FD08A
:1027E0005FD683C504004A85EF00B0359305000825
:1027F0004A85EF00503609C57D1442044180F1BF7F
:102800008504EDB70545828029CDEFD25FD1B7545D
:1028100000402A892E84138504C001469305505236
:10282000EF00D02E938404C009EC375500400546D4
:1028300093055052130505C0EF00502D01456FD090
:102840005FD0930500022685EF00F0307DD9268504
:102850007D14EF00B02F42042300A9004180050938
:10286000E1B70545828001A001A001A001A001A05F
:1028700001A001A001A001A001A001A001A001A050
:1028800001A001A001A001A001A001A001A001A040
:1028900001A001A001A001A001A001A001A001A030
:1028A00001A001A001A001A001A001A001A001A020
:1028B00001A001A001A001A001A001A001A001A010
:1028C00001A001A001A001A001A001A001A001A000
:1028D00001A097E1FF1F9381E1111721002013014F
:1028E0006172178500001305A55897D5FF1F9385C2
:1028F00065711386818263FAC5008322050023A0D7
:10290000550011059105E3EAC5FE17E5FF1F130504
:10291000E59097150020938525B76377B5002320B0
:1029200005001105E36DB5FEFD42739002BC8942BE
:1029300073904280B72200009382028073A002301D
:1029400097D2FFFF9382826F93E2320073905230EE
:10295000EF10A00597220000938282A0739012349A
:10296000730020309C4513F7070113F8F70001C7E7
:10297000D8413368E80037270240145B3707000F5F
:10298000758F55EF370700208546A306D7283717E0
:1029900001406317E50003D7050035832390E50068
:1029A00083D5050013F7F50F39C318418146854ECD
:1029B0003D4F930F800293028004214E3396DE0038
:1029C000B3F8C500631116039398260033131F0153
:1029D0001343F3FF3377E300B318180133E7E8003C
:1029E0006399F70750C98506E39AC6FD18C1130716
:1029F000F00F6375B70454412146854E3D4F930F48
:102A0000800293028004414EB398CE0033F7150143
:102A10006392E8021317260001173313EF001343E4
:102A2000F3FFB376D3003317E800D98E6397F7032B
:102A3000232A15010506E319C6FD54C18280371704
:102A40000140E31FE5F4370700200347D72829DBBF
:102A500099B7E39A57F810C979B7E39D57FC232833
:102A60001501C9BFB71701406318F500B70700206B
:102A700083C7D72891C3B5810CC98280B71701409D
:102A80006318F500B707002083C7D72891C3B58125
:102A90004CC98280EFD2BFA879712A848354450043
:102AA00068082EC6F52A925737470F0013070724E8
:102AB00033D7E702C204C18093F404FCC204C1808E
:102AC000B24561651305056A131607014182D18C71
:102AD0002312940083560400C206C182F99AC206EA
:102AE000C1822310D40094416364D5068606B3D70F
:102AF000D7029146139707014183BA876373D700C2
:102B0000914705064206C2074182C1832310C402D1
:102B1000231EF4008357040003D7450083D6A50085
:102B200093E717002310F40083570400558FC20762
:102B3000C18393F757BFD98F2310F40003D78500C3
:102B400083D7C500D98F2314F40045616FD07F9FD0
:102B500003D5650031667D16631EC5020D46B3863A
:102B6000C602B3D7D702C207C1839396470199E241
:102B700093E71700A166D58F9306C0123307D702DB
:102B80009306803E3347D70205074207418323104F
:102B9000E402BDBF6546B386C602B3D7D7029166CD
:102BA000C207C183D58FD1B78357050091C593E77D
:102BB00017002310F5008280C207C183F99BC2076A
:102BC000C183C5BF8357050091C593E70710231044
:102BD000F5008280C207C18393F7F7EFC207C18374
:102BE000FDB78357050091C593E707202310F50033
:102BF0008280C207C18393F7F7DFC207C183FDB7A5
:102C00002318B5008280035505011375F50F8280E6
:102C100093F7E50F19C293E71500C207C183231884
:102C2000F5008280035705009385058091E985674B
:102C300093870780D98FC207C1832310F500828054
:102C4000FD779387F77FF98FCDBF835745010355F4
:102C5000850142055D8D6D8D220521810D8D133518
:102C600015008280411102C402C693D7C5012AC64D
:102C70003EC4A247A205A18199CBB247D1073EC667
:102C8000B247884341016D8D3335A0008280B24741
:102C9000C181E107EDB7B707002023A8A7288280EC
:102CA000371702405C439146B18B6385D700A1463C
:102CB0006386D706B7177A00938707201CC137169B
:102CC00002405C4237070020130707009183BD8B49
:102CD000BA9783C607001C41B3D7D7005CC15442E2
:102CE000A1829D8ABA9683C60600B3D6D70014C5C2
:102CF0005442AD829D8A369703470700B3D7E70059
:102D00005CC55842398393763700138781803697A4
:102D100003470700B3D7E7021CC982805C435843CE
:102D2000C166C983BD8B758F8907C5466393D7007C
:102D3000C94701EF3747024003270780418B09CF7E
:102D400037177A001307072021A837170240584386
:102D50009316E700E3D606FE37173D0013070790EA
:102D6000B387E702A1BF99C5371702405C4B5D8D61
:102D700048CB8280B7170240D84B1345F5FF798DB9
:102D8000C8CB828099C5371702401C4F5D8D08CF94
:102D90008280B7170240984F1345F5FF798D88CF91
:102DA000828099C5371702405C4F5D8D48CF828085
:102DB000B7170240D84F1345F5FF798DC8CF8280F1
:102DC000035705008D679387070483D625007D8F01
:102DD00083D70500D58F83D64500D58F83D6650070
:102DE000D58F83D68500D58F83D6A500D58F83D682
:102DF000C500D58F83D6E500D58FD98F2310F50078
:102E00000357C501FD779387F77FF98F231EF500E0
:102E100083D705012318F50082808357050091C5EB
:102E200093E707042310F5008280C207C18393F75C
:102E3000F7FBC207C183FDB72316B5008280035597
:102E4000C5008280035585006D8D3335A0008280DA
:102E50008357050037370140130707C0C207C183F6
:102E60006304E502370700406300E50213070740EB
:102E7000630CE50037170040930607806306D50012
:102E8000130707C06317E50003D7250093F7F7F88A
:102E9000D98F03D7650093F7F7CFC207C183D98FC6
:102EA0002310F50083D745002316F50283D70500CC
:102EB0002314F502B7370140938707C06316F50066
:102EC00083C785002318F5028547231AF500828001
:102ED0008357050203D6050003D82500C207C18326
:102EE000F99BC207C1832310F5028357050283565D
:102EF000450003578501C207C18342074183137709
:102F0000C7F8518F03D68500F59BC20633660601CC
:102F1000D18F37360140130606C0C1826313C50244
:102F200003D6A500DD9B03D8E500D18F03D645006D
:102F3000ED9B93F6F6CFD18F03D6C500336606011D
:102F4000D18E2312D500231CE50003D76500231A78
:102F5000E5022310F5028280835705026577130787
:102F6000F7CFC207C183BD9BC207C1832310F502FF
:102F7000835705028356450003D88500C207139680
:102F8000060183568501C18393F7F7FD758F83D6BC
:102F900005004182A206558F83D625004207418352
:102FA000B3E606019206D58FB7360140C207938675
:102FB00006C0C1836311D50483D6A50093F7F7F744
:102FC00003D8C5009206D58F83D64500C207C183BA
:102FD000920693F7F7FBD58FFD769386F63FF18E39
:102FE00003D6E500C207C183336606010A06D18E07
:102FF0001396060141822312C500231CE50003D766
:103000006500231CE5022310F50282808357050228
:1030100003D88500C207C18393F7F7EFC207C183C6
:103020002310F50283570502835645000357C50157
:10303000C20713960601420783D605004183137722
:10304000C7F8558F83D62500C18393F7F7DFB3E622
:103050000601A206D58FB7360140C207938606C087
:103060004182C1836312D504FD769386F67FF58F86
:1030700083D6A50003D8C500A206D58F83D6450008
:10308000C207C183A20693F7F7BFD58FF576FD1669
:10309000F18E03D6E500C207C1833366060112062E
:1030A000D18E1396060141822312C500231EE5002E
:1030B00003D76500231EE5022310F5028280035723
:1030C0000502FD77FD17F98F2310F502035805025D
:1030D000835645008357C501657703D6050013075E
:1030E000F7CF7D8FF9772206FD17518FB3F70701D0
:1030F00003D6250003D88500C206420733660601C1
:103100003206D18F37360140C207130606C0C1828E
:103110004183C183631BC50071767D16F18E03D692
:10312000C5001A06D18EC206C1822312D500231E05
:10313000E50003D765002310E5042310F502828023
:103140008357050091C593E717002310F50082808F
:10315000C207C183F99BC207C183C5BF835745041A
:1031600091C52167D98F2312F5048280C607C583D4
:10317000DDBF8357050091C593E707082310F500CD
:103180008280C207C18393F7F7F7C207C183FDB7F7
:1031900083578501C207C183DD9BDD8D231CB500EC
:1031A000828003578501FD779387F77FF98FA2050A
:1031B000CD8FC207C183231CF50082808357C501D0
:1031C000C207C183DD9BDD8D231EB50082800357BE
:1031D000C501FD779387F77FF98FA205CD8FC207D1
:1031E000C183231EF5008280231AB5028280EFD2AC
:1031F0000FB383560501F577FD17F58F83D665006C
:1032000003D7C5007971D58F2318F5008356C50003
:10321000FD779387379FF58F83D645002A842EC686
:10322000D58F83D68500D58F83D6A500D58F23165D
:10323000F50083574501C207C18393F7F7CFD98FB4
:10324000231AF5006808EFF0BFA5B7470140938740
:103250000780B245631DF404A2578356C400654736
:10326000B387E702C206C186984163D40604060705
:103270000356C4004206B3D7E7021307400641864F
:10328000B3D6E702B3F7E7029206635606028E074B
:1032900093872703B3D7E70213F77700B367D70005
:1032A000C207C1832314F40045616FD08FA99257E0
:1032B0006DB70A0775BF920793872703B3D7E70255
:1032C000BD8BD58FF1BF03D7250083D7050083566B
:1032D0000501D98F03D74500D98F03D76500D98F52
:1032E0007D771307F70F758FD98F2318F50082802C
:1032F00081C98357C5000967D98F2316F5008280DD
:103300000357C500F977FD17F98FC5BF13F7F50F00
:1033100085471583B395B7006319F7009307C50078
:10332000984301CED98D8CC382808946930745018D
:10333000E318D7FE93070501E5B793C5F5FFF98DAF
:10334000DDB793F5F51F2312B500828003554500C4
:103350001375F51F8280035505006D8D3335A00070
:10336000828013F7F50F85461583B397B600631374
:10337000D7020357C500F98F0357050001454207DF
:10338000418381CB0545A181B315B5006D8F3335E0
:10339000E000828089466315D70003570501E1BF2D
:1033A00003574501C9BF83A7018137177A00130767
:1033B0000720B3D7E7023707002093F7F70F230B57
:1033C000F7281307803EB387E70237070020231A48
:1033D000F7288280B7F700E0D8438146799BD8C3AD
:1033E00037070020035747293306A70290CBD4CBD9
:1033F00098431367070198C398431367170298C34C
:10340000D843058B75DF9843799B98C38280EFD2B0
:103410006F8FB7440140AE893289014493840480A0
:10342000634524014A856FD02F91930500042685BA
:103430001D3765DDB3878900838507002685050470
:10344000C205C181FD3DE9BF1387C1801C43B7366A
:103450000020938646483E95636BD500B756002002
:103460009386068063E5A60008C33E858280FD57EB
:10347000EDBFEFD2CF87597181450545EFF0BF8E83
:1034800081450945EFF03F8E81451145EFF0BF8D35
:10349000814513050004EFF01F8D81450565EFF0B0
:1034A0009F8C81450545EFF0FF8D85451145EFF077
:1034B0007F8D85452145EFF0FF8C85454145EFF037
:1034C0007F8C814513050020EFF0DF8B81451305CC
:1034D0000040EFF03F8B056A13050A808145EFF04D
:1034E0007F8A85450565EFF0FF8981450965EFF025
:1034F0007F8981451165EFF0FF8881450545EFF033
:103500005F8A81450945EFF0DF8985451145EFF078
:103510005F8981452145EFF0DF8813050A808145E9
:10352000EFF03F8881451165EFF0BF878145370592
:103530000200EFF01F87814537050400EFF07F861A
:10354000854537050800EFF0DF8581453705200008
:10355000EFF03F85854537054000EFF09F848145BA
:1035600037058000EFF0FF83814537050002EFF05B
:103570005F83814537050008EFF0BF82814537053D
:103580000010EFF01F82A9653146938585664818C3
:1035900037140140EF30106D130D80044C181305E3
:1035A00004806ADEEFF00FBCE144094B4C181305B0
:1035B000048026DE231A6103EFF0CFBA91474C183E
:1035C00013050480231AF10226DEEFF0AFB9A148FB
:1035D0004C1813050480231A110346CE26DEEFF0A3
:1035E0006FB841484C1813050480231A010342CCDC
:1035F00002DEEFF02FB7130600024C18130504800B
:10360000231AC10232CA26DEEFF0CFB593060004BA
:1036100011494C1813050480231AD10236C84ADE1A
:10362000EFF04FB4130700084C1813050480231A59
:10363000E1023AC626DEEFF0EFB2930A00104C1812
:10364000130504804ADE231A5103EFF0AFB193074C
:1036500000204C1813050480231AF1023EC426DE14
:10366000EFF04FB0930D00404C181305048026DE98
:10367000231AB1038569EFF0EFAE938909804C18E6
:103680001305048026DE231A3103EFF0AFAD930556
:1036900080022EDE130504804C18231A4103EFF03C
:1036A0006FAC896C4C18130504804ADE231A910311
:1036B000EFF04FAB116C4C18130504804ADE231A4F
:1036C0008103EFF02FAAE17B4C181305048026DE5E
:1036D000231A7103EFF00FA98545231AB1021305D0
:1036E00004C04C1826DEEFF0EFA74C18130504C0F9
:1036F0004ADE231A6103EFF0EFA64C18130504C04D
:1037000026DE231A2103EFF0EFA5F2484C1813052B
:1037100004C0231A11034ADEEFF0CFA462484C180C
:10372000130504C0231A010326DEEFF0AFA35246AF
:103730004C18130504C0231AC1024ADEEFF08FA211
:10374000C2464C18130504C0231AD10226DEEFF03E
:103750006FA132474C18130504C0231AE10226DE7C
:10376000EFF04FA04C18130504C026DE231A5103B6
:10377000EFF04F9FA2474C18130504C0231AF10223
:1037800026DEEFF02F9EF1444C18130504C026DE10
:10379000231AB103EFF00F9D4C18130504C026DE69
:1037A000231A3103EFF00F9C4C18130504C06ADE96
:1037B000231A4103EFF00F9B4C18130504C04ADE97
:1037C000231A9103EFF00F9A4C18130504C04ADE38
:1037D000231A8103EFF00F994C18130504C04ADE39
:1037E000231A7103EFF00F98C1444C1837150140AC
:1037F00026DE231A9103EFF0EF964C18371501409F
:1038000026DE231A8103EFF0EF954C18371501409F
:1038100026DE231A7103B7340020EFF0AF949384AF
:103820000443B73701409CC0416993074010DCC492
:10383000930729009CC8B707380093870720C0C0AA
:10384000DCC81164B70705009CCC80C49385A40034
:1038500037350140EFF0CFD6854537350140EFF0E1
:10386000CFDB83D58400C84013090907EFF08F9F91
:10387000B7270600938707A8BEC0B707FFBFBEC221
:1038800023168104B7070004376400409387F702CA
:103890008C0013050480BEC4EFF0CF9F1305048095
:1038A0008545EFF06FB0B70720009387F70837140E
:1038B00000403ED4B7270002938707712C101305F0
:1038C00004803ED623180102EFF08FD88C0882CCFA
:1038D00013050480CAC8231C610582CA82CEEFF09A
:1038E0002FDF8C0813050480EFF00FE78C08130519
:1038F0000480EFF0AFF18C0813050480EFF02FFC8B
:10390000130504808545EFF07F851305048081450C
:10391000EFF01F88130504808145EFF09F881305A1
:1039200004808145EFF09F89130504808145EFF005
:103930001F8A130504808545EFF0BF8313050480BB
:103940008545EFF0EFFFF16793870720375400407C
:1039500082D6BED09307003082D42316F1068C1095
:10396000B147130504C02315F10682D2EFF03F885A
:103970000C10130504C0231031032313510323112A
:10398000010223120102EFF01F940546130504C043
:1039900093055052EFF09F97130504C08545EFF053
:1039A0003F95014565616FC05FB8B7170240984306
:1039B000B706FFF841111367170098C3D8433706BD
:1039C0000200758FD8C39843B706F7FEFD16758FB2
:1039D00098C39843B706FCFFFD16758F98C3D8436C
:1039E000B70681FFFD16758FD8C337079F0098C7AC
:1039F00002C402C69843C166558F98C3B7160240E9
:103A000005679C42F18F3EC6A24785073EC4B24778
:103A100081E7A247E397E7FEB71702409C4313975D
:103A2000E7006355070685473EC632478547631D55
:103A3000F704B7170240D843B706C1FFFD16D8C335
:103A4000D843D8C3D843D8C3D843758FD8C3D84335
:103A5000B7063D00558FD8C39843B7060001558F70
:103A600098C3984393166700E3DD06FED843B71664
:103A70000240719BD8C3D84313672700D8C321479E
:103A8000DC42B18BE39EE7FE4101828002C671BF3A
:103A9000B7160240DC421146B18B13870181638562
:103AA000C70021466389C702B7177A0093870720AA
:103AB0001CC3B7170240DC43918393F6F700B707A6
:103AC000002093870701B69783C607001C43B3D72E
:103AD000D7001CC38280DC42D4424166C983BD8BBF
:103AE000F18E890745466393C700C94781EEB74603
:103AF000024083A60680C18A89CEB7167A009386D3
:103B0000062021A8B7160240D4421396E600E356D9
:103B100006FEB7163D0093860690B387D70249BFCD
:103B200015CDEFC2DF9FAA843735002013048545E9
:103B3000130684009305440013058545192A5C404B
:103B4000B70600801840B58F5CC0DCC01C44358FC0
:103B500018C098C09CC401456FC0BF9E05458280B7
:103B6000EFC2FF9BAA843735002013044546130695
:103B700084009305440013054546BD2A58401C4067
:103B8000B7060080358FB58F1CC058C09CC01C4440
:103B9000D8C001459CC46FC0DF9AEFC25F982A84E9
:103BA000373500209304C5441305C544E52ED8409D
:103BB000B70700800145B98F9CC01CC09C4458C009
:103BC0001CC46FC01F98EFC29F958347C5002A840D
:103BD00081CB8355A5004841EFE01FC323060400B5
:103BE0008347D40081CB835584000840EFE0DFBDDC
:103BF000A306040001456FC0DF94EFC25F928145C8
:103C000013058006EFE0BF9F1305B006EFE03FA667
:103C10000145EFE0DFA5EFE07FA8814513058006B1
:103C2000EFE0FF9D6945EFE09FA41545EFE03FA45D
:103C3000EFE0DFA6814513058006EFE05F9C71454C
:103C4000EFE0FFA24145EFE09FA2EFE03FA56FC08C
:103C50005F8FEFC23F8B4111AA8A2E8A130580061F
:103C6000814532C6EFE0BF991305B003EFE03FA0F6
:103C7000EFE0DFA2994513058006EFE07FA7EFE0B4
:103C8000BFA4AA84A204EFE03FA4C98CEFE0DFA3A5
:103C90002A842204EFE05FA3498CC204EFE0DFA294
:103CA0002A89C184EFE05FA2AA892685EF30E0452A
:103CB000B7A4000083A5447D42044184EF207063D3
:103CC00023A0AA002285EF30404483A5447DEF2045
:103CD00050622320AA00131589003365350142057F
:103CE0004185EF30804283A5447DEF2090603246CD
:103CF00008C241016FC05F84EFC2EFFF2A8BAE8A1A
:103D0000130580068145B289EFE07F8F13053004EB
:103D1000EFE0FF95EFE09F98994513058006EFE0EF
:103D20003F9DEFE07F9AAA84A204EFE0FF99C98C3F
:103D3000EFE09F992A842204EFE01F99498CC20486
:103D4000EFE09F982A89C184EFE01F982A8A268590
:103D5000EF30A03BEF30C047B7A4000003A6847D3E
:103D600083A6C47D42044184EF10203BB7070020A6
:103D70002A8C03A5472AAE8CEF3080452A86AE8672
:103D80006285E685EF107076EF30404F2320AB0060
:103D90002285EF308037EF30A04303A6847D83A6D1
:103DA000C47DEF108037B70700202A8B03A5072AB0
:103DB000AE8BEF30E0412A86AE865A85DE85EF1065
:103DC000D072EF30A04B23A0AA00131589003365F1
:103DD000450142054185EF304033EF30603F03A697
:103DE000847D83A6C47DEF104033B70700202A846A
:103DF00003A5872AAE84EF30A03D2A86AE862285B1
:103E0000A685EF10906EEF30604723A0A9006FC029
:103E10000FF2EFC22FEF4111814513058006EFE04D
:103E20000FFE1305B006EFE09F840145EFE03F84ED
:103E3000EFE0DF86814513058006EFE04FFC694522
:103E4000EFE0FF821545EFE09F82EFE03F8581457F
:103E500013058006EFE0AFFA6D45EFE05F81214585
:103E600093040000EFE0BF801304107DEFE01F8398
:103E70002689A6897D144204418029E037A40000E8
:103E80008325047E4E85370A0020EF20701B832592
:103E9000047E2322AA2A4A85EF20901A8325047ED5
:103EA000B709002023A0A92A2685EF207019370919
:103EB00000202324A92A41016FC00FE870002C00C4
:103EC0004800EFF07FE392454E85EF20C060A245A9
:103ED000AA894A85EF202060B2452A892685EF20ED
:103EE000805FAA840545EFF0EFCE69B7EFC22FE3FC
:103EF000EFF03FF2EFF07FD06FC0AFE4EFC22FE200
:103F0000814513058006EFE08FEF1305A006EFE073
:103F10000FF60145EFE0AFF5EFE04FF881451305EF
:103F20008006EFE0CFED13057003EFE04FF4094595
:103F3000EFE0EFF3EFE08FF6814513058006EFE049
:103F40000FEC1305B006EFE08FF20145EFE02FF222
:103F5000EFE0CFF481457945EFE06FEA0145EFE00E
:103F60000FF113054007EFE08FF0EFE02FF38145ED
:103F70007945EFE0CFE80545EFE06FEF130500026C
:103F8000EFE0EFEEEFE08FF181457945EFE02FE7CD
:103F90000945EFE0CFED0145EFE06FEDEFE00FF009
:103FA0006FC02FDAEFC2AFD72A8499457945EFE089
:103FB0002FF4EFE06FF1AA84A204EFE0EFF0458D5B
:103FC000EF20404AB7A4000003A6847E83A6C47EE7
:103FD000EF10A014EF30802A08C0EFE0EFEE2A893E
:103FE0002209EFE06FEE3365A900EF20A04703A69A
:103FF000847E83A6C47EEF104012EF30202848C094
:10400000EFE08FEC2A892209EFE00FEC3365A9007D
:10401000EF20404503A6847E83A6C47EEF10E00F08
:10402000EF30C02508C46FC0CFD1EFC24FCF81455C
:104030000145EFE0CFF381450545EFE04FF38145C2
:104040000945EFE0CFF281450D45EFE04FF2056500
:1040500013058538EFF00FB8930520030145EFE015
:104060000FF1930520030545EFE06FF09305200362
:104070000945EFE0CFEF930520030D45EFE02FEF6B
:1040800001456FC00FCCEFC28FC937050020B707BD
:1040900002011307C52A9387D7701CC3B7350020C8
:1040A000930720102312F700938505431305C52AB3
:1040B000B128EFF0BFE3EFF07FE4EFF01FF7014529
:1040C0006FC02FC8EFC2AFC5411193F5F5032306AA
:1040D000B100A306C1006C0081460946EFE04FCB5A
:1040E00041016FC00FC6EFC28FC34111740093E549
:1040F00005F82306B1000946B685A3060100EFE0E6
:104100002FC90345D10041016FC0AFC3EFC22FC11A
:10411000AE842A8481452685EFF0FFFC0346040027
:1041200026859305C0023D8AEFF0DFF9034654006F
:104130008347440026850E068D8B5D8E1376F60F21
:104140001366060293051003EFF0DFF70346140031
:104150000344240085473396C7003394870026859F
:10416000518C9305F0021376F60FEFF0BFF5137440
:10417000F40F228626859305E002EFF0BFF4268532
:1041800021469305D002EFF0FFF301456FC06FBBEE
:1041900001A001A0EFC2AFB85D71130640028145D6
:1041A000681002C402C602C802CA02CC02CE02D003
:1041B00002D202D437040020EFC06FB92800EFF01C
:1041C0003F964808EFF0DF990810EFF01F9D2C0094
:1041D00031466810EF3000294C0831462818EF307E
:1041E00060280C103146C800EF30C0270326042C8D
:1041F0006C101305803EEFC04FC51545EFC0CFCA08
:1042000075BFEFC22FB05D71130640028145681083
:10421000EFC0EFB3614681454808EFC04FB3B70A1E
:10422000002002C202C402C623180100A30101003B
:10423000130AA0F9930990F9130910FBB7040020A1
:104240003704002003A60A2C930631006C101305D6
:10425000803EEFC02FC27DF54C086810EFE0EFA262
:104260001307C00493071004A308E10003A6842BDE
:104270001307D0FC2308F100A304E1002306F1009A
:104280001307C0FC930700FC2305E100A303F10022
:10429000130740049307F0034C001305803EA30668
:1042A000410123073101A3072101A305E100A30276
:1042B0000100230301002304F100EFC00FB903251F
:1042C000442C8145EFC02FC1B5BFEFC2AFA37971B8
:1042D00037340020930704471808D8C337070E0067
:1042E0000410390702C802CA02CC231E010002D002
:1042F00002D202D423160102A307010084C398C787
:104300009309044737090020054A1305803EEFC092
:104310008FBA0326892B9306F100A6850145EFC0CD
:104320006FB5930A892B8347F10091C309C983C7ED
:10433000C900E1DF13050447EFF0FF88F9B7130563
:104340000447A3864901EFF01F8803A60A009306DD
:10435000F100A6850145EFC0EFB1F1B7EFC22F9C88
:10436000EFF0AFE4EFF0CFF20945EFE0DF92EFF0CE
:104370008F83EFF00F90EFF01FD137060020130668
:10438000062C930540022945EFC00FAA37060020EE
:104390001306C62BE1452945EFC00FA937060020BB
:1043A0001306462BB9452945EFC00FA83706002054
:1043B0001306862BB9452945EFC00FA73707002004
:1043C000B7A50000374500001307872C9146130658
:1043D00000109385057F13054519EFC0CFA137075E
:1043E0000020B7B50000374500001307C72C8D46E5
:1043F000130600109385458013052520EFC0AF9F5D
:1044000037070020B7B50000374500001307472CD9
:10441000894613060010938545811305A52CEFC02E
:104420008F9DEFC0AF9F37B4000013058482EF303B
:104430003040E5BF79714AD01399150022D426D2B5
:1044400056CA06D64ECE52CC5AC85EC6135919006B
:10445000B70710442E84AA84AE8A6346F904B707CE
:10446000F07F63CE2701630BF9006353501F9767FA
:1044700000009387273D8443C04309A87DD5268645
:104480002685A286A2859523AA842E84A285B25071
:104490002254268502599254F249624AD24A424B2A
:1044A000B24B45618280B707DC3F6351F91CB70707
:1044B000203E634DF9167D5A2686A2862685A28562
:1044C000EF1020372A86AE862A8BAE8BEF1060362F
:1044D000976700009387873A9043D4432A89AE892F
:1044E000EF102035976700009387C7399043D44376
:1044F000ED294A86CE86EF10C03397670000938778
:10450000E7389043D443D5214A86CE86EF106032F7
:1045100097670000938707389043D443F9214A8670
:10452000CE86EF10003197670000938727379043BE
:10453000D44365294A86CE86EF10A02F97670000E6
:10454000938747369043D4434D215A86DE86EF1039
:10455000402E97670000938767359043D4432A8B9A
:10456000AE8B4A85CE85EF10C02C976700009387ED
:1045700067349043D443EF1040774A86CE86EF10DD
:10458000402B97670000938767339043D443EF1025
:10459000C0754A86CE86EF10C029976700009387C2
:1045A00067329043D443EF1040744A86CE86EF10B2
:1045B000402897670000938767319043D443EF10FA
:1045C000C0724A86CE86EF10C0262A86AE865A85ED
:1045D000DE8521292686A286EF10A025FD572A8692
:1045E000AE86630EFA060E0A97670000938787303F
:1045F000D2979043D443976700009387A72D3E9AA4
:10460000EF10A06E2686A286EF10206E2A86AE8658
:1046100003250A0083254A00EF10206DAA842E840A
:10462000E3D60AE6370400802D8C8DB5976700002D
:10463000938747229043D4434D2E9767000093877A
:10464000E7219043D443EF108008E356A0E63DBD38
:10465000976700009387871F8443C04305BD268565
:10466000A285EF108068AA842E840DB5F520B707C7
:10467000F33F2A84AE846356F904B707E63F6359D3
:10468000F90A2A86AE869526976700009387071D4C
:104690009043D443014AEF10406597670000938729
:1046A000671C9043D4432A89AE892285A685352E7E
:1046B0002A86AE864A85CE85EF003026AA842E84CF
:1046C000E5BBB78703406357F90417690000130976
:1046D000E9190326090083264900094AEF10E06022
:1046E00003260900832649002A8BAE8B2285A685E6
:1046F000EF10201497670000938747169043D44328
:10470000ED242A86AE865A85DE85EF001021AA8424
:104710002E845DB3976700009387C7158843CC4309
:104720002286A686EF00701F0D4AAA842E8469B3E4
:10473000176900001309891203260900832649001E
:10474000054AEF10805A2A8BAE8B03260900832678
:1047500049002285A6856DB78605858182805D71B9
:10476000A2C4A6C2CAC052DE56DC86C62A84AE8463
:1047700055209387418103A90700FD572A8AAE8AF5
:104780006301F9022286A6862285A685EF10D0490C
:1047900009E9014681462285A685EF00307E634CFB
:1047A0000500B64026445285D68596440649725A7D
:1047B000E25A6161828085473EC497670000938713
:1047C00067153EC602D422CC26CE22C826CA63076D
:1047D0000902014681463285B685EF0010142AD0C1
:1047E0002ED28947631EF900EF205047930710022D
:1047F0001CC1A25799EB025A925A65B702D002D255
:104800002800D52275D1A257FDD7EF203045A257F9
:104810001CC1D5B741113707F07F22C426C206C696
:104820003378B7002E84AA84630DE816AE87AA8673
:10483000635FB00E13DE4541630F0E18370710009B
:104840001306F7FFF18FD98F130E1EC013971700B1
:1048500013761E0093D7F601BA971397160011C668
:104860007D838607BA9713972600135E1E40D945AD
:10487000814E8146370620003385C6001358F70164
:10488000FD1563C6A700898FB306C500B29E8607D3
:10489000C29706070582EDF1130500020143814826
:1048A0003706008019A86385D70E9355F701860750
:1048B0007D15AE97060705820DC9B3051601E3D431
:1048C000F6FEB388C500368863CE050A958FB336E9
:1048D000B700958F0D8F9355F70186077D1532939D
:1048E000C286AE970607058269F9D98F93541300E3
:1048F00089CB93041300FD5785806314F300850E64
:10490000814413D71E403704E03F93FE1E003A94C3
:1049100063850E00B7070080DD8C13174E012297C8
:10492000B24022442685BA85924441018280139781
:10493000150005833368A7002E87E30308FED1E145
:1049400093D5B600AD172E87D606FDD913D64501EF
:1049500051E6014611A02A8606079315B7001305F4
:104960001600E3DA05FE930800023688B388A840F3
:10497000BA85B396A60033571801338EC740B36784
:10498000B7006DBD13C8F8FF1358F80136983DBF46
:10499000E36DB7F0B388C500E3C605FE3E888147E6
:1049A00015BF2A86AE86EF00D0682686A2863528F7
:1049B000B2402244AA842E872685BA8592444101BA
:1049C00082802A86AE86EF1040322A86AE86B127D4
:1049D000AA842E87B1B72E878147A5BF3688930852
:1049E00000027D5649BF0145828037081000011141
:1049F0007D183377B80026CA3378D80093D44501A0
:104A000013D34601131E37004EC61357D5010E08A7
:104A10009357D60193F4F47F1373F37F06CE22CC21
:104A20004AC893D9F50193DEF6013367C701131F16
:104A3000350033E80701931F3600338E64406380EE
:104A4000D9196356C0136304031CB706800093078B
:104A5000F07F3368D800638FF4369307800363C018
:104A6000C735FD4763CDC747130500023305C54170
:104A7000B3D7CF01B316A8003399AF00DD8E333919
:104A80002001B357C80133E926011D8F33092F4197
:104A9000B3372F013306F7409317860063D40724FA
:104AA000370780007D173374E600630C042C2285E1
:104AB000EF207013130785FF93070002998FB357F8
:104AC000F9003316E400D18F3319E9006341972AC6
:104AD00033059740130615007D47634DC73813070C
:104AE0000002118FB356C9003319E9003397E7006C
:104AF000558F333920013369270133D6C7008144EC
:104B00009377790081CF1377F90091476308F70015
:104B100013074900333927014A963A8993178600CB
:104B200063D6071C138514009307F07FCE856304BA
:104B3000F520B70780FFFD17F18F9398D701135920
:104B40003900A607B3E82801B1831375F57F939662
:104B5000C7005205F2406244B182FE05C98ECD8E77
:104B6000D2444249B2494685B68505618280631EBA
:104B70000E0A138314001373E37F63170322B367D2
:104B8000E701B368F801639D041A638707406386F1
:104B900008443309FF41B307074133362F013386F9
:104BA000C7409317860063D6074C3389EF41B3079C
:104BB000E84033B62F013386C740F68991B763507A
:104BC000C00F6300030CB70680009307F07F3368C3
:104BD000D800638AF43A9307800363CBC713FD4779
:104BE00063DFC73513090EFE93070002B356280191
:104BF000630AFE00130900043309C941331928016F
:104C0000B3EF2F013339F0013369D90031A2B36713
:104C1000F801638A071C9307FEFF638C073893062D
:104C2000F07F6309DE1A3E8E0DBDB305934063919C
:104C30000422B367E701638707329387F5FF638137
:104C400007449306F07F638CD520BE8593078003CD
:104C500063CCB72AFD4763CFB73C930700028D8F23
:104C60003319F700B356BF00B317FF003369D900FB
:104C7000B337F0003357B7003369F9003308E84021
:104C800041ACB367F801638007349307FEFF638A82
:104C900007209306F07F6308DE2E3E8E2DBF631E35
:104CA0000E149386140093F7E67F63910734B3677D
:104CB000E7016395042C6380073EB367F801638EB8
:104CC00007303309FF01B3070701333FE90133869A
:104CD000E7019317860063D70700B70780FFFD172A
:104CE0007D8E854493777900E39F07E09317D60183
:104CF00093583900B3E8F800935736001307F07F54
:104D0000638DE404B207B18313F5F47FCE8581B5DA
:104D10003369F801333920017A99B337E9013386D1
:104D2000E70093178600E3DF07FA85049307F07F17
:104D30006396F418CE851305F07F8147814801BD45
:104D4000C1EB6384083A931636009317D8018D821D
:104D5000B3E8D700F68993573800B3E7F800F9DBDA
:104D600081451305F07FB70708008148CDB33706AA
:104D700080FF7D167D8E93777900998CE39507D817
:104D8000B5B74A85EF20206613078501FD47E3D5B7
:104D9000E7D2130685FFB317C900014905BB336984
:104DA000F80133392001DDB13309FF4133060741F2
:104DB00033342F01330486409317840063CD0724D6
:104DC000B3688900E39308CE8147814981441DBFC0
:104DD000E39808F80E059317D7010D81B3E8A700F3
:104DE000935737009DBF0E059317D7010D81B3E888
:104DF000A700F2849357370011B7330593406382BD
:104E00000412B70680009307F07F558F630DF32ED1
:104E10009307800363CBA720FD4763C3A72A9307AB
:104E20000002898F3319F700B356AF00B317FF00A4
:104E30003369D900B337F0003357A7003369F9005D
:104E40003A987E99B337F901338607019A84D1BD28
:104E5000B70680009307F07F558FE319F3DE9317B1
:104E600036008D839318D801B3E81701F68993575C
:104E70003800E5B5130715FE9306000233D7E700A7
:104E8000630AD600930600043386C6403396C700F3
:104E90003369C900333920013369E900014681448F
:104EA00091B53309FF01B30707013336E9013E9697
:104EB000931786008544E3D707E28944B70780FF4C
:104EC000FD17F18F13571900137919003369270162
:104ED0009398F70133E9280113D6170015B1130988
:104EE0000EFE93070002B3562801630AFE00130961
:104EF00000043309C94133192801B3EF2F013339B5
:104F0000F0013369D90059B63369E701333920011B
:104F100033892F41B3B72F013306F8409A84F689BD
:104F2000A5BEB367E701638207189307F5FF6384A3
:104F3000071C9306F07F6304D5123E85D1BD93070D
:104F40000002B387C741B316F8003399FF0033D688
:104F5000CF01D18E33392001B357C80133E926017F
:104F60003E975DBB931736008D839318D801B3E845
:104F70001701AE8493573800F68949B3EDC33369FE
:104F8000F801E31F09DC0E059317D7010D81B36803
:104F9000F50093573700D1B36381080E931636009E
:104FA0009317D8018D82B3E8D700F689935738005C
:104FB00091BB3309FF41B3070741333F2F013386CC
:104FC000E7418544D1BC0E059317D7010D81B36825
:104FD000F500F2849357370015B30E059317D701E8
:104FE0000D81B3E8A7009357370029BB9307F07FE3
:104FF000E382F6D43309FF013336E901B307070131
:10500000B2979398F7011359190033E9280113D681
:105010001700B684C1B93389EF413307E84033B68E
:105020002F013304C740F68949B43369E7013339A6
:10503000200101BD938705FE93060002B357F700D8
:10504000638AD50093060004B385B6403317B700D2
:10505000336FEF003339E0013369F90055BD931721
:1050600036008D839318D801B3E8170193573800A1
:10507000EDB1B368C900E39708C68147814959B1CA
:105080003389EF41B307E84033B62F013386C74079
:10509000F689854411B4931636009317D8018D8292
:1050A000B3E8D70093573800B1B993163600931779
:1050B000D8018D82B3E8D700AA84935738003DB950
:1050C000930705FE93060002B357F700630AD50065
:1050D000930600043385A6403317A700336FEF0013
:1050E0003339E0013369F900A9BB81451305F07F2D
:1050F000B7070800A9BC3309FF01B307070133361E
:10510000F9013E9675B3931636009317D8018D8238
:10511000B3E8D7009357380089B1397193D7450167
:1051200022DC4AD856D22A891394C50006DE26DA34
:105130004ED652D45AD05ECE13F5F77F318093DA33
:10514000F501630B05109307F07F630BF514135AF9
:10515000D9010E0433648A00370A8000336A44019F
:10516000131B3900930415C00144814B13D8460129
:105170001399C6001378F87FB2881359C90093D9E0
:10518000F601630E08089307F07F6300F8041357D5
:10519000D6010E0933692701130818C0B70780002C
:1051A0003367F90093183600B38404418145BD4745
:1051B00033C83A0163E4871A97570000938707764C
:1051C0000A043E9410403E9602863367C9009384D9
:1051D0001480631207101364240081488945C1BFFD
:1051E0001306F07F81470147B207F250625452061E
:1051F000B1837E08D18FB3E70701D2544259B25927
:10520000225A925A025BF24B3A85BE852161828016
:1052100001481306F07FB70708000147F1B733676D
:10522000C9004DC7630809304A8532C4EF20A01B6E
:105230002246130755FFF547930685FF998F3319CB
:10524000D900B357F60033E72701B318D6002695E7
:105250009304353F8145A1BF336A240163030A06E5
:1052600036C632C46306042A2285EF20C0172246C0
:10527000B246AA84130755FF754A138B84FF330A7D
:10528000EA4033146401335A4901336A8A00331BFC
:1052900069011305D0C0B30495400144814BF9B5B1
:1052A000336A240163180A002144014B9304F07F00
:1052B000894B6DBD228A4A8B31449304F07F8D4B1C
:1052C00075B51144014B8144854B4DB513641400F1
:1052D00081488545E9BD136434004A878D45C1BDC9
:1052E000630A052E8547898F9306800363DDF632B6
:1052F000014681470147CDBDCE868947638DF53A8A
:105300008D47E387F5F085473688E383F5FE1385FF
:10531000F43FE357A0FC93F778006396072893D6F1
:1053200038009317770063D80700B70700FFFD1711
:105330007D8F138504409307E07FE3C3A7EA13162C
:10534000D70193179700B1833367D6001376F57FA3
:1053500061BDD6865287DA88DE8545B7636147230B
:10536000630DEA20DA86FD145284014B93178700FF
:1053700013D388013363F300935E0301B357D4035F
:10538000131F0301135F0F0193D50601139E8800BD
:105390003374D4033307FF024204C18D63FBE5007D
:1053A0009A951386F7FF63EE652663FCE526F917E9
:1053B0009A95998D33D7D503C206C182B3F5D5032B
:1053C0003306EF02C205D58D63FBC5009A9593069F
:1053D000F7FF63E6652463F4C52479179A95C2073D
:1053E00041645D8F9307F4FF3375F700935807010D
:1053F000935F0E01B377FE00B302F502B386C5409A
:10540000B383F80293D502013386AF021E962E961F
:105410003385F803637376002295C168FD189355B0
:105420000601337616014206B3F81201AA95469694
:1054300063E6B6126382B6123306CB408D8E333BE1
:10544000CB00338B66411385F43F630C6317B3586D
:10545000DB0393550601337BDB03B3061F03420BCB
:1054600033EB6501637BDB001A9B9385F8FF636D6B
:105470006B20637BDB20F9181A9B330BDB40B356A0
:10548000DB0342064182337BDB03330FDF02420B37
:1054900033666601637BE6011A969385F6FF6367C0
:1054A000661E6375E61FF9161A96C208B3E8D8009F
:1054B0009395080193D20801C181B38EF50233069A
:1054C000E641B385BF0293D60E01B387F202BE95C3
:1054D000AE96B38F5F0263F4F600C167BE9FC165ED
:1054E000FD1593D70601ED8EC206B3FEBE00BE9F2A
:1054F000F696637FF6091A969387F8FF6369661A32
:105500006368F619630FF61BBE8893E8180011B59F
:105510004A85EF10506D13075501F14593040502BC
:105520002246B246E3DAE5D4130485FF331A890034
:10553000014B85B3328532C4EF10F06A1307550171
:10554000F146AA87224613050502E3D6E6CEE11707
:105550003317F6008148E5B9E370CBEE729B333523
:10556000CB011A95AA961305F7FF6378D30263E679
:10557000B6106382D5102A87C1B5E3651BDF93554A
:105580001B009316FA0113541A00CD8E7E0BF9BB43
:10559000E31DF6F7E38F06D6B9BFE31ED3FCE3782D
:1055A000CBFD2A8751BD93F7F8009146E389D7D602
:1055B00093B7C8FF9386480093C717008D823E9724
:1055C0008DB381468547E34CA0FEFD58E31C05D012
:1055D000930410C085471385E441B316A70033D662
:1055E000F8003395A800D18E3335A000C98E13F68C
:1055F00076003357F70001CE93F7F6001146638823
:10560000C70093874600B3B6D7003697BE86931778
:10561000870063D80704054681470147F1B63687FE
:105620007DBBB28779B3FD46E3D7F6FA0556098EFE
:10563000930600023356C7006388D7009387E4437C
:10564000B317F700B3E8F800B3361001D18E13F6A4
:105650007600814701CE93F7F60011460147E392A9
:10566000C7FA931797001316D701B18313D73600E3
:10567000518F014695BEE370CBF0729B3335CB0161
:105680001A957917AA964DBBAE88C5BBAE8631BDBB
:1056900093171E0033BEC70172931A96F9183E8EF7
:1056A000E315F6E7E307DEC693E818009DB1BE8870
:1056B000E30AF6FF99BD36881306F07F814701475C
:1056C00025B6E367DEFCBE88E310DEFE99B113D792
:1056D0004501B7071000FD1713D846011377F77F70
:1056E0009308F07F33F3B7002A8EF58FFD81B28ED9
:1056F0001378F87FFD8263081703630018030DEB2E
:10570000B368A300631408005D8E29CA638508048A
:105710006388D502054595ED8280B3E8C700E38034
:1057200008FE795582803365A30065FD630CE802AD
:10573000631408005D8E79DEE39ED5FCE34CE8FC43
:1057400063480701E3E867FC6303F302637FF30048
:1057500081E57D558280F5DE054582800145E39B2C
:1057600008FA82805D8E69DA6DBF01458280E3E3CD
:10577000CEFB0145E372DEFBE5F1E1BF13D7450146
:10578000B7071000FD1713D846011377F77F93086A
:10579000F07F33FEB700AA8EF58FFD81328F13782C
:1057A000F87FFD82630E1703630D180129E3B368C8
:1057B000AE00631F08005D8E01EE0143638C080498
:1057C00021A8B3E8C7000943639608046DD305A078
:1057D000638408046385D50205438DCD7D531DA8E0
:1057E000B368AE00094363970802630AE8026314D2
:1057F00008005D8E75D2E391D5FEE34FE8FC634966
:105800000701E3EBC7FD630FFE0001436374FE0075
:10581000F1D505431A858280EDFE7D53E5BF5D8E8F
:1058200079DACDBFE36ADFFB0143E3F5EEFFF5F183
:1058300075B739714AD813D945014ED652D456D2CC
:105840009399C50006DE22DC26DA5AD05ECE1379A3
:10585000F97F2A8A93D9C90093DAF501630D090EFD
:105860009307F07F6306F9181354D5018E09B369C5
:1058700034013704800033E48900931435001309A0
:1058800019C08149814B13D74601139AC60013777B
:10589000F77FB285135ACA0013DBF601630B0710BA
:1058A0009307F07F6303F7049357D6010E0A33EA98
:1058B0004701130717C0B7078000B367FA009315B5
:1058C00036003A99814833C76A01BD463A851308C4
:1058D000190063E8361717560000130626088A09D0
:1058E000B29983A60900B2968286B367CA001309EB
:1058F000F97F6399071293E9290081458948E1B747
:1059000001479307F07F3704080081443204D2072F
:1059100031807E075D8C598CA285F25062542685B9
:105920004259D254B259225A925A025BF24B216127
:1059300082805A853E84AE84C68B8947638DFB0E78
:105940008D47E38FFBFA85472A87639EFB388147A3
:105950000144814465BF33E4A90061C036C632C446
:10596000638C092A4E85EF1010282246B246AA877A
:10597000130755FF7544938487FF198CB3999900D9
:1059800033548A0033643401B3149A0013D74601A8
:105990001309D0C0139AC6001377F77F3309F94073
:1059A0008149814BB285135ACA0013DBF601E31912
:1059B00007EEB367CA00B1C7630F0A22528532C42B
:1059C000EF10702222462A87930655FFF54793056C
:1059D00087FF958F331ABA00B357F600B3E7470134
:1059E000B315B6003309E9401309D9C08148E1BDB8
:1059F00033E4A90001ECA14981441309F07F894BEC
:105A000059B593E919008145854875BD4E84AA842E
:105A1000B1491309F07F8D4BBDB5914981440149CE
:105A2000854B95B593E93900D2878D4869BD894783
:105A30005685E397FBF02A879307F07F0144814462
:105A4000F1B5C16E1386FEFF93D6040113DE050186
:105A5000F18CF18D338695023383B602935806019B
:105A600033059E021A95AA98B382C60363F36800B1
:105A7000F692C16F1383FFFF33F5670093D30701DD
:105A8000B3F76800C207337366003E93330695028E
:105A900093D80801B387A602135F0601B38493026B
:105AA000BE94FA94B38E760263F3F400FE9E416ACC
:105AB0009307FAFF935F0401B376F400B3F9F4009F
:105AC0007D8EC1803384D502C209338FD401B2994F
:105AD000CE98B307DE02935E0401B385BF02AE9792
:105AE000BE9E330EFE0363F3BE00529EC1679385D4
:105AF000F7FF33F6BE006D8C4206229693DE0E0150
:105B0000B305D502769E3385AF0213D40501B38663
:105B1000D302AA96A296B38FF30363F3A600BE9FA7
:105B200041657D15B3F7A600C2076D8DAA97B385B1
:105B30005800B3B93501FA97B2953384370133B6BB
:105B4000C500B30EC4013385CE0033343401B3B77E
:105B5000E701C18F33BECE0113D406013336C50031
:105B60003E943366CE009394950032947E94B3E4D1
:105B70006400260493567501B3349000DD819317B9
:105B80009500CD8C558CDD8C9317740063DB07007A
:105B900093D7140085889316F401DD8CD58C05808D
