:100000006F30804B1300000013000000130000004D
:100010001300000013000000130000001300000094
:100020001300000013000000130000001300000084
:08003000130000007300100032
:1000380000000000000000001259000014590000E0
:100048000000000050340000000000000000000024
:10005800523400005434000000000000000000008A
:10006800700A00000000000000020000000000000C
:100078005A3400005C3400005E3400006034000034
:100088006234000064340000663400006834000004
:100098006A3400006C3400006E34000070340000D4
:1000A80072340000743400007634000078340000A4
:1000B8007A3400007C3400007E3400008034000074
:1000C8008234000084340000863400008834000044
:1000D8008A340000143100008E340000A83100007A
:1000E80092340000943400009634000098340000E4
:1000F8009A3400009C3400009E340000A0340000B4
:10010800A2340000A4340000A6340000A834000083
:10011800AA340000AC340000AE340000B034000053
:10012800B2340000EE300000B634000000000000D9
:080138000000000000000000BF
:10020000130181F806C216C41AC61EC822CA26CC1B
:100210002ACE2ED032D236D43AD63ED842DA46DC76
:100220004ADECEC0D2C2D6C4DAC6DEC8E2CAE6CC46
:10023000EACEEED0F2D2F6D4FAD6FED8F3220030CF
:1002400096DA9702002083A2E2FF23A02200F32582
:1002500010342EC003A14182EF102070170300203C
:10026000032343FE03210300824273901234D652CB
:10027000739002309240A2423243C2435244E2445D
:10028000724582551256A2563257C2575258E258FA
:1002900072598649164AA64A364BC64B564CE64C0E
:1002A000764D865D165EA65E365FC65F13018107DA
:1002B0007300203013000000130000001300000042
:1002C00013000000130000001300000013000000E2
:1002D00013000000130000001300000013000000D2
:1002E00013000000130000001300000013000000C2
:1002F00013000000130000001300000013000000B2
:1003000083A24182938202E073900234170100209D
:10031000032141F3024182403243C2435244E2444A
:10032000724582551256A2563257C2575258E25859
:1003300072598649164AA64A364BC64B564CE64C6D
:10034000764D865D165EA65E365FC65FD652A1020A
:1003500073900230A24213018107828013000000D3
:100360001300000013000000130000001300000041
:100370001300000013000000130000001300000031
:100380001300000013000000130000001300000021
:100390001300000013000000130000001300000011
:1003A0001300000013000000130000001300000001
:1003B00013000000130000001300000013000000F1
:1003C00013000000130000001300000013000000E1
:1003D00013000000130000001300000013000000D1
:1003E00013000000130000001300000013000000C1
:1003F00013000000130000001300000013000000B1
:10040000F322003093F272FF130380181203B3E259
:100410006200711523205500130585FA10C12115BE
:10042000232005009302000063870200711523203A
:100430000500FD12D5BF71150CC1828000000000BF
:1004400000000000000000000000000000000000AC
:10045000000000000000000000000000000000009C
:10046000000000000000000000000000000000008C
:10047000000000000000000000000000000000007C
:10048000000000000000000000000000000000006C
:10049000000000000000000000000000000000005C
:1004A000000000000000000000000000000000004C
:1004B000000000000000000000000000000000003C
:1004C000000000000000000000000000000000002C
:1004D000000000000000000000000000000000001C
:1004E0000000000000000000000000000000397162
:1004F00001436EC619A0397141536AC866CA62CCFD
:100500005ECE19A0397101535AD056D252D44ED66C
:100510004AD826DA22DC06DE3301614082824111AC
:100520004AC026C222C406C68282B24D4101024D93
:10053000924C224CB24B4101024B924A224AB249A0
:100540004101024992442244B240410182803D432C
:100550002A876373C3029377F700BDEFADE5937607
:1005600006FF3D8ABA960CC34CC30CC74CC7410763
:10057000E36BD7FE11E28280B306C3408A0697027E
:10058000000096966780A6002307B700A306B70071
:100590002306B700A305B7002305B700A304B700DF
:1005A0002304B700A303B7002303B700A302B700D7
:1005B0002302B700A301B7002301B700A300B700CF
:1005C0002300B700828093F5F50F93968500D58DB3
:1005D00093960501D58D61B7939627009702000089
:1005E00096968682E78086FA9680C1171D8F3E9682
:1005F000E374C3F8A5B711CD054889CD01CEEFF25C
:100600001FF2BA8736878146EF0050500148428575
:100610000DBF054842858280EFF27FF0EF00307217
:10062000014505B711CD854789CD01CEEFF23FEFEA
:1006300032840146EF00C076814708C03E8511B77D
:1006400085473E858280854795C10DC2EFF23FED1B
:10065000B2878146135615003E85EF00007B0547A3
:1006600081476303E50089473E85E1BD3E85828081
:10067000854785C91DC6EFF29FEA328413561500DF
:100680002285B684EF00501105478D476319E500B8
:100690002285EF00302505052380A40081473E8593
:1006A0004DB53E858280EFF29FE70581EF10C024B3
:1006B000014541BDEFF2BFE61306401F3306C502F8
:1006C0009307803E814501453356F602EF10C06A1C
:1006D000014585BDEFF2BFE4054401C989E9014741
:1006E00089460146EF10C0720144228599BD054735
:1006F0000144E39CE5FE01468145EF10500AF5B741
:1007000011C9EFF2DFE12A84EF00706D060508C021
:10071000014505BD0545828009C9EFF25FE02A84E5
:10072000EF10805608C0014529BD05458280B707F6
:100730000020938787239843636FA702D043B38633
:10074000C7006316D50054413E85B296D4C35041CC
:10075000B306C500631CD700B706002083A6062297
:100760006306D70054431843B29654C118C16303BB
:10077000F50088C38280BA877DBFEFF2BFD84111F0
:100780002AC6EF00D064B706002083A706223706EA
:10079000002093860622130646223245A1EF370732
:1007A00000209307872F93F5F7001307872F81C544
:1007B0001387F700419BB70500209385852323A26B
:1007C000050098C18D65C115AE97C19B23A2070096
:1007D00023A00700B385E7409CC21CC3B7070020D5
:1007E00023A6B722B707002023A4B722B7070080AB
:1007F0004CC31CC2032A0600B377AA0085E3930703
:10080000F5FF3957636CF7009307050113F7F700FD
:1008100041C313F707FF410763EBE706814489A053
:1008200022872E8461A058C15CC011375840B7069A
:1008300000209386C6229042B307E94023A0F90026
:1008400063F3C7009CC2B70700203367EA009387B1
:10085000072358C09843C10423200400050798C308
:10086000EF00307393F7F400D1CB8967938707804B
:100870007390073037F6000037F50000130606FFC7
:100880009305001113054502EFC0202D01A0BA8782
:10089000370700200329872293098722E360F9F8AC
:1008A00037070020032487231307872350406374EE
:1008B000F6000C40B5F59442E38286F614400443FA
:1008C00014C33307F64093060002E3F1E6F633055E
:1008D000F4009376F500A1DA896793870780739017
:1008E000073037F6000037F50000130606FF9305C2
:1008F000F00C13054502EFC0402601A026854101FA
:1009000025B94DC1EFF2BFC1B7070020032745FF4E
:1009100083A747222A84B376F7009DE289679387ED
:1009200007807390073037F6000037F50000130694
:1009300006FF9305401213054502EFC0002201A0F7
:10094000832605FF9DC289679387078073900730D0
:1009500037F6000037F50000130606FF9305501226
:1009600013054502EFC0601F01A093C7F7FFF98F81
:10097000232AF5FEEF00B045B707002093878722B2
:100980009443032744FF130504FF369798C3453368
:10099000B7070020938747239843050798C3EF00C4
:1009A000505F45B68280B7E700E041572387E740B4
:1009B0002386E740B7F700E023A0070023A2070043
:1009C000814694C70147D8C783A581811307401F7B
:1009D000814633D6E5023D4790CBD4CB98C3828085
:1009E000EFF2FFB3411102C6F32750303EC6B247C3
:1009F0000D478D8B6384E702896793870780739027
:100A0000073037F6000037F500001306860493051B
:100A1000600B13054502EFC0401401A0B75700203A
:100A200093870700BD8B9DC3896793870780739069
:100A3000073037F6000037F50000130686049305EB
:100A4000B00B13054502EFC0401101A0A93FB7E765
:100A500000E0116723A0E710056723A0E710B707A0
:100A6000002023A8071EEFF0BF8901454101D1BC3A
:100A7000397106DE16DC1ADA1ED82AD62ED432D206
:100A800036D03ACE3ECC42CA46C872C676C47AC286
:100A90007EC0731101348967938707807390073094
:100AA000B7F700E023A20700EF00103411C5B7E745
:100AB00000E0116723A0E7208967938787887390F8
:100AC000073073110134F250E2525253C25332557F
:100AD000A255125682567247E2475248C248324ED9
:100AE000A24E124F824F2161730020308967938795
:100AF000078073900730B70700209387071F98433C
:100B0000050798C38280370700201307071F1C437F
:100B10008DE7EFF2DFA08967938707807390073036
:100B200037F6000037F500001306860493053010F1
:100B300013054502EFC0600201A0FD171CC391E739
:100B400089679387878873900730828009651305CA
:100B500005807315053082807310053082809307FD
:100B600085007D575CC118C55CC51CC923200500E4
:100B700082802328050082809841FD5693078500D6
:100B8000631ED7001C49D843D8C10CC79CC5CCC331
:100B90001C4188C985071CC18280B687D443904216
:100BA000E37DC7FECDB7544118451C4998C654C3D0
:100BB000D4436393A600D8C39843232805007D1728
:100BC00098C388438280EFF29F9541112AC6393F2E
:100BD0003245005D0D3F1335140041019DB2EFF227
:100BE0001F9432893041045D2A8401EE1C41014585
:100BF00091E70844EF10A00B23240400850404DCD3
:100C000089B2631009024841EFB0C0315C403840FE
:100C10000145BA9718445CC0E3E2E7FE1C405CC0A3
:100C2000F1BF4845EFB000303C4058441440B30792
:100C3000F0403E9758C46375D7001844BA975CC417
:100C400089470145E31CF9FAD5D8FD1445BF304169
:100C500015C2EFF2DF8C58451445AA87329758C564
:100C60006364D700184158C52E85CC47EFB0802B60
:100C70006FF03F8D8280EFF29F8A2A84853D834406
:100C8000540413094402E204E18463459002FD57D1
:100C9000A302F4048D3D993D8344440413090401E7
:100CA000E204E18463449002FD572302F404A13D71
:100CB0006FF03F895C50E1DF4A85EF00905F19C11A
:100CC000EF00D07BFD14E204E184C1B71C48E9DFEA
:100CD0004A85EF00105E19C1EF00507AFD14E2045E
:100CE000E184C9B7EFF2BF8341111DE189679387A2
:100CF00007807390073037F6000037F500001306C1
:100D0000C6079305001113054502EFB0106501A059
:100D10005C5D2EC62A84BDC33841B3B7E702B9EF84
:100D2000F1333040585C1440232C0402B307E60230
:100D3000B24554C03387F600918FB6975CC4FD5717
:100D40002302F40418C4A302F40495E11C4899CBCF
:100D500013050401EF00F05511C5B7E700E0116776
:100D600023A0E7204D33054541016FF08FFD1305AA
:100D70000401F53313054402DD33EDB7896793872A
:100D800007807390073037F6000037F50000130630
:100D9000C6079305501413054502EFB0105C01A07F
:100DA000EFF2EFF7411121C1B3B7A502AA8485EF95
:100DB0003305B502930770FB63E7A70213058504AB
:100DC0002EC6653A2A8401CDB245AA8799C19307F8
:100DD00085042CC01CC044DC854522852137228532
:100DE00041016FF00FF68967938707807390073092
:100DF00037F6000037F500001306C6079305601CA0
:100E000013054502EFB0705501A0EFF2CFEE0111CE
:100E100032C61DE18967938707807390073037F6E4
:100E2000000037F500001306C6079305E0321305EE
:100E30004502EFB0905201A02A842E89B6848DE538
:100E40003C419DC38967938707807390073037F6CD
:100E5000000037F500001306C6079305F0321305AE
:100E60004502EFB0904F01A089476398F402585CA7
:100E700085476304F702896793870780739007307B
:100E800037F6000037F500001306C6079305003358
:100E900013054502EFB0704C01A0EF00905F15E51F
:100EA000B247014C85C789679387078073900730E5
:100EB00037F6000037F500001306C60793053033F8
:100EC00013054502EFB0704901A0014C094BFD59D3
:100ED000930B040137EA00E0916AADA0B24781E7C5
:100EE0001D31014549A863150C002808EF00304B5F
:100EF0001939EF00C06DDD3E83474404E207E18706
:100F0000639437012302040483475404E207E18712
:100F100063943701A3020404FD366C002808EF0037
:100F2000704935E5E136185C5C5C6319F704E13E15
:100F3000B2455E85EF00102C2285353BEF00700531
:100F400021C5054C6536185C5C5C6364F700E3976B
:100F500064F92686CA85228559315C5089C71305F4
:100F60004402EF00103511C5B7E700E0116723A078
:100F7000E720513E054505616FF06FDB693622853C
:100F8000DD39EF00100175BF23205A215DBF228596
:100F9000DD31EF001000B1B7EFF2EFD5011132C62D
:100FA0001DE18967938707807390073037F600004B
:100FB00037F500001306C6079305105513054502C3
:100FC000EFB0B03901A02A84AE898DE53C419DC3C4
:100FD0008967938707807390073037F6000037F5ED
:100FE00000001306C6079305505513054502EFB0E0
:100FF000D03601A0EF00F04915E5B247014985C799
:101000008967938707807390073037F6000037F5BC
:1010100000001306C6079305A05513054502EFB05F
:10102000D03301A001497D5A930A440237EB00E016
:10103000916B9DA0B24781E7F934014561A063152A
:1010400009002808EF00B0357D3C51234534834723
:101050004404E207E18763944701230204048347C1
:101060005404E207E18763944701A3020404613C4E
:101070006C002808EF00103431ED2285A93631C507
:10108000B2455685EF0010172285F536EF006070E7
:1010900019E123207B210549913C045CC1DCCE850C
:1010A0002285FD146D3604DC1C4899CB1305040120
:1010B000EF00302011C5B7E700E0116723A0E7205B
:1010C0009934054505616FF08FC622856D36EF00B6
:1010D000406CD1B722854536EF00A06B2285E53400
:1010E0005DD9A1BFEFF2AFC341111DE189679387BD
:1010F00007807390073037F6000037F500001306BD
:10110000C6079305307E13054502EFB0102501A0F8
:101110002AC6EFF0BF9D3245085D2AC6EFF0BF9E9C
:10112000324541016FF0EFC115E5EFF24FBF89671E
:10113000938707807390073037F60000856537F591
:1011400000001306C607938585AC13054502EFB072
:10115000D02001A09DCD373600209306862F8147F1
:1011600001471306862F214883A846006398A800EC
:1011700093173700B2978CC3C8C321A891E783A8FF
:10118000060063930800B6870507A106E31E07FD66
:10119000FDF38280EFF2AFB841112A842EC632C42B
:1011A000EFF0DF94834744047D572246E207E1874E
:1011B000B2456394E70023020404834754047D5737
:1011C000E207E1876394E700A302040432C62EC459
:1011D000EFF07F931C5CA245324689E71305440279
:1011E000EF00D0052285EFF01FA941016FF06FB528
:1011F00037070020130747241C439443B7070020F8
:101200009387472681E67D5798C3828018435847C5
:101210001843DDBFEFF20FAF37090020B7070020FA
:101220009304092483A947272A849C4088404111BC
:10123000A380070611052EC6EFF0FF967D57930792
:101240000924B245631CE40295C9B737002093878F
:1012500007409440D84398C610479440D0C6944065
:101260001047910654C29440910614C798405CCB35
:101270009843050798C341016FF00FAC98434E9413
:1012800040C3637B340137070020032587248C4348
:101290009105EFF07F8EC5B737070020032547245F
:1012A0008C439105EFF05F8DB707002093874726A9
:1012B0009843E372E4FC80C37DBFEFF2AFA4373400
:1012C0000020B709002013044441370A002093840A
:1012D00009259C40EDDFEFF07F815C4403A9C70046
:1012E00013054900EFF03F8C1307CA241C43FD1778
:1012F0001CC39C40FD179CC0EFF0FF800325090331
:10130000EFF02FE04A85EFF0CFDFD1B7EFF2AF9EDD
:1013100013192600AA8A4A85AE89368BBA8B3E8A73
:10132000EFF0AFC505C5AA8413054006EFF0EFC482
:101330002A8411C904D9814793060002639A0900DF
:10134000230A050225A02685EFF0AFDB7D55D1AA43
:101350003387F900030707003306F400230AE60287
:1013600001C78507E396D7FEA3090404994763F4F0
:1013700077038967938707807390073037F60000FB
:1013800037F500001306460B930570391305450227
:10139000EFB0A07C01A0930944004E85232674037E
:1013A000232A7405232C0404EFF0AFFC13058401F9
:1013B000EFF02FFC1D471305C9FF33077741269532
:1013C00000C818CC40D0230E0404A30E0404230F3D
:1013D0000404A30F040423000406A30004065A8691
:1013E000D6854199EFF0CF8108C063040A0023201D
:1013F0008A00EFF0AFEFB70700209387C724984328
:101400003709002037350020050798C31307092442
:101410001843370A00201309092493048533130A5B
:101420000A27631207102320890098438547631811
:10143000F70813058533EFF08FF213854401EFF0C1
:101440000FF213858402EFF08FF11385C403EFF0E0
:101450000FF113850405EFF08FF013854406EFF0CC
:101460000FF013858407EFF08FEF37350020130B53
:10147000453C1305453CEFF08FEE37350020930ACD
:10148000853D1305853DEFF08FED373500201305C1
:10149000C53EEFF0CFEC3735002013054541EFF0A6
:1014A0000FEC3735002013050540EFF04FEBB70781
:1014B000002023A26725B707002023A45725B707DC
:1014C0000020938787259843050798C33707002096
:1014D0001307C7255C54144363F3F6001CC351473C
:1014E000B387E702BE94DC4098471CC458C49847B1
:1014F0002322370123A437019C4044C885079CC0A0
:10150000EFF06FE083270A00054581CF83270900AC
:10151000D8575C546377F700B7E700E0116723A062
:10152000E7206FF0CF8083270A00D1FB83270900D3
:10153000D8575C54E3E5E7F82320890049B7EFE288
:101540001FFEB7070020B7F500003715000093878E
:10155000072601478146130600109385850D130564
:10156000A52B6D330544631E8502EF00F065631AF9
:10157000850289679387078073900730B70700203B
:101580007D5723A2E726B707002023A8A726B70781
:10159000002023AA0726EFF0AFC483A741806FE0A5
:1015A0005FFAFD57E31BF5FE896793870780739009
:1015B000073037F60000856537F500001306460B47
:1015C0009385058413054502EFB0205901A0B707A4
:1015D0000020938747259843050798C38280B70763
:1015E000002003A547278280B707002083A747254F
:1015F00063980718EFE2BFF2B707002093874727E9
:101600008043050480C339E8B70700209387472447
:101610009843184305C789679387078073900730FD
:1016200037F60000856537F500001306460B9385F5
:1016300075AC13054502EFB0405201A037070020FA
:10164000130787249443104390C3B707002014C3A3
:10165000938787269843050798C3593E370600208D
:10166000930746269C4337370020B7050020130612
:101670004626130787339385052401456375F402D5
:101680009C41D146DC57B387D7023E971843854724
:1016900063F3E7000545B707002083A7872791C3B9
:1016A00005456FE01FEA370E0020B70E0020514FAE
:1016B00093074E249443944281E6FD571CC2C9B758
:1016C0009C43DC47DC47D4436374D40014C24DBF51
:1016D00083A8870003A8C700D44B1383470023A423
:1016E00008012322180183A846006394680023A2FE
:1016F000060103A8060023AA07007D1823A00601FF
:10170000945795CA03A8C70183A8070283AF460070
:101710002324180183A8070223A208011388870144
:1017200063940F0123A2160103A8060023A4070255
:101730007D1823A006019386CE2503A8C70283A89F
:10174000060063F4080123A00601B306E803BA9675
:1017500083A8460083AF880023A4170123A6F701BE
:1017600083AF880023A26F0023A46800D4CB9C42DF
:1017700085079CC29C41DC57E36CF8F205450DBF20
:10178000B70700209387C72698430145050798C3EC
:101790008280EFE23FD737040020130444251C4029
:1017A000411185E78967938707807390073037F683
:1017B0000000856537F500001306460B9385358BD1
:1017C00013054502EFB0603901A0EFF02FB21C40C5
:1017D000FD171CC01C4089CB01452AC6EFF0AFB2F3
:1017E000324541016FE05FD5B707002083A7C724CA
:1017F000E5D7B73600203735002081479386C63EAF
:10180000370F002013058533D14837030020370EEA
:101810000020854E59A8DC46DC47CC4F90539857A2
:1018200090C503A807022322B80003284700938528
:1018300087016313B80050C3104323A407027D1629
:1018400010C38C47D047D84B1388470090C54CC273
:101850004C436393050150C3104323AA07007D1630
:1018600010C31307CF25D0570C4363F3C50010C333
:10187000330716032A974C4383AF85008CC723A6F2
:10188000F70183AF850023A20F0123A405010C43B8
:10189000D8CB85050CC31307032418435857636638
:1018A000E60013078E272320D70198422DF799C30E
:1018B000EFF01F94B70700201387C7260443138453
:1018C000C72691CC370900208549393B09C59307C4
:1018D000892723A03701FD14EDF823200400B70762
:1018E000002083A78727E38907EEB7E700E01167A9
:1018F00023A0E7200545D5B519E5B7E700E0116756
:1019000023A0E7208280EFE29FC1B707002083A7D2
:10191000472541119DC389679387078073900730DE
:1019200037F6000037F500001306460B9305905478
:1019300013054502EFB0602201A02AC6493932459D
:101940008145EFF03F8DB13511E5B7E700E0116754
:1019500023A0E72041016FE0DFBEB707002003A707
:101960004725B70700209387872701C7054798C3F6
:10197000828023A00700B70700201387C7251843DC
:101980001386C725B7370020938787335148B3069E
:101990000703B385D700884115C5C841A106BE9687
:1019A0004841C8C16314D5005441D4C1D146B306DF
:1019B000D702B697DC43D447B707002023A0D7242B
:1019C00018C2828015E7EFE29FB589679387078089
:1019D0007390073037F60000856537F50000130671
:1019E000460B938525C013054502EFB0001701A0F3
:1019F0007D1771BFEFE2BFB205E589679387078066
:101A00007390073037F60000856537F50000130640
:101A1000460B9385C5C113054502EFB0001401A024
:101A2000B70700202E8483A50724E105EFF0CF94AB
:101A300085452285EFF00FFE6FE0BFB0EFE23FAECD
:101A40002A8705E58967938707807390073037F603
:101A50000000856537F500001306460B938525C504
:101A600013054502EFB0600F01A0B7070020938770
:101A7000072454432E858C4303A88600D4CD8C4381
:101A800023A0050303A807008C46610823A20501D3
:101A900003A807009C43610823A4060198D71C43B0
:101AA00085071CC311C27D55B285EFF0AFF66FE01C
:101AB0005FA95C45DC4795E7EFE27FA689679387DE
:101AC00007807390073037F60000856537F5000012
:101AD0001306460B938525C813054502EFB0E007B2
:101AE00001A0D04F945398579385870114C6D0C254
:101AF00050436313B60054C3144323A40702FD16D6
:101B000014C33707002003274725D45725EF8C47F8
:101B1000D047D84B90C5D04748434CC29385470027
:101B20006313B50050C3104323AA07007D1610C3EA
:101B3000370700201307C72510436373D60014C36B
:101B400051473386E6023737002013078733329731
:101B50005043084690C7C8C708464CC10CC6D8CBEE
:101B60001C43014585071CC3B707002083A7072432
:101B7000DC5763F8D700B7070020054723ACE726FA
:101B800005458280373700201307C73E504308467B
:101B9000D0CF88D308464CC10CC698D7D1B7B70769
:101BA000002083A787261CC1B707002083A74727EB
:101BB0005CC18280EFE2BF96411105E5896793879A
:101BC00007807390073037F60000856537F5000011
:101BD0001306460B9385D5CF13054502EFA0F0778A
:101BE00001A085E58967938707807390073037F6F2
:101BF0000000856537F500001306460B9385E5CF99
:101C000013054502EFA0707501A02EC62AC4EFE0AF
:101C1000FFED37070020B70700201307072483A62E
:101C200047271C432245B24583C7170699CB1C435F
:101C3000A38007060544EFE01FED228541016FE018
:101C40005F909C417D570144E387E7FE3706002003
:101C5000032686260328050058416307C80063E56C
:101C6000E60023A00500F9B73386E640E37BF6FEE5
:101C7000958FBA979CC12537014475BFB7070020DF
:101C8000054723ACE7268280B707002003A5072479
:101C90008280B707002083A70727054581CBB707B8
:101CA000002003A54725133515000605828011E5A0
:101CB0000145828001456FE0DF88EFE25F86B7076C
:101CC000002083A707242A846385A7028967938756
:101CD00007807390073037F60000856537F5000000
:101CE0001306460B9385F50413054502EFA0F06635
:101CF00001A0BC4F85E78967938707807390073001
:101D000037F60000856537F500001306460B93850E
:101D1000050513054502EFA0506401A0545578490C
:101D2000FD173CCDE388E6F8D1F7930445002685FE
:101D3000EFE07FE77C481D471D8F18CC3707002058
:101D40001307C72514435CD463F3F6001CC3514743
:101D50003387E702B7370020938787330545BA9763
:101D6000D843144718C454C41447C4C204C7984382
:101D70005CC8050798C381B7EFE26FFA411105C54A
:101D80008967938707807390073037F60000856571
:101D900037F500001306460B9385652613054502AB
:101DA000EFA0B05B01A037040020AE8432C6EFE0A4
:101DB000FFD3930704249C4313040424FC4F85E3BE
:101DC0001C40324605472380E70611CA8545328507
:101DD000EFF04FC4B7E700E0116723A0E720EFE082
:101DE0009FD2EFE0BFD01C40E84F09C51C4089CC12
:101DF00023AE07041C402AC623800706EFE0BFD0AD
:101E0000324541016FE0EFF31307F5FFF8CFDDB77F
:101E1000EFE2EFF0411185C58967938707807390E2
:101E2000073037F60000856537F500001306460BCE
:101E30009385853013054502EFA0305201A005E5DA
:101E40008967938707807390073037F600008565B0
:101E500037F500001306460B9385953013054502B0
:101E6000EFA0B04F01A03AC636C432C22AC0EFE09C
:101E7000FFC7324702451246A24619C37C4D1CC318
:101E80008347050609472300E506114793F7F70F37
:101E90006360D7043D671307070A8A06BA9698421B
:101EA0000287784D598E70CD21A0784D050778CDE9
:101EB00005476387E70405452AC0EFE0DFC4024514
:101EC00041016FE00FE80947E39FE7FC0145EDB7EB
:101ED000370700200327472761DF8967938707803B
:101EE0007390073037F60000856537F5000013065C
:101EF000460B9385E53313054502EFA0104601A07C
:101F0000144558455C491306450098C6584554C3C6
:101F1000D4436393C600D8C39843232A05007D1792
:101F200098C3B70700209387C7255855944363F398
:101F3000E60098C3D147B306F702B737002093876E
:101F40008733B697D4438C4614C54CC58C46D0C154
:101F500090C694435CC9850694C31C5585C78967A0
:101F6000938707807390073037F60000856537F553
:101F700000001306460B9385D53413054502EFA0E8
:101F8000D03D01A0B707002083A70724DC57E3F466
:101F9000E7F2B7E700E0116723A0E72029BFEFE2EF
:101FA0000FD8411105E58967938707807390073043
:101FB00037F60000856537F500001306460B93855C
:101FC000C54013054502EFA0503901A085C58967BA
:101FD000938707807390073037F60000856537F5E3
:101FE00000001306460B9385D54013054502EFA06C
:101FF000D03601A02A8432C6EFE05FB58947034797
:1020000004062300F4067C4C85077CCC8547639E40
:10201000E70A1C54324685C7896793870780739007
:10202000073037F60000856537F500001306460BCC
:102030009385354313054502EFA0303201A0B70761
:10204000002083A747255854D1E70C4454445C48EA
:1020500094C5544403A84700CCC2930544006313BD
:10206000B800D4C39443232A0400FD1694C3B707D1
:1020700000209387C725944363F3E60098C3D147B4
:10208000B306F702B737002093878733B697D44358
:1020900003A8860014C42326040103A88600232273
:1020A000B8008CC65CC89443850694C3B70700206B
:1020B00083A70724DC5763FAE70019C285471CC2CF
:1020C000B7070020054723ACE726EFE0FFA8410152
:1020D0006FE02FC7B73700209387C73ED4438C46A5
:1020E00054CC0CD003A88600930584012322B800A9
:1020F0008CC61CD44DBFEFE28FC237040020EFE046
:10210000FF9E130484281C40B1E7373500201309D3
:10211000854213058542EFE09FA4373500209304E4
:10212000C5431305C543EFE09FA3B707002023AEC7
:1021300027270146B7070020C145114523A097284E
:10214000EFE01FC608C019C5B7F50000938545101C
:10215000EFE09FFDEFE03F9B6FE0AFBEEFE22FBCF3
:102160004CC108C9AA876362B602184D158E054591
:10217000637BE60093854700B707002003A5072887
:10218000EFE09F9F01456FE0CFBB6375D60005452B
:10219000E3FBD5FE93854700B707002003A5C727BB
:1021A000C5B7EFE2CFB72A84AE8432890C4CA6863D
:1021B0004A86A69522855D3719E16FE08FB81C4CE1
:1021C0002285BE941C508297D5B7EFE24FB5B70772
:1021D000002083A7C7274111AA84DC472EC6C04729
:1021E00013054400EFE03F9C83474402324613F757
:1021F000470011CBA68522856D371C50228582971A
:1022000041016FE00FB4F99B2302F402FDB7EFE246
:102210000FB1370400209306C42798421C4391EB6A
:10222000B707002093870728904398C390C26FE0B8
:102230004FB15C47FD558843493FF1BFEFE2AFAB7B
:102240003D694111B70A0020B7090020370B002073
:10225000B70B00201309090E83A7CA27984329CB7F
:10226000DC47814C03AC0700EFF06FB6EFF02FB7FF
:1022700083A749282A8493844928130A8B28636CEE
:10228000F50288C0638F0C0283A70B289043133696
:10229000160003250A00B3058C40EFE0BFEFEFF016
:1022A0004FCF11EDB7E700E0116723A0E72001A8A9
:1022B000854C014C55BFA13F80C0EFF08FCD214C24
:1022C00005A00146E36785FDEFF0AFCCA2856285EE
:1022D000ED3DF5B79247B2458297824763DD07002F
:1022E00003250A0001468A85EFE01FCB35D58247DA
:1022F0002245E3C107FE22445C4895E3EFF02FAE90
:102300009C40AA8C6373F5001937824723A094017F
:10231000FD17E367FCFC8A07CA979C438287130575
:102320004400EFE05F88D9BF834744020C4C9246DB
:1023300093E717002302F4026686B6952285393D9D
:1023400045D18347440213F7470019CB1C4C9245F3
:1023500066862285BE95B1351C502285829749B785
:10236000F99B2302F402CDBF83474402F99B230269
:10237000F402BDB783474402924593E71700230256
:10238000F4020CCC9DE18967938707807390073036
:1023900037F6000037F500001306C6109305903598
:1023A00013054502EFA0607B01A0E6866686E695F0
:1023B00022856D3335B78347440213F727005DF755
:1023C0002285EFE00FD429BFEFE26F95EFF0BFD287
:1023D000B707002083A787289DE389679387078035
:1023E0007390073037F6000037F500001306C6106B
:1023F0009305901113054502EFA0207601A0B707C1
:102400000020B7F50000372500009387C72819473B
:10241000814613060010938505131305C523EFE0CD
:10242000FFEE45DD6FE0EF91EFE26F8F41112A84FF
:102430002E85EF90B0042AC422852EC6EF9010049A
:102440002246B246EF30B07CEF90100EB7F7000096
:1024500083A5C715EF801008EF905002B7F7000072
:1024600003A6071683A64716EF70902FEF90D00BA8
:1024700041016FE00F8DEFE2EF8841112E84AA84B5
:10248000B2853A853E8936C642C43AC2EF8070773B
:10249000AA858840EF801004124788C0BA853A8523
:1024A000EF803076CA85EF80D075CA85EF80707571
:1024B0000C40EF80300222482A8908C0C28542853C
:1024C000EF803074CA85EF80F000AA854A85EF80DE
:1024D0001037B24683A904002A893685CE85EF904D
:1024E000801BCA85EF80F071CE85EF80A07EB7F7A4
:1024F000000088C003A58716CA85EF90C019AA8579
:102500000840EF80107008C041016FE0EF82EFD209
:102510009FFE7971B7340020373900202A8C0A8653
:102520009385844C13050945EF007008B7350020EA
:102530003735002070009385454D1305C545EF00E4
:1025400010071386844C6C000A85EF00C0740245A6
:1025500037340020373A0020EF90301C3245B73A2C
:1025600000209389CA48EF90501B0A869305444A7D
:1025700013050945EF00B0032C0813050945EF00CA
:10258000100E70002C080A85EF007002B73500208D
:102590001306444A9385054B6800EF00C06F02455F
:1025A000938B844C130B444AEF9030173245EF90D5
:1025B000D0164C1013058A46EF00700A0A86930560
:1025C000444A13058A46EF00807E70004C100A854D
:1025D000EF00E07DB73500201386CA489385C54BD0
:1025E0006800EF00406B0245EF9030133245EF90EA
:1025F000D01283A90900B7F7000003A5871683A5A9
:102600000900EF80D02323A0A9000A864C101305EF
:10261000444AEF00C079B7390020138609489385F2
:10262000CA480A85EF00A0780245B73A0020EF902B
:10263000D00E83A78A490A869385844C23A08701FC
:1026400013058A46EF00A07670008A8513858A49B3
:10265000EF00206D0245EF90500C0A866C00138548
:102660000948EF00C0743245EF90300B70008A8546
:102670001385844CEF00206203A50B00EF90F00956
:102680000245EF909009B2470A86930509451385E4
:10269000094823A0FB00EF0080713735002070004F
:1026A0008A8513054547EF00C0670245EF90F006A5
:1026B0000A869305444A6800EF00606F03250B000B
:1026C000EF90B00582472320FB0045616FD03FE6C5
:1026D000EFD25FE3370A002003290A29AA852A845A
:1026E0004A85EF80105293050000EF807040130A76
:1026F0000A299389C18063420504CA852285EF8037
:10270000907993050000AA84EF80903E1345F5FF71
:102710001359F501930500002685EF80D0457D8192
:102720003309A9402380290183A581802685EF8074
:10273000101123208A006FD03FE0838709007D5766
:10274000639AE704930500002285EF80D042635727
:102750000500A2854A85EF8010741DA8930500002E
:102760004A85EF80504193040000E35F05FAB7F417
:10277000000003A58415A285EF80F07183A5841560
:10278000AA894A85EF800055AA854E85EF8080543E
:10279000AA8459BF054793040000E397E7F8A6858C
:1027A0002285EF80503D63520502B7F4000003A577
:1027B0008415CA85EF80306E83A584152A89228509
:1027C000EF804051AA854A85D1B7930500004A851C
:1027D000EF80703AE35A05F4CA852285ADBFEFD287
:1027E0001FD12A8448410111AE84EF902049AE895F
:1027F0000C40832A84002A892E85EF8090402A8A03
:10280000D6855685EF80F03FAA855285EF80804CB3
:10281000EF90C046EF3010722A86AE864A85CE858C
:10282000EF60F07BEF3040782A8C0840AE8C37FDAB
:102830000000EF90A044AE894C40832A84002A898E
:102840002E85EF80103C2A8AD6855685EF80703B16
:10285000AA855285EF800048EF904042EF30906D9E
:102860002A86AE864A85CE85EF607077EF30C073DA
:10287000938A818003A70A00B7F7000003A9871491
:102880002A8BB7F70000AE8B6285E68503AAC714D2
:102890003AC4EF906049EF90603EB7F9000003A69C
:1028A000091683A64916EF70A06BEF90E0475044DD
:1028B00022474A88D287AA86938584011385C4005B
:1028C000EFF07FBB03A70A00DE855A853AC4EF907C
:1028D000A045B708008033C5A800EF90203A03A6B2
:1028E000091683A64916EF70A067EF90E0432247D0
:1028F00010484A88D287AA8693850402138544012A
:10290000EFF07FB7C844EF90603703260D1583269C
:102910004D15EF70E064EF902041EF9020362A894A
:10292000AE89EF30101C2A8C0850AE8CEF90003529
:102930002A8BAE8B4A85CE85EF3030242AC4084CD2
:102940002EC6EF90A0336286E686EF706061224665
:10295000B2462A89AE895A85DE85EF7060602A8684
:10296000AE864A85CE85EF6080742ACCC8482ECECC
:10297000EF90C03003260D1583264D15EF70405E95
:10298000EF90803AEF90802F2A8DAE8DEF3070154A
:102990002A89AE896A85EE85EF30301E2A8D484C33
:1029A000AE8DEF90A02D4A86CE86EF70605B2AC870
:1029B0002ECA6A86EE865A85DE85EF70605A4243DB
:1029C000D2432A86AE861A859E85EF60406EEF90D0
:1029D000A0356247F2472A8B3A85BE85EF90C03416
:1029E000DA85EFF07FA4B7F7000003A8871603A7E6
:1029F0000A005048D287AA869385C4011385040132
:102A0000EFF07FA70840B708008033451501EF902D
:102A1000E0266A86EE86EF70A0542A8B4840AE8B83
:102A2000EF90C0252246B246EF7080534A86CE868C
:102A3000EF7000532A86AE865A85DE85EF602067E8
:102A40002A8B0844AE8BEF9060236286E686EF7097
:102A500020514A86CE86EF70A0502A86AE865A85CF
:102A6000DE85EF60C064EF90202C83A50A00EF8024
:102A70005019AA858844EF80E02588C44854EFF0B7
:102A80001FA9B737002083A7874C88489843D8C030
:102A9000DC439CC4EFF0DFC388C005616FD0FFA8A2
:102AA000EFD25FA641112145EF908046130400004C
:102AB000AA8600C140C13735002005468945130567
:102AC000854CF1224145EF90A044AA8600C140C147
:102AD00000C537350020C0C6094689451305454A5B
:102AE0007D224145EF90C042B7F70000938481807A
:102AF000A28903A487169C40AA8600C15CC1232436
:102B0000350140C53735002009468945130505457F
:102B1000BD2A2145EF90C03F84402A892685EF9049
:102B2000E015B7F7000003A6071483A647142A8A06
:102B3000AE8AEF70E0425286D686EF706042EF9028
:102B4000A01E23229900B7340020CA862320A900A2
:102B5000054689451385C4451D2A1145EF90403B24
:102B6000AA863735002023A0360105468545130582
:102B7000454D312A2145EF90A039AA8600C137354D
:102B8000002023A23601094685451305854601220A
:102B90004C001385C445E124373600204C00130651
:102BA000064B1385C44521241145EF906036B7F7D5
:102BB000000083A78713AA8605461CC1373500206D
:102BC00085451305C54BE1201145EF906034AA8679
:102BD0003735002023A03601054685451305C54835
:102BE0007D202145EF90C032AA863735002023A0F2
:102BF000360123A2360105468945130505484128BB
:102C00001145EF90E030AA863735002023A0360129
:102C100005468545130585499D284145EF90402F80
:102C2000AA8600C123A2360123A4360140C5373548
:102C30000020094689451305454791284E89CE84D1
:102C400041016FD07F8FEFD2FF8B44454C412A84E6
:102C50002685EF80007B4C48EF80C0070C482A890E
:102C600048C82685EF8030230C44EF8080790C40E3
:102C7000AA892685EF80E078CA85EF80A005AA851D
:102C80004E85EF80200508CC04C86FD0FF8A4CC168
:102C900010C514C18280EFD21F86832B4500DC4112
:102CA000639BFB060045984581476317E406AA84A9
:102CB00033858B0200C6232276013289AE89814A90
:102CC0000A05EF90E0242320A900131924002A8488
:102CD00063D77A0583AC8400228C014B338A5C0372
:102CE0000A0A2DA083A7890003A70900110CB38746
:102CF000FA02DA978A07BA9798408843050B5297E9
:102D00000C43110AEF70107D232EACFEE34C9BFDAB
:102D1000850A4A9475BF81473E856FD05F8185479C
:102D2000E5BFEFD24FFD832B4500DC41639BFB06E3
:102D30000045984581476317E406AA8433858B02D2
:102D400000C6232276013289AE89814A0A05EF90B6
:102D5000201C2320A900131924002A8463D77A0594
:102D600083AC8400228C014B338A5C030A0A2DA0B9
:102D700083A7890083A609009840B387FA02110C43
:102D800052970843110ADA978A07B6978C43050BC6
:102D9000EF807010232EACFEE34C9BFD850A4A9415
:102DA00075BF81473E856FD08FF88547E5BF1845D1
:102DB000DC416310F70AEFD28FF3032C450003AA1E
:102DC00085002A89411133054C032324460123221F
:102DD0008601B289AE840A0A814B0A05EF9040133E
:102DE00023A0A9002A8463D88B0783AD8400A2891D
:102DF000014B13962D000DA0832689009307000038
:102E000023A0F900B38A7603131D2B00814C8A0A94
:102E100063C9DC00050B9109E340BBFF850B5294AD
:102E2000D9B783270900984032C6D6976A970C43D2
:102E3000884336C4850CEF80C05CAA8503A50900D1
:102E4000910AEF703069324623A0A900A246329D54
:102E5000C1B701458280054541016FD00FEDEFD22A
:102E60000FEC2A84084541112EC6C8C144403305E1
:102E7000950284C50A05EF90A009B24593982400F5
:102E8000014788C1635797020328840093172700DE
:102E9000AA97B306E80201468A0601A80C40050677
:102EA000B6958C4191068CC3C697E34906FF05078A
:102EB000D1BF41016FD0EFE83DC5EFD2AFE42A8426
:102EC0002E89054585C1835584004840B284B68962
:102ED000054AEF00B00D89E8484083558400EF00B3
:102EE000700B01456FD04FE5834509000840EF00A6
:102EF000905408408945EF00D054E31C45FF08403A
:102F000093050008EF00F053E30B45FF05096388C4
:102F1000090008408509EF007052A38FA9FEFD1437
:102F2000C204C1804DBF05458280EFD2AFDDAA84C7
:102F3000A5C5370403000904054A37690040930911
:102F40000980B70502004E85EF00D0247DF91305F6
:102F50000980854537090300B7690040EF009019E3
:102F60000509938A0980CA855685EF00102165DD21
:102F700093951400528693F5E50F13850980B76485
:102F80000040EF00F01B93840480A2852685EF00AB
:102F9000D01E65DD6FD04FDA370407001304240814
:102FA000014A61BFEFD20FD637040010B76400406A
:102FB0002A8913040408138A04808549A28552854E
:102FC000EF00501DE31C35FFCA8513850480EF0018
:102FD00030166FD06FD6EFD2EFD237040010B7643F
:102FE000004013040408938904800549A2854E8596
:102FF000EF00501AE31C25FF854513850480EF0080
:1030000050116FD06FD3B70600209386162A83C75E
:103010000600370700201307C72A3E971946850781
:10302000B3E7C702034507002380F6008280EFD292
:103030006FCD2E8A370900108545B7640040B70967
:103040000020EFF09FEE01441309090493840480EB
:103050009389C92A954A63694403B7040010376904
:10306000004093840404130A09808549A68552858B
:10307000EF005012E31C35FF130509808545EF0072
:10308000500922856FD04FCBCA852685EF0090105E
:1030900019C92685EF00300AB307340105042380DF
:1030A000A7001374F40FE31854FB8565938505801E
:1030B0002685EF00300A45B7EFD26FC68D4705442D
:1030C00063E4A70293074006054463EFB700014499
:1030D00001ED9547B385F5023715004013050580CE
:1030E0009385451FEF10A00A22856FD08FC5EFD2C0
:1030F0000FC33755004093055052130505C0EF101C
:10310000002C19C5B707002083A7872991C3829790
:103110006FD02FC339712AD6373501402ED413050D
:1031200005C0854506DE16DC1ADA1ED832D236D046
:103130003ACE3ECC42CA46C872C676C47AC27EC077
:10314000EF10201315C1370700209307C7299C43B0
:103150001307C729A1E7B707002083D6272A896765
:1031600093870771958F1CC337350140854513053B
:1031700005C0EF10C011F250E2525253C253325503
:10318000A255125682567247E2475248C248324E02
:10319000A24E124F824F2161730020301C4389667A
:1031A00093860671B697C1B75D7122DE3734014050
:1031B0002ADC2EDA130504C0894586C696C49AC255
:1031C0009EC032D836D63AD43ED242D046CE72CC09
:1031D00076CA7AC87EC6EF10C00921CD130504C097
:1031E000EF102007B70700202391A72AB707002078
:1031F00023AE0728B70700202380072A3735014070
:103200009945130505C0EF1080087254B640A642D8
:10321000164386436255D2554256B25622579257AC
:103220000258F248624ED24E424FB24F6161730073
:1032300020309145130504C0EF10A00361D11305A0
:1032400004C0EF106001B70700209387272A23905E
:10325000A70083D60700B70700209387C7299843A4
:103260008545369798C3B707002005472380E72A8E
:10327000B707002003A54729EFD0CFC541B725C127
:10328000EFD24FA82A8437050020130545293709B6
:103290000020EFD06FC81309092AB7390140B704DD
:1032A0000020854523000900138509C09384C429A3
:1032B00023A00400EF00D0586545EFD0AFBF1385C1
:1032C00009C08145EF00D0578347090005471545E0
:1032D0006315F7009C4001451CC06FD0EFA5054564
:1032E000828039C5EFD20FA2B75400402A892E84BC
:1032F000938404C0854919E0014509A89305000895
:103300002685EF10200A630535010D456FD0CFA249
:10331000930500022685EF10E00865F98345090052
:103320007D1426854204EF10A00605094180E1B70F
:103330000545828021C5EFD2EF9CB75400402A8911
:103340002E84938404C0854901E401456FD0CF9E4B
:10335000930500022685EF10E004631335032685EC
:10336000EF10A0037D142300A900420493055052DE
:10337000268505094180EF10A003F9B70545828035
:103380001145E9B7EFD20F98896779792A84138AB2
:10339000F7701309098F9384077101E401456FD019
:1033A000AF9963628A049319040193D90901014416
:1033B000854537050040EF00F06ACE8537050040AF
:1033C000EF00905C854537050040EF0070473705FA
:1033D0000040EF00D068E3FCA9FE814537050040BE
:1033E000EF0010465DBF4A94A689D9B7EFD22F935C
:1033F00037140140AA84A16513050480612E268537
:10340000EFF05FF813050480A1654D2601456FD0EC
:103410004F93EFD2CF90372401409946054691450E
:10342000AA84130504405522854513050440512202
:103430001309044089454A85892C6DDD1305044034
:1034400089242390A40001456FD0AF8F01A001A073
:1034500001A001A001A001A001A001A001A001A064
:1034600001A001A001A001A001A001A001A001A054
:1034700001A001A001A001A001A001A001A001A044
:1034800001A001A001A001A001A001A001A001A034
:1034900001A001A001A001A001A001A001A001A024
:1034A00001A001A001A001A001A001A001A001A014
:1034B00001A001A001A001A097D1FF1F938181531A
:1034C00017210020130101B417C500001305C57CA6
:1034D00097D5FF1F938505B31386018363FAC50053
:1034E0008322050023A0550011059105E3EAC5FEDE
:1034F00017D5FF1F130505D39705002093850509F0
:103500006377B500232005001105E36DB5FEFD428C
:10351000739002BC894273904280B722000093826C
:10352000028073A0023097D2FFFF938222B193E210
:10353000320073905230EF10E05E973200009382B9
:10354000C29873901234730020305C413707F1E069
:103550001307F7EF944D7D8F9C41D58FD44DD58FB8
:10356000D441A206D58FD98F5CC11C4537F7F1FF36
:103570001307D77FD4457D8F9C49D58F9445860608
:10358000D58FD98F1CC55C55370710FF7D177D8FF0
:1035900083C74501FD1793F7F70FD207D98F5CD585
:1035A00082801C4589C593E717001CC58280F99B62
:1035B000EDBF1C4591C537075000D98F1CC58280CF
:1035C0003707B0FF7D17F98FD5BFA54763F7B7045D
:1035D0008D47138765FF3307F7020328C5009D4712
:1035E000B397E70093C7F7FFB3F70701B396E60079
:1035F000DD8E54C5994763E3C70495477D163306AE
:10360000F6025859FD47B397C70093C7F7FFF98FE4
:103610003396C5005D8E50D982800D473387E50211
:10362000032805019D47B397E70093C7F7FFB3F75A
:103630000701B396E600DD8E14C96DBFB14763E2A2
:10364000C702954765163306F6021859FD47B3972A
:10365000C70093C7F7FFF98F3396C5005D8E10D969
:10366000828095474D163306F6025855FD47B397AD
:10367000C70093C7F7FFF98FB395C500DD8D4CD513
:103680008280684542054181828008416D8D3335D5
:10369000A00082809C4513F7070113F8F70001C7CB
:1036A000D8413368E80037270240145B3707000F22
:1036B000758F55EF3707002085462302D72A371725
:1036C00001406317E50003D7050035832390E5002B
:1036D00083D5050013F7F50F39C318418146854E90
:1036E0003D4F930F800293028004214E3396DE00FB
:1036F000B3F8C500631116039398260033131F0116
:103700001343F3FF3377E300B318180133E7E800FE
:103710006399F70750C98506E39AC6FD18C11307D8
:10372000F00F6375B70454412146854E3D4F930F0A
:10373000800293028004414EB398CE0033F7150106
:103740006392E8021317260001173313EF001343A7
:10375000F3FFB376D3003317E800D98E6397F703EE
:10376000232A15010506E319C6FD54C182803717C7
:103770000140E31FE5F4370700200347472A29DB10
:1037800099B7E39A57F810C979B7E39D57FC2328F6
:103790001501C9BFB71701406318F500B70700202E
:1037A00083C7472A91C3B5810CC98280B7170140EE
:1037B0006318F500B707002083C7472A91C3B58176
:1037C0004CC98280EFC2BFD579712A8483544500E9
:1037D00068082EC6E924925737470F0013070724BD
:1037E00033D7E702C204C18093F404FCC204C18051
:1037F000B24561651305056A131607014182D18C34
:103800002312940083560400C206C182F99AC206AC
:10381000C1822310D40094416364D5068606B3D7D1
:10382000D7029146139707014183BA876373D70084
:10383000914705064206C2074182C1832310C40294
:10384000231EF4008357040003D7450083D6A50048
:1038500093E717002310F40083570400558FC20725
:10386000C18393F757BFD98F2310F40003D7850086
:1038700083D7C500D98F2314F40045616FC07FCC76
:1038800003D5650031667D16631EC5020D46B386FD
:10389000C602B3D7D702C207C1839396470199E204
:1038A00093E71700A166D58F9306C0123307D7029E
:1038B0009306803E3347D702050742074183231012
:1038C000E402BDBF6546B386C602B3D7D702916690
:1038D000C207C183D58FD1B78357050091C593E740
:1038E00017002310F5008280C207C183F99BC2072D
:1038F000C183C5BF8357050091C593E70710231007
:10390000F5008280C207C18393F7F7EFC207C18336
:10391000FDB78357050091C593E707202310F500F5
:103920008280C207C18393F7F7DFC207C183FDB767
:103930002318B5008280035505011375F50F8280A9
:1039400093F7E50F19C293E71500C207C183231847
:10395000F5008280035705009385058091E985670E
:1039600093870780D98FC207C1832310F500828017
:10397000FD779387F77FF98FCDBF835745010355B7
:10398000850142055D8D6D8D220521810D8D1335DB
:1039900015008280411102C402C693D7C5012AC610
:1039A0003EC4A247A205A18199CBB247D1073EC62A
:1039B000B247884341016D8D3335A0008280B24704
:1039C000C181E107EDB7B707002023A4A72A8280B1
:1039D000B70700209387872A94430347050089E6A9
:1039E00083472500920731A8944305466391C60496
:1039F000834725000346150092076314D60093E71A
:103A000007F8B7E600E093F7F70FBA962380F64081
:103A10008546935757003397E6005441ADC69387C8
:103A200007048A07B7E600E0B69798C382808C4304
:103A300089466393D5028346150083472500636555
:103A4000D6008A06B69779BF9386E6038A06B697AC
:103A500093F7F70F920765B790438D46631ED60024
:103A600083461500834725006364D6008606D9BFC8
:103A70009386C6078606E1BF94439147E39AF6F81A
:103A80008347150085B79387070661BFB7160240C5
:103A9000DC4251777D17F98F5D8DC8C28280371760
:103AA00002405C439146B18B6385D700A146638693
:103AB000D706B7177A00938707201CC13716024034
:103AC0005C4237070020130707009183BD8BBA972C
:103AD00083C607001C41B3D7D7005CC15442A18202
:103AE0009D8ABA9683C60600B3D6D70014C5544241
:103AF000AD829D8A369703470700B3D7E7005CC5C0
:103B000058423983937637001387018136970347EC
:103B10000700B3D7E7021CC982805C435843C166E3
:103B2000C983BD8B758F8907C5466393D700C94785
:103B300001EF3747024003270780418B09CF371732
:103B40007A001307072021A837170240584393161D
:103B5000E700E3D606FE37173D0013070790B3874B
:103B6000E702A1BF99C5371702405C4B5D8D48CB7A
:103B70008280B7170240D84B1345F5FF798DC8CB2B
:103B8000828099C5371702401C4F5D8D08CF828017
:103B9000B7170240984F1345F5FF798D88CF828083
:103BA00099C5371702405C4F5D8D48CF8280B717AB
:103BB0000240D84F1345F5FF798DC8CF8280035757
:103BC00005008D679387070483D625007D8F83D7F3
:103BD0000500D58F83D64500D58F83D66500D58F58
:103BE00083D68500D58F83D6A500D58F83D6C50013
:103BF000D58F83D6E500D58FD98F2310F5000357D5
:103C0000C501FD779387F77FF98F231EF50083D7D2
:103C100005012318F50082808357050091C593E7BD
:103C200007042310F5008280C207C18393F7F7FBD6
:103C3000C207C183FDB72316B50082800355C500B6
:103C40008280035585006D8D3335A00082808357B7
:103C500005029206558EC207C183F99BC207C18334
:103C60002310F5028357850103570502B73601403B
:103C7000C207C18393F7C7F0D18F4207C20793866B
:103C800006C04183C1836304D502B70600406300C8
:103C9000D50293860640630CD500B7160040138604
:103CA00006806306C500938606C0631BD500759B1E
:103CB000D98D93E51500231CF5002310B5028280F1
:103CC000559BFDB783570502B2062206C207C18382
:103CD000BD9BC207C1832310F50283588501856708
:103CE000035705029387F7CFD18EB3F71701D58F0E
:103CF00013984500B736014042074208C207938631
:103D000006C0418313580801C1836304D502B70676
:103D100000406300D50293860640630CD500B716B9
:103D20000040138606806306C500938606C0631DA7
:103D3000D5001377F7FD3367E80013670701231CED
:103D4000F5002310E50282801377F7F54D8FF5B764
:103D50008357050037370140130707C0C207C183E7
:103D60006304E502370700406300E50213070740DC
:103D7000630CE50037170040930607806306D50003
:103D8000130707C06317E50003D7250093F7F7F87B
:103D9000D98F03D7650093F7F7CFC207C183D98FB7
:103DA0002310F50083D745002316F50283D70500BD
:103DB0002314F502B7370140938707C06316F50057
:103DC00083C785002318F5028547231AF5008280F2
:103DD0008357050203D6050003D82500C207C18317
:103DE000F99BC207C1832310F5028357050283564E
:103DF000450003578501C207C183420741831377FA
:103E0000C7F8518F03D68500F59BC20633660601BD
:103E1000D18F37360140130606C0C1826313C50235
:103E200003D6A500DD9B03D8E500D18F03D645005E
:103E3000ED9B93F6F6CFD18F03D6C500336606010E
:103E4000D18E2312D500231CE50003D76500231A69
:103E5000E5022310F5028280835705026577130778
:103E6000F7CFC207C183BD9BC207C1832310F502F0
:103E7000835705028356450003D88500C207139671
:103E8000060183568501C18393F7F7FD758F83D6AD
:103E900005004182A206558F83D625004207418343
:103EA000B3E606019206D58FB7360140C207938666
:103EB00006C0C1836311D50483D6A50093F7F7F735
:103EC00003D8C5009206D58F83D64500C207C183AB
:103ED000920693F7F7FBD58FFD769386F63FF18E2A
:103EE00003D6E500C207C183336606010A06D18EF8
:103EF0001396060141822312C500231CE50003D757
:103F00006500231CE5022310F50282808357050219
:103F100003D88500C207C18393F7F7EFC207C183B7
:103F20002310F50283570502835645000357C50148
:103F3000C20713960601420783D605004183137713
:103F4000C7F8558F83D62500C18393F7F7DFB3E613
:103F50000601A206D58FB7360140C207938606C078
:103F60004182C1836312D504FD769386F67FF58F77
:103F700083D6A50003D8C500A206D58F83D64500F9
:103F8000C207C183A20693F7F7BFD58FF576FD165A
:103F9000F18E03D6E500C207C1833366060112061F
:103FA000D18E1396060141822312C500231EE5001F
:103FB00003D76500231EE5022310F5028280035714
:103FC0000502FD77FD17F98F2310F502035805024E
:103FD000835645008357C501657703D6050013074F
:103FE000F7CF7D8FF9772206FD17518FB3F70701C1
:103FF00003D6250003D88500C206420733660601B2
:104000003206D18F37360140C207130606C0C1827F
:104010004183C183631BC50071767D16F18E03D683
:10402000C5001A06D18EC206C1822312D500231EF6
:10403000E50003D765002310E5042310F502828014
:104040008357050091C593E717002310F500828080
:10405000C207C183F99BC207C183C5BF835745040B
:1040600091C52167D98F2312F5048280C607C583C5
:10407000DDBF8357C50009C6DD8D2316B5008280DC
:1040800093C5F5FFFD8DD5BF83578500C207C1835A
:1040900093F7F7F8DD8D2314B50082808357050070
:1040A00091C593E707082310F5008280C207C183FA
:1040B00093F7F7F7C207C183FDB783578501C2079E
:1040C000C183DD9BDD8D231CB500828003578501F4
:1040D000FD779387F77FF98FA205CD8FC207C18344
:1040E000231CF50082808357C501C207C183DD9B75
:1040F000DD8D231EB50082800357C501FD779387B0
:10410000F77FF98FA205CD8FC207C183231EF5006B
:1041100082808357050091C593E727002310F5009F
:104120008280C207C183F59BC207C183C5BF835785
:10413000050091C593E747002310F5008280C20770
:10414000C183ED9BC207C183C5BF83578500C207EA
:10415000C183E19BC207C1832314F5008357850007
:10416000DD8D2314B500828083578500C207C1838B
:1041700093F7F7F7C207C1832314F500835785002F
:10418000DD8D2314B50082802312B5028280231AAC
:10419000B502828083578501C207C183CD9BC207C8
:1041A000C183231CF50083578501DD8D231CB500D9
:1041B000828003578501FD779387F73FF98F231C92
:1041C000F50083578501A205DD8DC205C181231C41
:1041D000B5008280EFC20FB32E8483D5250003562D
:1041E0004400854713B91500AA840609854963135D
:1041F000F60089498357040083568400268595E795
:10420000EFF0FFA4835564002685EFF0BFF88356D6
:104210008400CA8526854E86EFF0DFAA83556400A8
:104220002685EFF01FF96FC02FB1EFF0BFA98355BE
:1042300064002685EFF0FFF783568400CA85268543
:104240004E86EFF0DFA0835564002685EFF09FF4E3
:10425000D9BF0355450382800355850382800355EA
:104260004502828093C5F5FFC205C1812318B500C0
:104270008280835705010355C500ED8F42054181BA
:1042800089C76D8D3335A00082800145828093C53A
:10429000F5FFC205C1812318B5008280EFC22FA8A7
:1042A00083560501F577FD17F58F83D6650003D793
:1042B000C5007971D58F2318F5008356C500FD77A9
:1042C0009387379FF58F83D645002A842EC6D58FD6
:1042D00083D68500D58F83D6A500D58F2316F5000C
:1042E00083574501C207C18393F7F7CFD98F231AAC
:1042F000F5006808EFF0AFFAB747014093870780F1
:10430000B245631DF404A2578356C4006547B387C2
:10431000E702C206C186984163D406040607035625
:10432000C4004206B3D7E702130740064186B3D65E
:10433000E702B3F7E7029206635606028E079387F9
:104340002703B3D7E70213F77700B367D700C20795
:10435000C1832314F40045616FC0AF9E92576DB7BF
:104360000A0775BF920793872703B3D7E702BD8B70
:10437000D58FF1BF81C98357C5000967D98F23162F
:10438000F50082800357C500F977FD17F98FC5BF87
:1043900093F5F51F2312B500828003554500137570
:1043A000F51F8280035505006D8D3335A000828096
:1043B00093C5F5FFC205C1812310B500828013F7B4
:1043C000F50F85461583B397B6006313D7020357DD
:1043D000C500F98F0357050001454207418381CB92
:1043E0000545A181B315B5006D8F3335E00082809E
:1043F00089466315D70003570501E1BF03574501FF
:10440000C9BFEFC2CF912A841165011185451105FD
:10441000EFF02FF7930700202312F100371501402A
:104420008D473EC44C00E147130505803EC6EFF0C2
:104430006FA622C837440140B70708000C081305CF
:1044400004803ECC02CA231E0100EFF03FE5854503
:1044500013050480EFF01FF205616FC08F8EEFC26D
:104460006F8AB7440140AE89328901449384048045
:10447000634524014A856FC02F8C9305000426856F
:10448000EFF05FF27DD9B387890083850700268529
:104490000504C205C181EFF0BFEFD9BF1387418189
:1044A0001C43B7360020938686583E95636BD50033
:1044B000B75600209386068063E5A60008C33E85B4
:1044C0008280FD57EDBFEFC28F8231718145054576
:1044D000EFF04FE981450945EFF0CFE881451145FF
:1044E000EFF04FE8814513050004EFF0AFE7814599
:1044F0000565EFF02FE781450545EFF08FE885452D
:104500001145EFF00FE885452145EFF08FE7854530
:104510004145EFF00FE7854513050020EFF06FE60A
:10452000814513050040EFF0CFE5856A13850A80C9
:104530008545EFF00FE585450565EFF08FE4814592
:104540000965EFF00FE481451165EFF08FE38545D4
:104550000545EFF0EFE481450945EFF06FE485454F
:104560001145EFF0EFE381452145EFF06FE313854F
:104570000A808145EFF0CFE281451165EFF04FE20F
:10458000814537050200EFF0AFE1814537050400B2
:10459000EFF00FE1854537050800EFF06FE081454A
:1045A00037052000EFF0CFDF854537054000EFF0FD
:1045B0002FDF814537058000EFF08FDE814537051D
:1045C0000002EFF0EFDD814537050008EFF04FDD29
:1045D000814537050010EFF0AFDCBD6531469385AE
:1045E00045FEC81037140140EF70D013930D8004BE
:1045F000CC1013050480EED6EFF0CF89C149094CE9
:10460000CC1013050480CED623128107EFF08F88DB
:104610009147CC10130504802312F106CED6EFF09B
:104620006F872143CC1013050480231261061ACE34
:10463000CED6EFF02F86CC1013050480231231075D
:1046400082D6EFF02F85930800026149CC10130544
:1046500004802312110746CCCAD6EFF0AF831308AB
:1046600000049144CC10130504802312010742CAB0
:10467000A6D6EFF02F8213060008CC101305048095
:104680002312C10632C8CAD6EFF0CF8093060010BD
:10469000CC10130504802312D10636C6A6D6EFE04F
:1046A0007FFF13070020CC10130504802312E106BE
:1046B0003AC4CAD6EFE01FFE93070040CC101305A2
:1046C00004802312F1063EC2CAD6856BEFE09FFC40
:1046D000938B0B80CC1013050480CED62312710768
:1046E000EFE05FFB93058002AED613050480CC108B
:1046F00023125107EFE01FFA096DCC101305048057
:10470000A6D62312A107EFE0FFF8916CCC10130599
:104710000480A6D623129107EFE0DFF7617BCC106F
:1047200013050480CED623126107EFE0BFF6054AD9
:10473000CC10130504C0CAD623124107EFE09FF541
:10474000CC10130504C0A6D623128107EFE09FF416
:10475000CC10130504C0CAD623129106EFE09FF3D4
:104760007243CC10130504C023126106A6D6EFE0F5
:104770007FF2CC10130504C0CAD623123107EFE034
:104780007FF1E248CC10130504C023121107A6D60E
:10479000EFE05FF05248CC10130504C0231201076C
:1047A000CAD6EFE03FEF4246CC10130504C02312F7
:1047B000C106CAD6EFE01FEEB246CC10130504C006
:1047C0002312D106CAD6EFE0FFEC2247CC10130526
:1047D00004C02312E106CAD6EFE0DFEB924771492D
:1047E000CC10130504C02312F106CAD6EFE09FEAED
:1047F000CC10130504C0CAD623127107EFE09FE95D
:10480000CC10130504C0EED623125107EFE09FE849
:10481000CC10130504C0A6D62312A107EFE09FE732
:10482000CC10130504C0A6D623129107EFE09FE633
:10483000CC10130504C0A6D623126107EFE09FE554
:10484000CC1037150140A6D62312A107EFE09FE454
:10485000CC1037150140CED623129107EFE09FE32D
:10486000CC1037150140CED623126107EFE09FE24E
:1048700013050480A165EFE07FF3B7340020938433
:10488000C44F93074010C16ADCC493872A009CC8B8
:10489000B7390020B70738009389094E938707205E
:1048A000C0C0916BDCC823A28900B7070500138440
:1048B000A4004946373901409CCC23A47401A28549
:1048C0001385A90023A0240123A0290123946901B1
:1048D000EF704065A28537350140EFF04FAE83D5CC
:1048E0008400C84037640040B7240002EFE09FEA2C
:1048F00083D5890003A5490093840471938A0A072C
:10490000EFE05FE9854537350140EFF0EFB0B727BD
:104910000600938707A8BED8B707FFBFBEDAB70760
:1049200000049387F7028C1813050480BEDC231E55
:104930007107EFE03FE9130504808545EFE0DFF9FB
:1049400037140040B70720009387F7084C18130569
:1049500004803EDA26DC231E0102EFF06FBF0C015B
:1049600002C51305048056C12314810902C302C77E
:10497000EFF00FC60C0113050480EFF0EFCD0C0132
:1049800013050480EFF08FD80C0113050480EFF0BD
:104990000FE3130504808545EFF04FEC1305048009
:1049A0008145EFF08FF1130504808145EFF00FF2A0
:1049B000130504808145EFF00FF313050480814552
:1049C000EFF08FF3130504808545EFF02FED13050D
:1049D00004808545EFF0CFE6B70710009387F7080E
:1049E000BEC0B7770002938707538C00370500409D
:1049F000BEC223140104EFF0AFB585453705004072
:104A0000EFF0CFE9854537050040EFF04FF28545DF
:104A100037050040EFF0EFEF9307F008EC001305C7
:104A200009C02316F104A6C823170104231A0104A0
:104A3000EFF00FB2130509C08545EFF02FE613051F
:104A400009C08545EFF0AFEEAC0882CE130509C072
:104A5000231E410582CC23100106EFF0AFF7930728
:104A6000B012231701022316F102681085472307AD
:104A700041033ED8EFE0DFF593079002681023066C
:104A8000F102EFE0FFF40546130509C09D45EFF084
:104A90004FDE130509C093050005EFF0EFDE1305A7
:104AA00009C09145EFF06FEA130509C093050008AE
:104AB000EFF08FEBF1679387072002CF3EC93754A1
:104AC00000409307003002CD231EF1080C09B147C6
:104AD000130504C0231DF10802CBEFF02FFC854520
:104AE000130504C0EFF01F893165EFE03FFA1306AC
:104AF000000281450811EFB09FA537240140B70798
:104B00000E000C11130504403ED7230A410BEFE0C1
:104B1000DFA3130504408545EFE0BFA801452961E7
:104B20006FB0BFA0B71702409843B706FFF8411116
:104B30001367170098C3D84337060200758FD8C390
:104B40009843B706F7FEFD16758F98C39843B706CE
:104B5000FCFFFD16758F98C3D843B70681FFFD167D
:104B6000758FD8C337079F0098C702C402C6984301
:104B7000C166558F98C3B716024005679C42F18FF6
:104B80003EC6A24785073EC4B24781E7A247E397E6
:104B9000E7FEB71702409C431397E70063550706EB
:104BA00085473EC632478547631DF704B717024065
:104BB000D843B706C1FFFD16D8C3D843D8C3D843DE
:104BC000D8C3D843758FD8C3D843B7063D00558F97
:104BD000D8C39843B7060001558F98C398439316DE
:104BE0006700E3DD06FED843B7160240719BD8C3C9
:104BF000D84313672700D8C32147DC42B18BE39E1B
:104C0000E7FE4101828002C671BFB7160240DC4256
:104C10001146B18B138781816385C7002146638963
:104C2000C702B7177A00938707201CC3B717024043
:104C3000DC43918393F6F700B707002093870701C1
:104C4000B69783C607001C43B3D7D7001CC3828026
:104C5000DC42D4424166C983BD8BF18E890745464B
:104C60006393C700C94781EEB746024083A606801A
:104C7000C18A89CEB7167A009386062021A8B71676
:104C80000240D4421396E600E35606FEB7163D00F6
:104C900093860690B387D70249BF15CDEFB23F8800
:104CA000AA843735002013040553130684009305A6
:104CB000440013050553852C5C40B706008018405E
:104CC000B58F5CC0DCC01C44358F18C098C09CC434
:104CD00001456FB01F8705458280EFB25F84AA84CB
:104CE000373500201304C553130684009305440090
:104CF0001305C553E12C58401C40B7060080358F82
:104D0000B58F1CC058C09CC01C44D8C001459CC471
:104D10006FB03F83EFB2BF8037390020AA841305FC
:104D2000895113048951912B8357040003572400A0
:104D300013058951B307F0403307E0402311F40015
:104D40002310E400EF0020591C4401459CC05C4442
:104D5000DCC01C489CC46FB0CFFE83450500130720
:104D600040066368B7048346150085476364D7042B
:104D7000834625006360D70483463500636CD70201
:104D8000EFB2EFF92A840145EF00A06483451400D7
:104D90000545EF000064834524000945EF0060638A
:104DA000834534000D45EF00C06281473E856FB0FA
:104DB0004FF985473E858280EFB26FF68545EFE07B
:104DC0006FD711C10D456FB0CFF7EFB24FF541115D
:104DD000A307A10085451305F100EFE08FD011C1B5
:104DE000094541016FB0EFF5EFB26FF32A84EF0090
:104DF000102A08C001456FB0CFF4EFB24FF22A84F9
:104E0000EF00702708C001456FB0AFF3EFB22FF18C
:104E10002A848841EF00702908C013054400152B2F
:104E200001456FB00FF2EFB28FEF41112A841305E5
:104E3000E10023170100EFE0CFDD0355E100EF5063
:104E4000D05BB7F7000003A6871783A6C717EF50FC
:104E50002011B7F7000003A6071883A64718EF50E4
:104E60002010EF60706CEF607061B7F7000003A670
:104E7000871883A6C718EF50A00EB7F7000003A647
:104E8000071983A64719EF409015EF60F069B7F74F
:104E9000000083A5C716EF601000EF60305EB7F723
:104EA000000003A6871983A6C719EF405013EF60CF
:104EB000B067B7F7000083A50717EF608054EF6075
:104EC00010362300A400014541016FB08FE7EFB217
:104ED0000FE5814513058006EFE02F851305B00629
:104EE000EFE04F8C0145EFE0EF8BEFE0CF8E814597
:104EF00013058006EFE06F836945EFE0AF8A154543
:104F0000EFE04F8AEFE02F8D814513058006EFE03B
:104F1000CF817145EFE00F894145EFE0AF88EFE0C9
:104F20008F8B6FB00FE2EFB2EFDD4111AA8A2E8AAC
:104F300013058006814532C6EFD03FFF1305B0034D
:104F4000EFE04F86EFE02F89994513058006EFE0EB
:104F50000F8EEFE04F8BAA84A204EFE0CF8AC98CBA
:104F6000EFE06F8A2A842204EFE0EF89498CC204C3
:104F7000EFE06F892A89C184EFE0EF88AA8926854E
:104F8000EF60502FB7F4000083A5041A4204418457
:104F9000EF60204723A0AA002285EF60B02D83A5F3
:104FA000041AEF6000462320AA0013158900336518
:104FB000350142054185EF60F02B83A5041AEF60AF
:104FC0004044324608C241016FB00FD7EFB2AFD2B2
:104FD0002A8BAE8A130580068145B289EFD0FFF493
:104FE00013053004EFD01FFCEFD0FFFE99451305E9
:104FF0008006EFE0CF83EFE00F81AA84A204EFE008
:105000008F80C98CEFE02F802A842204EFD0BFFF6D
:10501000498CC204EFD03FFF2A89C184EFD0BFFE84
:105020002A8A2685EF601025EF605045B7F400000E
:1050300003A6841A83A6C41A42044184EF40207A4E
:10504000B70700202A8C03A5872BAE8CEF60104396
:105050002A86AE866285E685EF50003CEF60D04C34
:105060002320AB002285EF60F020EF60304103A6E3
:10507000841A83A6C41AEF408076B70700202A8BD3
:1050800003A5472BAE8BEF60703F2A86AE865A850C
:10509000DE85EF506038EF60304923A0AA00131579
:1050A00089003365450142054185EF60B01CEF6022
:1050B000F03C03A6841A83A6C41AEF404072B707D7
:1050C00000202A8403A5C72BAE84EF60303B2A86DC
:1050D000AE862285A685EF502034EF60F04423A0F1
:1050E000A9006FB0CFC4EFB2EFC1411181451305E4
:1050F0008006EFD09FE31305B006EFD0BFEA01456D
:10510000EFD05FEAEFD03FED814513058006EFD089
:10511000DFE16945EFD01FE91545EFD0BFE8EFD0DB
:105120009FEB814513058006EFD03FE06D45EFD042
:105130007FE7214593040000EFD0DFE61304107DE4
:10514000EFD07FE92689A6897D144204418029E0B9
:1051500037F400008325041B4E85370A0020EF50EA
:10516000106E8325041B232CAA2A4A85EF50306D2C
:105170008325041BB709002023AAA92A2685EF50FE
:10518000106C37090020232EA92A41016FB0CFBA35
:1051900070002C004800EFF07FE392454E85EF5001
:1051A0007033A245AA894A85EF50D032B2452A8988
:1051B0002685EF503032AA841305803EEFE08F9CA5
:1051C00061B7EFB2CFB5EFF01FF2EFF05FD06FB085
:1051D0004FB7EFB2CFB4814513058006EFD0FFD4AF
:1051E0001305A006EFD01FDC0145EFD0BFDBEFD0E9
:1051F0009FDE814513058006EFD03FD31305700372
:10520000EFD05FDA0945EFD0FFD9EFD0DFDC814581
:1052100013058006EFD07FD11305B006EFD09FD8DD
:105220000145EFD03FD8EFD01FDB81457945EFD066
:10523000DFCF0945EFD01FD70145EFD0BFD6EFD064
:105240009FD981457945EFD05FCE0145EFD09FD5FD
:1052500013050007EFD01FD5EFD0FFD78145794563
:10526000EFD0BFCC0545EFD0FFD313050002EFD040
:105270007FD3EFD05FD66FB0CFACEFB24FAAAA8486
:1052800081457945EFD07FCA0D45EFD0BFD1EFD032
:105290009FD499457945EFD09FD9EFD0DFD62A84A6
:1052A0002204EFD05FD6498C23908400EFD0BFD585
:1052B0002A842204EFD03FD5498C23928400EFD07A
:1052C0009FD42A84EFD03FD4931784005D8D23911F
:1052D000A4006FB00FA7EFB28FA42A8403150500B6
:1052E000B7F40000EF507011B7F7000003A6871B5A
:1052F00083A6C71BEF50401203A6041C83A6441CC0
:10530000EF40E04DEF60502208C403152400EF5039
:10531000D00EB7F7000003A6871C83A6C71CEF308A
:10532000105903A6041C83A6441CEF40404BEF60B9
:10533000B01F48C403154400EF50300C03A6041CF2
:1053400083A6441CEF40A049EF60101E08C86FB050
:105350004F9FEFB2CF9C41112A84294502C6EFE04E
:10536000EF886800EFD0BFF105E53245EF5010102F
:10537000B7F7000003A6871D83A6C71DEF40503E68
:10538000EF60901A814708C03E8541016FB06F9B66
:10539000B7F7000003A5071D8947F5B7EFB22F98AF
:1053A00081450145EFD05FD181450545EFD0DFD084
:1053B00081450945EFD05FD081450D45EFD0DFCF66
:1053C00037554C00130505B4EFD0DFFB01456FB036
:1053D0004F978D4663E8A60213064006854763642F
:1053E000B602EFB2CF9309476308E5006306D50024
:1053F00005476303E5000145EFD01FCC81473E859B
:105400006FB02F9485473E858280EFB24F91B707EA
:105410000020370702019387072C1307D77098C322
:10542000130720102392E700EFF0BFD9EFF07FDAE7
:105430002129EFF0BFF601456FB0AF90EFB22F8E8C
:105440004111136505F874002306A10037350020CB
:105450000946B6851305054EA3060100EFD0DFA56A
:105460000345D10041016FB0CF8DEFB24F8B411199
:105470001375F5072306A10037350020A306B100F8
:1054800081466C0009461305054EEFD0FFA241018D
:105490006FB02F8BEFB2AF882A84EFF03FFAAA8467
:1054A000130514001375F50FEFF05FF92205458D14
:1054B000420541816FB0EF88EFB26F862A84EFF02A
:1054C000FFF7AA84130514001375F50FEFF01FF70B
:1054D0002205458D420541856FB0AF86EFB22F841E
:1054E000130580083734002013048454EFF09FFA2A
:1054F0002310A4001305E008EFF0DFF92313A40044
:105500001305A008EFF05FFB2311A4001305C008EA
:10551000EFF09FFA2312A40013050009EFF0DFF962
:105520002314A40013052009EFF01FF92315A4008C
:1055300013054009EFF05FF82316A4001305600976
:10554000EFF09FF72317A40013058009EFF0DFF6B3
:105550002318A4001305A009EFF01FF62319A400D7
:105560001305C009EFF05FF5231AA4001305E00945
:10557000EFF09FF4231BA4006FA0BFFCEFA23FFA43
:10558000AA84EFF0BFEB2A84138514001375F50F7E
:10559000EFF0DFEA2A891385240022091375F50F3D
:1055A0004204EFF0BFE933642401418D6FA07FF91D
:1055B000EFA2FFF62A841305A00FEFF03FFC118540
:1055C00008C06FA01FF8EFA29FF52A841305700F83
:1055D000EFF0DFFA118508C06FA0BFF6EFA23FF42D
:1055E00037370020130787548356070093574540E9
:1055F0000D85958FB387F7028606158D83162700D4
:1056000003174700B1873305D502B387E7022D851D
:10561000B9873E95B707002023A4A72C95473305EB
:10562000F502130505082185EF60C044B7F70000B7
:1056300083A50717EF50B0206FA0BFF0EFA23FEE99
:10564000B707002083A5872C0577130707C02E977F
:1056500093D7F541FD17B335B700BE95B388E50282
:105660003734002013048454031884009356F841FF
:10567000B337E7028608BE98B386E602B387050310
:105680003306E802BE963338E80293574601131EEC
:10569000C6003303E702C2961398C6008316A4001F
:1056A00033E8070113D6F641B387D8023306660202
:1056B0003E96B3876602B3B66602A183369693160A
:1056C0008601D58F935686403386C701B337F600DF
:1056D000C296BE96A167BE96835764003336F60223
:1056E000B386F602B29613D61640FD86B367D6008F
:1056F00063890714031E04011358FE41330868022E
:10570000B388C803C29833086E0233336E024693DF
:105710008318E40093D7F841B3851503B387E702F4
:10572000AE97B385E80233B7E8023E97460793D7B2
:10573000F500C6055D8F2E98B335B8001A972E97E1
:10574000B70510003385A5409357F54193551500D3
:10575000FE07CD8F8315C4007E05330805418E05F5
:105760002E9733350501998F898F0565130555C32C
:10577000B387A702B335A8023305A802BE95EF3060
:10578000805503176401939735019356D500DD8E3C
:1057900013D8D5409357F7413306E802B387D702B1
:1057A000B2973306D7023337D702BA973308C80205
:1057B000B387D7023307D602C297B336D6026583C2
:1057C00003164401B69793967700558FB306A7004A
:1057D000E58733B7E600AE97BA971357F64133071C
:1057E000A702B305B602BA953307A6023336A6025E
:1057F00013553701B2951396D500518DCD85369549
:10580000B336D500AE97B697139787012181598D8E
:1058100003172401A1879355F7419356C7019205B9
:105820001207D58D3A95BE953337E500BA95EF60EE
:10583000C030B7F7000083A5071EEF5050006FA0DF
:105840005FD013050000E5BFEFA27FCDEFF01FC9C9
:1058500081451305500FEFF05FC19305700B1305E1
:10586000400FEFF09FC0375502001305059FEFD0A2
:105870007FB16FA01FCDEFA29FCA41116800EFF06A
:105880003FD33245EFF09FD541016FA09FCBEFA2F0
:105890001FC94111EFF03FFE6800EFF0DFD2324543
:1058A000EFF0DFD941016FA0DFC9EFA25FC741115F
:1058B0002AC6EFF0DFFDB24537F40000EF50207844
:1058C000EF60C03B0326841E8326C41EEF005034C5
:1058D000B7F700002A86AE8603A5071F83A5471FDA
:1058E000EF409033B7F7000003A6871F83A6C71FBA
:1058F000EF400067EF604043930500002A84EF50BB
:10590000301F6344A00013040000228541016FA0F2
:105910005FC301A001A0EFA29FC01971930700000F
:10592000130680038145A8003EC83ECA3ECC02D281
:1059300002D402D602D802DA02DC02DE82C082C2BF
:1059400002CE02D023060100EFA07FC04808EFF08E
:10595000AFC9370400204810EFF02FB40818EFF05B
:10596000CFB76818EFF00FBB0808EFF0EFC72808B3
:10597000EFF0AFC84C086808EFF04FC96800EFF0CF
:105980008FCA4C103146A800EF60C0590C18314640
:10599000C808EF6020596C1831468810EF608058B5
:1059A000C2470326C42DAC00BED6E2471305803E95
:1059B000BED8F247BEDA8257BEDC8347C100230E51
:1059C000F106EFA05FC81545EFA0FFCD69B7EFA2C4
:1059D0007FB33571130680038145A810EFA03FB750
:1059E0001306400281450810EFA07FB6130640025F
:1059F0008145C800EFA0BFB5014402C802CA02CC6D
:105A0000231E0100A305010002C6B7090020370AC2
:105A10000020B70A002037090020B704002003A6A1
:105A2000C92D9306B100AC101305803EEFA05FC4F2
:105A30007DF50C10A810EFC09FDAB2573707008031
:105A40006800B98FBECCD257BEC8C257BECA9257E3
:105A5000BEC4A257BEC6EFA0BFCAB2471307803E5E
:105A6000818F6370F7089307A0FA2308F100CA47F3
:105A700003264A2D0C0813D78700A30CF100230D31
:105A8000E10013D70701E183230EF1008347C10929
:105A9000A30DE1001305803EA30EF1009257A30869
:105AA00001002309010013D78700A30AF100230B8B
:105AB000E10013D70701E183230CF100930700FCF9
:105AC000A309F1009307F003A30BE100230AF100FF
:105AD000EFA07FB703A50A2E81451304843EEFA0F3
:105AE0007FBF0326892DCC001305803EEFA0BFB5F4
:105AF00003A5842E8145EFA0FFBD15B7EFA23F9F00
:105B00003171130640028145680902CAEFA03FA423
:105B1000B7370020373700209387075613070757FA
:105B2000D8C349472395E70023860700238707004A
:105B3000B7F7000083A70720A309010002CC3ED6D7
:105B40003ED83EDABEC4BEC602CE02D002D2231474
:105B5000010202DC02DE82C082C282CA82CC82CE14
:105B600082D082D882DA82DC82DE02C702C902CB0E
:105B700002CDBEC8BED2BED4BED63EC13EC33EC517
:105B8000EFE05FFAEFF06F880945EFD0DFE3EFE079
:105B90009F93EFF09F877165930A0000130505201E
