:100000006F20E066130000001300000013000000E2
:100010001300000013000000130000001300000094
:100020001300000013000000130000001300000084
:08003000130000007300100032
:100038000000000000000000D8420000DA42000082
:10004800000000000626000000000000000000007C
:10005800082600000A26000000000000000000003A
:10006800160A000000000000000200000000000066
:100078001026000012260000142600001626000094
:10008800182600001A2600001C2600001E26000064
:100098002026000022260000242600002626000034
:1000A800282600002A2600002C2600002E26000004
:1000B80030260000322600003426000036260000D4
:1000C800382600003A2600003C2600003E260000A4
:1000D8004026000042260000442600004626000074
:1000E800482600004A2600004C2600004E26000044
:1000F8005026000052260000542600005626000014
:10010800582600005A2600005C2600005E260000E3
:1001180060260000622600006426000066260000B3
:10012800682600009C2500006C26000000000000E6
:080138000000000000000000BF
:10020000130181F806C216C41AC61EC822CA26CC1B
:100210002ACE2ED032D236D43AD63ED842DA46DC76
:100220004ADECEC0D2C2D6C4DAC6DEC8E2CAE6CC46
:10023000EACEEED0F2D2F6D4FAD6FED8F3220030CF
:1002400096DA9702002083A262E823A02200F32519
:1002500010342EC003A1C181EF10406917030020A4
:100260000323C3E603210300824273901234D65263
:10027000739002309240A2423243C2435244E2445D
:10028000724582551256A2563257C2575258E258FA
:1002900072598649164AA64A364BC64B564CE64C0E
:1002A000764D865D165EA65E365FC65F13018107DA
:1002B0007300203013000000130000001300000042
:1002C00013000000130000001300000013000000E2
:1002D00013000000130000001300000013000000D2
:1002E00013000000130000001300000013000000C2
:1002F00013000000130000001300000013000000B2
:1003000083A2C181938202E073900234170100201E
:100310000321C1DB024182403243C2435244E244E2
:10032000724582551256A2563257C2575258E25859
:1003300072598649164AA64A364BC64B564CE64C6D
:10034000764D865D165EA65E365FC65FD652A1020A
:1003500073900230A24213018107828013000000D3
:100360001300000013000000130000001300000041
:100370001300000013000000130000001300000031
:100380001300000013000000130000001300000021
:100390001300000013000000130000001300000011
:1003A0001300000013000000130000001300000001
:1003B00013000000130000001300000013000000F1
:1003C00013000000130000001300000013000000E1
:1003D00013000000130000001300000013000000D1
:1003E00013000000130000001300000013000000C1
:1003F00013000000130000001300000013000000B1
:10040000F322003093F272FF130380181203B3E259
:100410006200711523205500130585FA10C12115BE
:10042000232005009302000063870200711523203A
:100430000500FD12D5BF71150CC1828000000000BF
:1004400000000000000000000000000000000000AC
:10045000000000000000000000000000000000009C
:10046000000000000000000000000000000000008C
:10047000000000000000000000000000000000007C
:10048000000000000000000000000000000000006C
:10049000000000000000000000000000000000005C
:1004A000000000000000000000000000000000004C
:1004B000000000000000000000000000000000003C
:1004C000000000000000000000000000000000002C
:1004D000000000000000000000000000000000001C
:1004E0000000000000000000000000000000397162
:1004F00001436EC619A0397141536AC866CA62CCFD
:100500005ECE19A0397101535AD056D252D44ED66C
:100510004AD826DA22DC06DE3301614082824111AC
:100520004AC026C222C406C68282B24D4101024D93
:10053000924C224CB24B4101024B924A224AB249A0
:100540004101024992442244B240410182803D432C
:100550002A876373C3029377F700BDEFADE5937607
:1005600006FF3D8ABA960CC34CC30CC74CC7410763
:10057000E36BD7FE11E28280B306C3408A0697027E
:10058000000096966780A6002307B700A306B70071
:100590002306B700A305B7002305B700A304B700DF
:1005A0002304B700A303B7002303B700A302B700D7
:1005B0002302B700A301B7002301B700A300B700CF
:1005C0002300B700828093F5F50F93968500D58DB3
:1005D00093960501D58D61B7939627009702000089
:1005E00096968682E78086FA9680C1171D8F3E9682
:1005F000E374C3F8A5B711CD054889CD01CEEFF25C
:100600001FF2BA8736878146EF007049014842855C
:100610000DBF054842858280EFF27FF0EF00506BFE
:10062000014505B711CD854789CD01CEEFF23FEFEA
:1006300032840146EF00E06F814708C03E8511B764
:1006400085473E858280854795C10DC2EFF23FED1B
:10065000B2878146135615003E85EF00207405478A
:1006600081476303E50089473E85E1BD3E85828081
:10067000854785C91DC6EFF29FEA328413561500DF
:100680002285B684EF00700A05478D476319E5009F
:100690002285EF00501E05052380A40081473E857A
:1006A0004DB53E858280EFF29FE70581EF10E01D9A
:1006B000014541BDEFF2BFE61306401F3306C502F8
:1006C0009307803E814501453356F602EF104063A3
:1006D000014585BDB70700209387070C9843636FDA
:1006E000A702D043B386C7006316D50054413E85A8
:1006F000B296D4C35041B306C500631CD700B706F9
:10070000002083A6860A6306D70054431843B29696
:1007100054C118C16303F50088C38280BA877DBFC6
:10072000EFF25FDE41112AC6EF009063B7060020AA
:1007300083A7860A370600209386860A1306C60A10
:100740003245A1EF370700209307871693F5F7008E
:100750001307871681C51387F700419BB705002053
:100760009385050C23A2050098C18D65C115AE9730
:10077000C19B23A2070023A00700B385E7409CC2CA
:100780001CC3B707002023AAB70AB707002023A875
:10079000B70AB70700804CC31CC2032A0600B37710
:1007A000AA0085E39307F5FF3957636CF7009307B9
:1007B000050113F7F70041C313F707FF410763EB88
:1007C000E706814489A022872E8461A058C15CC0BD
:1007D00011375840B70600209386460B9042B30766
:1007E000E94023A0F90063F3C7009CC2B7070020CB
:1007F0003367EA009387870B58C09843C1042320CE
:100800000400050798C3EF00F07193F7F400D1CB13
:100810008967938707807390073037A6000037A554
:100820000000130606609305001113054563EF8071
:10083000903201A0BA87370700200329070B9309DC
:10084000070BE360F9F8370700200324070C1307B0
:10085000070C50406374F6000C40B5F59442E382F7
:1008600086F61440044314C33307F640930600028F
:10087000E3F1E6F63305F4009376F500A1DA896733
:10088000938707807390073037A6000037A50000D4
:10089000130606609305F00C13054563EF80B02B3B
:1008A00001A02685410149B94DC1EFF25FC7B707E5
:1008B0000020032745FF83A7C70A2A84B376F700E1
:1008C0009DE28967938707807390073037A6000001
:1008D00037A5000013060660930540121305456313
:1008E000EF80702701A0832605FF9DC2896793874B
:1008F00007807390073037A6000037A50000130665
:1009000006609305501213054563EF80D02401A0C3
:1009100093C7F7FFF98F232AF5FEEF007044B7075E
:1009200000209387070B9443032744FF130504FF1C
:10093000369798C34533B70700209387C70B984372
:10094000050798C3EF00105EEDBE8280B7E700E0B8
:1009500041572387E7402386E740B7F700E023A00D
:10096000070023A20700814694C70147D8C783A583
:1009700001811307401F814633D6E5023D4790CBE6
:10098000D4CB98C38280EFF29FB9411102C6F327FE
:1009900050303EC6B2470D478D8B6384E7028967AE
:1009A000938707807390073037A6000037A50000B3
:1009B000130686659305600B13054563EF80B01938
:1009C00001A0B757002093870700BD8B9DC389679F
:1009D000938707807390073037A6000037A5000083
:1009E000130686659305B00B13054563EF80B016BB
:1009F00001A0A93FB7E700E0116723A0E710056752
:100A000023A0E710B707002023A00708EFF05F8FAF
:100A1000014541013DB6397106DE16DC1ADA1ED8F1
:100A20002AD62ED432D236D03ACE3ECC42CA46C88E
:100A300072C676C47AC27EC0731101348967938707
:100A4000078073900730B7F700E023A20700EF009C
:100A5000D03211C5B7E700E0116723A0E72089670E
:100A6000938787887390073073110134F250E252F4
:100A70005253C2533255A255125682567247E2471C
:100A80005248C248324EA24E124F824F216173002B
:100A9000203089679387078073900730B70700205D
:100AA000938707089843050798C38280370700207B
:100AB000130707081C438DE7EFF27FA6896793872A
:100AC00007807390073037A6000037A50000130693
:100AD00086659305301013054563EF80D00701A0AC
:100AE000FD171CC391E78967938787887390073048
:100AF0008280930785007D575CC118C55CC51CC901
:100B00002320050082802328050082809841FD561D
:100B100093078500631ED7001C49D843D8C10CC772
:100B20009CC5CCC31C4188C985071CC18280B6877F
:100B3000D4439042E37DC7FECDB7544118451C49CC
:100B400098C654C3D4436393A600D8C398432328BC
:100B500005007D1798C388438280EFF25F9C4111A6
:100B60002AC6053F3245005D913713351400410117
:100B7000C9BAEFF2DF9A32893041045D2A8401EE6E
:100B80001C41014591E70844EF10E00A23240400CA
:100B9000850404DC7DB2631009024841EF80407097
:100BA0005C4038400145BA9718445CC0E3E2E7FE78
:100BB0001C405CC0F1BF4845EF80806E3C4058440B
:100BC0001440B307F0403E9758C46375D7001844EB
:100BD000BA975CC489470145E31CF9FAD5D8FD14DE
:100BE00045BF30410DC2EFF29F9358451445AA8787
:100BF000329758C56364D700184158C52E85CC4735
:100C0000EF80006A3DBA8280EFF27F912A845135ED
:100C10008344540413094402E204E18463459002CE
:100C2000FD57A302F4045935AD3583444404130938
:100C30000401E204E18463449002FD572302F404BA
:100C4000B5356FF01F905C50E1DF4A85EF00905F93
:100C500019C1EF00D07BFD14E204E184C1B71C4848
:100C6000E9DF4A85EF00105E19C1EF00507AFD14EC
:100C7000E204E184C9B7EFF29F8A41111DE189675F
:100C8000938707807390073037A6000037A50000D0
:100C90001306C6689305001113054563EF80A06B2A
:100CA00001A05C5D2EC62A84BDC33841B3B7E702FC
:100CB000B9EFC5333040585C1440232C0402B3070D
:100CC000E602B24554C03387F600918FB6975CC4F4
:100CD000FD572302F40418C4A302F40495E11C4850
:100CE00099CB13050401EF00F05511C5B7E700E0FB
:100CF000116723A0E7205D3B054541016FF07F842C
:100D000013050401FD3313054402E533EDB789678C
:100D1000938707807390073037A6000037A500003F
:100D20001306C6689305501413054563EF80A0624F
:100D300001A0EFF2CFFE411121C1B3B7A502AA84F1
:100D400085EF3305B502930770FB63E7A702130530
:100D500085042EC6F1322A8401CDB245AA8799C1F5
:100D6000930785042CC01CC044DC854522852137AF
:100D7000228541016FF0EFFC8967938707807390AC
:100D8000073037A6000037A500001306C668930594
:100D9000601C13054563EF80005C01A0EFF2AFF526
:100DA000011132C61DE18967938707807390073070
:100DB00037A6000037A500001306C6689305E03289
:100DC00013054563EF80205901A02A842E89B6843B
:100DD0008DE53C419DC389679387078073900730F9
:100DE00037A6000037A500001306C6689305F03249
:100DF00013054563EF80205601A089476398F402EC
:100E0000585C85476304F70289679387078073906E
:100E1000073037A6000037A500001306C668930503
:100E2000003313054563EF80005301A0EF00F05E2F
:100E300015E5B247014C85C7896793870780739092
:100E4000073037A6000037A500001306C6689305D3
:100E5000303313054563EF80005001A0014C094B6E
:100E6000FD59930B040137EA00E0916AADA0B24747
:100E700081E72D39014549A863150C002808EF00CA
:100E8000304B2D31EF00C06D293183474404E20718
:100E9000E187639437012302040483475404E20783
:100EA000E18763943701A302040409316C00280828
:100EB000EF00704935E5F13E185C5C5C6319F7049E
:100EC000F536B2455E85EF00102C2285353BEF00EC
:100ED000700521C5054C753E185C5C5C6364F700C9
:100EE000E39764F92686CA85228561315C5089C7FB
:100EF00013054402EF00103511C5B7E700E0116794
:100F000023A0E7206536054505616FF04FE2793E85
:100F10002285DD39EF00100175BF23205A215DBF06
:100F20002285DD31EF001000B1B7EFF2CFDC011107
:100F300032C61DE18967938707807390073037A613
:100F4000000037A500001306C66893051055130569
:100F50004563EF80404001A02A84AE898DE53C4185
:100F60009DC38967938707807390073037A6000079
:100F700037A500001306C668930550551305456351
:100F8000EF80603D01A0EF00504915E5B2470149EF
:100F900085C78967938707807390073037A600005D
:100FA00037A500001306C6689305A05513054563D1
:100FB000EF80603A01A001497D5A930A440237EB61
:100FC00000E0916B9DA0B24781E7CD34014561A05F
:100FD000631509002808EF00B035C93C5123553C82
:100FE00083474404E207E187639447012302040432
:100FF00083475404E207E18763944701A302040492
:1010000075346C002808EF00103431ED2285B136BC
:1010100031C5B2455685EF0010172285F536EF0031
:10102000607019E123207B210549A534045CC1DCF3
:10103000CE852285FD14753604DC1C4899CB13053A
:101040000401EF00302011C5B7E700E0116723A0CD
:10105000E720A93C054505616FF06FCD22856D360F
:10106000EF00406CD1B722854536EF00A06B22859A
:10107000ED345DD9A1BFEFF28FCA41111DE189673F
:10108000938707807390073037A6000037A50000CC
:101090001306C6689305307E13054563EF80A02BC9
:1010A00001A02AC6EFF0FF9E3245085D2AC6EFF088
:1010B000FF9F324541016FF0CFC815E5EFF22FC613
:1010C0008967938707807390073037A6000085658E
:1010D00037A500001306C668938585AC13054563E4
:1010E000EF80602701A09DCD37360020930686163D
:1010F0008147014713068616214883A84600639856
:10110000A80093173700B2978CC3C8C321A891E7F2
:1011100083A8060063930800B6870507A106E31EAF
:1011200007FDFDF38280EFF28FBF41112A842EC6A6
:1011300032C4EFF01F96834744047D572246E207EE
:10114000E187B2456394E700230204048347540413
:101150007D57E207E1876394E700A302040432C6E7
:101160002EC4EFF0BF941C5CA245324689E71305FC
:101170004402EF00D0052285EFF01FA941016FF076
:101180004FBC370700201307C70C1C439443B70715
:1011900000209387C70E81E67D5798C3828018434D
:1011A00058471843DDBFEFF2EFB537090020B70706
:1011B00000209304890C83A9C70F2A849C4088408F
:1011C0004111A380070611052EC6EFF01F977D572A
:1011D0009307890CB245631CE40295C9B737002018
:1011E000938707279440D84398C610479440D0C6A9
:1011F00094401047910654C29440910614C79840F9
:101200005CCB9843050798C341016FF0EFB2984358
:101210004E9440C3637B3401370700200325070D3C
:101220008C439105EFF09F8EC5B73707002003254B
:10123000C70C8C439105EFF07F8DB7070020938793
:10124000C70E9843E372E4FC80C37DBFEFF28FAB1F
:1012500037340020B709002013044428370A00203F
:101260009384890D9C40EDDFEFF0BF825C4403A9BD
:10127000C70013054900EFF05F8C13074A0D1C43AC
:10128000FD171CC39C40FD179CC0EFF03F82032557
:101290000903EFF06FE14A85EFF00FE1D1B7EFF20C
:1012A0008FA513192600AA8A4A85AE89368BBA8B78
:1012B0003E8AEFF0EFC605C5AA8413054006EFF09D
:1012C0002FC62A8411C904D9814793060002639A64
:1012D0000900230A050225A02685EFF0EFDC7D55E5
:1012E000D1AA3387F900030707003306F400230A65
:1012F000E60201C78507E396D7FEA30904049947D0
:1013000063F477038967938707807390073037A664
:10131000000037A500001306066B9305703913050E
:101320004563EF80400301A0930944004E852326C6
:101330007403232A7405232C0404EFF0CFFC130557
:101340008401EFF04FFC1D471305C9FF33077741B8
:10135000269500C818CC40D0230E0404A30E040424
:10136000230F0404A30F040423000406A3000406AF
:101370005A86D6854199EFF0AF8808C063040A0009
:1013800023208A00EFF0EFF0B70700209387470D86
:1013900098433709002037350020050798C3130705
:1013A000890C1843370A00201309890C9304851A05
:1013B000130A8A0F63120710232089009843854778
:1013C0006318F7081305851AEFF0AFF2138544018F
:1013D000EFF02FF213858402EFF0AFF11385C40311
:1013E000EFF02FF113850405EFF0AFF013854406FD
:1013F000EFF02FF013858407EFF0AFEF37350020C3
:10140000130B452313054523EFF0AFEE37350020CE
:10141000930A852413058524EFF0AFED37350020BE
:101420001305C525EFF0EFEC3735002013054528EF
:10143000EFF02FEC3735002013050527EFF06FEBA9
:10144000B707002023A6670DB707002023A8570D74
:10145000B70700209387070E9843050798C33707FF
:1014600000201307470E5C54144363F3F6001CC3BB
:101470005147B387E702BE94DC4098471CC458C468
:1014800098472322370123A437019C4044C885078D
:101490009CC0EFF0AFE183270A00054581CF832789
:1014A0000900D8575C546377F700B7E700E011678D
:1014B00023A0E7206FF0AF8783270A00D1FB8327A3
:1014C0000900D8575C54E3E5E7F82320890049B7C1
:1014D000EFF2EF84B7070020B7A500003715000032
:1014E0009387870E01478146130600109385456D4B
:1014F0001305C5246D330544631E8502EF00F036E5
:10150000631A850289679387078073900730B7074E
:1015100000207D5723A6E70EB707002023ACA70EB7
:10152000B707002023AE070EEFF0EFC583A7418079
:101530006FF02F81FD57E31BF5FE896793870780C6
:101540007390073037A60000856537A500001306A5
:10155000066B9385058413054563EF70D05F01A08A
:10156000B70700209387C70D9843050798C382806B
:10157000B707002003A5C70F8280B707002083A705
:10158000C70D63980718EFE29FF9B707002093870C
:10159000C70F8043050480C339E8B707002093874D
:1015A000C70C9843184305C78967938707807390D2
:1015B000073037A60000856537A500001306066BC7
:1015C000938575AC13054563EF70F05801A037079C
:1015D00000201307070D9443104390C3B707002062
:1015E00014C39387070F9843050798C3593E3706DE
:1015F00000209307C60E9C4337370020B705002014
:101600001306C60E1307871A9385850C014563756B
:10161000F4029C41D146DC57B387D7023E9718436A
:10162000854763F3E7000545B707002083A7071048
:1016300091C305456FE0FFF0370E0020B70E002084
:10164000514F9307CE0C9443944281E6FD571CC240
:10165000C9B79C43DC47DC47D4436374D40014C24D
:101660004DBF83A8870003A8C700D44B138347004E
:1016700023A408012322180183A84600639468006C
:1016800023A2060103A8060023AA07007D1823A0B1
:101690000601945795CA03A8C70183A8070283AF20
:1016A00046002324180183A8070223A208011388F7
:1016B000870163940F0123A2160103A8060023A447
:1016C00007027D1823A0060193864E0E03A8C702C9
:1016D00083A8060063F4080123A00601B306E8030B
:1016E000BA9683A8460083AF880023A4170123A6D7
:1016F000F70183AF880023A26F0023A46800D4CB36
:101700009C4285079CC29C41DC57E36CF8F205457E
:101710000DBFB70700209387470F98430145050782
:1017200098C38280EFE21FDE370400201304C40D4B
:101730001C40411185E789679387078073900730C4
:1017400037A60000856537A500001306066B938554
:10175000358B13054563EF70104001A0EFF06FB3B8
:101760001C40FD171CC01C4089CB01452AC6EFF068
:10177000EFB3324541016FE03FDCB707002083A79C
:10178000470DE5D7B73600203735002081479386CF
:10179000C625370F00201305851AD14837030020CE
:1017A000370E0020854E59A8DC46DC47CC4F9053BD
:1017B000985790C503A807022322B80003284700C2
:1017C000938587016313B80050C3104323A4070215
:1017D0007D1610C38C47D047D84B1388470090C55F
:1017E0004CC24C436393050150C3104323AA070026
:1017F0007D1610C313074F0ED0570C4363F3C5007B
:1018000010C3330716032A974C4383AF85008CC758
:1018100023A6F70183AF850023A20F0123A40501AE
:101820000C43D8CB85050CC31307830C18435857BA
:101830006366E60013070E102320D70198422DF7A8
:1018400099C3EFF01F94B70700201387470F044395
:101850001384470F91CC370900208549393B09C5CE
:101860009307091023A03701FD14EDF8232004008D
:10187000B707002083A70710E38907EEB7E700E06A
:10188000116723A0E7200545D5B519E5B7E700E0C6
:10189000116723A0E7208280EFE27FC8B70700200E
:1018A00083A7C70D41119DC38967938707807390F4
:1018B000073037A6000037A500001306066B930516
:1018C000905413054563EF70102901A02AC64939C9
:1018D00032458145EFF03F8DB13511E5B7E700E0C6
:1018E000116723A0E72041016FE0BFC5B7070020C3
:1018F00003A7C70DB70700209387071001C7054747
:1019000098C3828023A00700B70700201387470EE3
:1019100018431386470EB73700209387871A51481C
:10192000B3060703B385D700884115C5C841A10692
:10193000BE964841C8C16314D5005441D4C1D146B4
:10194000B306D702B697DC43D447B707002023A4D9
:10195000D70C18C2828015E7EFE27FBC89679387B6
:1019600007807390073037A60000856537A5000013
:101970001306066B938525C013054563EF70B01DF4
:1019800001A07D1771BFEFE29FB905E589679387D5
:1019900007807390073037A60000856537A50000E3
:1019A0001306066B9385C5C113054563EF70B01A26
:1019B00001A0B70700202E8483A5870CE105EFF076
:1019C000EF9485452285EFF00FFE6FE09FB7EFE2C1
:1019D0001FB52A8705E589679387078073900730CD
:1019E00037A60000856537A500001306066B9385B2
:1019F00025C513054563EF70101601A0B707002039
:101A00009387870C54432E858C4303A88600D4CD3E
:101A10008C4323A0050303A807008C46610823A27A
:101A2000050103A807009C43610823A4060198D779
:101A30001C4385071CC311C27D55B285EFF0AFF67C
:101A40006FE03FB05C45DC4795E7EFE25FAD89674B
:101A5000938707807390073037A60000856537A508
:101A600000001306066B938525C813054563EF70C8
:101A7000900E01A0D04F945398579385870114C6B8
:101A8000D0C250436313B60054C3144323A40702C7
:101A9000FD1614C3370700200327C70DD45725EFC1
:101AA0008C47D047D84B90C5D04748434CC293850C
:101AB00047006313B50050C3104323AA07007D16E7
:101AC00010C3370700201307470E10436373D60077
:101AD00014C351473386E602373700201307871AAD
:101AE00032975043084690C7C8C708464CC10CC639
:101AF000D8CB1C43014585071CC3B707002083A72B
:101B0000870CDC5763F8D700B7070020054723A0F0
:101B1000E71005458280373700201307C72550435B
:101B20000846D0CF88D308464CC10CC698D7D1B749
:101B3000B707002083A7070F1CC1B707002083A7A2
:101B4000C70F5CC18280EFE29F9D411105E5896767
:101B5000938707807390073037A60000856537A507
:101B600000001306066B9385D5CF13054563EF7010
:101B7000807E01A085E58967938707807390073091
:101B800037A60000856537A500001306066B938510
:101B9000E5CF13054563EF70007C01A02EC62AC473
:101BA000EFE03FEF37070020B70700201307870C4F
:101BB00083A6C70F1C432245B24583C7170699CB9E
:101BC0001C43A38007060544EFE05FEE2285410138
:101BD0006FE03F979C417D570144E387E7FE37065E
:101BE00000200326060F0328050058416307C8009C
:101BF00063E5E60023A00500F9B73386E640E37B02
:101C0000F6FE958FBA979CC12537014475BFB7077B
:101C10000020054723A0E7108280B707002083A794
:101C2000870F054581CBB707002003A5C70D1335E6
:101C300015000605828011E50145828001456FE0AF
:101C40005F90EFE2DF8DB707002083A7870C2A841F
:101C50006385A7028967938707807390073037A64B
:101C60000000856537A500001306066B9385F50413
:101C700013054563EF70206E01A0BC4F85E78967AF
:101C8000938707807390073037A60000856537A5D6
:101C900000001306066B9385050513054563EF7079
:101CA000806B01A054557849FD173CCDE388E6F8D8
:101CB000D1F7930445002685EFE03FE87C481D47B7
:101CC0001D8F18CC370700201307470E14435CD430
:101CD00063F3F6001CC351473387E702B737002090
:101CE0009387871A0545BA97D843144718C454C434
:101CF0001447C4C204C798435CC8050798C381B79A
:101D0000EFE2FF81411105C58967938707807390D2
:101D1000073037A60000856537A500001306066B5F
:101D20009385652613054563EF70E06201A03704D3
:101D30000020AE8432C6EFE0DFD59307840C9C43CD
:101D40001304840CFC4F85E31C4032460547238076
:101D5000E70611CA85453285EFF0EFC4B7E700E02A
:101D6000116723A0E720EFE07FD4EFE09FD21C4073
:101D7000E84F09C51C4089CC23AE07041C402AC685
:101D800023800706EFE09FD2324541016FE06FFBF1
:101D90001307F5FFF8CFDDB7EFE26FF83704002047
:101DA000EFE03FCF130404111C40B1E737350020AA
:101DB0001309852913058529EFE0BFD337350020A6
:101DC0009304C52A1305C52AEFE0BFD2B707002048
:101DD00023A227110146B7070020C145114523A4BE
:101DE0009710EFE01FF508C019C5B7A5000093854F
:101DF0000570EFF08FACEFE07FCB6FE08FF4EFE298
:101E00000FF24CC108C9AA876362B602184D158E3D
:101E10000545637BE60093854700B707002003A5CF
:101E20008710EFE0BFCE01456FE0AFF16375D600DC
:101E30000545E3FBD5FE93854700B707002003A5C2
:101E40004710C5B7EFE2AFED2A84AE8432890C4C5F
:101E5000A6864A86A69522855D3719E16FE06FEE6A
:101E60001C4C2285BE941C508297D5B7EFE22FEB15
:101E7000B707002083A747104111AA84DC472EC66C
:101E8000C04713054400EFE05FCB8347440232466E
:101E900013F7470011CBA68522856D371C5022858C
:101EA000829741016FE0EFE9F99B2302F402FDB74D
:101EB000EFE2EFE6370400209306441098421C43FB
:101EC00091EBB707002093878710904398C390C287
:101ED0006FE02FE75C47FD558843493FF1BFEFE2D4
:101EE0008FE129694111B70A0020B7090020370B9B
:101EF0000020B70B00201309C96D83A74A1098432F
:101F000029CBDC47814C03AC0700EFF06FE5EFF025
:101F10002FE683A7C9102A849384C910130A0B11D2
:101F2000636CF50288C0638F0C0283A78B1090430B
:101F30001336160003250A00B3058C40EFF0AF9E60
:101F4000EFF04FFE11EDB7E700E0116723A0E720A7
:101F500001A8854C014C55BFA13F80C0EFF08FFC1C
:101F6000214C05A00146E36785FDEFF0AFFBA2859C
:101F70006285ED3DF5B79247B2458297824763DDB2
:101F8000070003250A0001468A85EFE01FFA35D5D0
:101F900082472245E3C107FE22445C4895E3EFF007
:101FA0002FDD9C40AA8C6373F5001937824723A06C
:101FB0009401FD17E367FCFC8A07CA979C4382875C
:101FC00013054400EFE07FB7D9BF834744020C4CB0
:101FD000924693E717002302F4026686B69522859F
:101FE000393D45D18347440213F7470019CB1C4CB8
:101FF000924566862285BE95B1351C502285829712
:1020000049B7F99B2302F402CDBF83474402F99BF1
:102010002302F402BDB783474402924593E71700B9
:102020002302F4020CCC9DE18967938707807390AB
:10203000073037A6000037A5000013068670930509
:10204000903513054563EF70003101A0E686668682
:10205000E69522856D3335B78347440213F7270091
:102060005DF72285EFE05F8429BFEFE24FCB2D3390
:10207000B707002083A707119DE38967938707802F
:102080007390073037A6000037A50000130686704E
:102090009305901113054563EF70E02B01A0B7077E
:1020A0000020B7A500003725000093874711194786
:1020B0008146130600109385C5721305E5EDEFF018
:1020C0000F9E45DD6FE0EFC7EFE2CFC341112E84D5
:1020D000AA84B2853A853E8936C642C43AC2EF60C8
:1020E000A070AA858840EF60600E124788C0BA854C
:1020F0003A85EF60606FCA85EF60006FCA85EF6058
:10210000A06E0C40EF60800C22482A8908C0C2856E
:102110004285EF60606DCA85EF60400BAA854A85F5
:10212000EF606041B24683A904002A893685CE85D6
:10213000EF60D014CA85EF60206BCE85EF60000998
:10214000B7A7000088C003A58775CA85EF60101384
:10215000AA850840EF60406908C041016FE0CFBD2B
:10216000EFE2EFBB41112A842E85EF60306A2AC46A
:1021700022852EC6EF6090692246B246EF20A079F4
:10218000EF609073B7A7000083A58774EF60000429
:10219000EF60D067B7A7000003A6077583A6477551
:1021A000EF500032EF60507141016FE08FB9EFE204
:1021B0000FB42A8448414111AE84EF603065AE8986
:1021C0000C40832A84002A892E85EF60E0612A8AE8
:1021D000D6855685EF604061AA855285EF50107F05
:1021E000EF60D062EF2040732A86AE864A85CE85A6
:1021F000EF40F034EF20002C2A8C0840AE8C37AD35
:102200000000EF60B060AE894C40832A84002A89C8
:102210002E85EF60605D2A8AD6855685EF60C05CAA
:10222000AA855285EF50907AEF60505EEF20C06E25
:102230002A86AE864A85CE85EF407030EF20802713
:10224000B7A7000003AA4773B7A7000083A9877345
:102250002A8BB7A70000AE8B6285E68503A9C773FA
:10226000EF609065EF60905AB7AA000003A60A7568
:1022700083A64A75EF50C024EF6010645044528822
:102280004A87AA86CE879385C4002685353DDE859C
:102290005A85EF607062B70700803D8DEF60105780
:1022A00003A60A7583A64A75EF508021EF60D060BF
:1022B00010485288CE874A87AA86938544011385A1
:1022C000840019358840EF60705403260D7483260E
:1022D0004D74EF50E01EEF60305EEF6030532A8B9C
:1022E000AE8BEF20C0502AC408502EC6EF601052AB
:1022F0002A8AAE8A5A85DE85EF20C0582A8C084C7F
:10230000AE8CEF60B0502246B246EF50601B2A8B75
:10231000AE8B6286E6865285D685EF50601A2A8695
:10232000AE865A85DE85EF40802E2A8B8844AE8BA0
:10233000EF60D04D03260D7483264D74EF50401886
:10234000EF609057EF60904C2A8CAE8CEF20204AC3
:102350002AC42EC66285E685EF20C0522A8D484CDD
:10236000AE8DEF60B04A2246B246EF5060152A8C1F
:10237000AE8C6A86EE865285D685EF5060142A862A
:10238000AE866285E685EF408028EF60F0522A8AAB
:10239000DE855A85EF605052D285D933B7A7000049
:1023A00003A887755048AA86CE874A87938504017B
:1023B00013854400EFF05FD141016FE00F972DC509
:1023C000EFE24F942A842E89054591CD83558400F0
:1023D0004840B284B689054A812181E84840835546
:1023E0008400392901456FE02F9583450900084095
:1023F000EF00407E08408945EF00807EE31C45FFEA
:10240000084093050008EF00A07DE30B45FF050998
:102410006388090008408509EF00207CA38FA9FE8E
:10242000FD14C204C18055BF05458280EFE28F8D47
:10243000AA84B9CD370403000904054A376900406E
:1024400093090980B70502004E855D2B65FD1305D4
:102450000980854537090300B76900401123050944
:10246000938A0980CA855685BD2B6DDD939514002E
:10247000528693F5E50F13850980B76400403D232C
:1024800093840480A2852685B92B6DDD6FE0CF8A09
:102490003704070013042408014A4DB7EFE28F8682
:1024A00037040010B76400402A8913040408138A13
:1024B00004808549A2855285A123E31D35FFCA8585
:1024C00013850480E1296FE02F87EFE2AF833704A3
:1024D0000010B76400401304040893890480054980
:1024E000A2854E85312BE31D25FF8545138504808C
:1024F00079216FE06F84B70600209386C61183C7E9
:10250000060037070020130747123E971946850734
:10251000B3E7C702034507002380F6008280EFD2AD
:102520007FFE2E8A370900108545B7640040B70941
:102530000020ED3D0144130909049384048093892C
:102540004912954A63674403B70400103769004095
:1025500093840404130A09808549A68552854D2178
:10256000E31D35FF130509808545112922856FD0AC
:10257000BFFCCA852685692111C926851D21B3079F
:10258000340105042380A7001374F40FE31C54FBEB
:10259000856593850580268525216DB7EFD23FF8A7
:1025A0003755004093055052130505C0EF005033D6
:1025B00019C5B707002083A7871191C382976FD0F1
:1025C0005FF8EFD2DFF52A84854537050040EF003C
:1025D000B01FA28537050040EF00501E8545370526
:1025E0000040EF00B00F37050040EF00901DE37C86
:1025F000A4FE814537050040EF00500E01456FD025
:102600005FF401A001A001A001A001A001A001A010
:1026100001A001A001A001A001A001A001A001A0B2
:1026200001A001A001A001A001A001A001A001A0A2
:1026300001A001A001A001A001A001A001A001A092
:1026400001A001A001A001A001A001A001A001A082
:1026500001A001A001A001A001A001A001A001A072
:1026600001A001A001A001A001A001A001A097E18B
:10267000FF1F93812121173100201301A198179585
:1026800000001305658197E5FF1F9385A5971386C5
:10269000818263FAC5008322050023A0550011053D
:1026A0009105E3EAC5FE17E5FF1F130525A0971561
:1026B0000020938565CB6377B500232005001105C5
:1026C000E36DB5FEFD42739002BC89427390428077
:1026D000B72200009382028073A0023097E2FFFFCE
:1026E0009382C29593E2320073905230EF10A007AC
:1026F00097220000938262D07390123473002030CE
:102700009C4513F7070113F8F70001C7D841336858
:10271000E80037270240145B3707000F758F55EF2D
:10272000370700208546A30ED710371701406317DF
:10273000E50003D7050035832390E50083D5050028
:1027400013F7F50F39C318418146854E3D4F930F5E
:10275000800293028004214E3396DE00B3F8C50058
:10276000631116039398260033131F011343F3FFDD
:102770003377E300B318180133E7E8006399F707EC
:1027800050C98506E39AC6FD18C11307F00F63759B
:10279000B70454412146854E3D4F930F800293026A
:1027A0008004414EB398CE0033F715016392E802DE
:1027B0001317260001173313EF001343F3FFB3760B
:1027C000D3003317E800D98E6397F703232A150146
:1027D0000506E319C6FD54C1828037170140E31F87
:1027E000E5F4370700200347D71129DB99B7E39AAF
:1027F00057F810C979B7E39D57FC23281501C9BFC5
:10280000B71701406318F500B707002083C7D71139
:1028100091C3B5810CC98280B71701406318F500D8
:10282000B707002083C7D71191C3B5814CC98280F7
:10283000EFD2FFCE79712A848354450068082EC6F2
:10284000F52A925737470F001307072433D7E702BB
:10285000C204C18093F404FCC204C180B245616526
:102860001305056A131607014182D18C23129400C7
:1028700083560400C206C182F99AC206C18223109F
:10288000D40094416364D5068606B3D7D702914637
:10289000139707014183BA876373D70091470506F1
:1028A0004206C2074182C1832310C402231EF400E2
:1028B0008357040003D7450083D6A50093E717008C
:1028C0002310F40083570400558FC207C18393F788
:1028D00057BFD98F2310F40003D7850083D7C500D5
:1028E000D98F2314F40045616FD0BFC503D56500AF
:1028F00031667D16631EC5020D46B386C602B3D788
:10290000D702C207C1839396470199E293E7170064
:10291000A166D58F9306C0123307D7029306803E77
:102920003347D7020507420741832310E402BDBFA6
:102930006546B386C602B3D7D7029166C207C18384
:10294000D58FD1B78357050091C593E717002310A2
:10295000F5008280C207C183F99BC207C183C5BF4E
:102960008357050091C593E707102310F500828077
:10297000C207C18393F7F7EFC207C183FDB783573F
:10298000050091C593E707202310F5008280C20758
:10299000C18393F7F7DFC207C183FDB72318B500E2
:1029A0008280035505011375F50F828093F7E50FBB
:1029B00019C293E71500C207C1832318F50082806E
:1029C000035705009385058091E985679387078004
:1029D000D98FC207C1832310F5008280FD779387CA
:1029E000F77FF98FCDBF8357450103558501420518
:1029F0005D8D6D8D220521810D8D13351500828031
:102A0000411102C402C693D7C5012AC63EC4A247DB
:102A1000A205A18199CBB247D1073EC6B2478843F0
:102A200041016D8D3335A0008280B247C181E1073D
:102A3000EDB7B707002023A0A71282803717024006
:102A40005C439146B18B6385D700A1466386D70668
:102A5000B7177A00938707201CC1371602405C42E3
:102A600037070020130707009183BD8BBA9783C6F1
:102A700007001C41B3D7D7005CC15442A1829D8A94
:102A8000BA9683C60600B3D6D70014C55442AD82A9
:102A90009D8A369703470700B3D7E7005CC55842C5
:102AA0003983937637001387818036970347070071
:102AB000B3D7E7021CC982805C435843C166C9830F
:102AC000BD8B758F8907C5466393D700C94701EF52
:102AD0003747024003270780418B09CF37177A0019
:102AE0001307072021A83717024058439316E70021
:102AF000E3D606FE37173D0013070790B387E702BA
:102B0000A1BF99C5371702405C4B5D8D48CB8280D1
:102B1000B7170240D84B1345F5FF798DC8CB82809B
:102B200099C5371702401C4F5D8D08CF8280B717BB
:102B30000240984F1345F5FF798D88CF828099C563
:102B4000371702405C4F5D8D48CF8280B717024037
:102B5000D84F1345F5FF798DC8CF82800357050004
:102B60008D679387070483D625007D8F83D7050063
:102B7000D58F83D64500D58F83D66500D58F83D674
:102B80008500D58F83D6A500D58F83D6C500D58F78
:102B900083D6E500D58FD98F2310F5000357C501E3
:102BA000FD779387F77FF98F231EF50083D7050103
:102BB0002318F50082808357050091C593E7070429
:102BC0002310F5008280C207C18393F7F7FBC20789
:102BD000C183FDB72316B50082800355C5008280EE
:102BE000035585006D8D3335A00082808357050025
:102BF00037370140130707C0C207C1836304E502EA
:102C0000370700406300E50213070740630CE50047
:102C100037170040930607806306D500130707C0E7
:102C20006317E50003D7250093F7F7F8D98F03D78B
:102C3000650093F7F7CFC207C183D98F2310F50042
:102C400083D745002316F50283D705002314F50228
:102C5000B7370140938707C06316F50083C7850027
:102C60002318F5028547231AF50082808357050251
:102C700003D6050003D82500C207C183F99BC2070C
:102C8000C1832310F502835705028356450003577D
:102C90008501C207C183420741831377C7F8518F6B
:102CA00003D68500F59BC20633660601D18F373601
:102CB0000140130606C0C1826313C50203D6A500F6
:102CC000DD9B03D8E500D18F03D64500ED9B93F63D
:102CD000F6CFD18F03D6C50033660601D18E2312FD
:102CE000D500231CE50003D76500231AE502231055
:102CF000F50282808357050265771307F7CFC20775
:102D0000C183BD9BC207C1832310F502835705020F
:102D10008356450003D88500C207139606018356E3
:102D20008501C18393F7F7FD758F83D60500418236
:102D3000A206558F83D6250042074183B3E60601DC
:102D40009206D58FB7360140C207938606C0C1836D
:102D50006311D50483D6A50093F7F7F703D8C50010
:102D60009206D58F83D64500C207C183920693F79A
:102D7000F7FBD58FFD769386F63FF18E03D6E500FF
:102D8000C207C183336606010A06D18E1396060177
:102D900041822312C500231CE50003D76500231CD4
:102DA000E5022310F50282808357050203D88500CF
:102DB000C207C18393F7F7EFC207C1832310F5025F
:102DC00083570502835645000357C501C207139672
:102DD0000601420783D6050041831377C7F8558F54
:102DE00083D62500C18393F7F7DFB3E60601A20679
:102DF000D58FB7360140C207938606C04182C18392
:102E00006312D504FD769386F67FF58F83D6A500F1
:102E100003D8C500A206D58F83D64500C207C1835B
:102E2000A20693F7F7BFD58FF576FD16F18E03D680
:102E3000E500C207C183336606011206D18E1396E0
:102E4000060141822312C500231EE50003D7650059
:102E5000231EE5022310F502828003570502FD7749
:102E6000FD17F98F2310F50203580502835645001C
:102E70008357C501657703D605001307F7CF7D8F0C
:102E8000F9772206FD17518FB3F7070103D6250006
:102E900003D88500C2064207336606013206D18F89
:102EA00037360140C207130606C0C1824183C18381
:102EB000631BC50071767D16F18E03D6C5001A0618
:102EC000D18EC206C1822312D500231EE50003D78E
:102ED00065002310E5042310F50282808357050066
:102EE00091C593E717002310F5008280C207C183C4
:102EF000F99BC207C183C5BF8357450491C52167AC
:102F0000D98F2312F5048280C607C583DDBF83579E
:102F1000050091C593E707082310F5008280C207DA
:102F2000C18393F7F7F7C207C183FDB783578501C4
:102F3000C207C183DD9BDD8D231CB5008280035752
:102F40008501FD779387F77FF98FA205CD8FC207A3
:102F5000C183231CF50082808357C501C207C1834A
:102F6000DD9BDD8D231EB50082800357C501FD77F3
:102F70009387F77FF98FA205CD8FC207C183231EE8
:102F8000F50082808357050091C593E72700231041
:102F9000F5008280C207C183F59BC207C183C5BF0C
:102FA0008357050091C593E747002310F500828001
:102FB000C207C183ED9BC207C183C5BF2312B502FF
:102FC000828003554502828093C5F5FFC205C18109
:102FD0002318B5008280EFD28FD483560501F57790
:102FE000FD17F58F83D6650003D7C5007971D58F9E
:102FF0002318F5008356C500FD779387379FF58F1B
:1030000083D645002A842EC6D58F83D68500D58FDA
:1030100083D6A500D58F2316F50083574501C20737
:10302000C18393F7F7CFD98F231AF5006808EFF023
:10303000FFA0B747014093870780B245631DF404A2
:10304000A2578356C4006547B387E702C206C1860C
:10305000984163D4060406070356C4004206B3D75A
:10306000E702130740064186B3D6E702B3F7E7024B
:103070009206635606028E0793872703B3D7E702AB
:1030800013F77700B367D700C207C1832314F40096
:1030900045616FD00FCB92576DB70A0775BF920786
:1030A00093872703B3D7E702BD8BD58FF1BF81C9C3
:1030B0008357C5000967D98F2316F500828003570F
:1030C000C500F977FD17F98FC5BF93F5F51F2312DA
:1030D000B5008280035505006D8D3335A0008280D8
:1030E00013F7F50F85461583B397B6006313D70220
:1030F0000357C500F98F0357050001454207418377
:1031000081CB0545A181B315B5006D8F3335E00046
:10311000828089466315D70003570501E1BF035735
:103120004501C9BFEFD2AFBF2A84116501118545A2
:103130001105EFF0FF9E930700202312F1003715D1
:1031400001408D473EC44C00E147130505803EC653
:10315000EFF00FDB22C837440140B70708000C0826
:10316000130504803ECC02CA231E0100EFF0BFE627
:10317000854513050480253F05616FD08FBCEFD2D4
:103180006FB8B7440140AE8932890144938404800A
:10319000634524014A856FD02FBA93050004268524
:1031A000EFF05FF37DD9B38789008385070026851B
:1031B0000504C205C181EFF05FF1D9BF1387C1805B
:1031C0001C43B7360020938646363E95636BD50088
:1031D000B75600209386068063E5A60008C33E85A7
:1031E0008280FD57EDBFEFD28FB019718145054543
:1031F000EFF03F9181450945EFF0BF9081451145C2
:10320000EFF03F90814513050004EFF09F8F81455B
:103210000565EFF01F8F81450545EFF07F908545EF
:103220001145EFF0FF8F85452145EFF07F8F8545F4
:103230004145EFF0FF8E814513050020EFF05F8ED2
:10324000814513050040EFF0BF8D85691385098026
:103250008145EFF0FF8C85450565EFF07F8C81455A
:103260000965EFF0FF8B81451165EFF07F8B854598
:103270000545EFF0DF8C81450945EFF05F8C854512
:103280001145EFF0DF8B81452145EFF05F8B138512
:1032900009808145EFF0BF8A81451165EFF03F8AD3
:1032A000814537050200EFF09F898145370504000D
:1032B000EFF0FF88854537050800EFF05F8881450E
:1032C00037052000EFF0BF87854537054000EFF058
:1032D0001F87814537058000EFF07F8681453705E0
:1032E0000002EFF0DF85814537050008EFF03F85EC
:1032F000814537050010EFF09F84A965314693851D
:10330000455FC80037140140EF509079930C80045A
:10331000CC0013050480E6C6EFF08FBEE144094BF4
:10332000CC0013050480A6C623126105EFF04FBD43
:103330009147CC00130504802312F104A6C6EFF0D8
:103340002FBCA148CC00130504802312110546CEE2
:10335000A6C6EFF0EFBA4148CC0013050480231253
:10336000010542CC82C6EFF0AFB913060002CC00D3
:10337000130504802312C10432CAA6C6EFF04FB869
:10338000930600041149CC00130504802312D104D4
:1033900036C8CAC6EFF0CFB613070008CC00130535
:1033A00004802312E1043AC6A6C6EFF06FB5930776
:1033B0000010CC00130504802312F1043EC4CAC6D9
:1033C000EFF00FB4930D0020CC0013050480A6C6C7
:1033D0002312B105EFF0CFB2130D0040CC0013055E
:1033E0000480A6C62312A105856AEFF06FB1938A07
:1033F0000A80CC0013050480A6C623125105EFF005
:103400002FB093058002AEC613050480CC002312B2
:103410003105EFF0EFAE096CCC0013050480CAC68D
:1034200023128105EFF0CFAD916BCC001305048022
:10343000CAC623127105EFF0AFAC617ACC00130558
:103440000480A6C623124105EFF08FAB85452312F9
:10345000B104130504C0CC00A6C6EFF06FAACC00DF
:10346000130504C0CAC623126105EFF06FA9CC0092
:10347000130504C0A6C623122105EFF06FA8F24879
:10348000CC00130504C023121105CAC6EFF04FA7E4
:103490006248CC00130504C023120105A6C6EFF054
:1034A0002FA65246CC00130504C02312C104CAC67D
:1034B000EFF00FA5C246CC00130504C02312D104BF
:1034C000A6C6EFF0EFA33247CC00130504C02312C9
:1034D000E104A6C6EFF0CFA2A247CC00130504C0BA
:1034E0002312F104A6C6EFF0AFA1CC00130504C06F
:1034F000A6C62312B105EFF0AFA0F144CC0013052E
:1035000004C0A6C62312A105EFF08F9FCC001305BF
:1035100004C0A6C623125105EFF08F9ECC00130500
:1035200004C0E6C623123105EFF08F9DCC001305D1
:1035300004C0CAC623128105EFF08F9CCC0013058E
:1035400004C0CAC623127105EFF08F9BCC0013058F
:1035500004C0CAC623124105EFF08F9AC144CC00C3
:1035600037150140A6C623128105EFF06F99CC00F4
:1035700037150140A6C623127105EFF06F98CC00F5
:1035800037150140A6C623124105B7340020EFF0DD
:103590002F979384C42D93074010C169DCC493878F
:1035A00029009CC837390020B70738001309092CB7
:1035B00093870720C0C0916ADCC823228900B7071F
:1035C00005001384A4003737014049469CCCA285EE
:1035D00023A454011305A90098C02320E900231453
:1035E0004901EF50F04BA28537350140EFF00FD77E
:1035F00083D58400C8403764004093890907EFF001
:103600002FA08355890003254900EFF06F9F854562
:1036100037350140EFF02FDAB7270600938707A868
:10362000BEC8B707FFBFBECAB70700049387F7023B
:103630008C0813050480BECC231E5105EFF04F9F6C
:10364000130504808545EFF0EFAFB707200093879F
:10365000F708371400403ED6B7270002938707715A
:103660006C10130504803ED8231A0102EFF00FD826
:103670008C1082D413050480CED02314610782D22B
:1036800082D6EFF0AFDE8C1013050480EFF08FE6EA
:103690008C1013050480EFF02FF18C1013050480BB
:1036A000EFF0AFFB130504808545EFF0FF841305B1
:1036B00004808145EFF09F87130504808145EFF07A
:1036C0001F88130504808145EFF01F8913050480CE
:1036D0008145EFF09F89130504808545EFF03F8316
:1036E000130504808545EFF06FFFB79710009387AF
:1036F000F7C93EDCB7770002938707532C183705CC
:1037000000403EDE23100104EFF04FCE8545370523
:103710000040EFF0CFFF854537050040EFF05F88B0
:10372000854537050040EFF0FF85F1679387072057
:103730003754004082DEBED89307003082DC231E5F
:10374000F1068C18B147130504C0231DF10682DA77
:10375000EFF07F88130504C08545EFF05F950145C4
:1037600009616FC09FDCB71702409843B706FFF8A6
:1037700041111367170098C3D84337060200758FAD
:10378000D8C39843B706F7FEFD16758F98C39843C4
:10379000B706FCFFFD16758F98C3D843B70681FFA7
:1037A000FD16758FD8C337079F0098C702C402C69D
:1037B0009843C166558F98C3B716024005679C426F
:1037C000F18F3EC6A24785073EC4B24781E7A247B4
:1037D000E397E7FEB71702409C431397E700635552
:1037E000070685473EC632478547631DF704B7176E
:1037F0000240D843B706C1FFFD16D8C3D843D8C38B
:10380000D843D8C3D843758FD8C3D843B7063D0033
:10381000558FD8C39843B7060001558F98C3984376
:1038200093166700E3DD06FED843B7160240719B8E
:10383000D8C3D84313672700D8C32147DC42B18BD4
:10384000E39EE7FE4101828002C671BFB7160240C7
:10385000DC421146B18B138701816385C700214685
:103860006389C702B7177A00938707201CC3B7176D
:103870000240DC43918393F6F700B707002093875B
:103880000701B69783C607001C43B3D7D7001CC3F4
:103890008280DC42D4424166C983BD8BF18E8907A8
:1038A00045466393C700C94781EEB746024083A6E9
:1038B0000680C18A89CEB7167A009386062021A891
:1038C000B7160240D4421396E600E35606FEB7163A
:1038D0003D0093860690B387D70249BF15CDEFC24E
:1038E0001FC4AA8437350020130405311306840051
:1038F0009305440013050531392A5C40B706008062
:103900001840B58F5CC0DCC01C44358F18C098C00F
:103910009CC401456FC0FFC205458280EFC23FC015
:10392000AA84373500201304C5311306840093059B
:1039300044001305C531592258401C40B706008089
:10394000358FB58F1CC058C09CC01C44D8C00145E1
:103950009CC46FC01FBFEFC29FBC37390020AA8430
:103960001305892F1304892F01218357040003575E
:1039700024001305892FB307F0403307E0402311DB
:10398000F4002310E4003D291C4401459CC05C4424
:10399000DCC01C489CC46FC0DFBAEFC25FB82A8489
:1039A000EF00D01108C001456FC0BFB9EFC23FB7EB
:1039B0002A84EF00300F08C001456FC09FB8EFC2E6
:1039C0001FB6814513058006EFE05FA61305B0061C
:1039D000EFE0DFAC0145EFE07FACEFE01FAF8145EA
:1039E00013058006EFE09FA46945EFE03FAB154566
:1039F000EFE0DFAAEFE07FAD814513058006EFE041
:103A0000FFA27145EFE09FA94145EFE03FA9EFE03C
:103A1000DFAB6FC01FB3EFC2FFAE4111AA8A2E8A7F
:103A200013058006814532C6EFE05FA01305B003A1
:103A3000EFE0DFA6EFE07FA9994513058006EFE0F0
:103A40001FAEEFE05FABAA84A204EFE0DFAAC98C4F
:103A5000EFE07FAA2A842204EFE0FFA9498CC20488
:103A6000EFE07FA92A89C184EFE0FFA8AA89268513
:103A7000EF504039B7A4000083A5C47542044184C7
:103A8000EF40905623A0AA002285EF50A03783A5CF
:103A9000C475EF4070552320AA00131589003365C3
:103AA000350142054185EF50E03583A5C475EF40EF
:103AB000B053324608C241016FC01FA8EFC2BFA376
:103AC0002A8BAE8A130580068145B289EFE01F96E6
:103AD00013053004EFE09F9CEFE03F9F99451305ED
:103AE0008006EFE0DFA3EFE01FA1AA84A204EFE0CD
:103AF0009FA0C98CEFE03FA02A842204EFE0BF9F83
:103B0000498CC204EFE03F9F2A89C184EFE0BF9E49
:103B10002A8A2685EF50002FEF50404FB7A40000AF
:103B200003A6047683A6447642044184EF30202124
:103B3000B70700202A8C03A50713AE8CEF50004D69
:103B40002A86AE866285E685EF301063EF50C05658
:103B50002320AB002285EF50E02AEF50204B03A634
:103B6000047683A64476EF30801DB70700202A8BA9
:103B700003A5C712AE8BEF5060492A86AE865A85E0
:103B8000DE85EF30705FEF50205323A0AA0013159D
:103B900089003365450142054185EF50A026EF506D
:103BA000E04603A6047683A64476EF304019B707B3
:103BB00000202A8403A54713AE84EF5020452A86AF
:103BC000AE862285A685EF30305BEF50E04E23A015
:103BD000A9006FC0DF95EFC2FF9241118145130527
:103BE0008006EFE0BF841305B006EFE03F8B014590
:103BF000EFE0DF8AEFE07F8D814513058006EFE07F
:103C0000FF826945EFE09F891545EFE03F89EFE0CE
:103C1000DF8B814513058006EFE05F816D45EFE0A6
:103C2000FF87214593040000EFE05F871304107DB8
:103C3000EFE0BF892689A6897D144204418029E0EE
:103C400037A40000832584764E85370A0020EF4094
:103C5000900E832584762328AA124A85EF40B00D62
:103C600083258476B709002023A6A9122685EF4074
:103C7000900C37090020232AA91241016FC0DF8B65
:103C800070002C004800EFF07FE392454E85EF4036
:103C9000E053A245AA894A85EF404053B2452A899C
:103CA0002685EF40A052AA840545EFE09F9169B7B1
:103CB000EFC2FF86EFF03FF2EFF07FD06FC07F885A
:103CC000EFC2FF85814513058006EFE02FF613054F
:103CD000A006EFE0AFFC0145EFE04FFCEFE0EFFEA8
:103CE000814513058006EFE06FF413057003EFE0E4
:103CF000EFFA0945EFE08FFAEFE02FFD814513055C
:103D00008006EFE0AFF21305B006EFE02FF90145B2
:103D1000EFE0CFF8EFE06FFB81457945EFE00FF181
:103D20000945EFE0AFF70145EFE04FF7EFE0EFF9BE
:103D300081457945EFE08FEF0145EFE02FF6130560
:103D40000007EFE0AFF5EFE04FF881457945EFE090
:103D5000EFED0545EFE08FF413050002EFE00FF4FF
:103D6000EFE0AFF66FC0EFFDEFC26FFBAA848145B5
:103D70007945EFE0AFEB0D45EFE04FF2EFE0EFF408
:103D800099457945EFE0AFF9EFE0EFF62A84220498
:103D9000EFE06FF6498C23908400EFE0CFF52A84A2
:103DA0002204EFE04FF5498C23928400EFE0AFF45A
:103DB0002A84EFE04FF4931784005D8D2391A400D3
:103DC0006FC02FF8EFC2AFF52A8403150500B7A422
:103DD0000000EF408038B7A7000003A6077783A64E
:103DE0004777EF30703903A6847783A6C477EF2036
:103DF0001075EF50602C08C403152400EF40E03527
:103E0000B7A7000003A6077883A64778EF20300005
:103E100003A6847783A6C477EF207072EF50C02981
:103E200048C403154400EF40403303A6847783A6BB
:103E3000C477EF20D070EF50202808C86FC06FF013
:103E4000EFC2EFEDB7070020370702019387871312
:103E50001307D77098C3130720102392E700EFF0E1
:103E60003FE5EFF0FFE5112901456FC08FEDEFC28F
:103E70000FEB4111136505F874002306A1003735D7
:103E800000200946B6851305052CA3060100EFE0C6
:103E90000FD30345D10041016FC0AFEAEFC22FE855
:103EA00041111375F5072306A10037350020A3063D
:103EB000B10081466C0009461305052CEFE02FD0B8
:103EC00041016FC00FE8EFC28FE52A84EFF03FFA9F
:103ED000AA84130514001375F50FEFF05FF922059E
:103EE000458D420541816FC0CFE5EFC24FE32A8483
:103EF000EFF0FFF7AA84130514001375F50FEFF028
:103F00001FF72205458D420541856FC08FE3EFC243
:103F10000FE1130580083734002013048432EFF0DA
:103F20009FFA2310A4001305E008EFF0DFF9231334
:103F3000A4001305A008EFF05FFB2311A4001305F4
:103F4000C008EFF09FFA2312A40013050009EFF058
:103F5000DFF92314A40013052009EFF01FF923153E
:103F6000A40013054009EFF05FF82316A400130521
:103F70006009EFF09FF72317A40013058009EFF005
:103F8000DFF62318A4001305A009EFF01FF623198C
:103F9000A4001305C009EFF05FF5231AA400130570
:103FA000E009EFF09FF4231BA4006FC08FD9EFC28C
:103FB0000FD7AA84EFF0BFEB2A8413851400137582
:103FC000F50FEFF0DFEA2A89138524002209137523
:103FD000F50F4204EFF0BFE933642401418D6FC057
:103FE0004FD6EFC2CFD32A841305A00FEFF03FFCCA
:103FF000118508C06FC0EFD4EFC26FD22A841305B9
:10400000700FEFF0DFFA118508C06FC08FD3EFC2D9
:104010000FD1373700201307873283560700935795
:1040200045400D85958FB387F7028606158D83165B
:10403000270003174700B1873305D502B387E7028E
:104040002D85B9873E95B707002023A0A714954773
:104050003305F502130505082185EF40B05AB7A7CF
:10406000000083A5C778EF40004D6FC08FCDEFC231
:104070000FCBB707002083A507140577130707C0E8
:104080002E9793D7F541FD17B335B700BE95B3888A
:10409000E502373400201304843203188400935659
:1040A000F841B337E7028608BE98B386E602B387C5
:1040B00005033306E802BE963338E80293574601FB
:1040C000131EC6003303E702C2961398C600831678
:1040D000A40033E8070113D6F641B387D8023306AC
:1040E00066023E96B3876602B3B66602A183369631
:1040F00093168601D58F935686403386C701B33712
:10410000F600C296BE96A167BE968357640033360A
:10411000F602B386F602B29613D61640FD86B36752
:10412000D60063890714031E04011358FE413308A7
:104130006802B388C803C29833086E0233336E0234
:1041400046938318E40093D7F841B3851503B387EA
:10415000E702AE97B385E80233B7E8023E97460719
:1041600093D7F500C6055D8F2E98B335B8001A9722
:104170002E97B70510003385A5409357F541935509
:104180001500FE07CD8F8315C4007E053308054159
:104190008E052E9733350501998F898F0565130597
:1041A00055C3B387A702B335A8023305A802BE954D
:1041B000EF20600803176401939735019356D500EB
:1041C000DD8E13D8D5409357F7413306E802B38705
:1041D000D702B2973306D7023337D702BA973308DC
:1041E000C802B387D7023307D602C297B336D602C6
:1041F000658303164401B69793967700558FB306EF
:10420000A700E58733B7E600AE97BA971357F64194
:104210003307A702B305B602BA953307A6023336B1
:10422000A60213553701B2951396D500518DCD8551
:104230003695B336D500AE97B6971397870121818F
:10424000598D03172401A1879355F7419356C70150
:1042500092051207D58D3A95BE953337E500BA958C
:10426000EF40B046B7A7000083A58778EF40A02CA9
:104270006FC02FAD13050000E5BFEFC24FAAEFF0EE
:104280001FC981451305500FEFF05FC19305700BF7
:104290001305400FEFF09FC013056009EFE06FB208
:1042A0006FC02FAAEFC2AFA741116800EFF07FD314
:1042B0003245EFF0DFD541016FC0AFA8EFC22FA6A6
:1042C0004111EFF03FFE6800EFF01FD33245EFF0F1
:1042D0001FDA41016FC0EFA601A001A0EFC22FA419
:1042E0001D71930700001306C0028145481802C8DB
:1042F00002CA02CC02CE02D002D202D402D602D826
:104300003EC43EC637040020EFC06FA40808EFF09B
:10431000EFDC6808EFF08FE02810EFF0CFE3280023
:10432000EFF0AFE76800EFF06FE80C08314648188F
:10433000EF4010776C0831468800EF4070762C1003
:104340003146E800EF40D075A247032604154C180B
:10435000BECCB2471305803EBECEEFC0CFAE1545F2
:10436000EFC06FB465B7EFC28F9B5D711306C002DB
:1043700081454810EFC0AF9D614681456800EFC0A0
:104380000F9D37040020A3050100032604159306A2
:10439000B1004C101305803EEFC08FAD7DF56C0071
:1043A0004810EFD0DFE0D5B7EFC26F97B7370020E6
:1043B000373700209387073413070735D8C33947A9
:1043C0002395E7002386070023870700EFF0AFB9A6
:1043D000EFF0CFC70945EFE0CFE5EFE0DFE0EFF02A
:1043E0003FA6716513050520EFE0DFD31305803E7E
:1043F000EFC04FACE5BFEFC28F9237060020130627
:1044000006159305C0022945EFC0CFA1370600204D
:104410001306C614E1452945EFC0CFA0370600209A
:1044200013064614B9452945EFC0CF9F3706002033
:1044300013068614B9452945EFC0CF9E37070020E3
:10444000B7A500003745000013074715914613062E
:104450000010938505791305C52DEFC0CF99370757
:104460000020B7A50000374500001307C7158D468B
:10447000130600109385457A13056536EFC0AF9794
:1044800037070020B7A50000374500001307871540
:104490009546130600109385457B1305853AEFC0BA
:1044A0008F95EFC06F9737A400001305C47BEF40D2
:1044B000307CE5BF79714AD01399150022D426D2F9
:1044C00056CA06D64ECE52CC5AC85EC613591900EB
:1044D000B70710442E84AA84AE8A6347F904B7074D
:1044E000F07F63CE2701630BF900635B501F976772
:1044F00000009387A72E8443C04311A87DD526864C
:104500002685A286A285EF208010AA842E84A2850B
:10451000B2502254268502599254F249624AD24A34
:10452000424BB24B45618280B707DC3F6358F91CB0
:10453000B707203E6343F9187D5A2686A286268552
:10454000A285EF20F0772A86AE862A8BAE8BEF20ED
:104550003077976700009387E72B9043D4432A89ED
:10456000AE89EF20F075976700009387272B904363
:10457000D443EF20C0094A86CE86EF207074976737
:1045800000009387272A9043D443EF2040084A86AF
:10459000CE86EF20F072976700009387272990431B
:1045A000D443EF20C0064A86CE86EF20707197670D
:1045B0000000938727289043D443EF2040054A8684
:1045C000CE86EF20F06F97670000938727279043F0
:1045D000D443EF20C0035A86DE86EF20706E9767C3
:1045E0000000938727269043D4432A8BAE8B4A85BD
:1045F000CE85EF20F06C97670000938727259043C6
:10460000D443EF3060374A86CE86EF20706B9767D1
:104610000000938727249043D443EF30E0354A8647
:10462000CE86EF20F0699767000093872723904399
:10463000D443EF3060344A86CE86EF2070689767A7
:104640000000938727229043D443EF30E0324A861C
:10465000CE86EF20F0662A86AE865A85DE85EF107C
:10466000107B2686A286EF20B065FD572A86AE868F
:10467000630FFA060E0A9767000093872721D297E7
:104680009043D443976700009387471E3E9AEF30CC
:10469000A02E2686A286EF30202E2A86AE860325FF
:1046A0000A0083254A00EF30202DAA842E84E3D00F
:1046B0000AE6370400802D8C99BD97670000938728
:1046C000E7129043D443EF109074976700009387EC
:1046D00067129043D443EF207048E35FA0E405BD28
:1046E00097670000938707108443C0430DB5268564
:1046F000A285EF306028AA842E8411BD4922B70715
:10470000F33F2A84AE846358F904B707E63F635C3D
:10471000F90A2A86AE86EF10906F9767000093879C
:10472000670D9043D443014AEF300025976700009E
:104730009387C70C9043D4432A89AE892285A685E6
:10474000EF10F06C2A86AE864A85CE85EF20205F7A
:10475000AA842E84DDB3B78703406358F904176930
:1047600000001309290A0326090083264900094A83
:10477000EF30802003260900832649002A8BAE8B68
:104780002285A685EF20D053976700009387870680
:104790009043D443EF10B0672A86AE865A85DE85F3
:1047A000EF20E059AA842E8449BB976700009387C5
:1047B000E7058843CC432286A686EF2040580D4A61
:1047C000AA842E849DBB176900001309A902032641
:1047D000090083264900054AEF30001A2A8BAE8B68
:1047E00003260900832649002285A68565B70111A5
:1047F00022CC370400809347F4FF3727E93F06CEE9
:10480000ED8F1307B71F6350F7043707F07F63CAB4
:10481000E700AE862A86EF302016F240624405613A
:1048200082800A86412E0D8985476306F5028947F5
:104830002246B246630FF50205C902459245054777
:10484000EF10A05BD9BF01468146EF00701AF2401D
:104850006244056182802246B24602459245054780
:10486000EF10A059A18D55BF02459245EF00501899
:104870006DB702459245EF00B017A18D79BF86054F
:1048800085818280011122CC370400809347F4FF98
:104890003727E93F06CEED8F1307B71F6350F704A4
:1048A0003707F07F63CAE700AE862A86EF30C00C78
:1048B000F2406244056182800A86ED2C0D898547AD
:1048C0006307F50289472246B246630FF5021DC50C
:1048D00002459245EF00D011A18DD9BF0147014695
:1048E0008146EF108051F240624405618280224689
:1048F000B24602459245EF00B00F5DBF02459245BA
:104900000547EF10804F6DB7024592450547EF1000
:10491000C04EA18D71BF6DA85D71A2C4A6C2CAC0F0
:1049200052DE56DC86C62A84AE84C52D938741812B
:1049300003A90700FD572A8AAE8A6301F90222867D
:10494000A6862285A685EF30007709E901468146D3
:104950002285A685EF20702B634C0500B6402644C7
:104960005285D68596440649725AE25A6161828020
:1049700085473EC497670000938747F33EC602D43D
:1049800022CC26CE22C826CA6307090201468146E8
:104990003285B685EF20A03A2AD02ED28947631EF1
:1049A000F900EF40700F930710021CC1A25781EF6E
:1049B000025A925A65B702D002D22800EF10207234
:1049C0006DD1A257F5D7EF40300DA2571CC1CDB71E
:1049D000B307C040370700801347F7FFD18F41115D
:1049E000337ED700FD8306C622C4B3E7C701370371
:1049F000F07FAA882E886367F304B307A040C98FAD
:104A00006D8FFD83D98F2E8F636EF302B70710C0B1
:104A1000B697D18FF1C713D4E64193752400B367DD
:104A2000A7001354F8014D8C85EB8947630FF40AF6
:104A30008D476312F40A97670000938727E888433D
:104A4000CC4339A03285B6854686C286EF10303C0D
:104A5000B240224441018280B367CE00A5C76304FF
:104A60006E0A630167063307C74151879307C00386
:104A700063C4E70863D80600930740FC01458145FD
:104A8000634AF7004685C285EF20602BEFF03FDFD9
:104A9000EFF05FA285476300F40C8947630AF408CE
:104AA00045D897670000938767E49043D443EF208D
:104AB000B06C976700009387E7DF9043D443EF2003
:104AC000B06B79B7634F0F0497670000938707D1E6
:104AD0008843CC43B5BFB2402244C28541018280A5
:104AE0002244B24041016FF0FF9C9767000093871A
:104AF00067DC8843CC43A9BF97670000938707CE44
:104B00008843CC4341BF8947630BC705E30FF4FCDF
:104B10008D47E302F4F285476302F40601458145BF
:104B200005BF976700009387E7CB8843CC430DB759
:104B300097670000938787DB9043D443EF20D063CF
:104B400097670000938707D72A86AE868843CC43B1
:104B5000EF209062F5BDB7070080BD8DD5BD630421
:104B6000F4048D47630AF40285476300F4029767F3
:104B700000009387A7D68843CC43D9BD9767000030
:104B8000938747D48843CC43E1B597670000938768
:104B900067D58843CC436DBD97670000938787D363
:104BA0008843CC4375B597670000938727D2884325
:104BB000CC4379BD5971A2D43727E93F139415002E
:104BC00086D6A6D2CAD0CECED2CCD6CADAC8DEC657
:104BD000E2C4E6C2EAC06EDE05801307B71F635C5D
:104BE000871437E702401307B797B289634F8706E8
:104BF00097670000938707D09043D4436357B03A38
:104C0000EF209057B727F93F9387B71F2A8AAE8ABC
:104C10006309F41417640000130444CE1040544098
:104C20008544EF2070552A86AE8623A0A90023A2D2
:104C3000B9005285D685EF20305410405440EF2003
:104C4000B05323A4A90023A6B900B6502654268544
:104C500006599654F649664AD64A464BB64B264CF8
:104C6000964C064DF25D6561828037273941130706
:104C7000B71F2E89635987103707F07F6355E40CFF
:104C8000135A4441130AAABE93174A011D8CA285E8
:104C9000AA84EF300046EF30404C2A87AE873A8630
:104CA000BE862685A2853ACC3ECE976400009384CA
:104CB00064C8EF20704C9040D440EF207000AE8B61
:104CC0002A8BEF3000432A84EF3020492A87AE87B1
:104CD0002A86AE865A85DE853AD03ED2EF20D0496C
:104CE0009040D440EF20C07D814601462AD42ED684
:104CF000EF202060B3368000850663180522976791
:104D000000009387A7CB09475286CE852808EF007D
:104D1000A079AA84E35B09F203A7490083A7C9002D
:104D2000B7060080358FB58F23A2E90023A6F900CE
:104D3000B304A04019BF08C24CC223240600232696
:104D40000600814419B72A86AE86EF20F04223A4DC
:104D5000A90023A6B90023A0A90023A2B900814479
:104D6000EDB5976700009387E7B99043D443176484
:104D700000001304A4B98544EF2010402A8AAE8AAB
:104D80001040544079BDEFF09FAF976700009387C4
:104D900067B89043D4432A8AAE8AEF20607297673F
:104DA00000009387A7B79043D443EF105006EF302D
:104DB0004034AA84EF30603A97670000938787B346
:104DC0009043D4432A8BAE8BEF20806F2A86AE8629
:104DD0005285D685EF20503A97670000938707B237
:104DE0009043D4432A8DAE8C5A85DE85EF20406DEA
:104DF0002A8AAE8AFD476A85E6855286D68663C7CB
:104E00009702EF2070379387F4FF13972700976777
:104E100000009387A7B2BA979C43AA8D2E8C638B10
:104E2000870023A0A90023A2B90025A0EF20D03439
:104E3000AA8D2E8C93574C011358444193F7F77F5A
:104E4000B307F840C14663C6F60423A0B90123A204
:104E500089016E86E2866A85E685EF20F03152860A
:104E6000D686EF20703123A4A90023A6B900E35E03
:104E700009DCB707008033CC8701BD8D23A0B901C1
:104E800023A2890123A4A90023A6B900B30490405A
:104E90006DBB976700009387E7A69043D4435A857C
:104EA000DE8542C4EF20C0612A8AAE8A2A86AE8699
:104EB0006A85E685EF20502C2E8C2A86AE862A84C1
:104EC0002EC66A85E685EF20302B5286D686EF20E7
:104ED000B02A97670000938767A39043D4432A8A38
:104EE000AE8A5A85DE85EF20A05D5286D686EF20F9
:104EF000B0282A86AE862A8AAE8A2285E285EF20ED
:104F0000B027224893D7450193F7F77F3308F8403D
:104F100093071003E28CAA8D2E8C63CA070123A08D
:104F2000A90023A2B900228D2DB78D46C9BB976772
:104F300000009387279F9043D4435A85DE85EF2056
:104F40002058324C2A8AAE8A2A86AE862285E2858D
:104F5000EF2090222A86AE862A8DAE8C2285E285AD
:104F6000EF2090215286D686EF201021976700000F
:104F70009387C79B9043D4432A8AAE8A5A85DE859D
:104F8000EF2000545286D686EF20101F2A86AE8668
:104F90002A8AAE8A6A85E685EF20101EAA8D2E8C9D
:104FA00023A0A90023A2B9006DB5EF104066B72772
:104FB000F93F9387B71F2A8AAE8A630EF4021764FB
:104FC00000001304A49310405440FD54EF102064DB
:104FD0002A86AE8623A0A90023A2B9005285D685D1
:104FE000EF20901910405440EF10606223A4A900F4
:104FF00023A6B90099B9976700009387A7909043BB
:10500000D4431764000013046490FD54EF10206033
:105010002A8AAE8A1040544055BF41113707F07FAD
:1050200022C426C206C63378B7002E84AA84630D34
:10503000E816AE87AA86635FB00E13DE45416301B2
:105040000E1A370710001306F7FFF18FD98F130ED2
:105050001EC01397170013761E0093D7F601BA9758
:105060001397160011C67D838607BA9713972600FB
:10507000135E1E40D945814E814637062000338598
:10508000C6001358F701FD1563C6A700898FB30644
:10509000C500B29E8607C29706070582EDF113058B
:1050A0000002014381483706008019A86385D70EA6
:1050B0009355F70186077D15AE97060705820DC942
:1050C000B3051601E3D4F6FEB388C500368863CE77
:1050D000050A958FB336B700958F0D8F9355F7015D
:1050E00086077D153293C286AE970607058269F959
:1050F000D98F9354130089CB93041300FD578580F7
:105100006314F300850E814413D71E403704E03F3B
:1051100093FE1E003A9463850E00B7070080DD8C75
:1051200013174E012297B24022442685BA85924435
:10513000410182801397150005833368A7002E87ED
:10514000E30308FED9E193D5B600AD172E87D60646
:10515000FDD913D6450141EA014611A02A8606076A
:105160009315B70013051600E3DA05FE9308000255
:105170003688B388A840BA85B396A600335718017D
:10518000338EC740B367B7006DBD13C8F8FF13581F
:10519000F80136983DBFE36DB7F0B388C500E3C6AC
:1051A00005FE3E88814715BF2A86AE86EF20403136
:1051B0002686A286EF10A045B2402244AA842E87FC
:1051C0002685BA859244410182802A86AE86EF20E8
:1051D000A07A2A86AE86EF109036AA842E87A1B7D1
:1051E0002E87814795BF3688930800027D5679B790
:1051F00039715AD0139B15004AD84ED662CC66CA74
:1052000006DE22DC26DA52D456D25ECE6AC86EC6DC
:10521000135B1B00B707403E2E8CAA8C3289B689DF
:105220006355FB10EF20F06C630905266686E28665
:105230006685E285EF20C0289767000093878789FD
:105240009043D4432A84AE84EF20802797670000E0
:105250009387C7889043D443EF10603B2286A6868D
:10526000EF200026976700009387C7879043D443B9
:10527000EF2080702286A686EF20802497670000AA
:105280009387C7869043D443EF1060382286A68662
:10529000EF200023976700009387C7859043D4438E
:1052A000EF20806D2286A686EF2080219767000080
:1052B0009387C7849043D443EF1060352286A68637
:1052C000EF2000202A8AAE8A97570000938707654F
:1052D0009043D4432285A685EF20801E2A8BAE8B77
:1052E0005286D6862285A685EF20801D2A84AE842C
:1052F0004A86CE866685E285EF20801C2A86AE86A9
:105300002285A685EF2040672A86AE865A85DE85EF
:10531000EF208066975700009387C74D2A86AE8698
:105320008843CC43EF2040650DAA2A86AE86EF2045
:105330002019975700009387E7799043D4432A8434
:10534000AE84EF20E01797570000938727799043AA
:10535000D443EF10C02B2286A686EF206016975705
:105360000000938727789043D443EF20E0602286A3
:10537000A686EF20E0149757000093872777904385
:10538000D443EF10C0282286A686EF2060139757DB
:105390000000938727769043D443EF20E05D228678
:1053A000A686EF20E011975700009387277590435A
:1053B000D443EF10C0252286A686EF206010B737B1
:1053C000D33F938727332A8AAE8AE3DF67EFB70795
:1053D000E93F63C3670B175700001307A741B707DF
:1053E000E0FF08434C433E9B8147DA863E863E8D74
:1053F000EF208058DA8DAE8B2A8B97570000938769
:10540000E7519043D4432285A685EF20600B6A863E
:10541000EE86EF2060562A8DAE8D5286D686228586
:10542000A685EF20E0092A84AE844A86CE8666856A
:10543000E285EF20E0082A86AE862285A685EF2049
:10544000A0532A86AE866A85EE85EF20E0522A8632
:10545000AE865A85DE85EF202052F2506254D25437
:105460004259B259225A925A025BF24B624CD24CC8
:10547000424DB24D21618280975700009387876427
:1054800003AB070083AB470097570000938707647F
:1054900003AD070083AD47008DB797570000938792
:1054A00067358843CC4355BF130101D5232E3129DD
:1054B000B689131827003ADC3ED4175700001307AB
:1054C000676A9387F9FF232EB12742972326112A73
:1054D0002324812A2322912A2320212B232C412992
:1054E000232A51292328612923267129232481294C
:1054F000232291292320A129B1562AD22EDA3EC88F
:10550000832D0700E344D6001307D6FFE147B347D6
:10551000F7023ED0850713972700998F8E07825593
:105520009386F9FF3387DD00B2973384D5401309A2
:1055300017003ECA0409229963430702225A9317AF
:105540002400D29701458145634504008843EF203C
:10555000D04088C0CCC00504A104E31224FF63C47A
:105560000D06C24B125D1C0913993B001304890000
:10557000139A3D003E99BC0B840B3E9A6A944A8B69
:10558000EA8A014C814C63C80B0203260B00832678
:105590004B0003A50A0083A54A00A10A611BEF1076
:1055A00030722A86AE866285E685EF1040062A8C28
:1055B000AE8CE39C8AFC23A0840123A29401A10465
:1055C0002109E39E44FB13972D007018930687FF73
:1055D000330CE600980036973AD8125713943900E6
:1055E0009387FDFF3A94370700207D173ACC3707A1
:1055F00080007D178A073ADE981CBA97EE84130D57
:10560000011D3ED66ECE93973400981CBA9703AA1C
:1056100007F683AA47F663569008E2479309010408
:105620003389F400975700009387475203A8470037
:105630009C430E0942C23EC0975700009387872FB4
:1056400003A847009C436A9942C63EC411A03E8904
:10565000024692465285D685EF109066EF2070295B
:10566000EF20B02F2246B2462A8BAE8BEF1050654A
:105670002A86AE865285D685EF200030EF2070272F
:10568000032609008326490023A0A900DE855A8548
:10569000EF00F0772A8AAE8A930789FF9109E31811
:1056A0002DFB524BD68552855A86EF009023975793
:1056B00000009387274A9043D4432A89AE89EF108C
:1056C0003060EF00D00C9757000093872749904334
:1056D000D443EF10F05E2A86AE864A85CE85EF2051
:1056E000A029AE892A89EF20D020AA8AEF20F026AF
:1056F0002A86AE864A85CE85EF2000282A89AE8983
:10570000635760139387F4FF981C8A07BA9703AA1C
:1057100007DD614733076741B356EA403397E60038
:105720003307EA405D4A330A6A4123A8E7DC335A6B
:105730004741B69A634B4011014681464A85CE8562
:10574000EF10303B6318051AF2471386F4FF634FDE
:10575000F600939724009800F117BA9701479443F5
:10576000F117558FE39D87FF631D0728B25783A765
:1057700007DD63930728C2570547F117D443050790
:10578000EDDE93871400BE8ABA944247925D62C0F0
:105790003309F7000257330AF70062478E070A0AF7
:1057A0003A9922570E09B309FD001C093A9A3E990D
:1057B00003250A00EF20701AC2472324A9002326DC
:1057C000B90063C90704CA8B6E8B014C814C31A0B0
:1057D00003A50B0083A54B00E11B03260B008326CA
:1057E0004B00210BEF10D04D2A86AE866285E685F0
:1057F000EF00F0612A8CAE8CE31C8BFC23A08901A6
:1058000023A29901850A110AA1092109E3D254FBB7
:10581000024CD5BB014C814C23A0890123A29901E4
:10582000850A110AA1092109E3D454F9D5B7D24751
:10583000639807189387F4FF8A07981CBA9703AAFE
:1058400007DD135A7A41E35940EF850A6354904CBF
:105850000648854763150812638EF400D400054797
:1058600003A80600930717009106631B08103E87E4
:10587000E398F4FE52476353E0028547630CF74612
:105880008947631DF7009387F4FF981C8A07BA972E
:1058900003A707DD2A07298323A8E7DC8947E31D3F
:1058A000FAE8975700009387E7F48843CC434A8689
:1058B000CE8642C0EF20400C02482A89AE89E30D13
:1058C00008E6975700009387E7F28843CC43524697
:1058D000EF0030012A86AE864A85CE85EF20C009CA
:1058E0002A89AE89014681464A85CE85EF1070200F
:1058F000E30C05E4524D4A85CE853306A041F24DB6
:10590000EF00207E975700009387C70203A9070086
:1059100083A947002A8C4A86CE86AE8CEF101024CD
:1059200063470546175700001307472210435443A7
:105930006285E685EF10D038EF20A07B9C1C139485
:1059400024003E94AA8BEF2050014A86CE86EF10A9
:1059500030372A86AE866285E685EF20E001EF20AB
:105960004079138B1400981C93172B00BA972328A7
:10597000A4DC13078D013ACA23A877DD55A8014797
:105980000A0737060001941C36973308064123287E
:1059900007DD63D597028A073387F6008C0093965C
:1059A0002400032707DDAE97AE967D1611A098431D
:1059B0003307E64098C39107E39BD7FE05485DBDDA
:1059C00097570000938787F59043D443014AEF101F
:1059D000F018E34305D6850A094AE34B90E697574A
:1059E0000000938727E18843CC434A86CE86EF1098
:1059F000B0782A89AE8989B393871400BE8ABE84A1
:105A000069B3981C93172600BA97524783A707DDFE
:105A1000F24D21173ACA328B81EF93972400E11798
:105A20009400B697F117D4437D1B2117E5DE3ACADF
:105A300097570000938707DC8843CC435246EF001A
:105A4000406A2A84AE8463470B3893173B003E8735
:105A5000940BB38BE6003EC4175700001307070FE3
:105A600093172B009400B38CF6005E8C032907007B
:105A70008329470011A0BE8C03A50C00611CEF20F8
:105A8000C06D2286A686EF10B0232324AC00232607
:105A9000BC002285A6854A86CE86EF10702298002B
:105AA0002A84AE849387CCFFE31797FD1C1A3EC06F
:105AB000EE8CBE84014463C80C06975700009387A0
:105AC0006708175C0000130CEC03DE898843CC43A5
:105AD000014D814D014909A8210CA1096347240307
:105AE00003250C0083254C0003A6090083A649006A
:105AF0000509EF10F01C2A86AE866A85EE85EF0058
:105B000010312A8DAE8DE3D92CFD23A0A40123A250
:105B1000B401980B0504A10493878BFF63027703FC
:105B2000BE8BE3DC0CF8014D814D23A0A40123A220
:105B3000B401980B0504A10493878BFFE31277FF50
:105B40006257894763C7E7086348E01C21E7A2471B
:105B5000024401458145B30CF40003A60C0083A662
:105B60004C00EF00D02A93878CFF630D9401BE8C0C
:105B700003A60C0083A64C00EF00702993878CFFCE
:105B8000E31794FF63050A00B7070080BD8DD25666
:105B900088C2CCC28320C12A0324812A13F57A004B
