:100000006F20805E1300000013000000130000004A
:100010001300000013000000130000001300000094
:100020001300000013000000130000001300000084
:08003000130000007300100032
:100038000000000000000000D8350000DA3500009C
:100048000000000080250000000000000000000003
:100058008225000084250000000000000000000048
:10006800420A00000000000000020000000000003A
:100078008A2500008C2500008E25000090250000B0
:100088009225000094250000962500009825000080
:100098009A2500009C2500009E250000A025000050
:1000A800A2250000A4250000A6250000A825000020
:1000B800AA250000AC250000AE250000B0250000F0
:1000C800B2250000B4250000B6250000B8250000C0
:1000D800BA250000BC250000BE250000C025000090
:1000E800C2250000C4250000C6250000C825000060
:1000F800CA250000CC250000CE250000D025000030
:10010800D2250000D4250000D6250000D8250000FF
:10011800DA250000DC250000DE250000E0250000CF
:10012800E2250000F0230000E625000000000000A2
:080138000000000000000000BF
:10020000130181F806C216C41AC61EC822CA26CC1B
:100210002ACE2ED032D236D43AD63ED842DA46DC76
:100220004ADECEC0D2C2D6C4DAC6DEC8E2CAE6CC46
:10023000EACEEED0F2D2F6D4FAD6FED8F3220030CF
:1002400096DA9702002083A262FF23A02200F32502
:1002500010342EC003A18181EF10406D17030020E0
:100260000323C3FD03210300824273901234D6524C
:10027000739002309240A2423243C2435244E2445D
:10028000724582551256A2563257C2575258E258FA
:1002900072598649164AA64A364BC64B564CE64C0E
:1002A000764D865D165EA65E365FC65F13018107DA
:1002B0007300203013000000130000001300000042
:1002C00013000000130000001300000013000000E2
:1002D00013000000130000001300000013000000D2
:1002E00013000000130000001300000013000000C2
:1002F00013000000130000001300000013000000B2
:1003000083A28181938202E073900234170100205E
:100310000321C1F2024182403243C2435244E244CB
:10032000724582551256A2563257C2575258E25859
:1003300072598649164AA64A364BC64B564CE64C6D
:10034000764D865D165EA65E365FC65FD652A1020A
:1003500073900230A24213018107828013000000D3
:100360001300000013000000130000001300000041
:100370001300000013000000130000001300000031
:100380001300000013000000130000001300000021
:100390001300000013000000130000001300000011
:1003A0001300000013000000130000001300000001
:1003B00013000000130000001300000013000000F1
:1003C00013000000130000001300000013000000E1
:1003D00013000000130000001300000013000000D1
:1003E00013000000130000001300000013000000C1
:1003F00013000000130000001300000013000000B1
:10040000F322003093F272FF130380181203B3E259
:100410006200711523205500130585FA10C12115BE
:10042000232005009302000063870200711523203A
:100430000500FD12D5BF71150CC1828000000000BF
:1004400000000000000000000000000000000000AC
:10045000000000000000000000000000000000009C
:10046000000000000000000000000000000000008C
:10047000000000000000000000000000000000007C
:10048000000000000000000000000000000000006C
:10049000000000000000000000000000000000005C
:1004A000000000000000000000000000000000004C
:1004B000000000000000000000000000000000003C
:1004C000000000000000000000000000000000002C
:1004D000000000000000000000000000000000001C
:1004E0000000000000000000000000000000397162
:1004F00001436EC619A0397141536AC866CA62CCFD
:100500005ECE19A0397101535AD056D252D44ED66C
:100510004AD826DA22DC06DE3301614082824111AC
:100520004AC026C222C406C68282B24D4101024D93
:10053000924C224CB24B4101024B924A224AB249A0
:100540004101024992442244B240410182803D432C
:100550002A876373C3029377F700BDEFADE5937607
:1005600006FF3D8ABA960CC34CC30CC74CC7410763
:10057000E36BD7FE11E28280B306C3408A0697027E
:10058000000096966780A6002307B700A306B70071
:100590002306B700A305B7002305B700A304B700DF
:1005A0002304B700A303B7002303B700A302B700D7
:1005B0002302B700A301B7002301B700A300B700CF
:1005C0002300B700828093F5F50F93968500D58DB3
:1005D00093960501D58D61B7939627009702000089
:1005E00096968682E78086FA9680C1171D8F3E9682
:1005F000E374C3F8A5B711CD054889CD01CEEFF25C
:100600001FF2BA8736878146EF00704D0148428558
:100610000DBF054842858280EFF27FF0EF00506FFA
:10062000014505B711CD854789CD01CEEFF23FEFEA
:1006300032840146EF00E073814708C03E8511B760
:1006400085473E858280854795C10DC2EFF23FED1B
:10065000B2878146135615003E85EF002078054786
:1006600081476303E50089473E85E1BD3E85828081
:10067000854785C91DC6EFF29FEA328413561500DF
:100680002285B684EF00700E05478D476319E5009B
:100690002285EF00502205052380A40081473E8576
:1006A0004DB53E858280EFF29FE70581EF10E02196
:1006B000014541BDEFF2BFE61306401F3306C502F8
:1006C0009307803E814501453356F602EF1040679F
:1006D000014585BDEFF2BFE4054401C989E9014741
:1006E00089460146EF10406F0144228599BD0547B8
:1006F0000144E39CE5FE01468145EF10D006F5B7C5
:10070000B7070020938707239843636FA702D0435E
:10071000B386C7006316D50054413E85B296D4C354
:100720005041B306C500631CD700B706002083A65E
:1007300086216306D70054431843B29654C118C1AA
:100740006303F50088C38280BA877DBFEFF29FDB29
:1007500041112AC6EF00D064B706002083A7862186
:1007600037060020938686211306C6213245A1EF65
:10077000370700209307C72B93F5F7001307C72B04
:1007800081C51387F700419BB7050020938505239A
:1007900023A2050098C18D65C115AE97C19B23A208
:1007A000070023A00700B385E7409CC21CC3B7071E
:1007B000002023A2B722B707002023A0B722B70743
:1007C00000804CC31CC2032A0600B377AA0085E34D
:1007D0009307F5FF3957636CF7009307050113F78B
:1007E000F70041C313F707FF410763EBE7068144B6
:1007F00089A022872E8461A058C15CC0113758405F
:10080000B7060020938646229042B307E94023A012
:10081000F90063F3C7009CC2B70700203367EA0002
:100820009387872258C09843C104232004000507FA
:1008300098C3EF00307393F7F400D1CB89679387A7
:100840000780739007303796000037950000130635
:10085000C6A893050011130505ACEF50003701A0A1
:10086000BA87370700200329072293090722E3608C
:10087000F9F8370700200324072313070723504004
:100880006374F6000C40B5F59442E38286F614409A
:10089000044314C33307F64093060002E3F1E6F67F
:1008A0003305F4009376F500A1DA89679387078012
:1008B0007390073037960000379500001306C6A8DE
:1008C0009305F00C130505ACEF50203001A02685F0
:1008D00041019DB14DC1EFF29FC4B707002003272E
:1008E00045FF83A7C7212A84B376F7009DE2896775
:1008F0009387078073900730379600003795000084
:100900001306C6A893054012130505ACEF50E02B63
:1009100001A0832605FF9DC2896793870780739096
:10092000073037960000379500001306C6A89305D8
:100930005012130505ACEF50402901A093C7F7FFF3
:10094000F98F232AF5FEEF00B045B7070020938703
:1009500007229443032744FF130504FF369798C3E7
:100960004533B70700209387C7229843050798C3EC
:10097000EF00505FF9B68280B7E700E04157238768
:10098000E7402386E740B7F700E023A0070023A253
:100990000700814694C70147D8C783A50181130783
:1009A000401F814633D6E5023D4790CBD4CB98C358
:1009B0008280EFF2DFB6411102C6F32750303EC607
:1009C000B2470D478D8B6384E70289679387078061
:1009D000739007303796000037950000130646AE37
:1009E0009305600B130505ACEF50201E01A0B7570F
:1009F000002093870700BD8B9DC38967938707807D
:100A0000739007303796000037950000130646AE06
:100A10009305B00B130505ACEF50201B01A0A93FB7
:100A2000B7E700E0116723A0E710056723A0E710F0
:100A3000B707002023AC071EEFF09F8C0145410152
:100A400009B6397106DE16DC1ADA1ED82AD62ED47B
:100A500032D236D03ACE3ECC42CA46C872C676C4EE
:100A60007AC27EC0731101348967938707807390BF
:100A70000730B7F700E023A20700EF00103411C5DC
:100A8000B7E700E0116723A0E7208967938787888D
:100A90007390073073110134F250E2525253C25333
:100AA0003255A255125682567247E2475248C24802
:100AB000324EA24E124F824F21617300203089675F
:100AC0009387078073900730B70700209387871FAD
:100AD0009843050798C38280370700201307871FB4
:100AE0001C438DE7EFF2BFA389679387078073905C
:100AF00007303796000037950000130646AE930581
:100B00003010130505ACEF50400C01A0FD171CC3BD
:100B100091E789679387878873900730828009659A
:100B200013050580731505308280731005308280AF
:100B3000930785007D575CC118C55CC51CC923207F
:100B4000050082802328050082809841FD56930786
:100B50008500631ED7001C49D843D8C10CC79CC56B
:100B6000CCC31C4188C985071CC18280B687D44389
:100B70009042E37DC7FECDB7544118451C4998C645
:100B800054C3D4436393A600D8C3984323280500D5
:100B90007D1798C388438280EFF27F9841112AC65F
:100BA000393F3245005D0D3F13351400410151BA04
:100BB000EFF2FF9632893041045D2A8401EE1C4138
:100BC000014591E70844EF10000B2324040085043D
:100BD00004DC85BA631009024841EF4040545C4090
:100BE00038400145BA9718445CC0E3E2E7FE1C4078
:100BF0005CC0F1BF4845EF4080523C40584414402F
:100C0000B307F0403E9758C46375D7001844BA97AD
:100C10005CC489470145E31CF9FAD5D8FD1445BFEA
:100C2000304115C2EFF2BF8F58451445AA8732975D
:100C300058C56364D700184158C52E85CC47EF408E
:100C4000004E6FF01F908280EFF27F8D2A84853DE9
:100C50008344540413094402E204E184634590028E
:100C6000FD57A302F4048D3D993D834444041309C8
:100C70000401E204E18463449002FD572302F4047A
:100C8000A13D6FF01F8C5C50E1DF4A85EF00905F63
:100C900019C1EF00D07BFD14E204E184C1B71C4808
:100CA000E9DF4A85EF00105E19C1EF00507AFD14AC
:100CB000E204E184C9B7EFF29F8641111DE1896723
:100CC00093870780739007303796000037950000B0
:100CD000130686B193050011130505ACEF40F06EC5
:100CE00001A05C5D2EC62A84BDC33841B3B7E702BC
:100CF000B9EFF1333040585C1440232C0402B307A1
:100D0000E602B24554C03387F600918FB6975CC4B3
:100D1000FD572302F40418C4A302F40495E11C480F
:100D200099CB13050401EF00F05511C5B7E700E0BA
:100D3000116723A0E7204D33054541016FF07F8007
:100D400013050401F53313054402DD33EDB789675C
:100D5000938707807390073037960000379500001F
:100D6000130686B193055014130505ACEF40F065EA
:100D700001A0EFF2CFFA411121C1B3B7A502AA84B5
:100D800085EF3305B502930770FB63E7A7021305F0
:100D900085042EC6653A2A8401CDB245AA8799C139
:100DA000930785042CC01CC044DC8545228521376F
:100DB000228541016FF0EFF8896793870780739070
:100DC00007303796000037950000130686B193056B
:100DD000601C130505ACEF40505F01A0EFF2AFF1CE
:100DE000011132C61DE18967938707807390073030
:100DF0003796000037950000130686B19305E03260
:100E0000130505ACEF40705C01A02A842E89B684DE
:100E10008DE53C419DC389679387078073900730B8
:100E20003796000037950000130686B19305F0321F
:100E3000130505ACEF40705901A089476398F4028F
:100E4000585C85476304F70289679387078073902E
:100E500007303796000037950000130686B19305DA
:100E60000033130505ACEF40505601A0EF00F05ED3
:100E700015E5B247014C85C7896793870780739052
:100E800007303796000037950000130686B19305AA
:100E90003033130505ACEF40505301A0014C094B12
:100EA000FD59930B040137EA00E0916AADA0B24707
:100EB00081E71D31014549A863150C002808EF00A2
:100EC000304B1939EF00C06DDD3E83474404E20723
:100ED000E187639437012302040483475404E20743
:100EE000E18763943701A3020404FD366C002808EF
:100EF000EF00704935E5E136185C5C5C6319F70476
:100F0000E13EB2455E85EF00102C2285353BEF00B7
:100F1000700521C5054C6536185C5C5C6364F700A0
:100F2000E39764F92686CA85228559315C5089C7C2
:100F300013054402EF00103511C5B7E700E0116753
:100F400023A0E720513E054505616FF04FDE69366D
:100F50002285DD39EF00100175BF23205A215DBFC6
:100F60002285DD31EF001000B1B7EFF2CFD80111CB
:100F700032C61DE1896793870780739007303796E3
:100F8000000037950000130686B193051055130530
:100F900005ACEF40904301A02A84AE898DE53C4129
:100FA0009DC3896793870780739007303796000049
:100FB00037950000130686B193055055130505AC0F
:100FC000EF40B04001A0EF00504915E5B24701499C
:100FD00085C789679387078073900730379600002D
:100FE00037950000130686B19305A055130505AC8F
:100FF000EF40B03D01A001497D5A930A440237EB0E
:1010000000E0916B9DA0B24781E7F934014561A0F2
:10101000631509002808EF00B0357D3C51234534A5
:1010200083474404E207E1876394470123020404F1
:1010300083475404E207E18763944701A302040451
:10104000613C6C002808EF00103431ED2285A93690
:1010500031C5B2455685EF0010172285F536EF00F1
:10106000607019E123207B210549913C045CC1DCBF
:10107000CE852285FD146D3604DC1C4899CB130502
:101080000401EF00302011C5B7E700E0116723A08D
:10109000E7209934054505616FF06FC922856D36EB
:1010A000EF00406CD1B722854536EF00A06B22855A
:1010B000E5345DD9A1BFEFF28FC641111DE189670B
:1010C00093870780739007303796000037950000AC
:1010D000130686B19305307E130505ACEF40F02E64
:1010E00001A02AC6EFF0BF9D3245085D2AC6EFF089
:1010F000BF9E324541016FF0CFC415E5EFF22FC21C
:10110000896793870780739007303796000085655D
:1011100037950000130686B1938585AC130505ACA1
:10112000EF40B02A01A09DCD373600209306C62B94
:10113000814701471306C62B214883A846006398C0
:10114000A80093173700B2978CC3C8C321A891E7B2
:1011500083A8060063930800B6870507A106E31E6F
:1011600007FDFDF38280EFF28FBB41112A842EC66A
:1011700032C4EFF0DF94834744047D572246E207F0
:10118000E187B2456394E7002302040483475404D3
:101190007D57E207E1876394E700A302040432C6A7
:1011A0002EC4EFF07F931C5CA245324689E71305FD
:1011B0004402EF00D0052285EFF01FA941016FF036
:1011C0004FB8370700201307C7231C439443B707C2
:1011D00000209387C72581E67D5798C382801843F6
:1011E00058471843DDBFEFF2EFB137090020B707CA
:1011F00000209304892383A9C7262A849C40884021
:101200004111A380070611052EC6EFF0FF967D570A
:1012100093078923B245631CE40295C9B7370020C0
:101220009387473C9440D84398C610479440D0C613
:1012300094401047910654C29440910614C79840B8
:101240005CCB9843050798C341016FF0EFAE98431C
:101250004E9440C3637B34013707002003250724E5
:101260008C439105EFF07F8EC5B73707002003252B
:10127000C7238C439105EFF05F8DB707002093875C
:10128000C7259843E372E4FC80C37DBFEFF28FA7CC
:1012900037340020B70900201304843D370A0020AA
:1012A000938489249C40EDDFEFF07F815C4403A9A7
:1012B000C70013054900EFF03F8C13074A241C4375
:1012C000FD171CC39C40FD179CC0EFF0FF80032559
:1012D0000903EFF02FE04A85EFF0CFDFD1B7EFF24F
:1012E0008FA113192600AA8A4A85AE89368BBA8B3C
:1012F0003E8AEFF0AFC505C5AA8413054006EFF09E
:10130000EFC42A8411C904D9814793060002639A65
:101310000900230A050225A02685EFF0AFDB7D55E5
:10132000D1AA3387F900030707003306F400230A24
:10133000E60201C78507E396D7FEA309040499478F
:1013400063F4770389679387078073900730379634
:10135000000037950000130606B593057039130594
:1013600005ACEF40900601A0930944004E8523266A
:101370007403232A7405232C0404EFF0AFFC130537
:101380008401EFF02FFC1D471305C9FF3307774198
:10139000269500C818CC40D0230E0404A30E0404E4
:1013A000230F0404A30F040423000406A30004066F
:1013B0005A86D6854199EFF0AF8408C063040A00CD
:1013C00023208A00EFF0AFEFB70700209387472470
:1013D00098433709002037350020050798C31307C5
:1013E00089231843370A0020130989239304C52F42
:1013F000130A8A2663120710232089009843854721
:101400006318F7081305C52FEFF08FF21385440119
:10141000EFF00FF213858402EFF08FF11385C40310
:10142000EFF00FF113850405EFF08FF013854406FC
:10143000EFF00FF013858407EFF08FEF37350020C2
:10144000130B853813058538EFF08FEE3735002004
:10145000930AC5391305C539EFF08FED37350020F4
:101460001305053BEFF0CFEC373500201305853D24
:10147000EFF00FEC373500201305453CEFF04FEB54
:10148000B707002023AE6723B707002023A0572506
:10149000B7070020938707259843050798C33707A8
:1014A0000020130747255C54144363F3F6001CC364
:1014B0005147B387E702BE94DC4098471CC458C428
:1014C00098472322370123A437019C4044C885074D
:1014D0009CC0EFF06FE083270A00054581CF83278A
:1014E0000900D8575C546377F700B7E700E011674D
:1014F00023A0E7206FF0AF8383270A00D1FB832767
:101500000900D8575C54E3E5E7F82320890049B780
:10151000EFF2EF80B7070020B79500003715000005
:10152000938787250147814613060010938545B7A9
:101530001305C5286D330544631E8502EF00506511
:10154000631A850289679387078073900730B7070E
:1015500000207D5723AEE724B707002023A4A72649
:10156000B707002023A60726EFF0AFC483A741806A
:101570006FE03FFDFD57E31BF5FE8967938707800A
:101580007390073037960000856537950000130685
:1015900006B593850584130505ACEF40006301A0F3
:1015A000B70700209387C7249843050798C3828014
:1015B000B707002003A5C7268280B707002083A7AE
:1015C000C72463980718EFE29FF5B70700209387B9
:1015D000C7268043050480C339E8B70700209387F6
:1015E000C7239843184305C789679387078073907B
:1015F000073037960000856537950000130606B55D
:10160000938575AC130505ACEF40205C01A037074E
:101610000020130707249443104390C3B70700200A
:1016200014C3938707269843050798C3593E370686
:1016300000209307C6259C4337370020B7050020BC
:101640001306C6251307C72F9385852301456375A8
:10165000F4029C41D146DC57B387D7023E9718432A
:10166000854763F3E7000545B707002083A70727F1
:1016700091C305456FE0FFEC370E0020B70E002048
:10168000514F9307CE239443944281E6FD571CC2E9
:10169000C9B79C43DC47DC47D4436374D40014C20D
:1016A0004DBF83A8870003A8C700D44B138347000E
:1016B00023A408012322180183A84600639468002C
:1016C00023A2060103A8060023AA07007D1823A071
:1016D0000601945795CA03A8C70183A8070283AFE0
:1016E00046002324180183A8070223A208011388B7
:1016F000870163940F0123A2160103A8060023A407
:1017000007027D1823A0060193864E2503A8C70271
:1017100083A8060063F4080123A00601B306E803CA
:10172000BA9683A8460083AF880023A4170123A696
:10173000F70183AF880023A26F0023A46800D4CBF5
:101740009C4285079CC29C41DC57E36CF8F205453E
:101750000DBFB7070020938747269843014505072B
:1017600098C38280EFE21FDA370400201304C424F8
:101770001C40411185E78967938707807390073084
:1017800037960000856537950000130606B59385EA
:10179000358B130505ACEF40404301A0EFF02FB2AD
:1017A0001C40FD171CC01C4089CB01452AC6EFF028
:1017B000AFB2324541016FE03FD8B707002083A7A1
:1017C0004724E5D7B7360020373500208147938678
:1017D000063B370F00201305C52FD14837030020E3
:1017E000370E0020854E59A8DC46DC47CC4F90537D
:1017F000985790C503A807022322B8000328470082
:10180000938587016313B80050C3104323A40702D4
:101810007D1610C38C47D047D84B1388470090C51E
:101820004CC24C436393050150C3104323AA0700E5
:101830007D1610C313074F25D0570C4363F3C50023
:1018400010C3330716032A974C4383AF85008CC718
:1018500023A6F70183AF850023A20F0123A405016E
:101860000C43D8CB85050CC3130783231843585763
:101870006366E60013070E272320D70198422DF751
:1018800099C3EFF01F94B70700201387472604433E
:101890001384472691CC370900208549393B09C577
:1018A0009307092723A03701FD14EDF82320040036
:1018B000B707002083A70727E38907EEB7E700E013
:1018C000116723A0E7200545D5B519E5B7E700E086
:1018D000116723A0E7208280EFE27FC4B7070020D2
:1018E00083A7C72441119DC389679387078073909D
:1018F00007303796000037950000130606B59305AC
:101900009054130505ACEF40402C01A02AC649397C
:1019100032458145EFF03F8DB13511E5B7E700E085
:10192000116723A0E72041016FE0BFC1B707002086
:1019300003A7C724B70700209387072701C70547D8
:1019400098C3828023A00700B7070020138747258C
:10195000184313864725B73700209387C72F514870
:10196000B3060703B385D700884115C5C841A10652
:10197000BE964841C8C16314D5005441D4C1D14674
:10198000B306D702B697DC43D447B707002023AC91
:10199000D72218C2828015E7EFE27FB88967938764
:1019A00007807390073037960000856537950000F3
:1019B000130606B5938525C0130505ACEF40E0205E
:1019C00001A07D1771BFEFE29FB505E58967938799
:1019D00007807390073037960000856537950000C3
:1019E000130606B59385C5C1130505ACEF40E01D90
:1019F00001A0B70700202E8483A58723E105EFF01F
:101A0000CF9485452285EFF00FFE6FE09FB3EFE2A4
:101A10001FB12A8705E58967938707807390073090
:101A200037960000856537950000130606B5938547
:101A300025C5130505ACEF40401901A0B7070020EC
:101A40009387872354432E858C4303A88600D4CDE7
:101A50008C4323A0050303A807008C46610823A23A
:101A6000050103A807009C43610823A4060198D739
:101A70001C4385071CC311C27D55B285EFF0AFF63C
:101A80006FE03FAC5C45DC4795E7EFE25FA9896713
:101A900093870780739007303796000085653795E8
:101AA0000000130606B5938525C8130505ACEF4065
:101AB000C01101A0D04F945398579385870114C645
:101AC000D0C250436313B60054C3144323A4070287
:101AD000FD1614C3370700200327C724D45725EF6A
:101AE0008C47D047D84B90C5D04748434CC29385CC
:101AF00047006313B50050C3104323AA07007D16A7
:101B000010C3370700201307472510436373D6001F
:101B100014C351473386E602373700201307C72F17
:101B200032975043084690C7C8C708464CC10CC6F8
:101B3000D8CB1C43014585071CC3B707002083A7EA
:101B40008723DC5763F8D700B7070020054723A891
:101B5000E72605458280373700201307073B5043AF
:101B60000846D0CF88D308464CC10CC698D7D1B709
:101B7000B707002083A707261CC1B707002083A74B
:101B8000C7265CC18280EFE29F99411105E5896714
:101B900093870780739007303796000085653795E7
:101BA0000000130606B59385D5CF130505ACEF40AD
:101BB000C00101A085E5896793870780739007308E
:101BC00037960000856537950000130606B59385A6
:101BD000E5CF130505ACEF30507F01A02EC62AC417
:101BE000EFE0FFED37070020B7070020130787233A
:101BF00083A6C7261C432245B24583C7170699CB47
:101C00001C43A38007060544EFE01FED2285410138
:101C10006FE03F939C417D570144E387E7FE370621
:101C20000020032606260328050058416307C80044
:101C300063E5E60023A00500F9B73386E640E37BC1
:101C4000F6FE958FBA979CC12537014475BFB7073B
:101C50000020054723A8E7268280B707002083A736
:101C60008726054581CBB707002003A5C724133578
:101C700015000605828011E50145828001456FE06F
:101C80005F8CEFE2DF89B707002083A787232A84D0
:101C90006385A7028967938707807390073037961B
:101CA0000000856537950000130606B59385F50499
:101CB000130505ACEF30707101A0BC4F85E7896753
:101CC00093870780739007303796000085653795B6
:101CD0000000130606B593850505130505ACEF3026
:101CE000D06E01A054557849FD173CCDE388E6F845
:101CF000D1F7930445002685EFE01FE87C481D4797
:101D00001D8F18CC370700201307472514435CD4D8
:101D100063F3F6001CC351473387E702B73700204F
:101D20009387C72F0545BA97D843144718C454C49E
:101D30001447C4C204C798435CC8050798C381B759
:101D4000EFE2EFFD411105C5896793870780739026
:101D5000073037960000856537950000130606B5F5
:101D600093856526130505ACEF30306601A0370476
:101D70000020AE8432C6EFE09FD4930784239C43B7
:101D800013048423FC4F85E31C403246054723801F
:101D9000E70611CA85453285EFF0EFC4B7E700E0EA
:101DA000116723A0E720EFE03FD3EFE05FD11C40B5
:101DB000E84F09C51C4089CC23AE07041C402AC645
:101DC00023800706EFE05FD1324541016FE06FF7F6
:101DD0001307F5FFF8CFDDB7EFE26FF4411185C5CA
:101DE0008967938707807390073037960000856571
:101DF00037950000130606B593858530130505ACAD
:101E0000EF30B05C01A005E5896793870780739088
:101E1000073037960000856537950000130606B534
:101E200093859530130505ACEF30305A01A03AC6C2
:101E300036C432C22AC0EFE09FC83247024512467C
:101E4000A24619C37C4D1CC38347050609472300DE
:101E5000E506114793F7F70F6360D704256713076B
:101E6000C7B38A06BA9698420287784D598E70CDCC
:101E700021A0784D050778CD05476387E704054520
:101E80002AC0EFE07FC5024541016FE08FEB0947B3
:101E9000E39FE7FC0145EDB7370700200327C7267E
:101EA00061DF89679387078073900730379600005A
:101EB000856537950000130606B59385E533130550
:101EC00005ACEF30905001A0144558455C4913060D
:101ED000450098C6584554C3D4436393C600D8C33D
:101EE0009843232A05007D1798C3B70700209387DE
:101EF00047255855944363F3E60098C3D147B3068A
:101F0000F702B73700209387C72FB697D4438C4684
:101F100014C54CC58C46D0C190C694435CC9850697
:101F200094C31C5585C789679387078073900730D2
:101F300037960000856537950000130606B5938532
:101F4000D534130505ACEF30504801A0B707002089
:101F500083A78723DC57E3F4E7F2B7E700E01167D4
:101F600023A0E72029BFEFE28FDB411105E5896758
:101F70009387078073900730379600008565379503
:101F80000000130606B59385C540130505ACEF3078
:101F9000D04301A085C58967938707807390073078
:101FA00037960000856537950000130606B59385C2
:101FB000D540130505ACEF30504101A02A8432C64C
:101FC000EFE0FFB58947034704062300F4067C4C85
:101FD00085077CCC8547639EE70A1C54324685C73B
:101FE000896793870780739007303796000085656F
:101FF00037950000130606B593853543130505ACE8
:10200000EF30B03C01A0B707002083A7C724585485
:10201000D1E70C4454445C4894C5544403A8470099
:10202000CCC2930544006313B800D4C39443232A5D
:102030000400FD1694C3B7070020938747259443F7
:1020400063F3E60098C3D147B306F702B737002021
:102050009387C72FB697D44303A8860014C42326BA
:10206000040103A886002322B8008CC65CC89443F0
:10207000850694C3B707002083A78723DC5763FA3C
:10208000E70019C285471CC2B7070020054723A8EF
:10209000E726EFE09FA941016FE0AFCAB737002004
:1020A0009387073BD4438C4654CC0CD003A88600BE
:1020B000930584012322B8008CC61CD44DBFEFE2E7
:1020C0000FC637040020EFE09F9F130404281C4034
:1020D000B1E7373500201309C53E1305C53EEFE0D3
:1020E0003FA5373500209304054013050540EFE078
:1020F0003FA4B707002023AA27270146B7070020DF
:10210000C145114523AC9726EFE0BFC608C019C5ED
:10211000B7950000938505BAEFE03FFEEFE0DF9B47
:102120006FE02FC2EFE2AFBF4CC108C9AA8763625C
:10213000B602184D158E0545637BE6009385470072
:10214000B707002003A58727EFE03FA001456FE018
:102150004FBF6375D6000545E3FBD5FE9385470069
:10216000B707002003A54727C5B7EFE24FBB2A8476
:10217000AE8432890C4CA6864A86A69522855D37A8
:1021800019E16FE00FBC1C4C2285BE941C50829755
:10219000D5B7EFE2CFB8B707002083A74727411193
:1021A000AA84DC472EC6C04713054400EFE0DF9C3D
:1021B00083474402324613F7470011CBA685228598
:1021C0006D371C502285829741016FE08FB7F99BD4
:1021D0002302F402FDB7EFE28FB437040020930628
:1021E000442798421C4391EBB70700209387872729
:1021F000904398C390C26FE0CFB45C47FD558843CD
:10220000493FF1BFEFE22FAF25694111B70A002026
:10221000B7090020370B0020B70B00201309C9B7FE
:1022200083A74A27984329CBDC47814C03AC07009E
:10223000EFF00FB7EFF0CFB783A7C9272A849384B5
:10224000C927130A0B28636CF50288C0638F0C0240
:1022500083A78B2790431336160003250A00B30586
:102260008C40EFE05FF0EFF0EFCF11EDB7E700E06B
:10227000116723A0E72001A8854C014C55BFA13F61
:1022800080C0EFF02FCE214C05A00146E36785FD0D
:10229000EFF04FCDA2856285ED3DF5B79247B2458F
:1022A0008297824763DD070003250A0001468A857D
:1022B000EFE0BFCB35D582472245E3C107FE22447C
:1022C0005C4895E3EFF0CFAE9C40AA8C6373F500B9
:1022D0001937824723A09401FD17E367FCFC8A07A6
:1022E000CA979C43828713054400EFE0FF88D9BF5B
:1022F000834744020C4C924693E717002302F402F2
:102300006686B6952285393D45D18347440213F749
:10231000470019CB1C4C924566862285BE95B13587
:102320001C502285829749B7F99B2302F402CDBF46
:1023300083474402F99B2302F402BDB7834744025A
:10234000924593E717002302F4020CCC9DE18967C4
:102350009387078073900730379600003795000009
:10236000130686BA93059035130505ACEF30F005DA
:1023700001A0E6866686E69522856D3335B78347EC
:10238000440213F727005DF72285EFE0AFD429BFA1
:10239000EFE2EF98EFF0BFD2B707002083A707283E
:1023A0009DE3896793870780739007303796000015
:1023B00037950000130686BA93059011130505ACF6
:1023C000EF30B00001A0B7070020B7950000372517
:1023D000000093874728194781461306001093850C
:1023E000C5BC13054520EFE09FEF45DD6FE06F951D
:1023F000EFE2EF923755004093055052130505C0A8
:10240000EF00207919C5B707002083A7872891C35B
:1024100082976FE00F9329C5EFE2CF8EB75400404B
:102420002A892E84938404C0854919E0014509A8AE
:10243000930500082685EF002074630535010D45DE
:102440006FE08F8F9305000226853D276DF9834548
:1024500009007D1426854204312705094180F1B722
:102460000545828029C1EFE2EF89B75400402A89EF
:102470002E84938404C0854901E401456FE0CF8B2D
:10248000930500022685CD2D631135032685C525CC
:102490007D142300A9004204930500022685050946
:1024A0004180CD25D1BF054582801145C1BFEFE2F6
:1024B0000F87896537150140E92C6FE08F88EFE2BF
:1024C0000F868965371501404D2C6FE08F87EFE24D
:1024D0000F859165371501404D246FE08F86EFE23F
:1024E0000F849165371501406D246FE08F85EFE211
:1024F0000F832A84894537350140B92965DDA285D6
:1025000037350140A121854537350140B12165DDD1
:10251000373501403D291375F50F6FE08F82EFD2FB
:102520007FFE896779792A84138AF7701309098FE6
:102530009384077101E401456FE00F80636D8A02A7
:102540009319040193D909010144854537050040D9
:10255000092BCE8537050040FD298545370500400C
:10256000512137050040DD29E3FDA9FE81453705EE
:1025700000408D29C1B74A94A689C1BF01A001A01E
:1025800001A001A001A001A001A001A001A001A043
:1025900001A001A001A001A001A001A001A001A033
:1025A00001A001A001A001A001A001A001A001A023
:1025B00001A001A001A001A001A001A001A001A013
:1025C00001A001A001A001A001A001A001A001A003
:1025D00001A001A001A001A001A001A001A001A0F3
:1025E00001A001A001A001A097E1FF1F938101417B
:1025F00017310020130101A1177500001305C5AFA5
:1026000097E5FF1F938505A01386018263FAC50035
:102610008322050023A0550011059105E3EAC5FEBC
:1026200017E5FF1F130585BF97150020938505E16A
:102630006377B500232005001105E36DB5FEFD426B
:10264000739002BC894273904280B722000093824B
:10265000028073A0023097E2FFFF9382229E93E2F2
:10266000320073905230EF00D0289712000093820E
:10267000223773901234730020309C4513F7070102
:1026800013F8F70001C7D8413368E8003727024044
:10269000145B3707000F758F55EF3707002085460D
:1026A0002306D728371701406317E50003D7050035
:1026B00035832390E50083D5050013F7F50F39C363
:1026C00018418146854E3D4F930F8002930280044E
:1026D000214E3396DE00B3F8C500631116039398BC
:1026E000260033131F011343F3FF3377E300B318BE
:1026F000180133E7E8006399F70750C98506E39AA4
:10270000C6FD18C11307F00F6375B7045441214685
:10271000854E3D4F930F800293028004414EB39843
:10272000CE0033F715016392E80213172600011754
:102730003313EF001343F3FFB376D3003317E800EE
:10274000D98E6397F703232A15010506E319C6FD01
:1027500054C1828037170140E31FE5F4370700209A
:102760000347C72829DB99B7E39A57F810C979B707
:10277000E39D57FC23281501C9BFB7170140631813
:10278000F500B707002083C7C72891C3B5810CC9DE
:102790008280B71701406318F500B707002083C790
:1027A000C72891C3B5814CC98280B707002023A8F0
:1027B000A7288280371702405C439146B18B63851E
:1027C000D700A1466386D706B7177A0093870720FC
:1027D0001CC1371602405C42370700201307070070
:1027E0009183BD8BBA9783C607001C41B3D7D7002E
:1027F0005CC15442A1829D8ABA9683C60600B3D6B4
:10280000D70014C55442AD829D8A3697034707000E
:10281000B3D7E7005CC558423983937637001387F6
:102820008180369703470700B3D7E7021CC982802F
:102830005C435843C166C983BD8B758F8907C54604
:102840006393D700C94701EF37470240032707804A
:10285000418B09CF37177A001307072021A83717B4
:10286000024058439316E700E3D606FE37173D00B3
:1028700013070790B387E702A1BF99C53717024036
:102880005C4B5D8D48CB8280B7170240D84B134517
:10289000F5FF798DC8CB828099C5371702401C4F50
:1028A0005D8D08CF8280B7170240984F1345F5FF22
:1028B000798D88CF828099C5371702405C4F5D8D36
:1028C00048CF8280B7170240D84F1345F5FF798D66
:1028D000C8CF8280035705008D679387070483D68E
:1028E00025007D8F83D70500D58F83D64500D58FF2
:1028F00083D66500D58F83D68500D58F83D6A50076
:10290000D58F83D6C500D58F83D6E500D58FD98FD7
:102910002310F5000357C501FD779387F77FF98FE3
:10292000231EF50083D705012318F5008280835705
:10293000050091C593E707042310F5008280C207C4
:10294000C18393F7F7FBC207C183FDB72316B50018
:1029500082800355C5008280035585006D8D333517
:10296000A00082808357050037370140130707C056
:10297000C207C1836304E502370700406300E50234
:1029800013070740630CE5003717004093060780E4
:102990006306D500130707C06317E50003D72500BA
:1029A00093F7F7F8D98F03D7650093F7F7CFC207EE
:1029B000C183D98F2310F50083D745002316F50274
:1029C00083D705002314F502B7370140938707C06A
:1029D0006316F50083C785002318F5028547231A7F
:1029E000F50082808357050091C593E717002310F7
:1029F000F5008280C207C183F99BC207C183C5BFAE
:102A00008357050091C593E707082310F5008280DE
:102A1000C207C18393F7F7F7C207C183FDB7835796
:102A2000050091C593E727002310F5008280C207B7
:102A3000C183F59BC207C183C5BF8357050091C5FC
:102A400093E747002310F5008280C207C183ED9B06
:102A5000C207C183C5BF2312B50282800355450258
:102A6000828093C5F5FFC205C1812318B50082801D
:102A7000EFD2FFAA83560501F577FD17F58F83D6B0
:102A8000650003D7C5007971D58F2318F5008356EB
:102A9000C500FD779387379FF58F83D645002A843D
:102AA0002EC6D58F83D68500D58F83D6A500D58F2A
:102AB0002316F50083574501C207C18393F7F7CF6B
:102AC000D98F231AF5006808EFF0DFCEB747014031
:102AD00093870780B245631DF404A2578356C40050
:102AE0006547B387E702C206C186984163D40604EE
:102AF00006070356C4004206B3D7E7021307400691
:102B00004186B3D6E702B3F7E702920663560602A0
:102B10008E0793872703B3D7E70213F77700B367CE
:102B2000D700C207C1832314F40045616FD07FA191
:102B300092576DB70A0775BF920793872703B3D7DC
:102B4000E702BD8BD58FF1BF81C98357C5000967E7
:102B5000D98F2316F50082800357C500F977FD173A
:102B6000F98FC5BF93F5F51F2312B5008280035579
:102B700045001375F51F8280035505006D8D3335B3
:102B8000A000828093C5F5FFC205C1812310B50066
:102B9000828013F7F50F85461583B397B60063134C
:102BA000D7020357C500F98F0357050001454207B7
:102BB000418381CB0545A181B315B5006D8F3335B8
:102BC000E000828089466315D70003570501E1BF05
:102BD00003574501C9BFEFD29F942A8411650111A3
:102BE00085451105EFF05FCB930700202312F1001C
:102BF000371501408D473EC44C00E1471305058061
:102C00003EC6EFF09FA722C837440140B70708002F
:102C10000C08130504803ECC02CA231E0100893D26
:102C20008545130504800D3705616FD09F91EFD264
:102C30007F8DB7440140AE8932890144938404807A
:102C4000634524014A856FD03F8F93050004268594
:102C5000253765DDB3878900838507002685050450
:102C6000C205C1810137E9BF1387C1801C43B73654
:102C70000020938686433E95636BD500B7560020AF
:102C80009386068063E5A60008C33E858280FD57D3
:102C9000EDBFEFD2DF851D7181450545EFF0FFBD2A
:102CA00081450945EFF07FBD81451145EFF0FFBC3F
:102CB000814513050004EFF05FBC81450565EFF029
:102CC000DFBB81450545EFF03FBD85451145EFF080
:102CD000BFBC85452145EFF03FBC85454145EFF040
:102CE000BFBB814513050020EFF01FBB81451305D5
:102CF0000040EFF07FBA856A13850A808145EFF0C6
:102D0000BFB985450565EFF03FB981450965EFF02D
:102D1000BFB881451165EFF03FB885450545EFF037
:102D20009FB981450945EFF01FB981451145EFF085
:102D30009FB881452145EFF01FB813850A80814572
:102D4000EFF07FB781451165EFF0FFB6814537059C
:102D50000200EFF05FB6814537050400EFF0BFB524
:102D6000854537050800EFF01FB581453705200080
:102D7000EFF07FB4814537054000EFF0DFB38145C8
:102D800037058000EFF03FB3814537050002EFF0D3
:102D90009FB2814537050008EFF0FFB18145370547
:102DA0000010EFF05FB1A5653146938505A80818BE
:102DB00037140140EF20A036930480040C1813054B
:102DC000048026DCEFF07F8B894861490C181305DD
:102DD00004802318110346CE4ADCEFF01F8A914786
:102DE0000C18130504802318F10226DCEFF0FF888D
:102DF00021480C18130504802318010342CC26DC5B
:102E0000EFF0BF87C1470C18130504802318F102A7
:102E100026DCEFF09F86130600020C1813050480D1
:102E20002318C10232CA4ADCEFF03F859306000442
:102E3000114A0C18130504802318D10236C852DC3D
:102E4000EFF0BF83130700080C1813050480231844
:102E5000E1023AC64ADCEFF05F82930700100C18DB
:102E6000130504802318F1023EC426DCEFF0FF8036
:102E7000930D00200C18130504804ADC2318B103BD
:102E8000EFF0AFFFC149130D00400C18130504808B
:102E90004EDC2318A103056BEFF02FFE130B0B8004
:102EA0000C181305048026DC23186103EFF0EFFCF7
:102EB0000C181305048026DC23185103EFF0EFFBF8
:102EC000896C0C181305048052DC23189103EFF071
:102ED000CFFA116C0C181305048052DC23188103FF
:102EE000EFF0AFF9E17B0C181305048026DC231802
:102EF0007103EFF08FF885452318B102130504C064
:102F00000C184ADCEFF06FF7F2480C18130504C0F8
:102F10002318110352DCEFF04FF60C18130504C010
:102F20004ADC23184103EFF04FF562480C181305F3
:102F300004C02318010352DCEFF02FF40C18130522
:102F400004C04ADC23183103EFF02FF352460C186B
:102F5000130504C02318C10226DCEFF00FF2C246AD
:102F60000C18130504C02318D10226DCEFF0EFF093
:102F700032470C18130504C02318E10226DCEFF0D9
:102F8000CFEFA2470C18130504C02318F10226DC6A
:102F9000EFF0AFEE0C18130504C04EDC2318B1039C
:102FA000EFF0AFED0C18130504C026DC2318A103C5
:102FB000EFF0AFEC0C18130504C026DC23186103F6
:102FC000EFF0AFEB0C18130504C026DC23185103F7
:102FD000EFF0AFEA0C18130504C026DC23189103A8
:102FE000EFF0AFE90C18130504C026DC23188103A9
:102FF000EFF0AFE80C18130504C026DC23187103AA
:10300000EFF0AFE70C18371501404EDC23189103A1
:10301000EFF0AFE60C18371501404EDC23188103A2
:10302000EFF0AFE50C18371501404EDC23187103A3
:10303000EFF0AFE4B7070401BEC6B7070002BECA8F
:1030400093078003BECCEC009D4737350140231E1B
:10305000F10482C8EFF01F88916537150140EFF049
:103060004FF3896537150140EFF02FF1854537356E
:103070000140EFF0DF8BB70710009387F7083ED2CF
:10308000B7770002938707534C10370500403ED4B2
:1030900023160102EFF01F8D854537050040EFF044
:1030A0003F96854537050040EFF03F998545370548
:1030B0000040EFF0DF96F167938707203754004018
:1030C00082C43EDE9307003082C22314F1046C18E0
:1030D000B147130504C02313F10482C0EFF05F99D8
:1030E000130504C08545EFF03FA6014525616FD06B
:1030F000CFC3B71702409843B706FFF841111367D3
:10310000170098C3D84337060200758FD8C3984379
:10311000B706F7FEFD16758F98C39843B706FCFFF8
:10312000FD16758F98C3D843B70681FFFD16758FBE
:10313000D8C337079F0098C702C402C69843C16628
:10314000558F98C3B716024005679C42F18F3EC663
:10315000A24785073EC4B24781E7A247E397E7FE4F
:10316000B71702409C431397E7006355070685474E
:103170003EC632478547631DF704B7170240D84360
:10318000B706C1FFFD16D8C3D843D8C3D843D8C3A8
:10319000D843758FD8C3D843B7063D00558FD8C3E1
:1031A0009843B7060001558F98C39843931667005C
:1031B000E3DD06FED843B7160240719BD8C3D8435F
:1031C00013672700D8C32147DC42B18BE39EE7FE9B
:1031D0004101828002C671BFB7160240DC4211462F
:1031E000B18B138701816385C70021466389C702BC
:1031F000B7177A00938707201CC3B7170240DC4338
:10320000918393F6F700B707002093870701B697DD
:1032100083C607001C43B3D7D7001CC38280DC429F
:10322000D4424166C983BD8BF18E890745466393BD
:10323000C700C94781EEB746024083A60680C18A0F
:1032400089CEB7167A009386062021A8B7160240C9
:10325000D4421396E600E35606FEB7163D00938669
:103260000690B387D70249BFEFD26FAB8545EFF029
:103270006F9F11C10D456FD0CFACEFD24FAA411156
:10328000A307A10085451305F100EFF0CF9811C108
:10329000094541016FD0EFAAEFD26FA8B945DD20F3
:1032A00001456FD00FAAEFD28FA741112A8429249C
:1032B000FD2401CD1305E400B945F92401452AC6D2
:1032C000252C324541016FD0CFA71145CDBFEFD29C
:1032D0000FA541112EC42AC6EFF06F9D32457D899E
:1032E00013650502EFF0AFA0A2452A842E85EFF00A
:1032F0000FA0EFF0CF9C228541016FD08FA4EFD2B9
:103300000FA241112E84B2842AC6EFF04F9A3245A3
:10331000A2947D8913650502EFF06F9D63179400F9
:10332000EFF0EF9941016FD0CFA105040345F4FF01
:10333000EFF0EF9BE5B7EFD28F9E41112AC6EFF079
:103340000F97324513650502EFF06F9A2AC6EFF02A
:103350000F97324541016FD0CF9EEFD24F9C411164
:103360002AC6EFF0CF9432457D89EFF04F981305D0
:10337000F00FEFF0CF972AC6EFF06F94324541017E
:103380006FD02F9CEFD2AF9913040002AA842E892C
:103390000D8CEFF0CF911305000A1374F40FEFF0CA
:1033A0000F952699639424039304F00F7D141374EE
:1033B000F40F63139402EFF08F90EFF04F911545E7
:1033C000EFD06FAEEFF0AF916FD0AF97850403C52C
:1033D000F4FFEFF0CF91F9B70145EFF04F91F9B756
:1033E000EFD2EF932A84AA8515462945EFF03FF1E5
:1033F0001546A2854145EFF09FF06FD08F94EFD234
:103400000F9215462D45EFF09FEF0945EFF0FFF4C1
:103410009365250093F5F50F0945EFF05FEB6FD04D
:103420004F92EFD2CF8F6D65130505DBEFF02F8F35
:103430009305F0051145EFF09FE91945EFF0FFF115
:103440009375750D1945EFF09FE89305F003054559
:10345000EFF0FFE78D450945EFF07FE74544DD4498
:1034600022850504930500021374F40FEFF03FE684
:10347000E31894FE8D450D45EFF07FE59305300789
:103480001545EFF0DFE4930500071D45EFF03FE43D
:103490001305200EEFF03FEA1305100EEFF0BFE921
:1034A000B9450145EFF0BFE237554C00130505B4AF
:1034B000EFF0EF866FD0EF88EFD26F860145EFF027
:1034C000DFE99365150093F5F50F0145EFF03FE057
:1034D000930500071D45EFF09FDFEFE05FFF094513
:1034E000EFF0BFE79375E50F0945EFF05FDE294583
:1034F000EFD06F9B6FD0EF84EFD26F82EFE03FFE93
:1035000013054006EFF0AF810145EFF01FE593751D
:10351000E50F0145EFF0BFDB0945EFF01FE49365D0
:10352000150093F5F50F0945EFF07FDA6FD06F8145
:10353000EFC25FFD13040002AA842E890D8CEFE018
:103540001FF713051006EFE09FFA1374F40FAA8912
:103550002699639E24019304F00F7D141374F40FD5
:10356000631F9400EFE0BFF54E856FC0FFFC1305AD
:10357000F00F8504EFE0BFF7A38FA4FED9BF1305BA
:10358000F00FEFE0DFF6D1BFEFC27FF9EFF05FFAA7
:10359000930500041D45EFF09FD36FC09FFAEFC263
:1035A0001FF85D45EFF07FDB1345F5FF05896FC020
:1035B0005FF9EFC2DFF6EFF0DFE637040020130516
:1035C00004021905EFF0DFE1930504020545EFF071
:1035D0001FE301456FC0FFF601A001A0EFC23FF15C
:1035E0001D71B79C0000379D000071468145C800E1
:1035F000EFC0FFF503AA0CBF83AA4CBF032B8DBFFE
:10360000832BCDBFA30F010002D802DA02DC02DE59
:103610002310010402D002D202D423160102B7946F
:103620000000379C0000C800EFF0FFC76316051CC0
:103630000305310541647D14EF104078B797000011
:1036400003A607BE83A647BEEF108003B79700000E
:1036500003A687BE83A6C7BEEF0010375286D68664
:10366000EF0090365A86DE860529EF10500D9357ED
:1036700005012A892319A10203054105231AF10234
:10368000EF10C07303A604BE83A644BEEF00507FB4
:1036900003268CBE8326CCBEEF00103303A60CBFDE
:1036A00083A64CBFEF00503203268DBF8326CDBFCB
:1036B000E526EF10D0083377850093570501AA8DD2
:1036C00003056105231BE102231CF102EF10006FCB
:1036D00003A604BE83A644BEEF00907A03268CBEE8
:1036E0008326CCBEEF00502E03A60CBF83A64CBF92
:1036F000EF00902D03268DBF8326CDBF712EEF10D6
:103700001004B377850041812310A10403055105FE
:10371000231FF102EF10806A03A604BE83A644BEF5
:10372000EF00107603268CBE8326CCBEEF00D02996
:1037300003A60CBF83A64CBFEF00102903268DBF44
:103740008326CDBF912EEF10807FB3778500231D98
:10375000F1028347910537970000832947BDA308ED
:10376000F102834721054181231EA102CE854A85AE
:103770002308F102EF10806B37970000CE8763407B
:10378000A002B797000083A787BD4A85BE853EC6C5
:10379000EF1020723797000063590500B2477D8C07
:1037A000C18323198102231AF102032447BD6E85C8
:1037B000A285EF10A0676358A000231B81024180FF
:1037C000231C810219A8B797000003A487BD6E854A
:1037D000A285EF10006EE34205FEB707002003A6A6
:1037E00087290C180145EFC01FE6B707002003A585
:1037F000872A8145EFC01FEEB707002003A6C7291F
:103800009306F1010C100145EFC09FE609E9394626
:103810000C10C800EF10B010C800EFF0FFA705456E
:10382000EFC07FE809B5EFC29FCFB7370020373729
:1038300000209387474113074742D8C33947239550
:10384000E7002386070023870700EFF09F8AEFF049
:10385000BF980945EFE07FF5EFF0AFC3EFF07FD5FC
:103860007165130505200964EFF0EFB613040471C8
:103870002285EFC03FE4EDBFEFC27FCA37050020CD
:103880001304652913056529EFF01F9E05EDB73771
:1038900000209387474103C7C7008345040013777F
:1038A000F70F1DE31307A00A639EE5000547238673
:1038B000E700DC43B7060020239AE6281307A0FAA6
:1038C0002380E7006FC0FFC7B70600209386462914
:1038D00003D70600D0433A96050742072300B600F7
:1038E00041832390E60083D6A700E39DE6FC0547CD
:1038F0002387E700C1BFEFC21FC00111373400208A
:10390000930744411309C100494702C602C802CACD
:1039100002CC231E0100A305010023A0270123944C
:10392000E70013044441B70A0020373A0020B709E2
:103930000020370B002003268B299306B100CA858F
:103940000145EFC0FFD2930B8B298347B10091C390
:1039500041C5EFF07FF28347E400F1DF03A6CA29F7
:1039600093054A421305803EEFC0FFCD03A5C92A47
:103970008145EFC03FD6230604002307040055BF4E
:103980001C40A69703C50700EFF03F8F19ED850493
:1039900083578400E3E6F4FE03A60B009306B10010
:1039A000CA850145EFC0DFCC4DB7EFF0FFEC834790
:1039B000E400F9DF03A6CA2993054A421305803EB5
:1039C000EFC07FC803A5C92A8145EFC0BFD0230639
:1039D0000400230704006DBF81445DBFEFC23FB404
:1039E000370600201306062AB9452945EFC09FC3B4
:1039F000370600201306462A85452945EFC09FC299
:103A00003706002013068629C9452945EFC09FC106
:103A1000370600201306C629B9452945EFC09FC0C7
:103A200037070020B7950000373500001307C72A75
:103A30008D4613060010938505C01305C55DEFC0C4
:103A40009FBB37070020B7950000374500001307DC
:103A5000072B914613060010938545C11305658217
:103A6000EFC07FB937070020B79500003745000049
:103A70001307872A894613060010938505C213058C
:103A8000658FEFC05FB7EFC03FB9379400001305F3
:103A900044C3EF208025E5BF3708100001117D18D1
:103AA0003377B80026CA3378D80093D4450113D3AE
:103AB0004601131E37004EC61357D5010E08935703
:103AC000D60193F4F47F1373F37F06CE22CC4AC859
:103AD00093D9F50193DEF6013367C701131F350053
:103AE00033E80701931F3600338E64406380D91991
:103AF0006356C0136304031CB70680009307F07F6E
:103B00003368D800638FF4369307800363C0C735EA
:103B1000FD4763CDC747130500023305C541B3D741
:103B2000CF01B316A8003399AF00DD8E33392001E1
:103B3000B357C80133E926011D8F33092F41B3372D
:103B40002F013306F7409317860063D40724370705
:103B500080007D173374E600630C042C2285EF107F
:103B6000A054130785FF93070002998FB357F900FC
:103B70003316E400D18F3319E9006341972A3305E6
:103B80009740130615007D47634DC73813070002A1
:103B9000118FB356C9003319E9003397E700558FE9
:103BA000333920013369270133D6C7008144937725
:103BB000790081CF1377F90091476308F700130765
:103BC0004900333927014A963A899317860063D60C
:103BD000071C138514009307F07FCE856304F5203E
:103BE000B70780FFFD17F18F9398D701135939005C
:103BF000A607B3E82801B1831375F57F9396C70034
:103C00005205F2406244B182FE05C98ECD8ED24487
:103C10004249B2494685B68505618280631E0E0A17
:103C2000138314001373E37F63170322B367E70161
:103C3000B368F801639D041A6387074063860844EC
:103C40003309FF41B307074133362F013386C7409D
:103C50009317860063D6074C3389EF41B307E840DA
:103C600033B62F013386C740F68991B76350C00F32
:103C70006300030CB70680009307F07F3368D80019
:103C8000638AF43A9307800363CBC713FD4763DF6E
:103C9000C73513090EFE93070002B3562801630AC5
:103CA000FE00130900043309C94133192801B3EF99
:103CB0002F013339F0013369D90031A2B367F8011C
:103CC000638A071C9307FEFF638C07389306F07F17
:103CD0006309DE1A3E8E0DBDB30593406391042245
:103CE000B367E701638707329387F5FF6381074472
:103CF0009306F07F638CD520BE859307800363CC49
:103D0000B72AFD4763CFB73C930700028D8F331965
:103D1000F700B356BF00B317FF003369D900B337BC
:103D2000F0003357B7003369F9003308E84041AC7D
:103D3000B367F801638007349307FEFF638A0720A7
:103D40009306F07F6308DE2E3E8E2DBF631E0E1499
:103D50009386140093F7E67F63910734B367E70116
:103D60006395042C6380073EB367F801638E0730C8
:103D70003309FF01B3070701333FE9013386E70148
:103D80009317860063D70700B70780FFFD177D8E66
:103D9000854493777900E39F07E09317D601935802
:103DA0003900B3E8F800935736001307F07F638DAE
:103DB000E404B207B18313F5F47FCE8581B533698E
:103DC000F801333920017A99B337E9013386E700E6
:103DD00093178600E3DF07FA85049307F07F639665
:103DE000F418CE851305F07F8147814801BDC1EBF2
:103DF0006384083A931636009317D8018D82B3E88E
:103E0000D700F68993573800B3E7F800F9DB81450E
:103E10001305F07FB70708008148CDB3370680FF50
:103E20007D167D8E93777900998CE39507D8B5B789
:103E30004A85EF10602713078501FD47E3D5E7D2D8
:103E4000130685FFB317C900014905BB3369F801A3
:103E500033392001DDB13309FF41330607413334E3
:103E60002F01330486409317840063CD0724B36881
:103E70008900E39308CE8147814981441DBFE398BF
:103E800008F80E059317D7010D81B3E8A7009357E3
:103E900037009DBF0E059317D7010D81B3E8A7002A
:103EA000F2849357370011B73305934063820412AD
:103EB000B70680009307F07F558F630DF32E9307AD
:103EC000800363CBA720FD4763C3A72A93070002A3
:103ED000898F3319F700B356AF00B317FF0033696A
:103EE000D900B337F0003357A7003369F9003A9887
:103EF0007E99B337F901338607019A84D1BDB7069D
:103F000080009307F07F558FE319F3DE9317360097
:103F10008D839318D801B3E81701F68993573800B9
:103F2000E5B5130715FE9306000233D7E700630AD1
:103F3000D600930600043386C6403396C700336923
:103F4000C900333920013369E9000146814491B544
:103F50003309FF01B30707013336E9013E96931792
:103F600086008544E3D707E28944B70780FFFD1741
:103F7000F18F1357190013791900336927019398AA
:103F8000F70133E9280113D6170015B113090EFE06
:103F900093070002B3562801630AFE0013090004C8
:103FA0003309C94133192801B3EF2F013339F00127
:103FB0003369D90059B63369E701333920013389B0
:103FC0002F41B3B72F013306F8409A84F689A5BE76
:103FD000B367E701638207189307F5FF6384071C43
:103FE0009306F07F6304D5123E85D1BD930700028E
:103FF000B387C741B316F8003399FF0033D6CF011A
:10400000D18E33392001B357C80133E926013E97D9
:104010005DBB931736008D839318D801B3E8170161
:10402000AE8493573800F68949B3EDC33369F8017C
:10403000E31F09DC0E059317D7010D81B368F50066
:1040400093573700D1B36381080E93163600931748
:10405000D8018D82B3E8D700F6899357380091BB19
:104060003309FF41B3070741333F2F013386E7414F
:104070008544D1BC0E059317D7010D81B368F500B7
:10408000F2849357370015B30E059317D7010D81AE
:10409000B3E8A7009357370029BB9307F07FE3826B
:1040A000F6D43309FF013336E901B3070701B297AC
:1040B0009398F7011359190033E9280113D6170013
:1040C000B684C1B93389EF413307E84033B62F01D5
:1040D0003304C740F68949B43369E7013339200115
:1040E00001BD938705FE93060002B357F700638A6C
:1040F000D50093060004B385B6403317B700336F7D
:10410000EF003339E0013369F90055BD93173600EC
:104110008D839318D801B3E8170193573800EDB198
:10412000B368C900E39708C68147814959B133890B
:10413000EF41B307E84033B62F013386C740F68915
:10414000854411B4931636009317D8018D82B3E8D5
:10415000D70093573800B1B9931636009317D8019A
:104160008D82B3E8D700AA84935738003DB99307EE
:1041700005FE93060002B357F700630AD5009306C5
:1041800000043385A6403317A700336FEF0033399F
:10419000E0013369F900A9BB81451305F07FB7073A
:1041A0000800A9BC3309FF01B30707013336F90141
:1041B0003E9675B3931636009317D8018D82B3E8F7
:1041C000D7009357380089B139714AD813D94501BE
:1041D0004ED652D456D29399C50006DE22DC26DA9A
:1041E0005AD05ECE1379F97F2A8A93D9C90093DA1F
:1041F000F501630D090E9307F07F6306F918135458
:10420000D5018E09B36934013704800033E4890095
:1042100093143500130919C08149814B13D7460106
:10422000139AC6001377F77FB285135ACA0013DBBF
:10423000F601630B07109307F07F6303F7049357AE
:10424000D6010E0A33EA4701130717C0B7078000EB
:10425000B367FA00931536003A99814833C76A016B
:10426000BD463A851308190063E836171756000053
:104270001306069E8A09B29983A60900B296828621
:10428000B367CA001309F97F6399071293E92900FC
:1042900081458948E1B701479307F07F370408005B
:1042A00081443204D20731807E075D8C598CA2850F
:1042B000F250625426854259D254B259225A925A27
:1042C000025BF24B216182805A853E84AE84C68BAC
:1042D0008947638DFB0E8D47E38FFBFA85472A875D
:1042E000639EFB3881470144814465BF33E4A900E4
:1042F00061C036C632C4638C092A4E85EF00D05A9D
:104300002246B246AA87130755FF7544938487FF58
:10431000198CB399990033548A0033643401B3146F
:104320009A0013D746011309D0C0139AC600137719
:10433000F77F3309F9408149814BB285135ACA008E
:1043400013DBF601E31907EEB367CA00B1C7630FC9
:104350000A22528532C4EF00305522462A8793063E
:1043600055FFF547930587FF958F331ABA00B3576A
:10437000F600B3E74701B315B6003309E940130966
:10438000D9C08148E1BD33E4A90001ECA1498144D1
:104390001309F07F894B59B593E919008145854888
:1043A00075BD4E84AA84B1491309F07F8D4BBDB50C
:1043B000914981440149854B95B593E93900D287EC
:1043C0008D4869BD89475685E397FBF02A87930797
:1043D000F07F01448144F1B5C16E1386FEFF93D690
:1043E000040113DE0501F18CF18D338695023383D0
:1043F000B6029358060133059E021A95AA98B38215
:10440000C60363F36800F692C16F1383FFFF33F5B1
:10441000670093D30701B3F76800C20733736600E0
:104420003E933306950293D80801B387A602135F23
:104430000601B3849302BE94FA94B38E760263F3BA
:10444000F400FE9E416A9307FAFF935F0401B3767E
:10445000F400B3F9F4007D8EC1803384D502C20923
:10446000338FD401B299CE98B307DE02935E040174
:10447000B385BF02AE97BE9E330EFE0363F3BE004C
:10448000529EC1679385F7FF33F6BE006D8C4206DE
:10449000229693DE0E01B305D502769E3385AF02D8
:1044A00013D40501B386D302AA96A296B38FF30361
:1044B00063F3A600BE9F41657D15B3F7A600C20752
:1044C0006D8DAA97B3855800B3B93501FA97B295A7
:1044D0003384370133B6C500B30EC4013385CE0033
:1044E00033343401B3B7E701C18F33BECE0113D4E7
:1044F00006013336C5003E943366CE009394950092
:1045000032947E94B3E46400260493567501B33468
:104510009000DD8193179500CD8C558CDD8C931721
:10452000740063DB070093D7140085889316F401A9
:10453000DD8CD58C058042899307F93F6359F008DB
:1045400093F6740081CE93F6F40011466388C6009A
:1045500093864400B3B496002694B68493167400F0
:1045600063D80600B70700FFFD177D8C930709404D
:104570009306E07F63CFF60E93D634009314D401F4
:104580002604D58C318093F7F77F21BB328532C466
:10459000EF00903193065501F147130705022246BB
:1045A000E3D1D7DC6115B317A6008145F9B3EF005D
:1045B000B02F13075501F145930705022246B24675
:1045C000E3D5E5D461153314AA00814499BB85462F
:1045D0009D8EB1E71309E941B3972401B3D4D40008
:1045E00033192401B337F000B3649900DD8C93F7DD
:1045F0007400B356D40081CF93F7F400114663885A
:10460000C70093874400B3B49700A696BE849397DF
:10461000860063D8070485470144814459B11306D5
:104620008003E341D6CC7D46E356D6FA0556B30760
:10463000F640930500023356F4006387B600130971
:10464000E943B3172401DD8CB3349000D18C93F689
:104650007400014499CA93F7F40011468146E3922D
:10466000C7FA139496003180F6068D80D58C814769
:104670000DB99307F07F0144814425B142896DBD96
:10468000370710007D1701113373B70093D8460127
:10469000758F935ED60122CC26CA0E0393D44501B2
:1046A0009357D5010E0706CE4AC84EC693F8F87F39
:1046B000130EF07F33E7EE0093F4F47F13D4F5018B
:1046C00033E36700131F3500FD82931E36006380BD
:1046D000C81993C61600B38514416305D4126351FB
:1046E000B018638B081AB70780005D8F6380C459C8
:1046F0009307800363C3B734FD4763C4B748930788
:1047000000028D8FB3D9BE003318F700B39EFE00B0
:10471000336838013357B700B339D00133683801F3
:104720003303E340B3090F41B3373F013306F3408E
:104730009317860063D30724370980007D193379E6
:104740002601630F092C4A85EF001016130785FF19
:1047500093070002998FB3D7F9003316E900D18F80
:10476000B399E9006344972A058F13061700FD46A5
:1047700063C4C63A13070002118FB3D6C900339839
:10478000E9003397E700558F33380001B36907011B
:1047900033D6C700814493F7790081CF93F6F900AF
:1047A00091476388F6009386490033B836014296F4
:1047B000B6899317860063D6071C138714009307E6
:1047C000F07F05886306F720B70780FFFD17F18F9C
:1047D0001398D70193D93900A60733683801B183FC
:1047E0001377F77F9396C7005207B1827E04D98E64
:1047F000C18EF2406244D2444249B2494285B685F4
:10480000056182806356B00A638A0812B707800088
:104810005D8F6386C42D9307800363C7B718FD4778
:1048200063D1B73C138805FE93070002B359070113
:10483000638AF50093070004B385B7403317B700C8
:10484000B3EEEE003338D0013368380195A2B36778
:10485000D7019385148099E393C61600630AD404A4
:10486000D1E19387140093F7E77F6398071EB3673E
:10487000E3013368D701639204166381073C631533
:104880000842131835009316D3011358380033E843
:1048900006019357330019A2B367D7016384071A3F
:1048A0009387F5FF638A073A638BC523BE8589B575
:1048B0006398051C9386140093F7E67FC1EFB367F6
:1048C000E301639F0434638C0744B367D7016393A8
:1048D00007460E051318D3010D813368A8009357BE
:1048E00033006DA8B385984063960420B367E30155
:1048F000638C07309387F5FF638807401305F07FCB
:104900006382A520BE859307800363C1B72AFD4754
:1049100063C7B73C930700028D8F3318F3003356FB
:10492000BF00B317FF003368C800B339F00033533A
:10493000B3003368380133076740ADACB367D701C4
:10494000638207109387F5FF638E071E638FC52D63
:10495000BE85D1B59307F07F638BF606FA9E33B61A
:10496000EE01B307E300B2971398F70193DE1E0040
:10497000B369D80113D61700B68493F77900E39F83
:1049800007E09317D60113D839003368F800A685DD
:10499000935736001307F07F6380E506B207B183B3
:1049A00013F7F57F05883DBD3367D7013338E00045
:1049B000B309E801B3B7E9013386670093178600AE
:1049C000E3DD07FA85049307F07F639BF4180588FD
:1049D0001307F07F8147014831B5639007106300EA
:1049E000083C131836009317D70113583800336862
:1049F000F800368493573700B367F800E9DB0144C9
:104A00001307F07FB70708000148E9BB370680FFAE
:104A10007D167D8E93F77900998CE39107D895B731
:104A20004E85592513078501FD47E3D3E7D21306C9
:104A300085FFB397C900814935B33368D70133384F
:104A40000001CDB1131835009317D3011358380066
:104A50003368F8009357330035BFB309DF4133099A
:104A6000E34033363F013309C9409317890063CAD5
:104A7000072033E82901E31608CC8147014439BFF8
:104A8000B385984063810414B70680009307F07FD4
:104A90003363D3006381F8209307800363CCB7228C
:104AA000FD4763C9B72C930700028D8F3318F300BD
:104AB000B356BF00B317FF003368D800B339F00016
:104AC0003353B300336838011A97B309D801B3B729
:104AD000D9013386E700C684D5B5E31208F213186E
:104AE00035009317D301135838003368F8009357F3
:104AF000330019B7370580009307F07F3363A300B5
:104B0000E393F8E00E061318D7010D823368C8004E
:104B1000935737003684CDB505179306000233D777
:104B2000E700630AD600930600043386C640339636
:104B3000C700B3E9C90033383001B369E800014662
:104B4000814425BDB309DF01B307E30033BFE901A9
:104B50003386E701931786008544E3D007E2894452
:104B6000B70780FFFD17F18F13D7190013F819004D
:104B7000336807019399F701B3E9090113D61700C8
:104B800019B9138805FE93070002B3590701638A18
:104B9000F50093070004B385B7403317B700B3EEB1
:104BA000EE003338D00133683801ADBE3363E30122
:104BB00033386000B3890E41B3B73E013306F74086
:104BC000C6843684B5B6B367E30163870718938755
:104BD000F5FF638C071C9306F07F638ED50ABE85B4
:104BE00065BD930700028D8FB3D9BE003318F7005F
:104BF000B39EFE00336838013357B700B339D00194
:104C0000336838013A936DB3131836009317D70100
:104C10001358380033E807013684935737009DBB9B
:104C2000BDCB3367D701E31C07DC0E051318D30196
:104C30000D813368A800935733007DBBE30F08E272
:104C4000131836009317D701135838003368F8004B
:104C500036849357370099B3B309DF41B307E34074
:104C6000333F3F013386E7418544D9B413183500FB
:104C70009316D3011358380033E8060193573300D5
:104C8000A5BBB389EE413306674033B93E01330912
:104C9000264136847DB40E061318D7010D82336881
:104CA000C8009357370089BBB309DF41B307E3401E
:104CB00033363F013386C7409317860063D7070A10
:104CC000B389EE41B3076740B3BE3E013386D74197
:104CD0003684D1B43363E30133386000FDB3138805
:104CE00005FE93070002B3590301638AF500930799
:104CF0000004B385B7403313B300336F6F0033380C
:104D0000E001336838017DB5B389EE41B3076740F0
:104D1000B3BE3E013386D7413684854411BC131897
:104D200036009317D701135838003368F8009357AB
:104D30003700ADB1B309DF01B307E30033BFE901C9
:104D40003386E70193178600E3D907C2B70780FFD0
:104D5000FD177D8E854415B10E061318D7010D82FF
:104D60003368C8009357370035B133E8C900E3060C
:104D700008D021B1138805FE93070002B35903013F
:104D8000638AF50093070004B385B7403313B3007B
:104D9000336F6F003338E001336838013DB30144AD
:104DA0001307F07FB707080035BCB309DF01B3076D
:104DB000E300B3BED9013386D70169BB411106C6F2
:104DC00022C426C205CD9357F541B3C4A7009D8CDC
:104DD0002A842685D12C9306E041898EA9477D80BF
:104DE00093F6F67F63CDA7022D47098FB3D7E40072
:104DF0005505B207B394A400B18329A001448146AC
:104E000081478144B207D206B1837E04D58FC18F1A
:104E1000B24022442685BE859244410182805515C8
:104E2000B397A400B207B1838144E9BF93567501DB
:104E3000B7078000FD1713D6750193F6F60F130818
:104E4000F00FB3F8A7001357F501ED8F1376F60FA7
:104E5000FD8163810603630C06018DE211E2B1C39B
:104E6000638E08026305B70405451DE78280F5D708
:104E700079558280E39E08FE6309D60211E2EDD7E0
:104E8000E314B7FEE342D6FE63C7C600E3EE17FDA8
:104E90000145E3FDF8FC01E77D558280F5DD054520
:104EA00082800145E39208FC8280F9DBD1B781461C
:104EB000E1BF93567501B7078000FD1713D6750142
:104EC00093F6F60F1308F00FB3F8A7001357F50188
:104ED000ED8F1376F60FFD816387060363090601E4
:104EE00085EA11EA89EB0145639B08008280094548
:104EF000F5FFE5DA31A8638C08026300B7040545C5
:104F000075D77D5582800945639808026304D602EF
:104F100011E2F5D7E315B7FEE343D6FE63C7C6003B
:104F2000E3EF17FD0145E3F3F8FC19E3D9BFF1D92D
:104F300005458280E5D3828082808146C5B793D6BD
:104F400045019397C50093F6F67FB183138616004B
:104F50008E071357D5011376E67FFD815D8F931879
:104F6000350035CE138806C89307E00F63DD0701CF
:104F70008147139597009306F00FDE062581FE0505
:104F8000558D4D8D82806355000B931765000E077C
:104F9000B337F000D98F93D8D801B3E7170113F7CF
:104FA00077006301071013F7F70091466303D700FA
:104FB0009107370700047D8F75C713071800130684
:104FC000F00F9376F70FE305C7FA9A07A5831395B9
:104FD0009700DE062581FE05558D4D8D8280B367D5
:104FE000170199EE85CF95479A07A58313959700EA
:104FF00093F6F60FDE062581FE05558D4D8D8280D8
:10500000A5DBB7074000139597009306F00FDE0667
:1050100081452581FE05558D4D8D828081471395F3
:1050200097008146DE062581FE05558D4D8D8280D7
:10503000A5576348F804F94737068000B38707414E
:105040007D45598E6351F5047957330707411305A0
:1050500000023357E6006388A700938626CAB3167A
:10506000D600B3E8D800B3371001D98F13F7770013
:10507000014815FB139757008546E34807F481461E
:10508000A5B781468DB7938626C83397D8003337A6
:10509000E000B316D600B3D8F800B367D700B3E783
:1050A000F800E9B7C28689B7C167637EF502930746
:1050B000F00F1307000263ECA700974700009387E7
:1050C00027BDAA9703C507003305A7408280218129
:1050D000974700009387C7BBAA9703C5070061479E
:1050E0003305A7408280B7070001636EF500618138
:1050F000974700009387C7B9AA9703C507002147C0
:105100003305A7408280418197470000938747B8C5
:10511000AA9703C5070041473305A7408280B3C75C
:10512000A5008D8B3307C50081E78D4763EEC7006F
:10513000AA876370E50A83C6050085078505A38FE6
:10514000D7FEE3EAE7FE828093763500AA8791CA0C
:1051500083C6050085078505A38FD7FE93F6370024
:10516000FDB79376C7FF138606FE63F0C70683A3D9
:10517000050083A2450083AF850003AFC50083AE61
:10518000050103AE450103A3850183A8C5019385ED
:10519000450223A0770003A8C5FF23A2570023A43C
:1051A000F70123A6E70123A8D70123AAC70123AC4F
:1051B000670023AE17019387470223AE07FF75B739
:1051C00090419107910523AEC7FEE3EBD7FEE3E4E0
:1051D000E7F68280797122D44AD052CC56CA5AC896
:1051E00006D626D24ECE3A8AAE8A32843689428B91
:1051F000014763580600370700803344C700130790
:10520000D0022380E70093F4F8FD930760048D46F5
:105210006388F4009307500489466393F4000509FA
:10522000DA879308C100130881004A87D685228651
:10523000EF00B05E93077004AA896396F400137AB6
:105240001A00630A0A0493076004338A29016397EA
:10525000F40203C7090093070003631EF700014629
:1052600081465685A285EF30202D11C585473389AB
:10527000274123202B0183270B003E9A01468146BC
:105280005685A285EF30402B11E152C6130700036B
:10529000B24763E24703B2474257B2502254B38742
:1052A00037411CC34E8592540259F249624AD24A90
:1052B000424B456182809386170036C62380E70003
:1052C000C1BF2300C500130725009307B00263D6B2
:1052D0000500B305B0409307D002A300F500A54731
:1052E00063DAB70441119307F100BE88294813031C
:1052F0003006B3E605031386F7FF93860603A38FF4
:10530000D7FEB3C60503634DB30093860603F917B2
:10531000A30FD6FE63E917013305A7404101828040
:10532000B287B685F9B7850783C6F7FF0507A30FD0
:10533000D7FECDB7930700031307450093850503F8
:105340002301F500A301B5003305A7408280197140
:105350003ACE86DEA2DCA6DA2E84CAD8CED6D2D445
:10536000B689DAD0DECEE2CC3289D6D2E6CAEAC835
:10537000EEC6AA84EF10D049832B05005E85EF00AE
:105380009017032B0400724702DC93760B102A8CD3
:10539000034A84011C43F1CA9386470014C39C430B
:1053A000081098433AD0D8433AD298473AD4DC47C9
:1053B0003ED6EF30004628C46CC4832CC404174783
:1053C00000001307279D832A8404032D0700832DE3
:1053D000470093971C0085836A86EE865685BE85B6
:1053E0003ECEEF30403241EDF2476A86EE8656857A
:1053F000BE85EF30E0256354A008014681465685FE
:10540000E685EF30E024635605009307D002A30140
:10541000F40493077004974A0000938A2A9863F66D
:105420004701974A0000938AAA97137BBBFF8D47D9
:10543000232064011CC8014B4E87CA867018A285C0
:105440002685C12EFD5C631E95157D55F65066546C
:10545000D6544659B659265A965A065BF64B664CB0
:10546000D64C464DB64D096182809D07E19B9386DF
:10547000870014C39843DC4338C47CC43DBF5686C0
:10548000E6865685E685EF30002811CD9307700437
:10549000974A0000938A0A91E3F947F9974A000076
:1054A000938A8A9059B75C407D57137DFA0D6395B6
:1054B000E70899475CC0544013670B403C18D685F9
:1054C0003EC018C09307310302C2D28813084103BB
:1054D00066862685EFF01FD093077004AA8AD255FE
:1054E000631BFD00F55763C5F5005C4063D8B70842
:1054F000791A137AFA0F9307500663E64705FD15EC
:105500005286130504052EDAEFF0BFDB625785469D
:105510002A8BB307A7001CC863C5E6001840058B9B
:1055200019C385071CC883473103E38707F0930736
:10553000D002A301F40409B713077004E31DEDF6CC
:10554000BDFB854785BF93076006631BFA025C407D
:10555000635BB0000CC881E71840058B09CF850755
:10556000AE971CC809A889E718408546058B19C362
:105570009386270014C82CCC014B75B7130A70060C
:10558000E25763C9F5001C400CC8858BEDD79387A3
:105590001500C1BF05476344B00009470D8FBA9796
:1055A000C9B71C4013F7074015E314485686CA854F
:1055B00026858299E30B95E91C40898B6396072425
:1055C000F2574844E354F5E83E8549B513075006C1
:1055D000637B471928446C4401468146EF20D0750F
:1055E00039E98546173600001306467CCA852685AC
:1055F0008299E30C95E55257E2576345F7001C404A
:10560000858BDDDBE2865E86CA8526858299FD571D
:10561000E30DF5E2014A930AA4017D5BE257FD1711
:10562000E35CFAF885465686CA8526858299E30E9C
:1056300065E1050AE5B7D2576346F0068546173699
:1056400000001306A676CA8526858299E30F95DFAA
:10565000D2576257D98F81E71C40858BB1DFE28634
:105660005E86CA8526858299FD57E300F5DE014AEC
:10567000130BA401FD5BD257B307F040634BFA0054
:10568000E2565686CA8526858299FD57E316F5F2BD
:105690006DBB85465A86CA8526858299E30775DBE8
:1056A000050AD1BF3C4C625A63D347013E8A635A14
:1056B0004001D2865686CA8526858299FD57E30623
:1056C000F5D8814C130DA401FD5D09A885466A86B5
:1056D000CA8526858299E30AB5D7850C032B8405F4
:1056E000D28763530A008147B307FB40E3C0FCFE47
:1056F0005257E257634DF7021C40858B8DEBE25702
:105700005257338AE7406344EB00338A6741635B57
:105710004001D28633866A01CA8526858299FD5763
:10572000E305F5D2814A130BA401FD5B15A0E286C7
:105730005E86CA8526858299FD57E312F5FC31B352
:1057400085465A86CA8526858299E30075D1850AE1
:105750005257E257998F528763530A000147998F36
:10576000E3C0FAFE91BDE25605476344D700858B3E
:10577000B5C785465686CA85268582997D5AE30631
:1057800045CDE2865E86CA8526858299E30F45CBA4
:1057900028446C4401468146EF20105A1DC9E25648
:1057A00013861A00CA85FD1626858299E30F45C91E
:1057B000DA8613060405F9B585465686CA85268518
:1057C0008299E30475C9050AE257FD17E346FAFE1C
:1057D000C5B7014A930AA401FD5BFDB7854656860D
:1057E000CA8526858299E31595FD85B1854656863D
:1057F000CA8526858299E30A65C5050A5C44725705
:10580000998FE345FAFE6DBB014A930A94017D5BD3
:10581000F5B7797156CA9C49BA8A984522D426D2DE
:105820004ECE52CC06D64AD05AC85EC6AA892E841D
:10583000B284368A63D3E700BA879CC00347340436
:1058400019C385079CC01C4093F7070281C79C4081
:1058500089079CC00329040013796900631A0900B1
:10586000130B9401FD5B5C449840998F634CF904E1
:105870001C408346340493F70702B336D000A5EBEF
:1058800013063404D2854E85829AFD576303F504CE
:105890001C4011469840998B544481446397C7003B
:1058A000B384E64063D3040081441C441848635425
:1058B000F700998FBE94014969047D5B63982405C4
:1058C000014509A885465A86D2854E85829A631E6F
:1058D00075017D55B250225492540259F249624AE0
:1058E000D24A424BB24B456182800509ADBF3307B6
:1058F000D40013060003A301C7040347540493878D
:105900001600A2978906A381E7049DBF85462286DB
:10591000D2854E85829AE30E65FB050945B77971FC
:1059200022D426D24AD04ECE06D652CC56CA5AC817
:10593000B68983C68501930790063289AA842E848E
:1059400013863504638DF60263E2D706930780055C
:105950006389F61863EDD70063820622930730044B
:10596000638FF60A930A24042301D404D1A0930779
:1059700030066386F60A93074006E395F6FE1C4060
:10598000084393F6070893054500CDC61C410CC398
:1059900063D807001307D002B307F040A301E40463
:1059A000973600009386C640294775A893070007DD
:1059B0006385F61663E5D7029307E006638CF61855
:1059C0009307F006E390F6FA0C401C4313F8050821
:1059D000138547006308080608C39C4395A89307EE
:1059E0005007E383F6FE93078007638CF612930754
:1059F0003007E399F6F61C43D04181459386470072
:105A000014C383AA07005685EF10807201C53305C1
:105A1000554148C05C401CC8A301040471A81C4344
:105A2000930A2404938647009C4314C32301F4047F
:105A30008547D5B793F607041C410CC3B1DAC207FA
:105A4000C187B9B793F5050408C3C1D983D7070047
:105A50001307F0066388E60E9736000093864635F6
:105A60002947A30104044C400CC463C50500084049
:105A70006D9908C099E3B28A91CDB28AB3F5E70275
:105A8000FD1AB69583C505002380BA00B3D5E70299
:105A900063F0E70CA147631EF7001C40858B91CB98
:105AA00058401C4863C7E70093070003A38FFAFE22
:105AB000FD1A3306564110C84E87CA867000A2856B
:105AC0002685EFF01FD57D5A631E450B7D55B250DC
:105AD000225492540259F249624AD24A424B4561D9
:105AE0008280A382D504973600009386662C0C40F2
:105AF000084313F805081C411105630D080208C38B
:105B000013F7150001C793E505020CC04147B1FB2F
:105B10000C4093F5F5FD0CC0A9B79C4193E7070233
:105B20009CC193078007A302F40497360000938674
:105B3000662975BF13F8050408C3E30308FCC20710
:105B4000C1837DBF9736000093868626214711BF0B
:105B5000AE872DB794411C43CC4913F80608138532
:105B600047006306080008C39C438CC301A808C310
:105B700093F606049C43F5DA2390B700232804002B
:105B8000B28A1DBF14485686CA8526858299E30FBE
:105B900045F31C40898B8DE7B2474844E359F5F241
