:100000006F20605113000000130000001300000077
:100010001300000013000000130000001300000094
:100020001300000013000000130000001300000084
:08003000130000007300100032
:100038000000000000000000223000002430000012
:1000480000000000AE2400000000000000000000D6
:10005800B0240000B22400000000000000000000EE
:10006800420A00000000000000020000000000003A
:10007800B8240000BA240000BC240000BE240000FC
:10008800C0240000C2240000C4240000C6240000CC
:10009800C8240000CA240000CC240000CE2400009C
:1000A800D0240000D2240000D4240000D62400006C
:1000B800D8240000DA240000DC240000DE2400003C
:1000C800E0240000E2240000E4240000E62400000C
:1000D800E8240000EA240000EC240000EE240000DC
:1000E800F0240000F2240000F4240000F6240000AC
:1000F800F8240000FA240000FC240000FE2400007C
:100108000025000002250000042500000625000047
:10011800082500000A2500000C2500000E25000017
:1001280010250000F0230000142500000000000046
:080138000000000000000000BF
:10020000130181F806C216C41AC61EC822CA26CC1B
:100210002ACE2ED032D236D43AD63ED842DA46DC76
:100220004ADECEC0D2C2D6C4DAC6DEC8E2CAE6CC46
:10023000EACEEED0F2D2F6D4FAD6FED8F3220030CF
:1002400096DA9702002083A2E2FE23A02200F32583
:1002500010342EC003A18181EF10406D17030020E0
:10026000032343FD03210300824273901234D652CC
:10027000739002309240A2423243C2435244E2445D
:10028000724582551256A2563257C2575258E258FA
:1002900072598649164AA64A364BC64B564CE64C0E
:1002A000764D865D165EA65E365FC65F13018107DA
:1002B0007300203013000000130000001300000042
:1002C00013000000130000001300000013000000E2
:1002D00013000000130000001300000013000000D2
:1002E00013000000130000001300000013000000C2
:1002F00013000000130000001300000013000000B2
:1003000083A28181938202E073900234170100205E
:10031000032141F2024182403243C2435244E2444B
:10032000724582551256A2563257C2575258E25859
:1003300072598649164AA64A364BC64B564CE64C6D
:10034000764D865D165EA65E365FC65FD652A1020A
:1003500073900230A24213018107828013000000D3
:100360001300000013000000130000001300000041
:100370001300000013000000130000001300000031
:100380001300000013000000130000001300000021
:100390001300000013000000130000001300000011
:1003A0001300000013000000130000001300000001
:1003B00013000000130000001300000013000000F1
:1003C00013000000130000001300000013000000E1
:1003D00013000000130000001300000013000000D1
:1003E00013000000130000001300000013000000C1
:1003F00013000000130000001300000013000000B1
:10040000F322003093F272FF130380181203B3E259
:100410006200711523205500130585FA10C12115BE
:10042000232005009302000063870200711523203A
:100430000500FD12D5BF71150CC1828000000000BF
:1004400000000000000000000000000000000000AC
:10045000000000000000000000000000000000009C
:10046000000000000000000000000000000000008C
:10047000000000000000000000000000000000007C
:10048000000000000000000000000000000000006C
:10049000000000000000000000000000000000005C
:1004A000000000000000000000000000000000004C
:1004B000000000000000000000000000000000003C
:1004C000000000000000000000000000000000002C
:1004D000000000000000000000000000000000001C
:1004E0000000000000000000000000000000397162
:1004F00001436EC619A0397141536AC866CA62CCFD
:100500005ECE19A0397101535AD056D252D44ED66C
:100510004AD826DA22DC06DE3301614082824111AC
:100520004AC026C222C406C68282B24D4101024D93
:10053000924C224CB24B4101024B924A224AB249A0
:100540004101024992442244B240410182803D432C
:100550002A876373C3029377F700BDEFADE5937607
:1005600006FF3D8ABA960CC34CC30CC74CC7410763
:10057000E36BD7FE11E28280B306C3408A0697027E
:10058000000096966780A6002307B700A306B70071
:100590002306B700A305B7002305B700A304B700DF
:1005A0002304B700A303B7002303B700A302B700D7
:1005B0002302B700A301B7002301B700A300B700CF
:1005C0002300B700828093F5F50F93968500D58DB3
:1005D00093960501D58D61B7939627009702000089
:1005E00096968682E78086FA9680C1171D8F3E9682
:1005F000E374C3F8A5B711CD054889CD01CEEFF25C
:100600001FF2BA8736878146EF00704D0148428558
:100610000DBF054842858280EFF27FF0EF00506FFA
:10062000014505B711CD854789CD01CEEFF23FEFEA
:1006300032840146EF00E073814708C03E8511B760
:1006400085473E858280854795C10DC2EFF23FED1B
:10065000B2878146135615003E85EF002078054786
:1006600081476303E50089473E85E1BD3E85828081
:10067000854785C91DC6EFF29FEA328413561500DF
:100680002285B684EF00700E05478D476319E5009B
:100690002285EF00502205052380A40081473E8576
:1006A0004DB53E858280EFF29FE70581EF10E02196
:1006B000014541BDEFF2BFE61306401F3306C502F8
:1006C0009307803E814501453356F602EF1040679F
:1006D000014585BDEFF2BFE4054401C989E9014741
:1006E00089460146EF10406F0144228599BD0547B8
:1006F0000144E39CE5FE01468145EF10D006F5B7C5
:10070000B7070020938787229843636FA702D043DF
:10071000B386C7006316D50054413E85B296D4C354
:100720005041B306C500631CD700B706002083A65E
:1007300006216306D70054431843B29654C118C12A
:100740006303F50088C38280BA877DBFEFF29FDB29
:1007500041112AC6EF00D064B706002083A7062106
:100760003706002093860621130646213245A1EF65
:10077000370700209307872B93F5F7001307872B84
:1007800081C51387F700419BB7050020938585221B
:1007900023A2050098C18D65C115AE97C19B23A208
:1007A000070023A00700B385E7409CC21CC3B7071E
:1007B000002023AEB720B707002023ACB720B7072F
:1007C00000804CC31CC2032A0600B377AA0085E34D
:1007D0009307F5FF3957636CF7009307050113F78B
:1007E000F70041C313F707FF410763EBE7068144B6
:1007F00089A022872E8461A058C15CC0113758405F
:10080000B70600209386C6219042B307E94023A093
:10081000F90063F3C7009CC2B70700203367EA0002
:100820009387072258C09843C1042320040005077A
:1008300098C3EF00307393F7F400D1CB89679387A7
:100840000780739007303786000037850000130655
:1008500006019305001113054504EF30A04E01A0D9
:10086000BA87370700200329872193098721E3608E
:10087000F9F8370700200324872213078722504006
:100880006374F6000C40B5F59442E38286F614409A
:10089000044314C33307F64093060002E3F1E6F67F
:1008A0003305F4009376F500A1DA89679387078012
:1008B0007390073037860000378500001306060165
:1008C0009305F00C13054504EF30C04701A02685C1
:1008D00041019DB14DC1EFF29FC4B707002003272E
:1008E00045FF83A747212A84B376F7009DE28967F5
:1008F00093870780739007303786000037850000A4
:10090000130606019305401213054504EF3080439A
:1009100001A0832605FF9DC2896793870780739096
:10092000073037860000378500001306060193055F
:10093000501213054504EF30E04001A093C7F7FFC4
:10094000F98F232AF5FEEF00B045B7070020938703
:1009500087219443032744FF130504FF369798C368
:100960004533B7070020938747229843050798C36C
:10097000EF00505FF9B68280B7E700E04157238768
:10098000E7402386E740B7F700E023A0070023A253
:100990000700814694C70147D8C783A50181130783
:1009A000401F814633D6E5023D4790CBD4CB98C358
:1009B0008280EFF2DFB6411102C6F32750303EC607
:1009C000B2470D478D8B6384E70289679387078061
:1009D00073900730378600003785000013068606BF
:1009E0009305600B13054504EF30C03501A0B757E0
:1009F000002093870700BD8B9DC38967938707807D
:100A0000739007303786000037850000130686068E
:100A10009305B00B13054504EF30C03201A0A93F88
:100A2000B7E700E0116723A0E710056723A0E710F0
:100A3000B707002023A8071EEFF09F8C0145410156
:100A400009B6397106DE16DC1ADA1ED82AD62ED47B
:100A500032D236D03ACE3ECC42CA46C872C676C4EE
:100A60007AC27EC0731101348967938707807390BF
:100A70000730B7F700E023A20700EF00103411C5DC
:100A8000B7E700E0116723A0E7208967938787888D
:100A90007390073073110134F250E2525253C25333
:100AA0003255A255125682567247E2475248C24802
:100AB000324EA24E124F824F21617300203089675F
:100AC0009387078073900730B70700209387071F2D
:100AD0009843050798C38280370700201307071F34
:100AE0001C438DE7EFF2BFA389679387078073905C
:100AF0000730378600003785000013068606930509
:100B0000301013054504EF30E02301A0FD171CC38E
:100B100091E789679387878873900730828009659A
:100B200013050580731505308280731005308280AF
:100B3000930785007D575CC118C55CC51CC923207F
:100B4000050082802328050082809841FD56930786
:100B50008500631ED7001C49D843D8C10CC79CC56B
:100B6000CCC31C4188C985071CC18280B687D44389
:100B70009042E37DC7FECDB7544118451C4998C645
:100B800054C3D4436393A600D8C3984323280500D5
:100B90007D1798C388438280EFF27F9841112AC65F
:100BA000393F3245005D0D3F13351400410151BA04
:100BB000EFF2FF9632893041045D2A8401EE1C4138
:100BC000014591E70844EF10000B2324040085043D
:100BD00004DC85BA631009024841EF20E06B5C40F9
:100BE00038400145BA9718445CC0E3E2E7FE1C4078
:100BF0005CC0F1BF4845EF20206A3C405844144097
:100C0000B307F0403E9758C46375D7001844BA97AD
:100C10005CC489470145E31CF9FAD5D8FD1445BFEA
:100C2000304115C2EFF2BF8F58451445AA8732975D
:100C300058C56364D700184158C52E85CC47EF20AE
:100C4000A0656FF01F908280EFF27F8D2A84853D32
:100C50008344540413094402E204E184634590028E
:100C6000FD57A302F4048D3D993D834444041309C8
:100C70000401E204E18463449002FD572302F4047A
:100C8000A13D6FF01F8C5C50E1DF4A85EF00905F63
:100C900019C1EF00D07BFD14E204E184C1B71C4808
:100CA000E9DF4A85EF00105E19C1EF00507AFD14AC
:100CB000E204E184C9B7EFF29F8641111DE1896723
:100CC00093870780739007303786000037850000D0
:100CD0001306C6099305001113054504EF3080067D
:100CE00001A05C5D2EC62A84BDC33841B3B7E702BC
:100CF000B9EFF1333040585C1440232C0402B307A1
:100D0000E602B24554C03387F600918FB6975CC4B3
:100D1000FD572302F40418C4A302F40495E11C480F
:100D200099CB13050401EF00F05511C5B7E700E0BA
:100D3000116723A0E7204D33054541016FF07F8007
:100D400013050401F53313054402DD33EDB789675C
:100D5000938707807390073037860000378500003F
:100D60001306C6099305501413054504EF20907D22
:100D700001A0EFF2CFFA411121C1B3B7A502AA84B5
:100D800085EF3305B502930770FB63E7A7021305F0
:100D900085042EC6653A2A8401CDB245AA8799C139
:100DA000930785042CC01CC044DC8545228521376F
:100DB000228541016FF0EFF8896793870780739070
:100DC000073037860000378500001306C6099305F3
:100DD000601C13054504EF20F07601A0EFF2AFF19F
:100DE000011132C61DE18967938707807390073030
:100DF00037860000378500001306C6099305E032E8
:100E000013054504EF20107401A02A842E89B684AE
:100E10008DE53C419DC389679387078073900730B8
:100E200037860000378500001306C6099305F032A7
:100E300013054504EF20107101A089476398F4025F
:100E4000585C85476304F70289679387078073902E
:100E5000073037860000378500001306C609930562
:100E6000003313054504EF20F06D01A0EF00F05EA4
:100E700015E5B247014C85C7896793870780739052
:100E8000073037860000378500001306C609930532
:100E9000303313054504EF20F06A01A0014C094BE3
:100EA000FD59930B040137EA00E0916AADA0B24707
:100EB00081E71D31014549A863150C002808EF00A2
:100EC000304B1939EF00C06DDD3E83474404E20723
:100ED000E187639437012302040483475404E20743
:100EE000E18763943701A3020404FD366C002808EF
:100EF000EF00704935E5E136185C5C5C6319F70476
:100F0000E13EB2455E85EF00102C2285353BEF00B7
:100F1000700521C5054C6536185C5C5C6364F700A0
:100F2000E39764F92686CA85228559315C5089C7C2
:100F300013054402EF00103511C5B7E700E0116753
:100F400023A0E720513E054505616FF04FDE69366D
:100F50002285DD39EF00100175BF23205A215DBFC6
:100F60002285DD31EF001000B1B7EFF2CFD80111CB
:100F700032C61DE1896793870780739007303786F3
:100F80000000378500001306C609930510551305A8
:100F90004504EF20305B01A02A84AE898DE53C41F9
:100FA0009DC3896793870780739007303786000059
:100FB000378500001306C6099305505513054504EF
:100FC000EF20505801A0EF00504915E5B247014904
:100FD00085C789679387078073900730378600003D
:100FE000378500001306C6099305A055130545046F
:100FF000EF20505501A001497D5A930A440237EB76
:1010000000E0916B9DA0B24781E7F934014561A0F2
:10101000631509002808EF00B0357D3C51234534A5
:1010200083474404E207E1876394470123020404F1
:1010300083475404E207E18763944701A302040451
:10104000613C6C002808EF00103431ED2285A93690
:1010500031C5B2455685EF0010172285F536EF00F1
:10106000607019E123207B210549913C045CC1DCBF
:10107000CE852285FD146D3604DC1C4899CB130502
:101080000401EF00302011C5B7E700E0116723A08D
:10109000E7209934054505616FF06FC922856D36EB
:1010A000EF00406CD1B722854536EF00A06B22855A
:1010B000E5345DD9A1BFEFF28FC641111DE189670B
:1010C00093870780739007303786000037850000CC
:1010D0001306C6099305307E13054504EF2090469C
:1010E00001A02AC6EFF0BF9D3245085D2AC6EFF089
:1010F000BF9E324541016FF0CFC415E5EFF22FC21C
:10110000896793870780739007303786000085656D
:10111000378500001306C609938585AC1305450481
:10112000EF20504201A09DCD373600209306862B3C
:10113000814701471306862B214883A84600639800
:10114000A80093173700B2978CC3C8C321A891E7B2
:1011500083A8060063930800B6870507A106E31E6F
:1011600007FDFDF38280EFF28FBB41112A842EC66A
:1011700032C4EFF0DF94834744047D572246E207F0
:10118000E187B2456394E7002302040483475404D3
:101190007D57E207E1876394E700A302040432C6A7
:1011A0002EC4EFF07F931C5CA245324689E71305FD
:1011B0004402EF00D0052285EFF01FA941016FF036
:1011C0004FB837070020130747231C439443B70742
:1011D00000209387472581E67D5798C38280184376
:1011E00058471843DDBFEFF2EFB137090020B707CA
:1011F00000209304092383A947262A849C40884021
:101200004111A380070611052EC6EFF0FF967D570A
:1012100093070923B245631CE40295C9B737002040
:101220009387073C9440D84398C610479440D0C653
:1012300094401047910654C29440910614C79840B8
:101240005CCB9843050798C341016FF0EFAE98431C
:101250004E9440C3637B3401370700200325872366
:101260008C439105EFF07F8EC5B73707002003252B
:1012700047238C439105EFF05F8DB70700209387DC
:1012800047259843E372E4FC80C37DBFEFF28FA74C
:1012900037340020B70900201304443D370A0020EA
:1012A000938409249C40EDDFEFF07F815C4403A927
:1012B000C70013054900EFF03F8C1307CA231C43F6
:1012C000FD171CC39C40FD179CC0EFF0FF80032559
:1012D0000903EFF02FE04A85EFF0CFDFD1B7EFF24F
:1012E0008FA113192600AA8A4A85AE89368BBA8B3C
:1012F0003E8AEFF0AFC505C5AA8413054006EFF09E
:10130000EFC42A8411C904D9814793060002639A65
:101310000900230A050225A02685EFF0AFDB7D55E5
:10132000D1AA3387F900030707003306F400230A24
:10133000E60201C78507E396D7FEA309040499478F
:1013400063F4770389679387078073900730378644
:101350000000378500001306460D9305703913050C
:101360004504EF20301E01A0930944004E8523263A
:101370007403232A7405232C0404EFF0AFFC130537
:101380008401EFF02FFC1D471305C9FF3307774198
:10139000269500C818CC40D0230E0404A30E0404E4
:1013A000230F0404A30F040423000406A30004066F
:1013B0005A86D6854199EFF0AF8408C063040A00CD
:1013C00023208A00EFF0AFEFB70700209387C723F1
:1013D00098433709002037350020050798C31307C5
:1013E00009231843370A0020130909239304852F82
:1013F000130A0A26631207102320890098438547A1
:101400006318F7081305852FEFF08FF21385440159
:10141000EFF00FF213858402EFF08FF11385C40310
:10142000EFF00FF113850405EFF08FF013854406FC
:10143000EFF00FF013858407EFF08FEF37350020C2
:10144000130B453813054538EFF08FEE3735002084
:10145000930A853913058539EFF08FED3735002074
:101460001305C53AEFF0CFEC373500201305453DA5
:10147000EFF00FEC373500201305053CEFF04FEB94
:10148000B707002023AA6723B707002023AC572300
:10149000B7070020938787249843050798C3370729
:1014A00000201307C7245C54144363F3F6001CC3E5
:1014B0005147B387E702BE94DC4098471CC458C428
:1014C00098472322370123A437019C4044C885074D
:1014D0009CC0EFF06FE083270A00054581CF83278A
:1014E0000900D8575C546377F700B7E700E011674D
:1014F00023A0E7206FF0AF8383270A00D1FB832767
:101500000900D8575C54E3E5E7F82320890049B780
:10151000EFF2EF80B7070020B78500003715000015
:101520009387072501478146130600109385850F91
:101530001305C5286D330544631E8502EF00506511
:10154000631A850289679387078073900730B7070E
:1015500000207D5723AAE724B707002023A0A72651
:10156000B707002023A20726EFF0AFC483A741806E
:101570006FE03FFDFD57E31BF5FE8967938707800A
:1015800073900730378600008565378500001306A5
:10159000460D9385058413054504EF20A07A01A02C
:1015A000B7070020938747249843050798C3828094
:1015B000B707002003A547268280B707002083A72E
:1015C000472463980718EFE29FF5B7070020938739
:1015D00047268043050480C339E8B7070020938776
:1015E00047239843184305C78967938707807390FB
:1015F0000730378600008565378500001306460DE5
:10160000938575AC13054504EF20C07301A037071F
:101610000020130787239443104390C3B70700208B
:1016200014C3938787259843050798C3593E370607
:101630000020930746259C4337370020B70500203C
:10164000130646251307872F9385052301456375E8
:10165000F4029C41D146DC57B387D7023E9718432A
:10166000854763F3E7000545B707002083A7872672
:1016700091C305456FE0FFEC370E0020B70E002048
:10168000514F93074E239443944281E6FD571CC269
:10169000C9B79C43DC47DC47D4436374D40014C20D
:1016A0004DBF83A8870003A8C700D44B138347000E
:1016B00023A408012322180183A84600639468002C
:1016C00023A2060103A8060023AA07007D1823A071
:1016D0000601945795CA03A8C70183A8070283AFE0
:1016E00046002324180183A8070223A208011388B7
:1016F000870163940F0123A2160103A8060023A407
:1017000007027D1823A006019386CE2403A8C702F2
:1017100083A8060063F4080123A00601B306E803CA
:10172000BA9683A8460083AF880023A4170123A696
:10173000F70183AF880023A26F0023A46800D4CBF5
:101740009C4285079CC29C41DC57E36CF8F205453E
:101750000DBFB70700209387C725984301450507AC
:1017600098C38280EFE21FDA370400201304442478
:101770001C40411185E78967938707807390073084
:10178000378600008565378500001306460D938572
:10179000358B13054504EF20E05A01A0EFF02FB27E
:1017A0001C40FD171CC01C4089CB01452AC6EFF028
:1017B000AFB2324541016FE03FD8B707002083A7A1
:1017C000C723E5D7B73600203735002081479386F9
:1017D000C63A370F00201305852FD1483703002064
:1017E000370E0020854E59A8DC46DC47CC4F90537D
:1017F000985790C503A807022322B8000328470082
:10180000938587016313B80050C3104323A40702D4
:101810007D1610C38C47D047D84B1388470090C51E
:101820004CC24C436393050150C3104323AA0700E5
:101830007D1610C31307CF24D0570C4363F3C500A4
:1018400010C3330716032A974C4383AF85008CC718
:1018500023A6F70183AF850023A20F0123A405016E
:101860000C43D8CB85050CC31307032318435857E3
:101870006366E60013078E262320D70198422DF7D2
:1018800099C3EFF01F94B70700201387C7250443BF
:101890001384C72591CC370900208549393B09C5F8
:1018A0009307892623A03701FD14EDF823200400B7
:1018B000B707002083A78726E38907EEB7E700E094
:1018C000116723A0E7200545D5B519E5B7E700E086
:1018D000116723A0E7208280EFE27FC4B7070020D2
:1018E00083A7472441119DC389679387078073901D
:1018F000073037860000378500001306460D930534
:10190000905413054504EF20E04301A02AC649394D
:1019100032458145EFF03F8DB13511E5B7E700E085
:10192000116723A0E72041016FE0BFC1B707002086
:1019300003A74724B70700209387872601C70547D9
:1019400098C3828023A00700B70700201387C7240D
:1019500018431386C724B73700209387872F514831
:10196000B3060703B385D700884115C5C841A10652
:10197000BE964841C8C16314D5005441D4C1D14674
:10198000B306D702B697DC43D447B707002023A895
:10199000D72218C2828015E7EFE27FB88967938764
:1019A0000780739007303786000085653785000013
:1019B0001306460D938525C013054504EF20803896
:1019C00001A07D1771BFEFE29FB505E58967938799
:1019D00007807390073037860000856537850000E3
:1019E0001306460D9385C5C113054504EF208035C8
:1019F00001A0B70700202E8483A50723E105EFF09F
:101A0000CF9485452285EFF00FFE6FE09FB3EFE2A4
:101A10001FB12A8705E58967938707807390073090
:101A2000378600008565378500001306460D9385CF
:101A300025C513054504EF20E03001A0B7070020BD
:101A40009387072354432E858C4303A88600D4CD67
:101A50008C4323A0050303A807008C46610823A23A
:101A6000050103A807009C43610823A4060198D739
:101A70001C4385071CC311C27D55B285EFF0AFF63C
:101A80006FE03FAC5C45DC4795E7EFE25FA9896713
:101A90009387078073900730378600008565378508
:101AA00000001306460D938525C813054504EF2055
:101AB000602901A0D04F945398579385870114C68D
:101AC000D0C250436313B60054C3144323A4070287
:101AD000FD1614C33707002003274724D45725EFEA
:101AE0008C47D047D84B90C5D04748434CC29385CC
:101AF00047006313B50050C3104323AA07007D16A7
:101B000010C3370700201307C72410436373D600A0
:101B100014C351473386E602373700201307872F57
:101B200032975043084690C7C8C708464CC10CC6F8
:101B3000D8CB1C43014585071CC3B707002083A7EA
:101B40000723DC5763F8D700B7070020054723A415
:101B5000E72605458280373700201307C73A5043F0
:101B60000846D0CF88D308464CC10CC698D7D1B709
:101B7000B707002083A787251CC1B707002083A7CC
:101B800047265CC18280EFE29F99411105E5896794
:101B90009387078073900730378600008565378507
:101BA00000001306460D9385D5CF13054504EF209D
:101BB000601901A085E589679387078073900730D6
:101BC000378600008565378500001306460D93852E
:101BD000E5CF13054504EF20E01601A02EC62AC468
:101BE000EFE0FFED37070020B707002013070723BA
:101BF00083A647261C432245B24583C7170699CBC7
:101C00001C43A38007060544EFE01FED2285410138
:101C10006FE03F939C417D570144E387E7FE370621
:101C20000020032686250328050058416307C800C5
:101C300063E5E60023A00500F9B73386E640E37BC1
:101C4000F6FE958FBA979CC12537014475BFB7073B
:101C50000020054723A4E7268280B707002083A73A
:101C60000726054581CBB707002003A54724133578
:101C700015000605828011E50145828001456FE06F
:101C80005F8CEFE2DF89B707002083A707232A8450
:101C90006385A7028967938707807390073037862B
:101CA00000008565378500001306460D9385F50411
:101CB00013054504EF20000901A0BC4F85E78967A3
:101CC00093870780739007303786000085653785D6
:101CD00000001306460D9385050513054504EF2006
:101CE000600601A054557849FD173CCDE388E6F81D
:101CF000D1F7930445002685EFE01FE87C481D4797
:101D00001D8F18CC370700201307C72414435CD459
:101D100063F3F6001CC351473387E702B73700204F
:101D20009387872F0545BA97D843144718C454C4DE
:101D30001447C4C204C798435CC8050798C381B759
:101D4000EFE2EFFD411105C5896793870780739026
:101D50000730378600008565378500001306460D7D
:101D60009385652613054504EF10D07D01A0370447
:101D70000020AE8432C6EFE09FD4930704239C4337
:101D800013040423FC4F85E31C403246054723809F
:101D9000E70611CA85453285EFF0EFC4B7E700E0EA
:101DA000116723A0E720EFE03FD3EFE05FD11C40B5
:101DB000E84F09C51C4089CC23AE07041C402AC645
:101DC00023800706EFE05FD1324541016FE06FF7F6
:101DD0001307F5FFF8CFDDB7EFE26FF4411185C5CA
:101DE0008967938707807390073037860000856581
:101DF000378500001306460D93858530130545048D
:101E0000EF10507401A005E58967938707807390F0
:101E10000730378600008565378500001306460DBC
:101E20009385953013054504EF10D07101A03AC693
:101E300036C432C22AC0EFE09FC83247024512467C
:101E4000A24619C37C4D1CC38347050609472300DE
:101E5000E506114793F7F70F6360D704216713076F
:101E6000070C8A06BA9698420287784D598E70CD33
:101E700021A0784D050778CD05476387E704054520
:101E80002AC0EFE07FC5024541016FE08FEB0947B3
:101E9000E39FE7FC0145EDB73707002003274726FE
:101EA00061DF89679387078073900730378600006A
:101EB0008565378500001306460D9385E5331305C8
:101EC0004504EF10306801A0144558455C491306DD
:101ED000450098C6584554C3D4436393C600D8C33D
:101EE0009843232A05007D1798C3B70700209387DE
:101EF000C7245855944363F3E60098C3D147B3060B
:101F0000F702B73700209387872FB697D4438C46C4
:101F100014C54CC58C46D0C190C694435CC9850697
:101F200094C31C5585C789679387078073900730D2
:101F3000378600008565378500001306460D9385BA
:101F4000D53413054504EF10F05F01A0B70700205A
:101F500083A70723DC57E3F4E7F2B7E700E0116754
:101F600023A0E72029BFEFE28FDB411105E5896758
:101F70009387078073900730378600008565378523
:101F800000001306460D9385C54013054504EF1068
:101F9000705B01A085C589679387078073900730C0
:101FA000378600008565378500001306460D93854A
:101FB000D54013054504EF10F05801A02A8432C61D
:101FC000EFE0FFB58947034704062300F4067C4C85
:101FD00085077CCC8547639EE70A1C54324685C73B
:101FE000896793870780739007303786000085657F
:101FF000378500001306460D9385354313054504C8
:10200000EF10505401A0B707002083A7472458546D
:10201000D1E70C4454445C4894C5544403A8470099
:10202000CCC2930544006313B800D4C39443232A5D
:102030000400FD1694C3B70700209387C724944378
:1020400063F3E60098C3D147B306F702B737002021
:102050009387872FB697D44303A8860014C42326FA
:10206000040103A886002322B8008CC65CC89443F0
:10207000850694C3B707002083A70723DC5763FABC
:10208000E70019C285471CC2B7070020054723A4F3
:10209000E726EFE09FA941016FE0AFCAB737002004
:1020A0009387C73AD4438C4654CC0CD003A88600FF
:1020B000930584012322B8008CC61CD44DBFEFE2E7
:1020C0000FC637040020EFE09F9F130484271C40B5
:1020D000B1E7373500201309853E1305853EEFE053
:1020E0003FA5373500209304C53F1305C53FEFE0FA
:1020F0003FA4B707002023A627270146B7070020E3
:10210000C145114523A89726EFE0BFC608C019C5F1
:10211000B785000093854512EFE03FFEEFE0DF9BBF
:102120006FE02FC2EFE2AFBF4CC108C9AA8763625C
:10213000B602184D158E0545637BE6009385470072
:10214000B707002003A50727EFE03FA001456FE098
:102150004FBF6375D6000545E3FBD5FE9385470069
:10216000B707002003A5C726C5B7EFE24FBB2A84F7
:10217000AE8432890C4CA6864A86A69522855D37A8
:1021800019E16FE00FBC1C4C2285BE941C50829755
:10219000D5B7EFE2CFB8B707002083A7C726411114
:1021A000AA84DC472EC6C04713054400EFE0DF9C3D
:1021B00083474402324613F7470011CBA685228598
:1021C0006D371C502285829741016FE08FB7F99BD4
:1021D0002302F402FDB7EFE28FB437040020930628
:1021E000C42698421C4391EBB7070020938707272A
:1021F000904398C390C26FE0CFB45C47FD558843CD
:10220000493FF1BFEFE22FAF21694111B70A00202A
:10221000B7090020370B0020B70B00201309091065
:1022200083A7CA26984329CBDC47814C03AC07001F
:10223000EFF00FB7EFF0CFB783A749272A84938435
:102240004927130A8B27636CF50288C0638F0C0241
:1022500083A70B2790431336160003250A00B30506
:102260008C40EFE05FF0EFF0EFCF11EDB7E700E06B
:10227000116723A0E72001A8854C014C55BFA13F61
:1022800080C0EFF02FCE214C05A00146E36785FD0D
:10229000EFF04FCDA2856285ED3DF5B79247B2458F
:1022A0008297824763DD070003250A0001468A857D
:1022B000EFE0BFCB35D582472245E3C107FE22447C
:1022C0005C4895E3EFF0CFAE9C40AA8C6373F500B9
:1022D0001937824723A09401FD17E367FCFC8A07A6
:1022E000CA979C43828713054400EFE0FF88D9BF5B
:1022F000834744020C4C924693E717002302F402F2
:102300006686B6952285393D45D18347440213F749
:10231000470019CB1C4C924566862285BE95B13587
:102320001C502285829749B7F99B2302F402CDBF46
:1023300083474402F99B2302F402BDB7834744025A
:10234000924593E717002302F4020CCC9DE18967C4
:102350009387078073900730378600003785000029
:102360001306C6129305903513054504EF10901D12
:1023700001A0E6866686E69522856D3335B78347EC
:10238000440213F727005DF72285EFE0AFD429BFA1
:10239000EFE2EF98EFF0BFD2B707002083A78727BF
:1023A0009DE3896793870780739007303786000025
:1023B000378500001306C6129305901113054504D6
:1023C000EF10501801A0B7070020B785000037258F
:1023D00000009387C727194781461306001093858D
:1023E000051513054520EFE09FEF45DD6FE06F9584
:1023F000EFE2EF923755004093055052130505C0A8
:10240000492319C5B707002083A7072891C38297DE
:102410006FE02F9321C5EFE2EF8EB75400402A8979
:102420002E84938404C0854919E0014501A89305D1
:1024300000082685152B630535010D456FE0CF8F0C
:102440009305000226850D236DF9834509007D144F
:1024500026854204012305094180F9B7054582809C
:1024600029C1EFE22F8AB75400402A892E84938431
:1024700004C0854901E401456FE00F8C930500021B
:102480002685DD21631135032685D1297D1423009E
:10249000A900420493050002268505094180D92937
:1024A000D1BF054582801145C1BF01A001A001A097
:1024B00001A001A001A001A001A001A001A001A014
:1024C00001A001A001A001A001A001A001A001A004
:1024D00001A001A001A001A001A001A001A001A0F4
:1024E00001A001A001A001A001A001A001A001A0E4
:1024F00001A001A001A001A001A001A001A001A0D4
:1025000001A001A001A001A001A001A001A001A0C3
:1025100001A001A001A097E1FF1F9381A14D1731F8
:102520000020130121AE176500001305651297E521
:10253000FF1F938525AD1386018263FAC5008322B0
:10254000050023A0550011059105E3EAC5FE17E536
:10255000FF1F130525CC971500209385E5ED6377C4
:10256000B500232005001105E36DB5FEFD42739013
:1025700002BC894273904280B7220000938202809D
:1025800073A0023097E2FFFF938242AB93E23200E6
:1025900073905230EF00500E97120000938242C4A5
:1025A00073901234730020309C4513F7070113F821
:1025B000F70001C7D8413368E80037270240145BB1
:1025C0003707000F758F55EF370700208546230228
:1025D000D728371701406317E50003D70500358377
:1025E0002390E50083D5050013F7F50F39C3184193
:1025F0008146854E3D4F930F800293028004214E09
:102600003396DE00B3F8C5006311160393982600D5
:1026100033131F011343F3FF3377E300B31818019B
:1026200033E7E8006399F70750C98506E39AC6FDCA
:1026300018C11307F00F6375B70454412146854E46
:102640003D4F930F800293028004414EB398CE0019
:1026500033F715016392E8021317260001173313AD
:10266000EF001343F3FFB376D3003317E800D98E9E
:102670006397F703232A15010506E319C6FD54C124
:10268000828037170140E31FE5F437070020034736
:10269000472829DB99B7E39A57F810C979B7E39D22
:1026A00057FC23281501C9BFB71701406318F5006F
:1026B000B707002083C7472891C3B5810CC9828022
:1026C000B707002023A4A7288280371702405C4365
:1026D0009146B18B6385D700A1466386D706B717AD
:1026E0007A00938707201CC1371602405C423707E7
:1026F0000020130707009183BD8BBA9783C607009C
:102700001C41B3D7D7005CC15442A1829D8ABA96BE
:1027100083C60600B3D6D70014C55442AD829D8A45
:10272000369703470700B3D7E7005CC558423983A3
:102730009376370013878180369703470700B3D716
:10274000E7021CC982805C435843C166C983BD8BC4
:10275000758F8907C5466393D700C94701EF37478F
:10276000024003270780418B09CF37177A001307F0
:10277000072021A83717024058439316E700E3D6F5
:1027800006FE37173D0013070790B387E702A1BF86
:1027900099C5371702405C4B5D8D48CB8280B717D7
:1027A0000240D84B1345F5FF798DC8CB828099C57F
:1027B000371702401C4F5D8D08CF8280B71702404B
:1027C000984F1345F5FF798D88CF828099C53717CB
:1027D00002405C4F5D8D48CF8280B7170240D84FD2
:1027E0001345F5FF798DC8CF8280035705008D67AB
:1027F0009387070483D625007D8F83D70500D58F67
:1028000083D64500D58F83D66500D58F83D68500C6
:10281000D58F83D6A500D58F83D6C500D58F83D617
:10282000E500D58FD98F2310F5000357C501FD773B
:102830009387F77FF98F231EF50083D705012318AF
:10284000F50082808357050091C593E707042310A4
:10285000F5008280C207C18393F7F7FBC207C183EB
:10286000FDB7EFD2DFCB83560501F577FD17F58F66
:1028700083D6650003D7C5007971D58F2318F5007D
:102880008356C500FD779387379FF58F83D6450024
:102890002A842EC6D58F83D68500D58F83D6A500F2
:1028A000D58F2316F50083574501C207C18393F7DF
:1028B000F7CFD98F231AF5006808013DB7470140CB
:1028C00093870780B245631DF404A2578356C40062
:1028D0006547B387E702C206C186984163D4060400
:1028E00006070356C4004206B3D7E70213074006A3
:1028F0004186B3D6E702B3F7E702920663560602B3
:102900008E0793872703B3D7E70213F77700B367E0
:10291000D700C207C1832314F40045616FD07FC282
:1029200092576DB70A0775BF920793872703B3D7EE
:10293000E702BD8BD58FF1BF81C98357C5000967F9
:10294000D98F2316F50082800357C500F977FD174C
:10295000F98FC5BF93F5F51F2312B500828003558B
:1029600045001375F51F8280035505006D8D3335C5
:10297000A000828093C5F5FFC205C1812310B50078
:10298000828013F7F50F85461583B397B60063135E
:10299000D7020357C500F98F0357050001454207C9
:1029A000418381CB0545A181B315B5006D8F3335CA
:1029B000E000828089466315D70003570501E1BF17
:1029C00003574501C9BF83A7018137177A00130751
:1029D0000720B3D7E7023707002093F7F70F230745
:1029E000F7281307803EB387E70237070020231636
:1029F000F7288280EFD21FB1B7440140AE893289F7
:102A0000014493840480634524014A856FD0DFB27A
:102A1000930500042685893F65DDB387890083859A
:102A2000070026850504C205C1812D37E9BF13873C
:102A3000C1801C43B7360020938646433E95636BA6
:102A4000D500B75600209386068063E5A60008C32C
:102A50003E858280FD57EDBFEFD27FA95D71814534
:102A60000545EFF0FFD281450945EFF07FD2814562
:102A70001145EFF0FFD1814513050004EFF05FD160
:102A800081450565EFF0DFD081450545EFF03FD288
:102A900085451145EFF0BFD185452145EFF03FD188
:102AA00085454145EFF0BFD0814513050020EFF08B
:102AB0001FD0814513050040EFF07FCF856A138555
:102AC0000A808145EFF0BFCE85450565EFF03FCE2A
:102AD00081450965EFF0BFCD81451165EFF03FCD30
:102AE00081450545EFF09FCE81450945EFF01FCEAA
:102AF00081451145EFF09FCD81452145EFF01FCD78
:102B000013850A808145EFF07FCC81451165EFF098
:102B1000FFCB814537050200EFF05FCB81453705DC
:102B20000400EFF0BFCA854537050800EFF01FCA63
:102B3000814537052000EFF07FC98145370540000A
:102B4000EFF0DFC8814537058000EFF03FC88145D1
:102B500037050002EFF09FC7814537050008EFF009
:102B6000FFC6814537050010EFF05FC6A16531460D
:102B700093854500081037140140EF00E07193047D
:102B800080040C101305048026D4EFF0FFA18948BF
:102B900061490C10130504802310110346CE4AD45A
:102BA000EFF09FA091470C10130504802310F10251
:102BB00026D4EFF07F9F21480C10130504802310CA
:102BC000010342CC26D4EFF03F9EC1470C10130501
:102BD00004802310F10226D4EFF01F9D130600029B
:102BE0000C10130504802310C10232CA4AD4EFF03E
:102BF000BF9B93060004114A0C1013050480231098
:102C0000D10236C852D4EFF03F9A130700080C10D7
:102C1000130504802310E1023AC64AD4EFF0DF988E
:102C2000930700100C10130504802310F1023EC41A
:102C300026D4EFF07F97930D00200C10130504802D
:102C40004AD42310B103EFF03F96C149130D004061
:102C50000C10130504804ED42310A103056BEFF074
:102C6000BF94130B0B800C101305048026D4231083
:102C70006103EFF07F930C101305048026D423101A
:102C80005103EFF07F92896C0C101305048052D42D
:102C900023109103EFF05F91116C0C101305048069
:102CA00052D423108103EFF03F90E17B0C10130509
:102CB000048026D423107103EFF01F8F8545231065
:102CC000B102130504C00C104AD4EFF0FF8DF24896
:102CD0000C10130504C02310110352D4EFF0DF8C45
:102CE0000C10130504C04AD423104103EFF0DF8B0E
:102CF00062480C10130504C02310010352D4EFF0F6
:102D0000BF8A0C10130504C04AD423103103EFF01E
:102D1000BF8952460C10130504C02310C10226D4EB
:102D2000EFF09F88C2460C10130504C02310D10297
:102D300026D4EFF07F8732470C10130504C0231010
:102D4000E10226D4EFF05F86A2470C10130504C001
:102D50002310F10226D4EFF03F850C10130504C0B8
:102D60004ED42310B103EFF03F840C10130504C0C0
:102D700026D42310A103EFF03F830C10130504C0E9
:102D800026D423106103EFF03F820C10130504C01A
:102D900026D423105103EFF03F810C10130504C01B
:102DA00026D423109103EFF03F800C10130504C0CC
:102DB00026D423108103EFF02FFF0C10130504C05D
:102DC00026D423107103EFF02FFE0C1037150140AD
:102DD0004ED423109103EFF02FFD0C103715014056
:102DE0004ED423108103EFF02FFC0C103715014057
:102DF0004ED423107103EFF02FFBB70704013EDE22
:102E0000B7070002BEC293070002BEC46C189D47FC
:102E1000373501402316F10482C0EFF01F9D916504
:102E200037150140EFF05F88896537150140EFF0F5
:102E3000BF87854537350140EFF0DFA0F167938705
:102E400007203754004002DC3ED69307003002DAF8
:102E5000231CF1026C10B147130504C0231BF102BF
:102E600002D8EFF01FA0130504C08545EFF0DFACDA
:102E7000014561616FD06FEBB71702409843B70609
:102E8000FFF841111367170098C3D84337060200B3
:102E9000758FD8C39843B706F7FEFD16758F98C394
:102EA0009843B706FCFFFD16758F98C3D843B70645
:102EB00081FFFD16758FD8C337079F0098C702C4DE
:102EC00002C69843C166558F98C3B716024005677E
:102ED0009C42F18F3EC6A24785073EC4B24781E7B8
:102EE000A247E397E7FEB71702409C431397E7001A
:102EF0006355070685473EC632478547631DF7047D
:102F0000B7170240D843B706C1FFFD16D8C3D84350
:102F1000D8C3D843D8C3D843758FD8C3D843B706CE
:102F20003D00558FD8C39843B7060001558F98C30D
:102F3000984393166700E3DD06FED843B7160240B8
:102F4000719BD8C3D84313672700D8C32147DC42FD
:102F5000B18BE39EE7FE4101828002C671BFB716C6
:102F60000240DC421146B18B138701816385C700A3
:102F700021466389C702B7177A00938707201CC3CD
:102F8000B7170240DC43918393F6F700B7070020A0
:102F900093870701B69783C607001C43B3D7D700B2
:102FA0001CC38280DC42D4424166C983BD8BF18E52
:102FB000890745466393C700C94781EEB74602407B
:102FC00083A60680C18A89CEB7167A00938606202A
:102FD00021A8B7160240D4421396E600E35606FE37
:102FE000B7163D0093860690B387D70249BFEFD24C
:102FF0000FD38545EFF0CFC611C10D456FD06FD40B
:10300000EFD2EFD14111A307A10085451305F100CF
:10301000EFF04FC011C1094541016FD08FD201457A
:10302000828001A001A0EFD28FCFB7C7FD0A411166
:103030009387571502C23EC0930740032302F10055
:10304000854702C4231601002303F100B7040020C2
:103050003704002003A644298A851305803EEFD05B
:103060008FDE0325442A8145EFD0CFE61545EFD00A
:103070008FE3CDB7EFD2AFCAB73700203737002084
:103080009387074113070742D8C339472395E700C1
:103090002386070023870700EFF01FDEEFF03FECE9
:1030A0000945EFF0EFE1EFF01F92EFF0FF9A0964AE
:1030B000BD37130404712285EFD0CFDFEDBFEFD20F
:1030C0000FC6370500201304252913052529EFF025
:1030D0001FF215E9B73700209387074103C7C700E0
:1030E000834504001377F70F0DE313075005639C26
:1030F000E50005472386E700DC43B7060020239858
:10310000E6282380B7006FD0CFC3B7060020938690
:10311000062903D70600D0433A9605074207230045
:10312000B60041832390E60083D6A700E39DE6FC2A
:1031300005472387E700C1BFEFD2CFBC0111373469
:1031400000209307044113090101394702C802CA4C
:1031500002CC231E0100A307010023A02701239412
:10316000E70013040441B709002003A64929930688
:10317000F100CA850145EFD0AFCF138A49298347B3
:10318000F10091C331C9EFF09FF38347E400F1DF11
:103190002306040023070400C9BF1C40A69703C5EB
:1031A0000700EFF0FFE519ED850483578400E3E69F
:1031B000F4FE03260A009306F100CA850145EFD00C
:1031C0002FCB75BFEFF0BFEF8347E400F9DF230695
:1031D000040023070400D1BF8144C1BFEFD22FB444
:1031E000370600201306C629B9452945EFD08FC3FD
:1031F000370600201306062A85452945EFD08FC2E1
:103200003706002013064629B9452945EFD08FC15E
:103210003706002013068629B9452945EFD08FC00F
:1032200037070020B7850000373500001307872ACD
:103230008D46130600109385851513056502EFD0A2
:103240008FBB37070020B785000037350000130714
:10325000C72A9146130600109385C5161305450726
:10326000EFD06FB937070020B78500003735000071
:103270001307472A894613060010938585171305FF
:103280008513EFD04FB7EFD02FB937840000130567
:10329000C418EF00303DE5BFB3C7A5008D8B3307E1
:1032A000C50081E78D4763EEC700AA876370E50A12
:1032B00083C6050085078505A38FD7FEE3EAE7FEF1
:1032C000828093763500AA8791CA83C60500850758
:1032D0008505A38FD7FE93F63700FDB79376C7FF1A
:1032E000138606FE63F0C70683A3050083A245008C
:1032F00083AF850003AFC50083AE050103AE450172
:1033000003A3850183A8C5019385450223A0770007
:1033100003A8C5FF23A2570023A4F70123A6E701B2
:1033200023A8D70123AAC70123AC670023AE170146
:103330009387470223AE07FF75B790419107910528
:1033400023AEC7FEE3EBD7FEE3E4E7F682807971B4
:1033500022D44AD052CC56CA5AC806D626D24ECE0D
:103360003A8AAE8A32843689428B01476358060016
:10337000370700803344C7001307D0022380E700DB
:1033800093F4F8FD930760048D466388F400930777
:10339000500489466393F4000509DA879308C10055
:1033A000130881004A87D6852286EF00B05E930716
:1033B0007004AA896396F400137A1A00630A0A0457
:1033C00093076004338A29016397F40203C7090055
:1033D00093070003631EF700014681465685A285C8
:1033E000EF30302011C585473389274123202B0139
:1033F00083270B003E9A014681465685A285EF3011
:10340000501E11E152C613070003B24763E247039F
:10341000B2474257B2502254B38737411CC34E853E
:1034200092540259F249624AD24A424B4561828023
:103430009386170036C62380E700C1BF2300C5006E
:10344000130725009307B00263D60500B305B0400B
:103450009307D002A300F500A54763DAB704411132
:103460009307F100BE88294813033006B3E605032D
:103470001386F7FF93860603A38FD7FEB3C6050313
:10348000634DB30093860603F917A30FD6FE63E9D5
:1034900017013305A74041018280B287B685F9B78D
:1034A000850783C6F7FF0507A30FD7FECDB79307A0
:1034B000000313074500938505032301F500A301CD
:1034C000B5003305A740828019713ACE86DEA2DCB2
:1034D000A6DA2E84CAD8CED6D2D4B689DAD0DECE39
:1034E000E2CC3289D6D2E6CAEAC8EEC6AA84EF1088
:1034F000D049832B05005E85EF009017032B040055
:10350000724702DC93760B102A8C034A84011C4319
:10351000F1CA9386470014C39C43081098433AD0DD
:10352000D8433AD298473AD4DC473ED6EF40207F82
:1035300028C46CC4832CC40417570000130707C7A2
:10354000832A8404032D0700832D470093971C00D2
:1035500085836A86EE865685BE853ECEEF408064C2
:1035600041EDF2476A86EE865685BE85EF30F0184B
:103570006354A008014681465685E685EF30F01772
:10358000635605009307D002A301F4049307700467
:10359000975A0000938A0AC263F64701975A0000BF
:1035A000938A8AC1137BBBFF8D47232064011CC80B
:1035B000014B4E87CA867018A2852685C12EFD5CF8
:1035C000631E95157D55F6506654D6544659B65926
:1035D000265A965A065BF64B664CD64C464DB64D6F
:1035E000096182809D07E19B9386870014C39843FD
:1035F000DC4338C47CC43DBF5686E6865685E685E6
:10360000EF40405A11CD93077004975A0000938AF7
:10361000EABAE3F947F9975A0000938A6ABA59B7A8
:103620005C407D57137DFA0D6395E70899475CC0B0
:10363000544013670B403C18D6853EC018C0930712
:10364000310302C2D2881308410366862685EFF053
:103650001FD093077004AA8AD255631BFD00F5574B
:1036600063C5F5005C4063D8B708791A137AFA0F7E
:103670009307500663E64705FD15528613050405BA
:103680002EDAEFF0BFDB625785462A8BB307A7001F
:103690001CC863C5E6001840058B19C385071CC804
:1036A00083473103E38707F09307D002A301F404B3
:1036B00009B713077004E31DEDF6BDFB854785BF11
:1036C00093076006631BFA025C40635BB0000CC8A2
:1036D00081E71840058B09CF8507AE971CC809A85C
:1036E00089E718408546058B19C39386270014C8BF
:1036F0002CCC014B75B7130A7006E25763C9F5006D
:103700001C400CC8858BEDD793871500C1BF0547BA
:103710006344B00009470D8FBA97C9B71C4013F72F
:10372000074015E314485686CA8526858299E30B1F
:1037300095E91C40898B63960724F2574844E3546B
:10374000F5E83E8549B513075006637B47192844C1
:103750006C4401468146EF30C06839E9854617560A
:103760000000130626A6CA8526858299E30C95E5F6
:103770005257E2576345F7001C40858BDDDBE2863C
:103780005E86CA8526858299FD57E30DF5E2014ADA
:10379000930AA4017D5BE257FD17E35CFAF88546C6
:1037A0005686CA8526858299E30E65E1050AE5B746
:1037B000D2576346F006854617560000130686A0CA
:1037C000CA8526858299E30F95DFD2576257D98F34
:1037D00081E71C40858BB1DFE2865E86CA8526853F
:1037E0008299FD57E300F5DE014A130BA401FD5B4E
:1037F000D257B307F040634BFA00E2565686CA85AB
:1038000026858299FD57E316F5F26DBB85465A86EB
:10381000CA8526858299E30775DB050AD1BF3C4C32
:10382000625A63D347013E8A635A4001D286568664
:10383000CA8526858299FD57E306F5D8814C130D7C
:10384000A401FD5D09A885466A86CA8526858299F8
:10385000E30AB5D7850C032B8405D28763530A008E
:103860008147B307FB40E3C0FCFE5257E257634D6C
:10387000F7021C40858B8DEBE2575257338AE740A5
:103880006344EB00338A6741635B4001D286338631
:103890006A01CA8526858299FD57E305F5D2814ADA
:1038A000130BA401FD5B15A0E2865E86CA85268502
:1038B0008299FD57E312F5FC31B385465A86CA85D5
:1038C00026858299E30075D1850A5257E257998F70
:1038D000528763530A000147998FE3C0FAFE91BDF6
:1038E000E25605476344D700858BB5C785465686A3
:1038F000CA85268582997D5AE30645CDE2865E8695
:10390000CA8526858299E30F45CB28446C4401463D
:103910008146EF30004D1DC9E25613861A00CA8554
:10392000FD1626858299E30F45C9DA86130604053C
:10393000F9B585465686CA8526858299E30475C9F8
:10394000050AE257FD17E346FAFEC5B7014A930A96
:10395000A401FD5BFDB785465686CA8526858299FA
:10396000E31595FD85B185465686CA8526858299DB
:10397000E30A65C5050A5C447257998FE345FAFE70
:103980006DBB014A930A94017D5BF5B7797156CA04
:103990009C49BA8A984522D426D24ECE52CC06D61D
:1039A0004AD05AC85EC6AA892E84B284368A63D3A6
:1039B000E700BA879CC00347340419C385079CC03D
:1039C0001C4093F7070281C79C4089079CC00329CC
:1039D000040013796900631A0900130B9401FD5B5D
:1039E0005C449840998F634CF9041C40834634042E
:1039F00093F70702B336D000A5EB13063404D28543
:103A00004E85829AFD576303F5041C401146984089
:103A1000998B544481446397C700B384E64063D3D1
:103A2000040081441C4418486354F700998FBE94E5
:103A3000014969047D5B63982405014509A8854611
:103A40005A86D2854E85829A631E75017D55B25085
:103A5000225492540259F249624AD24A424BB24B22
:103A6000456182800509ADBF3307D400130600030A
:103A7000A301C7040347540493871600A29789063D
:103A8000A381E7049DBF85462286D2854E85829A12
:103A9000E30E65FB050945B7797122D426D24AD0D9
:103AA0004ECE06D652CC56CA5AC8B68983C68501B0
:103AB000930790063289AA842E8413863504638D79
:103AC000F60263E2D706930780056389F61863ED73
:103AD000D7006382062293073004638FF60A930AA5
:103AE00024042301D404D1A0930730066386F60A88
:103AF00093074006E395F6FE1C40084393F607083B
:103B000093054500CDC61C410CC363D807001307BD
:103B1000D002B307F040A301E40497460000938667
:103B2000A66A294775A8930700076385F61663E51B
:103B3000D7029307E006638CF6189307F006E3902C
:103B4000F6FA0C401C4313F8050813854700630878
:103B5000080608C39C4395A893075007E383F6FE25
:103B600093078007638CF61293073007E399F6F604
:103B70001C43D04181459386470014C383AA0700A4
:103B80005685EF10807201C53305554148C05C4031
:103B90001CC8A301040471A81C43930A240493863F
:103BA00047009C4314C32301F4048547D5B793F61B
:103BB00007041C410CC3B1DAC207C187B9B793F53A
:103BC000050408C3C1D983D707001307F00663882B
:103BD000E60E974600009386265F2947A30104045A
:103BE0004C400CC463C5050008406D9908C099E3BA
:103BF000B28A91CDB28AB3F5E702FD1AB69583C5B4
:103C000005002380BA00B3D5E70263F0E70CA147B3
:103C1000631EF7001C40858B91CB58401C4863C73E
:103C2000E70093070003A38FFAFEFD1A33065641FF
:103C300010C84E87CA867000A2852685EFF01FD572
:103C40007D5A631E450B7D55B25022549254025941
:103C5000F249624AD24A424B45618280A382D5042E
:103C600097460000938646560C40084313F8050813
:103C70001C411105630D080208C313F7150001C7A5
:103C800093E505020CC04147B1FB0C4093F5F5FDEF
:103C90000CC0A9B79C4193E707029CC1930780071A
:103CA000A302F404974600009386465375BF13F8A9
:103CB000050408C3E30308FCC207C1837DBF974620
:103CC000000093866650214711BFAE872DB79441FF
:103CD0001C43CC4913F80608138547006306080007
:103CE00008C39C438CC301A808C393F606049C43F5
:103CF000F5DA2390B70023280400B28A1DBF1448C8
:103D00005686CA8526858299E30F45F31C40898B28
:103D10008DE7B2474844E359F5F23E8535B785460D
:103D20005686CA8526858299E30F65F1050A5C44AB
:103D30003247998FE345FAFEE9BF014A930A94019D
:103D40007D5BF5B739713EDA2ED232D436D63AD809
:103D500042DC46DE9387418122CC804326CA06CED0
:103D6000AA8411C41C4C81E72285EF10802A0C44E0
:103D700054102686228536C6EF103066F240624423
:103D8000D24421618280011126CA4AC806CE22CCC3
:103D90004EC652C4AA842E8909C51C4D99E3EF1062
:103DA00040279C4C804481E72685EF10802697476A
:103DB00000009387A74B631CF402C0408357C400E4
:103DC000A18BB1C71C48A1C7FD59294A1C44834592
:103DD0000900FD17B1E91CC463DE07062286A94568
:103DE00026854520FD576308F502294535A09747EC
:103DF00000009387A7496314F4008044C1B7974734
:103E000000009387A744E31BF4FAC04445BFA28592
:103E100026851D2A55D97D55F2406244D244424937
:103E2000B249224A056182801CC4050963D7070094
:103E3000184C63CBE700638945011C4013871700CA
:103E400018C02380B70059B7228626851D28E31F96
:103E500035F7D1B71C401387170018C029472380B6
:103E6000E70061B793874181AA8588436FF0BFF16E
:103E7000AA87850703C7F7FF6DFF3385A7407D1528
:103E80008280011122CC26CA4AC806CE4EC6AA8418
:103E90002E89328409C51C4D99E3EF10801797478E
:103EA00000009387A73C631BF406C0401C4C1CC455
:103EB0008357C400A18BD9C31C48C9C31C48084000
:103EC0009379F90F1379F90F1D8D5C486347F5005D
:103ED000A2852685EF10C00135E51C440505FD17B8
:103EE0001CC41C401387170018C0238037015C488E
:103EF0006389A7008357C400858B89CBA9476317C3
:103F0000F900A2852685EF00B07E0DEDF2406244F7
:103F10004A85D2444249B2490561828097470000F0
:103F20009387C7366314F400804449B7974700006D
:103F30009387C731E31CF4F6C0448DBFA285268564
:103F400021202DDD7D59D9B741119387418126C2AA
:103F5000844322C44AC006C62A892E8491C49C4C3C
:103F600081E72685EF10E00A974700009387073026
:103F7000631CF402C0400317C40093170701C183F8
:103F800093F68700BDEE93F607019DEEA54723202B
:103F9000F900136707042316E4007D55B24022445C
:103FA0009244024941018280974700009387072E7F
:103FB0006314F4008044C1B7974700009387072932
:103FC000E31BF4FAC04445BF918B95C74C5891C987
:103FD000930744046385F5004A85EF109020232A57
:103FE00004028357C4002322040093F7B7FD23166D
:103FF000F4001C481CC08357C40093E787002316B5
:10400000F4001C4889EF8357C4001307002093F77E
:1040100007286386E700A2854A85EF10201E835794
:10402000C40013F7170005C75C4823240400B30736
:10403000F0401CCC1C480145B5F38317C40013F7AE
:10404000070829DF93E707042316F400B9B7898B23
:10405000014791E3584818C4F1BF011122CC1C4913
:10406000804906CE26CA4AC84EC652C456C263C14B
:1040700087127D141318240093894501338A09019E
:10408000130945014A9883270A000327080085077A
:10409000B354F7026366F706C1684E834A8E814EB9
:1040A000014FFD1811030326C3FF110E33771601CC
:1040B000418233079702330696027697935607019B
:1040C000B3771701B307FF4036968326CEFF935E82
:1040D00006013376160133F71601BA97C18213D75A
:1040E0000741918EBA9613DF0641B3F71701C20656
:1040F000D58F232EFEFEE3776AFA83270800BDCB17
:10410000AA8AEF10206C6349050441668504CA85BC
:1041100001457D16910903A8C9FF98419105B37621
:10412000C800158DB376C700AA9693570701135898
:10413000080113D70641B3870741BA9713D5074142
:10414000F18EC207D58F23AEF5FEE3753AFD9317C6
:104150002400CA9798431DC72685F2406244D24482
:104160004249B249224A924A056182808327080067
:1041700089E77D147118E36B09FF00C951B79843B3
:1041800009E77D14F117E36CF9FE23A88A00E9B76B
:104190000145E1B775713ED85C5122C526C34AC1BD
:1041A000CEDED2DCE2D406C7D6DADAD8DED6E6D264
:1041B000EAD0EECE36C23AC646CAAA842E843289E6
:1041C000C2892E8A328C89EF4145EF10400DC8D04C
:1041D00023220500232405002320050023260500B3
:1041E000DC508C4389CDD84385472685B397E700BB
:1041F0009CC5D8C1EF108015DC5023A00700635385
:1042000009048547131C190023A0F900135C1C0046
:10421000B707F07F3377FC006314F70642578967CE
:10422000320C9387F770135CCC001CC3336C8C008A
:10423000E3050C32D24791EB974700009387C70004
:104240003EC039A823A00900E1B797470000938733
:10425000A7FF3EC097470000938737FF52471CC314
:10426000BA402A4402459A440A49F659665AD65A2F
:10427000465BB65B265C965C065DF64D49618280C6
:10428000014681462285E28522CE62D4EF20703538
:1042900005E1425785471CC397470000938787F283
:1042A0003EC0D247D5DF974700009387B7F17DB76F
:1042B000B800F4006286A285268513594C01EF10E0
:1042C000A0621379F97FAA89A64A630D0910A25743
:1042D0007245130919C09395C700B181B707F03F24
:1042E000DD8D02DC974700009387C7F09043D443ED
:1042F000EF30801797470000938747F09043D443EF
:10430000EF20104B974700009387C7EF9043D443AB
:10431000EF10F05E2A8B4A85AE8BEF30F012974794
:1043200000009387A7EE9043D443EF2070482A867D
:10433000AE865A85DE85EF10905C2A8BAE8BEF300F
:10434000300A2A84014681465A85DE85EF20F03AFC
:10435000635B05002285EF30300F5A86DE86EF2042
:10436000502811C17D140547D9473AD663E3870227
:1043700013173400974700009387C7F5BA97904307
:10438000D4437245A255EF205037635305007D1486
:1043900002D633892A41930BF9FF014B63D60B00F8
:1043A000054B330B2B41814B634E0406A29B22CC61
:1043B000814A1247A54763E5E7149547854C63D6C4
:1043C000E7009307C7FF3EC2814C12478D47630E3B
:1043D000F71063CFE704894702C8630DF7068547E6
:1043E0003EC88DA03649930700025699130729430A
:1043F00063D5E70213050004198D9307294133158E
:10440000AC003354F400418DEF30100BB70710FEB1
:10441000BE9585477D193EDCF1B53385E740331500
:10442000A400DDB7330B8B40B30A804002CC51B7F8
:1044300012479147630EF70005473AC81247954760
:104440006306F70AFD573EC4FD5DC94702C619A8B9
:1044500085473EC8B2476348F00A854705473EC4D2
:10446000854D3AC603A94402114723220900930649
:1044700047018325490063FCD7082685EF00906437
:10448000DC502320A9009C433EC0B94763E6B71D1A
:1044900063840C1C635E800A9377F40013973700E3
:1044A000935C4440974700009387C7E2BA9793F61E
:1044B0000C0198430949DC4385C697460000938662
:1044C000E6DE90527245D452A2553AD03ED2EF2049
:1044D00000360257925793FCFC002A8A2E8C0D4915
:1044E000174D0000130D8DDC89A802C8B247A297B2
:1044F0003EC4938D1700EE87E346B0F785479DB71E
:10450000854C02C2E9BDB2473EC4BE8DA1BF850540
:104510002322B9000607A1BF93F61C0081CE032613
:104520000D0083264D003A85BE85EF2070280509D1
:104530002A87AE8793DC1C40210DE39F0CFC3A8652
:10454000BE865285E285EF20802E2A8A2E8C81A09D
:10455000094915CCB30C804093F7FC001397370042
:1045600097470000938707D7BA979043D443724583
:10457000A25593DC4C40174D0000130D2DD3EF20B6
:1045800030232A8A2E8C8147639C0C12DDFFB257A0
:1045900063870714174700001307C7C71043544326
:1045A0005285E28552D0EF205015635A0512638B75
:1045B0000D12A2476350F00A17470000130707C601
:1045C0008257104354433E85E285EF20701EA24778
:1045D000130DF4FF2A8A2E8C050962874A853EDE78
:1045E00052DABA8C3AD0EF30206652580257370967
:1045F000C0FC4286BA86EF20B01B97460000938627
:1046000066C29042D442528CEF10702FF2572A8A21
:104610002E99E1EF97470000938747C15258025700
:104620009043D4434285BA85EF2010645286CA86EF
:104630002A8CAE8CEF209001634AA054B70700800B
:10464000B3C727015286BE866285E685EF20F00A51
:10465000634B0552724A225CB64763C7073039473D
:10466000634487301317340097470000938787C649
:10467000BA9703AB070083AB4700B24763D207206A
:104680006340B02163910D5097470000938707BAAC
:104690009043D4435A85DE85EF2090115286E286FE
:1046A000EF20C07A814A01496357054A8247024791
:1046B0000504138A1700930710032300F70045A190
:1046C00013F71C0009CB03260D0083264D000509B6
:1046D000EF20100E854793DC1C40210D75B5228D0F
:1046E000EE87E5BD228D8147CDBD9386F7FF1396FA
:1046F0003600974600009386E6BDB2968842CC42CB
:104700008246B6973EDAC247E9C3974700009387CF
:1047100067B22A86AE868843CC434ADE52D0EF2069
:1047200000110258725717490000130929AF428639
:10473000BA86EF207053024A2AD02ED2E6856285CF
:10474000EF30004A2ADEEF3020502A86AE8662859E
:10475000E685EF207051F2572A8CAE8C2A86AE8601
:1047600002559255050A93870703A30FFAFEEF201F
:10477000E06D6348A00E974700009387A7A9884380
:10478000CC436286E686EF20304E2A86AE860255FE
:104790009255EF20A06B6342A018D257E30CFAEABF
:1047A000032609008326490002559255EF20500048
:1047B00003260900832649002AD02ED26285E68589
:1047C000EF20007F2A8CAE8C95BF5286CA86EF20E0
:1047D000207E525A02492AD02ED2E6856285EF30D9
:1047E00020402ADEEF3040462A86AE866285E68586
:1047F000EF2090477257D257050913070703A30FFD
:10480000E9FE2A8CAE8C6312F906174900001309E1
:1048100069A2032609008326490002559255EF102C
:10482000100E2A86AE866285E685EF2020626346FA
:10483000A00E025692560325090083254900EF2059
:10484000B0422A86AE866285E685EF20006B93072C
:104850000003E35105E00347FAFF9306FAFF630400
:10486000F7006A8459A8368AFDB7974700009387F6
:10487000E79A9043D443EF20A0732A8CAE8CB1BF4B
:10488000E287BE8C8247528C974A0000938A0A992D
:1048900013891700BE9D5A86DE866285E685EF1075
:1048A0001079EF30E0332A8DEF30003A5A86DE86F9
:1048B000EF2000702A86AE866285E685EF20D03A2A
:1048C00093070D03A30FF9FE2A86AE864A8A639EDC
:1048D0002D07EF10D0025A86DE862A8CAE8CEF2090
:1048E000E056634BA0025A86DE866285E685EF209D
:1048F000404F01E593771D0085E3CE852685EF00C7
:10490000F024C25723000A00050480C3D247E3897C
:10491000079423A04701A9B2228D13079003834671
:10492000FAFF9307FAFF639AE6008246639DF6005A
:1049300013070003050D2380E60003C707000507E2
:104940002380E70039BF3E8AD9BF03A60A0083A6A9
:104950004A000509EF20C065014681462A8CAE8CCD
:10496000EF2020480DF951BF4247630007109246DF
:1049700005476345D70C62579387374309E72647B6
:1049800093076003998F568DDA8C854526853E9B6B
:10499000BE9BEF0070342A89635E9001635C7001F6
:1049A000E68763D39B01DE87330BFB40B38CFC406F
:1049B000B38BFB4063800A04C247C5CF6354A00396
:1049C000CA856A862685EF0030474E86AA852A89E1
:1049D0002685EF0030322ACECE852685EF001017CF
:1049E000F247BE893386AA4111C6CE852685EF00DF
:1049F000B044AA8985452685EF00102EE247AA8A91
:104A0000635BF0063E86AA852685EF00F0421247DA
:104A10008547AA8A014D63C8E706014D63120A065D
:104A20009317CC00528DA9EFB705F07F337CBC0003
:104A300063080C04050B850B054D99A0138DFDFF34
:104A400063CAAA01338DAA4163DE0D00B30CBB41DA
:104A5000814725BFE247B30A5D41D6973ECCEA8A3B
:104A6000014DDDB7DA8CEE870DB7568DDA8C014932
:104A700025B756869DBF12478547014DE3DFE7F80E
:104A8000E247054589CF83A70A018D078A07D69794
:104A9000C843EF007019930700023385A7405E9565
:104AA0007D8951C193070002898F1147635AF70628
:104AB000F1473385A7402A9BAA9CAA9B63586001B3
:104AC000CE855A862685EF001043AA896358700167
:104AD000D6855E862685EF001042AA8AB257B1C7F6
:104AE000D6854E85EF00104E63510504CE85814674
:104AF00029462685EF00D009C2477D14AA89638C18
:104B00000726CA85814629462685EF007008A247F8
:104B10002A896345F0081247894763D1E70829A825
:104B2000E38EE7F83E85710579B76345B007124714
:104B3000894763D1E7066EC4A24791EFD6858146C7
:104B400015462685EF00D004AA8AAA854E85EF0077
:104B50007047E34DA0B4B247024A13C4F7FF014BBC
:104B6000D6852685EF00807EE30909D863080B000F
:104B700063062B01DA852685EF00407DCA852685F0
:104B8000EF00C07C9DBB814A0149F1B76A84814A2C
:104B9000014929BEC2476EC46386071E635890014F
:104BA000CA8566862685EF0010352A894A85630600
:104BB0000D02832549002685EF00C07003260901F8
:104BC0002A8B9305C90009060A063105EFE0CFECF0
:104BD0000546DA852685EF001032824722474A8B48
:104BE000138C1700BA973EC693771A002A893EC4E1
:104BF000D6854E85EFF06FC6DA852A8D930D0503B5
:104C00004E85EF00303C4A86AA8BD6852685EF007C
:104C1000903E5045930CFCFF2A8A054711E6AA8571
:104C20004E85EF00303A2A87D28526853AC8EF00B4
:104C3000E07192474247628AB3E6E700A247DD8E01
:104C400081EE130790036388ED0463547001930DA4
:104C50001D032380BC0129B763CA0B009247B3EB45
:104C60007701A247B3EBFB0063950B04E353E0FE2F
:104C7000CE8505462685EF001028D685AA89EF0047
:104C800070346346A00071F513F71D0079D3130744
:104C90009003E39EEDFA930790032380FC009306B4
:104CA00090038347FAFF1307FAFF638CD708850741
:104CB00045A0635BE00013079003E38EEDFC938750
:104CC0001D002380FC0069BDB247A30FBCFF6381B8
:104CD0008705CE85814629462685EF00606BAA8927
:104CE00081462946DA85268563182B01EF00406A44
:104CF0002A8B2A89050CEDBDEF008069CA852A8BB5
:104D0000814629462685EF00A0682A89E5B7014B30
:104D1000CE8505462685EF00101ED685AA89EF00B0
:104D2000702AE34EA0F601E593F71D00ADFB930753
:104D300000030347FAFF9306FAFFE313F7E2368A0C
:104D4000CDBF82476399E70002470504930710032C
:104D50002300F70031B53A8AA9B7524797370000C8
:104D60009387C74D3EC0973700009387A74D6317C1
:104D700007CE6FF0EFCEA2476346F0001247894797
:104D8000E3CCE7DA024AD6854E85EFF00FAD8247D5
:104D9000050A930D05033307FA40A247A30FBAFF94
:104DA000E357F7F6CE85814629462685D523AA897D
:104DB000D9BF83D7C500011122CC26CA06CE4AC866
:104DC0004EC613F78700AA842E8479EFD841634D2D
:104DD000E000B841634AE0000145F2406244D24439
:104DE0004249B2490561828058547DD703A9040025
:104DF0009396370123A0040063DE060670488357AC
:104E0000C400918B99C75C401D8E5C5899C33C408F
:104E10001D8E5C540C50814626858297FD570357A2
:104E2000C400631DF5009440F54763E9D706B70752
:104E300040208507B3D7D700858BADC31C482322FC
:104E400004001CC09317370163D80700FD57631493
:104E5000F5009C4091E368C84C5823A02401ADDDC7
:104E6000930744046385F5002685EF009037232AD5
:104E700004029DB70C500146854626850297FD57D2
:104E80002A86E31EF5F69C40BDDB75476385E70087
:104E900059476394E70423A024013DBF1367070427
:104EA0002316E4007D5515BF83A90501E38609F2A9
:104EB00003A905008D8B23A0350133093941014732
:104EC00091E3D84918C4E35920F11C540C50CA8608
:104ED0004E86268582976349A0008357C40093E7D6
:104EE00007042316F4007DBFAA993309A940E1BF46
:104EF0009C49A5C3011122CC06CE2A8411C51C4DA4
:104F000081E72EC63922B2459737000093870736CE
:104F1000639CF5004C408397C5009DC72285624481
:104F2000F24005616FF0FFE897370000938707367E
:104F30006394F5000C44C5B7973700009387073199
:104F4000E39BF5FC4C44C1BFF2406244014505615E
:104F5000828001458280411122C406C62A8423161C
:104F6000B5002317C50023200500232205002324B4
:104F700005002322050623280500232A0500232CEB
:104F80000500214681451305C505EFB04FDC971795
:104F900000009387E7F15CD097170000938747F4F0
:104FA0001CD497170000938787F85CD497170000EC
:104FB000938747FB00D01CD8B24022444101828035
:104FC00097050000938505F399AA411126C213069F
:104FD00080069384F5FFB384C4024AC02E8922C49C
:104FE00006C693854407EF00902A2A8401CD23202A
:104FF000050023222501310508C413868406814556
:10500000EFB0EFD42285B2402244924402494101DC
:1050100082801C4DA5E7411106C622C497070000F7
:10502000938747FA1CD59387C1819C4323240504A9
:1050300023260504232805046314F50085471CCDA9
:105040002A84352848C022851D2808C422850528C1
:1050500048C4484001469145EFF0FFEF084405463B
:10506000A545EFF05FEF48440946C945EFF0BFEEB4
:1050700085471CCCB240224441018280828041118C
:105080009387C18126C284434AC006C69C4C22C471
:105090002A8981E72685EFF0DFF793848404804432
:1050A000DC40FD1763D607009C40B9CF8440C5BFE4
:1050B0000317C40039E7C17785072322040623209C
:1050C000040023220400232404005CC423280400D9
:1050D000232A0400232C0400214681451305C4051E
:1050E000EFB0EFC6232A0402232C04022324040475
:1050F000232604042285B2402244924402494101FD
:1051000082801304840671BF91454A85EFF0FFEB5E
:1051100088C049FDB1472320F9000144E1BF7971FE
:1051200022D44AD052CC56CA5AC85EC606D626D217
:105130004ECE2A8AAE8A130485040149054BFD5BD5
:1051400009ECB25022544A8592540259F249624AFB
:10515000D24A424BB24B45618280044483294400C9
:10516000FD1963D409000040E1BF83D7C400637B0D
:10517000FB008397E40063877701A6855285829AB6
:105180003369A90093848406E1BF938741819C43DE
:10519000885309E517B5FF1F1305C5EE1305050F65
:1051A00082801971A6DAAE848395E500A2DC86DEE2
:1051B000328463DC050083D7C40023A0060093F784
:1051C000070885E7930700401DA0300836C6EF00AA
:1051D0001060B246E34105FE7247BD67F98F7977EB
:1051E000BA9793B717009CC2F1BF930700041CC085
:1051F000F6506654D65401450961828083D7C500B4
:10520000011122CC06CE26CA4AC8898B2E8489CFAA
:10521000930774041CC01CC885475CC8F2406244F4
:10522000D24442490561828074003000AA84EFF0C4
:105230005FF7A2452A892685EF00700501ED8317E7
:10524000C40013F7072079FBF19B93E7270023168F
:10525000F4007DBF970700009387C7D69CD483577F
:10526000C40008C008C893E707082316F400A24743
:105270005CC8B24791CF8315E4002685EF007058D3
:1052800001C98357C400F19B93E717002316F4006C
:105290008357C4003369F9002316240141B793876B
:1052A0004181AA8588436F00807E93F5F50F2A9689
:1052B0006314C5000145828083470500E38DB7FE76
:1052C0000505FDB75C51411122C44AC006C626C27D
:1052D0002A842E8989EF4145EFF07FFC48D02322B4
:1052E0000500232405002320050023260500445043
:1052F000DC4495C75850931729005847BA978843FC
:105300001DED8544B3942401138654000A06854597
:1053100022856D2511CD2322250104C51DA013066C
:10532000100291452285592D5C50C8C4DC47F9F321
:105330000145B24022449244024941018280184111
:1053400098C32328050023260500E5B75C51011109
:1053500022CC06CE2A8499EF41452EC6EFF03FF4C9
:10536000B24548D023220500232405002320050050
:105370002326050091C95450DC4113972700DC46D1
:10538000BA97984398C18CC3F24062440561828009
:1053900079714ECEAA89416522D426D22E848449C1
:1053A00006D64AD0D10501487D159C4191050508D6
:1053B00033F7A7003307C702C183B387C702369705
:1053C00093560701698FB69793D60701C207BA971C
:1053D00023AEF5FEE34B98FCA1C21C4463C7F40264
:1053E0004C404E8536C68505EFF0DFED104893053D
:1053F000C4002A8909060A063105EFD0FFE9A28513
:105400004E85EFF0BFF4B2464A84938744008A0782
:10541000A297D4C3850404C82285B2502254925462
:105420000259F249456182804177698FAA87014517
:1054300019E3C2074145370700FF7D8F19E32105B6
:10544000A207370700F07D8F19E311059207370790
:1054500000C07D8F19E309058A0763C90700139708
:1054600017000505634407001305000282801C41F4
:1054700013F777000DC393F61700014799E613F76A
:10548000270011C785831CC105473A85828089831F
:105490001CC10947DDBF93960701C182014799E20C
:1054A000C183414793F6F70F99E22107A18393F651
:1054B000F70099E21107918393F6370099E2090703
:1054C000898393F6170081E68583050799C31CC17C
:1054D0006DBF1307000255BF411122C42E848545BC
:1054E00006C6EFF03FDE40C9B2402244054718C966
:1054F0004101828098491C4A797126D206D622D46D
:105500004AD04ECEAE846354F700B2842E8683A96F
:105510000401032906019C44CC403384290163D350
:105520008700850532C6EFF0FFD9324613084501E2
:10553000131324004293C28763ED670293854401ED
:10554000939829005106131E2900C166AE98329E19
:10555000FD166364C603635680007113832703003E
:10556000F1CB00C9B250225492540259F24945611C
:10557000828023A007009107C1B7832F0600B3FFE5
:10558000DF00638A0F04428FAE82814403A70200CA
:1055900083230F00110FB37ED700B38EFE03B3F742
:1055A000D30093D303019102BE9E93570701B387A3
:1055B000F703A69E13D70E01B3FEDE009E97BA979F
:1055C00093D40701C207B3E7D701232EFFFEE3EF11
:1055D00012FB23209F0083522600638A0204832744
:1055E0000800C28E2E8F814F03270F0083D32E0019
:1055F000F58F758F33075702910E110F1E977E9707
:10560000931F0701B3E7FF0023AEFEFE8357EFFFB2
:1056100083AF0E004183B3875702B3FFDF00FE97CD
:10562000BA9793DF0701E3611FFD23A0FE00110677
:10563000110805B77D1405B7011126CA4AC84EC620
:1056400006CE22CC52C4937736002A89B284AE8922
:1056500089CFFD1717370000130747D48A07BA9779
:1056600090438146EFF0DFD2AA898984A5CC8327B5
:10567000490291EF4145EFF09FC22322A902232264
:105680000500232405002320050023260500032A06
:10569000490203248A0019E8930510274A85EFF090
:1056A000BFE32324AA002A842320050093F71400D3
:1056B00081CFCE8522864A85EFF0DFE32A8ACE8528
:1056C0004A85EFF0BFC8D289858489CC084009E9B2
:1056D0002286A2854A85EFF0FFE108C0232005005D
:1056E0002A84E9B7F24062444E85D2444249B24925
:1056F000224A05618280797126D2AE844ECE83A97A
:10570000040122D4CC41135456409C44A2994AD05F
:1057100056CA06D652CCAA8A1389190063C427092F
:10572000568532C6EFF01FBA3246930745012A8AE2
:10573000BE8601479106634A87066353040001440D
:1057400094480A04338787008A06938744017D8A38
:10575000BE9625C2130800023308C840814588431D
:10576000110791073315C500C98D232EB7FE83A5F8
:10577000C7FFB3D50501E3E4D7FE0CC399C1138974
:1057800029007D1923282A015685A685EFF01FBC24
:10579000B2502254528592540259F249624AD24A76
:1057A000456182808505860795BF23AE06FE050705
:1057B00051B7910703A6C7FF1107232EC7FEE3EADF
:1057C000D7FEC1B71C499849998F8DE30A07510547
:1057D000D105B306E500BA95F116F115904298414E
:1057E0006308E600FD576363E60085473E858280D7
:1057F000E364D5FEE5BF011126CAAE844EC6B2856C
:10580000AA89268522CC06CE4AC83284EFF09FFBB7
:1058100005E181454E85EFF0FFAA85471CC9232A83
:105820000500F2406244D2444249B2490561828097
:10583000054963460500A28701492684BE844C4081
:105840004E85EFF03FA80323040183A8040113064B
:105850004401131E2300138844018A08C16E2326C5
:105860002501329EC29893064501014FFD1E184244
:10587000832F08009106B375D701B3F7DF01FA95BE
:105880009D8D93DF0F0193570701B387F74113D71E
:105890000541BA9713DF0741B3F5D501C207CD8F94
:1058A000110823AEF6FE1106E36318FDC165FD1570
:1058B0006368C601F1169C4295C72328650095B719
:1058C0001C429106110633F7B7007A971358074127
:1058D000C183C29713DF07416D8FC207D98F23AEF3
:1058E000F6FEF9B77D13F9B7797122D42E84854578
:1058F00026D24AD0B2844ECE52CC3A8906D6368AC7
:10590000EFF05F9C370710009307F7FFE58FD1801A
:1059100093F4F47FAA89B5E03EC62DC4280022C4C2
:10592000EFF0FFB4A24621CD324793070002898FE2
:10593000B317F700D58F3357A70023AAF9003AC64B
:10594000324423AC890033348000050423A8890045
:10595000B9C49384D4BCAA949307500323209A001B
:105960003385A7402320A900B25022544E8592547B
:105970000259F249624A45618280D98F71BF23AAD8
:10598000D9007DBF6800EFF09FAEB2471305050256
:10599000054423AAF900854723A8F90055BF9317AA
:1059A00024001305E5BCCE972320AA00884B1604DB
:1059B000EFF09FA7098C232089007DB73386C502AD
:1059C000011122CC06CEB28532C6D1202A8409C567
:1059D00032468145EFA0BFB72285F240624405619F
:1059E0008280CDC583A7C5FF411122C406C626C249
:1059F0001384C5FF63D307003E94AA84652597B737
:105A0000FF1F9387278B9C4389EF2322040097B7BE
:105A1000FF1F23A1878A2244B24026859244410178
:105A200059A5637EF40014403307D4006396E70061
:105A30009843DC43369718C05CC0D1BFBA87D843BF
:105A400019C3E37DE4FE94433386D700631F8600C9
:105A50001040B29694C33386D700E31EC7FA1043B2
:105A60005843B29694C3D8C37DB76375C400B14799
:105A70009CC055B71040B306C4006316D70014434A
:105A80005843B29614C058C0C0C371B78280011188
:105A900026CA93843500F19806CE22CC4AC84EC659
:105AA000A104B14763F7F404B14463E6B4042A895E
:105AB000D52B97A7FF1F9387E77F98433A8431E45C
:105AC00097A7FF1F9387477F9C4381EB81454A85BA
:105AD0006D2697A7FF1F23A1A77EA6854A85712E55
:105AE000FD5963193507B1472320F9004A85652B15
:105AF00029A0E3DC04FAB1471CC10145F24062442D
:105B0000D2444249B249056182801C40858F63C0FE
:105B10000704AD4663F6F6001CC03E9404C001A81D
:105B20005C406314870217A7FF1F2325F7784A8577
:105B30009D2B1305B4009307440061993307F5408A
:105B400055DF3A94898F1CC055BF5CC3CDB72287FF
:105B50004040B5B7130435007198E30185FCB305E7
:105B6000A4404A85192EE31B35FBB5BF1C46FD1723
:105B70001CC663DA0700184E63C5E700A9476394A3
:105B8000F5006FE00FB01C422E851387170018C276
:105B90002380B7008280011122CC26CA4AC84EC693
